S0110000466C6578466F7838302E73726563EF
S11300000C94D3000C94FD000C94FD000C94FD00A2
S11300100C94FD000C94FD000C94FD000C94FD0068
S11300200C94FD000C94FD000C94FD000C94FD0058
S11300300C94BB020C94260B0C94FD000C94FD0054
S11300400C94FD000C94FD000C94FD000C94FD0038
S11300500C94FD000C94FD000C94FD000C94FD0028
S11300600C940E050C94FD000C94FD000C94FD0002
S11300700C94FD000C94FD000C9402010C941501E9
S11300800C943C020C94FD000C94FD000C94FD00B7
S11300900C94FD000C94FD000C94FD000C94FD00E8
S11300A00C94FD000C948D020C94FD000C94FD0046
S11300B00C94FD000C94FD000C94FD000C94FD00C8
S11300C00C94FD000C94FD000C94FD000C94FD00B8
S11300D00C94FD000C94FD000C94FD000C94FD00A8
S11300E00C94FD000C94FD001709DB0807091F0997
S11300F00B091F09EB08D708E308E7081F09FB08E9
S1130100CF08FF08CB08DF08A308A708AB08AF088F
S1130110B308B708BB08BF08C308C708EF08F3084B
S11301201B09F7081F09D3080F093B083F084308B8
S113013047084B084F08530857085B085F086308D3
S113014067086B086F08730877087B087F088308C3
S113015087088B088F08930897089B089F081F0936
S11301601F091F091F0903091F091F091F091F0967
S11301701F091F091F091F091F091F091F091F093B
S11301801F091F091F091F091F091F091F091F092B
S11301901F091F091F091F091F091F091F091F091B
S11301A013093E05450511241FBECFEFCDBFDFE780
S11301B0DEBF10E4A0E0B0E4E0EFF3E200E00BBF48
S11301C002C007900D92AE37B107D9F722E4AEE72B
S11301D0B0E401C01D92A336B207E1F710E0C2ED0E
S11301E0D0E004C02197FE010E94DC0DC13DD1077F
S11301F0C9F70E9428040C94EB110C9400000E948F
S1130200D30508951F920F920FB60F9211248F9366
S11302108091260B80FF03C081E08093260B8F9191
S11302200F900FBE0F901F9018951F920F920FB64C
S11302300F9211240BB60F920F931F932F933F939A
S11302404F935F936F937F938F939F93AF93BF93DA
S1130250CF93DF93EF93FF930E949B0B182F809112
S1130260894090918A40892B31F40E9472078093CF
S1130270894090938A40C0918940D0918A402097C8
S113028009F4E3C0812F90E00E94060F843211F03C
S1130290813249F510928840813211F483E001C023
S11302A081E08883109287401092834010928440AA
S11302B0109285401092864081E080938240109293
S11302C0814080918140833058F4FE0105E1809F94
S11302D0E00DF11D112413828F5F80938140F1CFD3
S11302E010928140A7C090918240992309F48BC059
S11302F08C3229F08B3319F08F3309F042C090917E
S11303008140992389F0292F30E02150310940910F
S1130310874055E1529FF001539FF00D1124EC0FDB
S1130320FD1FE40FF11D13829F5F90938140109293
S113033087408B3369F480918840843030F0809119
S113034083409091844089839A831092824010C0A4
S11303508F3371F482E0888380918840843030F058
S1130360809183409091844089839A831092824043
S11303708091824081115EC01092894010928A401F
S113038059C020918140211129C04091834050914E
S113039084406091854070918640440F551F661FCC
S11303A0771F8A019B01000F111F221F331F000FAB
S11303B0111F221F331F400F511F621F731F8A0119
S11303C09B01080F111D211D311D009383401093C3
S11303D0844020938540309386402CC030E02150E7
S11303E031099091874041E0490F4093874065E18E
S11303F0629FA001639F500D1124C40FD51FC90F24
S1130400D11D8B8317C08D30A9F419821A8282E31F
S113041080938840109287401092834010928440C9
S1130420109285401092864010928140109289402B
S113043010928A40809188408F5F809388408233F5
S113044020F01092824010928840FF91EF91DF914A
S1130450CF91BF91AF919F918F917F916F915F9158
S11304604F913F912F911F910F910F900BBE0F90C1
S11304700FBE0F901F9018951F920F920FB60F92F8
S113048011240BB60F922F933F934F935F936F9367
S11304907F938F939F93AF93BF93EF93FF93809139
S11304A07F4090918040892B31F40E941A078093F9
S11304B07F4090938040E0917F40F0918040809114
S11304C07E40DF01A80FB11D9C91992331F08F5F0D
S11304D080937E40909322080DC010927E4010823B
S11304E00E941A0780937F4090938040892B11F4D7
S11304F00E94B207FF91EF91BF91AF919F918F91AD
S11305007F916F915F914F913F912F910F900BBE0F
S11305100F900FBE0F901F9018951F920F920FB659
S11305200F9211242F933F938F939F938091360BB7
S113053080FF18C08091E3409091E4409C012F5FBC
S11305403F4F2093E3403093E4408B32914039F4A1
S11305501092E3401092E4408AB180648AB981E049
S11305608093360B9F918F913F912F910F900FBEE7
S11305700F901F9018951F920F920FB60F9211248F
S11305800BB60F922F933F934F935F936F937F9389
S11305908F939F93AF93BF93EF93FF93CF93DF9387
S11305A000D01F92CDB7DEB78091060B80FF38C113
S11305B08091A1409091A240892B49F08091A14063
S11305C09091A24001978093A1409093A240809182
S11305D0D240882329F08091D340811103C003C005
S11305E080E001C081E0882309F481C08091A440A7
S11305F09091A540A091A640B091A7401816190665
S11306001A061B060CF058C08091E5409091E64014
S1130610009709F444C001978093E5409093E64025
S1130620892B09F064C0AE014E5F5F4FBE016D5F60
S11306307F4F80E090E00E9423098093E7408B8104
S1130640811125C08A81882311F18DEF8093A04008
S1130650809109400E946004809307409093084071
S113066081E08B8340E050E0BE016D5F7F4F88EAFC
S113067090E40E942309AE014E5F5F4FBE016D5F9F
S11306807F4F80E090E00E9423098093E7408091AF
S1130690E740882361F181E00E94590B28C08091D2
S11306A0E7400E945B0B8091074090910840809343
S11306B0E5409093E6401BC08091A4409091A540F2
S11306C0A091A640B091A740892B8A2B8B2B79F45B
S11306D08091E740882359F01092E74080E00E941F
S11306E05B0B80E00E94590B8EEF8093A0408091B9
S11306F0E840811142C08FEF8093E94019828981DB
S1130700853030F5E981F0E0EE0FFF1FE65FFF4B27
S113071080819181892B59F0E981F0E0EE0FFF1F70
S1130720E65FFF4B80819181019780839183E9810A
S1130730F0E0EE0FFF1FE65FFF4B80819181892B74
S113074019F489818093E94089818F5F8983D7CFA8
S11307508091E94088230CF460C0880F990BFC0158
S1130760E759FF4B20813181FC01E65FFF4B208379
S1130770318381E08093E84050C01092EA401092A7
S1130780EB404091E940842F042E000C990BFC01AE
S1130790EE0FFF1FE752FF4B20813181FC01EC5229
S11307A0FF4B51E0508341112DC0FC01EE0FFF1FA0
S11307B0ED58FF4B408151814217530760F4FC010F
S11307C0EE0FFF1FE65FFF4B24E630E0208331830A
S11307D020E030E019C02115310511F02150310914
S11307E041E04093A340243744E0340718F01092CA
S11307F006400AC02D3842E0340730F041E040930F
S1130800064002C020E030E0880F991FFC01E75247
S1130810FF4B208331831092E84081E08093060BE4
S11308202396CDBFDEBFDF91CF91FF91EF91BF91B2
S1130830AF919F918F917F916F915F914F913F9174
S11308402F910F900BBE0F900FBE0F901F90189515
S11308500E94FF0087E190E40E94EF0781E00E947C
S1130860DF04C0E0D0E001C0E80168EE73E080E09E
S113087090E00E949B0A8111F8CF8E010F5F1F4FF9
S1130880DF93CF938FE190E49F938F938BE890E471
S11308909F938F930E940E0F8BE890E40E94EF07C2
S11308A08CEE90E40E9474060F900F900F900F90BE
S11308B00F900F908823C1F281E080930C06D4CF6F
S11308C080E090E00895E0E6F4E08289887F828BFE
S11308D082898460828B8389887F838B8389846007
S11308E0838B8489887F848B84898460848B8589C5
S11308F0887F858B85898460858B8289877F828BBD
S11309008389877F838B8489877F848B8589877F8D
S1130910858B089581E08093A00008959AE09093D8
S11309200206882341F0E0E0F6E083E0808381E082
S1130930848782870895E0E0F6E081E0808314866E
S11309400895CF93C82F0E9463040E948A048C2FB9
S11309500E948E0481E08093ED40CF910895E0E001
S1130960F6E0148610821092ED400895EF92FF9203
S11309700F931F93CF93DF93EC017B01019779F4DD
S11309806F3F7F4F61F400E010E42CEB36E440E06D
S113099050E069E473E48CEE90E40E94EA05CD2B08
S11309A039F4EF20E09421F48CEE90E40E943A06AE
S11309B0DF91CF911F910F91FF90EF9008958230B6
S11309C081F018F4813031F021C0833089F0843013
S11309D0B1F01CC081E00E94A10482E0809308066B
S11309E0089580E00E94A10483E08093080608959E
S11309F080E00E94A10484E080930806089580E0CA
S1130A000E94A10485E08093080608950E94AF0423
S1130A100895809110069091110608951F920F92E7
S1130A200FB60F9211240BB60F922F933F934F934F
S1130A305F936F937F938F939F93AF93BF93EF9342
S1130A40FF930E940905BC018CEE90E40E944106CC
S1130A50811110920C06FF91EF91BF91AF919F917C
S1130A608F917F916F915F914F913F912F910F9053
S1130A700BBE0F900FBE0F901F9018956FEF7FEF76
S1130A8081E090E00E94B60408956FEF7FEF80E06C
S1130A9090E00E94B60408951092890080E00895C1
S1130AA044E268ED88E690E00E941C0A80E0089524
S1130AB0789480E0089583E08093A2006AE070E077
S1130AC080E090E00E949B0A8111F8CF0895282FBE
S1130AD02295220F220F207CE0EAF6E022839695ED
S1130AE0879596958795838308950E945B05E0E634
S1130AF0F4E08689887F868B86898460868B8689E4
S1130B00877F868B81EC8093A00680E090E00E9432
S1130B106705089580E0883048F4E82FF0E0E05F4E
S1130B20FB4F9081986090838F5FF5CF80E0883091
S1130B3048F4E82FF0E0E05DFB4F908198609083EB
S1130B408F5FF5CF80E0883048F4E82FF0E0E05B79
S1130B50FB4F9081986090838F5FF5CF80E0883061
S1130B6048F4E82FF0E0E059FB4F908198609083BF
S1130B708F5FF5CF80E0883048F4E82FF0E0E0574D
S1130B80FB4F9081986090838F5FF5CF80E0883031
S1130B9048F4E82FF0E0E055FB4F90819860908393
S1130BA08F5FF5CF08950E948A050E9450050E9428
S1130BB07E0A0E94580589B18F7B89B988B1806407
S1130BC088B90E947C0A0E9475050E94CF070E9482
S1130BD04C050895EF92FF920F931F93CF93DF93E9
S1130BE0E42EF52ED62FC72F0093F5401093F64030
S1130BF02093F7403093F84020E030E041E553E49F
S1130C006E2D7F2D8D2F9C2F0E946A0D18168CF04F
S1130C1020E030E048EC52E46E2D7F2D8D2F9C2F88
S1130C200E940B0C88234CF4E12CF12CD8ECC2E488
S1130C3004C0E12CF12CD1E5C3E46E2D7F2D8D2F62
S1130C409C2F0E94820C6093F3407093F440809137
S1130C50F3409091F440880F991F0E94E50D809312
S1130C60EE409093EF40DF91CF911F910F91FF9051
S1130C70EF9008958091EE409091EF400E947D0E98
S1130C8008958091F040882319F08091F0400895F0
S1130C90E091F140F091F240EE0FFF1F8091EE40A1
S1130CA09091EF40E80FF91F608371838091F140C8
S1130CB09091F24001968093F1409093F2402091FC
S1130CC0F1403091F2408091F3409091F440281724
S1130CD039073CF01092F1401092F24081E0809389
S1130CE0F0408091F04008958091F040089580E0B4
S1130CF090912509907C31F08091250984FD07C0ED
S1130D0081E008C0909125099C7019F403C082E029
S1130D1001C084E0882361F3089580E0909125095F
S1130D20907C29F4909125099C7019F403C083E008
S1130D3001C084E0882391F30895FF920F931F93D9
S1130D40CF93DF938B01C42F8E7F809327090E945A
S1130D5077068130C1F4CC23C1F001151105B9F037
S1130D60D0E0FF24FA94FC0ECC2399F0F8018081A2
S1130D70809328090E947706813069F4DF5F0F5F52
S1130D801F4FCF2DEECF8FEF07C080E005C080E06E
S1130D9003C08D2F01C08D2FDF91CF911F910F9133
S1130DA0FF900895FF920F931F93CF93DF938B01CE
S1130DB0D42F8160809327090E947706813049F5FA
S1130DC0F8018081882331F0809328090E947706F6
S1130DD0813009F5DD2309F10115110501F1C0E0A8
S1130DE0FF24FA94FD0EDD23E1F00E948D0683308A
S1130DF0D1F480912809F8018083F11002C087E0C2
S1130E0001C082E080932409CF5F0F5F1F4FDF2D65
S1130E10E7CF8FEF09C08FEF07C080E005C080E007
S1130E2003C08C2F01C08C2FDF91CF911F910F91A4
S1130E30FF90089590E08091FB40282F30E042E33A
S1130E40429FF001439FF00D1124E058FE4B408176
S1130E5041110BC09F5F943050F48F5F8093FB402F
S1130E60843048F31092FB40E6CF81E001C080E07B
S1130E70882349F042E3429FC001439F900D11240F
S1130E8080589E4B089580E090E0089590E0809112
S1130E90FA40282F30E042E3429FF001439FF00DD7
S1130EA01124E058FE4B4081442359F09F5F943055
S1130EB050F48F5F8093FA40843048F31092FA40E4
S1130EC0E6CF81E001C080E0882349F042E3429FFD
S1130ED0C001439F900D112480589E4B089580E0DB
S1130EE090E0089590E08091F940282F30E042E4AA
S1130EF0429FF001439FF00D1124E450FF4B4181C8
S1130F005281452B59F09F5F923050F48F5F80934C
S1130F10F940823040F31092F940E5CF81E001C0FE
S1130F2080E0882349F042E4429FC001439F900D32
S1130F30112484509F4B089580E090E0089580919F
S1130F4048420895CF9380914842C1E08111C0E0A6
S1130F50811105C081E0809348420E94920B8C2F3E
S1130F60CF91089580914842882339F0E0E2F8E077
S1130F7085818F7D858310924842089528B12D7F05
S1130F8028B9E1E5F4E02081277F208329B12E7F71
S1130F9029B928B1216028B90E94700B089584E80A
S1130FA0ECEFF0E4DF011D928A95E9F780E090E030
S1130FB0843091055CF422E3289FF001299FF00D11
S1130FC01124E058FE4B10820196F2CF60E875E2DE
S1130FD080E090E00E94BE071092144008950F93A1
S1130FE01F93CF93DF932091144021112FC00097BA
S1130FF079F18C010E944607C8ECD0E00097B1F467
S11310002097A1F00E949F07882321F0209721F4C4
S113101090E003C090E001C091E0992321F0209773
S113102089F32197EFCF0E944607E8CF009791F00C
S11310301F930F939F938F930E940E0F0E94A207FA
S11310400F900F900F900F9080E005C081E003C0D7
S113105081E001C081E0DF91CF911F910F9108954C
S113106090E0FC01B097ED35F10508F0E8C0EC58CC
S1131070FF4F0C94DC0D62E072E085E0089561E0BE
S113108074E089E0089565E074E08BE0089561E020
S113109073E087E0089560E071E081E0089564E022
S11310A074E089E0089563E073E089E0089560E006
S11310B074E087E0089560E072E083E008956EE0F4
S11310C074E08DE0089565E073E089E0089562E0DE
S11310D074E089E0089563E072E087E0089561E0D8
S11310E072E085E0089567E073E08BE0089566E0C0
S11310F074E08BE008956BE074E08DE0089562E0A5
S113110073E087E0089560E073E085E0089561E0AE
S113111071E083E0089564E073E087E0089568E097
S113112074E089E0089566E073E089E0089569E079
S113113074E08BE008956DE074E08DE0089563E061
S113114074E08BE008956FE175E083E108956EE14A
S113115075E081E108956CE175E08FE0089568E140
S113116075E08DE0089560E175E08BE0089560E03E
S113117075E089E0089561E075E08BE0089563E02F
S113118075E08DE0089567E075E08FE008956FE005
S113119075E081E108956AE276E081E1089563E310
S11311A076E083E108956CE076E08FE008956EE1E7
S11311B076E083E1089565E376E083E1089569E0EC
S11311C075E08DE008956DE075E08FE008956DE2BF
S11311D076E083E1089562E075E08BE0089567E0CE
S11311E076E081E1089565E176E08CE0089561E1BF
S11311F075E08DE008956AE075E08DE0089561E2A0
S113120076E08FE008956CE276E081E1089562E192
S113121076E08FE0089568E477E081E1089566E17F
S113122076E081E108956FEF77E084E008956EEF52
S113123077E087E008956FE175E083E1089560E069
S113124070E080E00895CF93DF93EA010097B1F155
S1131250109254426115710521F0DB012C91209309
S11312601640FC0120812223D9F0809352429093AE
S1131270534280E280931540822F0E94300860938D
S11312804F42709350428093514210924E421092BA
S11312904D4210924C4210924B4210924A420AC064
S11312A0109252421092534281E080934A42209716
S11312B009F088831092494280E0BBC0E091524219
S11312C0F0915342309709F4A5C06115710521F0DE
S11312D080911640DB018C9380914A42882349F027
S11312E0209709F4A3C081E088831092544280E0DF
S11312F0A0C080914C42882321F0815080934C42BD
S11313007FC080914942882381F0809154428111A9
S11313100CC01092494280914B42882309F470C05A
S113132080934C4210924B426BC0909150428091FA
S11313304D42891790F180914E428F5F80934E42C7
S1131340DF01A80FB11D8C9180931540811119C044
S113135080911640882331F080818093154010924B
S11313604E420FC010925242109253421092494280
S113137091E090934A42209709F098831092544246
S113138058C0809115400E94300860934F4270937A
S113139050428093514210924D4220914F422D3F32
S11313A000F540914D4231E0340F30934D4281E0DD
S11313B090E002C0880F991F4A95E2F7822321F03A
S11313C082E080934C4202C010924C4281E08093B0
S11313D0494280915042381798F082E080934B4202
S11313E00FC0809150429FEF90934D42109249421A
S11313F0843020F0845080934C4202C010924C42BE
S1131400809115408C3321F481E08093544202C0D2
S113141010925442209719F080914A428883809117
S11314205442811105C08091494203C080E001C04B
S113143081E0DF91CF9108951BBEFC0164BF40831E
S11314400895CF93C62F462FBC0180EC0E949D06C1
S113145091E0C81301C090E0892FCF910895CF93F4
S1131460C62F462FBC0180EC0E94D20691E0C8131F
S113147001C090E0892FCF9108950F931F93CF93CC
S1131480DF9300D0CDB7DEB7182F062F83E0898312
S113149061E0CE0101960E942F0A811123C0998137
S11314A0002359F021E030E002C0220F331F1A95C7
S11314B0E2F7822F8095892309C021E030E002C041
S11314C0220F331F1A95E2F7892F822B93E0998319
S11314D08A8362E0CE0101960E94210A882321F0CA
S11314E08CEF03C08CEF01C080E00F900F90DF9170
S11314F0CF911F910F91089580E00895E0E0FBE003
S113150081E0858320E43CE92487358793E0908358
S11315108683E0E1FBE0858340EC5DE54487558705
S113152080838683E0E3FBE085832487358790838B
S1131530868380E008950F931F93611571058105DB
S1131540910509F467C0209159422223F1F10091D9
S11315505A4210915B4220915C4230915D42012BD2
S1131560022B032B71F41092150B10925942109216
S1131570554210925642109257421092584280E0BF
S113158062C00091554210915642209157423091C9
S11315905842601771078207930709F451C01092EB
S11315A01A0B10921B0B6093554270935642809312
S11315B057429093584260935A4270935B4280938F
S11315C05C4290935D4280E03EC000915542109190
S11315D05642209157423091584260177107820752
S11315E0930771F110921A0B10921B0B60935542E2
S11315F070935642809357429093584260935A4254
S113160070935B4280935C4290935D4281E080934F
S1131610594216C01092150B10925942109255421D
S113162010925642109257421092584210925A42C7
S113163010925B4210925C4210925D4280E003C0C3
S113164081E08093150B1F910F9108951F920F92C3
S11316500FB60F9211248F939F93AF93BF938091F2
S1131660160B80FF1DC080915A4290915B42A0915D
S11316705C42B0915D420097A105B10561F001970C
S1131680A109B10980935A4290935B42A0935C42B2
S1131690B0935D4202C01092150B81E08093160B4B
S11316A0BF91AF919F918F910F900FBE0F901F909C
S11316B0189580E00895882361F080915E4281113D
S11316C00EC061E081E00E943D0A81E080935E42A9
S11316D0089560E081E00E943D0A10925E42089500
S11316E00E94B80C20E030E040E851E40E946F0D05
S11316F09B01AC0160E07BE187EB9EE40E94100C4F
S113170020E030E040E05FE30E949F0B0E94890CE0
S1131710E0E2F8E06087718780E8858380EC868367
S113172080E00895E0E2F8E0868180648683858124
S11317308062858308958091200808955058BB27BE
S1131740AA270E94B60B0C94300D0E94220D38F08B
S11317500E94290D20F039F49F3F19F426F40C94CB
S11317601F0D0EF4E095E7FB0C94190DE92F0E9470
S1131770410D58F3BA17620773078407950720F0E1
S113178079F4A6F50C94630D0EF4E0950B2EBA2FA4
S1131790A02D0B01B90190010C01CA01A001112473
S11317A0FF27591B99F0593F50F4503E68F11A161F
S11317B0F040A22F232F342F4427585FF3CF4695B0
S11317C037952795A795F0405395C9F77EF41F16D2
S11317D0BA0B620B730B840BBAF09150A1F0FF0F9C
S11317E0BB1F661F771F881FC2F70EC0BA0F621F88
S11317F0731F841F48F4879577956795B795F79578
S11318009E3F08F0B0CF9395880F08F09927EE0F0C
S11318109795879508950E94F50C08F481E0089542
S11318200E94240C0C94300D0E94290D58F00E9443
S1131830220D40F029F45F3F29F00C94190D511149
S11318400C94640D0C941F0D0E94410D68F39923B0
S1131850B1F3552391F3951B550BBB27AA276217A8
S11318607307840738F09F5F5F4F220F331F441FB5
S1131870AA1FA9F335D00E2E3AF0E0E832D09150E9
S11318805040E695001CCAF72BD0FE2F29D0660FD6
S1131890771F881FBB1F261737074807AB07B0E819
S11318A009F0BB0B802DBF01FF2793585F4F3AF01F
S11318B09E3F510578F00C94190D0C94640D5F3F14
S11318C0E4F3983ED4F3869577956795B795F795A5
S11318D09F5FC9F7880F911D9695879597F908958D
S11318E0E1E0660F771F881FBB1F62177307840729
S11318F0BA0720F0621B730B840BBA0BEE1F88F738
S1131900E09508950E94890C6894B1110C94640DBB
S113191008950E94490D88F09F5798F0B92F992790
S1131920B751B0F0E1F0660F771F881F991F1AF0C6
S1131930BA95C9F714C0B13091F00E94630DB1E0BB
S113194008950C94630D672F782F8827B85F39F0BA
S1131950B93FCCF3869577956795B395D9F73EF45F
S113196090958095709561957F4F8F4F9F4F089507
S1131970E89409C097FB3EF4909580957095619525
S11319807F4F8F4F9F4F9923A9F0F92F96E9BB27DB
S11319909395F695879577956795B795F111F8CF57
S11319A0FAF4BB0F11F460FF1BC06F5F7F4F8F4FC2
S11319B09F4F16C0882311F096E911C0772321F0B8
S11319C09EE8872F762F05C0662371F096E8862F50
S11319D070E060E02AF09A95660F771F881FDAF7A7
S11319E0880F9695879597F90895990F0008550FD4
S11319F0AA0BE0E8FEEF16161706E807F907C0F091
S1131A0012161306E407F50798F0621B730B840B98
S1131A10950B39F40A2661F0232B242B252B21F472
S1131A2008950A2609F4A140A6958FEF811D811D12
S1131A30089597F99F6780E870E060E008959FEF4C
S1131A4080EC089500240A94161617061806090651
S1131A50089500240A941216130614060506089520
S1131A60092E0394000C11F4882352F0BB0F40F4A8
S1131A70BF2B11F460FF04C06F5F7F4F8F4F9F4FE8
S1131A80089557FD9058440F551F59F05F3F71F06A
S1131A904795880F97FB991F61F09F3F79F08795D1
S1131AA00895121613061406551FF2CF4695F1DF5A
S1131AB008C0161617061806991FF1CF86957105EA
S1131AC0610508940895E894BB2766277727CB011E
S1131AD097F908950E94F50C08F48FEF08950E9479
S1131AE0820D0C94300D0E94220D38F00E94290DB5
S1131AF020F0952311F00C94190D0C941F0D112452
S1131B000C94640D0E94410D70F3959FC1F3950FE1
S1131B1050E0551F629FF001729FBB27F00DB11D6D
S1131B20639FAA27F00DB11DAA1F649F6627B00DFD
S1131B30A11D661F829F2227B00DA11D621F739FE6
S1131B40B00DA11D621F839FA00D611D221F749FF4
S1131B503327A00D611D231F849F600D211D822F3B
S1131B60762F6A2F11249F5750409AF0F1F0882362
S1131B704AF0EE0FFF1FBB1F661F771F881F91508F
S1131B805040A9F79E3F510580F00C94190D0C9418
S1131B90640D5F3FE4F3983ED4F38695779567959B
S1131BA0B795F795E7959F5FC1F7FE2B880F911DB9
S1131BB09695879597F90895EE0FFF1F0024001C52
S1131BC00BBE0790F691E02D09940F931F93CF93CA
S1131BD0DF938230910510F482E090E0E09161425D
S1131BE0F091624220E030E0A0E0B0E0309719F1DB
S1131BF0408151810281138148175907C8F0841725
S1131C00950769F4109731F012960C931297139676
S1131C101C9327C0009361421093624222C0211595
S1131C20310519F04217530718F49A01BD01EF0169
S1131C30DF01F801DBCF21153105F9F0281B390B41
S1131C402430310580F48A819B816115710521F06E
S1131C50FB018283938304C0809361429093624228
S1131C60FE01329644C0FE01E20FF31F819391936B
S1131C7022503109288339833AC020915F42309140
S1131C806042232B41F42091024030910340209381
S1131C905F42309360422091004030910140211511
S1131CA0310541F42DB73EB74091044050910540B1
S1131CB0241B350BE0915F42F0916042E217F30779
S1131CC0A0F42E1B3F0B2817390778F0AC014E5FA8
S1131CD05F4F2417350748F04E0F5F1F40935F4254
S1131CE0509360428193919302C0E0E0F0E0CF0111
S1131CF0DF91CF911F910F910895CF93DF930097B8
S1131D0009F481C0FC01329712821382A0916142CE
S1131D10B0916242109781F420813181820F931F28
S1131D2020915F42309160422817390751F5E093C2
S1131D305F42F093604267C0ED0120E030E0CE17CF
S1131D40DF0740F44A815B819E0141155105F1F0A2
S1131D50EA01F5CFC283D38340815181840F951F5B
S1131D60C817D90759F488819981840F951F029661
S1131D70808391838A819B8182839383211531059A
S1131D8029F4E0936142F09362423DC0E901EA83A1
S1131D90FB8349915991C40FD51FEC17FD0761F4DA
S1131DA080819181840F951F0296E901888399832C
S1131DB0828193818A839B83E0E0F0E012968D9187
S1131DC09C911397009719F0FD01DC01F7CF8D91D9
S1131DD09C9111979D012E5F3F4F820F931F20917D
S1131DE05F42309160422817390769F4309729F42B
S1131DF0109261421092624202C012821382A09336
S1131E005F42B0936042DF91CF910895911108959C
S1131E1081568A5108F48052855808950F931F9370
S1131E20CF93DF93CDB7DEB72E97CDBFDEBF0D893D
S1131E301E8986E08C8309831A838FEF9FE78D8345
S1131E409E83AE01475E5F4F6F89788DCE01019608
S1131E500E94370FEF81F885E00FF11F10822E9654
S1131E60CDBFDEBFDF91CF911F910F9108952F92C7
S1131E703F924F925F926F927F928F929F92AF9216
S1131E80BF92CF92DF92EF92FF920F931F93CF9363
S1131E90DF93CDB7DEB72B97CDBFDEBF6C017B01DF
S1131EA08A01FC0116821782838181FFCCC1CE0195
S1131EB001963C01F6019381F70193FD859193FF0F
S1131EC081917F01882309F4BAC1853239F493FDE5
S1131ED0859193FF81917F01853229F4B60190E0C9
S1131EE00E945111E7CF912C212C312CFFE1F315E5
S1131EF0D8F08B3279F038F4803279F08332A1F45F
S1131F00232D20611DC08D3261F0803369F4232DAF
S1131F10216016C0832D8260382EE32DE4603E2EAE
S1131F202AC0F32DF8601DC037FC2DC020ED280F0A
S1131F302A3040F08E32B9F436FC81C1232D20645E
S1131F40322E19C036FE06C08AE0989E200D112458
S1131F50922E11C0EAE02E9E200D1124222EF32D84
S1131F60F0623F2E08C08C3621F4832D8068382E11
S1131F7002C0883641F4F70193FD859193FF819166
S1131F807F018111B3CF982F9F7D9554933028F40E
S1131F900C5F1F4F9FE399830DC0833631F0833765
S1131FA071F0833509F059C021C0F801808189831B
S1131FB00E5F1F4F88248394912C530113C0280172
S1131FC0F2E04F0E511CF801A080B18036FE03C030
S1131FD0692D70E002C06FEF7FEFC5010E944611CA
S1131FE04C018201F32DFF773F2E16C0280122E019
S1131FF0420E511CF801A080B18036FE03C0692D49
S113200070E002C06FEF7FEFC5010E943B114C01ED
S1132010F32DF0683F2E820133FC1BC0822D90E02B
S113202088169906B0F4B60180E290E00E9451113E
S11320302A94F4CFF50137FC859137FE81915F0135
S1132040B60190E00E94511121102A9421E0821AD5
S113205091088114910471F7E8C0843611F089362F
S113206041F5F80137FE07C0608171818281938157
S11320700C5F1F4F08C060817181072E000C880B14
S1132080990B0E5F1F4FF32DFF763F2E97FF09C06C
S113209090958095709561957F4F8F4F9F4FF06815
S11320A03F2E2AE030E0A3010E948D11882E86186D
S11320B045C0853731F4232D2F7EB22E2AE030E03F
S11320C025C0932D997FB92E8F36C1F018F4883529
S11320D079F0B5C0803719F0883721F0B0C0E92F06
S11320E0E061BE2EB4FE0DC0FB2DF460BF2E09C00E
S11320F034FE0AC0292F2660B22E06C028E030E044
S113210005C020E130E002C020E132E0F801B7FE72
S113211007C060817181828193810C5F1F4F06C06B
S11321206081718180E090E00E5F1F4FA3010E94E7
S11321308D11882E8618FB2DFF773F2E36FE0DC09D
S1132140232D2E7FA22E891458F434FE0BC032FCAA
S113215009C0832D8E7EA82E05C0B82CA32C03C0E5
S1132160B82C01C0B92CA4FE0FC0FE01E80DF11D6E
S11321708081803321F49A2D997EA92E09C0A2FE74
S113218006C0B394B39404C08A2D867809F0B3943E
S1132190A3FC11C0A0FE06C0B21488F4280C922C33
S11321A09B180EC0B21460F4B60180E290E00E9465
S11321B05111B394F7CFB21418F42B1802C0982C11
S11321C0212CA4FE10C0B60180E390E00E945111BE
S11321D0A2FE17C0A1FC03C088E790E002C088E516
S11321E090E0B6010CC08A2D867859F0A1FE02C099
S11321F08BE201C080E2A7FC8DE2B60190E00E9470
S11322005111891438F4B60180E390E00E94511111
S11322109A94F7CF8A94F301E80DF11D8081B601F9
S113222090E00E9451118110F5CF222009F442CE92
S1132230B60180E290E00E9451112A94F6CFF60193
S11322408681978102C08FEF9FEF2B96CDBFDEBFB3
S1132250DF91CF911F910F91FF90EF90DF90CF907E
S1132260BF90AF909F908F907F906F905F904F90B2
S11322703F902F900895FC0105906150704001102B
S1132280D8F7809590958E0F9F1F0895FC0161509B
S1132290704001900110D8F7809590958E0F9F1F84
S11322A008950F931F93CF93DF93FB01238121FDA7
S11322B003C08FEF9FEF2CC022FF16C046815781C9
S11322C0248135814217530744F4A081B1819D01D3
S11322D02F5F3F4F208331838C93268137812F5F7B
S11322E03F4F2683378314C08B01EC01FB0100842C
S11322F0F185E02D0995892BE1F6D80116968D918B
S11323009C911797019616968D939C931797CE01DF
S1132310DF91CF911F910F910895FA01AA272830D8
S113232051F1203181F1E8946F936E7F6E5F7F4F9E
S11323308F4F9F4FAF4FB1E03ED0B4E03CD0670F1A
S1132340781F891F9A1FA11D680F791F8A1F911D6D
S1132350A11D6A0F711D811D911DA11D20D009F4BD
S113236068943F912AE0269F11243019305D3193FF
S1132370DEF6CF010895462F4770405D4193B3E0E8
S11323800FD0C9F7F6CF462F4F70405D4A3318F08F
S1132390495D31FD4052419302D0A9F7EACFB4E040
S11323A0A6959795879577956795BA95C9F70097F8
S11323B06105710508959B01AC010A2E0694579599
S11323C0479537952795BA95C9F7620F731F841FF0
S11323D0951FA01D089510E0C2EDD0E004C0FE01D9
S11323E00E94DC0D2196C33DD107C9F7F894FFCFB5
S11323F0000063422000033200086009600960099C
S1132400F000F0000120014142432E2E2E0A005319
S113241065636F6E64733A2025640A003100455386
S11324205000256C750054494D004D2C2575005005
S11324304F5700582C256400256C642C00465245E7
S11324400021424154002154454D00312E3600569E
S11324504552002141434B3B00600960096009F08B
S111246000F000F401F401F401F401F40100B1
S9030000FC
