:100000000C94D1000C94F0000C94F0000C94F000CF
:100010000C94F0000C94F0000C94F0000C94F000A0
:100020000C94F0000C94F0000C94F0000C94F00090
:100030000C94AE020C940A0A0C94F0000C94F0009C
:100040000C94F0000C94F0000C94F0000C94F00070
:100050000C94F0000C94F0000C94F0000C94F00060
:100060000C9495040C94F0000C94F0000C94F000A7
:100070000C94F0000C94F0000C94F5000C94080122
:100080000C942F020C94F0000C94F0000C94F000EF
:100090000C94F0000C94F0000C94F0000C94F00020
:1000A0000C94F0000C9480020C94F0000C94F0007E
:1000B0000C94F0000C94F0000C94F0000C94F00000
:1000C0000C94F0000C94F0000C94F0000C94F000F0
:1000D0000C94F0000C94F0000C94F0000C94F000E0
:1000E0000C94F0000C94F000FB07BF07EB0703082B
:1000F000EF070308CF07BB07C707CB070308DF07D6
:10010000B307E307AF07C30787078B078F0793077B
:1001100097079B079F07A307A707AB07D307D70737
:10012000FF07DB070308B707F3071F0723072707A6
:100130002B072F07330737073B073F0743074707BF
:100140004B074F07530757075B075F0763076707AF
:100150006B076F07730777077B077F078307030822
:10016000030803080308E707030803080308030854
:100170000308030803080308030803080308030827
:100180000308030803080308030803080308030817
:100190000308030803080308030803080308030807
:1001A000F70711241FBECFEFCDBFDFE7DEBF10E49E
:1001B000A0E0B0E4E6EFFEE100E00BBF02C0079074
:1001C0000D92A837B107D9F722E4A8E7B0E401C03F
:1001D0001D92AC34B207E1F70E941B040C94790F16
:1001E0000C9400000E94440508951F920F920FB6D0
:1001F0000F9211248F938091260B80FF03C081E022
:100200008093260B8F910F900FBE0F901F90189523
:100210001F920F920FB60F9211240BB60F920F93ED
:100220001F932F933F934F935F936F937F938F937E
:100230009F93AF93BF93CF93DF93EF93FF930E946E
:100240007F0A182F8091834090918440892B31F44C
:100250000E9456068093834090938440C0918340CF
:10026000D0918440209709F4E3C0812F90E00E9450
:10027000940C843211F0813249F51092824081321F
:1002800011F483E001C081E08883109281401092D4
:100290007D4010927E4010927F401092804081E01D
:1002A00080937C4010927B4080917B40833058F457
:1002B000FE0105E1809FE00DF11D112413828F5F87
:1002C00080937B40F1CF10927B40A7C090917C40FF
:1002D000992309F48BC08C3229F08B3319F08F33BA
:1002E00009F042C090917B40992389F0292F30E09A
:1002F000215031094091814055E1529FF001539FB7
:10030000F00D1124EC0FFD1FE40FF11D13829F5F10
:1003100090937B40109281408B3369F480918240AE
:10032000843030F080917D4090917E4089839A8323
:1003300010927C4010C08F3371F482E088838091EA
:100340008240843030F080917D4090917E4089835E
:100350009A8310927C4080917C4081115EC0109203
:1003600083401092844059C020917B40211129C0C4
:1003700040917D4050917E4060917F4070918040DF
:10038000440F551F661F771F8A019B01000F111F25
:10039000221F331F000F111F221F331F400F511F39
:1003A000621F731F8A019B01080F111D211D311D42
:1003B00000937D4010937E4020937F403093804097
:1003C0002CC030E0215031099091814041E0490F2B
:1003D0004093814065E1629FA001639F500D11240D
:1003E000C40FD51FC90FD11D8B8317C08D30A9F441
:1003F00019821A8282E38093824010928140109287
:100400007D4010927E4010927F401092804010926A
:100410007B401092834010928440809182408F5F95
:1004200080938240823320F010927C401092824070
:10043000FF91EF91DF91CF91BF91AF919F918F91FC
:100440007F916F915F914F913F912F911F910F91EC
:100450000F900BBE0F900FBE0F901F9018951F921C
:100460000F920FB60F9211240BB60F922F933F935A
:100470004F935F936F937F938F939F93AF93BF93AC
:10048000EF93FF938091794090917A40892B31F4DA
:100490000E94FE058093794090937A40E0917940E4
:1004A000F0917A4080917840DF01A80FB11D9C91B6
:1004B000992331F08F5F80937840909322080DC08C
:1004C0001092784010820E94FE05809379409093AC
:1004D0007A40892B11F40E949606FF91EF91BF910B
:1004E000AF919F918F917F916F915F914F913F91CC
:1004F0002F910F900BBE0F900FBE0F901F9018956D
:100500001F920F920FB60F9211242F933F938F9348
:100510009F938091360B80FF18C08091DD409091B1
:10052000DE409C012F5F3F4F2093DD403093DE4043
:100530008B32914039F41092DD401092DE408AB146
:1005400080648AB981E08093360B9F918F913F91AF
:100550002F910F900FBE0F901F9018951F920F9222
:100560000FB60F9211240BB60F922F933F934F9318
:100570005F936F937F938F939F93AF93BF93EF930B
:10058000FF93CF93DF9300D01F92CDB7DEB780915A
:10059000060B80FF38C180919B4090919C40892B35
:1005A00049F080919B4090919C40019780939B40A3
:1005B00090939C408091CC40882329F08091CD403D
:1005C000811103C003C080E001C081E0882309F4E9
:1005D00081C080919E4090919F40A091A040B09199
:1005E000A140181619061A061B060CF058C0809177
:1005F000DF409091E040009709F444C00197809358
:10060000DF409093E040892B09F064C0AE014E5F5B
:100610005F4FBE016D5F7F4F80E090E00E94070852
:100620008093E1408B81811125C08A81882311F15B
:100630008DEF80939A40809103400E9448048093FC
:1006400001409093024081E08B8340E050E0BE0186
:100650006D5F7F4F82EA90E40E940708AE014E5F13
:100660005F4FBE016D5F7F4F80E090E00E94070802
:100670008093E1408091E140882361F181E00E9414
:100680003D0A28C08091E1400E943F0A80910140CC
:10069000909102408093DF409093E0401BC0809196
:1006A0009E4090919F40A091A040B091A140892B85
:1006B0008A2B8B2B79F48091E140882359F010929A
:1006C000E14080E00E943F0A80E00E943D0A8EEFF8
:1006D00080939A408091E240811142C08FEF8093D5
:1006E000E34019828981853030F5E981F0E0EE0F31
:1006F000FF1FEC5FFF4B80819181892B59F0E981CD
:10070000F0E0EE0FFF1FEC5FFF4B808191810197BE
:1007100080839183E981F0E0EE0FFF1FEC5FFF4BD8
:1007200080819181892B19F489818093E3408981AB
:100730008F5F8983D7CF8091E34088230CF460C01A
:10074000880F990BFC01ED59FF4B20813181FC0191
:10075000EC5FFF4B2083318381E08093E24050C007
:100760001092E4401092E5404091E340842F042E23
:10077000000C990BFC01EE0FFF1FED52FF4B208187
:100780003181FC01E253FF4B51E0508341112DC0F8
:10079000FC01EE0FFF1FE359FF4B408151814217CF
:1007A000530760F4FC01EE0FFF1FEC5FFF4B24E6E4
:1007B00030E02083318320E030E019C0211531057D
:1007C00011F02150310941E040939D40243744E02D
:1007D000340718F0109200400AC02D3842E0340768
:1007E00030F041E04093004002C020E030E0880F4C
:1007F000991FFC01ED52FF4B208331831092E240A0
:1008000081E08093060B2396CDBFDEBFDF91CF91B1
:10081000FF91EF91BF91AF919F918F917F916F91D8
:100820005F914F913F912F910F900BBE0F900FBE94
:100830000F901F9018950E94F20081E190E40E94B1
:10084000D3060E949004C0E0D0E068EE73E080E040
:1008500090E00E947F098111F8CF8E010F5F1F4F3A
:10086000DF93CF9389E190E49F938F9385E890E4A1
:100870009F938F930E949C0C85E890E40E94D3067E
:100880000F900F900F900F900F900F90E801DDCF19
:1008900080E090E00895E0E6F4E08289887F828B32
:1008A00082898460828B8389887F838B838984603B
:1008B000838B8489887F848B84898460848B8589F9
:1008C000887F858B85898460858B8289877F828BF1
:1008D0008389877F838B8489877F848B8589877FC2
:1008E000858B089581E08093A0000895E0E0F6E014
:1008F0008AE0828383E08083808708958091100658
:10090000909111060895E0E0F6E081E08487828707
:1009100008950E944B040E9472040E947604089578
:100920000E9489040E94830408951F920F920FB6BB
:100930000F9211240BB60F922F933F934F935F9317
:100940006F937F938F939F93AF93BF93EF93FF9397
:100950000E947E04FF91EF91BF91AF919F918F9183
:100960007F916F915F914F913F912F910F900BBEAF
:100970000F900FBE0F901F9018951092890080E085
:10098000089544E268ED88E690E00E94000980E066
:100990000895789480E0089583E08093A2006AE04F
:1009A00070E080E090E00E947F098111F8CF089507
:1009B000282F2295220F220F207CE0EAF6E02283E6
:1009C0009695879596958795838308950E94CC0484
:1009D000E0E6F4E08689887F868B86898460868B52
:1009E0008689877F868B81EC8093A00680E090E0EB
:1009F0000E94D804089580E0883048F4E82FF0E0A1
:100A0000E05FFB4F9081986090838F5FF5CF80E02F
:100A1000883048F4E82FF0E0E05DFB4F908198606B
:100A200090838F5FF5CF80E0883048F4E82FF0E0C6
:100A3000E05BFB4F9081986090838F5FF5CF80E003
:100A4000883048F4E82FF0E0E059FB4F908198603F
:100A500090838F5FF5CF80E0883048F4E82FF0E096
:100A6000E057FB4F9081986090838F5FF5CF80E0D7
:100A7000883048F4E82FF0E0E055FB4F9081986013
:100A800090838F5FF5CF08950E94FB040E94C104FC
:100A90000E9462090E94C90489B18F7B89B988B11B
:100AA000806488B90E9460090E94E6040E94B3062F
:100AB0000E94BD04089580E090912509907C31F05A
:100AC0008091250984FD07C081E008C09091250927
:100AD0009C7019F403C082E001C084E0882361F3B4
:100AE000089580E090912509907C29F49091250942
:100AF0009C7019F403C083E001C084E0882391F363
:100B00000895FF920F931F93CF93DF938B01C42F10
:100B10008E7F809327090E945B058130C1F4CC232E
:100B2000C1F001151105B9F0D0E0FF24FA94FC0ED4
:100B3000CC2399F0F8018081809328090E945B05FD
:100B4000813069F4DF5F0F5F1F4FCF2DEECF8FEF46
:100B500007C080E005C080E003C08D2F01C08D2F4D
:100B6000DF91CF911F910F91FF900895FF920F9306
:100B70001F93CF93DF938B01D42F8160809327093C
:100B80000E945B05813049F5F8018081882331F0AE
:100B9000809328090E945B05813009F5DD2309F166
:100BA0000115110501F1C0E0FF24FA94FD0EDD23CB
:100BB000E1F00E9471058330D1F480912809F80199
:100BC0008083F11002C087E001C082E08093240995
:100BD000CF5F0F5F1F4FDF2DE7CF8FEF09C08FEF84
:100BE00007C080E005C080E003C08C2F01C08C2FBF
:100BF000DF91CF911F910F91FF90089590E0809128
:100C0000E840282F30E042E3429FF001439FF00D7F
:100C10001124E359FE4B408141110BC09F5F94307A
:100C200050F48F5F8093E840843048F31092E8409E
:100C3000E6CF81E001C080E0882349F042E3429F93
:100C4000C001439F900D112483599E4B089580E06D
:100C500090E0089590E08091E740282F30E042E353
:100C6000429FF001439FF00D1124E359FE4B408158
:100C7000442359F09F5F943050F48F5F8093E74096
:100C8000843048F31092E740E6CF81E001C080E075
:100C9000882349F042E3429FC001439F900D1124F5
:100CA00083599E4B089580E090E0089590E08091F4
:100CB000E640282F30E042E4429FF001439FF00DD0
:100CC0001124E751FF4B41815281452B59F09F5F21
:100CD000923050F48F5F8093E640823040F3109260
:100CE000E640E5CF81E001C080E0882349F042E49E
:100CF000429FC001439F900D112487519F4B08953F
:100D000080E090E00895809135420895CF938091DE
:100D10003542C1E08111C0E0811105C081E08093BE
:100D200035420E94760A8C2FCF91089580913542EA
:100D3000882339F0E0E2F8E085818F7D8583109289
:100D40003542089528B12D7F28B9E1E5F4E02081EE
:100D5000277F208329B12E7F29B928B1216028B9A6
:100D60000E94540A089584E8E9EEF0E4DF011D9240
:100D70008A95E9F780E090E0843091055CF422E305
:100D8000289FF001299FF00D1124E359FE4B10829A
:100D90000196F2CF60E875E280E090E00E94A20642
:100DA00010920E4008950F931F93CF93DF932091DD
:100DB0000E4021112FC0009779F18C010E942A0664
:100DC000C8ECD0E00097B1F42097A1F00E94830610
:100DD000882321F0209721F490E003C090E001C027
:100DE00091E0992321F0209789F32197EFCF0E947A
:100DF0002A06E8CF009791F01F930F939F938F934C
:100E00000E949C0C0E9486060F900F900F900F90EE
:100E100080E005C081E003C081E001C081E0DF9196
:100E2000CF911F910F91089590E0FC01B097ED359F
:100E3000F10508F0E8C0EC58FF4F0C948B0C62E011
:100E400072E085E0089561E074E089E0089565E06E
:100E500074E08BE0089561E073E087E0089560E05E
:100E600071E081E0089564E074E089E0089563E052
:100E700073E089E0089560E074E087E0089560E041
:100E800072E083E008956EE074E08DE0089565E01F
:100E900073E089E0089562E074E089E0089563E01A
:100EA00072E087E0089561E072E085E0089567E010
:100EB00073E08BE0089566E074E08BE008956BE0EA
:100EC00074E08DE0089562E073E087E0089560E0EB
:100ED00073E085E0089561E071E083E0089564E0E7
:100EE00073E087E0089568E074E089E0089566E0C3
:100EF00073E089E0089569E074E08BE008956DE0A7
:100F000074E08DE0089563E074E08BE008956FE194
:100F100075E083E108956EE175E081E108956CE18B
:100F200075E08FE0089568E175E08DE0089560E177
:100F300075E08BE0089560E075E089E0089561E078
:100F400075E08BE0089563E075E08DE0089567E05B
:100F500075E08FE008956FE075E081E108956AE241
:100F600076E081E1089563E376E083E108956CE043
:100F700076E08FE008956EE176E083E1089565E321
:100F800076E083E1089569E075E08DE008956DE015
:100F900075E08FE008956DE276E083E1089562E008
:100FA00075E08BE0089567E076E081E1089565E102
:100FB00076E08CE0089561E175E08DE008956AE0E7
:100FC00075E08DE0089561E276E08FE008956CE2CF
:100FD00076E081E1089562E176E08FE0089568E4CB
:100FE00077E081E1089566E176E081E108956FEFB1
:100FF00077E084E008956EEF77E087E008956FE191
:1010000075E083E1089560E070E080E00895CF939B
:10101000DF93EA010097B1F1109241426115710529
:1010200021F0DB012C9120931040FC012081222330
:10103000D9F080933F429093404280E280930F40EA
:10104000822F0E94140760933C4270933D4280932C
:101050003E4210923B4210923A4210923942109214
:101060003842109237420AC010923F4210924042DA
:1010700081E080933742209709F0888310923642AE
:1010800080E0BBC0E0913F42F0914042309709F4CC
:10109000A5C06115710521F080911040DB018C9392
:1010A00080913742882349F0209709F4A3C081E05A
:1010B00088831092414280E0A0C080913942882309
:1010C00021F08150809339427FC08091364288233D
:1010D00081F08091414281110CC010923642809182
:1010E0003842882309F470C0809339421092384204
:1010F0006BC090913D4280913A42891790F1809166
:101100003B428F5F80933B42DF01A80FB11D8C9162
:1011100080930F40811119C080911040882331F0D5
:10112000808180930F4010923B420FC010923F424B
:10113000109240421092364291E0909337422097AD
:1011400009F098831092414258C080910F400E944C
:10115000140760933C4270933D4280933E4210924C
:101160003A4220913C422D3F00F540913A4231E015
:10117000340F30933A4281E090E002C0880F991F0B
:101180004A95E2F7822321F082E08093394202C03F
:101190001092394281E08093364280913D42381767
:1011A00098F082E0809338420FC080913D429FEFDB
:1011B00090933A4210923642843020F084508093CB
:1011C000394202C01092394280910F408C3321F491
:1011D00081E08093414202C010924142209719F071
:1011E00080913742888380914142811105C080916E
:1011F000364203C080E001C081E0DF91CF910895C5
:101200001BBEFC0164BF40830895CF93C62F462FB9
:10121000BC0180EC0E94810591E0C81301C090E000
:10122000892FCF910895CF93C62F462FBC0180EC14
:101230000E94B60591E0C81301C090E0892FCF91BC
:1012400008950F931F93CF93DF9300D0CDB7DEB7F0
:10125000182F062F83E0898361E0CE0101960E945A
:101260001309811123C09981002359F021E030E056
:1012700002C0220F331F1A95E2F7822F809589232F
:1012800009C021E030E002C0220F331F1A95E2F7B7
:10129000892F822B93E099838A8362E0CE010196A5
:1012A0000E940509882321F08CEF03C08CEF01C058
:1012B00080E00F900F90DF91CF911F910F910895D3
:1012C00080E00895E0E0FBE081E0858320E43CE9F4
:1012D0002487358793E090838683E0E1FBE0858374
:1012E00040EC5DE54487558780838683E0E3FBE03F
:1012F0008583248735879083868380E008950F93C4
:101300001F93611571058105910509F467C020914E
:1013100046422223F1F10091474210914842209128
:10132000494230914A42012B022B032B71F4109257
:10133000150B109246421092424210924342109274
:1013400044421092454280E062C0009142421091B6
:101350004342209144423091454260177107820711
:10136000930709F451C010921A0B10921B0B609353
:10137000424270934342809344429093454260932B
:101380004742709348428093494290934A4280E09A
:101390003EC000914242109143422091444230911C
:1013A0004542601771078207930771F110921A0B7B
:1013B00010921B0B609342427093434280934442CD
:1013C00090934542609347427093484280934942CC
:1013D00090934A4281E08093464216C01092150BCA
:1013E000109246421092424210924342109244425E
:1013F0001092454210924742109248421092494240
:1014000010924A4280E003C081E08093150B1F9147
:101410000F9108951F920F920FB60F9211248F9380
:101420009F93AF93BF938091160B80FF1DC0809157
:10143000474290914842A0914942B0914A42009758
:10144000A105B10561F00197A109B1098093474257
:1014500090934842A0934942B0934A4202C01092EE
:10146000150B81E08093160BBF91AF919F918F91E7
:101470000F900FBE0F901F90189580E0089588235D
:1014800061F080914B4281110EC061E081E00E94C9
:10149000210981E080934B42089560E081E00E9441
:1014A000210910924B4208950E94900B20E030E0F9
:1014B00040E851E40E941E0C9B01AC0160E07BE11E
:1014C00087EB9EE40E94EF0A20E030E040E05FE31B
:1014D0000E94830A0E94610BE0E2F8E06087718756
:1014E00080E8858380EC868380E00895E0E2F8E080
:1014F000868180648683858180628583089580915A
:10150000200808955058BB27AA270E949A0A0C94D5
:10151000E40B0E94D60B38F00E94DD0B20F039F46A
:101520009F3F19F426F40C94D30B0EF4E095E7FBDF
:101530000C94CD0BE92F0E94F50B58F3BA176207F4
:1015400073078407950720F079F4A6F50C94170C1F
:101550000EF4E0950B2EBA2FA02D0B01B9019001CE
:101560000C01CA01A0011124FF27591B99F0593F12
:1015700050F4503E68F11A16F040A22F232F342F5A
:101580004427585FF3CF469537952795A795F040A8
:101590005395C9F77EF41F16BA0B620B730B840BBD
:1015A000BAF09150A1F0FF0FBB1F661F771F881F75
:1015B000C2F70EC0BA0F621F731F841F48F48795CD
:1015C00077956795B795F7959E3F08F0B0CF9395BF
:1015D000880F08F09927EE0F9795879508950E9438
:1015E000030B0C94E40B0E94DD0B58F00E94D60B09
:1015F00040F029F45F3F29F00C94CD0B51110C946D
:10160000180C0C94D30B0E94F50B68F39923B1F3DB
:10161000552391F3951B550BBB27AA276217730718
:10162000840738F09F5F5F4F220F331F441FAA1FAC
:10163000A9F335D00E2E3AF0E0E832D09150504068
:10164000E695001CCAF72BD0FE2F29D0660F771F16
:10165000881FBB1F261737074807AB07B0E809F0FC
:10166000BB0B802DBF01FF2793585F4F3AF09E3F81
:10167000510578F00C94CD0B0C94180C5F3FE4F3FB
:10168000983ED4F3869577956795B795F7959F5FC4
:10169000C9F7880F911D9695879597F90895E1E010
:1016A000660F771F881FBB1F621773078407BA076F
:1016B00020F0621B730B840BBA0BEE1F88F7E095CA
:1016C00008950E94FD0B88F09F5798F0B92F992735
:1016D000B751B0F0E1F0660F771F881F991F1AF01D
:1016E000BA95C9F714C0B13091F00E94170CB1E05F
:1016F00008950C94170C672F782F8827B85F39F05E
:10170000B93FCCF3869577956795B395D9F73EF4B5
:1017100090958095709561957F4F8F4F9F4F08955D
:10172000E89409C097FB3EF490958095709561957B
:101730007F4F8F4F9F4F9923A9F0F92F96E9BB2731
:101740009395F695879577956795B795F111F8CFAD
:10175000FAF4BB0F11F460FF1BC06F5F7F4F8F4F18
:101760009F4F16C0882311F096E911C0772321F00E
:101770009EE8872F762F05C0662371F096E8862FA6
:1017800070E060E02AF09A95660F771F881FDAF7FD
:10179000880F9695879597F9089597F99F6780E840
:1017A00070E060E008959FEF80EC089500240A94B3
:1017B0001616170618060906089500240A9412162C
:1017C0001306140605060895092E0394000C11F45F
:1017D000882352F0BB0F40F4BF2B11F460FF04C00C
:1017E0006F5F7F4F8F4F9F4F089557FD9058440F65
:1017F000551F59F05F3F71F04795880F97FB991F70
:1018000061F09F3F79F0879508951216130614062C
:10181000551FF2CF4695F1DF08C0161617061806B9
:10182000991FF1CF86957105610508940895E89494
:10183000BB2766277727CB0197F908950E94310CC3
:101840000C94E40B0E94D60B38F00E94DD0B20F0C4
:10185000952311F00C94CD0B0C94D30B11240C9404
:10186000180C0E94F50B70F3959FC1F3950F50E093
:10187000551F629FF001729FBB27F00DB11D639F42
:10188000AA27F00DB11DAA1F649F6627B00DA11DE8
:10189000661F829F2227B00DA11D621F739FB00D8E
:1018A000A11D621F839FA00D611D221F749F3327FE
:1018B000A00D611D231F849F600D211D822F762F97
:1018C0006A2F11249F5750409AF0F1F088234AF074
:1018D000EE0FFF1FBB1F661F771F881F91505040E0
:1018E000A9F79E3F510580F00C94CD0B0C94180C79
:1018F0005F3FE4F3983ED4F3869577956795B79567
:10190000F795E7959F5FC1F7FE2B880F911D969580
:10191000879597F90895EE0FFF1F0024001C0BBE5A
:101920000790F691E02D09949111089581568A51FE
:1019300008F48052855808950F931F93CF93DF9337
:10194000CDB7DEB72E97CDBFDEBF0D891E8986E0ED
:101950008C8309831A838FEF9FE78D839E83AE016B
:10196000475E5F4F6F89788DCE0101960E94C50C4E
:10197000EF81F885E00FF11F10822E96CDBFDEBFFC
:10198000DF91CF911F910F9108952F923F924F9227
:101990005F926F927F928F929F92AF92BF92CF92FF
:1019A000DF92EF92FF920F931F93CF93DF93CDB708
:1019B000DEB72B97CDBFDEBF6C017B018A01FC0136
:1019C00016821782838181FFCCC1CE0101963C0132
:1019D000F6019381F70193FD859193FF81917F013A
:1019E000882309F4BAC1853239F493FD859193FFB8
:1019F00081917F01853229F4B60190E00E94DF0ECB
:101A0000E7CF912C212C312CFFE1F315D8F08B324C
:101A100079F038F4803279F08332A1F4232D2061FB
:101A20001DC08D3261F0803369F4232D216016C012
:101A3000832D8260382EE32DE4603E2E2AC0F32DE4
:101A4000F8601DC037FC2DC020ED280F2A3040F073
:101A50008E32B9F436FC81C1232D2064322E19C098
:101A600036FE06C08AE0989E200D1124922E11C0E9
:101A7000EAE02E9E200D1124222EF32DF0623F2E3F
:101A800008C08C3621F4832D8068382E02C0883639
:101A900041F4F70193FD859193FF81917F018111BD
:101AA000B3CF982F9F7D9554933028F40C5F1F4F30
:101AB0009FE399830DC0833631F0833771F083350E
:101AC00009F059C021C0F801808189830E5F1F4F42
:101AD00088248394912C530113C02801F2E04F0E07
:101AE000511CF801A080B18036FE03C0692D70E062
:101AF00002C06FEF7FEFC5010E94D40E4C0182013E
:101B0000F32DFF773F2E16C0280122E0420E511C14
:101B1000F801A080B18036FE03C0692D70E002C0DC
:101B20006FEF7FEFC5010E94C90E4C01F32DF068E5
:101B30003F2E820133FC1BC0822D90E0881699064F
:101B4000B0F4B60180E290E00E94DF0E2A94F4CF58
:101B5000F50137FC859137FE81915F01B60190E078
:101B60000E94DF0E21102A9421E0821A910881142C
:101B7000910471F7E8C0843611F0893641F5F80117
:101B800037FE07C060817181828193810C5F1F4F96
:101B900008C060817181072E000C880B990B0E5FC5
:101BA0001F4FF32DFF763F2E97FF09C0909580952C
:101BB000709561957F4F8F4F9F4FF0683F2E2AE0C1
:101BC00030E0A3010E941B0F882E861845C0853780
:101BD00031F4232D2F7EB22E2AE030E025C0932D44
:101BE000997FB92E8F36C1F018F4883579F0B5C0D9
:101BF000803719F0883721F0B0C0E92FE061BE2EA0
:101C0000B4FE0DC0FB2DF460BF2E09C034FE0AC027
:101C1000292F2660B22E06C028E030E005C020E162
:101C200030E002C020E132E0F801B7FE07C0608179
:101C30007181828193810C5F1F4F06C06081718129
:101C400080E090E00E5F1F4FA3010E941B0F882EC3
:101C50008618FB2DFF773F2E36FE0DC0232D2E7FDD
:101C6000A22E891458F434FE0BC032FC09C0832D17
:101C70008E7EA82E05C0B82CA32C03C0B82C01C0A2
:101C8000B92CA4FE0FC0FE01E80DF11D8081803348
:101C900021F49A2D997EA92E09C0A2FE06C0B39404
:101CA000B39404C08A2D867809F0B394A3FC11C0C4
:101CB000A0FE06C0B21488F4280C922C9B180EC00B
:101CC000B21460F4B60180E290E00E94DF0EB3949B
:101CD000F7CFB21418F42B1802C0982C212CA4FEB4
:101CE00010C0B60180E390E00E94DF0EA2FE17C094
:101CF000A1FC03C088E790E002C088E590E0B6014F
:101D00000CC08A2D867859F0A1FE02C08BE201C07A
:101D100080E2A7FC8DE2B60190E00E94DF0E8914FC
:101D200038F4B60180E390E00E94DF0E9A94F7CF7A
:101D30008A94F301E80DF11D8081B60190E00E94C4
:101D4000DF0E8110F5CF222009F442CEB60180E2E9
:101D500090E00E94DF0E2A94F6CFF60186819781EB
:101D600002C08FEF9FEF2B96CDBFDEBFDF91CF91EB
:101D70001F910F91FF90EF90DF90CF90BF90AF90A9
:101D80009F908F907F906F905F904F903F902F909B
:101D90000895FC010590615070400110D8F78095BE
:101DA00090958E0F9F1F0895FC0161507040019027
:101DB0000110D8F7809590958E0F9F1F08950F936F
:101DC0001F93CF93DF93FB01238121FD03C08FEF8E
:101DD0009FEF2CC022FF16C0468157812481358198
:101DE0004217530744F4A081B1819D012F5F3F4FFB
:101DF000208331838C93268137812F5F3F4F268349
:101E0000378314C08B01EC01FB010084F185E02DC8
:101E10000995892BE1F6D80116968D919C9117971B
:101E2000019616968D939C931797CE01DF91CF91D3
:101E30001F910F910895FA01AA27283051F12031FE
:101E400081F1E8946F936E7F6E5F7F4F8F4F9F4F4E
:101E5000AF4FB1E03ED0B4E03CD0670F781F891F90
:101E60009A1FA11D680F791F8A1F911DA11D6A0F5E
:101E7000711D811D911DA11D20D009F468943F9111
:101E80002AE0269F11243019305D3193DEF6CF0110
:101E90000895462F4770405D4193B3E00FD0C9F7D6
:101EA000F6CF462F4F70405D4A3318F0495D31FD43
:101EB0004052419302D0A9F7EACFB4E0A695979596
:101EC000879577956795BA95C9F70097610571056C
:101ED00008959B01AC010A2E0694579547953795B6
:101EE0002795BA95C9F7620F731F841F951FA01D10
:061EF0000895F894FFCFF5
:101EF60003320008600960096009F000F000012063
:101F0600014142432E2E2E0A005365636F6E6473A1
:101F16003A2025640A00310045535000256C7500AF
:101F260054494D004D2C257500504F5700582C250F
:101F36006400256C642C0046524500214241540041
:101F46002154454D00312E3600564552002141435D
:101F56004B3B00600960096009F000F000F401F4F1
:081F660001F401F401F4010093
:00000001FF
