:100000000C9480010C94AA010C94AA010C94AA01EE
:100010000C94AA010C94AA010C94E5280C94AA0152
:100020000C94AA010C94AA010C94AA010C94AA01A4
:100030000C945E100C9467430C94AA010C94AA01D2
:100040000C94AA010C94AA010C94AA010C945D0BC7
:100050000C9455090C94AA010C94AA010C94AA01C1
:100060000C9456280C94AA010C94AA010C94AA0191
:100070000C94AA010C94BA280C94B4070C94CF0BDE
:100080000C94080C0C94AA010C94AA010C94AA01DB
:100090000C94AA010C94AA010C94AA010C94AA0134
:1000A0000C94AA010C948C0C0C94AA010C94AA0137
:1000B0000C94AA010C94AA010C94AA010C94AA0114
:1000C0000C94AA010C94AA010C94AA010C94AA0104
:1000D0000C94AA010C94AA010C94AA010C94960BFE
:1000E0000C94D9090C94AA01D922E522F422032305
:1000F00012230B24032443234C235823642370230B
:10010000A323AC23B823C423D02344304A302C305B
:100110004A304A304A3035304A304A304A30F32F7C
:100120004A304A304A304A304A304A304A304A30FF
:100130004A304A304A304A304A304A304A304A30EF
:100140004A304A304A304A3009304A304A304A3020
:100150004A304A304A304A304A30203026303E3029
:10016000DA2F4A304A304A30E32F4A304A304A3098
:10017000EC2F5B381F384B3863384F3863382F38D3
:100180001B3827382B3863383F38133843380F383B
:100190002338E737EB37EF37F337F737FB37FF37DE
:1001A000033807380B38333837385F383B38633813
:1001B000173853387F37833787378B378F379337E5
:1001C00097379B379F37A337A737AB37AF37B3374F
:1001D000B737BB37BF37C337C737CB37CF37D3373F
:1001E000D737DB37DF37E337633863386338633853
:1001F0004738633863386338633863386338633843
:100200006338633863386338633863386338633816
:100210006338633863386338633863386338633806
:100220006338633863386338633857384A616E75AA
:10023000617279204665627275617279204D6172D2
:10024000636820417072696C204D6179204A756E37
:1002500065204A756C792041756775737420536504
:100260007074656D626572204F63746F6265722091
:100270004E6F76656D62657220446563656D62657B
:1002800072200053756E646179204D6F6E646179E0
:100290002054756573646179205765646E65736475
:1002A000617920546875727364617920467269645B
:1002B0006179205361747572646179200053756EA1
:1002C0004D6F6E5475655765645468754672695311
:1002D0006174004A616E4665624D61724170724D93
:1002E00061794A756E4A756C4175675365704F63E5
:1002F000744E6F7644656300942786289B278D286B
:1003000011241FBECFEFCDBFDFE7DEBF15E4A0E0B5
:10031000B0E4ECEDFBE900E00BBF02C007900D92EA
:10032000AE32B107D9F729E4AEE2B5E401C01D92BF
:10033000A334B207E1F711E0CEE7D1E004C0219782
:10034000FE010E94E848CC37D107C9F70E945E1130
:100350000C94E14D0C9400009C0123703327232B57
:1003600059F464E670E00E949348892B39F4637075
:10037000772781E0672B19F080E0089581E00895E8
:1003800061E379E40E94C70181E399E40895CF9283
:10039000DF92EF92FF920F931F93CF93DF9300D0E2
:1003A00000D0CDB7DEB76C017B01E0914149F091FF
:1003B0004249309729F06DE379E409958C0102C038
:1003C0000FEF1FEFF60140815181628173818091AF
:1003D0003D4990913E49A0913F49B0914049840FD9
:1003E000951FA61FB71F101611064CF4A801012E69
:1003F000000C660B770B840F951FA61FB71F898310
:100400009A83AB83BC83B701CE0101960E944F064D
:10041000F701028713872496CDBFDEBFDF91CF910E
:100420001F910F91FF90EF90DF90CF900895623071
:1004300021F40E94AC01845E0895683008F06F5F7B
:1004400061708EE1860F08950FB6F89460932D4980
:1004500070932E4980932F49909330490FBE089591
:10046000CF92DF92EF920F936B01E82E7C2D6D2DD2
:100470005E2DAE2DC6010196A11D442351F06C01E5
:10048000EA2EE72FF62F0E94CE4D603279F74150C9
:10049000EDCFF6010E94CE4D6C01EA2E80E0603275
:1004A00039F4F90110820F91EF90DF90CF90089509
:1004B0008017B9F32F5F3F4FF901319760838F5F4A
:1004C000F6015E2D0E94CE4D9FEFC91AD90AE90AA6
:1004D000E6CF2F923F924F925F926F927F928F92D0
:1004E0009F92AF92BF92CF92DF92EF92FF920F93C3
:1004F0001F93CF93DF93CDB7DEB7A297CDBFDEBFFB
:100500002C0169A37AA34A017901612C712C9E0107
:100510002F5F3F4F690184E6282E312C9FECA92ED6
:1005200094E4B92E29A13AA16216730608F0CDC24F
:10053000D4018C91853209F0BCC211961C911534FE
:1005400031F01F3421F0B2E08B0E911C06C0F40193
:10055000128194012D5F3F4F4901193509F432C2D0
:100560000CF060C0193409F43FC144F5133409F4A8
:10057000E7C054F4113409F4BEC00CF0CAC01532FF
:1005800009F074C2198375C2163409F4EAC064F420
:10059000143409F06BC2F70186819781B1010E9482
:1005A00093489F938F93E7C1173409F4F8C0183428
:1005B00009F05CC2D70112968C9130C1143509F450
:1005C00089C164F4123509F46EC10CF025C11D34E3
:1005D00009F04CC2D70111968C9120C1163509F44F
:1005E000A5C10CF4A1C1173509F4B4C1183509F03F
:1005F0003DC2F7018081282F082E000C330B3F935A
:100600008F938181282F082E000C330B3F938F93FB
:100610008281282F082E000C330B3F938F9384E1A7
:1006200095E4C0C11D3609F4F0C0ACF5143609F4E8
:1006300094C074F4123609F466C00CF075C011361B
:1006400009F014C203E09601D70114964C9157C0EB
:10065000173609F4A4C074F4153609F007C2F7017F
:100660008381282F082E000C330B3F938F9384ED4A
:1006700094E4C8C0183609F446C01A3609F0F6C129
:10068000D70118968D919C91199701969F938F93FE
:100690008AEE94E4B7C0153709F435C1B4F41037C5
:1006A00009F4C2C034F41E3609F0E0C18AE089833F
:1006B000E0C1123709F4C6C0143709F0D7C160E0B1
:1006C00075E4C6010E94934AD4C1183709F448C1A1
:1006D0005CF4173709F0CAC1F7018481282F082E6E
:1006E000000C330B3F9374C1193709F45EC11A37FC
:1006F00009F47EC1BBC10FEF9601F701448163E8A5
:1007000072E080E00DC003E09601D70115964C9190
:1007100004C00FEF9601F70145816CE272E080E0C2
:100720000E94300290E0A7C1B601C7010E94CC052B
:10073000F601CF018C199D0921912111FACF9BC19E
:10074000D70116968D919C9117978459984FB101B6
:100750000E9493487F936F933BC0D70113968C916F
:100760005DC0D70113968C911397282F082E000C8B
:10077000330B3F938F9315968C911597082E000C91
:10078000990B01969F938F9316968D919C91179735
:100790008459984F9F938F9388ED94E403C1D701B8
:1007A00018966D917C91199716968D919C9117973B
:1007B000AE01455E5F4F8459984F0E94250717365A
:1007C00051F48B8D9C8DB1010E9493489F938F9320
:1007D000E0EEF4E4A6C08C8D8F938B8D8F9345EE65
:1007E00054E45F934F93F9C0F70182816CE00E945B
:1007F000C04D992321F0892F990F990BDEC08CE011
:1008000090E0DBC09F938F93E8C0F7018581082EAD
:10081000000C990B0196D1C0D7018C91282F082E7E
:10082000000C330B3F93CAC081E48983F7018281B6
:100830008C3014F080E589838DE48A831B8282E00A
:1008400090E019C1D70112968C916CE00E94C04DC6
:10085000992321F0892F990F990B02C08CE090E029
:10086000F7012081422F022E000C550B5F932F932E
:100870002181422F022E000C550B5F932F939F93E3
:100880008F932FEE34E43F932F93DF92CF920E9409
:10089000CF4ACDBFDEBFF70122812C300CF4EBC074
:1008A00020E52B87E8C0D70111968C911197282F4E
:1008B000082E000C330B3F938F9312968C91282FA8
:1008C000082E000C330B3F938F9387E095E49F93A2
:1008D0008F93C5C0F7018081282F082E000C330BA1
:1008E0003F938F938181282F082E000C330B3F9369
:1008F0008F938281282F082E000C330B3F938F9308
:1009000082E095E44FC0D70114968C91082E000C1C
:10091000990B009711F487E090E09F938F93E1E1AA
:10092000F5E4FF93EF9359C060E015C0D701189626
:100930006D917C91199716968D919C911797AE01A8
:10094000455E5F4F8459984F0E9425078E8D8F9387
:100950008D8D34C061E0C7010E9491051F922EC0A9
:10096000D70116968D919C911797B1010E949348DB
:100970009F938F93F7018381282F082E000C330B50
:100980003F938F938581082E000C990B01969F93BE
:100990008F9325EC34E43F932F93DF92CF920E9404
:1009A000CF4A61C09F938F93F8CFD70116968D9150
:1009B0009C911797B1010E9493489F938F93BF9288
:1009C000AF920BC0F701868197818459984F9F930E
:1009D0008F9326EB34E43F932F93DF92CF920E94C4
:1009E000CF4A0F900F900F900F900F900F9043C031
:1009F00060913D4970913E4980913F4990914049B5
:100A00002CE330E040E050E00E94C94889019A019F
:100A1000F801D7011A968D919C911B976CE370E0B9
:100A20000E949348161617061CF4FB01E00FF11FF5
:100A3000CF016CE370E00E94934897FF03C091954B
:100A4000819591099F938F93CF016CE370E00E9491
:100A500093487F936F93E3E2F5E4FF93EF93DF9284
:100A6000CF920E94CF4ACDBFDEBF05C08FE38983FE
:100A70001A8281E090E09301280F391FA9A1BAA141
:100A80002A173B0798F4D201F601AF014C195D0912
:100A9000481759071CF441914D93F7CF97FF02C0B7
:100AA00080E090E0480E591E39013CCDF2011082E1
:100AB0000EC0D2018D932D01BFEF6B1A7B0A8823E4
:100AC00031F0EFEF8E1A9E0A2DCDD2011C92C30198
:100AD000A296CDBFDEBFDF91CF911F910F91FF9006
:100AE000EF90DF90CF90BF90AF909F908F907F90CE
:100AF0006F905F904F903F902F900895FC010FB63C
:100B0000F89460912D4970912E4980912F499091D0
:100B100030490FBE309721F06083718382839383C5
:100B20000895FC0120853185C90107964481841B05
:100B3000910947FD9395860F911DE7E0F0E0BF0115
:100B40000E949348A901481B590BCA0157FD06C0D2
:100B5000BF010E94934881E0860F089580E00895C8
:100B60008F938FB78F93F89480912D498F5F8093E7
:100B70002D4980912E498F4F80932E4980912F4986
:100B80008F4F80932F49809130498F4F8093304908
:100B90008F918FBF8F910895CF92DF92EF92FF9246
:100BA0000F931F93CF93DF938C01EB01FC018481A2
:100BB000B82FBB0FB80F8581782F770F780F9E0164
:100BC00040E08B2F840F90E0A0E083549D4FAF4F07
:100BD000FC015A2F0E94CE4DF90161939F01872F8E
:100BE000840F90E0A0E08D529D4FAF4FFC015A2F33
:100BF0000E94CE4DF90163834F5F433011F780E2CD
:100C00008F838B83BE01685F7F4FF801838140E251
:100C1000082E000C990B0E949F07BE01655F7F4F55
:100C2000F80182814AE3082E000C990B0E949F076D
:100C3000BE01625F7F4FF80181814AE3082E000CFC
:100C4000990B0E949F07BE016F5E7F4FF801808164
:100C500040E2082E000C990B0E949F07F801868144
:100C6000978164E670E08459984F0E9493486B0125
:100C70007C01BE016C5E7F4F40E2C6010E949F076F
:100C8000BE016A5E7F4F40E0C701DF91CF911F91A7
:100C90000F91FF90EF90DF90CF900C949F07CF9231
:100CA000DF92EF92FF920F931F93CF93DF93CDB715
:100CB000DEB72897CDBFDEBF8B01FC01608171815B
:100CC0008281938120E831E541E050E00E94A7480D
:100CD00069017A012CE330E040E050E00E94C9480D
:100CE00029833A834B835C8389819A81AB81BC8160
:100CF000F80160836CE370E00E949348DC01CB0153
:100D0000F801A1838283C601069667E070E00E9425
:100D10007F4884832DEA3EE840E050E0C701B601F9
:100D20000E94C94829833A836D837E838F83988785
:100D300089819A8124E6289F6001299FD00C112483
:100D40006D817E818F81988525EB35E040E050E014
:100D50000E94C94829833A836D837E83E980FA80A3
:100D6000EE0CFF1CEE0CFF1CEC0CFD1C8D819E811B
:100D7000F5E6EF16F10410F0019604C024E6E21641
:100D8000F10419F021E030E002C020E030E0A901D8
:100D900044595E4F4817590768F46DE671E0821BAD
:100DA000930B0E949348DC01CB01E80EF91ECD01A4
:100DB00020E030E044E6E40EF11CF801E682F78220
:100DC00080879187255C3F4F8217930748F46FE136
:100DD00070E00E949348DC01CB01F801858322C0BA
:100DE00069E970E0821B930B0E949348DC01CB0100
:100DF000F82EFF0CFF0CF80E6DE370E0CD010E94A1
:100E00009348DC01CB01E82EEE0C6FE170E0CD01E0
:100E10000E949348DC01CB0122E0280FF20EFE0C69
:100E2000F801F582A383F8011286138683818F5F10
:100E300083832896CDBFDEBFDF91CF911F910F91A5
:100E4000FF90EF90DF90CF900895CF92DF92EF92D6
:100E5000FF920F931F93CF93DF938C017B01EA01E5
:100E6000888399830E94AC01282FA801405D5740D8
:100E70006DE671E0469FC001479F900D569F900D13
:100E800011248E0D9F1D4115510579F0BA017695FB
:100E90006795769567956F5F7F4F860F971F821BCB
:100EA00091094536510508F00197069667E070E014
:100EB0000E947F486C01892B19F487E0C82ED12C41
:100EC000CC82DD82C7010B968C199D0967E070E02A
:100ED0000E94934865337105B1F481E0C81AD108C6
:100EE000EC18FD08822F90E084599E4F23E0E20E1B
:100EF000F11C8E159F053CF48881998101968883A9
:100F0000998361E070E06A837B83672B79F40150F9
:100F10001109C8010E94AC01682F70E064597E4F2E
:100F2000AE01C8010E942507CC82DD82DF91CF91FE
:100F30001F910F91FF90EF90DF90CF9008951F9336
:100F4000CF93DF93EB01142F6AE070E00E94934887
:100F5000605D6883805D89831A83DF91CF911F91E3
:100F600008950E94352A08951F920F920FB60F928E
:100F700011248F938091260B80FF03C081E0809322
:100F8000260B8F910F900FBE0F901F9018951F93F7
:100F9000CF93DF93182F8091834590918445892BBF
:100FA00031F40E940B3A8093834590938445C0911D
:100FB0008345D0918445209709F473C1812F90E037
:100FC0000E94804AAC01282F90918245992321F0FC
:100FD00091509093824565C14B3121F482E080931A
:100FE00082455FC14D3009F03FC080914E45882356
:100FF00031F1E0918145EE23F9F082E08883809120
:101000004C4590914D4589839A8380914B45882327
:1010100079F090E0019740914A4554E1589F900142
:10102000599F300D1124C20FD31FC40FD11D1B8235
:10103000F0E0E15BFA4B10820E940A3B04C08FEFA4
:101040009FEF89839A831092814510924A451092AE
:101050004C4510924D4510924B451092834510928D
:10106000844510924E451DC1442309F41AC1E091F4
:1010700081458E2F90E0DC01A15BBA4B4C93EE23AF
:1010800009F4D7C04F3709F05FC0E150E0938145C4
:1010900080914B45811113C0F0E0E15BFA4B308148
:1010A00080914C4590914D45831B91096AE070E019
:1010B0000E94934860934C4570934D4539C0909180
:1010C0004A45992391F03FEF390F30934A4590E01C
:1010D000019764E1689FA001699F500D1124C40F1E
:1010E000D51FC30FD11D1B8223C0F0E0E15BFA4B7B
:1010F00090819032A1F4815080934B4534E1839FDD
:10110000C00111240396C80FD91FFE0101900020D1
:10111000E9F73197EC1BFD0BE0934A4509C094E1D8
:10112000899FC00DD11D11241B82815080934B4596
:1011300080918145E82FF0E0E15BFA4B108281114C
:10114000ABC010924E45A8C0403281F5FC01E25B75
:10115000FA4B3081303209F498C030914B45432F1F
:1011600050E0BA016F5F7F4F633071050CF08FC0A4
:10117000332379F041505109E0914A45F4E1F49F5D
:10118000B001F59F700D1124C60FD71FCE0FD11DD2
:101190001B823F5F30934B4510924A450196813345
:1011A00091050CF081E38093814576C080914A459A
:1011B000853108F06EC060914B45611119C0609196
:1011C0004C4570914D45FB01EE0FFF1F660F771FD9
:1011D000660F771F660F771F6E0F7F1F640F711DDD
:1011E00060934C4570934D458F5F80934A4516C080
:1011F00070E06150710991E0980F90934A4534E195
:10120000369FF001379FF00D1124CE0FDF1FFE0136
:10121000E80FF11D4383C90FD11D1B8280918145C9
:1012200090E00196813391050CF081E38093814534
:1012300033C04F3769F480914C4590914D45181655
:1012400019060CF020E010924C4510924D4524C038
:10125000403209F110924B45552740934C4550932D
:101260004D4580E0833050F4DE0134E1839FA00DD2
:10127000B11D112413961C928F5FF4CF81E08093EF
:101280004E45EF5FE093814507C020E005C020E0B8
:1012900003C020E001C020E0222319F0822F0E9429
:1012A000133BDF91CF911F9108951F920F920FB6BC
:1012B0000F9211240BB60F922F933F934F935F938E
:1012C0006F937F938F939F93AF93BF93EF93FF930E
:1012D0008091224081112BC08091484590914945D1
:1012E000892B31F40E946635809348459093494597
:1012F000E0914845F091494580914745DF01A80FAD
:10130000B11D9C91992331F08F5F80934745909355
:1013100002080DC01092474510820E9466358093E6
:10132000484590934945892B11F40E941B368091C2
:10133000274081112BC08091454590914645892BCE
:1013400031F40E94B3398093454590934645E0912E
:101350004545F091464580914445DF01A80FB11DF8
:101360009C91992331F08F5F8093444590930208BC
:101370000DC01092444510820E94B33980934545B8
:1013800090934645892B11F40E947C3AFF91EF918E
:10139000BF91AF919F918F917F916F915F914F918D
:1013A0003F912F910F900BBE0F900FBE0F901F908B
:1013B00018951F920F920FB60F9211240BB60F9231
:1013C0002F933F934F935F936F937F938F939F934D
:1013D000AF93BF93EF93FF9380912240843059F5F0
:1013E0008091424590914345892B31F40E946635A6
:1013F0008093424590934345E0914245F0914345A7
:1014000080914145DF01A80FB11D9C91992331F0D6
:101410008F5F80934145909382080DC010924145A3
:1014200010820E9466358093424590934345892BF4
:1014300011F40E941B3680912740843059F5809129
:101440003F4590914045892B31F40E94B3398093F8
:101450003F4590934045E0913F45F0914045809154
:101460003E45DF01A80FB11D9C91992331F08F5F9C
:1014700080933E45909382080DC010923E451082A5
:101480000E94B33980933F4590934045892B11F4D6
:101490000E947C3AFF91EF91BF91AF919F918F9104
:1014A0007F916F915F914F913F912F910F900BBE64
:1014B0000F900FBE0F901F9018950F931F93CF930F
:1014C000DF93182F80913C4590913D45892B31F455
:1014D0000E94BE3580933C4590933D45C0913C456C
:1014E000D0913D45209709F4E3C0812F90E00E9400
:1014F000804A843211F0813249F510923B458132A5
:1015000011F483E001C081E0888310923A45109283
:10151000364510923745109238451092394581E092
:10152000809335451092344580913445833058F48A
:10153000FE0105E1809FE00DF11D112413828F5FF4
:1015400080933445F1CF10923445A7C09091354532
:10155000992309F48BC08C3229F08B3319F08F3327
:1015600009F042C090913445992389F0292F30E049
:101570002150310940913A4555E1529FF001539F66
:10158000F00D1124EC0FFD1FE40FF11D13829F5F7E
:101590009093344510923A458B3369F480913B45E2
:1015A000843030F0809136459091374589839A8315
:1015B0001092354510C08F3371F482E0888380919A
:1015C0003B45833030F08091364590913745898393
:1015D0009A83109235458091354581115EC01092F5
:1015E0003C4510923D4559C020913445211129C0F8
:1015F0004091364550913745609138457091394555
:10160000440F551F661F771F8A019B01000F111F92
:10161000221F331F000F111F221F331F400F511FA6
:10162000621F731F8A019B01080F111D211D311DAF
:10163000009336451093374520933845309339450C
:101640002CC030E02150310990913A4541E0490FDA
:1016500040933A4565E1629FA001639F500D1124BC
:10166000C40FD51FC90FD11D8B8317C08D30A9F4AE
:1016700019821A8282E380933B4510923A45109278
:1016800036451092374510923845109239451092E0
:10169000344510923C4510923D4580913B458F5F0B
:1016A00080933B45823320F01092354510923B45A4
:1016B000DF91CF911F910F9108951F920F920FB656
:1016C0000F9211240BB60F922F933F934F935F937A
:1016D0006F937F938F939F93AF93BF93CF93EF932A
:1016E000FF930E94A845C82F80912240811103C01A
:1016F0008C2F0E945D0A80912740811103C08C2F9E
:101700000E94C707FF91EF91CF91BF91AF919F9139
:101710008F917F916F915F914F913F912F910F909A
:101720000BBE0F900FBE0F901F9018951F920F9237
:101730000FB60F9211240BB60F922F933F934F9336
:101740005F936F937F938F939F93AF93BF93CF9349
:10175000EF93FF930E941046C82F8091224084305F
:1017600019F48C2F0E945D0A80912740843019F46F
:101770008C2F0E94C707FF91EF91CF91BF91AF913E
:101780009F918F917F916F915F914F913F912F9199
:101790000F900BBE0F900FBE0F901F9018951F92C9
:1017A0000F920FB60F9211240BB60F922F933F9307
:1017B0004F935F936F937F938F939F93AF93BF9359
:1017C000CF93EF93FF930E94DC45C82F8091224076
:1017D000813019F48C2F0E945D0A8091274081305E
:1017E00019F48C2F0E94C707FF91EF91CF91BF9101
:1017F000AF919F918F917F916F915F914F913F91A9
:101800002F910F900BBE0F900FBE0F901F90189549
:101810001F920F920FB60F9211240BB60F922F93B7
:101820003F934F935F936F937F938F939F93AF9368
:10183000BF93EF93FF9380912740813059F58091BA
:10184000324590913345892B31F40E94B33980930E
:10185000324590933345E0913245F0913345809184
:101860003145DF01A80FB11D9C91992331F08F5FA5
:1018700080933145909322080DC01092314510821B
:101880000E94B3398093324590933345892B11F4EC
:101890000E947C3A80912240813059F580912F45F9
:1018A00090913045892B31F40E94663580932F4505
:1018B00090933045E0912F45F091304580912E4531
:1018C000DF01A80FB11D9C91992331F08F5F8093A8
:1018D0002E45909322080DC010922E4510820E9432
:1018E000663580932F4590933045892B11F40E94E3
:1018F0001B36FF91EF91BF91AF919F918F917F9197
:101900006F915F914F913F912F910F900BBE0F9070
:101910000FBE0F901F9018951F920F920FB60F9247
:1019200011240BB60F920F931F932F933F934F9356
:101930005F936F937F938F939F93AF93BF93EF9337
:10194000FF93CF93DF93CDB7DEB72597CDBFDEBF33
:101950008091360B80FF98C380912746909128464E
:101960009C012F5F3F4F20932746309328468B32B0
:10197000914009F086C31092274610922846809124
:10198000FC45811103C08AB180648AB90E94BA21E2
:1019900081110AC09091BB45913019F191E090936B
:1019A000BB45909306401DC09091BB459130C9F452
:1019B00090912946891312C090911D40992389F076
:1019C000915090931D4091110CC01092BB4591E035
:1019D0009093064093E090931D4003C093E0909352
:1019E0001D40809329460E94B005109101461123A5
:1019F000A9F18091024690910346A0910446B091CE
:101A00000546892B8A2B8B2B99F080910246909169
:101A10000346A0910446B09105460197A109B1097A
:101A20008093024690930346A0930446B0930546E4
:101A30008091024690910346A0910446B0910546DC
:101A4000892B8A2B8B2B11F010910640112309F45E
:101A500018C3109200461092014613C319821A82CD
:101A60001B821C828091134090911440892B49F075
:101A7000809113409091144001978093134090936C
:101A800014408091FD45882309F452C04091F845E7
:101A90005091F9456091FA457091FB45452B462BD5
:101AA000472B51F09091FE45911108C09091C4458B
:101AB000992329F0812F03C0812F01C0812F882312
:101AC000B9F1CE0101960E947E0549815A816B8150
:101AD0007C818091F8459091F945A091FA45B091AB
:101AE000FB45481759076A077B0710F18CEF809375
:101AF000B8451092BC451092BD451092BE4510925B
:101B0000BF4580E00E94D9431092FC451092FD45EC
:101B100081E08093FE458AE590E0809313409093A6
:101B2000144080910A40882319F08CE38093094087
:101B30008091FC45882309F432C20091FD450023C1
:101B400009F4A2C18091C0459091C145892B49F00B
:101B50008091C0459091C14501978093C045909375
:101B6000C1458091BC459091BD45A091BE45B091C5
:101B7000BF45892B8A2B8B2B09F411C28091BC4560
:101B80009091BD45A091BE45B091BF45181619066C
:101B90001A061B060CF026C18091BC459091BD45EC
:101BA000A091BE45B091BF450197A109B1098093AD
:101BB000BC459093BD45A093BE45B093BF45809171
:101BC000C0459091C145892B41F48091F045909199
:101BD000F145892B21F4812F03C0812F01C0802F73
:101BE000882381F18091F0459091F145A0E0B0E02B
:101BF0004091BC455091BD456091BE457091BF4537
:101C000084179507A607B707E9F48FEE8093B845C8
:101C100080911140909112408093C0459093C145AE
:101C200080910B400E94A61F80930740909308402C
:101C30001D8240E050E0BE016B5F7F4F8BED95E46D
:101C40000E9467388091BC459091BD45A091BE45EA
:101C5000B091BF45892B8A2B8B2B09F0A0C18091B5
:101C60000F4090911040892B09F4A3C080E00E949E
:101C7000D94340910F40509110408091BC459091C4
:101C8000BD45A091BE45B091BF45052E000C660B29
:101C9000770B841B950BA60BB70B8093BC459093D9
:101CA000BD45A093BE45B093BF4581E08D8340E024
:101CB00050E0BE016B5F7F4F86EC95E40E94673871
:101CC0008EEF8093B845CE0101960E947E05298152
:101CD0003A814B815C818091F8459091F945A091C2
:101CE000FA45B091FB45281739074A075B0758F4B6
:101CF0006091F8457091F9458091FA459091FB45C6
:101D00000E94134603C060E070E0CB0120910F40B9
:101D10003091104040910D4050910E40240F351FDE
:101D2000215F3F4F032E000C440B550B261737073E
:101D3000480759070CF033C180910F409091104033
:101D400040972CF080910940811101C0102F112380
:101D500009F425C180910F40909110400A97092EF7
:101D6000000CAA0BBB0B8093174090931840A093D4
:101D70001940B0931A4082E08093C54581E080937A
:101D800000468091C0459091C145409117405091C7
:101D900018406091194070911A40841B950B1816D9
:101DA000190614F080E090E08093C0459093C145FF
:101DB000F6C080910D4090910E40092E000CAA0BA8
:101DC000BB0B8093BC459093BD45A093BE45B0939B
:101DD000BF4580910C400E94A61F809307409093BE
:101DE0000840DDC08091BC459091BD45A091BE45A5
:101DF000B091BF45BB230CF0D2C08091BC459091FF
:101E0000BD45A091BE45B091BF450196A11DB11D34
:101E10008093BC459093BD45A093BE45B093BF450C
:101E20008091BC459091BD45A091BE45B091BF4504
:101E3000892B8A2B8B2B09F0B2C08DEF8093B8458C
:101E400080910D4090910E40092E000CAA0BBB0B07
:101E50008093BC459093BD45A093BE45B093BF45CC
:101E600080910C400E94A61F8093074090930840E9
:101E700081E08D8340E050E0BE016B5F7F4F86ECD8
:101E800095E40E9467388BC08091F4459091F545A8
:101E9000A091F645B091F745892B8A2B8B2B09F43D
:101EA0007EC0CE0101960E947E0549815A816B81D8
:101EB0007C818091F4459091F545A091F645B091D3
:101EC000F745481759076A077B0708F468C08091EF
:101ED000F2459091F345892B59F18EEF8093B845E7
:101EE0008091F2459091F345919581959109092E44
:101EF000000CAA0BBB0B8093BC459093BD45A093EF
:101F0000BE45B093BF452091F2453091F345809195
:101F10000D4090910E40820F931F2091F04530911B
:101F2000F145821B930B8093C0459093C14534C00B
:101F30008DEF8093B84580910D4090910E40092E11
:101F4000000CAA0BBB0B8093BC459093BD45A0939E
:101F5000BE45B093BF4580910D4090910E402091B9
:101F6000F0453091F145821B930B8093C0459093CF
:101F7000C14580910C400E94A61F8093074090931A
:101F8000084081E08D8340E050E0BE016B5F7F4FF1
:101F900086EC95E40E94673881E08093FD4580914E
:101FA000C3458823E1F08091C34581508093C345A8
:101FB0008091C345853039F481E00E949E2880E0FD
:101FC0000E94A8285EC08091C34581115AC046E096
:101FD00060E875E280E090E00E94613652C0809136
:101FE000134090911440892B69F08091C445811170
:101FF0000CC09091FE45911108C09091FF45992326
:1020000019F003C081E001C081E0882399F180913B
:102010000940882379F180910940815080930940DB
:1020200080910940811126C081E00E94A82880E0AB
:102030000E949E281092C4458091FC45811112C0D7
:1020400084E08093C54581E0809300468FEF9FEF49
:10205000DC018093174090931840A0931940B093EF
:102060001A4006C08091C545833011F40E94FC1EC1
:1020700010920A4080910A40882319F081E08093F1
:10208000C24581E08093360B2596CDBFDEBFDF9140
:10209000CF91FF91EF91BF91AF919F918F917F91E0
:1020A0006F915F914F913F912F911F910F910F90E1
:1020B0000BBE0F900FBE0F901F9018951F920F929E
:1020C0000FB60F9211240BB60F922F933F934F939D
:1020D0005F936F937F938F939F93AF93BF93EF9390
:1020E000FF93CF93DF9300D0CDB7DEB78091060B7F
:1020F00080FFCDC08091204090912140892B49F0F4
:1021000080912040909121400197809320409093AE
:10211000214080911E4090911F40892B49F0809171
:102120001E4090911F40019780931E4090931F4046
:102130008091B9459091BA45892B49F08091B94574
:102140009091BA4501978093B9459093BA45809193
:10215000FC45882319F08091FD4501C080E088236B
:1021600009F492C08091BC459091BD45A091BE45B7
:10217000B091BF45181619061A061B060CF066C06A
:1021800080912A4690912B46009709F447C0019709
:1021900080932A4690932B46892B09F075C0AE0197
:1021A0004F5F5F4FBE016E5F7F4F80E090E00E9407
:1021B000673880932C468A81811125C089818823C4
:1021C00011F18DEF8093B84580910C400E94A61FBD
:1021D000809307409093084081E08A8340E050E07C
:1021E000BE016E5F7F4F86EC95E40E946738AE01BA
:1021F0004F5F5F4FBE016E5F7F4F80E090E00E94B7
:10220000673880932C4680912C468823E9F181E041
:102210000E94D54389B18F7B89B936C080912C4605
:102220000E94D94380912C46811104C089B18064F9
:1022300089B903C089B18F7B89B98091074090919A
:10224000084080932A4690932B461EC08091BC453F
:102250009091BD45A091BE45B091BF45892B8A2B79
:102260008B2B91F480912C46882371F010922C4690
:1022700080E00E94D94389B1806489B980E00E94DE
:10228000D5438EEF8093B84581E08093060B0F9085
:102290000F90DF91CF91FF91EF91BF91AF919F91FF
:1022A0008F917F916F915F914F913F912F910F90FF
:1022B0000BBE0F900FBE0F901F9018950E94B10794
:1022C00089B1806489B980E196E40E94173280E187
:1022D00096E40E942B3181E00E941E280E948944CE
:1022E000823D31F40E940A3B87E490E40E941F3B48
:1022F0000E94B1218C3F31F40E940A3B82E790E4B6
:102300000E941F3B0E94B228811106C00E940A3B16
:102310008BE990E40E941F3B0E940A3B80EC90E412
:102320000E941F3B8DED90E49F938F9381EE90E48C
:102330009F938F9385E895E49F938F930E94CF4A54
:1023400085E895E40E941F3B8EEE90E40E941F3BBF
:102350000E940A3B0E94FF3A0F900F900F900F903F
:102360000F900F906AEF70E080E090E00E94DC42F6
:102370008823C1F30E944C180E94BF11F3CFEF9243
:10238000FF920F931F93CF93DF93CDB7DEB7CD5658
:10239000D109CDBFDEBF0E94383A8A879B8721E0F2
:1023A0008A859B85892B09F420E0222309F468C6DD
:1023B0008A859B85FC01818192818C879D878C8594
:1023C0009D858A3EF2E29F0709F44FC38B3E22E2CD
:1023D0009207B8F48F36EDE19E0709F498C3803771
:1023E000FDE19F0728F48E31934009F42CC236C6D4
:1023F000863CEEE19E07E9F0813D9E4109F47BC1F8
:102400002DC6823723E2920709F4ABC28337E3E299
:102410009E0728F4883F924209F40AC11FC68433FC
:1024200024E2920709F4D3C1853C944209F402C620
:1024300015C68A859B85FC018381882F90E089835E
:102440009A8389819A81892B09F4D0C089819A81E4
:102450008234910519F419821A82ACC089819A815B
:102460008634910529F486E090E089839A83A2C09E
:1024700089819A8183349105B9F58A859B85FC0110
:1024800087898B838A859B85FC01108E8B818234A2
:1024900011F480E38B838B81882F90E0C0970A979B
:1024A00008F088C08A859B8547960E943B4A8E87A4
:1024B0009F87188A85E0898B8989282F30E08E854F
:1024C0009F852817390724F48989882F90E009C04F
:1024D0008889882F90E02E853F85821793070CF41A
:1024E000C90189839A8366C089819A818335910560
:1024F00009F059C01C828A859B85FC0187898A8BDB
:102500008A859B85FC01808D8B8B8A859B85FC0150
:10251000118E8A89823411F41C8236C08A898634ED
:1025200051F48B89813380F18B89863368F58B89EF
:1025300084528C8329C08A89833569F48B898133DD
:1025400038F08B89863320F48B8989528C831CC0A8
:1025500087E08C8319C08B89863451F48A89813352
:1025600098F08A89863380F48A8984528C830CC0DF
:102570008B89833549F48A89813330F08A8986339F
:1025800018F48A8989528C838C81873048F08C8139
:10259000823130F48C81882F90E089839A830AC03D
:1025A00019821A8207C08A859B8503960E943B4A3E
:1025B00089839A8389819A819923C4F089819A8138
:1025C0004297A4F489818EABCE01C696AC0169E234
:1025D00080E196E40E94C62F9EA980911B40981727
:1025E00029F0CE01C69660E00E94AB2280911B408C
:1025F000882F90E0292F2F938F9381E392E4892FE6
:102600008F9381E392E48F9385E895E4892F8F93EC
:1026100085E895E48F930E94CF4A0F900F900F901A
:102620000F900F900F9085E895E40E941F3B20C506
:102630008A859B85FC0183818823E9F18A859B85B6
:1026400003960E943B4A80932D4690932E4680919C
:102650002D4690912E468938934168F460E070E0F1
:102660008DE296E40E94FB438C8B8C89882319F0C1
:102670008C898093B7450E94F643292F2F938F931F
:1026800089E392E4892F8F9389E392E48F9385E81D
:1026900095E4892F8F9385E895E48F930E94CF4A24
:1026A0000F900F900F900F900F900F9085E895E48A
:1026B0000E941F3BDDC40E94F643292F2F938F9366
:1026C00089E392E4892F8F9389E392E48F9385E8DD
:1026D00095E4892F8F9385E895E48F930E94CF4AE4
:1026E0000F900F900F900F900F900F9085E895E44A
:1026F0000E941F3BBDC41D821E821F8218868A85D0
:102700009B85FC018381882379F18A859B850396CB
:102710000E94594ADC01CB018D8B9E8BAF8BB88F09
:102720008D899E89AF89B88D8FAB98AFA9AFBAAFAD
:10273000CE01C79661E00E949A43982F81E08927D5
:10274000882369F08FA998ADA9ADBAAD8D839E831A
:10275000AF83B88780E196E40E944F300DC087E4D4
:1027600090E40E941F3B08C00E94CC43DC01CB01D7
:102770008D839E83AF83B8878D819E81AF81B8851D
:10278000892B8A2B8B2B09F46EC488858F938F81BC
:102790008F938E818F938D818F9384E492E4892F20
:1027A0008F9384E492E48F9385E895E4892F8F9347
:1027B00085E895E48F930E94CF4A8DB79EB708961F
:1027C000CDBFDEBF85E895E40E941F3B4CC48A85DF
:1027D0009B85FC018381882389F18A859B85FC0187
:1027E0008381803321F482E00E940D2241C48A85D6
:1027F0009B85FC018381813321F482E00E94BC210E
:1028000037C48A859B85FC018381823331F481E062
:1028100080931C400E9433222BC48A859B85FC0137
:102820008381833331F462E080E090E00E94AB2248
:102830001FC480E592E40E941F3B1AC480E592E425
:102840000E941F3B15C48A859B85FC0183818823D8
:1028500009F441C080E290E08093854590938645DD
:102860008A859B850396BC0185E895E40E94884A89
:102870008A859B85FC0187898823D1F085E895E4CA
:102880009C01F90101900020E9F7CF010197821B1B
:10289000930B8B579A4B20E230E0FC01208331836D
:1028A0008A859B854796BC0185E895E40E94884A05
:1028B00085E895E40E949A4A459768F465E875E4CE
:1028C0008BED95E40E94934A45E855E46AE080E187
:1028D00096E40E94C62F8091DB45882301F1809108
:1028E0000B40882F90E0BC018BED95E40E945D3990
:1028F000885A9D4F96958795969587959695879535
:102900009C01A5ECB0E20E94F148929582958F70EF
:1029100089279F7089278093F0459093F1458BED2F
:1029200095E4892F8F938BED95E48F9385E592E461
:10293000892F8F9385E592E48F9385E895E4892F1D
:102940008F9385E895E48F930E94CF4A0F900F9064
:102950000F900F900F900F9085E895E40E941F3B19
:1029600087C38A859B85FC018381833509F06FC00D
:102970008A859B85FC018789898F898D882309F445
:1029800048C08A859B8547960E94594ADC01CB0145
:102990008A8F8A8D8B8F85E08C8F84E18D8F9B8DC4
:1029A0008D8D891740F09B8D8C8D981710F48C8D30
:1029B00003C08B8D01C08D8D80930B404BE050E4A4
:1029C00068E280E196E40E94C62F8091DB4588236F
:1029D00001F180910B40882F90E0BC018BED95E4D4
:1029E0000E945D39885A9D4F969587959695879553
:1029F000969587959C01A5ECB0E20E94F1489295CE
:102A000082958F7089279F7089278093F0459093D6
:102A1000F14580910B40882F90E0292F2F938F93C1
:102A20008CE592E4892F8F938CE592E48F9385E86F
:102A300095E4892F8F9385E895E48F930E94CF4A80
:102A40000F900F900F900F900F900F9009C085E09E
:102A5000E0E5F2E4A5E8B5E401900D928A95E1F78E
:102A600085E895E40E941F3B03C38A859B85FC0192
:102A70008381882351F18A859B85039648E050E045
:102A8000BC0185E895E40E94A34A10928D4585E833
:102A900095E40E942246882341F085E895E40E944F
:102AA0009A4A049710F081E001C080E0882369F021
:102AB00065E875E48AE196E40E94934A4AE156E4A7
:102AC0006FE180E196E40E94C62F8AE196E4892FA7
:102AD0008F938AE196E48F938EE692E4892F8F9309
:102AE0008EE692E48F9385E895E4892F8F9385E8AD
:102AF00095E48F930E94CF4A0F900F900F900F9004
:102B00000F900F9085E895E40E941F3BB1C2198693
:102B10008A859B85FC018381843509F0C5C08A853F
:102B20009B85FC018789882309F476C08A859B856B
:102B300047964CE050E0BC0185E895E40E94A34A2A
:102B400010929145809119468195482F62E276E472
:102B500085E895E40E949324DC01CB018E8F9F8F42
:102B6000A8A3B9A38E8D9F8DA8A1B9A1892B8A2B6B
:102B70008B2B09F496C060E085E895E40E94312D26
:102B80008AA38AA1882351F088E2E2E7F0E4A5E86D
:102B9000B5E401900D928A95E1F783C080E090E062
:102BA0000E94062BDC01CB018093224690932346A2
:102BB000A0932446B09325468091224690912346C7
:102BC000A0912446B0912546AE01445C5F4F22E3BC
:102BD00030E0BC01CD010E94532F292F2F938F93FA
:102BE00086E792E4892F8F9386E792E48F9385E8B6
:102BF00095E4892F8F9385E895E48F930E94CF4ABF
:102C00000F900F900F900F900F900F9060E080E06A
:102C100090E00E94AB2245C0CE01CB960E94062BCD
:102C2000DC01CB018093224690932346A093244657
:102C3000B09325468BAD882351F088E2E2E7F0E4BB
:102C4000A5E8B5E401900D928A95E1F72AC080913C
:102C5000224690912346A0912446B0912546AE018C
:102C6000445C5F4F22E330E0BC01CD010E94532F52
:102C7000292F2F938F9386E792E4892F8F9386E7EE
:102C800092E48F9385E895E4892F8F9385E895E406
:102C90008F930E94CF4A0F900F900F900F900F903C
:102CA0000F9081E08987BEC18A859B85FC01838165
:102CB000833509F0BEC08A859B854796BC0185E8AF
:102CC00095E40E94934A809119468195482F61E1CD
:102CD00076E485E895E40E949324DC01CB018BA384
:102CE0009CA3ADA3BEA38BA19CA1ADA1BEA1892B2A
:102CF0008A2B8B2B09F470C08BA19CA1ADA1BEA126
:102D00008093114690931246A0931346B0931446B5
:102D100041E156E462E080E196E40E94C62F809192
:102D2000154690911646A0911746B09118468FA36C
:102D300098A7A9A7BAA78091114690911246A09191
:102D40001346B091144680589E4AAE4FBF4F8BA792
:102D50009CA7ADA7BEA72FA138A549A55AA58BA5AD
:102D60009CA5ADA5BEA5281739074A075B0728F41F
:102D70008BA59CA5ADA5BEA504C08FA198A5A9A5AE
:102D8000BAA58093154690931646A0931746B09324
:102D9000184645E156E466E080E196E40E94C62FBD
:102DA00063E080E090E00E94AB22209111463091D8
:102DB00012464091134650911446809122469091BC
:102DC0002346A0912446B091254682179307A40775
:102DD000B50710F40E94332280911146909112465B
:102DE000A0911346B0911446AE01445C5F4F22E3BC
:102DF00030E0BC01CD010E94532F292F2F938F93D8
:102E000080E892E4892F8F9380E892E48F9385E89D
:102E100095E4892F8F9385E895E48F930E94CF4A9C
:102E20000F900F900F900F900F900F9081E0898777
:102E3000F9C08A859B85FC018381863409F07CC0BA
:102E40008A859B854796BC0185E895E40E94934A54
:102E5000809119468195482F65E176E485E895E4EF
:102E60000E949324DC01CB018FA798ABA9ABBAAB2E
:102E70008FA598A9A9A9BAA9892B8A2B8B2B79F19F
:102E80008FA598A9A9A9BAA980931546909316462B
:102E9000A0931746B093184645E156E466E080E1FA
:102EA00096E40E94C62F63E080E090E00E94AB228F
:102EB000209111463091124640911346509114468C
:102EC0008091224690912346A0912446B0912546B8
:102ED00082179307A407B50710F40E94332280914C
:102EE000154690911646A0911746B0911846AE012E
:102EF000445C5F4F22E330E0BC01CD010E94532FC0
:102F0000292F2F938F938BE892E4892F8F938BE84F
:102F100092E48F9385E895E4892F8F9385E895E473
:102F20008F930E94CF4A0F900F900F900F900F90A9
:102F30000F9081E0898776C08A859B85FC0183811B
:102F40008A3219F40E94912E6DC00E94AE268BAB7E
:102F50008BA9813031F08BA9853019F00E940B27A5
:102F600061C0209111463091124640911346509114
:102F700014468091224690912346A0912446B09118
:102F800025460F2EF7E9EF2EF2E4FF2EF02D04EA8E
:102F900012E4BC01CD010E947625209115463091A6
:102FA00016464091174650911846809111469091CF
:102FB0001246A0911346B0911446E12CF12C00EB7F
:102FC00012E4BC01CD010E9476252091114630917A
:102FD000124640911346509114468091224690919A
:102FE0002346A0912446B0912546281739074A0761
:102FF0005B07C0F420911546309116464091174664
:10300000509118468091224690912346A0912446E3
:10301000B0912546E12CF12C08EB12E4BC01CD0166
:103020000E9476258985882301F185E895E40E9430
:103030001F3B1BC08A859B85FC0183818334B9F4C7
:103040008A859B85FC018789882389F08A859B85F1
:1030500047960E943B4A8CAB9DAB09C08EEE90E434
:103060000E941F3B05C0000003C0000001C000001B
:103070008A859B85FC01118212820E94FF3A8BC9CE
:103080000000C359DF4FCDBFDEBFDF91CF911F914D
:103090000F91FF90EF900895EF92FF920F931F937F
:1030A000CF93DF93CDB7DEB7E397CDBFDEBF81E02F
:1030B00089830E94EB358C879D8721E08C859D85D7
:1030C000892B09F420E0222309F48BC68C859D8589
:1030D000FC01818192818E879F878E859F858238B2
:1030E000FEE19F0709F471C083382EE1920730F5A5
:1030F000813633E0930709F4DEC48236E3E09E07AD
:1031000078F48531F3E09F0709F41EC18E3123E086
:10311000920709F445C38435910509F441C436C6C4
:103120008F3A33E09307D1F1863AECE19E0709F438
:103130004DC58438934009F4CDC128C68A3923E2AD
:10314000920709F441C08B3933E2930778F48D3A42
:10315000E2E29E0709F496C0813CF2E29F0709F47F
:10316000EEC0813D9E4109F4BDC410C6803D33E2EE
:10317000930709F478C3813DE3E29E0728F48F3C6E
:10318000934209F4EBC502C6873F23E2920709F494
:1031900016C28C39944209F4F1C5F8C58C859D8519
:1031A000FC018381882309F4F7C58C859D850396EE
:1031B0000E943B4A21E0892B09F420E0288B0E94E1
:1031C000993610920940E8C5FFCF8C859D85FC019A
:1031D0008381898B81E080930A4089898A3521F433
:1031E00088E780930940DAC589898033B1F58091F9
:1031F000FF45882339F049EC52E46BEC72E483E03C
:103200000E94FC3680E090E00E947E05DC01CB014C
:103210002B2F2F932A2F2F93292F2F938F938FECC0
:1032200092E4892F8F938FEC92E48F9385E895E455
:10323000892F8F9385E895E48F930E94CF4A2DB70D
:103240003EB7285F3F4FCDBFDEBF45E855E463ED95
:1032500072E483E00E94FC36A1C58989833309F0BA
:103260009DC5F8941092C34581E080930940109267
:10327000FF451092FE4510920A4081E08093C445BC
:1032800078948CC58C859D85FC018381882309F405
:1032900087C58C859D85FC0183818D34A9F48C853F
:1032A0009D85FC01808D882379F08C859D854896CD
:1032B0000E943B4A80932F4690933046809131463E
:1032C0008F5F8093314609C08C859D8503960E944F
:1032D0003B4A80932F469093304660E070E08FE247
:1032E00096E40E94FB438A8B8A89882319F08A8995
:1032F0008093B74580912F4690913046292F2F9388
:103300008F9387ED92E4892F8F9387ED92E48F93CB
:1033100085E895E4892F8F9385E895E48F930E9443
:10332000CF4A0F900F900F900F900F900F9045E89D
:1033300055E46CED72E483E00E94FC3631C580E117
:1033400096E40E944F303FC58C859D85FC018381AA
:103350008B8B8B89813321F08B89823309F0AEC04E
:103360000E949345982F81E08927882341F090910E
:10337000364081E08927882311F081E001C080E098
:10338000882321F087EF8093B745A2C08B898133D2
:1033900009F064C00E949345882321F4809136404F
:1033A000882311F081E001C080E0882309F452C035
:1033B000F89481E08CA7CE018C9640E050E0BC01EF
:1033C00086EC95E40E94673880910C400E94A61F0D
:1033D0008093074090930840789481E090E0A0E0CB
:1033E000B0E08093F4459093F545A093F645B093F3
:1033F000F7458FEF9FEFDC018093F8459093F945F7
:10340000A093FA45B093FB458FE097E280930D407F
:1034100090930E4010920F40109210408FE097E270
:10342000A0E0B0E08093BC459093BD45A093BE451D
:10343000B093BF458FEF9FEF8093C0459093C145F8
:1034400081E08093FD4581E08093FC458DEF809382
:10345000B8453EC087EF8093B7453AC08B89823329
:10346000B9F5809131468E3020F48DEC8093B745CC
:103470002FC01DA6CE018D960E94C41F8093324698
:1034800080910046882331F08091C545882311F052
:1034900081E001C080E0882329F083E08093C54566
:1034A000109200468CE38093094080913246882335
:1034B00079F480E196E40E944F300AC08B89803312
:1034C00009F070C4109231468CEE8093B8456AC4FE
:1034D000000068C41A821B821C821D828C859D8517
:1034E000FC0183818335C1F58C859D85FC01808D30
:1034F000882359F08C859D8548960E94594ADC01A5
:10350000CB018A839B83AC83BD838A819B81AC8101
:10351000BD81892B8A2B8B2B09F446C48A819B8120
:10352000AC81BD818093F4459093F545A093F64519
:10353000B093F745F89480E090E00E94062BDC0100
:10354000CB01BC01CD010E942402789480913146C8
:103550008F5F8093314628C48C859D85FC018381D3
:10356000863409F021C48C859D85FC01808D8823DB
:1035700059F08C859D8548960E94594ADC01CB0103
:103580008A839B83AC83BD838A819B81AC81BD810F
:10359000892B8A2B8B2B09F407C48A819B81AC81F0
:1035A000BD818093F8459093F945A093FA45B09377
:1035B000FB45809131468F5F80933146F5C381E0B2
:1035C00080930A408C859D85FC018081813009F0C3
:1035D0004BC08C859D85FC0183818823D1F08C852F
:1035E0009D85039644E150E0BC0185E895E40E9486
:1035F000A34A60E085E895E40E948F2D80E090E08A
:103600000E94062BDC01CB01BC01CD010E942402EB
:10361000CDC380E090E00E947E05DC01CB012B2F22
:103620002F932A2F2F93292F2F938F938FEC92E490
:10363000892F8F938FEC92E48F9385E895E4892FFF
:103640008F9385E895E48F930E94CF4A2DB73EB7BC
:10365000285F3F4FCDBFDEBF45E855E463ED72E420
:1036600083E00E94FC36A2C38C859D85FC0180818D
:10367000823009F09BC38C859D85FC018381883550
:10368000C9F51C8A8C859D85FC01808D882351F0AD
:103690008C859D8548960E943B4A8C8B8C890E9424
:1036A000462E84C30E946E2E8C8B8C89082E000CB3
:1036B000990B292F2F938F9380EE92E4892F8F936C
:1036C00080EE92E48F9385E895E4892F8F9385E8C7
:1036D00095E48F930E94CF4A0F900F900F900F9018
:1036E0000F900F9045E855E463ED72E483E00E948B
:1036F000FC365CC380E090E00E94062BDC01CB012D
:103700008D8B9E8BAF8BB88F8D899E89AF89B88D3D
:10371000BC01CD010E942402809133469091344631
:10372000A0913546B09136462D893E894F89588DF6
:10373000281739074A075B0709F438C3888D8F9328
:103740008F898F938E898F938D898F938FEC92E4DD
:10375000892F8F938FEC92E48F9385E895E4892FDE
:103760008F9385E895E48F930E94CF4A2DB73EB79B
:10377000285F3F4FCDBFDEBF45E855E463ED72E4FF
:1037800083E00E94FC368D899E89AF89B88D809335
:10379000334690933446A0933546B093364606C3DD
:1037A000809131468F5F809331468C859D85FC01E9
:1037B0008381882381F18C859D85039644E150E0C7
:1037C000BC018BED95E40E94A34A8091DB458823E0
:1037D00009F4EEC280910B40882F90E0BC018BED84
:1037E00095E40E945D398C509E4F969587959695ED
:1037F0008795969587959C01A5ECB0E20E94F148CB
:10380000929582958F7089279F7089278093F045C4
:103810009093F145CDC28091DB45882309F4C8C25D
:103820008BED95E4892F8F938BED95E48F9385EE47
:1038300092E4892F8F9385EE92E48F9385E895E447
:10384000892F8F9385E895E48F930E94CF4A0F903C
:103850000F900F900F900F900F9085E895E40E94C5
:10386000BB361982A5C280910C40898F8C859D85BD
:10387000FC018381893409F04FC08C859D85FC0152
:10388000808D882309F496C28C859D8548960E9478
:10389000594ADC01CB01898F898D8A8F85E08B8F16
:1038A00084E18C8F9A8D8C8D891740F09A8D8B8D49
:1038B000981710F48B8D03C08A8D01C08C8D809376
:1038C0000B40809131468F5F809331468091DB457C
:1038D000882309F46FC280910B40882F90E0BC01CF
:1038E0008BED95E40E945D398C509E4F969587959F
:1038F00096958795969587959C01A5ECB0E20E94D8
:10390000F148929582958F7089279F7089278093BF
:10391000F0459093F1454EC28C859D85FC018381D5
:10392000803509F047C28C859D85FC01808D8823F8
:1039300009F440C28C859D8548960E94594ADC0155
:10394000CB01898F898D8D8F85E090E08E8F9F8F41
:1039500084E190E088A399A38D8D282F30E088A181
:1039600099A18217930754F08D8D882F90E02E8DAA
:103970003F8D8217930724F4C90102C088A199A141
:1039800080930C40809131468F5F809331468091C7
:103990000C400E94A61F80930740909308400AC2E3
:1039A0001AA21BA28C859D85FC0183818033E1F4E2
:1039B0008C859D85FC01808D882309F4FDC18C8553
:1039C0009D8548960E94594ADC01CB018AA39BA39E
:1039D0008AA19BA180930F40909310408091314623
:1039E0008F5F80933146E8C18C859D85FC01838182
:1039F0008133E1F48C859D85FC01808D882309F459
:103A0000DBC18C859D8548960E94594ADC01CB011B
:103A10008AA39BA38AA19BA180930D4090930E4003
:103A2000809131468F5F80933146C6C18C859D85DC
:103A3000FC0183818934E1F48C859D85FC01808DB6
:103A4000882309F4B9C18C859D8548960E94594AFE
:103A5000DC01CB018AA39BA38AA19BA18093114087
:103A600090931240809131468F5F80933146A4C17C
:103A70008C859D85FC018381843409F09DC18C85F2
:103A80009D85FC01808D882309F496C18C859D85D8
:103A900048960E94594ADC01CB018AA39BA38AA1C4
:103AA0009BA18093F2459093F345809131468F5FBF
:103AB0008093314681C18C859D85FC01838188235B
:103AC00009F47CC18C859D85039644E150E0BC01DE
:103AD00086EC95E40E94A34A809131468F5F8093E3
:103AE00031466CC11E821F82188619868C859D8581
:103AF000FC018381882399F18C859D8503960E9422
:103B0000594ADC01CB018093374690933846A09305
:103B10003946B0933A468091374690913846A09105
:103B20003946B0913A468EA79FA7A8ABB9ABCE0154
:103B30008E9661E00E949A43982F81E0892788231E
:103B4000B1F08EA59FA5A8A9B9A98E839F83A88748
:103B5000B987809131468F5F8093314608C00E94BB
:103B6000CC43DC01CB018E839F83A887B9878E81EC
:103B70009F81A885B985892B8A2B8B2B09F420C1BD
:103B800089858F9388858F938F818F938E818F9373
:103B90008EEE92E4892F8F938EEE92E48F9385E8D8
:103BA00095E4892F8F9385E895E48F930E94CF4AFF
:103BB0002DB73EB7285F3F4FCDBFDEBF45E855E488
:103BC00063EF72E483E00E94FC36FAC080910646FF
:103BD0009091074621E08D38924008F420E022239E
:103BE00009F47CC08091064690910746CC01A0E084
:103BF000B0E09C01AD0160EA78E686E090E00E94CA
:103C00006F48DC01CB017C018D01EDE7FE1A0C4011
:103C10001E4F8091154090911640CC01A0E0B0E07D
:103C20009C01AD0164E670E78EEF9FEF0E946F4844
:103C3000DC01CB01E80EF91E0A1F1B1F8091154005
:103C400090911640CC01A0E0B0E028E630E140E0E1
:103C500050E0281B390B4A0B5B0B8FEF93E0DC0124
:103C60000E9407499B01AC01C801B7010E94C948E5
:103C7000DA01C9018CA39DA3AEA3BFA318A619A600
:103C800084E690E08AA79BA78AA59BA59C01990F33
:103C9000440B550B8CA19DA1AEA1BFA128173907DC
:103CA0004A075B073CF48AA59BA5092E000CAA0BCA
:103CB000BB0B11C088A599A5092E000CAA0BBB0B44
:103CC0002CA13DA14EA15FA182179307A407B507C0
:103CD00014F4DA01C9018A879B872FC080910A46B4
:103CE00090910B469C0140E050E0DA01C901880F39
:103CF000991FAA1FBB1F880F991FAA1FBB1F880FE0
:103D0000991FAA1FBB1F821B930BA40BB50B880F17
:103D1000991FAA1FBB1F8A5C9E4FAF4FBF4F24E65F
:103D200030E040E050E0BC01CD010E94C948DA011A
:103D3000C901805F984D8A879B878A859B8567EF3D
:103D400072E40E94243780E090E00E94062BDC01A0
:103D5000CB01BC01CD010E94240235C0CE01C29628
:103D60000E94F72C982F81E08927882359F18AA98E
:103D70009BA96CEF72E40E94243724C04DED50E4FF
:103D800061E073E483E00E94FC361DC00E9431367E
:103D90008EEC8093B74517C0000015C0000013C01B
:103DA000000011C000000FC000000DC000000BC0DB
:103DB000000009C0000007C0000005C0000003C0EB
:103DC000000001C000008C859D85FC0111821282DB
:103DD0008981882309F46DC985E093E40E94BB368C
:103DE00068C90000E396CDBFDEBFDF91CF911F9180
:103DF0000F91FF90EF900895EF92FF920F931F9312
:103E0000CF93DF93CDB7DEB72997CDBFDEBF20912B
:103E1000F4453091F5454091F6455091F745809134
:103E2000F8459091F945A091FA45B091FB45BC0148
:103E3000CD010E941346DC01CB0189839A83AB83B9
:103E4000BC8321E089819A81AB81BC811816190657
:103E50001A061B060CF020E02D83CE0106960E9468
:103E60007E052091F8453091F9454091FA455091F1
:103E7000FB458E819F81A885B985BC01CD010E943B
:103E80001346DC01CB0189839A83AB83BC83898190
:103E90009A81AB81BC81BB232CF08D81882311F0EA
:103EA00080E04AC02091F4453091F5454091F645B7
:103EB0005091F7458E819F81A885B985BC01CD01C0
:103EC0000E941346DC01CB0189839A83AB83BC83B8
:103ED00089819A81AB81BC81843C9F4FAF4FBF4F9A
:103EE00064F01092C545109217401092184010923D
:103EF000194010921A4081E01FC024EC3FEF4FEFB1
:103F00005FEF89819A81AB81BC8179018A01E81ACE
:103F1000F90A0A0B1B0BD801C70180931740909335
:103F20001840A0931940B0931A4081E08093C54592
:103F300081E08093004681E02996CDBFDEBFDF910E
:103F4000CF911F910F91FF90EF90089585314CF420
:103F5000282F880F330B253031052CF425E030E075
:103F600002C024E130E030E040E050E062EC71E07B
:103F700080E090E00E94C948CA01B9010E944D4703
:103F80000E941C47CB010895CF93DF9300D01F926E
:103F9000CDB7DEB78A839B838A819B810E94EF1F06
:103FA00089838A819B81FC018081882331F08A8109
:103FB0009B81FC0180818093B8458981882321F011
:103FC00089818093B74504C00E94FC1E8093FC4504
:103FD00089812396CDBFDEBFDF91CF910895CF9227
:103FE000DF92EF92FF920F931F93CF93DF931F9275
:103FF000CDB7DEB74091F4455091F5456091F64557
:104000007091F745452B462B472B09F491C1009140
:10401000F4451091F5452091F6453091F7454091D2
:10402000F8455091F9456091FA457091FB450417A8
:1040300015072607370708F07DC120910D40309104
:104040000E40232B09F478C140910F40509110404D
:1040500020910D4030910E40240F351F4091F245C4
:104060005091F345241735070CF468C12091C645DB
:10407000222309F465C120910C40222309F462C176
:104080008C018091DB45882319F180910B408823B6
:1040900041F08091114090911240892B21F481E0F0
:1040A00003C081E001C080E081114EC160910B40EE
:1040B00070E08BED95E40E945D398C509E4F68EE68
:1040C00073E00E947F486093F0457093F14504C00F
:1040D0001092F0451092F14580E090E00E947E053C
:1040E000C090F845D090F945E090FA45F090FB4536
:1040F000C616D706E806F90648F40115110509F4B5
:1041000025C18AEFF801808380E021C12091F44528
:104110003091F5454091F6455091F7450E94134680
:1041200099230CF4F2C0E0900D40F0900E402091E5
:104130000F4030911040E20EF31E97010F2C000C3F
:10414000440B550B0E94C9482091F2453091F3452C
:10415000C901861B970B181619060CF484C0222778
:104160003327281B390B40910D4050910E402417E6
:104170003507ACF18E0D9F1D919581959109092E02
:10418000000CAA0BBB0B8093BC459093BD45A0933C
:10419000BE45B093BF450115110519F08EEFF8012A
:1041A00080838091FC4581118AC080910D4090915F
:1041B0000E404091BC455091BD456091BE45709107
:1041C000BF452091F0453091F145841B950B821B32
:1041D000930B8093C0459093C14580E077C02091B8
:1041E0000D4030910E40820F931F092E000CAA0B38
:1041F000BB0B8093BC459093BD45A093BE45B09347
:10420000BF450115110519F08DEFF80180838091EC
:10421000FC45811156C08091F0459091F145A0E098
:10422000B0E04091BC455091BD456091BE45709154
:10423000BF4584179507A607B7070CF044C08091C7
:10424000BC459091BD45A091BE45B091BF45209120
:10425000F0453091F145821B930B8093C0459093BC
:10426000C14581E033C044275527481B590B052E13
:10427000000C660B770B4093BC455093BD45609393
:10428000BE457093BF450115110519F02EEFF801D9
:1042900020832091FC45211118C020910D403091C0
:1042A0000E40820F931F2091F0453091F145821B03
:1042B000930B8093C0459093C14580E007C080E098
:1042C00005C081E003C081E001C080E08823B1F037
:1042D000F89481E0898340E050E0BE016F5F7F4F3A
:1042E00086EC95E40E94673880910C400E94A61FDE
:1042F0008093074090930840789403C080E00E9428
:10430000D94381E08093FD4509C00115110519F0DD
:104310008FEFF801808380E00E94D9431092FF451F
:104320008AE590E0809313409093144080E00FC0A2
:104330008CEC0DC08DEC0BC08BEC09C08AEC07C077
:1043400089EC05C088EC03C087EC01C080E00F90C9
:10435000DF91CF911F910F91FF90EF90DF90CF9061
:10436000089581E00E94192E882311F08CEF0895A2
:1043700080E0089581E00895CF93C82F0E94AE2673
:10438000F894C1110EC0823031F460E080E090E01A
:104390000E94AB223FC063E080E090E00E94AB222D
:1043A00039C0C230D1F4823031F461E080E090E075
:1043B0000E94AB222FC0813021F0843011F0833075
:1043C00031F461E080E090E00E94AB2223C063E022
:1043D00080E090E00E94AB221DC0823031F461E0A9
:1043E00080E090E00E94AB2215C0813031F462E0A1
:1043F00080E090E00E94AB220DC0843031F463E095
:1044000080E090E00E94AB2205C063E080E090E095
:104410000E94AB227894CF910895CF93DF93D82F49
:104420000E94AE26C82FF894D23031F460E080E0CC
:1044300090E00E94AB2214C0813029F462E080E059
:1044400090E00E94AB22C43031F460E080E090E064
:104450000E94AB2205C060E080E090E00E94AB22A9
:10446000DF91CF9108958F929F92AF92BF92EF927A
:10447000FF920F931F9380E090E00E94062B6093C1
:1044800022467093234680932446909325460E94AB
:10449000AE26823009F454C063E080E090E00E94D0
:1044A000AB22209111463091124640911346509113
:1044B0001446609122467091234680912446909143
:1044C00025460F2EF7E9EF2EF2E4FF2EF02D04EA39
:1044D00012E40E94762560911146709112468091F7
:1044E0001346909114468090224690902346A090C7
:1044F0002446B0902546681579058A059B0588F401
:104500002091154630911646409117465091184615
:10451000E12CF12C08EB12E4C501B4010E947625D0
:1045200011C0209115463091164640911746509182
:104530001846E12CF12C00EB12E40E94762502C013
:104540000E940B271F910F91FF90EF90BF90AF90AB
:104550009F908F9008951F93CF93DF931F92CDB7B5
:10456000DEB7162F009731F0FC018081823111F007
:1045700080931B4080E090E00E94062B60932246CF
:10458000709323468093244690932546F894109286
:10459000FD451092FC45E0911B408E2F90E0FC0100
:1045A0003197E131F10508F036C1EC58FF4F0C941A
:1045B000E848E6ECF5E48DE49FE48083918385E4AC
:1045C00090E08283938380E001C081E0882369F0DA
:1045D000E6ECF5E48DE49FE48083918389E490E048
:1045E0008283938380E001C081E0882369F0E6EC58
:1045F000F5E48DE49FE48083918383E590E08283FA
:10460000938380E001C081E0882369F0E6ECF5E463
:104610008DE49FE48083918388E490E08283938398
:1046200080E001C081E0882351F0E6ECF5E48DE400
:104630009FE48083918385E390E08283938381E08C
:10464000898340E050E0BE016F5F7F4F86EC95E4C8
:104650000E94673880910C400E94A61F80930740FB
:10466000909308408CE390E08093C0459093C145BF
:1046700080930D4090930E4080EF90E080930F4028
:1046800090931040F8C0E6ECF5E48DE495E4808367
:104690009183128280E001C081E0882351F0E6EC32
:1046A000F5E48DE499E480839183128280E001C077
:1046B00081E0882351F0E6ECF5E48DE493E5808316
:1046C0009183128280E001C081E0882351F0E6EC02
:1046D000F5E48DE498E480839183128280E001C048
:1046E00081E0882339F0E6ECF5E48DE495E38083FE
:1046F0009183128281E0898340E050E0BE016F5FC8
:104700007F4F86EC95E40E94673888E080930C40E8
:1047100080910C400E94A61F809307409093084010
:1047200088E592E08093C0459093C1458CE090E08D
:1047300080930D4090930E4080E390E080930F4073
:104740009093104098C0E6ECF5E48FE495E4808304
:104750009183128280E001C081E0882351F0E6EC71
:10476000F5E48FE499E480839183128280E001C0B4
:1047700081E0882351F0E6ECF5E48FE493E5808353
:104780009183128280E001C081E0882351F0E6EC41
:10479000F5E48FE498E480839183128280E001C085
:1047A00081E0882339F0E6ECF5E48FE495E380833B
:1047B0009183128281E0898340E050E0BE016F5F07
:1047C0007F4F86EC95E40E9467388FE080930C4021
:1047D00080910C400E94A61F809307409093084050
:1047E00088E592E08093C0459093C1458CE090E0CD
:1047F00080930D4090930E4080E390E080930F40B3
:104800009093104038C083E590E08093C645909324
:10481000C74580E001C081E0882339F0E6ECF5E48B
:104820008DE49FE480839183128281E0898340E05C
:1048300050E0BE016F5F7F4F86EC95E40E946738C1
:1048400088E080930C4080910C400E94A61F8093CA
:1048500007409093084088E592E08093C04590938C
:10486000C1458CE390E080930D4090930E401092F0
:104870000F401092104011110AC01092FD45109285
:10488000FC451092264681E080931C4046C01130C2
:1048900051F41092264610921C4081E08093FD4511
:1048A0008093FC453AC0123079F511E0198340E05D
:1048B00050E0BE016F5F7F4F86EC95E40E94673841
:1048C00080910C400E94A61F80930740909308405F
:1048D00080910D4090910E40092E000CAA0BBB0B4D
:1048E0008093BC459093BD45A093BE45B093BF4512
:1048F0001093FD451093FC458DEF8093B8451092C1
:10490000264610921C4009C0CE0101960E94EF1F5E
:1049100081E08093264680931C4078940F90DF912D
:10492000CF911F9108954F925F926F927F92AF92B5
:10493000BF92CF92DF92EF92FF920F931F93CF938C
:10494000DF938C01A42EFC0101900020E9F7319740
:10495000EF01C81BD90B26E461317207E1F4C09066
:104960002246D0902346E0902446F0902546C1147C
:1049700086E6D8068EEEE8068FE5F80650F5BB24ED
:10498000B3940F2EC12CF6E6DF2EFEEEEF2EFFE5E0
:10499000FF2EF02D2FC065517644F1F4C0901146E2
:1049A000D0901246E0901346F09014468091224633
:1049B00090912346A0912446B0912546C816D90669
:1049C000EA06FB06A0F46C017D016894BB24B1F8F3
:1049D00011C0BB24B3940EC0B12C0F2EC12CF6E62F
:1049E000DF2EFEEEEF2EFFE5FF2EF02D03C06894C4
:1049F000BB24B1F8CA30D10539F480E3F8018287CD
:104A000083871486CCE0D0E0CC30D10521F4C801F6
:104A10000E94224601C080E0882309F44BC0B801FF
:104A200080E090E00E94542C2B013C01AA2DAA0C9E
:104A3000BB0B20E13EE00E940049640D751D861D00
:104A4000971DC616D706E806F90608F440C0F1E03F
:104A5000BF1208C08BE093E40E941F3B60E070E04F
:104A6000CB0135C022E0B2121DC000912246109148
:104A7000234620912446309125466017710782070E
:104A8000930740F480E293E40E941F3B60E070E0F3
:104A9000CB011DC086E393E40E941F3B60E070E001
:104AA000CB0115C081E593E40E941F3B60E070E0FC
:104AB000CB010DC0CD2B41F085E693E40E941F3B56
:104AC00060E070E0CB0103C060E070E0CB01DF91FB
:104AD000CF911F910F91FF90EF90DF90CF90BF90FB
:104AE000AF907F906F905F904F9008952F923F927C
:104AF0004F925F926F927F928F929F92AF92BF92EE
:104B0000CF92DF92EF92FF920F931F93CF93DF9399
:104B1000CDB7DEB72C97CDBFDEBF2B013C014901DD
:104B20005A01621773078407950748F0E114F104EE
:104B300009F4FDC0C7010E941F3B81E0F9C00115C7
:104B4000110519F0C8010E941F3B75016401C418CA
:104B5000D508E608F708C701B60120E833E341EEBF
:104B600051E00E94A74829013A014427552760E8EF
:104B700073E381EE91E00E946F48C61AD70AE80AF3
:104B8000F90AC701B60120E831E541E050E00E9492
:104B9000A74849015A0119014427552760E871E5E2
:104BA00081E090E00E946F48C61AD70AE80AF90A25
:104BB000C701B60120E13EE040E050E00E94A74876
:104BC00029833A834B835C8329813A8129873A87F9
:104BD00029813A814B815C8144275527A0E1BEE0C1
:104BE0000E940749C61AD70AE80AF90AC701B6019E
:104BF0002CE330E040E050E00E94A7482D833E8344
:104C00004F8358870D811E812CE3209FC001219F77
:104C1000900D1124A601481B590B4B875C871092FD
:104C2000854541145104B1F05F924F9289E793E4B6
:104C30009F938F9385E895E49F938F930E94CF4A2B
:104C400085E895E40E941F3B0F900F900F900F9006
:104C50000F900F902328B1F09F928F9281E893E4F8
:104C60009F938F9385E895E49F938F930E94CF4AFB
:104C700085E895E40E941F3B0F900F900F900F90D6
:104C80000F900F9089859A85892BC1F09A819F9307
:104C9000E981EF938AE893E49F938F9385E895E405
:104CA0009F938F930E94CF4A85E895E40E941F3B13
:104CB0000F900F900F900F900F900F90012BC1F05D
:104CC000FE81FF932D812F9382E993E49F938F932D
:104CD00085E895E49F938F930E94CF4A85E895E4F9
:104CE0000E941F3B0F900F900F900F900F900F900E
:104CF0003C853F934B854F938AE993E49F938F9331
:104D000085E895E49F938F930E94CF4A85E895E4C8
:104D10000E941F3B0E940A3BE5E8F5E410820F90D9
:104D20000F900F900F900F900F9080E001C081E0E6
:104D30002C96CDBFDEBFDF91CF911F910F91FF90D9
:104D4000EF90DF90CF90BF90AF909F908F907F902B
:104D50006F905F904F903F902F9008950F931F9307
:104D60008091154690911646A0911746B09118462D
:104D7000811526E692072EEEA2072FE5B207D8F19D
:104D8000409111465091124660911346709114461D
:104D90004115E6E65E07EEEE6E07EFE57E0768F189
:104DA00000912246109123462091244630912546B9
:104DB0000115E6E61E07EEEE2E07EFE53E07F8F0DA
:104DC000481759076A077B07E0F480179107A20785
:104DD000B307C8F0401751076207730730F480919A
:104DE0001C40882391F083E013C0809126468111F6
:104DF0000EC084E00DC082E00BC082E009C082E0FA
:104E000007C082E005C082E003C085E001C081E008
:104E10001F910F91089580E090E00E94062B60930F
:104E20002246709323468093244690932546809192
:104E3000DB45811104C081EA93E40E941F3B80910D
:104E4000224690912346A0912446B0912546811593
:104E50009646AE4EBF4520F482EC93E40E941F3B81
:104E6000409115465091164660911746709118462C
:104E70008091224690912346A0912446B0912546E8
:104E8000481759076A077B07B0F4409111465091C3
:104E900012466091134670911446481759076A07E5
:104EA0007B0720F48AEE93E40E941F3B80E194E4A8
:104EB0000E941F3B08954091114650911246609107
:104EC000134670911446481759076A077B0770F418
:104ED000411556466E4E7F4528F48AEE93E40E94B3
:104EE0001F3B089587E394E40E941F3B08950F93AE
:104EF0001F93CF93DF93EC018B01019739F46F3F40
:104F00007F4F21F480E196E40E948A2FCD2B39F463
:104F10000F3F1F4F21F480E196E40E948B2FDF9119
:104F2000CF911F910F9108956FEF7FEF81E090E097
:104F30000E94772708956FEF7FEF80E090E00E9456
:104F400077270895E0E6F4E08289887F828B828962
:104F50008460828B8389887F838B83898460838B41
:104F60008489887F848B84898460848B8589887F09
:104F7000858B85898460858B8289877F828B8389F5
:104F8000877F838B8489877F848B8589877F858BC7
:104F9000089581E08093A00008959AE0909302061E
:104FA000882341F0E0E0F6E083E0808381E08487BD
:104FB00082870895E0E0F6E081E08083148608951A
:104FC000CF93C82F0E94A2270E94C9278C2F0E942E
:104FD000CD2781E080933C46CF910895E0E0F6E054
:104FE0001486108210923C460895EF92FF920F9320
:104FF0001F93CF93DF93EC017B01019779F46F3F0F
:105000007F4F61F400E010E42CEB36E440E050E028
:1050100069E473E48BE396E40E94D732CD2B39F434
:10502000EF20E09421F48BE396E40E942733DF9194
:10503000CF911F910F91FF90EF9008958330C9F0A9
:1050400028F4813041F0823069F028C08430C1F00A
:105050008530E9F023C081E00E94E02782E0809360
:105060000806089580E00E94E02783E08093080608
:10507000089580E00E94E02784E080930806089568
:1050800080E00E94E02785E080930806089580E094
:105090000E94E02782E48093080608950E94EE278C
:1050A0000895809110069091110608951F920F9215
:1050B0000FB60F9211240BB60F922F933F934F937D
:1050C0005F936F937F938F939F93AF93BF93EF9370
:1050D000FF930E945128BC018BE396E40E942E337B
:1050E000811110920C06FF91EF91BF91AF919F91AA
:1050F0008F917F916F915F914F913F912F910F9081
:105100000BBE0F900FBE0F901F9018956FEF7FEFA3
:1051100081E090E00E94F52708956FEF7FEF80E037
:1051200090E00E94F5270895882321F081B18860DE
:1051300081B9089581B1877F81B90895882321F0CD
:1051400081B1806281B9089581B18F7D81B908955F
:10515000882321F081B18F7B81B9089581B180646A
:1051600081B908958EB190E0880F892F881F990B1F
:10517000817008951F920F920FB60F9211248F9392
:105180009F938091490488234CF480913F469091ED
:105190004046019680933F46909340468091490453
:1051A00084FF09C080913F469091404601968093CC
:1051B0003F46909340468FEF809349049F918F9193
:1051C0000F900FBE0F901F9018951F920F920FB661
:1051D0000F9211248F939F938091090482FF09C03D
:1051E00080913D4690913E46019680933D46909336
:1051F0003E468091090484FF09C080913D4690910C
:105200003E46019680933D4690933E468FEF8093B5
:1052100009049F918F910F900FBE0F901F901895CA
:1052200080B18B7F80B9E2E1F4E08081887F826089
:10523000808380B1886080B981B1877F81B980B176
:105240008F7E80B9E4E1F4E0808188608083808192
:10525000887F8360808380B1806280B981B18F7DD7
:1052600081B980B1806480B981B18F7B81B980B10F
:10527000806880B981B18F7781B984B1816084B948
:1052800085B18E7F85B984B1826084B985B18D7F07
:1052900085B984B1806184B985B18F7E85B984B1C7
:1052A000806284B985B18F7D85B988B18F7E88B9D8
:1052B00088B1806288B989B18F7D89B988B18064ED
:1052C00088B989B18F7B89B988B18F7788B9E7E5CB
:1052D000F4E08081886080838081887F8360808320
:1052E0008CB18E7F8CB98CB18D7F8CB9A1E7B4E085
:1052F0008C9188608C938C91887F83608C938CB127
:105300008F778CB98081877F8083E0E9F4E08081AA
:1053100088608083E1E9F4E0808188608083E2E94D
:10532000F4E0808188608083E3E9F4E08081886034
:105330008083E2EBF4E0808188608083E3EBF4E03B
:10534000808188608083E4EBF4E0808188608083E2
:10535000E5EBF4E0808188608083089510928900F5
:1053600080E0089544E268ED88E690E00E948C3980
:1053700080E00895789480E0089583E08093A2000F
:105380006AE070E080E090E00E94DC428111F8CF9A
:105390000895282F2295220F220F207CE0EAF6E0C4
:1053A00022839695879596958795838308950E9485
:1053B000BD29E0E6F4E08689887F868B8689846053
:1053C000868B8689877F868B81EC8093A00680E020
:1053D00090E00E94C929089580E0883048F4E82FC1
:1053E000F0E0E05FFB4F9081986090838F5FF5CF96
:1053F00080E0883048F4E82FF0E0E05DFB4F9081DA
:10540000986090838F5FF5CF80E0883048F4E82F74
:10541000F0E0E05BFB4F9081986090838F5FF5CF69
:1054200080E0883048F4E82FF0E0E059FB4F9081AD
:10543000986090838F5FF5CF80E0883048F4E82F44
:10544000F0E0E057FB4F9081986090838F5FF5CF3D
:1054500080E0883048F4E82FF0E0E055FB4F908181
:10546000986090838F5FF5CF08950E94EC290E9489
:10547000B2290E94BF420E94BA290E94102988B115
:10548000806488B989B1806489B90E94BD420E9454
:10549000D72944E060E875E280E090E00E94613640
:1054A00041E060E875E280E090E00E94923A0E945C
:1054B000AE290895282F30E0359527953595279505
:1054C0003595279535952795220F922F990F990F8E
:1054D000290F8F70820F08952DEC829F212D1124AA
:1054E000922F969596959695990F392F330F330FE6
:1054F000930F891B982F26952695269580E1289F46
:1055000090011124892F822B0895FC012081818133
:10551000F0E12F9F800D112480530895CF92DF92E8
:10552000EF92FF92FC0180812181082E000C990BE3
:10553000AC013CE32302400D511D1124A2810A2E2F
:10554000000CBB0B20E13EE00E9400496A01550FB0
:10555000EE08FF08C60ED71EE81EF91EA085B1850D
:1055600020E831E541E050E00E941249C60ED71E06
:10557000E81EF91E0680F781E02DDF01A654B1096F
:1055800020E833E341EE51E00E941249C60ED71ED7
:10559000E81EF91ECF0185549109DC010AF4139627
:1055A000B595A795B595A79520E831E541E050E080
:1055B0000E941249C60ED71EE81EF91ECF010197A0
:1055C00064E670E00E949348DB0120E83EEA4EEF7B
:1055D0005FEF0E941249C60ED71EE81EF91ECF01CA
:1055E000855D9E4F60E971E00E949348DB0120E8F1
:1055F00031E541E050E00E9412496C0D7D1D8E1D89
:105600009F1DFF90EF90DF90CF9008954F925F9293
:105610006F927F928F929F92AF92BF92CF92DF92C2
:10562000EF92FF920F931F93CF93DF93CDB7DEB727
:105630006397CDBFDEBF7C01FE01319687E0DF01BD
:105640001D928A95E9F78AE01FEF180F882381F0F1
:1056500027E0AE014F5F5F4F60E080ED0E943A347B
:1056600001E0873009F400E0873021F091E003C0C9
:1056700090E001C090E0812F9111E6CF0111F3C0BD
:10568000FE0138968CE0DF011D928A95E9F72F81A3
:10569000822F8F70A82EB12CC5018C599F4F229557
:1056A0002F7030E05901AA0CBB1C220F331F220FB0
:1056B000331F220F331F2A0D3B1D5C01A20EB31EA8
:1056C0006501B4E9CB1AB8EFDB0A8E81982F9F7081
:1056D00082958F70880F982E990C990C890D982EB1
:1056E000990EED818E2F8F70E295EF70EE0F8E2E5A
:1056F000880C880CE80D8E2E880E11E0191560F4C8
:10570000612FC6010E94170228893989280F311D8F
:10571000288B398B1F5FF2CFE82D880CFF0B319758
:1057200088899989E80FF91F2981422F42954F7086
:10573000440F942F990F990F842F890F422F4F7088
:10574000480F3A81232F22952F70220F922F990F05
:10575000990F822F890F232F2F70280F3B81532FF2
:105760005072832F90E0959587959595879595959F
:105770008795959587958170880FA82FAA0FAA0FF6
:105780008A0FA32FAF70A80F36FF04C0552321F056
:10579000A45F02C05111AC5E042E000C550B8CE3CB
:1057A0002802400D511D11240A2E000CBB0B20E1D4
:1057B0003EE00E9400492A01550F66087708460E10
:1057C000571E681E791EDF0120E831E541E050E0F8
:1057D0000E941249460E571E681E791ED501A65416
:1057E000B10920E833E341EE51E00E941249460E30
:1057F000571E681E791EC50185549109DC010AF403
:105800001396B595A795B595A79520E831E541E0A4
:1058100050E00E941249460E571E681E791EC501AF
:10582000019764E670E00E949348DB0120E83EEABD
:105830004EEF5FEF0E941249460E571E681E791EFA
:10584000C501855D9E4F60E971E00E949348DB01D0
:1058500020E831E541E050E00E941249640D751DD9
:10586000861D971D03C060E070E0CB01E114F104D8
:1058700039F0002311F02CEF01C020E0D7012C9368
:105880006396CDBFDEBFDF91CF911F910F91FF9047
:10589000EF90DF90CF90BF90AF909F908F907F90D0
:1058A0006F905F904F9008957F928F929F92AF92EA
:1058B000BF92CF92DF92EF92FF920F931F93CF93FD
:1058C000DF93CDB7DEB72C97CDBFDEBF6C018B0168
:1058D000FE0131968CE0DF011D928A95E9F7611592
:1058E000710509F463C0CB010A960E94852AA82E8F
:1058F000C80108960E94852AB82EC80106960E9403
:10590000852AF82EC80104960E94852A882EC8018F
:1059100002960E94852A782EC8010E94852A182F97
:105920008F2D0E945A2A982E812F0E945A2AE82EE3
:10593000F12CC7018C599F4F8F839887B0E3EB1AE6
:10594000B8EFFB0A872D0E945A2A082F8FEF800F8D
:105950008E83882D0E945A2A8C8311E0101760F4E0
:10596000612FC7010E94170229853A85280F311D32
:1059700029873A871F5FF2CF8C81082E000C990B84
:10598000019729853A85820F931F89879A878A2DE7
:105990000E945A2A182F8B2D0E945A2A9B828A8392
:1059A0001983CE0101960E948E2A04C080E090E007
:1059B0000E94062BC114D10449F021E06115710544
:1059C0008105910509F020E0F60120832C96CDBFDA
:1059D000DEBFDF91CF911F910F91FF90EF90DF908D
:1059E000CF90BF90AF909F908F907F900895EF924F
:1059F000FF921F93CF93DF9300D0CDB7DEB77C012A
:105A000019821A828AE01FEF180F882381F022E0A2
:105A1000AE014F5F5F4F61E180ED0E943A3421E0BB
:105A2000823009F420E0823021F091E003C090E060
:105A300001C090E0812F9111E6CF211109C0898129
:105A400090E0982F88273A81832BF70180839183F8
:105A5000822F0F900F90DF91CF911F91FF90EF90C9
:105A60000895FF920F931F93CF93DF93CDB7DEB7C7
:105A70002797CDBFDEBFFE01319627E0DF011D92E3
:105A80002A95E9F7009709F43FC0F62E8C010A9693
:105A90000E94852A8983C80108960E94852A8A83E4
:105AA000C80106960E94852A8B83C80104960E942D
:105AB000852A8D83C80102960E94852A8E83C8019B
:105AC0000E94852A8F8331E09AE01FEF190F9923F6
:105AD000A1F06F2D660F660F660F6F1927E0AE01FC
