:100000000C9480010C94AA010C94AA010C94AA01EE
:100010000C94AA010C94AA010C94DE280C94AA0159
:100020000C94AA010C94AA010C94AA010C94AA01A4
:100030000C946C100C9402430C94AA010C94AA0129
:100040000C94AA010C94AA010C94AA010C945D0BC7
:100050000C9455090C94AA010C94AA010C94AA01C1
:100060000C944F280C94AA010C94AA010C94AA0198
:100070000C94AA010C94B3280C94B4070C94CF0BE5
:100080000C94080C0C94AA010C94AA010C94AA01DB
:100090000C94AA010C94AA010C94AA010C94AA0134
:1000A0000C94AA010C948C0C0C94AA010C94AA0137
:1000B0000C94AA010C94AA010C94AA010C94AA0114
:1000C0000C94AA010C94AA010C94AA010C94AA0104
:1000D0000C94AA010C94AA010C94AA010C94960BFE
:1000E0000C94D9090C94AA01F322FF220E231D239C
:1000F0002C230D240D24592362236E237A23862377
:10010000B323BC23C823D423E023B82FBE2FA02FB2
:10011000BE2FBE2FBE2FA92FBE2FBE2FBE2F672FE3
:10012000BE2FBE2FBE2FBE2FBE2FBE2FBE2FBE2F67
:10013000BE2FBE2FBE2FBE2FBE2FBE2FBE2FBE2F57
:10014000BE2FBE2FBE2FBE2F7D2FBE2FBE2FBE2F88
:10015000BE2FBE2FBE2FBE2FBE2F942F9A2FB22F91
:100160004E2FBE2FBE2FBE2F572FBE2FBE2FBE2FFE
:10017000602FEE37B237DE37F637E237F637C23761
:10018000AE37BA37BE37F637D237A637D637A237AB
:10019000B6377A377E37823786378A378E37923747
:1001A00096379A379E37C637CA37F237CE37F63783
:1001B000AA37E637123716371A371E37223726374F
:1001C0002A372E37323736373A373E3742374637B7
:1001D0004A374E37523756375A375E3762376637A7
:1001E0006A376E3772377637F637F637F637F637BF
:1001F000DA37F637F637F637F637F637F637F637B3
:10020000F637F637F637F637F637F637F637F63786
:10021000F637F637F637F637F637F637F637F63776
:10022000F637F637F637F637F637EA374A616E753E
:10023000617279204665627275617279204D6172D2
:10024000636820417072696C204D6179204A756E37
:1002500065204A756C792041756775737420536504
:100260007074656D626572204F63746F6265722091
:100270004E6F76656D62657220446563656D62657B
:1002800072200053756E646179204D6F6E646179E0
:100290002054756573646179205765646E65736475
:1002A000617920546875727364617920467269645B
:1002B0006179205361747572646179200053756EA1
:1002C0004D6F6E5475655765645468754672695311
:1002D0006174004A616E4665624D61724170724D93
:1002E00061794A756E4A756C4175675365704F63E5
:1002F000744E6F76446563008D277F289427862887
:1003000011241FBECFEFCDBFDFE7DEBF15E4A0E0B5
:10031000B0E4EAE1FBE900E00BBF02C007900D92F8
:10032000AE33B107D9F729E4AEE3B5E401C01D92BD
:10033000A335B207E1F711E0CEE7D1E004C0219781
:10034000FE010E948748CC37D107C9F70E9470117F
:100350000C94804D0C9400009C0123703327232BB8
:1003600059F464E670E00E943248892B39F46370D6
:10037000772781E0672B19F080E0089581E00895E8
:1003800061E479E40E94C70181E499E40895CF9281
:10039000DF92EF92FF920F931F93CF93DF9300D0E2
:1003A00000D0CDB7DEB76C017B01E0915149F091EF
:1003B0005249309729F06DE479E409958C0102C027
:1003C0000FEF1FEFF60140815181628173818091AF
:1003D0004D4990914E49A0914F49B0915049840F99
:1003E000951FA61FB71F101611064CF4A801012E69
:1003F000000C660B770B840F951FA61FB71F898310
:100400009A83AB83BC83B701CE0101960E944F064D
:10041000F701028713872496CDBFDEBFDF91CF910E
:100420001F910F91FF90EF90DF90CF900895623071
:1004300021F40E94AC01845E0895683008F06F5F7B
:1004400061708EE1860F08950FB6F89460933D4970
:1004500070933E4980933F49909340490FBE089561
:10046000CF92DF92EF920F936B01E82E7C2D6D2DD2
:100470005E2DAE2DC6010196A11D442351F06C01E5
:10048000EA2EE72FF62F0E946D4D603279F741502A
:10049000EDCFF6010E946D4D6C01EA2E80E06032D6
:1004A00039F4F90110820F91EF90DF90CF90089509
:1004B0008017B9F32F5F3F4FF901319760838F5F4A
:1004C000F6015E2D0E946D4D9FEFC91AD90AE90A07
:1004D000E6CF2F923F924F925F926F927F928F92D0
:1004E0009F92AF92BF92CF92DF92EF92FF920F93C3
:1004F0001F93CF93DF93CDB7DEB7A297CDBFDEBFFB
:100500002C0169A37AA34A017901612C712C9E0107
:100510002F5F3F4F690184E6282E312C90EEA92EE3
:1005200094E4B92E29A13AA16216730608F0CDC24F
:10053000D4018C91853209F0BCC211961C911534FE
:1005400031F01F3421F0B2E08B0E911C06C0F40193
:10055000128194012D5F3F4F4901193509F432C2D0
:100560000CF060C0193409F43FC144F5133409F4A8
:10057000E7C054F4113409F4BEC00CF0CAC01532FF
:1005800009F074C2198375C2163409F4EAC064F420
:10059000143409F06BC2F70186819781B1010E9482
:1005A00032489F938F93E7C1173409F4F8C0183489
:1005B00009F05CC2D70112968C9130C1143509F450
:1005C00089C164F4123509F46EC10CF025C11D34E3
:1005D00009F04CC2D70111968C9120C1163509F44F
:1005E000A5C10CF4A1C1173509F4B4C1183509F03F
:1005F0003DC2F7018081282F082E000C330B3F935A
:100600008F938181282F082E000C330B3F938F93FB
:100610008281282F082E000C330B3F938F9385E2A5
:1006200095E4C0C11D3609F4F0C0ACF5143609F4E8
:1006300094C074F4123609F466C00CF075C011361B
:1006400009F014C203E09601D70114964C9157C0EB
:10065000173609F4A4C074F4153609F007C2F7017F
:100660008381282F082E000C330B3F938F9385EE48
:1006700094E4C8C0183609F446C01A3609F0F6C129
:10068000D70118968D919C91199701969F938F93FE
:100690008BEF94E4B7C0153709F435C1B4F41037C3
:1006A00009F4C2C034F41E3609F0E0C18AE089833F
:1006B000E0C1123709F4C6C0143709F0D7C161E1AF
:1006C00075E4C6010E94324AD4C1183709F448C102
:1006D0005CF4173709F0CAC1F7018481282F082E6E
:1006E000000C330B3F9374C1193709F45EC11A37FC
:1006F00009F47EC1BBC10FEF9601F701448163E8A5
:1007000072E080E00DC003E09601D70115964C9190
:1007100004C00FEF9601F70145816CE272E080E0C2
:100720000E94300290E0A7C1B601C7010E94CC052B
:10073000F601CF018C199D0921912111FACF9BC19E
:10074000D70116968D919C9117978459984FB101B6
:100750000E9432487F936F933BC0D70113968C91D0
:100760005DC0D70113968C911397282F082E000C8B
:10077000330B3F938F9315968C911597082E000C91
:10078000990B01969F938F9316968D919C91179735
:100790008459984F9F938F9389EE94E403C1D701B6
:1007A00018966D917C91199716968D919C9117973B
:1007B000AE01455E5F4F8459984F0E94250717365A
:1007C00051F48B8D9C8DB1010E9432489F938F9381
:1007D000E1EFF4E4A6C08C8D8F938B8D8F9346EF61
:1007E00054E45F934F93F9C0F70182816CE00E945B
:1007F0005F4D992321F0892F990F990BDEC08CE072
:1008000090E0DBC09F938F93E8C0F7018581082EAD
:10081000000C990B0196D1C0D7018C91282F082E7E
:10082000000C330B3F93CAC081E48983F7018281B6
:100830008C3014F080E589838DE48A831B8282E00A
:1008400090E019C1D70112968C916CE00E945F4D27
:10085000992321F0892F990F990B02C08CE090E029
:10086000F7012081422F022E000C550B5F932F932E
:100870002181422F022E000C550B5F932F939F93E3
:100880008F9320E035E43F932F93DF92CF920E9425
:100890006E4ACDBFDEBFF70122812C300CF4EBC0D5
:1008A00020E52B87E8C0D70111968C911197282F4E
:1008B000082E000C330B3F938F9312968C91282FA8
:1008C000082E000C330B3F938F9388E195E49F93A0
:1008D0008F93C5C0F7018081282F082E000C330BA1
:1008E0003F938F938181282F082E000C330B3F9369
:1008F0008F938281282F082E000C330B3F938F9308
:1009000083E195E44FC0D70114968C91082E000C1A
:10091000990B009711F487E090E09F938F93E2E2A8
:10092000F5E4FF93EF9359C060E015C0D701189626
:100930006D917C91199716968D919C911797AE01A8
:10094000455E5F4F8459984F0E9425078E8D8F9387
:100950008D8D34C061E0C7010E9491051F922EC0A9
:10096000D70116968D919C911797B1010E9432483C
:100970009F938F93F7018381282F082E000C330B50
:100980003F938F938581082E000C990B01969F93BE
:100990008F9326ED34E43F932F93DF92CF920E9402
:1009A0006E4A61C09F938F93F8CFD70116968D91B1
:1009B0009C911797B1010E9432489F938F93BF92E9
:1009C000AF920BC0F701868197818459984F9F930E
:1009D0008F9327EC34E43F932F93DF92CF920E94C2
:1009E0006E4A0F900F900F900F900F900F9043C092
:1009F00060914D4970914E4980914F499091504975
:100A00002CE330E040E050E00E94684889019A0100
:100A1000F801D7011A968D919C911B976CE370E0B9
:100A20000E943248161617061CF4FB01E00FF11F56
:100A3000CF016CE370E00E94324897FF03C09195AC
:100A4000819591099F938F93CF016CE370E00E9491
:100A500032487F936F93E4E3F5E4FF93EF93DF92E3
:100A6000CF920E946E4ACDBFDEBF05C08FE389835F
:100A70001A8281E090E09301280F391FA9A1BAA141
:100A80002A173B0798F4D201F601AF014C195D0912
:100A9000481759071CF441914D93F7CF97FF02C0B7
:100AA00080E090E0480E591E39013CCDF2011082E1
:100AB0000EC0D2018D932D01BFEF6B1A7B0A8823E4
:100AC00031F0EFEF8E1A9E0A2DCDD2011C92C30198
:100AD000A296CDBFDEBFDF91CF911F910F91FF9006
:100AE000EF90DF90CF90BF90AF909F908F907F90CE
:100AF0006F905F904F903F902F900895FC010FB63C
:100B0000F89460913D4970913E4980913F499091A0
:100B100040490FBE309721F06083718382839383B5
:100B20000895FC0120853185C90107964481841B05
:100B3000910947FD9395860F911DE7E0F0E0BF0115
:100B40000E943248A901481B590BCA0157FD06C033
:100B5000BF010E94324881E0860F089580E0089529
:100B60008F938FB78F93F89480913D498F5F8093D7
:100B70003D4980913E498F4F80933E4980913F4946
:100B80008F4F80933F49809140498F4F80934049D8
:100B90008F918FBF8F910895CF92DF92EF92FF9246
:100BA0000F931F93CF93DF938C01EB01FC018481A2
:100BB000B82FBB0FB80F8581782F770F780F9E0164
:100BC00040E08B2F840F90E0A0E083549D4FAF4F07
:100BD000FC015A2F0E946D4DF90161939F01872FEF
:100BE000840F90E0A0E08D529D4FAF4FFC015A2F33
:100BF0000E946D4DF90163834F5F433011F780E22E
:100C00008F838B83BE01685F7F4FF801838140E251
:100C1000082E000C990B0E949F07BE01655F7F4F55
:100C2000F80182814AE3082E000C990B0E949F076D
:100C3000BE01625F7F4FF80181814AE3082E000CFC
:100C4000990B0E949F07BE016F5E7F4FF801808164
:100C500040E2082E000C990B0E949F07F801868144
:100C6000978164E670E08459984F0E9432486B0186
:100C70007C01BE016C5E7F4F40E2C6010E949F076F
:100C8000BE016A5E7F4F40E0C701DF91CF911F91A7
:100C90000F91FF90EF90DF90CF900C949F07CF9231
:100CA000DF92EF92FF920F931F93CF93DF93CDB715
:100CB000DEB72897CDBFDEBF8B01FC01608171815B
:100CC0008281938120E831E541E050E00E9446486E
:100CD00069017A012CE330E040E050E00E9468486E
:100CE00029833A834B835C8389819A81AB81BC8160
:100CF000F80160836CE370E00E943248DC01CB01B4
:100D0000F801A1838283C601069667E070E00E9425
:100D10001E4884832DEA3EE840E050E0C701B6015A
:100D20000E94684829833A836D837E838F839887E6
:100D300089819A8124E6289F6001299FD00C112483
:100D40006D817E818F81988525EB35E040E050E014
:100D50000E94684829833A836D837E83E980FA8004
:100D6000EE0CFF1CEE0CFF1CEC0CFD1C8D819E811B
:100D7000F5E6EF16F10410F0019604C024E6E21641
:100D8000F10419F021E030E002C020E030E0A901D8
:100D900044595E4F4817590768F46DE671E0821BAD
:100DA000930B0E943248DC01CB01E80EF91ECD0105
:100DB00020E030E044E6E40EF11CF801E682F78220
:100DC00080879187255C3F4F8217930748F46FE136
:100DD00070E00E943248DC01CB01F801858322C01B
:100DE00069E970E0821B930B0E943248DC01CB0161
:100DF000F82EFF0CFF0CF80E6DE370E0CD010E94A1
:100E00003248DC01CB01E82EEE0C6FE170E0CD0141
:100E10000E943248DC01CB0122E0280FF20EFE0CCA
:100E2000F801F582A383F8011286138683818F5F10
:100E300083832896CDBFDEBFDF91CF911F910F91A5
:100E4000FF90EF90DF90CF900895CF92DF92EF92D6
:100E5000FF920F931F93CF93DF938C017B01EA01E5
:100E6000888399830E94AC01282FA801405D5740D8
:100E70006DE671E0469FC001479F900D569F900D13
:100E800011248E0D9F1D4115510579F0BA017695FB
:100E90006795769567956F5F7F4F860F971F821BCB
:100EA00091094536510508F00197069667E070E014
:100EB0000E941E486C01892B19F487E0C82ED12CA2
:100EC000CC82DD82C7010B968C199D0967E070E02A
:100ED0000E94324865337105B1F481E0C81AD10827
:100EE000EC18FD08822F90E084599E4F23E0E20E1B
:100EF000F11C8E159F053CF48881998101968883A9
:100F0000998361E070E06A837B83672B79F40150F9
:100F10001109C8010E94AC01682F70E064597E4F2E
:100F2000AE01C8010E942507CC82DD82DF91CF91FE
:100F30001F910F91FF90EF90DF90CF9008951F9336
:100F4000CF93DF93EB01142F6AE070E00E943248E8
:100F5000605D6883805D89831A83DF91CF911F91E3
:100F600008950E942E2A08951F920F920FB60F9295
:100F700011248F938091260B80FF03C081E0809322
:100F8000260B8F910F900FBE0F901F9018951F93F7
:100F9000CF93DF93182F8091934590919445892B9F
:100FA00031F40E94A1398093934590939445C09168
:100FB0009345D0919445209709F473C1812F90E017
:100FC0000E941F4AAC01282F90919245992321F04D
:100FD00091509093924565C14B3121F482E080930A
:100FE00092455FC14D3009F03FC080915E45882336
:100FF00031F1E0919145EE23F9F082E08883809110
:101000005C4590915D4589839A8380915B458823F7
:1010100079F090E0019740915A4554E1589F900132
:10102000599F300D1124C20FD31FC40FD11D1B8235
:10103000F0E0E15AFA4B10820E94A33A04C08FEF0D
:101040009FEF89839A831092914510925A4510928E
:101050005C4510925D4510925B451092934510924D
:10106000944510925E451DC1442309F41AC1E091D4
:1010700091458E2F90E0DC01A15ABA4B4C93EE23A0
:1010800009F4D7C04F3709F05FC0E150E0939145B4
:1010900080915B45811113C0F0E0E15AFA4B308139
:1010A00080915C4590915D45831B91096AE070E0F9
:1010B0000E94324860935C4570935D4539C09091C1
:1010C0005A45992391F03FEF390F30935A4590E0FC
:1010D000019764E1689FA001699F500D1124C40F1E
:1010E000D51FC30FD11D1B8223C0F0E0E15AFA4B7C
:1010F00090819032A1F4815080935B4534E1839FCD
:10110000C00111240396C80FD91FFE0101900020D1
:10111000E9F73197EC1BFD0BE0935A4509C094E1C8
:10112000899FC00DD11D11241B82815080935B4586
:1011300080919145E82FF0E0E15AFA4B108281113D
:10114000ABC010925E45A8C0403281F5FC01E25A66
:10115000FA4B3081303209F498C030915B45432F0F
:1011600050E0BA016F5F7F4F633071050CF08FC0A4
:10117000332379F041505109E0915A45F4E1F49F4D
:10118000B001F59F700D1124C60FD71FCE0FD11DD2
:101190001B823F5F30935B4510925A450196813325
:1011A00091050CF081E38093914576C080915A457A
:1011B000853108F06EC060915B45611119C0609186
:1011C0005C4570915D45FB01EE0FFF1F660F771FB9
:1011D000660F771F660F771F6E0F7F1F640F711DDD
:1011E00060935C4570935D458F5F80935A4516C050
:1011F00070E06150710991E0980F90935A4534E185
:10120000369FF001379FF00D1124CE0FDF1FFE0136
:10121000E80FF11D4383C90FD11D1B8280919145B9
:1012200090E00196813391050CF081E38093914524
:1012300033C04F3769F480915C4590915D45181635
:1012400019060CF020E010925C4510925D4524C018
:10125000403209F110925B45552740935C4550930D
:101260005D4580E0833050F4DE0134E1839FA00DC2
:10127000B11D112413961C928F5FF4CF81E08093EF
:101280005E45EF5FE093914507C020E005C020E098
:1012900003C020E001C020E0222319F0822F0E9429
:1012A000AC3ADF91CF911F9108951F920F920FB624
:1012B0000F9211240BB60F922F933F934F935F938E
:1012C0006F937F938F939F93AF93BF93EF93FF930E
:1012D0008091224081112BC08091584590915945B1
:1012E000892B31F40E94F9348093584590935945E5
:1012F000E0915845F091594580915745DF01A80F7D
:10130000B11D9C91992331F08F5F80935745909345
:1013100002080DC01092574510820E94F934809344
:10132000584590935945892B11F40E94AE35809110
:10133000274081112BC08091554590915645892BAE
:1013400031F40E9449398093554590935645E09178
:101350005545F091564580915445DF01A80FB11DC8
:101360009C91992331F08F5F8093544590930208AC
:101370000DC01092544510820E9449398093554502
:1013800090935645892B11F40E94153AFF91EF91E5
:10139000BF91AF919F918F917F916F915F914F918D
:1013A0003F912F910F900BBE0F900FBE0F901F908B
:1013B00018951F920F920FB60F9211240BB60F9231
:1013C0002F933F934F935F936F937F938F939F934D
:1013D000AF93BF93EF93FF9380912240843059F5F0
:1013E0008091524590915345892B31F40E94F934F4
:1013F0008093524590935345E0915245F091534567
:1014000080915145DF01A80FB11D9C91992331F0C6
:101410008F5F80935145909382080DC01092514583
:1014200010820E94F9348093524590935345892B42
:1014300011F40E94AE3580912740843059F5809197
:101440004F4590915045892B31F40E944939809342
:101450004F4590935045E0914F45F0915045809114
:101460004E45DF01A80FB11D9C91992331F08F5F8C
:1014700080934E45909382080DC010924E45108285
:101480000E94493980934F4590935045892B11F420
:101490000E94153AFF91EF91BF91AF919F918F916B
:1014A0007F916F915F914F913F912F910F900BBE64
:1014B0000F900FBE0F901F9018950F931F93CF930F
:1014C000DF93182F80914C4590914D45892B31F435
:1014D0000E94513580934C4590934D45C0914C45A9
:1014E000D0914D45209709F4E3C0812F90E00E94F0
:1014F0001F4A843211F0813249F510924B458132F6
:1015000011F483E001C081E0888310924A45109273
:10151000464510924745109248451092494581E052
:10152000809345451092444580914445833058F45A
:10153000FE0105E1809FE00DF11D112413828F5FF4
:1015400080934445F1CF10924445A7C09091454502
:10155000992309F48BC08C3229F08B3319F08F3327
:1015600009F042C090914445992389F0292F30E039
:101570002150310940914A4555E1529FF001539F56
:10158000F00D1124EC0FFD1FE40FF11D13829F5F7E
:101590009093444510924A458B3369F480914B45B2
:1015A000843030F0809146459091474589839A83F5
:1015B0001092454510C08F3371F482E0888380918A
:1015C0004B45833030F08091464590914745898363
:1015D0009A83109245458091454581115EC01092D5
:1015E0004C4510924D4559C020914445211129C0C8
:1015F0004091464550914745609148457091494515
:10160000440F551F661F771F8A019B01000F111F92
:10161000221F331F000F111F221F331F400F511FA6
:10162000621F731F8A019B01080F111D211D311DAF
:1016300000934645109347452093484530934945CC
:101640002CC030E02150310990914A4541E0490FCA
:1016500040934A4565E1629FA001639F500D1124AC
:10166000C40FD51FC90FD11D8B8317C08D30A9F4AE
:1016700019821A8282E380934B4510924A45109258
:1016800046451092474510924845109249451092A0
:10169000444510924C4510924D4580914B458F5FCB
:1016A00080934B45823320F01092454510924B4574
:1016B000DF91CF911F910F9108951F920F920FB656
:1016C0000F9211240BB60F922F933F934F935F937A
:1016D0006F937F938F939F93AF93BF93CF93EF932A
:1016E000FF930E944745C82F80912240811103C07B
:1016F0008C2F0E945D0A80912740811103C08C2F9E
:101700000E94C707FF91EF91CF91BF91AF919F9139
:101710008F917F916F915F914F913F912F910F909A
:101720000BBE0F900FBE0F901F9018951F920F9237
:101730000FB60F9211240BB60F922F933F934F9336
:101740005F936F937F938F939F93AF93BF93CF9349
:10175000EF93FF930E94AF45C82F809122408430C1
:1017600019F48C2F0E945D0A80912740843019F46F
:101770008C2F0E94C707FF91EF91CF91BF91AF913E
:101780009F918F917F916F915F914F913F912F9199
:101790000F900BBE0F900FBE0F901F9018951F92C9
:1017A0000F920FB60F9211240BB60F922F933F9307
:1017B0004F935F936F937F938F939F93AF93BF9359
:1017C000CF93EF93FF930E947B45C82F80912240D7
:1017D000813019F48C2F0E945D0A8091274081305E
:1017E00019F48C2F0E94C707FF91EF91CF91BF9101
:1017F000AF919F918F917F916F915F914F913F91A9
:101800002F910F900BBE0F900FBE0F901F90189549
:101810001F920F920FB60F9211240BB60F922F93B7
:101820003F934F935F936F937F938F939F93AF9368
:10183000BF93EF93FF9380912740813059F58091BA
:10184000424590914345892B31F40E944939809358
:10185000424590934345E0914245F0914345809144
:101860004145DF01A80FB11D9C91992331F08F5F95
:1018700080934145909322080DC0109241451082FB
:101880000E9449398093424590934345892B11F436
:101890000E94153A80912240813059F580913F4550
:1018A00090914045892B31F40E94F93480933F4553
:1018B00090934045E0913F45F091404580913E45F1
:1018C000DF01A80FB11D9C91992331F08F5F8093A8
:1018D0003E45909322080DC010923E4510820E9412
:1018E000F93480933F4590934045892B11F40E9431
:1018F000AE35FF91EF91BF91AF919F918F917F9105
:101900006F915F914F913F912F910F900BBE0F9070
:101910000FBE0F901F9018951F920F920FB60F9247
:1019200011240BB60F922F933F934F935F936F93B6
:101930007F938F939F93AF93BF93EF93FF93CF9337
:10194000DF93CDB7DEB72597CDBFDEBF8091360BD5
:1019500080FFAAC380913746909138469C012F5F43
:101960003F4F20933746309338468B32914009F0F1
:1019700098C3109237461092384680910C468111D8
:1019800003C08AB180648AB90E94D42181110AC03F
:101990009091CB45913019F191E09093CB45909384
:1019A00006401DC09091CB459130C9F490913946C5
:1019B000891312C090911D40992389F09150909302
:1019C0001D4091110CC01092CB4591E090930640C0
:1019D00093E090931D4003C093E090931D4080934B
:1019E00039460E94B005809111468823E1F180912B
:1019F000124690911346A0911446B0911546892B3A
:101A00008A2B8B2B99F08091124690911346A091CE
:101A10001446B09115460197A109B1098093124669
:101A200090931346A0931446B093154680911246A6
:101A300090911346A0911446B0911546892B8A2B9C
:101A40008B2B31F080910640882321F081E003C088
:101A500081E001C080E0882309F423C3109210467E
:101A6000109211461EC319821A821B821C82809119
:101A7000134090911440892B49F08091134090912C
:101A800014400197809313409093144080910D4629
:101A9000882309F454C08091084690910946A0918A
:101AA0000A46B0910B46892B8A2B8B2B51F08091E3
:101AB0000E46811108C08091D445882331F080E022
:101AC00005C080E003C080E001C081E08823B9F157
:101AD000CE0101960E947E0549815A816B817C81ED
:101AE0008091084690910946A0910A46B0910B4614
:101AF000481759076A077B0710F18CEF8093C84598
:101B00001092CC451092CD451092CE451092CF4503
:101B100080E00E94794310920C4610920D4681E0BD
:101B200080930E468AE590E0809313409093144092
:101B300080910A40882319F08CE3809309408091BA
:101B40000C46882309F436C280910D46882309F497
:101B5000A6C18091D0459091D145892B49F08091C3
:101B6000D0459091D14501978093D0459093D14530
:101B70008091CC459091CD45A091CE45B091CF4577
:101B8000892B8A2B8B2B09F415C28091CC4590911F
:101B9000CD45A091CE45B091CF45181619061A062D
:101BA0001B060CF02AC18091CC459091CD45A091A7
:101BB000CE45B091CF450197A109B1098093CC459D
:101BC0009093CD45A093CE45B093CF458091D0451D
:101BD0009091D145892B41F4809100469091014626
:101BE000892B21F480E003C080E001C081E08823DC
:101BF00081F18091004690910146A0E0B0E04091D3
:101C0000CC455091CD456091CE457091CF4584171C
:101C10009507A607B707E9F48FEE8093C845809132
:101C20001140909112408093D0459093D14580917E
:101C30000B400E94C91F80930740909308401D826B
:101C400040E050E0BE016B5F7F4F8BEE95E40E9459
:101C5000FA378091CC459091CD45A091CE45B09179
:101C6000CF45892B8A2B8B2B09F0A4C180910F4083
:101C700090911040892B09F4A7C080E00E9479431D
:101C800040910F40509110408091CC459091CD45AE
:101C9000A091CE45B091CF45052E000C660B770B79
:101CA000841B950BA60BB70B8093CC459093CD4529
:101CB000A093CE45B093CF4581E08D8340E050E0C6
:101CC000BE016B5F7F4F86ED95E40E94FA378EEF81
:101CD0008093C845CE0101960E947E0529813A81F4
:101CE0004B815C818091084690910946A0910A46FB
:101CF000B0910B46281739074A075B0758F46091E3
:101D000008467091094680910A4690910B460E94C0
:101D1000B24503C060E070E0CB0120910F403091EC
:101D2000104040910D4050910E40240F351F215F0F
:101D30003F4F032E000C440B550B2617370748075F
:101D400059070CF037C180910F4090911040409797
:101D500034F080910940882321F080E003C080E0C6
:101D600001C081E0882309F425C180910F40909142
:101D700010400A97092E000CAA0BBB0B809317404A
:101D800090931840A0931940B0931A4082E080933A
:101D9000D54581E0809310468091D0459091D14502
:101DA00040911740509118406091194070911A402D
:101DB000841B950B1816190614F080E090E08093B0
:101DC000D0459093D145F6C080910D4090910E4042
:101DD000092E000CAA0BBB0B8093CC459093CD45EC
:101DE000A093CE45B093CF4580910C400E94C91F6F
:101DF0008093074090930840DDC08091CC4590913E
:101E0000CD45A091CE45B091CF45BB230CF0D2C0BB
:101E10008091CC459091CD45A091CE45B091CF45D4
:101E20000196A11DB11D8093CC459093CD45A09303
:101E3000CE45B093CF458091CC459091CD45A091B2
:101E4000CE45B091CF45892B8A2B8B2B09F0B2C0A0
:101E50008DEF8093C84580910D4090910E40092EE2
:101E6000000CAA0BBB0B8093CC459093CD45A0935F
:101E7000CE45B093CF4580910C400E94C91F8093FE
:101E800007409093084081E08D8340E050E0BE0120
:101E90006B5F7F4F86ED95E40E94FA378BC080918F
:101EA000044690910546A0910646B0910746892BBD
:101EB0008A2B8B2B09F47EC0CE0101960E947E05F1
:101EC00049815A816B817C818091044690910546BD
:101ED000A0910646B0910746481759076A077B0745
:101EE00008F468C08091024690910346892B59F10D
:101EF0008EEF8093C845809102469091034691955C
:101F000081959109092E000CAA0BBB0B8093CC453F
:101F10009093CD45A093CE45B093CF4520910246F6
:101F20003091034680910D4090910E40820F931F97
:101F30002091004630910146821B930B8093D0453F
:101F40009093D14534C08DEF8093C84580910D406A
:101F500090910E40092E000CAA0BBB0B8093CC4530
:101F60009093CD45A093CE45B093CF4580910D4041
:101F700090910E402091004630910146821B930BB8
:101F80008093D0459093D14580910C400E94C91F09
:101F9000809307409093084081E08D8340E050E0BB
:101FA000BE016B5F7F4F86ED95E40E94FA3781E0BA
:101FB00080930D468091D3458823E1F08091D345ED
:101FC00081508093D3458091D345853039F481E0A9
:101FD0000E94972880E00E94A12863C08091D34589
:101FE00081115FC046E060E875E280E090E00E9409
:101FF000F43557C08091134090911440892B71F0B3
:102000008091D44581110CC080910E4681110AC087
:1020100080910F46882341F080E007C081E005C031
:1020200081E003C080E001C081E0882399F18091C4
:102030000940882379F180910940815080930940BB
:1020400080910940811126C081E00E94A12880E092
:102050000E9497281092D44580910C46811112C09D
:1020600084E08093D54581E0809310468FEF9FEF09
:10207000DC018093174090931840A0931940B093CF
:102080001A4006C08091D545833011F40E941F1F6D
:1020900010920A4080910A40882319F081E08093D1
:1020A000D24581E08093360B2596CDBFDEBFDF9110
:1020B000CF91FF91EF91BF91AF919F918F917F91C0
:1020C0006F915F914F913F912F910F900BBE0F90A9
:1020D0000FBE0F901F9018951F920F920FB60F9280
:1020E00011240BB60F922F933F934F935F936F93EF
:1020F0007F938F939F93AF93BF93EF93FF93CF9370
:10210000DF9300D0CDB7DEB78091060B80FFD1C042
:102110008091204090912140892B49F0809120406E
:10212000909121400197809320409093214080918D
:102130001E4090911F40892B49F080911E40909144
:102140001F40019780931E4090931F408091C94586
:102150009091CA45892B49F08091C9459091CA4513
:1021600001978093C9459093CA4580910C46882376
:1021700029F080910D46811103C003C080E001C0A9
:1021800081E0882309F492C08091CC459091CD459F
:10219000A091CE45B091CF45181619061A061B0618
:1021A0000CF066C080913A4690913B46009709F446
:1021B00047C0019780933A4690933B46892B09F09C
:1021C00075C0AE014F5F5F4FBE016E5F7F4F80E015
:1021D00090E00E94FA3780933C468A81811125C0A5
:1021E0008981882311F18DEF8093C84580910C403F
:1021F0000E94C91F809307409093084081E08A8322
:1022000040E050E0BE016E5F7F4F86ED95E40E9496
:10221000FA37AE014F5F5F4FBE016E5F7F4F80E0C8
:1022200090E00E94FA3780933C4680913C46882398
:10223000E9F181E00E94704389B18F7B89B936C092
:1022400080913C460E94794380913C46811104C0B4
:1022500089B1806489B903C089B18F7B89B98091C4
:1022600007409091084080933A4690933B461EC0A9
:102270008091CC459091CD45A091CE45B091CF4570
:10228000892B8A2B8B2B91F480913C46882371F00B
:1022900010923C4680E00E94794389B1806489B9FC
:1022A00080E00E9470438EEF8093C84581E0809368
:1022B000060B0F900F90DF91CF91FF91EF91BF919F
:1022C000AF919F918F917F916F915F914F913F91CE
:1022D0002F910F900BBE0F900FBE0F901F9018956F
:1022E0000E94B10789B1806489B980E296E40E94B6
:1022F0008B3180E296E40E949F300E94A33A87E4EB
:1023000090E40E94B83A84E690E49F938F9388E625
:1023100090E49F938F9385E995E49F938F930E9418
:102320006E4A85E995E40E94B83A85E790E40E94F8
:10233000B83A81E00E9417280E942B448093C74539
:102340008091C7450F900F900F900F900F900F90B6
:10235000882331F00E94A33A88EB91E40E94B83AB6
:102360000E94162E882331F00E94A33A83EE91E456
:102370000E94B83A0E94AB28811106C00E94A33A7D
:102380008BE092E40E94B83A0E94A33A0E94983AE5
:102390006AEF70E080E090E00E9477428823C1F30A
:1023A0000E9471180E94D511F3CFCF92DF92EF9265
:1023B000FF920F931F93CF93DF93CDB7DEB7CD5628
:1023C000D109CDBFDEBF0E94CE398A879B8721E02D
:1023D0008A859B85892B09F420E0222309F473C6A2
:1023E0008A859B85FC01818192818C879D878C8564
:1023F0009D858A3EF2E29F0709F451C38B3E22E29B
:102400009207B8F48F36EDE19E0709F49AC380373E
:10241000FDE19F0728F48E31934009F42EC241C696
:10242000863CEEE19E07E9F0813D9E4109F47BC1C7
:1024300038C6823723E2920709F4ADC28337E3E25C
:102440009E0728F4883F924209F40AC12AC68433C1
:1024500024E2920709F4D5C1853C944209F40DC6E3
:1024600020C68A859B85FC018381882F90E0898323
:102470009A8389819A81892B09F4D0C089819A81B4
:102480008234910519F419821A82ACC089819A812B
:102490008634910529F486E090E089839A83A2C06E
:1024A00089819A8183349105B9F58A859B85FC01E0
:1024B00087898B838A859B85FC01108E8B81823472
:1024C00011F480E38B838B81882F90E0C0970A976B
:1024D00008F088C08A859B8547960E94DA498E87D6
:1024E0009F87188A85E0898B8989282F30E08E851F
:1024F0009F852817390724F48989882F90E009C01F
:102500008889882F90E02E853F85821793070CF4E9
:10251000C90189839A8366C089819A81833591052F
:1025200009F059C01C828A859B85FC0187898A8BAA
:102530008A859B85FC01808D8B8B8A859B85FC0120
:10254000118E8A89823411F41C8236C08A898634BD
:1025500051F48B89813380F18B89863368F58B89BF
:1025600084528C8329C08A89833569F48B898133AD
:1025700038F08B89863320F48B8989528C831CC078
:1025800087E08C8319C08B89863451F48A89813322
:1025900098F08A89863380F48A8984528C830CC0AF
:1025A0008B89833549F48A89813330F08A8986336F
:1025B00018F48A8989528C838C81873048F08C8109
:1025C000823130F48C81882F90E089839A830AC00D
:1025D00019821A8207C08A859B8503960E94DA4970
:1025E00089839A8389819A819923C4F089819A8108
:1025F0004297A4F489818EABCE01C696AC0169E204
:1026000080E296E40E943A2F9EA980911B40981781
:1026100029F0CE01C69660E00E94C52280911B4041
:10262000882F90E0292F2F938F9380E392E4892FB6
:102630008F9380E392E48F9385E995E4892F8F93BC
:1026400085E995E48F930E946E4A0F900F900F904A
:102650000F900F900F9085E995E40E94B83A2BC532
:102660008A859B85FC0183818823E9F18A859B8586
:1026700003960E94DA4980933D4690933E468091AE
:102680003D4690913E468938934168F460E070E0A1
:102690008DE396E40E949B438C8B8C89882319F0F0
:1026A0008C898093C7450E949643292F2F938F933F
:1026B00088E392E4892F8F9388E392E48F9385E9EE
:1026C00095E4892F8F9385E995E48F930E946E4A54
:1026D0000F900F900F900F900F900F9085E995E459
:1026E0000E94B83AE8C40E949643292F2F938F93F3
:1026F00088E392E4892F8F9388E392E48F9385E9AE
:1027000095E4892F8F9385E995E48F930E946E4A13
:102710000F900F900F900F900F900F9085E995E418
:102720000E94B83AC8C41D821E821F8218868A85FC
:102730009B85FC018381882389F18A859B8503968B
:102740000E94F849DC01CB018D8B9E8BAF8BB88F3B
:102750008D899E89AF89B88D8FAB98AFA9AFBAAF7D
:10276000CE01C79661E00E943543982F81E09923FE
:1027700009F080E0882369F08FA998ADA9ADBAADC2
:102780008D839E83AF83B88780E296E40E94C32F37
:102790000DC088EB91E40E94B83A08C00E946743DC
:1027A000DC01CB018D839E83AF83B8878D819E81B1
:1027B000AF81B885892B8A2B8B2B09F477C4888548
:1027C0008F938F818F938E818F938D818F9383E4ED
:1027D00092E4892F8F9383E492E48F9385E995E4C3
:1027E000892F8F9385E995E48F930E946E4A8DB768
:1027F0009EB70896CDBFDEBF85E995E40E94B83A42
:1028000055C48A859B85FC018381882389F18A854B
:102810009B85FC018381803321F482E00E94272282
:102820004AC48A859B85FC018381813321F482E03F
:102830000E94D62140C48A859B85FC018381823316
:1028400031F481E080931C400E944D2234C48A857B
:102850009B85FC018381833331F462E080E090E06A
:102860000E94C52228C48FE492E40E94B83A23C48F
:102870008FE492E40E94B83A1EC48A859B85FC01CD
:102880008381882309F441C080E290E080939545DC
:10289000909396458A859B850396BC0185E995E4CE
:1028A0000E94274A8A859B85FC0187898823D1F06D
:1028B00085E995E49C01F90101900020E9F7CF0139
:1028C0000197821B930B8B569A4B20E230E0FC0160
:1028D000208331838A859B854796BC0185E995E4F1
:1028E0000E94274A85E995E40E94394A459768F491
:1028F00065E975E48BEE95E40E94324A45E955E4BA
:102900006AE080E296E40E943A2F8091EB458823AA
:1029100001F180910B40882F90E0BC018BEE95E493
:102920000E94F338885A9D4F96958795969587957E
:10293000969587959C01A5ECB0E20E9490489295EF
:1029400082958F7089279F70892780930046909386
:1029500001468BEE95E4892F8F938BEE95E48F9350
:1029600084E592E4892F8F9384E592E48F9385E93F
:1029700095E4892F8F9385E995E48F930E946E4AA1
:102980000F900F900F900F900F900F9085E995E4A6
:102990000E94B83A90C38A859B85FC018381833568
:1029A00009F06FC08A859B85FC018789898F898D95
:1029B000882309F448C08A859B8547960E94F84978
:1029C000DC01CB018A8F8A8D8B8F85E08C8F84E12F
:1029D0008D8F9B8D8D8D891740F09B8D8C8D9817D9
:1029E00010F48C8D03C08B8D01C08D8D80930B40B6
:1029F0004BE050E468E280E296E40E943A2F809136
:102A0000EB45882301F180910B40882F90E0BC01B9
:102A10008BEE95E40E94F338885A9D4F96958795E2
:102A200096958795969587959C01A5ECB0E20E94B6
:102A30009048929582958F7089279F7089278093FF
:102A400000469093014680910B40882F90E0292FFB
:102A50002F938F938BE592E4892F8F938BE592E4EC
:102A60008F9385E995E4892F8F9385E995E48F937A
:102A70000E946E4A0F900F900F900F900F900F9042
:102A800009C085E0EFE4F2E4A5E9B5E401900D9218
:102A90008A95E1F785E995E40E94B83A0CC38A85E6
:102AA0009B85FC018381882351F18A859B85039650
:102AB00048E050E0BC0185E995E40E94424A10924A
:102AC0009D4585E995E40E94C145882341F085E94B
:102AD00095E40E94394A049710F081E001C080E03B
:102AE000882369F065E975E48AE296E40E94324A37
:102AF0004AE256E46FE180E296E40E943A2F8AE2CD
:102B000096E4892F8F938AE296E48F938DE692E480
:102B1000892F8F938DE692E48F9385E995E4892F31
:102B20008F9385E995E48F930E946E4A0F900F90E2
:102B30000F900F900F900F9085E995E40E94B83A9E
:102B4000BAC219868A859B85FC018381843509F088
:102B5000DEC08A859B85FC018789882309F485C0AE
:102B60008A859B8547964CE050E0BC0185E995E459
:102B70000E94424A1092A145809129468195482F92
:102B800062E376E485E995E40E948724DC01CB01C9
:102B90008E8F9F8FA8A3B9A38E8D9F8DA8A1B9A159
:102BA000892B8A2B8B2B09F4AFC060E085E995E473
:102BB0000E94182D982F81E0992309F480E08AA3C0
:102BC0008AA1882329F083EE91E40E94B83A9CC040
:102BD00080E090E00E94FF2ADC01CB018093324626
:102BE00090933346A0933446B0933546C090324616
:102BF000D0903346E0903446F0903546809132468E
:102C000090913346A0913446B0913546AE01445C74
:102C10005F4F22E330E0BC01CD010E94C72E2F2D73
:102C20002F932E2D2F932D2D2F932C2D2F93292F36
:102C30002F938F9385E792E4892F8F9385E792E412
:102C40008F9385E995E4892F8F9385E995E48F9398
:102C50000E946E4A8DB79EB70A96CDBFDEBF60E078
:102C600080E090E00E94C5224FC0CE01CB960E942A
:102C7000FF2ADC01CB018093324690933346A09328
:102C80003446B09335468BAD8823D1F5C09032469B
:102C9000D0903346E0903446F090354680913246ED
:102CA00090913346A0913446B0913546AE01445CD4
:102CB0005F4F22E330E0BC01CD010E94C72E2F2DD3
:102CC0002F932E2D2F932D2D2F932C2D2F93292F96
:102CD0002F938F9385E792E4892F8F9385E792E472
:102CE0008F9385E995E4892F8F9385E995E48F93F8
:102CF0000E946E4AEDB7FEB73A96CDBFDEBF04C064
:102D000083EE91E40E94B83A81E08987AEC18A855A
:102D10009B85FC018381833509F0B6C08A859B853C
:102D20004796BC0185E995E40E94324A8091294684
:102D30008195482F61E276E485E995E40E94872435
:102D4000DC01CB018BA39CA3ADA3BEA38BA19CA153
:102D5000ADA1BEA1892B8A2B8B2B09F459C08BA165
:102D60009CA1ADA1BEA18093214690932246A09341
:102D70002346B093244641E256E462E080E296E4C2
:102D80000E943A2F8091254690912646A091274691
:102D9000B09128468FA398A7A9A7BAA780912146EA
:102DA00090912246A0912346B091244680589E4A95
:102DB000AE4FBF4F8BA79CA7ADA7BEA72FA138A52D
:102DC00049A55AA58BA59CA5ADA5BEA52817390771
:102DD0004A075B0728F48BA59CA5ADA5BEA504C03A
:102DE0008FA198A5A9A5BAA58093254690932646BC
:102DF000A0932746B093284645E256E466E080E279
:102E000096E40E943A2F63E080E090E00E94C522A1
:102E1000C0902146D0902246E0902346F090244670
:102E20008091214690912246A0912346B09124465C
:102E3000AE01445C5F4F22E330E0BC01CD010E9453
:102E4000C72E2F2D2F932E2D2F932D2D2F932C2DDD
:102E50002F93292F2F938F9385E892E4892F8F93B7
:102E600085E892E48F9385E995E4892F8F9385E92E
:102E700095E48F930E946E4A8DB79EB70A96CDBF98
:102E8000DEBF81E08987F1C08A859B85FC01838153
:102E9000863409F074C08A859B854796BC0185E914
:102EA00095E40E94324A809129468195482F65E237
:102EB00076E485E995E40E948724DC01CB018FA7A5
:102EC00098ABA9ABBAAB8FA598A9A9A9BAA9892B28
:102ED0008A2B8B2BC1F08FA598A9A9A9BAA9809399
:102EE000254690932646A0932746B093284645E270
:102EF00056E466E080E296E40E943A2F63E080E0C8
:102F000090E00E94C522C0902546D0902646E090D1
:102F10002746F09028468091254690912646A0911C
:102F20002746B0912846AE01445C5F4F22E330E073
:102F3000BC01CD010E94C72E2F2D2F932E2D2F9334
:102F40002D2D2F932C2D2F93292F2F938F9386E99F
:102F500092E4892F8F9386E992E48F9385E995E433
:102F6000892F8F9385E995E48F930E946E4A8DB7E0
:102F70009EB70A96CDBFDEBF81E0898776C08A857D
:102F80009B85FC0183818A3219F40E941D2E6DC03D
:102F90000E94A7268BAB8BA9813031F08BA985309D
:102FA00019F00E94042761C02091214630912246E9
:102FB0004091234650912446809132469091334669
:102FC000A0913446B09135460F2EF8EAEF2EF2E488
:102FD000FF2EF02D05EB12E4BC01CD010E946F2500
:102FE000209125463091264640912746509128460B
:102FF0008091214690912246A0912346B09124468B
:10300000E12CF12C01EC12E4BC01CD010E946F25F2
:1030100020912146309122464091234650912446EA
:103020008091324690913346A0913446B091354616
:10303000281739074A075B07C0F4209125463091CD
:1030400026464091274650912846809132469091DD
:103050003346A0913446B0913546E12CF12C09EC71
:1030600012E4BC01CD010E946F258985882301F1FE
:1030700085E995E40E94B83A1BC08A859B85FC01CE
:1030800083818334B9F48A859B85FC0187898823F1
:1030900089F08A859B8547960E94DA498CAB9DAB67
:1030A00009C085E790E40E94B83A05C0000003C05B
:1030B000000001C000008A859B85FC0111821282FC
:1030C0000E94983A80C90000C359DF4FCDBFDEBFD0
:1030D000DF91CF911F910F91FF90EF90DF90CF90F4
:1030E0000895EF92FF920F931F93CF93DF93CDB785
:1030F000DEB7E397CDBFDEBF81E089830E947E35D6
:103100008C879D8721E08C859D85892B09F420E0A3
:10311000222309F489C68C859D85FC0181819281D9
:103120008E879F878E859F858238FEE19F0709F4F1
:103130006CC083382EE1920730F5813633E0930777
:1031400009F4D8C48236E3E09E0778F48531F3E0D1
:103150009F0709F41DC18E3123E0920709F43FC394
:103160008435910509F43BC434C68F3A33E09307A4
:10317000C9F1863AECE19E0709F449C584389340C9
:1031800009F4C7C126C68A3923E29207E9F18B39CF
:1031900033E2930778F48D3AE2E29E0709F496C091
:1031A000813CF2E29F0709F4EEC0813D9E4109F4A3
:1031B000B8C40FC6803D33E2930709F473C3813D61
:1031C000E3E29E0728F48F3C934209F4E8C501C668
:1031D000873F23E2920709F411C28C39944209F423
:1031E000F0C5F7C58C859D85FC018381882309F492
:1031F000F6C58C859D8503960E94DA49888B0E94CE
:103200002C3610920940EBC5FFCF8C859D85FC01C3
:103210008381898B81E080930A4089898A3521F4F2
:1032200088E780930940DDC589898033D1F5909185
:103230000F4681E0992309F480E0882339F04AEDB4
:1032400052E46CED72E483E00E948F3680E090E0FF
:103250000E947E05DC01CB012B2F2F932A2F2F9369
:10326000292F2F938F9380EE92E4892F8F9380EEF6
:1032700092E48F9385E995E4892F8F9385E995E40E
:103280008F930E946E4A2DB73EB7285F3F4FCDBF48
:10329000DEBF45E955E464EE72E483E00E948F36B8
:1032A000A0C58989833309F09CC5F8941092D34551
:1032B00081E08093094010920F4610920E461092C2
:1032C0000A4081E08093D44578948BC58C859D8598
:1032D000FC018381882309F486C58C859D85FC01CA
:1032E00083818D34A9F48C859D85FC01808D882394
:1032F00079F08C859D8548960E94DA4980933F46F7
:1033000090934046809141468F5F8093414609C02B
:103310008C859D8503960E94DA4980933F46909361
:10332000404660E070E08FE396E40E949B438A8B06
:103330008A89882319F08A898093C74580913F46FE
:1033400090914046292F2F938F9388EE92E4892FF6
:103350008F9388EE92E48F9385E995E4892F8F937C
:1033600085E995E48F930E946E4A0F900F900F901D
:103370000F900F900F9045E955E46DEE72E483E0F5
:103380000E948F3630C580E296E40E94C32F3EC56E
:103390008C859D85FC0183818B8B8B89813321F00A
:1033A0008B89823309F0A9C00E943245882331F409
:1033B00080913640882311F481E001C080E08823A9
:1033C00021F087EF8093C745A2C08B89813309F034
:1033D00064C00E943245882321F4809136408823BE
:1033E00011F081E001C080E0882309F452C0F89414
:1033F00081E08CA7CE018C9640E050E0BC0186EDC8
:1034000095E40E94FA3780910C400E94C91F809376
:10341000074090930840789481E090E0A0E0B0E00D
:103420008093044690930546A0930646B0930746C2
:103430008FEF9FEFDC018093084690930946A0939D
:103440000A46B0930B468FE097E280930D4090932D
:103450000E4010920F40109210408FE097E2A0E0D3
:10346000B0E08093CC459093CD45A093CE45B093EA
:10347000CF458FEF9FEF8093D0459093D14581E06A
:1034800080930D4681E080930C468DEF8093C84574
:103490003EC087EF8093C7453AC08B898233B9F528
:1034A000809141468E3020F48DEC8093C7452FC02B
:1034B0001DA6CE018D960E94E71F80934246809103
:1034C0001046882331F08091D545882311F081E0A2
:1034D00001C080E0882329F083E08093D5451092D5
:1034E00010468CE38093094080914246882379F40A
:1034F00080E296E40E94C32F0AC08B89803309F0D2
:1035000074C4109241468CEE8093C8456EC400008E
:103510006CC41A821B821C821D828C859D85FC01D5
:1035200083818335C1F58C859D85FC01808D882341
:1035300059F08C859D8548960E94F849DC01CB01A5
:103540008A839B83AC83BD838A819B81AC81BD814F
:10355000892B8A2B8B2B09F44AC48A819B81AC81ED
:10356000BD818093044690930546A0930646B09390
:103570000746F89480E090E00E94FF2ADC01CB012E
:10358000BC01CD010E9424027894809141468F5F56
:10359000809341462CC48C859D85FC0183818634B3
:1035A00009F025C48C859D85FC01808D882359F008
:1035B0008C859D8548960E94F849DC01CB018A8361
:1035C0009B83AC83BD838A819B81AC81BD81892B28
:1035D0008A2B8B2B09F40BC48A819B81AC81BD8122
:1035E0008093084690930946A0930A46B0930B46F1
:1035F000809141468F5F80934146F9C381E080937B
:103600000A408C859D85FC018081813009F04BC08A
:103610008C859D85FC0183818823D1F08C859D85D7
:10362000039644E150E0BC0185E995E40E94424ADA
:1036300060E085E995E40E94652D80E090E00E94BD
:10364000FF2ADC01CB01BC01CD010E942402D1C3C1
:1036500080E090E00E947E05DC01CB012B2F2F93B0
:103660002A2F2F93292F2F938F9380EE92E4892F67
:103670008F9380EE92E48F9385E995E4892F8F9361
:1036800085E995E48F930E946E4A2DB73EB7285F77
:103690003F4FCDBFDEBF45E955E464EE72E483E001
:1036A0000E948F36A6C38C859D85FC018081823067
:1036B00009F09FC38C859D85FC0183818835C9F500
:1036C0001C8A8C859D85FC01808D882351F08C851A
:1036D0009D8548960E94DA498C8B8C890E94DC2D4E
:1036E00088C30E94EE2D8C8B8C89082E000C990BC0
:1036F000292F2F938F9381EF92E4892F8F9381EF5E
:1037000092E48F9385E995E4892F8F9385E995E479
:103710008F930E946E4A0F900F900F900F900F9012
:103720000F9045E955E464EE72E483E00E948F3621
:1037300060C380E090E00E94FF2ADC01CB018D8B0A
:103740009E8BAF8BB88F8D899E89AF89B88DBC0158
:10375000CD010E9424028091434690914446A0915D
:103760004546B09146462D893E894F89588D281788
:1037700039074A075B0709F43CC3888D8F938F890B
:103780008F938E898F938D898F9380EE92E4892F0A
:103790008F9380EE92E48F9385E995E4892F8F9340
:1037A00085E995E48F930E946E4A2DB73EB7285F56
:1037B0003F4FCDBFDEBF45E955E464EE72E483E0E0
:1037C0000E948F368D899E89AF89B88D809343463C
:1037D00090934446A0934546B09346460AC38091D1
:1037E00041468F5F809341468C859D85FC01838196
:1037F000882381F18C859D85039644E150E0BC01CE
:103800008BEE95E40E94424A8091EB45882309F4AF
:10381000F2C280910B40882F90E0BC018BEE95E4C2
:103820000E94F3388C509E4F969587959695879574
:10383000969587959C01A5ECB0E20E9490489295E0
:1038400082958F7089279F70892780930046909377
:103850000146D1C28091EB45882309F4CCC28BEE9E
:1038600095E4892F8F938BEE95E48F9386EF92E406
:10387000892F8F9386EF92E48F9385E995E4892FC2
:103880008F9385E995E48F930E946E4A0F900F9075
:103890000F900F900F900F9085E995E40E944E369F
:1038A0001982A9C280910C40898F8C859D85FC016D
:1038B0008381893409F04FC08C859D85FC01808D02
:1038C000882309F49AC28C859D8548960E94F84900
:1038D000DC01CB01898F898D8A8F85E08B8F84E114
:1038E0008C8F9A8D8C8D891740F09A8D8B8D9817BF
:1038F00010F48B8D03C08A8D01C08C8D80930B409A
:10390000809141468F5F809341468091EB458823AB
:1039100009F473C280910B40882F90E0BC018BEEBC
:1039200095E40E94F3388C509E4F96958795969516
:103930008795969587959C01A5ECB0E20E949048EA
:10394000929582958F7089279F7089278093004672
:103950009093014652C28C859D85FC018381803500
:1039600009F04BC28C859D85FC01808D882309F46C
:1039700044C28C859D8548960E94F849DC01CB01A4
:10398000898F898D8D8F85E090E08E8F9F8F84E168
:1039900090E088A399A38D8D282F30E088A199A16C
:1039A0008217930754F08D8D882F90E02E8D3F8DD8
:1039B0008217930724F4C90102C088A199A18093BA
:1039C0000C40809141468F5F8093414680910C402E
:1039D0000E94C91F80930740909308400EC21AA20C
:1039E0001BA28C859D85FC0183818033E1F48C854D
:1039F0009D85FC01808D882309F401C28C859D85FD
:103A000048960E94F849DC01CB018AA39BA38AA1B6
:103A10009BA180930F4090931040809141468F5F0F
:103A200080934146ECC18C859D85FC018381813367
:103A3000E1F48C859D85FC01808D882309F4DFC12C
:103A40008C859D8548960E94F849DC01CB018AA3AC
:103A50009BA38AA19BA180930D4090930E408091DF
:103A600041468F5F80934146CAC18C859D85FC018C
:103A700083818934E1F48C859D85FC01808D8823C8
:103A800009F4BDC18C859D8548960E94F849DC01EA
:103A9000CB018AA39BA38AA19BA180931140909301
:103AA0001240809141468F5F80934146A8C18C852A
:103AB0009D85FC018381843409F0A1C18C859D859D
:103AC000FC01808D882309F49AC18C859D854896D8
:103AD0000E94F849DC01CB018AA39BA38AA19BA188
:103AE0008093024690930346809141468F5F809376
:103AF000414685C18C859D85FC018381882309F41D
:103B000080C18C859D85039644E150E0BC0186ED23
:103B100095E40E94424A809141468F5F80934146DE
:103B200070C11E821F82188619868C859D85FC01B6
:103B300083818823A9F18C859D8503960E94F8498D
:103B4000DC01CB018093474690934846A0934946B9
:103B5000B0934A468091474690914846A091494685
:103B6000B0914A468EA79FA7A8ABB9ABCE018E965F
:103B700061E00E943543982F81E0992309F080E0AD
:103B80008823B1F08EA59FA5A8A9B9A98E839F838C
:103B9000A887B987809141468F5F8093414608C0CE
:103BA0000E946743DC01CB018E839F83A887B9877E
:103BB0008E819F81A885B985892B8A2B8B2B09F44F
:103BC00022C189858F9388858F938F818F938E8172
:103BD0008F938FEF92E4892F8F938FEF92E48F93DF
:103BE00085E995E4892F8F9385E995E48F930E9469
:103BF0006E4A2DB73EB7285F3F4FCDBFDEBF45E9C8
:103C000055E464E073E483E00E948F36FCC0809149
:103C100016469091174621E08D38924008F420E036
:103C2000222309F47CC08091164690911746CC015E
:103C3000A0E0B0E09C01AD0160EA78E686E090E0AB
:103C40000E940E48DC01CB017C018D01EDE7FE1ADC
:103C50000C401E4F8091154090911640CC01A0E081
:103C6000B0E09C01AD0164E670E78EEF9FEF0E942B
:103C70000E48DC01CB01E80EF91E0A1F1B1F8091C4
:103C8000154090911640CC01A0E0B0E028E630E16C
:103C900040E050E0281B390B4A0B5B0B8FEF93E0A1
:103CA000DC010E94A6489B01AC01C801B7010E943B
:103CB0006848DA01C9018CA39DA3AEA3BFA318A6CF
:103CC00019A684E690E08AA79BA78AA59BA59C01DC
:103CD000990F440B550B8CA19DA1AEA1BFA1281734
:103CE00039074A075B073CF48AA59BA5092E000CFF
:103CF000AA0BBB0B11C088A599A5092E000CAA0B15
:103D0000BB0B2CA13DA14EA15FA182179307A40775
:103D1000B50714F4DA01C9018A879B872FC0809107
:103D20001A4690911B469C0140E050E0DA01C9011F
:103D3000880F991FAA1FBB1F880F991FAA1FBB1F9F
:103D4000880F991FAA1FBB1F821B930BA40BB50BD7
:103D5000880F991FAA1FBB1F8A5C9E4FAF4FBF4F92
:103D600024E630E040E050E0BC01CD010E9468480C
:103D7000DA01C901805F984D8A879B878A859B8578
:103D800068E073E40E94B73680E090E00E94FF2A6A
:103D9000DC01CB01BC01CD010E94240237C0CE0161
:103DA000C2960E94EF2C982F81E0992309F080E0C1
:103DB000882359F18AA99BA96DE073E40E94B73664
:103DC00024C044E650E462E173E483E00E948F364D
:103DD0001DC00E94C4358EEC8093C74517C00000FB
:103DE00015C0000013C0000011C000000FC000008B
:103DF0000DC000000BC0000009C0000007C000009B
:103E000005C0000003C0000001C000008C859D8536
:103E1000FC01118212828981882309F46FC986E12D
:103E200093E40E944E366AC90000E396CDBFDEBF20
:103E3000DF91CF911F910F91FF90EF900895EF9236
:103E4000FF920F931F93CF93DF93CDB7DEB72997E0
:103E5000CDBFDEBF20910446309105464091064615
:103E6000509107468091084690910946A0910A46D4
:103E7000B0910B46BC01CD010E94B245DC01CB01E3
:103E800089839A83AB83BC8321E089819A81AB814A
:103E9000BC81181619061A061B060CF020E02D83AB
:103EA000CE0106960E947E05209108463091094673
:103EB00040910A4650910B468E819F81A885B98515
:103EC000BC01CD010E94B245DC01CB0189839A83FC
:103ED000AB83BC8389819A81AB81BC81BB232CF0ED
:103EE0008D81882311F080E04AC0209104463091F2
:103EF000054640910646509107468E819F81A885D0
:103F0000B985BC01CD010E94B245DC01CB0189839A
:103F10009A83AB83BC8389819A81AB81BC81843CC9
:103F20009F4FAF4FBF4F64F01092D545109217408E
:103F3000109218401092194010921A4081E01FC050
:103F400024EC3FEF4FEF5FEF89819A81AB81BC8119
:103F500079018A01E81AF90A0A0B1B0BD801C7017B
:103F60008093174090931840A0931940B0931A4043
:103F700081E08093D54581E08093104681E02996C9
:103F8000CDBFDEBFDF91CF911F910F91FF90EF90DA
:103F9000089585314CF4282F880F330B25303105D7
:103FA0002CF425E030E002C024E130E030E040E0D5
:103FB00050E062EC71E080E090E00E946848CA0145
:103FC000B9010E94EC460E94BB46CB010895CF93F5
:103FD000DF9300D01F92CDB7DEB78A839B838A819F
:103FE0009B810E94122089838A819B81FC018081B0
:103FF000882331F08A819B81FC0180818093C845B0
:104000008981882321F089818093C74504C00E945B
:104010001F1F80930C4689812396CDBFDEBFDF91A1
:10402000CF910895CF92DF92EF92FF920F931F935B
:10403000CF93DF931F92CDB7DEB7409104465091E6
:1040400005466091064670910746452B462B472B47
:1040500009F491C10091044610910546209106464D
:1040600030910746409108465091094660910A46B2
:1040700070910B46041715072607370708F07DC116
:1040800020910D4030910E40232B09F478C14091CE
:104090000F405091104020910D4030910E40240F60
:1040A000351F4091024650910346241735070CF402
:1040B00068C12091D645222309F465C120910C40A6
:1040C000222309F462C18C018091EB45882319F108
:1040D00080910B40882341F08091114090911240D3
:1040E000892B21F481E003C081E001C080E08111CF
:1040F0004EC160910B4070E08BEE95E40E94F33866
:104100008C509E4F68EE73E00E941E4860930046FC
:104110007093014604C0109200461092014680E060
:1041200090E00E947E05C0900846D0900946E0903D
:104130000A46F0900B46C616D706E806F90648F47C
:104140000115110509F425C18AEFF801808380E08B
:1041500021C1209104463091054640910646509178
:1041600007460E94B24599230CF4F2C0E0900D403E
:10417000F0900E4020910F4030911040E20EF31E5F
:1041800097010F2C000C440B550B0E94684820919E
:10419000024630910346C901861B970B1816190673
:1041A0000CF484C022273327281B390B40910D4083
:1041B00050910E4024173507ACF18E0D9F1D91953F
:1041C00081959109092E000CAA0BBB0B8093CC455D
:1041D0009093CD45A093CE45B093CF4501151105E1
:1041E00019F08EEFF801808380910C4681118AC00E
:1041F00080910D4090910E404091CC455091CD451D
:104200006091CE457091CF45209100463091014696
:10421000841B950B821B930B8093D0459093D145C3
:1042200080E077C020910D4030910E40820F931FA7
:10423000092E000CAA0BBB0B8093CC459093CD4567
:10424000A093CE45B093CF450115110519F08DEF20
:10425000F801808380910C46811156C08091004600
:1042600090910146A0E0B0E04091CC455091CD4501
:104270006091CE457091CF4584179507A607B70783
:104280000CF044C08091CC459091CD45A091CE4595
:10429000B091CF452091004630910146821B930B8F
:1042A0008093D0459093D14581E033C04427552772
:1042B000481B590B052E000C660B770B4093CC4521
:1042C0005093CD456093CE457093CF4501151105B0
:1042D00019F02EEFF801208320910C46211118C00F
:1042E00020910D4030910E40820F931F2091004687
:1042F00030910146821B930B8093D0459093D1451A
:1043000080E007C080E005C081E003C081E001C01B
:1043100080E08823B1F0F89481E0898340E050E0A8
:10432000BE016F5F7F4F86ED95E40E94FA37809162
:104330000C400E94C91F80930740909308407894D6
:1043400003C080E00E94794381E080930D4609C05C
:104350000115110519F08FEFF801808380E00E94AC
:10436000794310920F468AE590E080931340909332
:10437000144080E00FC08CEC0DC08DEC0BC08BECBA
:1043800009C08AEC07C089EC05C088EC03C087EC43
:1043900001C080E00F90DF91CF911F910F91FF90AE
:1043A000EF90DF90CF90089581E00895CF93C82FCC
:1043B0000E94A726F894C1110EC0823031F460E04B
:1043C00080E090E00E94C5223FC063E080E090E082
:1043D0000E94C52239C0C230D1F4823031F461E08C
:1043E00080E090E00E94C5222FC0813021F084300F
:1043F00011F0833031F461E080E090E00E94C5224A
:1044000023C063E080E090E00E94C5221DC082309E
:1044100031F461E080E090E00E94C52215C0813057
:1044200031F462E080E090E00E94C5220DC084304B
:1044300031F463E080E090E00E94C52205C063E0B3
:1044400080E090E00E94C5227894CF910895CF93A8
:10445000DF93D82F0E94A726C82FF894D23031F4CA
:1044600060E080E090E00E94C52214C0813029F411
:1044700062E080E090E00E94C522C43031F460E048
:1044800080E090E00E94C52205C060E080E090E0FE
:104490000E94C522DF91CF9108958F929F92AF9293
:1044A000BF92EF92FF920F931F9380E090E00E94E3
:1044B000FF2A60933246709333468093344690933C
:1044C00035460E94A726823009F454C063E080E09C
:1044D00090E00E94C52220912146309122464091D1
:1044E0002346509124466091324670913346809124
:1044F0003446909135460F2EF8EAEF2EF2E4FF2E67
:10450000F02D05EB12E40E946F2560912146709119
:104510002246809123469091244680903246909086
:104520003346A0903446B0903546681579058A0523
:104530009B0588F4209125463091264640912746D8
:1045400050912846E12CF12C09EC12E4C501B4018C
:104550000E946F2511C0209125463091264640913A
:10456000274650912846E12CF12C01EC12E40E94E0
:104570006F2502C00E9404271F910F91FF90EF90BA
:10458000BF90AF909F908F9008951F93CF93DF932C
:104590001F92CDB7DEB7162F009731F0FC01808156
:1045A000823111F080931B4080E090E00E94FF2A4E
:1045B00060933246709333468093344690933546E9
:1045C000F89410920D4610920C46E0911B408E2FED
:1045D00090E0FC013197E131F10508F01EC1EC5883
:1045E000FF4F0C948748E6EDF5E48DE49FE480836B
:1045F000918385E490E08283938380E001C081E031
:10460000882369F0E6EDF5E48DE49FE480839183EF
:1046100089E490E08283938380E001C081E0882375
:1046200069F0E6EDF5E48DE49FE48083918383E512
:1046300090E08283938380E001C081E0882369F069
:10464000E6EDF5E48DE49FE48083918388E490E0D7
:104650008283938380E001C081E0882351F0E6EDFE
:10466000F5E48DE49FE48083918385E390E0828389
:10467000938381E0898340E050E0BE016F5F7F4F0C
:1046800086ED95E40E94FA3780910C400E94C91F84
:1046900080930740909308408CE390E080930D4016
:1046A00090930E4080EF90E080930F4090931040E5
:1046B000D4C0E6EDF5E48DE495E480839183128225
:1046C00080E001C081E0882351F0E6EDF5E48DE45F
:1046D00099E480839183128280E001C081E0882385
:1046E00051F0E6EDF5E48DE493E580839183128249
:1046F00080E001C081E0882351F0E6EDF5E48DE42F
:1047000098E480839183128280E001C081E0882355
:1047100039F0E6EDF5E48DE495E380839183128230
:1047200081E0898340E050E0BE016F5F7F4F86EDFE
:1047300095E40E94FA3788E080930C4080910C4009
:104740000E94C91F80930740909308408CE090E03E
:1047500080930D4090930E4080E390E080930F4053
:10476000909310407AC0E6EDF5E48FE495E4808301
:104770009183128280E001C081E0882351F0E6ED50
:10478000F5E48FE499E480839183128280E001C094
:1047900081E0882351F0E6EDF5E48FE493E5808332
:1047A0009183128280E001C081E0882351F0E6ED20
:1047B000F5E48FE498E480839183128280E001C065
:1047C00081E0882339F0E6EDF5E48FE495E380831A
:1047D0009183128281E0898340E050E0BE016F5FE7
:1047E0007F4F86ED95E40E94FA378FE080930C406E
:1047F00080910C400E94C91F80930740909308400D
:104800008CE090E080930D4090930E4080E390E028
:1048100080930F409093104020C081E0898340E056
:1048200050E0BE016F5F7F4F86ED95E40E94FA373E
:1048300088E080930C4080910C400E94C91F8093B7
:104840000740909308408CE390E080930D40909354
:104850000E4010920F401092104011110AC0109299
:104860000D4610920C461092364681E080931C4013
:1048700048C0113051F41092364610921C4081E02D
:1048800080930D4680930C463CC01230A9F511E090
:10489000198340E050E0BE016F5F7F4F86ED95E4E5
:1048A0000E94FA3780910C400E94C91F80930740F4
:1048B0009093084080910D4090910E40092E000C7D
:1048C000AA0BBB0B8093CC459093CD45A093CE45CE
:1048D000B093CF458CE390E08093D0459093D14541
:1048E00010930D4610930C468DEF8093C84510929F
:1048F000364610921C4005C081E080933646809376
:104900001C4078940F90DF91CF911F9108954F92A2
:104910005F926F927F92AF92BF92CF92DF92EF92AF
:10492000FF920F931F93CF93DF938C01A42EFC0172
:1049300001900020E9F73197EF01C81BD90B26E45D
:1049400061327207E1F4C0903246D0903346E09075
:104950003446F0903546C11486E6D8068EEEE80659
:104960008FE5F80650F5BB24B3940F2EC12CF6E664
:10497000DF2EFEEEEF2EFFE5FF2EF02D2FC065524D
:104980007644F1F4C0902146D0902246E090234630
:10499000F09024468091324690913346A09134465F
:1049A000B0913546C816D906EA06FB06A0F46C019C
:1049B0007D016894BB24B1F811C0BB24B3940EC030
:1049C000B12C0F2EC12CF6E6DF2EFEEEEF2EFFE50A
:1049D000FF2EF02D03C06894BB24B1F8CA30D10576
:1049E00039F480E3F801828783871486CCE0D0E035
:1049F000CC30D10539F4C8010E94C145882321F08B
:104A000081E003C080E001C080E0882309F44BC04E
:104A1000B80180E090E00E944C2C2B013C01AA2DB3
:104A2000AA0CBB0B20E13EE00E949F48640D751D5F
:104A3000861D971DC616D706E806F90608F440C07D
:104A4000F1E0BF1208C08CE193E40E94B83A60E044
:104A500070E0CB0135C022E0B2121DC00091324699
:104A600010913346209134463091354660177107D6
:104A70008207930740F481E393E40E94B83A60E030
:104A800070E0CB011DC087E493E40E94B83A60E077
:104A900070E0CB0115C082E693E40E94B83A60E072
:104AA00070E0CB010DC0CD2B41F086E793E40E946E
:104AB000B83A60E070E0CB0103C060E070E0CB0189
:104AC000DF91CF911F910F91FF90EF90DF90CF90EA
:104AD000BF90AF907F906F905F904F9008952F920E
:104AE0003F924F925F926F927F928F929F92AF927E
:104AF000BF92CF92DF92EF92FF920F931F93CF93CB
:104B0000DF93CDB7DEB72C97CDBFDEBF2B013C01C5
:104B100049015A01621773078407950748F0E114A9
:104B2000F10409F4FDC0C7010E94B83A81E0F9C060
:104B30000115110519F0C8010E94B83A7501640108
:104B4000C418D508E608F708C701B60120E833E322
:104B500041EE51E00E94464829013A014427552779
:104B600060E873E381EE91E00E940E48C61AD70A0E
:104B7000E80AF90AC701B60120E831E541E050E052
:104B80000E94464849015A0119014427552760E807
:104B900071E581E090E00E940E48C61AD70AE80A43
:104BA000F90AC701B60120E13EE040E050E00E9472
:104BB000464829833A834B835C8329813A8129873C
:104BC0003A8729813A814B815C8144275527A0E1AE
:104BD000BEE00E94A648C61AD70AE80AF90AC70129
:104BE000B6012CE330E040E050E00E9446482D83BF
:104BF0003E834F8358870D811E812CE3209FC00187
:104C0000219F900D1124A601481B590B4B875C87EF
:104C10001092954541145104B1F05F924F928AE889
:104C200093E49F938F9385E995E49F938F930E94DC
:104C30006E4A85E995E40E94B83A0F900F900F9064
:104C40000F900F900F902328B1F09F928F9282E9DE
:104C500093E49F938F9385E995E49F938F930E94AC
:104C60006E4A85E995E40E94B83A0F900F900F9034
:104C70000F900F900F9089859A85892BC1F09A81AA
:104C80009F93E981EF938BE993E49F938F9385E959
:104C900095E49F938F930E946E4A85E995E40E9464
:104CA000B83A0F900F900F900F900F900F90012B2C
:104CB000C1F0FE81FF932D812F9383EA93E49F93AC
:104CC0008F9385E995E49F938F930E946E4A85E9BF
:104CD00095E40E94B83A0F900F900F900F900F90AC
:104CE0000F903C853F934B854F938BEA93E49F93C2
:104CF0008F9385E995E49F938F930E946E4A85E98F
:104D000095E40E94B83A0E94A33AE5E9F5E41082DE
:104D10000F900F900F900F900F900F9080E001C0B8
:104D200081E02C96CDBFDEBFDF91CF911F910F9117
:104D3000FF90EF90DF90CF90BF90AF909F908F90BB
:104D40007F906F905F904F903F902F9008950F93BA
:104D50001F938091254690912646A0912746B091B9
:104D60002846811526E692072EEEA2072FE5B20708
:104D7000D8F140912146509122466091234670918E
:104D800024464115E6E65E07EEEE6E07EFE57E0788
:104D900068F10091324610913346209134463091AB
:104DA00035460115E6E61E07EEEE2E07EFE53E0757
:104DB000F8F0481759076A077B07E0F48017910756
:104DC000A207B307C8F0401751076207730730F412
:104DD00080911C40882391F083E013C08091364677
:104DE00081110EC084E00DC082E00BC082E009C0DA
:104DF00082E007C082E005C082E003C085E001C018
:104E000081E01F910F91089580E090E00E94FF2AB9
:104E10006093324670933346809334469093354680
:104E20008091EB45811104C082EB93E40E94B83A73
:104E30008091324690913346A0913446B0913546E8
:104E400081159646AE4EBF4520F483ED93E40E9453
:104E5000B83A409125465091264660912746709178
:104E600028468091324690913346A0913446B091C5
:104E70003546481759076A077B07B0F44091214629
:104E80005091224660912346709124464817590755
:104E90006A077B0720F48BEF93E40E94B83A81E223
:104EA00094E40E94B83A08954091214650912246D8
:104EB0006091234670912446481759076A077B077B
:104EC00070F4411556466E4E7F4528F48BEF93E4FF
:104ED0000E94B83A089588E494E40E94B83A08958C
:104EE0000F931F93CF93DF93EC018B01019739F45C
:104EF0006F3F7F4F21F480E296E40E94FE2ECD2B7F
:104F000039F40F3F1F4F21F480E296E40E94FF2EF8
:104F1000DF91CF911F910F9108956FEF7FEF81E0A7
:104F200090E00E94702708956FEF7FEF80E090E09F
:104F30000E9470270895E0E6F4E08289887F828BE2
:104F400082898460828B8389887F838B8389846054
:104F5000838B8489887F848B84898460848B858912
:104F6000887F858B85898460858B8289877F828B0A
:104F70008389877F838B8489877F848B8589877FDB
:104F8000858B089581E08093A00008959AE0909326
:104F90000206882341F0E0E0F6E083E0808381E0D0
:104FA000848782870895E0E0F6E081E080831486BC
:104FB0000895CF93C82F0E949B270E94C2278C2F51
:104FC0000E94C62781E080934C46CF910895E0E08F
:104FD000F6E01486108210924C460895EF92FF92EC
:104FE0000F931F93CF93DF93EC017B01019779F42B
:104FF0006F3F7F4F61F400E010E42CEB36E440E0BB
:1050000050E069E473E48BE496E40E944B32CD2BCC
:1050100039F4EF20E09421F48BE496E40E949B3273
:10502000DF91CF911F910F91FF90EF900895833002
:10503000C9F028F4813041F0823069F028C0843012
:10504000C1F08530E9F023C081E00E94D92782E0D9
:1050500080930806089580E00E94D92783E080931A
:105060000806089580E00E94D92784E0809308060E
:10507000089580E00E94D92785E08093080608956E
:1050800080E00E94D92782E48093080608950E9458
:10509000E7270895809110069091110608951F92B8
:1050A0000F920FB60F9211240BB60F922F933F93CE
:1050B0004F935F936F937F938F939F93AF93BF9320
:1050C000EF93FF930E944A28BC018BE496E40E9470
:1050D000A232811110920C06FF91EF91BF91AF9116
:1050E0009F918F917F916F915F914F913F912F9100
:1050F0000F900BBE0F900FBE0F901F9018956FEF83
:105100007FEF81E090E00E94EE2708956FEF7FEF40
:1051100080E090E00E94EE270895882321F081B17D
:10512000886081B9089581B1877F81B90895882306
:1051300021F081B1806281B9089581B18F7D81B9FB
:105140000895882321F081B18F7B81B9089581B1C1
:10515000806481B908958EB190E0880F892F881FEF
:10516000990B817008951F920F920FB60F92112420
:105170008F939F938091490488234CF480914F46EC
:1051800090915046019680934F469093504680915F
:10519000490484FF09C080914F4690915046019682
:1051A00080934F46909350468FEF809349049F9190
:1051B0008F910F900FBE0F901F9018951F920F9216
:1051C0000FB60F9211248F939F938091090482FF51
:1051D00009C080914D4690914E46019680934D4670
:1051E00090934E468091090484FF09C080914D46FA
:1051F00090914E46019680934D4690934E468FEF88
:10520000809309049F918F910F900FBE0F901F9074
:10521000189580B18B7F80B9E2E1F4E08081887FCE
:105220008260808380B1886080B981B1877F81B9D5
:1052300080B18F7E80B9E4E1F4E080818860808372
:105240008081887F8360808380B1806280B981B1F2
:105250008F7D81B980B1806480B981B18F7B81B944
:1052600080B1806880B981B18F7781B984B1816064
:1052700084B985B18E7F85B984B1826084B985B1E6
:105280008D7F85B984B1806184B985B18F7E85B900
:1052900084B1806284B985B18F7D85B988B18F7EF4
:1052A00088B988B1806288B989B18F7D89B988B1A0
:1052B000806488B989B18F7B89B988B18F7788B9C3
:1052C000E7E5F4E08081886080838081887F836067
:1052D00080838CB18E7F8CB98CB18D7F8CB9A1E726
:1052E000B4E08C9188608C938C91887F83608C93E0
:1052F0008CB18F778CB98081877F8083E0E9F4E07F
:10530000808188608083E1E9F4E080818860808327
:10531000E2E9F4E0808188608083E3E9F4E0808161
:1053200088608083E2EBF4E0808188608083E3EB37
:10533000F4E0808188608083E4EBF4E08081886021
:105340008083E5EBF4E0808188608083089510928B
:10535000890080E0089544E268ED88E690E00E94CC
:10536000223980E00895789480E0089583E0809366
:10537000A2006AE070E080E090E00E947742811134
:10538000F8CF0895282F2295220F220F207CE0EAE3
:10539000F6E0228396958795969587958383089561
:1053A0000E94B629E0E6F4E08689887F868B8689AC
:1053B0008460868B8689877F868B81EC8093A006AC
:1053C00080E090E00E94C229089580E0883048F48F
:1053D000E82FF0E0E05FFB4F9081986090838F5F53
:1053E000F5CF80E0883048F4E82FF0E0E05DFB4F37
:1053F0009081986090838F5FF5CF80E0883048F48B
:10540000E82FF0E0E05BFB4F9081986090838F5F26
:10541000F5CF80E0883048F4E82FF0E0E059FB4F0A
:105420009081986090838F5FF5CF80E0883048F45A
:10543000E82FF0E0E057FB4F9081986090838F5FFA
:10544000F5CF80E0883048F4E82FF0E0E055FB4FDE
:105450009081986090838F5FF5CF08950E94E52931
:105460000E94AB290E945A420E94B3290E94092936
:1054700088B1806488B989B1806489B90E94584232
:105480000E94D02944E060E875E280E090E00E944C
:10549000F43541E060E875E280E090E00E942B3A4C
:1054A0000E94A7290895282F30E035952795359536
:1054B00027953595279535952795220F922F990F8A
:1054C000990F290F8F70820F08952DEC829F212D47
:1054D0001124922F969596959695990F392F330F03
:1054E000330F930F891B982F26952695269580E1DB
:1054F000289F90011124892F822B0895FC0120817F
:105500008181F0E12F9F800D112480530895CF9267
:10551000DF92EF92FF92FC0180812181082E000C26
:10552000990BAC013CE32302400D511D1124A281D3
:105530000A2E000CBB0B20E13EE00E949F486A014E
:10554000550FEE08FF08C60ED71EE81EF91EA085EF
:10555000B18520E831E541E050E00E94B148C60E37
:10556000D71EE81EF91E0680F781E02DDF01A65444
:10557000B10920E833E341EE51E00E94B148C60E84
:10558000D71EE81EF91ECF0185549109DC010AF4EB
:105590001396B595A795B595A79520E831E541E017
:1055A00050E00E94B148C60ED71EE81EF91ECF017A
:1055B000019764E670E00E943248DB0120E83EEA91
:1055C0004EEF5FEF0E94B148C60ED71EE81EF91ECF
:1055D000CF01855D9E4F60E971E00E943248DB019A
:1055E00020E831E541E050E00E94B1486C0D7D1D9E
:1055F0008E1D9F1DFF90EF90DF90CF9008954F92EA
:105600005F926F927F928F929F92AF92BF92CF9252
:10561000DF92EF92FF920F931F93CF93DF93CDB75B
:10562000DEB76397CDBFDEBF5C01AE014F5F5F4F5A
:1056300087E0DA011D928A95E9F727E060E080EDC6
:105640000E94CA33982EB7E08B1304C1FE0138962E
:105650008CE0DF011D928A95E9F72F81822F8F70F0
:10566000E82EF12CC7018C599F4F22952F7030E006
:105670007901EE0CFF1C220F331F220F331F220F64
:10568000331F2E0D3F1D7C01E20EF31E6701B4E9AE
:10569000CB1AB8EFDB0A8E81982F9F7082958F709E
:1056A000880F082F000F000F800F082F090FED81C2
:1056B0008E2F8F70E295EF70EE0F8E2E880C880C77
:1056C000E80D8E2E880E11E0101760F4612FC601D0
:1056D0000E94170228893989280F311D288B398BA0
:1056E0001F5FF2CFE82D880CFF0B319788899989CD
:1056F000E80FF91F8981982F92959F70990F492F74
:10570000440F440F490F8F70480F3A81232F229581
:105710002F70220F922F990F990F822F890F232F0D
:105720002F70280FAB816A2F70E0CB01959587957C
:105730009595879595958795959587959595879551
:10574000382F3170CB0195958795959587959595CF
:105750008795959587958170880F982F990F990F48
:10576000890FAF70A80F062E672F000C661F770BEE
:10577000000C661F771F60FF04C0332321F0A45F75
:1057800002C03111AC5E042E000C550B8CE32802D4
:10579000400D511D11240A2E000CBB0B20E13EE0F0
:1057A0000E949F482A01550F66087708460E571E2B
:1057B000681E791EDF0120E831E541E050E00E94DB
:1057C000B148460E571E681E791ED701A654B1096E
:1057D00020E833E341EE51E00E94B148460E571EE7
:1057E000681E791EC70185549109DC010AF41396DD
:1057F000B595A795B595A79520E831E541E050E02E
:105800000E94B148460E571E681E791EC7010197B7
:1058100064E670E00E943248DB0120E83EEA4EEF89
:105820005FEF0E94B148460E571E681E791EC701E1
:10583000855D9E4F60E971E00E943248DB0120E8FF
:1058400031E541E050E00E94B148640D751D861DB0
:10585000971D03C060E070E0CB01A114B10441F0DA
:10586000A7E09A1611F02CEF01C020E0F50120838B
:105870006396CDBFDEBFDF91CF911F910F91FF9057
:10588000EF90DF90CF90BF90AF909F908F907F90E0
:105890006F905F904F9008957F928F929F92AF92FA
:1058A000BF92CF92DF92EF92FF920F931F93CF930D
:1058B000DF93CDB7DEB72C97CDBFDEBF6C018B0178
:1058C000FE0131968CE0DF011D928A95E9F76115A2
:1058D000710509F463C0CB010A960E947E2AA82EA6
:1058E000C80108960E947E2AB82EC80106960E941A
:1058F0007E2AF82EC80104960E947E2A882EC801AE
:1059000002960E947E2A782EC8010E947E2A182FB5
:105910008F2D0E94532A982E812F0E94532AE82E01
:10592000F12CC7018C599F4F8F839887B0E3EB1AF6
:10593000B8EFFB0A872D0E94532A082F8FEF800FA4
:105940008E83882D0E94532A8C8311E0101760F4F7
:10595000612FC7010E94170229853A85280F311D42
:1059600029873A871F5FF2CF8C81082E000C990B94
:10597000019729853A85820F931F89879A878A2DF7
:105980000E94532A182F8B2D0E94532A9B828A83B0
:105990001983CE0101960E94872A04C080E090E01E
:1059A0000E94FF2AC114D10449F021E0611571055C
:1059B0008105910509F020E0F60120832C96CDBFEA
:1059C000DEBFDF91CF911F910F91FF90EF90DF909D
:1059D000CF90BF90AF909F908F907F9008950F933E
:1059E0001F93CF93DF9300D0CDB7DEB78C01198220
:1059F0001A8222E0AE014F5F5F4F61E180ED0E94AD
:105A0000CA3391E0823009F490E0823049F4298170
:105A100030E0322F22278A81282BF801208331831E
:105A2000892F0F900F90DF91CF911F910F910895C3
:105A3000FF920F931F93CF93DF93CDB7DEB72797D6
:105A4000CDBFDEBFFE01319627E0DF011D922A9512
:105A5000E9F7009781F1F62E8C010A960E947E2AC2
:105A60008983C80108960E947E2A8A83C801069607
:105A70000E947E2A8B83C80104960E947E2A8D8311
:105A8000C80102960E947E2A8E83C8010E947E2A47
:105A90008F836F2D660F660F660F6F1927E0AE01BB
:105AA0004F5F5F4F80ED0E948D3391E0873009F4A6
:105AB00090E0892F01C081E02796CDBFDEBFDF9146
:105AC000CF911F910F91FF900895CF93DF93CDB7A2
:105AD000DEB72797CDBFDEBFFC0181E08C838289D2
