S0110000466C6578466F7838302E73726563EF
S11300000C9474000C9493000C9493000C9493003F
S11300100C9493000C9493000C9493000C9498000B
S11300200C9493000C9493000C9493000C94930000
S11300300C94A7000C94BA000C9493000C949300B5
S11300400C9493000C9493000C9493000C949300E0
S11300500C9493000C9493000C9493000C949300D0
S11300600C9493000C9493000C9493000C949300C0
S11300700C9493000C9493000C94CD000C940E01FA
S11300800C943F010C9493000C9493000C949300F3
S11300900C9493000C9493000C9493000C94930090
S11300A00C9493000C94E0000C9493000C94930033
S11300B00C9493000C9493000C9493000C94930070
S11300C00C9493000C9493000C9493000C94930060
S11300D00C9493000C9493000C9493000C94930050
S11300E00C9493000C94930011241FBECFEFCDBF4A
S11300F0DFE7DEBF10E4A0E0B0E4E8E3F0E100E015
S11301000BBF02C007900D92AA30B107D9F721E4C2
S1130110AAE0B0E401C01D92A036B207E1F70E9444
S113012095010C941A080C9400000E94F40108959F
S11301301F920F920FB60F9211248F9381E0809338
S11301400B0A8F910F900FBE0F901F9018951F925E
S11301500F920FB60F9211248F938091060B80FF9C
S113016003C081E08093060B8F910F900FBE0F9018
S11301701F9018951F920F920FB60F9211248F9310
S11301808091160B80FF03C081E08093160B8F9142
S11301900F900FBE0F901F9018951F920F920FB6DD
S11301A00F9211248F938091260B80FF03C081E06E
S11301B08093260B8F910F900FBE0F901F90189570
S11301C01F920F920FB60F9211242F933F938F9388
S11301D09F938091360B80FF18C080910F409091BF
S11301E010409C012F5F3F4F20930F4030931040ED
S11301F08B32914039F410920F40109210408AB122
S113020080648AB981E08093360B9F918F913F91EE
S11302102F910F900FBE0F901F9018951F920F9261
S11302200FB60F9211240BB60F922F933F934F9357
S11302305F936F937F938F939F93AF93BF93EF934A
S1130240FF9380910D4090910E40019680930D4054
S113025090930E400E943103FF91EF91BF91AF91B3
S11302609F918F917F916F915F914F913F912F91CA
S11302700F900BBE0F900FBE0F901F9018951F92FA
S11302800F920FB60F9211240BB60F922F933F9338
S11302904F935F936F937F938F939F93AF93BF938A
S11302A0EF93FF9380910B4090910C40892B31F494
S11302B00E94090280930B4090930C40E0910B4004
S11302C0F0910C4080910A40DF01A80FB11D9C9170
S11302D0992331F08F5F80930A40909322080DC0D8
S11302E010920A4010820E94090280930B4090935E
S11302F00C40892B11F40E947502E0E2F8E084813D
S113030080648483FF91EF91BF91AF919F918F910E
S11303107F916F915F914F913F912F910F900BBE01
S11303200F900FBE0F901F9018950E94950081E0CA
S113033090E40E94B202FFCF1092890080E00895F9
S113034044E268ED88E690E00E94EB0280E00895C4
S1130350789480E0089580E008C0E82FF0E0E05F42
S1130360FB4F9081986090838F5F8830B0F380E07A
S113037008C0E82FF0E0E05DFB4F90819860908327
S11303808F5F8830B0F380E008C0E82FF0E0E05BD6
S1130390FB4F9081986090838F5F8830B0F380E04A
S11303A008C0E82FF0E0E059FB4F908198609083FB
S11303B08F5F8830B0F380E008C0E82FF0E0E057AA
S11303C0FB4F9081986090838F5F8830B0F380E01A
S11303D008C0E82FF0E0E055FB4F908198609083CF
S11303E08F5F8830B0F308950E94AB0189B18F7B91
S11303F089B988B1806488B90E94A0010E94F00282
S11304000E94A8010E94F2020E9492020E949C0192
S1130410089590E00AC09F5F9430C0F48F5F80938A
S11304201240843010F01092124080911240282F14
S113043030E042E3429FF001439FF00D1124E9565E
S1130440FF4B4081442339F381E001C080E08823DD
S113045049F042E3429FC001439F900D1124895605
S11304609F4B089580E090E0089590E00AC09F5F5C
S11304709430C0F48F5F80931140843010F0109258
S1130480114080911140282F30E042E3429FF00157
S1130490439FF00D1124E956FF4B40814111E7CFF2
S11304A081E001C080E0882349F042E3429FC0011B
S11304B0439F900D112489569F4B089580E090E04E
S11304C0089580915F410895CF9390915F4181E0B9
S11304D0911180E0C82F911105C081E080935F41A4
S11304E00E9428038C2FCF91089580915F41882327
S11304F039F0E0E2F8E085818F7D858310925F41D9
S1130500089528B12D7F28B9E1E5F4E02081277F03
S1130510208329B12E7F29B928B1216028B90E94EE
S11305200603089584E8E3E1F0E4DF011D928A956F
S1130530E9F780E090E00AC022E3289FF001299FB8
S1130540F00D1124E956FF4B108201968430910579
S11305509CF360E875E280E090E00E9481021092D2
S1130560004008950F931F93CF93DF932091004091
S1130570211127C0009739F18C010E943502C8EC83
S1130580D0E00BC0209709F021970E9461028823D4
S113059011F02097B9F70E943502009711F42097C3
S11305A0A1F7009791F01F930F939F938F930E944D
S11305B03D050E9464020F900F900F900F9080E011
S11305C005C081E003C081E001C081E0DF91CF91EB
S11305D01F910F9108951BBEFC0164BF40830895D1
S11305E080E00895E0E0FBE081E0858320E43CE9DD
S11305F02487358793E090838683E0E3FBE085835B
S1130600248735879083868380E008950E9442047E
S113061020E030E040E851E40E94D0049B01AC01AA
S113062060E07BE187EB9EE40E94A10320E030E0E0
S113063040E05FE30E9435030E941304E0E2F8E027
S11306406087718780E8858380EC868380E00895E5
S1130650E0E2F8E086818064868385818062858318
S113066008958091200808955058BB27AA270E9416
S11306704C030C9496040E94880438F00E948F0462
S113068020F039F49F3F19F426F40C9485040EF4F9
S1130690E095E7FB0C947F04E92F0E94A70458F32C
S11306A0BA17620773078407950720F079F4A6F553
S11306B00C94C9040EF4E0950B2EBA2FA02D0B0157
S11306C0B90190010C01CA01A0011124FF27591B93
S11306D099F0593F50F4503E68F11A16F040A22F99
S11306E0232F342F4427585FF3CF4695379527950A
S11306F0A795F0405395C9F77EF41F16BA0B620B09
S1130700730B840BBAF09150A1F0FF0FBB1F661F4F
S1130710771F881FC2F70EC0BA0F621F731F841F92
S113072048F4879577956795B795F7959E3F08F0B8
S1130730B0CF9395880F08F09927EE0F979587957A
S113074008950E94B5030C9496040E948F0458F0F7
S11307500E94880440F029F45F3F29F00C947F0440
S113076051110C94CA040C9485040E94A70468F3E4
S11307709923B1F3552391F3951B550BBB27AA2756
S113078062177307840738F09F5F5F4F220F331F90
S1130790441FAA1FA9F335D00E2E3AF0E0E832D058
S11307A091505040E695001CCAF72BD0FE2F29D05B
S11307B0660F771F881FBB1F261737074807AB072D
S11307C0B0E809F0BB0B802DBF01FF2793585F4FA2
S11307D03AF09E3F510578F00C947F040C94CA04BF
S11307E05F3FE4F3983ED4F3869577956795B79584
S11307F0F7959F5FC9F7880F911D9695879597F98F
S11308000895E1E0660F771F881FBB1F6217730707
S11308108407BA0720F0621B730B840BBA0BEE1F1C
S113082088F7E09508950E94AF0488F09F5798F0E8
S1130830B92F9927B751B0F0E1F0660F771F881FE1
S1130840991F1AF0BA95C9F714C0B13091F00E94FB
S1130850C904B1E008950C94C904672F782F882740
S1130860B85F39F0B93FCCF3869577956795B39522
S1130870D9F73EF490958095709561957F4F8F4F91
S11308809F4F0895E89409C097FB3EF49095809596
S1130890709561957F4F8F4F9F4F9923A9F0F92F42
S11308A096E9BB279395F695879577956795B795C0
S11308B0F111F8CFFAF4BB0F11F460FF1BC06F5FA6
S11308C07F4F8F4F9F4F16C0882311F096E911C0B8
S11308D0772321F09EE8872F762F05C0662371F0D9
S11308E096E8862F70E060E02AF09A95660F771FED
S11308F0881FDAF7880F9695879597F9089597F9E1
S11309009F6780E870E060E008959FEF80EC0895B1
S113091000240A94161617061806090608950024DA
S11309200A9412161306140605060895092E039454
S1130930000C11F4882352F0BB0F40F4BF2B11F4C8
S113094060FF04C06F5F7F4F8F4F9F4F089557FD27
S11309509058440F551F59F05F3F71F04795880F29
S113096097FB991F61F09F3F79F0879508951216C0
S113097013061406551FF2CF4695F1DF08C016166C
S113098017061806991FF1CF86957105610508941D
S11309900895E894BB2766277727CB0197F9089534
S11309A00E94E3040C9496040E94880438F00E9488
S11309B08F0420F0952311F00C947F040C9485048B
S11309C011240C94CA040E94A70470F3959FC1F3E8
S11309D0950F50E0551F629FF001729FBB27F00DE9
S11309E0B11D639FAA27F00DB11DAA1F649F66273E
S11309F0B00DA11D661F829F2227B00DA11D621F8D
S1130A00739FB00DA11D621F839FA00D611D221F46
S1130A10749F3327A00D611D231F849F600D211D2A
S1130A20822F762F6A2F11249F5750409AF0F1F0AD
S1130A3088234AF0EE0FFF1FBB1F661F771F881F16
S1130A4091505040A9F79E3F510580F00C947F04CB
S1130A500C94CA045F3FE4F3983ED4F386957795EB
S1130A606795B795F795E7959F5FC1F7FE2B880FBC
S1130A70911D9695879597F908950F931F93CF939A
S1130A80DF93CDB7DEB72E97CDBFDEBF0D891E89AC
S1130A9086E08C8309831A838FEF9FE78D839E837F
S1130AA0AE01475E5F4F6F89788DCE0101960E943B
S1130AB06605EF81F885E00FF11F10822E96CDBFF9
S1130AC0DEBFDF91CF911F910F9108952F923F9236
S1130AD04F925F926F927F928F929F92AF92BF924A
S1130AE0CF92DF92EF92FF920F931F93CF93DF93F6
S1130AF0CDB7DEB72B97CDBFDEBF6C017B018A017A
S1130B00FC0116821782838181FFCCC1CE0101963C
S1130B103C01F6019381F70193FD859193FF819147
S1130B207F01882309F4BAC1853239F493FD859194
S1130B3093FF81917F01853229F4B60190E00E94F0
S1130B408007E7CF912C212C312CFFE1F315D8F04D
S1130B508B3279F038F4803279F08332A1F4232D8A
S1130B6020611DC08D3261F0803369F4232D216032
S1130B7016C0832D8260382EE32DE4603E2E2AC0F9
S1130B80F32DF8601DC037FC2DC020ED280F2A304E
S1130B9040F08E32B9F436FC81C1232D2064322E0C
S1130BA019C036FE06C08AE0989E200D1124922EAC
S1130BB011C0EAE02E9E200D1124222EF32DF062A6
S1130BC03F2E08C08C3621F4832D8068382E02C055
S1130BD0883641F4F70193FD859193FF81917F015C
S1130BE08111B3CF982F9F7D9554933028F40C5FD7
S1130BF01F4F9FE399830DC0833631F0833771F023
S1130C00833509F059C021C0F801808189830E5FC2
S1130C101F4F88248394912C530113C02801F2E0C0
S1130C204F0E511CF801A080B18036FE03C0692D1F
S1130C3070E002C06FEF7FEFC5010E9475074C01A1
S1130C408201F32DFF773F2E16C0280122E0420EC9
S1130C50511CF801A080B18036FE03C0692D70E0FC
S1130C6002C06FEF7FEFC5010E946A074C01F32DAC
S1130C70F0683F2E820133FC1BC0822D90E0881661
S1130C809906B0F4B60180E290E00E9480072A94AD
S1130C90F4CFF50137FC859137FE81915F01B601F0
S1130CA090E00E94800721102A9421E0821A910882
S1130CB08114910471F7E8C0843611F0893641F546
S1130CC0F80137FE07C060817181828193810C5FD6
S1130CD01F4F08C060817181072E000C880B990B8F
S1130CE00E5F1F4FF32DFF763F2E97FF09C090959F
S1130CF08095709561957F4F8F4F9F4FF0683F2E81
S1130D002AE030E0A3010E94BC07882E861845C063
S1130D10853731F4232D2F7EB22E2AE030E025C012
S1130D20932D997FB92E8F36C1F018F4883579F058
S1130D30B5C0803719F0883721F0B0C0E92FE061E1
S1130D40BE2EB4FE0DC0FB2DF460BF2E09C034FED0
S1130D500AC0292F2660B22E06C028E030E005C064
S1130D6020E130E002C020E132E0F801B7FE07C024
S1130D7060817181828193810C5F1F4F06C0608105
S1130D80718180E090E00E5F1F4FA3010E94BC07B9
S1130D90882E8618FB2DFF773F2E36FE0DC0232D9F
S1130DA02E7FA22E891458F434FE0BC032FC09C0E5
S1130DB0832D8E7EA82E05C0B82CA32C03C0B82C7E
S1130DC001C0B92CA4FE0FC0FE01E80DF11D808105
S1130DD0803321F49A2D997EA92E09C0A2FE06C063
S1130DE0B394B39404C08A2D867809F0B394A3FC19
S1130DF011C0A0FE06C0B21488F4280C922C9B18D3
S1130E000EC0B21460F4B60180E290E00E94800744
S1130E10B394F7CFB21418F42B1802C0982C212CD9
S1130E20A4FE10C0B60180E390E00E948007A2FEF9
S1130E3017C0A1FC03C088E790E002C088E590E0F9
S1130E40B6010CC08A2D867859F0A1FE02C08BE24F
S1130E5001C080E2A7FC8DE2B60190E00E94800709
S1130E60891438F4B60180E390E00E9480079A94D4
S1130E70F7CF8A94F301E80DF11D8081B60190E06B
S1130E800E9480078110F5CF222009F442CEB601DA
S1130E9080E290E00E9480072A94F6CFF6018681D2
S1130EA0978102C08FEF9FEF2B96CDBFDEBFDF91FE
S1130EB0CF911F910F91FF90EF90DF90CF90BF9053
S1130EC0AF909F908F907F906F905F904F903F90E6
S1130ED02F900895FC010590615070400110D8F7DF
S1130EE0809590958E0F9F1F0895FC01615070406E
S1130EF001900110D8F7809590958E0F9F1F08954B
S1130F000F931F93CF93DF93FB01238121FD03C034
S1130F108FEF9FEF2CC022FF16C04681578124819A
S1130F2035814217530744F4A081B1819D012F5F9D
S1130F303F4F208331838C93268137812F5F3F4F2E
S1130F402683378314C08B01EC01FB010084F185F7
S1130F50E02D0995892BE1F6D80116968D919C9187
S1130F601797019616968D939C931797CE01DF9150
S1130F70CF911F910F910895FA01AA27283051F1BA
S1130F80203181F1E8946F936E7F6E5F7F4F8F4FB6
S1130F909F4FAF4FB1E03ED0B4E03CD0670F781F15
S1130FA0891F9A1FA11D680F791F8A1F911DA11DFA
S1130FB06A0F711D811D911DA11D20D009F4689433
S1130FC03F912AE0269F11243019305D3193DEF6DB
S1130FD0CF010895462F4770405D4193B3E00FD091
S1130FE0C9F7F6CF462F4F70405D4A3318F0495D7C
S1130FF031FD4052419302D0A9F7EACFB4E0A6955F
S11310009795879577956795BA95C9F70097610580
S1131010710508959B01AC010A2E069457954795D6
S113102037952795BA95C9F7620F731F841F951FCB
S10B1030A01D0895F894FFCF00
S10D1038014142432E2E2E0A00004F
S9030000FC
