S0110000466C6578466F7838302E73726563EF
S11300000C94D1000C94F0000C94F0000C94F000CB
S11300100C94F0000C94F0000C94F0000C94F50097
S11300200C94F0000C94F0000C94F0000C94F0008C
S11300300C94D0020C9404010C94F0000C94F00085
S11300400C94F0000C94F0000C94F0000C94F0006C
S11300500C94F0000C94F0000C94F0000C94F0005C
S11300600C94F0000C94F0000C94F0000C94F0004C
S11300700C94F0000C94F0000C9417010C945801AB
S11300800C947F020C94F0000C94F0000C94F0009B
S11300900C94F0000C94F0000C94F0000C94F0001C
S11300A00C94F0000C942A010C94F0000C94F000D1
S11300B00C94F0000C94F0000C94F0000C94F000FC
S11300C00C94F0000C94F0000C94F0000C94F000EC
S11300D00C94F0000C94F0000C94F0000C94F000DC
S11300E00C94F0000C94F0004507090735074D0700
S11300F039074D0719070507110715074D07290784
S1130100FD062D07F9060D07D106D506D906DD062D
S1130110E106E506E906ED06F106F5061D072107E9
S1130120490725074D0701073D0769066D06710656
S1130130750679067D068106850689068D06910673
S1130140950699069D06A106A506A906AD06B10663
S1130150B506B906BD06C106C506C906CD064D07D6
S11301604D074D074D0731074D074D074D074D0707
S11301704D074D074D074D074D074D074D074D07DB
S11301804D074D074D074D074D074D074D074D07CB
S11301904D074D074D074D074D074D074D074D07BB
S11301A0410711241FBECFEFCDBFDFE7DEBF10E450
S11301B0A0E0B0E4ECEFFBE100E00BBF02C007906D
S11301C00D92AA36B107D9F722E4AAE6B0E401C039
S11301D01D92A032B207E1F70E9435040C94FC0D85
S11301E00C9400000E94970408951F920F920FB67A
S11301F00F9211248F9381E080930B0A8F910F90BB
S11302000FBE0F901F9018951F920F920FB60F926A
S113021011248F938091160B80FF03C081E080939B
S1130220160B8F910F900FBE0F901F9018951F9271
S11302300F920FB60F9211248F938091260B80FF9B
S113024003C081E08093260B8F910F900FBE0F9017
S11302501F9018951F920F920FB60F9211242F938F
S11302603F938F939F938091360B80FF18C08091AA
S11302707740909178409C012F5F3F4F20937740C7
S1130280309378408B32914039F410927740109239
S113029078408AB180648AB981E08093360B9F915B
S11302A08F913F912F910F900FBE0F901F90189533
S11302B01F920F920FB60F9211240BB60F920F9349
S11302C01F932F933F934F935F936F937F938F93DA
S11302D09F93AF93BF93CF93DF93EF93FF930E94CA
S11302E00209182F8091754090917640892B31F442
S11302F00E94A7058093754090937640C091754005
S1130300D0917640209709F4E3C0812F90E00E94B9
S1130310170B843211F0813249F510927440813206
S113032011F483E001C081E088831092734010923D
S11303306F4010927040109271401092724081E0B0
S113034080936E4010926D400AC0FE0105E1809FCB
S1130350E00DF11D112413828F5F80936D40809115
S11303606D40833090F310926D40A7C090916E4021
S1130370992309F48BC08C3229F08B3319F08F3315
S113038009F042C090916D40992389F0292F30E003
S1130390215031094091734055E1529FF001539F20
S11303A0F00D1124EC0FFD1FE40FF11D13829F5F6C
S11303B090936D40109273408B3369F48091744034
S11303C0843030F080916F409091704089839A839B
S11303D010926E4010C08F3371F482E08883809154
S11303E07440843030F080916F40909170408983E4
S11303F09A8310926E4080916E4081115EC010927B
S113040075401092764059C020916D40211129C049
S113041040916F4050917040609171407091724072
S1130420440F551F661F771F8A019B01000F111F80
S1130430221F331F000F111F221F331F400F511F94
S1130440621F731F8A019B01080F111D211D311D9D
S113045000936F401093704020937140309372402A
S11304602CC030E0215031099091734041E0490F94
S11304704093734065E1629FA001639F500D112476
S1130480C40FD51FC90FD11D8B8317C08D30A9F49C
S113049019821A8282E380937440109273401092FE
S11304A06F401092704010927140109272401092FE
S11304B06D401092754010927640809174408F5F29
S11304C080937440823320F010926E4010927440F6
S11304D0FF91EF91DF91CF91BF91AF919F918F9158
S11304E07F916F915F914F913F912F911F910F9148
S11304F00F900BBE0F900FBE0F901F9018951F9278
S11305000F920FB60F9211240BB60F922F933F93B5
S11305104F935F936F937F938F939F93AF93BF9307
S1130520EF93FF9380916B4090916C40892B31F451
S11305300E944F0580936B4090936C40E0916B4018
S1130540F0916C4080916A40DF01A80FB11D9C912D
S1130550992331F08F5F80936A40909322080DC0F5
S113056010926A4010820E944F0580936B409093D2
S11305706C40892B11F40E94E805FF91EF91BF9123
S1130580AF919F918F917F916F915F914F913F9127
S11305902F910F900BBE0F900FBE0F901F901895C8
S11305A01F920F920FB60F9211240BB60F922F9336
S11305B03F934F935F936F937F938F939F93AF93E7
S11305C0BF93EF93FF93CF93DF9300D01F92CDB7E8
S11305D0DEB78091060B80FF30C180917A40909104
S11305E07B40892B49F080917A4090917B40019720
S11305F080937A4090937B408091AB40882309F4A8
S113060086C08091AC40882309F481C080917D40EC
S113061090917E40A0917F40B091804018161906B9
S11306201A061B060CF058C08091BC409091BD4046
S1130630009709F444C001978093BC409093BD4057
S1130640892B09F064C0AE014E5F5F4FBE016D5F40
S11306507F4F80E090E00E9451078093BE408B81E1
S1130660811125C08A81882311F18DEF809379400F
S1130670809103400E943C04809301409093024087
S113068081E08B8340E050E0BE016D5F7F4F81E8E5
S113069090E40E945107AE014E5F5F4FBE016D5F53
S11306A07F4F80E090E00E9451078093BE4080918C
S11306B0BE40882361F181E00E94C00828C0809177
S11306C0BE400E94C20880910140909102408093F4
S11306D0BC409093BD401BC080917D4090917E4072
S11306E0A0917F40B0918040892B8A2B8B2B79F489
S11306F08091BE40882359F01092BE4080E00E9451
S1130700C20880E00E94C0088EEF809379408091F7
S1130710BF40811142C08FEF8093C040198225C031
S1130720E981F0E0EE0FFF1FEC5FFF4B80819181C8
S1130730892B59F0E981F0E0EE0FFF1FEC5FFF4BCE
S113074080819181019780839183E981F0E0EE0FAC
S1130750FF1FEC5FFF4B80819181892B19F4898104
S11307608093C04089818F5F898389818530C0F2FD
S11307708091C04088230CF460C0880F990BFC0161
S1130780EA5AFF4B20813181FC01EC5FFF4B20834F
S1130790318381E08093BF4050C01092C1401092D9
S11307A0C2404091C040842F042E000C990BFC01E0
S11307B0EE0FFF1FEE54FF4B20813181FC01E35506
S11307C0FF4B51E0508341112DC0FC01EE0FFF1F80
S11307D0E05AFF4B408151814217530760F4FC01FA
S11307E0EE0FFF1FEC5FFF4B24E630E020833183E4
S11307F020E030E019C02115310511F021503109F4
S113080041E040937C40243744E0340718F01092D0
S113081000400AC02D3842E0340730F041E04093F4
S1130820004002C020E030E0880F991FFC01EE5424
S1130830FF4B208331831092BF402396CDBFDEBF90
S1130840DF91CF91FF91EF91BF91AF919F918F91E4
S11308507F916F915F914F913F912F910F900BBEBC
S11308600F900FBE0F901F9018950E94F20081E127
S113087090E40E942506FFCF80E090E00895109256
S1130880890080E0089544E268ED88E690E00E94E3
S11308904A0880E00895789480E0089580E008C0D4
S11308A0E82FF0E0E05FFB4F9081986090838F5FCA
S11308B08830B0F380E008C0E82FF0E0E05DFB4F43
S11308C09081986090838F5F8830B0F380E008C097
S11308D0E82FF0E0E05BFB4F9081986090838F5F9E
S11308E08830B0F380E008C0E82FF0E0E059FB4F17
S11308F09081986090838F5F8830B0F380E008C067
S1130900E82FF0E0E057FB4F9081986090838F5F71
S11309108830B0F380E008C0E82FF0E0E055FB4FEA
S11309209081986090838F5F8830B0F308950E941F
S11309304E0489B18F7B89B988B1806488B90E94DB
S113094043040E94AA080E944B040E94AC080E941F
S113095005060E943F04089580E090912509907C4B
S113096031F08091250984FD07C081E008C0909191
S113097025099C7019F403C082E001C084E0882337
S113098061F3089580E090912509907C29F4909179
S113099025099C7019F403C083E001C084E0882316
S11309A091F30895FF920F931F93CF93DF938B01DD
S11309B0D42F8E7F809327090E94AC048130E1F408
S11309C0DD23E1F00115110579F480E01AC0F80186
S11309D08081809328090E94AC04813089F4CF5F20
S11309E00F5F1F4FDF2D01C0C0E0FF24FA94FD0EFE
S11309F0D111EDCF8C2F05C08FEF03C080E001C073
S1130A008C2FDF91CF911F910F91FF900895FF924A
S1130A100F931F93CF93DF938B01D42F8160809327
S1130A2027090E94AC04813069F5F801808188238C
S1130A3031F0809328090E94AC04813029F5DD232C
S1130A4029F101151105B1F480E023C00E94C2040C
S1130A508330F1F480912809F8018083F11002C0F9
S1130A6087E001C082E080932409CF5F0F5F1F4FAE
S1130A70DF2D01C0C0E0FF24FA94FD0ED111E6CFB2
S1130A808C2F07C08FEF05C08FEF03C080E001C03B
S1130A908C2FDF91CF911F910F91FF90089590E0DB
S1130AA00AC09F5F9430C0F48F5F8093C540843048
S1130AB010F01092C5408091C540282F30E042E3E9
S1130AC0429FF001439FF00D1124E65BFE4B4081F1
S1130AD0442339F381E001C080E0882349F042E3F4
S1130AE0429FC001439F900D1124865B9E4B089545
S1130AF080E090E0089590E00AC09F5F9430C0F4D5
S1130B008F5F8093C440843010F01092C440809171
S1130B10C440282F30E042E3429FF001439FF00D90
S1130B201124E65BFE4B40814111E7CF81E001C017
S1130B3080E0882349F042E3429FC001439F900D27
S1130B401124865B9E4B089580E090E0089590E028
S1130B500AC09F5F9230C8F48F5F8093C340823095
S1130B6010F01092C3408091C340282F30E042E43B
S1130B70429FF001439FF00D1124EA53FF4B418142
S1130B805281452B31F781E001C080E0882349F090
S1130B9042E4429FC001439F900D11248A539F4B0E
S1130BA0089580E090E00895809112420895CF93D3
S1130BB09091124281E0911180E0C82F911105C0FB
S1130BC081E0809312420E94F9088C2FCF910895FE
S1130BD080911242882339F0E0E2F8E085818F7D2C
S1130BE0858310921242089528B12D7F28B9E1E53A
S1130BF0F4E02081277F208329B12E7F29B928B1F1
S1130C00216028B90E94D708089584E8E6ECF0E44E
S1130C10DF011D928A95E9F780E090E00AC022E3A3
S1130C20289FF001299FF00D1124E65BFE4B1082F2
S1130C300196843091059CF360E875E280E090E0D1
S1130C400E94F40510920E4008950F931F93CF93C2
S1130C50DF9320910E40211127C0009739F18C01B8
S1130C600E947B05C8ECD0E00BC0209709F02197C7
S1130C700E94D405882311F02097B9F70E947B05C0
S1130C80009711F42097A1F7009791F01F930F9309
S1130C909F938F930E941F0B0E94D7050F900F9074
S1130CA00F900F9080E005C081E003C081E001C097
S1130CB081E0DF91CF911F910F91089590E0FC01A5
S1130CC0B097ED35F10508F0E8C0EC58FF4F0C94EF
S1130CD00E0B62E072E085E0089561E074E089E063
S1130CE0089565E074E08BE0089561E073E087E0C7
S1130CF0089560E071E081E0089564E074E089E0C3
S1130D00089563E073E089E0089560E074E087E0AB
S1130D10089560E072E083E008956EE074E08DE091
S1130D20089565E073E089E0089562E074E089E085
S1130D30089563E072E087E0089561E072E085E081
S1130D40089567E073E08BE0089566E074E08BE05B
S1130D5008956BE074E08DE0089562E073E087E04D
S1130D60089560E073E085E0089561E071E083E058
S1130D70089564E073E087E0089568E074E089E032
S1130D80089566E073E089E0089569E074E08BE01B
S1130D9008956DE074E08DE0089563E074E08BE005
S1130DA008956FE175E083E108956EE175E081E1F6
S1130DB008956CE175E08FE0089568E175E08DE0D9
S1130DC0089560E175E08BE0089560E075E089E0E6
S1130DD0089561E075E08BE0089563E075E08DE0CF
S1130DE0089567E075E08FE008956FE075E081E1B4
S1130DF008956AE276E081E1089563E376E083E1B1
S1130E0008956CE076E08FE008956EE176E083E18A
S1130E10089565E376E083E1089569E075E08DE087
S1130E2008956DE075E08FE008956DE276E083E16A
S1130E30089562E075E08BE0089567E076E081E173
S1130E40089565E176E08CE0089561E175E08DE058
S1130E5008956AE075E08DE0089561E276E08FE040
S1130E6008956CE276E081E1089562E176E08FE036
S1130E70089568E477E081E1089566E176E081E130
S1130E8008956FEF77E084E008956EEF77E087E0F0
S1130E9008956FE175E083E1089560E070E080E01B
S1130EA00895CF93DF93EA010097B1F110921E42A7
S1130EB06115710521F0DB012C9120931040FC0198
S1130EC020812223D9F080931C4290931D4280E21A
S1130ED080930F40822F0E945E06609319427093A4
S1130EE01A4280931B421092184210921742109299
S1130EF0164210921542109214420AC010921C42DB
S1130F0010921D4281E080931442209709F0888357
S1130F101092134280E0BBC0E0911C42F0911D424C
S1130F20309709F4A5C06115710521F08091104036
S1130F30DB018C9380911442882349F0209709F4B3
S1130F40A3C081E0888310921E4280E0A0C08091FB
S1130F501642882321F08150809316427FC08091ED
S1130F601342882381F080911E4281110CC010929B
S1130F70134280911542882309F470C0809316426D
S1130F80109215426BC090911A42809117428917B2
S1130F9090F1809118428F5F80931842DF01A80F6F
S1130FA0B11D8C9180930F40811119C08091104024
S1130FB0882331F0808180930F40109218420FC033
S1130FC010921C4210921D421092134291E0909391
S1130FD01442209709F0988310921E4258C08091C1
S1130FE00F400E945E066093194270931A428093E8
S1130FF01B4210921742209119422D3F00F5409157
S1131000174231E0340F3093174281E090E002C080
S1131010880F991F4A95E2F7822321F082E080939A
S1131020164202C01092164281E0809313428091CE
S11310301A42381798F082E0809315420FC08091CD
S11310401A429FEF9093174210921342843020F07B
S113105084508093164202C01092164280910F4031
S11310608C3321F481E080931E4202C010921E4210
S1131070209719F080911442888380911E42811137
S113108005C08091134203C080E001C081E0DF917C
S1131090CF9108951BBEFC0164BF40830895CF9394
S11310A0C62F462FBC0180EC0E94D20491E0C813E5
S11310B001C090E0892FCF910895CF93C62F462F7A
S11310C0BC0180EC0E94070591E0C81301C090E0C8
S11310D0892FCF9108950F931F93CF93DF9300D05F
S11310E0CDB7DEB7182F062F83E0898361E0CE01E8
S11310F001960E945D08811123C09981002359F053
S113110021E030E002C0220F331F1A95E2F7822F4C
S11311108095892309C021E030E002C0220F331FEB
S11311201A95E2F7892F822B93E099838A8362E0F0
S1131130CE0101960E944F08882321F08CEF03C052
S11311408CEF01C080E00F900F90DF91CF911F9141
S11311500F91089580E00895E0E0FBE081E085834D
S113116020E43CE92487358793E090838683E0E399
S1131170FBE08583248735879083868380E0089508
S113118080E00895882361F080911F4281110EC090
S113119061E081E00E946B0881E080931F42089522
S11311A060E081E00E946B0810921F4208950E9443
S11311B0130A20E030E040E851E40E94A10A9B01B8
S11311C0AC0160E07BE187EB9EE40E94720920E0C1
S11311D030E040E05FE30E9406090E94E409E0E297
S11311E0F8E06087718780E8858380EC868380E0FF
S11311F00895E0E2F8E086818064868385818062D8
S1131200858308958091200808955058BB27AA2704
S11312100E941D090C94670A0E94590A38F00E9422
S1131220600A20F039F49F3F19F426F40C94560A0E
S11312300EF4E095E7FB0C94500AE92F0E94780A1B
S113124058F3BA17620773078407950720F079F4F7
S1131250A6F50C949A0A0EF4E0950B2EBA2FA02D45
S11312600B01B90190010C01CA01A0011124FF274F
S1131270591B99F0593F50F4503E68F11A16F0404A
S1131280A22F232F342F4427585FF3CF4695379549
S11312902795A795F0405395C9F77EF41F16BA0B0E
S11312A0620B730B840BBAF09150A1F0FF0FBB1FBC
S11312B0661F771F881FC2F70EC0BA0F621F731F05
S11312C0841F48F4879577956795B795F7959E3F62
S11312D008F0B0CF9395880F08F09927EE0F9795F3
S11312E0879508950E9486090C94670A0E94600AF3
S11312F058F00E94590A40F029F45F3F29F00C94F9
S1131300500A51110C949B0A0C94560A0E94780AB4
S113131068F39923B1F3552391F3951B550BBB2720
S1131320AA2762177307840738F09F5F5F4F220F65
S1131330331F441FAA1FA9F335D00E2E3AF0E0E85C
S113134032D091505040E695001CCAF72BD0FE2FA6
S113135029D0660F771F881FBB1F2617370748073A
S1131360AB07B0E809F0BB0B802DBF01FF279358F2
S11313705F4F3AF09E3F510578F00C94500A0C945C
S11313809B0A5F3FE4F3983ED4F38695779567957F
S1131390B795F7959F5FC9F7880F911D9695879527
S11313A097F90895E1E0660F771F881FBB1F621746
S11313B073078407BA0720F0621B730B840BBA0B04
S11313C0EE1F88F7E09508950E94800A88F09F57E1
S11313D098F0B92F9927B751B0F0E1F0660F771F55
S11313E0881F991F1AF0BA95C9F714C0B13091F04B
S11313F00E949A0AB1E008950C949A0A672F782FF4
S11314008827B85F39F0B93FCCF38695779567950F
S1131410B395D9F73EF490958095709561957F4F7B
S11314208F4F9F4F0895E89409C097FB3EF4909521
S11314308095709561957F4F8F4F9F4F9923A9F0A9
S1131440F92F96E9BB279395F69587957795679538
S1131450B795F111F8CFFAF4BB0F11F460FF1BC07C
S11314606F5F7F4F8F4F9F4F16C0882311F096E90F
S113147011C0772321F09EE8872F762F05C06623BD
S113148071F096E8862F70E060E02AF09A95660F76
S1131490771F881FDAF7880F9695879597F908952F
S11314A097F99F6780E870E060E008959FEF80EC13
S11314B0089500240A9416161706180609060895B6
S11314C000240A9412161306140605060895092E1C
S11314D00394000C11F4882352F0BB0F40F4BF2B8B
S11314E011F460FF04C06F5F7F4F8F4F9F4F0895CB
S11314F057FD9058440F551F59F05F3F71F04795C1
S1131500880F97FB991F61F09F3F79F087950895A5
S1131510121613061406551FF2CF4695F1DF08C0C4
S1131520161617061806991FF1CF869571056105E1
S113153008940895E894BB2766277727CB0197F989
S113154008950E94B40A0C94670A0E94590A38F05C
S11315500E94600A20F0952311F00C94500A0C9418
S1131560560A11240C949B0A0E94780A70F3959FE2
S1131570C1F3950F50E0551F629FF001729FBB2786
S1131580F00DB11D639FAA27F00DB11DAA1F649F22
S11315906627B00DA11D661F829F2227B00DA11DD5
S11315A0621F739FB00DA11D621F839FA00D611D5B
S11315B0221F749F3327A00D611D231F849F600D7C
S11315C0211D822F762F6A2F11249F5750409AF0A5
S11315D0F1F088234AF0EE0FFF1FBB1F661F771F31
S11315E0881F91505040A9F79E3F510580F00C94FC
S11315F0500A0C949B0A5F3FE4F3983ED4F386951B
S113160077956795B795F795E7959F5FC1F7FE2B9B
S1131610880F911D9695879597F90895EE0FFF1FF2
S11316200024001C0BBE0790F691E02D0994911143
S1131630089581568A5108F48052855808950F936D
S11316401F93CF93DF93CDB7DEB72E97CDBFDEBF09
S11316500D891E8986E08C8309831A838FEF9FE7A7
S11316608D839E83AE01475E5F4F6F89788DCE0177
S113167001960E94480BEF81F885E00FF11F10825C
S11316802E96CDBFDEBFDF91CF911F910F910895AC
S11316902F923F924F925F926F927F928F929F927E
S11316A0AF92BF92CF92DF92EF92FF920F931F936C
S11316B0CF93DF93CDB7DEB72B97CDBFDEBF6C01E1
S11316C07B018A01FC0116821782838181FFCCC1D0
S11316D0CE0101963C01F6019381F70193FD8591BA
S11316E093FF81917F01882309F4BAC1853239F4CB
S11316F093FD859193FF81917F01853229F4B60191
S113170090E00E94620DE7CF912C212C312CFFE157
S1131710F315D8F08B3279F038F4803279F08332D3
S1131720A1F4232D20611DC08D3261F0803369F452
S1131730232D216016C0832D8260382EE32DE460B2
S11317403E2E2AC0F32DF8601DC037FC2DC020EDBD
S1131750280F2A3040F08E32B9F436FC81C1232D93
S11317602064322E19C036FE06C08AE0989E200DF1
S11317701124922E11C0EAE02E9E200D1124222E57
S1131780F32DF0623F2E08C08C3621F4832D80683F
S1131790382E02C0883641F4F70193FD859193FFFA
S11317A081917F018111B3CF982F9F7D9554933000
S11317B028F40C5F1F4F9FE399830DC0833631F0EB
S11317C0833771F0833509F059C021C0F801808155
S11317D089830E5F1F4F88248394912C530113C077
S11317E02801F2E04F0E511CF801A080B18036FEB2
S11317F003C0692D70E002C06FEF7FEFC5010E9446
S1131800570D4C018201F32DFF773F2E16C028019E
S113181022E0420E511CF801A080B18036FE03C0C4
S1131820692D70E002C06FEF7FEFC5010E944C0D7F
S11318304C01F32DF0683F2E820133FC1BC0822D36
S113184090E088169906B0F4B60180E290E00E9418
S1131850620D2A94F4CFF50137FC859137FE81910E
S11318605F01B60190E00E94620D21102A9421E0EC
S1131870821A91088114910471F7E8C0843611F03A
S1131880893641F5F80137FE07C060817181828194
S113189093810C5F1F4F08C060817181072E000C7B
S11318A0880B990B0E5F1F4FF32DFF763F2E97FF8A
S11318B009C090958095709561957F4F8F4F9F4F8C
S11318C0F0683F2E2AE030E0A3010E949E0D882E8E
S11318D0861845C0853731F4232D2F7EB22E2AE099
S11318E030E025C0932D997FB92E8F36C1F018F4BE
S11318F0883579F0B5C0803719F0883721F0B0C049
S1131900E92FE061BE2EB4FE0DC0FB2DF460BF2EA6
S113191009C034FE0AC0292F2660B22E06C028E072
S113192030E005C020E130E002C020E132E0F801FF
S1131930B7FE07C060817181828193810C5F1F4F64
S113194006C06081718180E090E00E5F1F4FA301AB
S11319500E949E0D882E8618FB2DFF773F2E36FEA3
S11319600DC0232D2E7FA22E891458F434FE0BC0F3
S113197032FC09C0832D8E7EA82E05C0B82CA32C62
S113198003C0B82C01C0B92CA4FE0FC0FE01E80DA1
S1131990F11D8081803321F49A2D997EA92E09C0EE
S11319A0A2FE06C0B394B39404C08A2D867809F0CD
S11319B0B394A3FC11C0A0FE06C0B21488F4280C92
S11319C0922C9B180EC0B21460F4B60180E290E031
S11319D00E94620DB394F7CFB21418F42B1802C00E
S11319E0982C212CA4FE10C0B60180E390E00E9444
S11319F0620DA2FE17C0A1FC03C088E790E002C0FC
S1131A0088E590E0B6010CC08A2D867859F0A1FED5
S1131A1002C08BE201C080E2A7FC8DE2B60190E037
S1131A200E94620D891438F4B60180E390E00E94AC
S1131A30620D9A94F7CF8A94F301E80DF11D808129
S1131A40B60190E00E94620D8110F5CF222009F4C6
S1131A5042CEB60180E290E00E94620D2A94F6CF55
S1131A60F6018681978102C08FEF9FEF2B96CDBF41
S1131A70DEBFDF91CF911F910F91FF90EF90DF9028
S1131A80CF90BF90AF909F908F907F906F905F901A
S1131A904F903F902F900895FC0105906150704045
S1131AA00110D8F7809590958E0F9F1F0895FC0123
S1131AB06150704001900110D8F7809590958E0F79
S1131AC09F1F08950F931F93CF93DF93FB012381EF
S1131AD021FD03C08FEF9FEF2CC022FF16C046816B
S1131AE05781248135814217530744F4A081B18181
S1131AF09D012F5F3F4F208331838C932681378153
S1131B002F5F3F4F2683378314C08B01EC01FB0109
S1131B100084F185E02D0995892BE1F6D80116960C
S1131B208D919C911797019616968D939C93179778
S1131B30CE01DF91CF911F910F910895FA01AA2749
S1131B40283051F1203181F1E8946F936E7F6E5FFC
S1131B507F4F8F4F9F4FAF4FB1E03ED0B4E03CD0AA
S1131B60670F781F891F9A1FA11D680F791F8A1F8D
S1131B70911DA11D6A0F711D811D911DA11D20D0F4
S1131B8009F468943F912AE0269F11243019305DAE
S1131B903193DEF6CF010895462F4770405D41939F
S1131BA0B3E00FD0C9F7F6CF462F4F70405D4A33EC
S1131BB018F0495D31FD4052419302D0A9F7EACFB4
S1131BC0B4E0A6959795879577956795BA95C9F7E3
S1131BD000976105710508959B01AC010A2E0694D6
S1131BE05795479537952795BA95C9F7620F731F8F
S10F1BF0841F951FA01D0895F894FFCFDA
S1131BFC03320008600960096009F000F00001205C
S1131C0C014142432E2E2E0A00310045535000252B
S1131C1C6C750054494D004D2C257500504F5700E0
S1131C2C582C256400256C642C0046524500214236
S1131C3C4154002154454D00312E36005645520076
S1131C4C2141434B3B00600960096009F000F0003E
S10D1C5CF401F401F401F401F401B1
S9030000FC
