S0110000466C6578466F7838302E73726563EF
S11300000C94B0010C94DA010C94DA010C94DA012A
S11300100C94DA010C94DA010C94FD100C94DA01BE
S11300200C94DA010C94DA010C94DA010C94DA01E0
S11300300C9499150C94D9660C94DA010C94DA0199
S11300400C94DA010C94DA010C94DA010C94210872
S11300500C94290B0C94DA010C943D150C94DA01E0
S11300600C94E8330C94DA010C94DA010C94DA0160
S11300700C94DA010C94E3160C94EB070C94B30C77
S11300800C94580E0C94DA010C94DA010C94DA01F5
S11300900C94DA010C94DA010C94DA010C94DA0170
S11300A00C94DA010C94C7100C94DA010C94DA0164
S11300B00C94DA010C94DA010C94DA010C94DA0150
S11300C00C94DA010C94DA010C94DA010C94DA0140
S11300D00C94DA010C94DA010C94DA010C9465089E
S11300E00C94EE0B0C94DA01D02BE42BFA2B102C8D
S11300F0262C6C2D612D612C712C832C952CA72C16
S1130100E12CF12C032D152D272DF8440545D2445F
S1130110054505450545E0440545054505455A445D
S1130120054505450545054505450545054505457B
S1130130054505450545054505450545054505456B
S113014005450545054505458A44054505450545D7
S113015005450545054505450545BE44C844EE44E9
S113016031440545054505453F44054505450545D7
S11301704D443456CB55185642561F564256E755F1
S1130180C455D955E05542560356B6550A56AF558F
S1130190D2556A55715578557F5586558D55935569
S11301A09A55A155A855EE55F5553B56FC55425662
S11301B0BD552656B854BF54C654CD54D454DA54FD
S11301C0E154E854EE54F454FB54025509551055C7
S11301D017551E5525552C553355395540554755FA
S11301E04E5555555C5563554256425642564256F5
S11301F0115642564256425642564256425642566C
S1130200425642564256425642564256425642562A
S1130210425642564256425642564256425642561A
S1130220425642564256425642562D56646E6F6EA0
S11302307A6E856E906E9B6EA66EB16EBC6EC76E46
S1130240D26EDD6EE86EF36EFE6E096F146F1F6F73
S11302504E414E494E495459494E46CDCCCC3D0AA7
S1130260D7233C17B7D13877CC2B329595E6241F8A
S1130270B14F0A000020410000C84200401C462043
S1130280BCBE4CCA1B0E5AAEC59D744A616E7561E4
S11302907279204665627275617279204D6172636C
S11302A06820417072696C204D6179204A756E65D1
S11302B0204A756C79204175677573742053657095
S11302C074656D626572204F63746F626572204E4F
S11302D06F76656D62657220446563656D626572F3
S11302E0200053756E646179204D6F6E64617920CE
S11302F054756573646179205765646E65736461D0
S113030079205468757273646179204672696461F6
S113031079205361747572646179200053756E4D50
S11303206F6E547565576564546875467269536198
S113033074004A616E4665624D61724170724D612E
S1130340794A756E4A756C4175675365704F63746D
S11303504E6F7644656300009E326434AB32713470
S113036011241FBECFEFCDBFDFE7DEBF16E4A0E050
S1130370B0E4E0EAF1EF00E00BBF02C007900D9299
S1130380A23FB107D9F72BE4A2EFB6E401C01D9256
S1130390A330B207E1F711E0CEEAD1E004C021971F
S11303A0FE010E944372CC3AD107C9F70E946B1731
S11303B00C94C3780C9400009C0123703327232BE6
S11303C059F464E670E00E94EE71892B39F463708D
S11303D0772781E0672B19F080E0089581E0089584
S11303E06FEE7AE40E94F7018FEE9AE40895CF92BB
S11303F0DF92EF92FF920F931F93CF93DF9300D07E
S113040000D0CDB7DEB76C017B01E091FF4AF091DB
S1130410004B309729F06BEF7AE409958C0102C008
S11304200FEF1FEFF601408151816281738180914A
S1130430FB4A9091FC4AA091FD4AB091FE4A840F78
S1130440951FA61FB71F101611064CF4A801012E04
S1130450000C660B770B840F951FA61FB71F8983AB
S11304609A83AB83BC83B701CE0101960E947F06B9
S1130470F701028713872496CDBFDEBFDF91CF91AA
S11304801F910F91FF90EF90DF90CF90089562300D
S113049021F40E94DC01845E0895683008F06F5FE7
S11304A061708EE1860F08950FB6F8946093EB4A5D
S11304B07093EC4A8093ED4A9093EE4A0FBE0895F0
S11304C0CF92DF92EF920F936B01E82E7C2D6D2D6E
S11304D05E2DAE2DC6010196A11D442351F06C0181
S11304E0EA2EE72FF62F0E94B078603279F7415058
S11304F0EDCFF6010E94B0786C01EA2E80E0603204
S113050039F4F90110820F91EF90DF90CF900895A4
S11305108017B9F32F5F3F4FF901319760838F5FE5
S1130520F6015E2D0E94B0789FEFC91AD90AE90A34
S1130530E6CF2F923F924F925F926F927F928F926B
S11305409F92AF92BF92CF92DF92EF92FF920F935E
S11305501F93CF93DF93CDB7DEB7A297CDBFDEBF96
S11305602C0169A37AA34A017901612C712C9E01A3
S11305702F5F3F4F690184E6282E312C90E9A92E84
S113058096E4B92E29A13AA16216730608F0CDC2E9
S1130590D4018C91853209F0BCC211961C9115349A
S11305A031F01F3421F0B2E08B0E911C06C0F4012F
S11305B0128194012D5F3F4F4901193509F432C26C
S11305C00CF060C0193409F43FC144F5133409F444
S11305D0E7C054F4113409F4BEC00CF0CAC015329B
S11305E009F074C2198375C2163409F4EAC064F4BC
S11305F0143409F06BC2F70186819781B1010E941E
S1130600EE719F938F93E7C1173409F4F8C018343F
S113061009F05CC2D70112968C9130C1143509F4EB
S113062089C164F4123509F46EC10CF025C11D347E
S113063009F04CC2D70111968C9120C1163509F4EA
S1130640A5C10CF4A1C1173509F4B4C1183509F0DA
S11306503DC2F7018081282F082E000C330B3F93F5
S11306608F938181282F082E000C330B3F938F9397
S11306708281282F082E000C330B3F938F9388ED33
S113068096E4C0C11D3609F4F0C0ACF5143609F483
S113069094C074F4123609F466C00CF075C01136B7
S11306A009F014C203E09601D70114964C9157C087
S11306B0173609F4A4C074F4153609F007C2F7011B
S11306C08381282F082E000C330B3F938F9385E9E9
S11306D096E4C8C0183609F446C01A3609F0F6C1C3
S11306E0D70118968D919C91199701969F938F939A
S11306F08BEA96E4B7C0153709F435C1B4F4103762
S113070009F4C2C034F41E3609F0E0C18AE08983DA
S1130710E0C1123709F4C6C0143709F0D7C161EC3F
S113072076E4C6010E94F573D4C1183709F448C1B0
S11307305CF4173709F0CAC1F7018481282F082E09
S1130740000C330B3F9374C1193709F45EC11A3797
S113075009F47EC1BBC10FEF9601F701448162EE3B
S113076072E080E00DC003E09601D70115964C912C
S113077004C00FEF9601F70145816BE872E080E059
S11307800E94600290E0A7C1B601C7010E94FC0567
S1130790F601CF018C199D0921912111FACF9BC13A
S11307A0D70116968D919C9117978459984FB10152
S11307B00E94EE717F936F933BC0D70113968C9187
S11307C05DC0D70113968C911397282F082E000C27
S11307D0330B3F938F9315968C911597082E000C2D
S11307E0990B01969F938F9316968D919C911797D1
S11307F08459984F9F938F9389E996E403C1D70155
S113080018966D917C91199716968D919C911797D6
S1130810AE01455E5F4F8459984F0E9455071736C5
S113082051F48B8D9C8DB1010E94EE719F938F9337
S1130830E1EAF6E4A6C08C8D8F938B8D8F9346EA04
S113084056E45F934F93F9C0F70182816CE00E94F4
S1130850A278992321F0892F990F990BDEC08CE09F
S113086090E0DBC09F938F93E8C0F7018581082E49
S1130870000C990B0196D1C0D7018C91282F082E1A
S1130880000C330B3F93CAC081E48983F701828152
S11308908C3014F080E589838DE48A831B8282E0A6
S11308A090E019C1D70112968C916CE00E94A27855
S11308B0992321F0892F990F990B02C08CE090E0C5
S11308C0F7012081422F022E000C550B5F932F93CA
S11308D02181422F022E000C550B5F932F939F937F
S11308E08F9320EB36E43F932F93DF92CF920E94B5
S11308F03174CDBFDEBFF70122812C300CF4EBC084
S113090020E52B87E8C0D70111968C911197282FE9
S1130910082E000C330B3F938F9312968C91282F43
S1130920082E000C330B3F938F9388EC96E49F932F
S11309308F93C5C0F7018081282F082E000C330B3C
S11309403F938F938181282F082E000C330B3F9304
S11309508F938281282F082E000C330B3F938F93A3
S113096083EC96E44FC0D70114968C91082E000CAA
S1130970990B009711F487E090E09F938F93E2ED39
S1130980F6E4FF93EF9359C060E015C0D7011896C1
S11309906D917C91199716968D919C911797AE0144
S11309A0455E5F4F8459984F0E9455078E8D8F93F3
S11309B08D8D34C061E0C7010E94C1051F922EC015
S11309C0D70116968D919C911797B1010E94EE71F3
S11309D09F938F93F7018381282F082E000C330BEC
S11309E03F938F938581082E000C990B01969F935A
S11309F08F9326E836E43F932F93DF92CF920E94A1
S1130A00317461C09F938F93F8CFD70116968D915F
S1130A109C911797B1010E94EE719F938F93BF929F
S1130A20AF920BC0F701868197818459984F9F93A9
S1130A308F9325ED36E43F932F93DF92CF920E945C
S1130A4031740F900F900F900F900F900F9043C040
S1130A506091FB4A7091FC4A8091FD4A9091FE4A54
S1130A602CE330E040E050E00E94247289019A01B6
S1130A70F801D7011A968D919C911B976CE370E055
S1130A800E94EE71161617061CF4FB01E00FF11F0D
S1130A90CF016CE370E00E94EE7197FF03C0919563
S1130AA0819591099F938F93CF016CE370E00E942D
S1130AB0EE717F936F93E7EEF6E4FF93EF93DF928B
S1130AC0CF920E943174CDBFDEBF05C08FE389830E
S1130AD01A8281E090E09301280F391FA9A1BAA1DD
S1130AE02A173B0798F4D201F601AF014C195D09AE
S1130AF0481759071CF441914D93F7CF97FF02C053
S1130B0080E090E0480E591E39013CCDF20110827C
S1130B100EC0D2018D932D01BFEF6B1A7B0A88237F
S1130B2031F0EFEF8E1A9E0A2DCDD2011C92C30133
S1130B30A296CDBFDEBFDF91CF911F910F91FF90A1
S1130B40EF90DF90CF90BF90AF909F908F907F9069
S1130B506F905F904F903F902F900895FC010FB6D7
S1130B60F8946091EB4A7091EC4A8091ED4A90912F
S1130B70EE4A0FBE309721F06083718382839383A2
S1130B800895FC0120853185C90107964481841BA1
S1130B90910947FD9395860F911DE7E0F0E0BF01B1
S1130BA00E94EE71A901481B590BCA0157FD06C0EA
S1130BB0BF010E94EE7181E0860F089580E00895E0
S1130BC08F938FB78F93F8948091EB4A8F5F8093C4
S1130BD0EB4A8091EC4A8F4F8093EC4A8091ED4A26
S1130BE08F4F8093ED4A8091EE4A8F4F8093EE4A67
S1130BF08F918FBF8F910895CF92DF92EF92FF92E2
S1130C000F931F93CF93DF938C01EB01FC0184813D
S1130C10B82FBB0FB80F8581782F770F780F9E01FF
S1130C2040E08B2F840F90E0A0E0845E9C4FAF4F98
S1130C30FC015A2F0E94B078F90161939F01872F1C
S1130C40840F90E0A0E08E5C9C4FAF4FFC015A2FC4
S1130C500E94B078F90163834F5F433011F780E25B
S1130C608F838B83BE01685F7F4FF801838140E2ED
S1130C70082E000C990B0E94CF07BE01655F7F4FC1
S1130C80F80182814AE3082E000C990B0E94CF07D9
S1130C90BE01625F7F4FF80181814AE3082E000C98
S1130CA0990B0E94CF07BE016F5E7F4FF8018081D0
S1130CB040E2082E000C990B0E94CF07F8018681B0
S1130CC0978164E670E08459984F0E94EE716B013D
S1130CD07C01BE016C5E7F4F40E2C6010E94CF07DB
S1130CE0BE016A5E7F4F40E0C701DF91CF911F9143
S1130CF00F91FF90EF90DF90CF900C94CF07CF929D
S1130D00DF92EF92FF920F931F93CF93DF93CDB7B0
S1130D10DEB72897CDBFDEBF8B01FC0160817181F6
S1130D208281938120E831E541E050E00E94027223
S1130D3069017A012CE330E040E050E00E94247223
S1130D4029833A834B835C8389819A81AB81BC81FB
S1130D50F80160836CE370E00E94EE71DC01CB016A
S1130D60F801A1838283C601069667E070E00E94C1
S1130D70DA7184832DEA3EE840E050E0C701B60111
S1130D800E94247229833A836D837E838F8398879C
S1130D9089819A8124E6289F6001299FD00C11241F
S1130DA06D817E818F81988525EB35E040E050E0B0
S1130DB00E94247229833A836D837E83E980FA80BA
S1130DC0EE0CFF1CEE0CFF1CEC0CFD1C8D819E81B7
S1130DD0F5E6EF16F10410F0019604C024E6E216DD
S1130DE0F10419F021E030E002C020E030E0A90174
S1130DF044595E4F4817590768F46DE671E0821B49
S1130E00930B0E94EE71DC01CB01E80EF91ECD01BB
S1130E1020E030E044E6E40EF11CF801E682F782BB
S1130E2080879187255C3F4F8217930748F46FE1D1
S1130E3070E00E94EE71DC01CB01F801858322C0D1
S1130E4069E970E0821B930B0E94EE71DC01CB0117
S1130E50F82EFF0CFF0CF80E6DE370E0CD010E943C
S1130E60EE71DC01CB01E82EEE0C6FE170E0CD01F8
S1130E700E94EE71DC01CB0122E0280FF20EFE0C81
S1130E80F801F582A383F8011286138683818F5FAC
S1130E9083832896CDBFDEBFDF91CF911F910F9141
S1130EA0FF90EF90DF90CF900895CF92DF92EF9272
S1130EB0FF920F931F93CF93DF938C017B01EA0181
S1130EC0888399830E94DC01282FA801405D574044
S1130ED06DE671E0469FC001479F900D569F900DAF
S1130EE011248E0D9F1D4115510579F0BA01769597
S1130EF06795769567956F5F7F4F860F971F821B67
S1130F0091094536510508F00197069667E070E0AF
S1130F100E94DA716C01892B19F487E0C82ED12C58
S1130F20CC82DD82C7010B968C199D0967E070E0C5
S1130F300E94EE7165337105B1F481E0C81AD108DD
S1130F40EC18FD08822F90E084599E4F23E0E20EB6
S1130F50F11C8E159F053CF4888199810196888344
S1130F60998361E070E06A837B83672B79F4015095
S1130F701109C8010E94DC01682F70E064597E4F9A
S1130F80AE01C8010E945507CC82DD82DF91CF916A
S1130F901F910F91FF90EF90DF90CF9008951F93D2
S1130FA0CF93DF93EB01142F6AE070E00E94EE719F
S1130FB0605D6883805D89831A83DF91CF911F917F
S1130FC00895CF93DF93CDB7DEB70E94513B000065
S1130FD0DF91CF9108951F920F9200903F000F92DE
S1130FE0112400903B000F922F938F939F93EF93C4
S1130FF0FF93CF93DF93CDB7DEB780E29BE0FC0194
S11310008681882F90E08170992721E0892B09F44B
S113101020E0222329F080E29BE021E0FC012683EA
S11310200000DF91CF91FF91EF919F918F912F91CC
S11310300F9000923B000F9000923F000F901F9082
S113104018951F920F9200903F000F921124009068
S11310503B000F922F933F934F935F936F937F9334
S11310608F939F93AF93BF93EF93FF93CF93DF93AC
S11310701F92CDB7DEB70E946C6A898380912240AB
S1131080882319F489810E94F70C809125408823D4
S113109019F489810E94A90800000F90DF91CF9173
S11310A0FF91EF91BF91AF919F918F917F916F913C
S11310B05F914F913F912F910F9000923B000F90C1
S11310C000923F000F901F9018951F920F9200906E
S11310D03F000F92112400903B000F922F933F93F7
S11310E04F935F936F937F938F939F93AF93BF932C
S11310F0EF93FF93CF93DF931F92CDB7DEB70E9498
S1131100786B898380912240843019F489810E940C
S1131110F70C80912540843019F489810E94A90834
S113112000000F90DF91CF91FF91EF91BF91AF91AC
S11311309F918F917F916F915F914F913F912F91EB
S11311400F9000923B000F9000923F000F901F9071
S11311501895CF93DF93CDB7DEB72A97CDBFDEBF07
S11311608A878091F2469091F346892B31F40E944C
S1131170E2588093F2469093F3468091F246909120
S1131180F346892B09F45EC28A85882F90E00E9479
S1131190D0738A878091F446882339F01A86809127
S11311A0F44681508093F4464DC28A858B3191F484
S11311B01A868091F546843148F48091F546882F4B
S11311C090E08A50994BFC0180818A8782E0809369
S11311D0F44638C28A858D3009F060C08091284772
S11311E0882309F441C08091F5468823D1F1809188
S11311F0F2469091F34622E0FC0120838091F2466E
S11312009091F3462091294730912A47FC0121838C
S1131210328380912B478823E1F04091F24650912C
S1131220F34680912B47882F90E0BC0161507109EF
S113123080912C47882F90E0E4E1E69F9001E79F9E
S1131240300D1124240F351F820F931F0396FC01C8
S113125010828091F546882F90E08A50994BFC01CA
S113126010820E94D35A09C08091F2469091F346AD
S11312702FEF3FEFFC01218332831092F546109249
S11312802C471092294710922A4710922B4710920C
S1131290F2461092F34610922847D4C18A858823D7
S11312A009F4D0C18091F546882F90E08A50994B7B
S11312B02A85FC0120838091F546882309F47CC1AA
S11312C08A858F3709F0A1C08091F54681508093BB
S11312D0F54680912B47882329F5209129473091A1
S11312E02A478091F546882F90E08A50994BFC015B
S11312F08081882F90E0A901481B590BCA01809373
S1131300294790932A478091294790912A472AE0B8
S113131030E0B9010E94EE71CB018093294790938C
S11313202A4763C080912C47882311F180912C4770
S1131330815080932C474091F2465091F34680911E
S11313402B47882F90E0BC016150710980912C4794
S1131350882F90E0E4E1E69F9001E79F300D11248F
S1131360240F351F820F931F0396FC0110823DC08A
S11313708091F546882F90E08A50994BFC0180813A
S11313808032D9F480912B47815080932B47209150
S1131390F2463091F34680912B47482F50E064E1A8
S11313A0649FC001659F900D11240396820F931FC3
S11313B00E94FC7380932C4718C02091F246309110
S11313C0F34680912B47482F50E064E1649FC001AD
S11313D0659F900D1124820F931F0396FC011082C8
S11313E080912B47815080932B478091F546882F1D
S11313F090E08A50994BFC0110828091F546882335
S113140009F01AC11092284717C18A85803209F061
S113141055C08091F546882F90E001978A50994BEA
S1131420FC018081803239F080912B47882F90E035
S11314300196039714F01A86FFC080912B478823E6
S1131440E1F04091F2465091F34680912B47882F6A
S113145090E0BC016150710980912C47882F90E085
S1131460E4E1E69F9001E79F300D1124240F351F1E
S1131470820F931F0396FC01108280912B478F5F8C
S113148080932B4710922C478091F546882F90E04B
S113149001968A839B8381E390E08C839D832A81D8
S11314A03B818C819D81281739071CF48A819B819B
S11314B002C08C819D818093F546BEC080912C47EB
S11314C0853108F077C080912B478823E1F480911F
S11314D0294790912A47880F991F9C01220F331F97
S11314E0220F331F280F391F8A85882F90E0820F1F
S11314F0931F8093294790932A4780912C478F5FAD
S113150080932C473DC04091F2465091F346809120
S11315102B47882F90E0BC016150710980912C47C2
S113152091E0980F90932C47882F90E0E4E1E69F98
S11315309001E79F300D1124240F351F820F931F54
S113154003962A85FC0120834091F2465091F3468C
S113155080912B47882F90E0BC01615071098091E4
S11315602C47882F90E0E4E1E69F9001E79F300D3F
S11315701124240F351F820F931F0396FC01108240
S11315808091F546882F90E001968E839F8381E3B6
S113159090E0888799872E813F81888599852817CF
S11315A039071CF48E819F8102C0888599858093B8
S11315B0F54642C01A8640C08A858F3769F4809107
S11315C0294790912A47181619060CF01A8610928A
S11315D0294710922A4730C08A85803211F41A862E
S11315E02BC010922B478A85882F90E0809329473F
S11315F090932A47198289818330B0F42091F2466E
S11316003091F3468981482F50E064E1649FC00122
S1131610659F900D1124820F931F0396FC01108285
S113162089818F5F8983E7CF81E080932847809108
S1131630F5468F5F8093F5468A85882319F08A855D
S11316400E94E45A00002A96CDBFDEBFDF91CF91FD
S113165008951F920F9200903F000F921124009062
S11316603B000F922F933F934F935F936F937F931E
S11316708F939F93AF93BF93EF93FF93CF93DF9396
S1131680CDB7DEB780912240882309F045C0809110
S11316902D4790912E47892B31F40E94554F80930A
S11316A02D4790932E4720912D4730912E478091BE
S11316B02F47882F90E0820F931FFC01808188239D
S11316C0A9F080E098E040912D4750912E47209159
S11316D02F4731E0320F30932F47222F30E0240F71
S11316E0351FF9012081FC01228316C010922F4777
S11316F080912D4790912E47FC0110820E94554FF6
S113170080932D4790932E4780912D4790912E479B
S1131710892B11F40E949A5080912540882309F066
S113172045C08091304790913147892B31F40E9414
S11317304C588093304790933147209130473091F3
S1131740314780913247882F90E0820F931FFC012C
S113175080818823A9F080E098E04091304750913F
S113176031472091324731E0320F30933247222FF4
S113177030E0240F351FF9012081FC01228316C0BB
S1131780109232478091304790913147FC0110828A
S11317900E944C5880933047909331478091304752
S11317A090913147892B11F40E94A1590000DF91D7
S11317B0CF91FF91EF91BF91AF919F918F917F91C5
S11317C06F915F914F913F912F910F9000923B0049
S11317D00F9000923F000F901F9018951F920F9248
S11317E000903F000F92112400903B000F922F9322
S11317F03F934F935F936F937F938F939F93AF9395
S1131800BF93EF93FF93CF93DF93CDB7DEB7809170
S11318102240843009F045C0809133479091344789
S1131820892B31F40E94554F80933347909334476A
S1131830209133473091344780913547882F90E089
S1131840820F931FFC0180818823A9F080E898E02F
S113185040913347509134472091354731E0320F5E
S113186030933547222F30E0240F351FF9012081B2
S1131870FC01228316C01092354780913347909122
S11318803447FC0110820E94554F80933347909354
S113189034478091334790913447892B11F40E9447
S11318A09A5080912540843009F045C08091364794
S11318B090913747892B31F40E944C5880933647D6
S11318C09093374720913647309137478091384776
S11318D0882F90E0820F931FFC0180818823A9F058
S11318E080E898E040913647509137472091384737
S11318F031E0320F30933847222F30E0240F351F68
S1131900F9012081FC01228316C01092384780918E
S1131910364790913747FC0110820E944C588093BF
S11319203647909337478091364790913747892BB4
S113193011F40E94A1590000DF91CF91FF91EF9122
S1131940BF91AF919F918F917F916F915F914F91D3
S11319503F912F910F9000923B000F9000923F0017
S11319600F901F9018951F920F9200903F000F92B6
S1131970112400903B000F922F933F934F935F935A
S11319806F937F938F939F93AF93BF93EF93FF9343
S1131990CF93DF931F92CDB7DEB70E94F26A89839B
S11319A080912240813019F489810E94F70C809142
S11319B02540813019F489810E94A90800000F9004
S11319C0DF91CF91FF91EF91BF91AF919F918F9153
S11319D07F916F915F914F913F912F910F90009262
S11319E03B000F9000923F000F901F901895CF93EB
S11319F0DF931F92CDB7DEB78983809139479091E9
S1131A003A47892B31F40E94E34F809339479093EE
S1131A103A478091394790913A47892B09F443C159
S1131A208981882F90E00E94D073898389818432D0
S1131A3019F089818132E9F510923B478091394749
S1131A4090913A472981213211F423E001C021E029
S1131A50FC01208310923C4710923D4710923E4770
S1131A6010923F471092404781E080934147109283
S1131A704247809142478330C8F4209139473091DE
S1131A803A4780914247482F50E065E1649FC00186
S1131A90659F900D1124820F931F0396FC01108201
S1131AA0809142478F5F80934247E3CF1092424731
S1131AB0E9C080914147882309F4C7C089818C32E9
S1131AC039F089818B3321F089818F3309F06BC020
S1131AD0809142478823E1F04091394750913A4739
S1131AE080914247882F90E0BC0161507109809138
S1131AF03C47882F90E0E5E1E69F9001E79F300D99
S1131B001124240F351F820F931F0396FC011082AA
S1131B10809142478F5F8093424710923C4789816E
S1131B208B33B1F480913B47843078F0209139476E
S1131B3030913A4780913D4790913E47A0913F476D
S1131B40B0914047F90181839283109241471FC0AD
S1131B5089818F33E1F48091394790913A4722E0AB
S1131B60FC01208380913B47833078F020913947F2
S1131B7030913A4780913D4790913E47A0913F472D
S1131B80B0914047F901818392831092414790912B
S1131B90414781E08927882309F474C010923947AA
S1131BA010923A476FC080914247882361F5809133
S1131BB03D4790913E47A0913F47B0914047880FE1
S1131BC0991FAA1FBB1F9C01AD01220F331F441F85
S1131BD0551F220F331F441F551F280F391F4A1F3B
S1131BE05B1F8981882F90E0A0E0B0E0820F931FF3
S1131BF0A41FB51F80933D4790933E47A0933F4752
S1131C00B09340473FC04091394750913A47809143
S1131C104247882F90E0BC016150710980913C4794
S1131C2091E0980F90933C47882F90E0E5E1E69F80
S1131C309001E79F300D1124240F351F820F931F4D
S1131C4003962981FC0120831DC089818D30D1F444
S1131C508091394790913A47FC011182128282E3C4
S1131C6080933B4710923C4710923D4710923E4769
S1131C7010923F47109240471092424710923947C2
S1131C8010923A4780913B478F5F80933B479091F6
S1131C903B4781E0923308F480E0882321F01092DE
S1131CA0414710923B4700000F90DF91CF91089578
S1131CB01F920F9200903F000F92112400903B005E
S1131CC00F922F933F934F935F936F937F938F93D1
S1131CD09F93AF93BF93EF93FF93CF93DF93CDB7CE
S1131CE0DEB780912540813009F045C0809143479B
S1131CF090914447892B31F40E944C588093434778
S1131D0090934447209143473091444780914547FD
S1131D10882F90E0820F931FFC0180818823A9F013
S1131D2080E298E0409143475091444720914547D1
S1131D3031E0320F30934547222F30E0240F351F16
S1131D40F9012081FC01228316C01092454780913D
S1131D50434790914447FC0110820E944C58809361
S1131D604347909344478091434790914447892B3C
S1131D7011F40E94A15980912240813009F045C09C
S1131D808091464790914747892B31F40E94554FE3
S1131D908093464790934747209146473091474761
S1131DA080914847882F90E0820F931FFC01808127
S1131DB08823A9F080E298E0409146475091474734
S1131DC02091484731E0320F30934847222F30E0CA
S1131DD0240F351FF9012081FC01228316C01092C3
S1131DE048478091464790914747FC0110820E94E2
S1131DF0554F80934647909347478091464790912B
S1131E004747892B11F40E949A500000DF91CF912B
S1131E10FF91EF91BF91AF919F918F917F916F91BE
S1131E205F914F913F912F910F9000923B000F9043
S1131E3000923F000F901F901895CF93DF9300D02E
S1131E40CDB7DEB789836A838A818823A9F020E02D
S1131E5030E080E090E0FC018181682F8981482F87
S1131E6050E081E090E002C0880F991F4A95E2F7A4
S1131E70862BF901818315C020E030E080E090E0FA
S1131E80FC018181682F8981482F50E081E090E036
S1131E9002C0880F991F4A95E2F780958623F901BD
S1131EA0818300000F900F90DF91CF910895CF931D
S1131EB0DF9300D0CDB7DEB789836A838A81882314
S1131EC0A9F084E090E024E030E0F9012181622F60
S1131ED02981422F50E021E030E002C0220F331F5D
S1131EE04A95E2F7262BFC01218315C084E090E09B
S1131EF024E030E0F9012181622F2981422F50E052
S1131F0021E030E002C0220F331F4A95E2F720950A
S1131F102623FC01218300000F900F90DF91CF91C5
S1131F200895CF93DF9300D000D0CDB7DEB78B8375
S1131F306C838B81882F90E0805B9B4F89839A838D
S1131F408C81813059F489819A81FC018081282F08
S1131F50286089819A81FC0120830DC08C818823AB
S1131F6051F489819A81FC018081282F277F8981FE
S1131F709A81FC01208300002496CDBFDEBFDF914F
S1131F80CF910895CF93DF9300D0CDB7DEB7898387
S1131F906A838A81882F90E081309105E1F0823054
S1131FA0910571F1892B09F03BC088E090E028E0AD
S1131FB030E0F9012081622F2981422F50E021E095
S1131FC030E002C0220F331F4A95E2F72095262302
S1131FD0FC01208325C088E090E028E030E0F9018E
S1131FE02081622F2981422F50E021E030E002C09D
S1131FF0220F331F4A95E2F7262BFC01208310C0E1
S11320008981882F90E0805B9B4F2981222F30E0CB
S1132010205B3B4FF90120812860FC0120830000F4
S113202000000F900F90DF91CF910895CF93DF932D
S113203000D0CDB7DEB789836A838A818823A9F06B
S113204088E090E028E030E0F9012181622F2981C5
S1132050422F50E021E030E002C0220F331F4A95A6
S1132060E2F7262BFC01218315C088E090E028E0EC
S113207030E0F9012181622F2981422F50E021E0D3
S113208030E002C0220F331F4A95E2F72095262341
S1132090FC01218300000F900F90DF91CF910895F0
S11320A0CF93DF931F92CDB7DEB7898388E090E0AA
S11320B028E030E0F9012281622F2981422F50E08B
S11320C021E030E002C0220F331F4A95E2F7262BAD
S11320D0FC01228300000F90DF91CF910895CF93EC
S11320E0DF931F92CDB7DEB7898388E090E0FC01CF
S11320F08281882F90E02981222F30E002C09595BB
S113210087952A95E2F78170992721E0892B09F4B4
S113211020E0822F0F90DF91CF910895CF93DF932A
S11321201F92CDB7DEB789838CE090E0FC018281F9
S1132130882F90E02981222F30E002C09595879561
S11321402A95E2F78170992721E0892B09F420E090
S1132150822F0F90DF91CF910895CF93DF931F9239
S1132160CDB7DEB78983698186E00E94161000002E
S11321700F90DF91CF910895CF93DF93CDB7DEB762
S113218085E00E9450100000DF91CF9108951F92C6
S11321900F9200903F000F92112400903B000F9289
S11321A02F938F939F93EF93FF93CF93DF93CDB7A9
S11321B0DEB780E39BE0FC018681882F90E081708C
S11321C0992721E0892B09F420E0222329F080E3D8
S11321D09BE021E0FC0126830000DF91CF91FF9179
S11321E0EF919F918F912F910F9000923B000F9050
S11321F000923F000F901F9018951F920F9200902D
S11322003F000F92112400903B000F92EF92FF9237
S11322100F931F932F933F934F935F936F937F93EA
S11322208F939F93AF93BF93EF93FF93CF93DF93DA
S1132230CDB7DEB72F97CDBFDEBF80E094E0FC01C1
S11322408185882F90E08470992721E0892B09F4F7
S113225020E0222309F4EDC39091C44781E089274B
S1132260882311F00E94BC100E94E0058091C947A8
S1132270882309F43EC08091CA479091CB47A0912E
S1132280CC47B091CD4721E0892B8A2B8B2B09F4C5
S113229020E0222399F08091CA479091CB47A091E6
S11322A0CC47B091CD470197A109B1098093CA47A2
S11322B09093CB47A093CC47B093CD478091CA4726
S11322C09091CB47A091CC47B091CD47892B8A2BD5
S11322D08B2B21F080910640882311F081E001C00E
S11322E080E0882309F4A5C31092C8471092C94717
S11322F0A0C319861A861B861C8680911340909170
S1132300144021E0892B09F420E0222349F0809134
S1132310134090911440019780931340909314407C
S11323208091C547882309F45CC08091C04790918F
S1132330C147A091C247B091C347892B8A2B8B2BED
S113234071F09091C64781E08927882341F09091EC
S11323508C4781E08927882311F081E001C080E067
S1132360882309F43EC0CE0109960E94AE05298552
S11323703A854B855C858091C0479091C147A09177
S1132380C247B091C34761E0281739074A075B0782
S113239008F460E0662329F18CEF80937C47109267
S11323A0844710928547109286471092874780E0B1
S11323B00E94A0671092C4471092C54781E08093A1
S11323C0C6478AE590E0809313409093144080912F
S11323D00A40882319F08CE38093094080E00E942E
S11323E0AD108091C447882309F492C28091C547F7
S11323F0882309F4F0C1809188479091894721E0AE
S1132400892B09F420E0222349F080918847909198
S1132410894701978093884790938947809184479F
S113242090918547A0918647B091874721E0892BF9
S11324308A2B8B2B09F420E0222309F469C28091B2
S1132440844790918547A0918647B091874721E0C2
S1132450181619061A061B060CF020E0222309F4AC
S11324605EC18091844790918547A0918647B09141
S113247087470197A109B1098093844790938547C1
S1132480A0938647B0938747809188479091894766
S1132490892B41F48091B8479091B947892B11F069
S11324A081E001C080E08823A9F18091B847909130
S11324B0B9479C0140E050E0809184479091854762
S11324C0A0918647B091874761E0281739074A07EA
S11324D05B0709F060E06623E9F08FEE80937C47A8
S11324E0809111409091124080938847909389473E
S11324F080910B400E944F2780930740909308409F
S11325001D86CE010D9640E050E0BC0183EA97E4BD
S11325100E94F3528091844790918547A091864709
S1132520B091874721E0892B8A2B8B2B09F020E07F
S1132530222309F4EDC180910F409091104021E0D5
S1132540892B09F420E0222309F4D0C080E00E9402
S1132550A06780910F409091104020918447309162
S113256085474091864750918747092E000CAA0B56
S1132570BB0B79018A01E81AF90A0A0B1B0BD80173
S1132580C7018093844790938547A0938647B0936F
S1132590874781E08D87CE010D9640E050E0BC0175
S11325A08EE897E40E94F3528EEF80937C4780E09C
S11325B00E94AD1019821A821B821C82CE010996D8
S11325C00E94AE0529853A854B855C858091C0477C
S11325D09091C147A091C247B091C34761E02817C9
S11325E039074A075B0708F060E06623B1F02985E4
S11325F03A854B855C858091C0479091C147A091F5
S1132600C247B091C347BC01CD010E94836BDC017A
S1132610CB0189839A83AB83BC8320910F40309193
S1132620104080910D4090910E40820F931F0F96A1
S11326309C01990F440B550B61E089819A81AB8110
S1132640BC81281739074A075B070CF060E0662352
S113265009F45EC180910F4090911040409734F08E
S113266080910940882311F481E001C080E088232F
S113267009F44EC180910F40909110400A97092EA1
S1132680000CAA0BBB0B8093174090931840A093A7
S11326901940B0931A4082E080938D4781E0809383
S11326A0C8471D821E8220918847309189478091B6
S11326B0174090911840A0911940B0911A40890197
S11326C0081B190BC8018F8398872D813E818F8148
S11326D09885281739071CF48F81988502C08D814D
S11326E09E81809388479093894712C180910D40C1
S11326F090910E40092E000CAA0BBB0B80938447CB
S113270090938547A0938647B093874780910C4068
S11327100E944F278093074090930840F9C080910E
S1132720844790918547A0918647B0918747882731
S1132730B7FD83959927AA27BB27882309F4E8C006
S11327408091844790918547A0918647B0918747AF
S11327500196A11DB11D8093844790938547A09352
S11327608647B09387478091844790918547A0918D
S11327708647B091874721E0892B8A2B8B2B09F060
S113278020E0222309F4C4C08DEF80937C4780911C
S11327900D4090910E40092E000CAA0BBB0B8093A8
S11327A0844790938547A0938647B0938747809149
S11327B00C400E944F27809307409093084081E08B
S11327C08E87CE010E9640E050E0BC018EE897E47F
S11327D00E94F3529DC08091BC479091BD47A09147
S11327E0BE47B091BF4721E0892B8A2B8B2B09F47C
S11327F020E0222309F48CC0CE0109960E94AE0584
S113280029853A854B855C858091BC479091BD476D
S1132810A091BE47B091BF4761E0281739074A0726
S11328205B0708F460E0662309F472C08091BA473C
S11328309091BB4721E0892B09F420E0222371F118
S11328408EEF80937C478091BA479091BB479195D6
S113285081959109092E000CAA0BBB0B8093844728
S113286090938547A0938647B09387472091BA47B2
S11328703091BB4780910D4090910E40820F931F81
S11328809C018091B8479091B947A901481B590B05
S1132890CA01809388479093894737C08DEF80930E
S11328A07C4780910D4090910E40092E000CAA0B9C
S11328B0BB0B8093844790938547A0938647B0933E
S11328C0874780910D4090910E409C018091B847BC
S11328D09091B947F901E81BF90BCF018093884720
S11328E09093894780910C400E944F278093074022
S11328F09093084081E08F87CE010F9640E050E02E
S1132900BC018EE897E40E94F35281E08093C547AE
S113291090918B4781E0992309F480E0882329F181
S113292080918B47815080938B4790918B4781E0B6
S1132930953009F080E0882339F081E00E94563810
S113294080E00E946D3875C090918B4781E0992397
S113295009F080E0882309F46CC046E060E875E281
S113296080E090E00E945D5164C08091134090919A
S11329701440892B81F080918C47882361F49091D5
S1132980C64781E08927882341F09091C74781E0B9
S11329908927882311F081E001C080E0882309F4AD
S11329A041C09091094081E0992309F480E0882393
S11329B0C9F1809109408150809309409091094068
S11329C081E0992309F080E0882361F181E00E948D
S11329D06D3880E00E94563810928C479091C4471D
S11329E081E08927882391F084E080938D4781E0FA
S11329F08093C8478FEF9FEFDC018093174090933B
S1132A001840A0931940B0931A400AC090918D4782
S1132A1081E0933009F080E0882311F00E949A2627
S1132A2010920A4080910A40882319F081E0809333
S1132A308A4780E094E02FEFFC01218700002F9665
S1132A40CDBFDEBFDF91CF91FF91EF91BF91AF91E9
S1132A509F918F917F916F915F914F913F912F91B2
S1132A601F910F91FF90EF900F9000923B000F90F9
S1132A7000923F000F901F9018951F920F920090A4
S1132A803F000F92112400903B000F922F933F932D
S1132A904F935F936F937F938F939F93AF93BF9362
S1132AA0EF93FF93CF93DF931F92CDB7DEB780E60A
S1132AB094E0FC018185882F90E08270992721E0C1
S1132AC0892B09F420E02223B1F00E944B2A898348
S1132AD0998181E08927882371F09091814781E071
S1132AE0913009F480E0882331F081E080938147BC
S1132AF081E08093064080E694E02FEFFC0121877B
S1132B0000000F90DF91CF91FF91EF91BF91AF91B2
S1132B109F918F917F916F915F914F913F912F91F1
S1132B200F9000923B000F9000923F000F901F9077
S1132B3018951F920F9200903F000F92112400905D
S1132B403B000F922F933F934F935F936F937F9329
S1132B508F939F93AF93BF93EF93FF93CF93DF93A1
S1132B6000D0CDB7DEB780E09BE0FC018681882FE2
S1132B7090E08170992721E0892B09F420E0222339
S1132B8009F402C180911D4090911E4021E0892BDF
S1132B9009F420E0222349F080911D4090911E40C9
S1132BA0019780931D4090931E4080911F40909107
S1132BB0204021E0892B09F420E0222349F0809170
S1132BC01F4090912040019780931F409093204094
S1132BD080917F479091804721E0892B09F420E080
S1132BE0222349F080917F479091804701978093F9
S1132BF07F479093804787E00E946F10982F81E071
S1132C0089278823A1F08091D8479091D94721E062
S1132C10883E934008F020E0222349F08091D84771
S1132C209091D94701968093D8479093D9470E94B1
S1132C304C268091C447882331F08091C54788236E
S1132C4011F081E001C080E0882309F49DC08091E7
S1132C50844790918547A0918647B091874721E0AA
S1132C60181619061A061B060CF020E0222309F494
S1132C7069C08091E9479091EA47892B09F451C0D2
S1132C808091E9479091EA4701978093E9479093AF
S1132C90EA478091E9479091EA47892B09F074C08B
S1132CA0CE010296AC01CE010196BC0180E090E019
S1132CB00E94F3528093EB47998181E0892788230E
S1132CC029F18A81882311F18DEF80937C478091CB
S1132CD00C400E944F27809307409093084081E066
S1132CE0898340E050E0CE010196BC018EE897E470
S1132CF00E94F352CE010296AC01CE010196BC01B2
S1132D0080E090E00E94F3528093EB478091EB4780
S1132D108823D1F181E00E94926781E00E94AD1086
S1132D2033C08091EB470E94A0678091EB470E94DB
S1132D30AD1080910740909108408093E9479093AB
S1132D40EA4722C08091844790918547A0918647A5
S1132D50B091874721E0892B8A2B8B2B09F020E047
S1132D60222391F08091EB47882371F01092EB4776
S1132D7080E00E94A06780E00E94AD1080E00E9485
S1132D8092678EEF80937C4780E09BE021E0FC011A
S1132D90268300000F900F90DF91CF91FF91EF9168
S1132DA0BF91AF919F918F917F916F915F914F915F
S1132DB03F912F910F9000923B000F9000923F00A3
S1132DC00F901F9018951F920F9200903F000F9242
S1132DD0112400903B000F922F933F934F935F93E6
S1132DE06F937F938F939F93AF93BF93EF93FF93CF
S1132DF0CF93DF93CDB7DEB780E494E0FC01818507
S1132E00881F8827881F8823B1F18091D847909123
S1132E10D94721E00B9708F420E0222341F1809167
S1132E20EC479091ED4701968093EC479093ED47E2
S1132E308091EC479091ED4781709927892BA1F0FF
S1132E4061E083E00E941D0F61E081E00E941D0F9C
S1132E5061E085E00E941D0F61E086E00E941D0F85
S1132E6081E08093824703C081E08093834710927E
S1132E70D8471092D94780E494E02FEFFC012187D2
S1132E800000DF91CF91FF91EF91BF91AF919F919E
S1132E908F917F916F915F914F913F912F910F90FF
S1132EA000923B000F9000923F000F901F901895E6
S1132EB0CF93DF93CDB7DEB761E084E00E94570F74
S1132EC061E087E00E941D0F81E080937E4700004F
S1132ED0DF91CF910895CF93DF9300D0CDB7DEB7C4
S1132EE00E94E10780E00E94AD1061E084E00E944E
S1132EF0570F81E00E9456380E9458178AED97E4D4
S1132F000E9497478AED97E40E94294681E00E9437
S1132F10B8320E94D35A86E490E40E94FD5A83E6B4
S1132F2090E4892F8F9383E690E48F9387E690E46F
S1132F30892F8F9387E690E48F9389E497E4892F10
S1132F408F9389E497E48F930E9431740F900F90CC
S1132F500F900F900F900F9089E497E40E94FD5A10
S1132F6084E790E40E94FD5A0E94052A982F81E08C
S1132F709C3F09F080E0882339F00E94D35A8BEB00
S1132F8091E40E94FD5A1DC0CE0101960E94B23DFB
S1132F90DC01CB018093E4479093E547A093E64797
S1132FA0B093E7478981882361F48091E447909145
S1132FB0E547A091E647B091E747BC01CD010E94E7
S1132FC054020E948438982F81E08927882331F0A5
S1132FD00E94D35A83EE91E40E94FD5A0E94D35A70
S1132FE00E94C05A6AEF70E080E090E00E941E6682
S1132FF0882329F00E949C1F0E942C18F3CF8091F3
S11330007E47882371F00E947168982F81E0923D79
S113301009F480E0882329F081E080937D471092B1
S11330207E4780918247882369F01092824780917D
S11330307D47882339F081E08A83CE01029661E0DE
S11330400E94882B80918347882361F210928347E2
S113305082E00E94C52AC6CFEF92FF920F931F937E
S1133060CF93DF93CDB7DEB7C659D109CDBFDEBF4D
S11330700E942E598E839F8321E08E819F81892B0C
S113308009F420E0222309F44BC78E819F81FC01BF
S11330908181928188879987888599858A3EF2E221
S11330A09F0709F4A4C38B3E22E29207B8F48F363B
S11330B0EDE19E0709F4EDC38037FDE19F0728F495
S11330C08E31934009F481C219C7863CEEE19E0714
S11330D0E9F0813D9E4109F4A9C110C7823723E27A
S11330E0920709F400C38337E3E29E0728F4883F7C
S11330F0924209F438C102C7843324E2920709F4E6
S113310029C2853C944209F4E5C6F8C68E819F81A4
S1133110FC018381882F90E089839A8389819A8135
S1133120892B09F4D0C089819A818234910519F4DC
S113313019821A82ACC089819A818634910529F456
S113314086E090E089839A83A2C089819A8183343E
S11331509105B9F58E819F81FC0187898B838E81CE
S11331609F81FC01108E8B81823411F480E38B8368
S11331708B81882F90E0C0970A9708F088C08E81D1
S11331809F8147960E948B738A879B871C8685E064
S11331908D878D85282F30E08A859B8528173907F0
S11331A024F48D85882F90E009C08C85882F90E0C9
S11331B02A853B85821793070CF4C90189839A8376
S11331C066C089819A818335910509F059C01C82B2
S11331D08E819F81FC0187898E878E819F81FC016E
S11331E0808D8F878E819F81FC01118E8E85823424
S11331F011F41C8236C08E85863451F48F85813358
S113320080F18F85863368F58F8584528C8329C03D
S11332108E85833569F48F85813338F08F858633C5
S113322020F48F8589528C831CC087E08C8319C05D
S11332308F85863451F48E85813398F08E8586335C
S113324080F48E8584528C830CC08F85833549F439
S11332508E85813330F08E85863318F48E858952BD
S11332608C838C81873048F08C81823130F48C815E
S1133270882F90E089839A830AC019821A8207C032
S11332808E819F8103960E948B7389839A8389819F
S11332909A819923C4F089819A814297A4F48981FF
S11332A08AA7CE018A96AC0169E28AED97E40E946E
S11332B00A449AA580911B40981729F0CE018A965A
S11332C060E00E94882B80911B40682F89E497E47A
S11332D00E94446E982F81E08927882311F1CE0142
S11332E08B9669E477E40E94F573CE018B96292FBF
S11332F02F938F9388E092E4892F8F9388E092E450
S11333008F9389E497E4892F8F9389E497E48F93CB
S11333100E9431740F900F900F900F900F900F90A8
S11333201DC080911B40882F90E0292F2F938F93ED
S113333080E192E4892F8F9380E192E48F9389E472
S113334097E4892F8F9389E497E48F930E943174D3
S11333500F900F900F900F900F900F9089E497E4C7
S11333600E94FD5AD5C58E819F81FC0183818823EB
S1133370E9F18E819F8103960E948B738093EE47BF
S11333809093EF478091EE479091EF4789389341AE
S113339068F460E070E08EEE97E40E94DF67888B4B
S11333A08889882319F0888980937B470E94D46791
S11333B0292F2F938F9388E192E4892F8F9388E1AB
S11333C092E48F9389E497E4892F8F9389E497E4B7
S11333D08F930E9431740F900F900F900F900F9065
S11333E00F9089E497E40E94FD5A92C50E94D46725
S11333F0292F2F938F9388E192E4892F8F9388E16B
S113340092E48F9389E497E4892F8F9389E497E476
S11334108F930E9431740F900F900F900F900F9024
S11334200F9089E497E40E94FD5A72C5198A1A8A9A
S11334301B8A1C8A8E819F81FC018381882349F128
S11334408E819F8103969E012C5B3F4FB9010E94A0
S11334507F6CCE018C5B9F4F61E00E943767982F91
S113346081E08927882389F0CE018C5B9F4FFC0182
S113347080819181A281B381898B9A8BAB8BBC8B28
S11334808AED97E40E940C4504C083E292E40E9412
S1133490FD5A0E948167DC01CB01898B9A8BAB8B2F
S11334A0BC8B89899A89AB89BC89892B8A2B8B2B04
S11334B009F429C589899A89AB89BC899E01285B4D
S11334C03F4FAC01BD01C9010E94036C982F81E0FC
S11334D089278823E9F0CE01885B9F4F292F2F93FA
S11334E08F938EE492E4892F8F938EE492E48F93EA
S11334F089E497E4892F8F9389E497E48F930E945A
S113350031740F900F900F900F900F900F901DC07B
S11335108C898F938B898F938A898F9389898F93D1
S113352086E592E4892F8F9386E592E48F9389E46C
S113353097E4892F8F9389E497E48F930E943174E1
S11335408DB79EB70896CDBFDEBF89E497E40E948D
S1133550FD5AD9C48E819F81FC018381882381F126
S11335608E819F81FC018381803321F482E00E945B
S1133570C52ACEC48E819F81FC018381813321F4CD
S113358082E00E94632AC4C48E819F81FC018381EE
S1133590823329F41092C4470E94F32AB9C48E815D
S11335A09F81FC018381833331F462E080E090E009
S11335B00E94882BADC48FE592E40E94FD5AA8C4F2
S11335C08FE592E40E94FD5AA3C48E819F81FC0181
S11335D08381882309F441C080E290E080934947C5
S11335E090934A478E819F810396BC0189E497E4B6
S11335F00E94DF738E819F81FC0187898823D1F02B
S113360089E497E49C01F90101900020E9F7CF01D6
S11336100197821B930B875B984B20E230E0FC01FF
S1133620208331838E819F814796BC0189E497E48E
S11336300E94DF7389E497E40E94FC73459768F461
S113364069E477E483EA97E40E94F57349E457E474
S11336506AE08AED97E40E940A448091A347882394
S113366001F180910B40882F90E0BC0183EA97E43C
S11336700E944B54885A9D4F9695879596958795A9
S1133680969587959C01A5ECB0E20E944C729295A8
S113369082958F7089279F7089278093B84790936C
S11336A0B94783EA97E4892F8F9383EA97E48F934A
S11336B084E692E4892F8F9384E692E48F9389E4DD
S11336C097E4892F8F9389E497E48F930E94317450
S11336D00F900F900F900F900F900F9089E497E444
S11336E00E94FD5A15C48E819F81FC01838183351C
S11336F009F06FC08E819F81FC0187898D8B8D8934
S1133700882309F448C08E819F8147960E94A9733B
S1133710DC01CB018E8B8E898F8B85E0888F84E1D1
S1133720898F9F89898D891740F09F89888D981783
S113373010F4888D03C08F8901C0898D80930B405C
S11337404BE050E468E28AED97E40E940A448091D9
S1133750A347882301F180910B40882F90E0BC019E
S113376083EA97E40E944B54885A9D4F9695879517
S113377096958795969587959C01A5ECB0E20E9455
S11337804C72929582958F7089279F7089278093B8
S1133790B8479093B94780910B40882F90E0292F28
S11337A02F938F938BE692E4892F8F938BE692E489
S11337B08F9389E497E4892F8F9389E497E48F9317
S11337C00E9431740F900F900F900F900F900F90F4
S11337D009C085E0EFE5F2E4A9E4B7E401900D92B5
S11337E08A95E1F789E497E40E94FD5A91C38E819A
S11337F09F81FC018381882351F18E819F810396EF
S113380048E050E0BC0189E497E40E9405741092FA
S1133810514789E497E40E94DC6B882341F089E4F2
S113382097E40E94FC73049710F081E001C080E0EB
S1133830882369F069E477E48CED97E40E94F573DA
S11338404CED57E46FE18AED97E40E940A448CED55
S113385097E4892F8F938CED97E48F938DE792E40F
S1133860892F8F938DE792E48F9389E497E4892FCE
S11338708F9389E497E48F930E9431740F900F9093
S11338800F900F900F900F9089E497E40E94FD5AD7
S11338903FC31D828E819F81FC018381882339F07F
S11338A08E819F81FC018381843509F09BC18E81C7
S11338B09F81FC018789882309F476C08E819F81CA
S11338C047964CE050E0BC0189E497E40E940574FB
S11338D0109255478091DB478195482F64EE77E439
S11338E089E497E40E946D2EDC01CB018AA39BA39B
S11338F0ACA3BDA38AA19BA1ACA1BDA1892B8A2B9A
S11339008B2B09F46CC160E089E497E40E94E53FE5
S11339108EA38EA1882351F088E2EBEBF1E4A9E4B5
S1133920B7E401900D928A95E1F759C180E090E0E7
S11339300E94B23DDC01CB018093E4479093E547BC
S1133940A093E647B093E7478091E4479091E54719
S1133950A091E647B091E747AE014B595F4F22E390
S113396030E0BC01CD010E941943292F2F938F937E
S113397085E892E4892F8F9385E892E48F9389E414
S113398097E4892F8F9389E497E48F930E9431748D
S11339900F900F900F900F900F900F9060E080E0C9
S11339A090E00E94882B1BC1CE01845A9F4F0E9435
S11339B0B23DDC01CB018093E4479093E547A093AB
S11339C0E647B093E747CE01845A9F4FFC018081BC
S11339D0882351F088E2EBEBF1E4A9E4B7E4019029
S11339E00D928A95E1F7FBC08091E4479091E547F9
S11339F0A091E647B091E747AE014B595F4F22E3F0
S1133A0030E0BC01CD010E941943292F2F938F93DD
S1133A108FE892E4892F8F938FE892E48F9389E45F
S1133A2097E4892F8F9389E497E48F930E943174EC
S1133A300F900F900F900F900F900F9089E497E4E0
S1133A400E94FD5A8091BC479091BD47A091BE470A
S1133A50B091BF47AE014B595F4F22E330E0BC0148
S1133A60CD010E941943292F2F938F938BE992E460
S1133A70892F8F938BE992E48F9389E497E4892FBC
S1133A808F9389E497E48F930E9431740F900F9081
S1133A900F900F900F900F9089E497E40E94FD5AC5
S1133AA08091C0479091C147A091C247B091C3474C
S1133AB0AE014B595F4F22E330E0BC01CD010E94BF
S1133AC01943292F2F938F9387EA92E4892F8F9399
S1133AD087EA92E48F9389E497E4892F8F9389E4AA
S1133AE097E48F930E9431740F900F900F900F9072
S1133AF00F900F9089E497E40E94FD5A0E9441318F
S1133B008FA38FA1813031F08FA1853019F00E94ED
S1133B10D83165C02091BC473091BD474091BE4724
S1133B205091BF478091E4479091E547A091E647C3
S1133B30B091E7470F2EF3EBEF2EF2E4FF2EF02DBA
S1133B4000EC12E4BC01CD010E949F2F2091C047DC
S1133B503091C1474091C2475091C3478091BC47BF
S1133B609091BD47A091BE47B091BF47E12CF12C85
S1133B700CEC12E4BC01CD010E949F2F2091BC47A4
S1133B803091BD474091BE475091BF478091E44773
S1133B909091E547A091E647B091E74761E0281787
S1133BA039074A075B0708F060E06623C1F02091FB
S1133BB0C0473091C1474091C2475091C34780915B
S1133BC0E4479091E547A091E647B091E747E12C9F
S1133BD0F12C04ED12E4BC01CD010E949F2F81E081
S1133BE08D8370C18E819F81FC018381833509F0AF
S1133BF0DAC08E819F814796BC0189E497E40E94D4
S1133C00F5738091DB478195482F6CEB77E489E469
S1133C1097E40E946D2EDC01CB018A8F9B8FAC8FC1
S1133C20BD8F8A8D9B8DAC8DBD8D892B8A2B8B2B63
S1133C3009F48CC08A8D9B8DAC8DBD8D8093BC475F
S1133C409093BD47A093BE47B093BF474CEB57E456
S1133C5062E08AED97E40E940A448091C047909103
S1133C60C147A091C247B091C3479E01235A3F4F19
S1133C70F90180839183A283B3838091BC4790919F
S1133C80BD47A091BE47B091BF4780589E4AAE4FF2
S1133C90BF4F9E012F593F4FF90180839183A28327
S1133CA0B383CE01835A9F4FFC012081318142812D
S1133CB05381CE018F599F4FFC0180819181A28154
S1133CC0B381281739074A075B0748F4CE018F5997
S1133CD09F4FFC0180819181A281B38108C0CE01F4
S1133CE0835A9F4FFC0180819181A281B38180938B
S1133CF0C0479093C147A093C247B093C34740ECD9
S1133D0057E466E08AED97E40E940A4463E080E0A9
S1133D1090E00E94882B2091BC473091BD47409190
S1133D20BE475091BF478091E4479091E547A091E9
S1133D30E647B091E74761E082179307A407B50708
S1133D4008F060E0662311F00E94F32A8091BC47DA
S1133D509091BD47A091BE47B091BF47AE014B596A
S1133D605F4F22E330E0BC01CD010E941943292FAB
S1133D702F938F9385EE92E4892F8F9385EE92E4AF
S1133D808F9389E497E4892F8F9389E497E48F9341
S1133D900E9431740F900F900F900F900F900F901E
S1133DA081E08D838FC08E819F81FC018381863465
S1133DB009F080C08E819F814796BC0189E497E415
S1133DC00E94F5738091DB478195482F60EC77E47E
S1133DD089E497E40E946D2EDC01CB018E8F9F8FC6
S1133DE0A8A3B9A38E8D9F8DA8A1B9A1892B8A2BD5
S1133DF08B2B99F18E8D9F8DA8A1B9A18093C0477B
S1133E009093C147A093C247B093C34740EC57E493
S1133E1066E08AED97E40E940A4463E080E090E063
S1133E200E94882B2091BC473091BD474091BE47EA
S1133E305091BF478091E4479091E547A091E647B0
S1133E40B091E74761E082179307A407B50708F02C
S1133E5060E0662311F00E94F32A8091C04790919C
S1133E60C147A091C247B091C347AE014B595F4FC0
S1133E7022E330E0BC01CD010E941943292F2F9386
S1133E808F9387EA92E4892F8F9387EA92E48F9342
S1133E9089E497E4892F8F9389E497E48F930E94B0
S1133EA031740F900F900F900F900F900F9081E04E
S1133EB08D8308C08E819F81FC0183818A3211F435
S1133EC00E9430428D81882301F189E497E40E94A5
S1133ED0FD5A1BC08E819F81FC0183818334B9F418
S1133EE08E819F81FC018789882389F08E819F813F
S1133EF047960E948B7388A799A709C084E790E42A
S1133F000E94FD5A05C0000003C0000001C000006B
S1133F108E819F81FC01118212820E94C05AA8C81E
S1133F200000CA56DF4FCDBFDEBFDF91CF911F9196
S1133F300F91FF90EF900895EF92FF920F931F93CC
S1133F40CF93DF93CDB7DEB7E397CDBFDEBF81E07C
S1133F5089830E942B508C879D8721E08C859D85C9
S1133F60892B09F420E0222309F48BC68C859D85D6
S1133F70FC01818192818E879F878E859F858238FF
S1133F80FEE19F0709F476C083382EE1920730F5ED
S1133F90813633E0930709F4DEC48236E3E09E07FA
S1133FA078F48531F3E09F0709F421C18E3123E0D1
S1133FB0920709F445C38435910509F441C436C612
S1133FC08F3A33E09307D1F1863AECE19E0709F486
S1133FD04DC58438934009F4CFC128C68A3923E2F9
S1133FE0920709F443C08B3933E2930778F48D3A8E
S1133FF0E2E29E0709F499C0813CF2E29F0709F4CA
S1134000F1C0813D9E4109F4BDC410C6803D33E238
S1134010930709F478C3813DE3E29E0728F48F3CBB
S1134020934209F4EBC502C6873F23E2920709F4E1
S113403016C28C39944209F4F1C5F8C58C859D8566
S1134040FC018381882309F4F7C58C859D8503963B
S11340500E948B7321E0892B09F420E0288B0E94B5
S11340605B2A0E94B05110920940E6C582E00E948A
S11340704427FFCF8C859D85FC018381898B81E05A
S113408080930A4089898A3521F488E7809309401E
S1134090D5C589898033B1F58091C747882339F024
S11340A040EF52E462EF72E483E00E94425280E007
S11340B090E00E94AE05DC01CB012B2F2F932A2F19
S11340C02F93292F2F938F9386EF92E4892F8F9329
S11340D086EF92E48F9389E497E4892F8F9389E4A0
S11340E097E48F930E9431742DB73EB7285F3F4FFA
S11340F0CDBFDEBF49E457E46AEF72E483E00E9477
S113410042529CC58989833309F098C510928B4724
S113411081E0809309401092C7471092C6471092DD
S11341200A4081E080938C4789C58C859D85FC017C
S11341308381882309F484C58C859D85FC01838152
S11341408D34A9F48C859D85FC01808D882379F0BC
S11341508C859D8548960E948B738093F04790933D
S1134160F1478091F2478F5F8093F24709C08C85B5
S11341709D8503960E948B738093F0479093F1473B
S113418060E070E080EF97E40E94DF678A8B8A89A1
S1134190882319F08A8980937B478091F047909116
S11341A0F147292F2F938F938EEF92E4892F8F93CA
S11341B08EEF92E48F9389E497E4892F8F9389E4B7
S11341C097E48F930E9431740F900F900F900F908B
S11341D00F900F9049E457E463E073E483E00E9496
S11341E042522EC58AED97E40E940C453CC58C854D
S11341F09D85FC0183818B8B8B89813321F08B8995
S1134200823309F0ABC080918147823041F09091B4
S1134210354081E08927882311F081E001C080E0E6
S1134220882321F087EF80937B47A4C08B89813357
S113423009F064C080918147823021F0809135403B
S1134240882311F081E001C080E0882309F452C082
S11342501092C44781E08CA7CE018C9640E050E0D8
S1134260BC018EE897E40E94F35280910C400E94B6
S11342704F27809307409093084081E090E0A0E0AE
S1134280B0E08093BC479093BD47A093BE47B093E2
S1134290BF478FEF9FEFDC018093C0479093C147E6
S11342A0A093C247B093C3478FE097E280930D4039
S11342B090930E4010920F40109210408FE097E2BE
S11342C0A0E0B0E08093844790938547A09386470D
S11342D0B09387478FEF9FEF8093884790938947E8
S11342E081E08093C54781E08093C4478DEF80933C
S11342F07C4740C087EF80937B473CC08B898233E7
S1134300C9F58091F2478E3020F48DEC80937B4781
S113431031C01DA6CE018D960E949F278093F3473E
S11343208091C847882331F080918D47882311F00C
S113433081E001C080E0882329F083E080938D47E9
S11343401092C8478CE3809309408091F3478823F7
S113435089F48AED97E40E940C450CC08B89803364
S113436009F070C40E945B2A1092F2478CEE80938D
S11343707C4768C4000066C41A821B821C821D82AA
S11343808C859D85FC0183818335B1F58C859D8564
S1134390FC01808D882359F08C859D8548960E9468
S11343A0A973DC01CB018A839B83AC83BD838A819F
S11343B09B81AC81BD81892B8A2B8B2B09F444C44E
S11343C08A819B81AC81BD818093BC479093BD471A
S11343D0A093BE47B093BF4780E090E00E94B23DF7
S11343E0DC01CB01BC01CD010E9454028091F24753
S11343F08F5F8093F24728C48C859D85FC0183815F
S1134400863409F021C48C859D85FC01808D882328
S113441059F08C859D8548960E94A973DC01CB01D7
S11344208A839B83AC83BD838A819B81AC81BD815C
S1134430892B8A2B8B2B09F407C48A819B81AC813D
S1134440BD818093C0479093C147A093C247B09366
S1134450C3478091F2478F5F8093F247F5C381E0B1
S113446080930A408C859D85FC018081813009F010
S11344704BC08C859D85FC0183818823D1F08C857C
S11344809D85039644E150E0BC0189E497E40E94D1
S1134490057460E089E497E40E944E4080E090E077
S11344A00E94B23DDC01CB01BC01CD010E9454024B
S11344B0CDC380E090E00E94AE05DC01CB012B2F40
S11344C02F932A2F2F93292F2F938F9386EF92E4E4
S11344D0892F8F9386EF92E48F9389E497E4892F51
S11344E08F9389E497E48F930E9431742DB73EB77C
S11344F0285F3F4FCDBFDEBF49E457E46AEF72E463
S113450083E00E944252A2C38C859D85FC01808178
S1134510823009F09BC38C859D85FC01838188359D
S1134520C9F51C8A8C859D85FC01808D882351F0FA
S11345308C859D8548960E948B738C8B8C890E94F8
S1134540A64184C30E94D5418C8B8C89082E000C13
S1134550990B292F2F938F9387E093E4892F8F93BF
S113456087E093E48F9389E497E4892F8F9389E418
S113457097E48F930E9431740F900F900F900F90D7
S11345800F900F9049E457E46AEF72E483E00E94CD
S113459042525CC380E090E00E94B23DDC01CB015A
S11345A08D8B9E8BAF8BB88F8D899E89AF89B88D8B
S11345B0BC01CD010E9454028091F4479091F547CB
S11345C0A091F647B091F7472D893E894F89588DC0
S11345D0281739074A075B0709F438C3888D8F9376
S11345E08F898F938E898F938D898F9386EF92E431
S11345F0892F8F9386EF92E48F9389E497E4892F30
S11346008F9389E497E48F930E9431742DB73EB75A
S1134610285F3F4FCDBFDEBF49E457E46AEF72E441
S113462083E00E9442528D899E89AF89B88D809320
S1134630F4479093F547A093F647B093F74706C322
S11346408091F2478F5F8093F2478C859D85FC01B2
S11346508381882381F18C859D85039644E150E014
S1134660BC0183EA97E40E9405748091A3478823E0
S113467009F4EEC280910B40882F90E0BC0183EADC
S113468097E40E944B548C509E4F9695879596952F
S11346908795969587959C01A5ECB0E20E944C7293
S11346A0929582958F7089279F7089278093B84748
S11346B09093B947CDC28091A347882309F4C8C217
S11346C083EA97E4892F8F9383EA97E48F938CE0AE
S11346D093E4892F8F938CE093E48F9389E497E498
S11346E0892F8F9389E497E48F930E9431740F90FC
S11346F00F900F900F900F900F9089E497E40E9411
S1134700E5511982A5C280910C40898F8C859D85C5
S1134710FC018381893409F04FC08C859D85FC019F
S1134720808D882309F496C28C859D8548960E94C5
S1134730A973DC01CB01898F898D8A8F85E08B8FEA
S113474084E18C8F9A8D8C8D891740F09A8D8B8D96
S1134750981710F48B8D03C08A8D01C08C8D8093C3
S11347600B408091F2478F5F8093F2478091A3477B
S1134770882309F46FC280910B40882F90E0BC011C
S113478083EA97E40E944B548C509E4F96958795EC
S113479096958795969587959C01A5ECB0E20E9425
S11347A04C72929582958F7089279F708927809388
S11347B0B8479093B9474EC28C859D85FC0183818F
S11347C0803509F047C28C859D85FC01808D882346
S11347D009F440C28C859D8548960E94A973DC012A
S11347E0CB01898F898D8D8F85E090E08E8F9F8F8F
S11347F084E190E088A399A38D8D282F30E088A1CF
S113480099A18217930754F08D8D882F90E02E8DF7
S11348103F8D8217930724F4C90102C088A199A18E
S113482080930C408091F2478F5F8093F247809190
S11348300C400E944F2780930740909308400AC27F
S11348401AA21BA28C859D85FC0183818033E1F42F
S11348508C859D85FC01808D882309F4FDC18C85A0
S11348609D8548960E94A973DC01CB018AA39BA372
S11348708AA19BA180930F40909310408091F247AE
S11348808F5F8093F247E8C18C859D85FC0183810D
S11348908133E1F48C859D85FC01808D882309F4A6
S11348A0DBC18C859D8548960E94A973DC01CB01F0
S11348B08AA39BA38AA19BA180930D4090930E4051
S11348C08091F2478F5F8093F247C6C18C859D85A6
S11348D0FC0183818934E1F48C859D85FC01808D04
S11348E0882309F4B9C18C859D8548960E94A973D3
S11348F0DC01CB018AA39BA38AA19BA180931140D5
S1134900909312408091F2478F5F8093F247A4C145
S11349108C859D85FC018381843409F09DC18C853F
S11349209D85FC01808D882309F496C18C859D8525
S113493048960E94A973DC01CB018AA39BA38AA198
S11349409BA18093BA479093BB478091F2478F5FB6
S11349508093F24781C18C859D85FC0183818823E6
S113496009F47CC18C859D85039644E150E0BC012B
S11349708EE897E40E9405748091F2478F5F8093DC
S1134980F2476CC11E821F82188619868C859D850C
S1134990FC018381882399F18C859D8503960E946F
S11349A0A973DC01CB018093F8479093F947A09356
S11349B0FA47B093FB478091F8479091F947A0914B
S11349C0FA47B091FB478EA79FA7A8ABB9ABCE011E
S11349D08E9661E00E943767982F81E089278823AB
S11349E0B1F08EA59FA5A8A9B9A98E839F83A88796
S11349F0B9878091F2478F5F8093F24708C00E9485
S1134A008167DC01CB018E839F83A887B9878E8160
S1134A109F81A885B985892B8A2B8B2B09F420C10A
S1134A2089858F9388858F938F818F938E818F93C0
S1134A3085E193E4892F8F9385E193E48F9389E44F
S1134A4097E4892F8F9389E497E48F930E943174BC
S1134A502DB73EB7285F3F4FCDBFDEBF49E457E4D3
S1134A606AE173E483E00E944252FAC08091CE4727
S1134A709091CF4721E08D38924008F420E0222322
S1134A8009F47CC08091CE479091CF47CC01A0E03F
S1134A90B0E09C01AD0160EA78E686E090E00E9417
S1134AA0CA71DC01CB017C018D01EDE7FE1A0C40DB
S1134AB01E4F8091154090911640CC01A0E0B0E0CB
S1134AC09C01AD0164E670E78EEF9FEF0E94CA710E
S1134AD0DC01CB01E80EF91E0A1F1B1F8091154053
S1134AE090911640CC01A0E0B0E028E630E140E02F
S1134AF050E0281B390B4A0B5B0B8FEF93E0DC0172
S1134B000E945B729B01AC01C801B7010E94247230
S1134B10DA01C9018CA39DA3AEA3BFA318A619A64D
S1134B2084E690E08AA79BA78AA59BA59C01990F80
S1134B30440B550B8CA19DA1AEA1BFA12817390729
S1134B404A075B073CF48AA59BA5092E000CAA0B17
S1134B50BB0B11C088A599A5092E000CAA0BBB0B91
S1134B602CA13DA14EA15FA182179307A407B5070D
S1134B7014F4DA01C9018A879B872FC08091D24738
S1134B809091D3479C0140E050E0DA01C901880FBD
S1134B90991FAA1FBB1F880F991FAA1FBB1F880F2D
S1134BA0991FAA1FBB1F821B930BA40BB50B880F65
S1134BB0991FAA1FBB1F8A5C9E4FAF4FBF4F24E6AD
S1134BC030E040E050E0BC01CD010E942472DA01E3
S1134BD0C901805F984D8A879B878A859B856EE192
S1134BE073E40E94915280E090E00E94B23DDC01A7
S1134BF0CB01BC01CD010E94540235C0CE01C29646
S1134C000E948C3F982F81E08927882359F18AA933
S1134C109BA963E273E40E94915224C043E650E4EA
S1134C2068E273E483E00E9442521DC00E94BF50B8
S1134C308EEC80937B4717C0000015C0000013C0A2
S1134C40000011C000000FC000000DC000000BC028
S1134C50000009C0000007C0000005C0000003C038
S1134C60000001C000008C859D85FC011182128228
S1134C708981882309F46DC98CE293E40E94E5518B
S1134C8068C90000E396CDBFDEBFDF91CF911F91CD
S1134C900F91FF90EF900895CF93DF931F92CDB7BC
S1134CA0DEB70E944B2A8983998181E08927882372
S1134CB091F09091814781E0913009F480E088235C
S1134CC031F081E08093814781E08093064083E066
S1134CD080931C4027C09091814781E0923009F471
S1134CE080E08823F9F08091FC4799819817B9F402
S1134CF080911C408823B1F080911C4081508093A6
S1134D001C4080911C40882369F482E08093814791
S1134D1081E08093064083E080931C4003C083E0DD
S1134D2080931C4089818093FC4700000F90DF91A1
S1134D30CF910895EF92FF920F931F93CF93DF9338
S1134D40CDB7DEB72997CDBFDEBF2091BC473091E8
S1134D50BD474091BE475091BF478091C047909155
S1134D60C147A091C247B091C347BC01CD010E9485
S1134D70836BDC01CB0189839A83AB83BC8321E001
S1134D8089819A81AB81BC81181619061A061B0603
S1134D900CF020E02D83CE0106960E94AE052091F2
S1134DA0C0473091C1474091C2475091C3478E815B
S1134DB09F81A885B985BC01CD010E94836BDC016C
S1134DC0CB0189839A83AB83BC8389819A81AB812C
S1134DD0BC81BB232CF08D81882311F080E04AC074
S1134DE02091BC473091BD474091BE475091BF4789
S1134DF08E819F81A885B985BC01CD010E94836BFA
S1134E00DC01CB0189839A83AB83BC8389819A813A
S1134E10AB81BC81843C9F4FAF4FBF4F64F0109275
S1134E208D4710921740109218401092194010921A
S1134E301A4081E01FC024EC3FEF4FEF5FEF898100
S1134E409A81AB81BC8179018A01E81AF90A0A0BBB
S1134E501B0BD801C7018093174090931840A0936F
S1134E601940B0931A4081E080938D4781E080938C
S1134E70C84781E02996CDBFDEBFDF91CF911F9156
S1134E800F91FF90EF900895CF93DF931F92CDB7CA
S1134E90DEB7898300000F90DF91CF910895CF93FF
S1134EA0DF93CDB7DEB72A97CDBFDEBF8A878A8569
S1134EB0898385E090E08A839B8384E190E08C83FE
S1134EC09D838981282F880F330B8C819D818217C4
S1134ED093075CF08981082E000C990B2A813B8191
S1134EE08217930724F4C90102C08C819D818A87AB
S1134EF08A85282F30E040E050E082EC91E0A0E089
S1134F00B0E0BC01CD010E942472DA01C901BC01E8
S1134F10CD010E946770DC01CB018E839F83A8873B
S1134F20B9876E817F81888599850E943670DC01FE
S1134F30CB012A96CDBFDEBFDF91CF910895CF93E9
S1134F40DF9300D01F92CDB7DEB78A839B838A811B
S1134F509B810E94CA2789838A819B81FC0180816D
S1134F60882331F08A819B81FC01808180937C4776
S1134F708981882321F0898180937B4704C00E9422
S1134F809A268093C44789812396CDBFDEBFDF91E3
S1134F90CF910895CF93DF93CDB7DEB76397CDBF9D
S1134FA0DEBF8A8B9B8B8091BC479091BD47A091BB
S1134FB0BE47B091BF4721E0892B8A2B8B2B09F088
S1134FC020E0222311F08CEC1AC22091BC473091CE
S1134FD0BD474091BE475091BF478091C0479091D3
S1134FE0C147A091C247B091C34761E02817390770
S1134FF04A075B0708F460E0662311F08DECFFC1FB
S113500080910D4090910E4021E0892B09F020E021
S1135010222311F08BECF3C120910F40309110400A
S113502080910D4090910E40280F391F8091BA470E
S11350309091BB4741E0281739070CF040E0442326
S113504011F08AECDCC180918E47882311F489EC3D
S1135050D6C190910C4081E0992309F080E0882327
S113506011F088ECCCC18091A347882391F1809101
S11350700B40882331F08091114090911240892B8C
S113508011F481E001C080E0882311F087ECB7C1FE
S113509080910B40882F90E0BC0183EA97E40E9442
S11350A04B548C509E4F96958795969587959695DB
S11350B087959C01A5ECB0E20E944C729295829572
S11350C08F7089279F7089278093B8479093B94739
S11350D004C01092B8471092B9478091E447909168
S11350E0E547A091E647B091E7478A839B83AC8369
S11350F0BD832091C0473091C1474091C247509130
S1135100C34761E08A819B81AC81BD81281739073F
S11351104A075B0708F060E0662359F08A899B8997
S1135120892B09F46BC18A899B892AEFFC012083AE
S113513065C12091BC473091BD474091BE47509115
S1135140BF478A819B81AC81BD81BC01CD010E9496
S1135150836BDC01CB018E839F83A887B9878E8103
S11351609F81A885B985BB230CF434C11982209191
S11351700D4030910E4080910F4090911040820F6D
S1135180931F8A879B878A859B859C01990F440B73
S1135190550B8E819F81A885B985BC01CD010E94E4
S11351A02472DC01CB018C879D872091BA47309112
S11351B0BB478C859D85A901481B590BCA018E8765
S11351C09F878E859F85181619060CF4A8C08E85B6
S11351D09F8522273327281B390B80910D409091FE
S11351E00E4041E0281739070CF440E0442309F449
S11351F041C02A853B858E859F85820F931F91959B
S113520081959109092E000CAA0BBB0B809384474E
S113521090938547A0938647B09387478A899B8953
S1135220892B29F08A899B892EEFFC012083909198
S1135230C44781E08927882309F4A6C080910D40E2
S113524090910E409C018091844790918547A09154
S11352508647B0918747281B390B8091B8479091B6
S1135260B947A901481B590BCA01809388479093F9
S113527089478AC020910D4030910E408E859F85CC
S1135280820F931F092E000CAA0BBB0B809384473B
S113529090938547A0938647B093874781E089839D
S11352A08A899B89892B29F08A899B892DEFFC01A6
S11352B020839091C44781E08927882309F464C03E
S11352C08091B8479091B9479C0140E050E08091AB
S11352D0844790918547A0918647B091874761E0C4
S11352E0281739074A075B070CF060E0662309F4C6
S11352F04BC08091844790918547A0918647B09197
S113530087479C018091B8479091B947A901481BF0
S1135310590BCA01809388479093894735C08E857D
S11353209F85919581959109092E000CAA0BBB0BC1
S11353308093844790938547A0938647B09387478B
S11353408A899B89892B29F08A899B892EEFFC0104
S113535020839091C44781E089278823A9F0209174
S11353600D4030910E408E859F85820F931F9C01C6
S11353708091B8479091B947A901481B590BCA01BC
S1135380809388479093894789818823E1F08091AD
S1135390C447888B1092C44781E0898BCE01419623
S11353A040E050E0BC018EE897E40E94F352809103
S11353B00C400E944F2780930740909308408889AF
S11353C08093C44703C080E00E94A06781E080937B
S11353D0C5470CC08A899B89892B29F08A899B89B6
S11353E02FEFFC01208380E00E94A0671092C74742
S11353F08AE590E0809313409093144080E0639694
S1135400CDBFDEBFDF91CF910895CF93DF9300D05E
S1135410CDB7DEB761E083E00E94C20F19821A8221
S113542089819A81C29704F560E083E00E94161096
S113543064E170E080E090E00E941E66882309F039
S1135440F7CF61E083E00E94161064E170E080E031
S113545090E00E941E66882309F0F7CF89819A8123
S1135460019689839A83DCCF61E083E00E94910FE7
S113547061E082E00E94910F0E94833B81E00E94E0
S11354807241882311F08CEF01C080E00F900F90DF
S1135490DF91CF910895CF93DF931F92CDB7DEB7FD
S11354A081E00E948E108983998181E089270F9081
S11354B0DF91CF910895CF93DF93CDB7DEB700008E
S11354C0DF91CF910895CF93DF9300D0CDB7DEB7AE
S11354D08A830E94413189838A81882379F489816E
S11354E0823031F460E080E090E00E94882B47C075
S11354F063E080E090E00E94882B41C08A81823082
S1135500F1F48981823031F461E080E090E00E941E
S1135510882B35C08981813031F08981843019F03C
S11355208981833031F461E080E090E00E94882B2F
S113553026C063E080E090E00E94882B20C089812F
S1135540823031F461E080E090E00E94882B17C043
S11355508981813031F462E080E090E00E94882B00
S11355600EC08981843031F463E080E090E00E94D1
S1135570882B05C063E080E090E00E94882B000047
S11355800F900F90DF91CF910895CF93DF9300D0C8
S1135590CDB7DEB78A830E94413189838A81823004
S11355A031F460E080E090E00E94882B16C089818D
S11355B0813029F462E080E090E00E94882B8981A8
S11355C0843031F460E080E090E00E94882B05C0D4
S11355D060E080E090E00E94882B00000F900F9024
S11355E0DF91CF910895EF92FF920F931F93CF9382
S11355F0DF931F92CDB7DEB780E090E00E94B23D0A
S1135600DC01CB018093E4479093E547A093E64700
S1135610B093E7470E94413189838981823009F43C
S11356206CC063E080E090E00E94882B2091BC472E
S11356303091BD474091BE475091BF478091E447A8
S11356409091E547A091E647B091E7470F2EF3EB21
S1135650EF2EF2E4FF2EF02D00EC12E4BC01CD019C
S11356600E949F2F2091BC473091BD474091BE4777
S11356705091BF478091E4479091E547A091E64758
S1135680B091E74761E0281739074A075B0708F03C
S113569060E06623C9F02091C0473091C147409132
S11356A0C2475091C3478091E4479091E547A09148
S11356B0E647B091E747E12CF12C04ED12E4BC017C
S11356C0CD010E949F2F1BC02091C0473091C1473C
S11356D04091C2475091C3478091BC479091BD47C8
S11356E0A091BE47B091BF47E12CF12C0CEC12E421
S11356F0BC01CD010E949F2F02C00E94D83100003E
S11357000F90DF91CF911F910F91FF90EF9008952B
S1135710CF93DF93CDB7DEB72C97CDBFDEBF8A879B
S11357209B876C8781E089838A859B85892B61F0BF
S11357308A859B85FC018081823131F08A859B8535
S1135740FC01808180931B401092C4471092C5478E
S113575080E00E94AD1080E090E00E94B23DDC0148
S1135760CB018093E4479093E547A093E647B09339
S1135770E74780911B40882F90E0092E000CAA0B6C
S1135780BB0B41E050E020E130E0841B950B28176F
S1135790390708F4A1C18C589F4FFC010C94437243
S11357A08981882389F08DE49FE480938E479093C8
S11357B08F4785E490E080939047909391471982B6
S11357C01092BA471092BB478981882399F08DE4DF
S11357D09FE480938E4790938F4789E490E0809371
S11357E090479093914719828CE390E08093BA4755
S11357F09093BB478981882399F08DE49FE480933B
S11358008E4790938F4783E590E0809390479093E1
S11358109147198288E790E08093BA479093BB47F9
S11358208981882399F08DE49FE480938E47909337
S11358308F4788E490E08093904790939147198232
S113584084EB90E08093BA479093BB478981882387
S113585091F08DE49FE480938E4790938F4785E386
S113586090E0809390479093914780EF90E08093ED
S1135870BA479093BB4781E08A83CE01029640E009
S113588050E0BC018EE897E40E94F35280910C40F2
S11358900E944F2780930740909308408CE390E048
S11358A080938847909389478CE390E080930D40E0
S11358B090930E4080EF90E080930F4090931040BF
S11358C041C18981882369F08DE495E480938E47F2
S11358D090938F471092904719821092BA47109272
S11358E0BB478981882379F08DE499E480938E47BE
S11358F090938F471092904719828CE090E08093A8
S1135900BA479093BB478981882379F08DE493E566
S113591080938E4790938F4710929047198288E125
S113592090E08093BA479093BB478981882379F0AC
S11359308DE498E480938E4790938F47109290471C
S1135940198284E290E08093BA479093BB4789819F
S1135950882371F08DE495E380938E4790938F476D
S11359601092904780E390E08093BA479093BB47AE
S113597081E08B83CE01039640E050E0BC018EE8C9
S113598097E40E94F35288E080930C4080910C408D
S11359900E944F27809307409093084088E592E047
S11359A080938847909389478CE090E080930D40E2
S11359B090930E4080E390E080930F4090931040CA
S11359C0C1C08981882369F08FE495E480938E4770
S11359D090938F471092904719821092BA47109271
S11359E0BB478981882379F08FE499E480938E47BB
S11359F090938F471092904719828CE090E08093A7
S1135A00BA479093BB478981882379F08FE493E563
S1135A1080938E4790938F4710929047198288E124
S1135A2090E08093BA479093BB478981882379F0AB
S1135A308FE498E480938E4790938F471092904719
S1135A40198284E290E08093BA479093BB4789819E
S1135A50882371F08FE495E380938E4790938F476A
S1135A601092904780E390E08093BA479093BB47AD
S1135A7081E08C83CE01049640E050E0BC018EE8C6
S1135A8097E40E94F3528FE080930C4080910C4085
S1135A900E944F27809307409093084088E592E046
S1135AA080938847909389478CE090E080930D40E1
S1135AB090930E4080E390E080930F4090931040C9
S1135AC041C083E590E080938E4790938F4719827D
S1135AD01092BA471092BB478981882341F08DE424
S1135AE09FE480938E4790938F4710929047109233
S1135AF0BA471092BB4781E08D83CE01059640E002
S1135B0050E0BC018EE897E40E94F35288E0809351
S1135B100C4080910C400E944F2780930740909343
S1135B20084088E592E080938847909389478CE306
S1135B3090E080930D4090930E4010920F4010928D
S1135B40104000008C85882391F41092C547109270
S1135B50C4471092E8471092C44780E00E94A067AF
S1135B6080E00E94AD1080E00E949267AFC08C85F7
S1135B70813009F072C0CE0106960E94B23DDC016C
S1135B80CB018093E4479093E547A093E647B09315
S1135B90E7478E818823E9F58091E4479091E547B2
S1135BA0A091E647B091E7478093BC479093BD47E7
S1135BB0A093BE47B093BF472091BC473091BD47E7
S1135BC04091BE475091BF478091C0479091C147D3
S1135BD0A091C247B091C34761E082179307A4071D
S1135BE0B50708F060E06623A1F08091BC4790916E
S1135BF0BD47A091BE47B091BF4780589E4AAE4F63
S1135C00BF4F8093C0479093C147A093C247B093BE
S1135C10C3471F82CE0107960E949F278E838091DF
S1135C20C847882331F080918D47882311F081E0A3
S1135C3001C080E0882329F083E080938D4710928F
S1135C40C8478CE3809309408E81882309F03EC0C5
S1135C508AED97E40E940C4539C08C85823091F519
S1135C6081E08887CE01089640E050E0BC018EE8D0
S1135C7097E40E94F35280910C400E944F27809336
S1135C8007409093084080910D4090910E40092E5A
S1135C90000CAA0BBB0B8093844790938547A09379
S1135CA08647B093874781E08093C54781E080931E
S1135CB0C4478DEF80937C471092E84781E080933E
S1135CC0C44704C0CE0109960E949F2700002C9669
S1135CD0CDBFDEBFDF91CF910895CF93DF93CDB7D2
S1135CE0DEB7A497CDBFDEBF88A399A36AA37BA325
