:100000003EC0000057C0000055C0000053C00000B3
:1000100051C000004FC000004DC000004BC00000A8
:1000200049C0000047C0000045C0000043C00000B8
:1000300041C000003FC000003DC000003BC00000C8
:1000400078C0000037C0000035C0000033C0000099
:1000500031C000002FC000002DC000002BC00000E8
:1000600029C0000027C00000010106010B0110019A
:1000700015011A011F01240129012E013301112448
:100080001FBECFEFD8E0DEBFCDBF11E0A0E0B1E0F2
:10009000E4EAFBE002C005900D92A430B107D9F765
:1000A00021E0A4E0B1E001C01D92A830B207E1F761
:1000B000EED076C5A5CFE4E6F0E080818F7780832F
:1000C0001092B90085E28093B80084E08093BC0070
:1000D000089584EA8093BC008FEF9FEF019721F091
:1000E0002091BC0027FFFACF089584E98093BC00DB
:1000F00008958093BB0084E88093BC008FEF9FEF4E
:10010000019721F02091BC0027FFFACF089584E8E1
:100110008093BC008FEF9FEF019721F02091BC00EE
:1001200027FFFACF8091BB0008958091B900887FA6
:1001300008951F920F920FB60F9211240F900FBEC9
:100140000F901F90189585B5836085BDEEE6F0E0B1
:1001500080818160808316BC14B817B81AB8539A8E
:10016000529A519A509A549A299A5D9A5F9A289A6B
:100170005E9A2A9A409A299A5D9A5F9A289A5E9A7C
:100180002A9A409A78940895CF92DF92EF92FF9244
:10019000CF93DF9340E458E76DE771E080ECCBD27A
:1001A00060E081E010D360E082E00DD380EEC82EE5
:1001B00081E9D82E85E7E82E89E0F82E40E0C701D6
:1001C000B60125D48AE0C80ED11CE11CF11C80E8E0
:1001D000C81688E1D80687E7E80689E0F80671F7CF
:1001E000C0E0D0E0FE013197EB30F10520F4EC5C8B
:1001F000FF4F40E0A1C440E060EF7EE885E390E07F
:1002000036C060E17DED85E390E031C060E37BE2E4
:1002100086E390E02CC060E579E786E390E027C0B4
:1002200060E777EC86E390E022C068E77CE986E34C
:1002300090E01DC060E371EA89E998E018C068E7C2
:100240007AEF8DE998E013C068EA77E582EA98E0F2
:100250000EC068ED74EB86EA98E009C068E072E1D0
:100260008BEA98E004C060E57BE68FEA98E0CFD3A4
:100270002196CC30D10509F0B5CFDF91CF91FF9019
:10028000EF90DF90CF900895199989B108955BDFC1
:100290007BDFFADFFECF80E090E06DC48F929F920B
:1002A000AF92BF92CF92DF92EF92FF9269017A01F3
:1002B0006115710581059105D1F0211531054105C3
:1002C0005105A9F017D44B015C0181149104A104DC
:1002D000B10451F0C701B601A50194010BD4750119
:1002E00064014B015C01F1CFB601C70104C060E0BD
:1002F00070E080E090E0FF90EF90DF90CF90BF90B3
:10030000AF909F908F9008954F925F926F927F92DF
:100310008F929F92AF92BF92CF92DF92EF92FF9215
:100320000F931F93CF93DF9300D000D0CDB7DEB7EC
:100330008A018090000190900101A0900201B0908C
:100340000301A5019401D6D329833A834B835C83AF
:100350006B017C01A5019401A1DF2B013C0182E02E
:10036000481651046104710470F0C701B601A3017D
:100370009201C0D369017A01C501B401A3019201C0
:10038000B9D349015A0187E0CC0CDD1CEE1CFF1CDF
:100390008A95D1F7C701B601A5019401ABD3498075
:1003A0005A806B807C8097E0440C551C661C771C3F
:1003B0009A95D1F7E2E05E1A61087108420E531E69
:1003C000641E751EF8014082518262827382C501EB
:1003D000B40181D3C61AD70AE80AF90AC482D582C1
:1003E000E682F78280869186A286B38680E00F90AF
:1003F0000F900F900F90DF91CF911F910F91FF9071
:10040000EF90DF90CF90BF90AF909F908F907F90B4
:100410006F905F904F9008953F924F925F926F92CE
:100420007F928F929F92AF92BF92CF92DF92EF9284
:10043000FF920F931F93CF93DF934B015C01EA016F
:1004400081E0F9018083F0E88F16F1ED9F06F0EF6F
:10045000AF06F8E0BF0678F0C501B40142E0660FD0
:10046000771F881F991F4A95D1F754E0C52ED12CCC
:10047000E12CF12C3AC0A0E0412C39EE532E34EAA5
:10048000632E35E3732E332433943A0EB0E0A50186
:10049000940158D3A3019201261B370B480B590B2B
:1004A000CA01B901611536E4730733EC830733E2FF
:1004B0009307A8F0A50194011DD369017A0144E0D6
:1004C000C416D104E104F10410F4A32DDCCFC0FC68
:1004D000FCCFA7019601C501B401FDD206C060E0C2
:1004E00070E0CB01C12CD12C760121E054E0C5167F
:1004F000D104E104F10409F020E0F801208327E0B1
:10050000CC0CDD1CEE1CFF1C2A95D1F7F2E0DF1AA3
:10051000E108F108C882D982EA82FB821C821D822E
:100520001E821F8201E010E020E030E0088719877A
:100530002A873B87DF91CF911F910F91FF90EF901A
:10054000DF90CF90BF90AF909F908F907F906F90F3
:100550005F904F903F900895EF92FF920F931F93FB
:10056000CF93DF93D82FC62F7A01B3DDDEDD88303D
:1005700019F0BBDD81E01CC080ECBBDDD6DD88312D
:10058000C1F78D2FB6DDD1DD883299F78701D0E034
:10059000C8018E199F098C179D0744F4F8018191B9
:1005A0008F01A7DDC2DD883299F3E3CF9EDD80E0C5
:1005B000DF91CF911F910F91FF90EF9008958F924F
:1005C0009F92AF92BF92FF920F931F93CF93DF93AF
:1005D000CDB7DEB766970FB6F894DEBF0FBECDBFBE
:1005E0004B015C01F42E57DE8B019C0160930401EA
:1005F000709305018093060190930701AE014F5F50
:100600005F4FC501B40180DE89859A85AB85BC85C5
:100610009D878E8739814A812B8123702F87488B54
:10062000398B2CE0B695A795979587952A95D1F7A4
:10063000807F2D813E819F819F70890F8A8B3B8BAC
:100640002C8B81E0F81206C0AE01435F5F4F68E07B
:100650008AE108C082E0F81206C0AE01435F5F4F36
:1006600068E082E279DF66960FB6F894DEBF0FBECF
:10067000CDBFDF91CF911F910F91FF90BF90AF90B1
:100680009F908F900895CF93DF93D82FC62F21DDB1
:100690004CDD883019F029DD81E011C080EC29DDC6
:1006A00044DD8831C1F78D2F24DD3FDD883299F795
:1006B0008C2F1FDD3ADD883271F717DD80E0DF9186
:1006C000CF910895CF93C82F80FF03C060E281EBE4
:1006D000DADFC1FF04C060E881EBCF91D4CFCF91C6
:1006E00008951F93CF93DF93182FEB01F2DC1DDDEC
:1006F000883019F0FADC81E01AC080ECFADC15DDF4
:100700008831C1F7812FF5DC10DD883299F7E1DC03
:100710000CDD803179F781ECECDC07DD803451F7BA
:10072000F6DC888302DD883529F7DFDC80E0DF91A5
:10073000CF911F910895CF92DF92EF92FF92CF93C6
:10074000DF9300D0CDB7DEB76A017B018A83B3DCCB
:100750008A81682F626187EB96DFC114D104E104BE
:10076000F104A1F0BE016F5F7F4F8FE0BADF81110E
:1007700021C069816F736983C0920001D092010129
:10078000E0920201F09203018FE07DDF60E880E1FA
:100790007ADF60E881E177DF60E882E174DF6CE0B6
:1007A00080E171DF6CE081E16EDF6CE082E16BDFA4
:1007B00083E088DF0F900F90DF91CF91FF90EF9053
:1007C000DF90CF9008950F931F93CF93DF931F92E5
:1007D000CDB7DEB7182F062FBE016F5F7F4F83E0C6
:1007E00080DF811117C0498121E030E0002349F00A
:1007F000C90101C0880F1A95EAF78095842389837F
:1008000006C001C0220F1A95EAF7242B29836981BB
:1008100083E039DF0F90DF91CF911F910F91089501
:100820000F931F93CF93DF931F92CDB7DEB7062FA1
:1008300010E1180FBE016F5F7F4F812F52DF8111D2
:100840000DC0013019F499819F7D04C0023019F464
:100850009981906299836981812F15DF0F90DF91D3
:10086000CF911F910F9108950F931F93CF93DF9313
:100870001F92CDB7DEB7062F10E1180FBE016F5FD4
:100880007F4F812F2EDF81110AC09981002311F043
:10089000906401C09F7B99836981812FF4DE0F9062
:1008A000DF91CF911F910F910895FF920F931F93A6
:1008B000CF93DF931F92CDB7DEB7813029F030F0B0
:1008C0008230E1F40CE303C004E301C00CE2F42E37
:1008D000162FBE016F5F7F4F802F03DF81110EC087
:1008E00099819378F1109C60998380E1189FB00101
:1008F00011248981682B6983802FC5DE0F90DF91D9
:10090000CF911F910F91FF9008955F926F927F9208
:100910008F929F92AF92BF92CF92DF92EF92FF920F
:100920000F931F93CF93DF93CDB7DEB767970FB6C3
:10093000F894DEBF0FBECDBFB82E088B4C8B5D8BFD
:100940006E8B7F8B6C2C5D2C0E2D9888712E122F48
:10095000CC88DD88EE88FF88D982CA82880F880F0C
:10096000880FBE01655F7F4F845DBBDE811139C09A
:100970008B858C7F8B870370802B8B835C826D8251
:10098000D701C6012CE0B695A795979587952A952E
:10099000D1F7807F1F70C12EC80ECE827F829886CD
:1009A00081E0B81689F0B81648F082E0B81212C09B
:1009B000AE014F5F5F4F68E08AE30BC0AE014F5F4F
:1009C0005F4F68E08AE205C0AE014F5F5F4F68E0AD
:1009D00082E3C2DD6A2D8B2D47DF49A5682D8B2D63
:1009E00064DF67960FB6F894DEBF0FBECDBFDF9110
:1009F000CF911F910F91FF90EF90DF90CF90BF901C
:100A0000AF909F908F907F906F905F9008954F92DE
:100A10005F926F927F928F929F92AF92BF92CF928E
:100A2000DF92EF92FF920F931F93CF93DF93CDB797
:100A3000DEB72E970FB6F894DEBF0FBECDBF1E8671
:100A40001D86442329F0433070F522E0922E02C027
:100A500099249394B42E8E01035F1F4F9E01225F51
:100A60003F4FAE014F5F5F4FD7DC2B013C01692D3B
:100A70008B2DD6DE8D858F93812CAE84C980DA8054
:100A8000EB80FC800D811E812F81388549855A8538
:100A90006B857C858B2D39DF492DC301B2018FDD3C
:100AA0000F9080E001C081E02E960FB6F894DEBF73
:100AB0000FBECDBFDF91CF911F910F91FF90EF90AF
:100AC000DF90CF90BF90AF909F908F907F906F906E
:100AD0005F904F900895DB018F939F9333D0BF9128
:100AE000AF91A29F800D911DA39F900DB29F900D7D
:100AF00011240895A1E21A2EAA1BBB1BFD010DC0F3
:100B0000AA1FBB1FEE1FFF1FA217B307E407F507BD
:100B100020F0A21BB30BE40BF50B661F771F881F99
:100B2000991F1A9469F760957095809590959B012F
:100B3000AC01BD01CF010895EE0FFF1F0590F491A8
:100B4000E02D099409D0A59F900DB49F900DA49F0E
:100B5000800D911D11240895A29FB001B39FC00183
:100B6000A39F700D811D1124911DB29F700D811DD9
:100B70001124911D0895A6E1B0E044E050E002C0C8
:100B8000DC01CB01FC01F999FECF06C0F2BDE1BD4D
:100B9000F89A319600B40D9241505040B8F708953C
:040BA000F894FFCFF7
:040BA40040787D0117
:00000001FF
