:1000000033C000004EC000004CC000000C948209B8
:100010000C94E6090C94D20C0C944E0D42C00000D6
:1000200019C700003EC000003CC000003AC00000FC
:1000300038C0000036C0000034C0000032C00000EC
:1000400030C000002EC000000C94080A0C94850CEF
:1000500028C0000026C0000024C0000022C000000C
:1000600020C000001EC0000011241FBECFEFD8E04A
:10007000DEBFCDBF14E0A0E0B1E0E8E7F9E402C0E4
:1000800005900D92A83CB107D9F726E0A8ECB4E0A2
:1000900001C01D92AE3CB207E1F70E94AC0D0C947A
:1000A000BA24AECF8091CB0494E052E306C09150C5
:1000B00089F08F5F843008F080E0282F30E0529F75
:1000C000F001539FF00D1124E05BFA4F408144236F
:1000D00071F305C08093CB0480E090E00895809395
:1000E000CB0442E3429FC001439F900D1124805BEB
:1000F0009A4F08958091CA0494E052E306C091504B
:1001000089F08F5F843008F080E0282F30E0529F24
:10011000F001539FF00D1124E05BFA4F4081411133
:10012000EECF05C08093CA0480E090E008958093EC
:10013000CA0442E3429FC001439F900D1124805B9B
:100140009A4F08958091C904282F30E092E4899F46
:10015000F0011124E453FB4F41815281452BA9F05A
:100160008F5F823008F080E0282F30E092E4899F92
:10017000F0011124E453FB4F41815281452B29F0BA
:100180008093C90480E090E008958093C90442E41C
:10019000429FC001439F900D112484539B4F0895AB
:1001A0008091C804282F30E092E4899FF001112447
:1001B000E453FB4F41815281452BA9F48F5F82307C
:1001C00008F080E0282F30E092E4899FF0011124AC
:1001D000E453FB4F41815281452B29F48093C8049D
:1001E00080E090E008958093C80442E4429FC001FB
:1001F000439F900D112484539B4F089580911806BE
:1002000008959091180681E0911180E0911108C045
:1002100091E090931806E1ECF0E090819062908379
:10022000089580911806882339F0E1ECF0E0808190
:100230008F7D8083109218060895CF93DF9380916D
:10024000C10084FF0FC0E1ECF0E080818F7E8083ED
:1002500084E8ACECB4E0ED0119928A95E9F780816D
:1002600080618083DF91CF91089584E8ECECF4E025
:10027000DF011D928A95E9F71092C50083E3809310
:10028000C40088E98093C1008EE08093C200089585
:10029000CF93DF93009761F0EC012CDF009751F4CE
:1002A000909118069111FCCF25DF0097C9F302C089
:1002B00081E00CC0DF93CF939F938F930E94AF2177
:1002C000A0DF0F900F900F900F9080E0DF91CF9103
:1002D00008958DE493E0DCCF089581E693E0D8CFD4
:1002E000089587E693E0D4CF08950F931F93CF939B
:1002F000DF9388E793E09F938F938FE793E09F933B
:100300008F9387E993E09F938F9389E196E09F9382
:100310008F930E94AF218DB79EB708960FB6F894C1
:100320009EBF0FBE8DBF89E196E0B2DF8111FBCF8A
:10033000809118068111FCCFC5E4D1E00DE413E0F3
:10034000CE01A6DF8111FCCF809118068111FCCF70
:10035000A8960C171D07A1F7C4DFDF91CF911F915D
:100360000F9108959F938F9380E091E09F938F93D7
:100370000E94AF210F900F900F900F9008958091E1
:100380004B0691E0811190E090934B06811107C0DC
:1003900080EB94E0E7DF80E091E07ADF03C087E65E
:1003A00093E076DF80914B060895E9E1F6E08083E3
:1003B0001182CF016DCF08951F928F938BEA93E046
:1003C0009F938F9389E196E09F938F930E94AF2133
:1003D00089E196E05DDF0F900F900F900F900F90E6
:1003E0000F90089520E031E03F932F939F938F93D8
:1003F0007F936F9380EC93E09F938F9389E196E0D6
:100400009F938F930E94AF2189E196E041DF8DB7E2
:100410009EB70A960FB6F8949EBF0FBE8DBF089583
:100420000F931F93CF93DF93CDB7DEB72A970FB605
:10043000F894DEBF0FBECDBF182F022F809135017B
:10044000909136019A838983FE01339688E0DF011B
:100450001D928A95E9F7411551056105710559F11C
:10046000463051056105710598F45F934F938CEC0C
:1004700093E09F938F93CE0101969F938F930E9459
:10048000AF210F900F900F900F900F900F9013C00F
:100490007F936F935F934F9380ED93E09F938F9340
:1004A000CE0101969F938F930E94AF210FB6F894CF
:1004B000DEBF0FBECDBF133009F463C0123009F4A4
:1004C00063C0113009F063C08BE324E290914B06C6
:1004D000992391F10023C1F080E091E09F938F93E5
:1004E000CE0101969F938F9384ED93E09F938F931A
:1004F00089E196E09F938F930E94AF210FB6F89405
:10050000DEBF0FBECDBF39C080E091E09F938F93D7
:10051000CE0101969F938F9381EE93E09F938F93EB
:1005200089E196E09F938F930E94AF210FB6F894D4
:10053000DEBF0FBECDBF21C090E0011103C040E07F
:1005400050E002C04AEC53E09F938F935F934F9328
:10055000CE0101969F938F931F922F9388EE93E085
:100560009F938F9389E196E09F938F930E94AF2191
:100570000FB6F894DEBF0FBECDBF89E196E088DEEE
:1005800006C08BE321E2A2CF8FE324E29FCF2A961D
:100590000FB6F894DEBF0FBECDBFDF91CF911F9194
:1005A0000F9108951F93CF93DF93CDB7DEB72A97AE
:1005B0000FB6F894DEBF0FBECDBF182F8091350166
:1005C000909136019A838983FE01339688E0DF019A
:1005D0001D928A95E9F74F3FBFEF5B076B077B07DB
:1005E000E9F080914B06882331F021E0CE0101969D
:1005F0000E949D1613C07F936F935F934F9380ED7E
:1006000093E09F938F93CE0101969F938F930E94C7
:10061000AF210FB6F894DEBF0FBECDBF133009F483
:1006200040C0123009F440C0113009F040C02BE343
:1006300094E280914B068823C1F080E091E09F9383
:100640008F93CE0101969F938F9386EF93E09F93B4
:100650008F9389E196E09F938F930E94AF210FB60D
:10066000F894DEBF0FBECDBF18C01F922F939E011E
:100670002F5F3F4F3F932F931F929F9382E094E011
:100680009F938F9389E196E09F938F930E94AF2170
:100690000FB6F894DEBF0FBECDBF89E196E0F8DD5E
:1006A00006C02BE391E2C5CF2FE394E2C2CF2A9696
:1006B0000FB6F894DEBF0FBECDBFDF91CF911F9173
:1006C00008950F931F93CF93DF9300D000D000D0F5
:1006D000CDB7DEB720913F01309140013A832983A5
:1006E0000091410110914201209143013091440158
:1006F0000B831C832D833E83611103C094E5998392
:1007000036C0613009F05CC09DE4998330C0242F6D
:1007100030E0A901440F551F220F331F220F331F52
:10072000220F331F420F531F5F934F938DEC93E0C3
:100730009F938F93CE0103969F938F930E94AF2137
:100740000F900F900F900F900F900F9009C04D30A9
:1007500038F44C3019F48BE28B8302C08DE28B832A
:10076000133049F0123051F0113051F50AC0182FF2
:100770004B3068F7CCCF8BE321E205C08FE324E256
:1007800002C08BE324E21F928F93CE0103969F93C6
:100790008F9302979F938F931F922F938DE094E0F6
:1007A0009F938F9389E196E09F938F930E94AF214F
:1007B00089E196E06DDD0FB6F894DEBF0FBECDBFC8
:1007C00026960FB6F894DEBF0FBECDBFDF91CF9156
:1007D0001F910F9108950F931F93CF93DF9300D034
:1007E00000D0CDB7DEB7182F833009F47DC082303A
:1007F00009F47DC001E0813009F000E080914B06F2
:10080000811102C010C001E0662319F06EE174E0AE
:1008100002C06BE174E0CE0101960E948B2100239F
:1008200009F46CC01BC01F926F938DEC93E09F93F3
:100830008F93CE0101969F938F930E94AF210F90CB
:100840000F900F900F900F900F90113009F056C03D
:100850000BE314E280914B068823C1F080E091E025
:100860009F938F93CE0101969F938F9382E294E0A2
:100870009F938F9389E196E09F938F930E94AF217E
:100880000FB6F894DEBF0FBECDBF17C01F920F93F7
:10089000CE0101969F938F931F921F938DE294E058
:1008A0009F938F9389E196E09F938F930E94AF214E
:1008B0000FB6F894DEBF0FBECDBF89E196E0E8DC4D
:1008C0001DC01F926F938DEC93E09F938F93CE0189
:1008D00001969F938F930E94AF210F900F900F90DE
:1008E0000F900F900F90B6CF0BE311E202C00FE311
:1008F00014E280914B06811186CFE3CF0F900F90C9
:100900000F900F90DF91CF911F910F9108951F933A
:10091000CF93DF9300D000D0CDB7DEB7162F409134
:10092000410150914201609143017091440149831A
:100930005A836B837C831F928F938DEC93E09F93FC
:100940008F93CE0101969F938F930E94AF210F90BA
:100950000F900F900F900F900F90112311F08FE3D5
:1009600001C08BE31F928F93CE0101969F938F93CB
:100970001F9284E28F9388E394E09F938F9389E1A1
:1009800096E09F938F930E94AF2189E196E080DCEF
:100990000FB6F894DEBF0FBECDBF0F900F900F9033
:1009A0000F90DF91CF911F9108950F931F93CF93D5
:1009B000DF93CDB7DEB728970FB6F894DEBF0FBE32
:1009C000CDBF962F142F409141015091420160916B
:1009D00043017091440149835A836B837C834D8327
:1009E0005E836F837887833011F401E201C004E2F3
:1009F000992391F01F929F938DEC93E09F938F9397
:100A0000CE0101969F938F930E94AF210F900F907C
:100A10000F900F900F900F90112391F01F921F9342
:100A20008DEC93E09F938F93CE0105969F938F93C8
:100A30000E94AF210F900F900F900F900F900F908A
:100A4000CE0105969F938F9304979F938F931F9248
:100A50000F9383E494E09F938F9389E196E09F93B3
:100A60008F930E94AF2189E196E012DC0FB6F894D3
:100A7000DEBF0FBECDBF28960FB6F894DEBF0FBE07
:100A8000CDBFDF91CF911F910F91089586E0EFE4E4
:100A9000F4E0A9E1B6E001900D928A95E1F789E1D1
:100AA00096E0F6CB0895CF93DF9300D000D000D02E
:100AB000CDB7DEB720913501309136013A832983D5
:100AC000FE01339624E0DF011D922A95E9F79F93FA
:100AD0008F938DEC93E09F938F93CE0101969F931C
:100AE0008F930E94AF210F900F900F900F900F9057
:100AF0000F9080914B068823C1F080E091E09F9396
:100B00008F93CE0101969F938F9385E594E09F93F9
:100B10008F9389E196E09F938F930E94AF210FB648
:100B2000F894DEBF0FBECDBF14C0CE0101969F93D7
:100B30008F9380E694E09F938F9389E196E09F9353
:100B40008F930E94AF210F900F900F900F900F90F6
:100B50000F9089E196E09CDB26960FB6F894DEBFF5
:100B60000FBECDBFDF91CF910895CF93DF9300D01B
:100B700000D000D0CDB7DEB72091350130913601DD
:100B80003A832983FE01339624E0DF011D922A95E2
:100B9000E9F79F938F938DEC93E09F938F93CE0112
:100BA00001969F938F930E94AF210F900F900F900B
:100BB0000F900F900F9080914B068823C1F080E03A
:100BC00091E09F938F93CE0101969F938F9387E639
:100BD00094E09F938F9389E196E09F938F930E9477
:100BE000AF210FB6F894DEBF0FBECDBF14C0CE014B
:100BF00001969F938F9383E794E09F938F9389E16E
:100C000096E09F938F930E94AF210F900F900F90CB
:100C10000F900F900F9089E196E03ADB26960FB681
:100C2000F894DEBF0FBECDBFDF91CF910895CF9373
:100C3000DF9300D000D000D0CDB7DEB720913501D2
:100C4000309136013A832983FE01339624E0DF0197
:100C50001D922A95E9F79F938F938DEC93E09F93D4
:100C60008F93CE0101969F938F930E94AF210F9097
:100C70000F900F900F900F900F9080914B0688234C
:100C8000C1F080E091E09F938F93CE0101969F93F6
:100C90008F938AE794E09F938F9389E196E09F93E7
:100CA0008F930E94AF210FB6F894DEBF0FBECDBF69
:100CB00014C0CE0101969F938F9384E894E09F9394
:100CC0008F9389E196E09F938F930E94AF210F90BD
:100CD0000F900F900F900F900F9089E196E0D8DA67
:100CE00026960FB6F894DEBF0FBECDBFDF91CF9131
:100CF00008950F931F93CF93DF9300D000D000D0BF
:100D0000CDB7DEB78B0120913501309136013A83A2
:100D10002983FE01339624E0DF011D922A95E9F72D
:100D20009F938F938DEC93E09F938F93CE010196C9
:100D30009F938F930E94AF210F900F900F900F9071
:100D40000F900F9080914B068823A9F10115110592
:100D5000D1F080E091E09F938F93CE0101969F9315
:100D60008F931F930F938BE894E09F938F9389E168
:100D700096E09F938F930E94AF210FB6F894DEBF49
:100D80000FBECDBF30C080E091E09F938F93CE0126
:100D900001969F938F9381EE93E09F938F9389E1C8
:100DA00096E09F938F930E94AF210FB6F894DEBF19
:100DB0000FBECDBF18C001151105A9F0CE010196D7
:100DC0009F938F931F930F9385E994E09F938F9345
:100DD00089E196E09F938F930E94AF210FB6F8941C
:100DE000DEBF0FBECDBF89E196E052DA26960FB680
:100DF000F894DEBF0FBECDBFDF91CF911F910F9151
:100E00000895A89504B603FE03C094B7987094BFE4
:100E1000813041F4E0E6F0E090819861908398E6BB
:100E2000908311C0811108C0E0E6F0E090819861E4
:100E3000908396E4908307C0E0E6F0E090819861AB
:100E4000908398E4908391E0811101C090E09093A9
:100E5000780608951F920F920FB60F9211244F92A9
:100E60005F926F927F928F929F92AF92BF92CF923A
:100E7000DF92EF92FF920F932F933F934F935F93E5
:100E80006F937F938F939F93AF93BF93EF93FF9352
:100E9000CF93DF931F92CDB7DEB780919E069091DE
:100EA0009F06019690939F0680939E068091A506CB
:100EB0009091A60601969093A6068093A506809130
:100EC000130190911401892B49F0809113019091A5
:100ED00014010197909314018093130180910F01E5
:100EE00090911001892B49F080910F019091100190
:100EF00001979093100180930F0180919906909132
:100F00009A06892B49F08091990690919A0601974B
:100F100090939A0680939906809111019091120105
:100F2000892B49F0809111019091120101979093C2
:100F30001201809311018091B106882349F08091BC
:100F4000B2069091B30601969093B3068093B206D1
:100F500080919306882359F0809191069091920692
:100F6000009729F0019790939206809391068091C3
:100F70001D01882319F0815080931D018091A106E5
:100F80009091A206892BF9F080917706811107C014
:100F900084B5806184BD81E08093770614C0809120
:100FA000A1069091A20601979093A2068093A106B4
:100FB0008091A1069091A206892B29F484B58F7E99
:100FC00084BD1092770680917606882341F0409B7D
:100FD00002C0409826C0409A1092760622C0909196
:100FE0001C0180918B069817E1F080917906882387
:100FF000C1F0409B409A90911C0180918B0689170B
:1010000038F4419880911C01815080931C0106C0E6
:10101000419A80911C018F5F80931C0181E0809335
:1010200076068091750681115FC08FEF80937406FC
:1010300019828981833008F044C120E09FEF31E0BC
:10104000E981F0E0EE0FFF1FEB5EFE4F4081518122
:10105000452B61F0E981F0E0EE0FFF1FEB5EFE4FE4
:10106000408151814150510951834083E981F0E031
:10107000EE0FFF1FEB5EFE4F40815181452B11F4B7
:101080009981232F89818F5F898389818330C0F281
:10109000222309F416C19093740699230CF411C10C
:1010A000892F990F990B9C01220F331FF901E159E8
:1010B000FC4F40815181F901EB5EFE4F518340832B
:1010C000ECE7F0E02081207FDC01AB58BC4F9C9125
:1010D000822F892B8083EAE7F0E08081806480831F
:1010E00081E080937506EDC080917A0086FDE9C0AD
:1010F0002091780030917900A4EEBCE00E94DA20C3
:101100004B015C01072E7AE0B694A79497948794DC
:101110007A95D1F7702D640140917406E42E042E67
:10112000000CFF08F701EE0FFF1FE258F94F208176
:1011300031812815390520F4D401A21BB30B03C05B
:10114000D901A819B90951E0F701EC57F94F5083BB
:10115000413091F5F701EE0FFF1FE759FC4F408139
:1011600051814A175B0758F4F701EE0FFF1FEB5E42
:10117000FE4F24E630E031832083940199C02C1582
:101180003D0518F42F5F3F4F04C0AB2B11F02150E9
:10119000310981E080939D06223883E0380718F0FA
:1011A00010921E0185C0243C81E0380708F480C0FD
:1011B00081E080931E017CC0423009F079C0A333E6
:1011C000B105B8F02C153D0538F0A536B10520F471
:1011D00069018AE0C81AD108C601A0E0B0E0809396
:1011E0007A0690937B06A0937C06B0937D069601C9
:1011F0005FC02C153D0540F0AB2B29F0690181E063
:10120000C81AD10801C0690180917A0690917B06C5
:10121000A0917C06B0917D06880F991FAA1FBB1F65
:10122000880F991FAA1FBB1F880F991FAA1FBB1FDA
:1012300080937A0690937B06A0937C06B0937D06FC
:1012400080917A0690917B06A0917C06B0917D06F4
:101250008C0D9D1DA11DB11D80937A0690937B0678
:10126000A0937C06B0937D0660917A0670917B0610
:1012700080917C0690917D0629E33EE843EE58E399
:101280000E94F32000E20E941C21422E532E642E65
:10129000752ED301C201B695A79597958795809332
:1012A0007A0690937B06A0937C06B0937D06960108
:1012B000F701EE0FFF1FE258F94F318320831092A0
:1012C00075060F90DF91CF91FF91EF91BF91AF9194
:1012D0009F918F917F916F915F914F913F912F914E
:1012E0000F91FF90EF90DF90CF90BF90AF909F90C5
:1012F0008F907F906F905F904F900F900FBE0F90E8
:101300001F9018951F920F920FB60F9211242F93D2
:101310003F938F939F9383B193B180910C01892761
:1013200093B190930C01882309F447C0807C09F4A1
:1013300044C02FEF3FEF30930E0120930D0128E8BA
:1013400033E1309314012093130193B1292F221F0D
:101350002227221F93B196FB992790F98038B1F488
:1013600029130AC08091B4069091B5060196909316
:10137000B5068093B40621C08091B4069091B5065D
:1013800001979093B5068093B40617C08034A9F4F2
:1013900029130AC08091B4069091B50601979093E5
:1013A000B5068093B40609C08091B4069091B50645
:1013B00001969093B5068093B4069F918F913F91CB
:1013C0002F910F900FBE0F901F9018951F920F92A4
:1013D0000FB60F9211248F939F93809198068823C4
:1013E00081F096B180910B01892796B190930B0102
:1013F000882339F082FF05C0329903C081E08093D1
:10140000A3069F918F910F900FBE0F901F9018957C
:101410001F920F920FB60F921124CF92DF92EF928C
:10142000FF921F932F933F934F935F936F937F93FD
:101430008F939F93AF93BF93CF93DF93EF93FF93DC
:101440001091C600C0917206D0917306209751F496
:101450000E94A200EC019093730680937206892B80
:1014600009F43BC280919406882309F437C1812F87
:1014700090E00E94832190917106992321F0915070
:10148000909371062AC2182F8B3169F4E09170068F
:10149000E53128F4F0E0E55AF94F108101C010E081
:1014A00082E0809371061D3009F049C088E893E11D
:1014B000909314018093130180915A06882331F18F
:1014C000E0917006EE23F9F082E088838091560661
:1014D000909157069A83898380915506882379F0E5
:1014E00090E001974091540655E1589F9001599F13
:1014F000300D1124C20FD31FC40FD11D1B82F0E089
:10150000E55AF94F10820E94710104C08FEF9FEFDE
:101510009A83898310927006109254061092560690
:1015200010925706109258061092590610925506BE
:10153000109273061092720610925A06CEC11123B1
:1015400009F4CBC180917006282F30E0F901E55AEB
:10155000F94F1083882309F4A1C01F37D9F58150B2
:101560008093700690915506911122C0E82FF0E00B
:10157000E55AF94F20818091560690915706A09127
:101580005806B0915906BC01CD01621B7109810951
:1015900091092AE030E040E050E00E949C20209336
:1015A000560630935706409358065093590692C0FA
:1015B00080915406882321F08150809354068AC07C
:1015C00085E1989FC00DD11D11241B8291509093ED
:1015D000550680C0103211F5F901E65AF94F908195
:1015E000903209F46CC190915506992389F0492FE6
:1015F00050E0415051096091540675E1749F90018B
:10160000759F300D1124C20FD31FC60FD11D1B8231
:101610009F5F909355061092540655C12091550630
:10162000211127C0409156065091570660915806E7
:1016300070915906440F551F661F771F6A017B0181
:10164000CC0CDD1CEE1CFF1CCC0CDD1CEE1CFF1CAE
:101650004C0D5D1D6E1D7F1D410F511D611D711DC6
:101660004093560650935706609358067093590658
:101670002AC19091540631E0390F3093540630E07E
:101680002150310965E1629FA001639F500D112433
:10169000C40FD51FC90FD11D1B8315C11F3709F4F6
:1016A0001CC1103209F419C110925506812F90E027
:1016B000A0E0B0E08093560690935706A09358069A
:1016C000B09359061B82188E1DA681E080935A069E
:1016D00080937006812F0E94D501FFC0143209F457
:1016E000CBC01132D1F4CCC0888310925406109232
:1016F000560610925706109258061092590681E02D
:1017000080935A061B82188E1DA610925506809152
:1017100070068F5F80937006E0C080915A06882320
:1017200009F483C01C3231F01B3309F4BEC01F33EF
:10173000E9F5B0C080915506882309F4C8C0282F68
:1017400030E0215031099091540645E1429FF0016B
:10175000439FF00D1124EC0FFD1FE90FF11D1382C3
:101760008F5F80935506109254061B3369F4809165
:101770007006843030F080915606909157069A8317
:10178000898310925A0696C01F3309F069C082E01F
:10179000888380917006843030F080915606909155
:1017A00057069A83898310925A0684C08091550601
:1017B000811127C08091560690915706A091580636
:1017C000B0915906880F991FAA1FBB1FAC01BD011C
:1017D000440F551F661F771F440F551F661F771F45
:1017E000840F951FA61FB71F810F911DA11DB11D4D
:1017F0008093560690935706A0935806B0935906C7
:101800002FC04091540691E0940F9093540690E0BD
:10181000019755E1589F9001599F300D1124C20F37
:10182000D31FC40FD11D1B831BC01D30C9F4809171
:101830009706811115C081E794E29A8389831092FB
:10184000540610925606109257061092580610929F
:10185000590610925506109273061092720607C030
:10186000809170068F5F809370068233B0F1109282
:101870005A061092700631C01092700681E034CF83
:101880001092700683E030CF81E08093550610926D
:1018900054067DCF809155068823B1F350CF81E067
:1018A000809355061092540662CF8091550681119F
:1018B00046CFF5CF1092730610927206D1CF8F5F8C
:1018C000809370060AC08F5F8093700603CF81E01B
:1018D0008093550610925406C3CFFF91EF91DF918C
:1018E000CF91BF91AF919F918F917F916F915F91B8
:1018F0004F913F912F911F91FF90EF90DF90CF90EC
:101900000F900FBE0F901F9018951F920F920FB659
:101910000F9211242F933F934F935F936F937F9375
:101920008F939F93AF93BF93EF93FF938091520652
:1019300090915306892B31F40E94520090935306E4
:1019400080935206E0915206F09153068091510621
:10195000DF01A80FB11D9C91992331F08F5F809317
:1019600051069093C6000DC01092510610820E943D
:1019700052009093530680935206892B11F40E94D3
:101980001101FF91EF91BF91AF919F918F917F9145
:101990006F915F914F913F912F910F900FBE0F90DC
:1019A0001F9018951F920F920FB60F9211242F932C
:1019B0003F938F939F9380919806882309F458C092
:1019C00099B180910901892799B1909309018823E0
:1019D00009F44EC0982F9C7161F028E833E13093F0
:1019E0001401209313012FEF3FEF30930E0120934A
:1019F0000D0182FF17C04A9B0EC01092AD06909158
:101A0000A406911105C09091AE069F5F9093AE061B
:101A10001092A40607C091E09093AD061092A6061E
:101A20001092A50683FF11C04B9B08C01092AB0615
:101A30009091AC069F5F9093AC0607C091E09093A5
:101A4000AB061092A6061092A50684FF11C04C9B0F
:101A500008C01092A9068091AA068F5F8093AA06FB
:101A600007C081E08093A9061092A6061092A506F1
:101A70009F918F913F912F910F900FBE0F901F90CC
:101A8000189560918A0681E090E00E94701660913E
:101A90008B0680E090E00C94701608951F920F92D0
:101AA0000FB60F9211242F933F934F935F936F9331
:101AB0007F938F939F93AF93BF93EF93FF93109276
:101AC0003001DFDF80917806811109C080910A0121
:101AD000882389F0E0E6F0E0808180648083809153
:101AE0000A01882341F0815080930A018091940675
:101AF00081110E946901FF91EF91BF91AF919F9178
:101B00008F917F916F915F914F913F912F910F90A6
:101B10000FBE0F901F90189582E090E00E94502415
:101B2000853A69F481E090E00E94502480938A060F
:101B300080E090E00E94502480938B0608958CE30F
:101B400080938A068BE080938B069BDF65EA82E0B8
:101B500090E00C945D240895CF93DF93CDB7DEB76A
:101B600061970FB6F894DEBF0FBECDBFD5DF209AC8
:101B700085B1856085B982EE8AB98CE18BB983E045
:101B800087B984E388B90E9435019CE097BD84B58C
:101B9000826084BD85B5856085BD9093B300E0EB20
:101BA000F0E0808182608083E1EBF0E080818760FB
:101BB0008083E0E7F0E0808184608083ECE7F0E000
:101BC000808180648083EAE7F0E080818768808399
:101BD000E8E6F0E0808187608083EDE6F0E08081D8
:101BE0008C618083ECE6F0E0808184608083EBE6AA
:101BF000F0E0808184608083789484E893E090931F
:101C0000100180930F0180E0FCD819D7A89580912E
:101C10008A060E946718A8950E9446050E94FE0049
:101C20008111FCCFA89540E062E081E00E94D504DC
:101C30000E94FE008111FCCF84E090E190939A060F
:101C40008093990681E0DDD881E080939806212C6D
:101C5000312C712C612C512C412C198AC12C0F2E46
:101C6000FEE7AF2EF6E0BF2EF02D6894882482F8B0
:101C7000992494F806C01801782E642E532E422E13
:101C8000998BF894A89578948091A006882379F090
:101C90008091A00681508093A0068091A0068111BA
:101CA00006C084E690E09093A2068093A1068091FE
:101CB0009D06882309F467C4D50112968D919C91E5
:101CC00013978D33914008F071C080917906882375
:101CD00009F46CC08091110190911201892B09F0D7
:101CE00052C48091B606843051F084E08093B606E9
:101CF0005E9888E893E190931401809313018FEF2D
:101D00009FEF90930E0180930D018091940688239C
:101D100071F180911301909114019C01220F331FE6
:101D2000880F991F880F991F880F991F280F391F37
:101D3000369527953695279536952795A7E3BAE1E9
:101D40000E94DA208C010024000F111F001C000FDC
:101D5000111F001C012F102D80915006801739F0A3
:101D6000802F0E94DC010E946D010093500680913B
:101D7000130190911401892B09F005C482DE299882
:101D800088E893E1909314018093130180911301EB
:101D900090911401892B31F0F50182819381843C6B
:101DA0009140A0F3A8951092B606EDC3D501129606
:101DB0008D919C911397843C9140D8F081E0809361
:101DC000790684E690E0909312018093110188E2F5
:101DD00093E29093100180930F0188E893E1909330
:101DE000140180931301299A5E9A8BE080931C0161
:101DF000CAC380910F0190911001892B09F0C3C3D0
:101E00008091B606853049F085E08093B60688E873
:101E100093E19093140180931301809113019091A9
:101E20001401892B09F0AFC329985E98F5018281CE
:101E30009381843C9140D0F3A895A5C3D801119615
:101E40008D919C9112978E31B3E09B0709F411C2DA
:101E500020F58F34910509F480C060F48134910538
:101E600009F444C08234910509F41CC3CF9709F0EA
:101E700077C330C38235910509F47BC328F48035DC
:101E8000910509F47BC06CC38335910509F417C330
:101E90008435910509F46DC363C3813DFEE19F075D
:101EA00009F4A7C078F4883B4CE1940709F4D8C240
:101EB00088315DE1950709F40CC28139934009F03E
:101EC0004FC343C0873FB3E29B0709F45AC020F4D5
:101ED0008A399342B1F144C3813724E2920709F46D
:101EE000A9C28A3F944209F411C23AC3D801139699
:101EF0008C918823F1F0C80103960E944021F82EAE
:101F00000E94A219F0928C06FF2051F080911B01D3
:101F1000846080931B0180911B010E94B31909C04A
:101F200080911B018B7F80931B0180911B010E947C
:101F3000B31980918C0660E070E090E00E94790611
:101F400018C382E00E940107FFCF81E090919306C1
:101F5000911180E0809393060CC3F801838188235C
:101F600029F0C80103960E945D217BD691D6AB0172
:101F7000BC0120E083E00E941002FBC295D581DD08
:101F8000F8C2D80113968C91882309F4F2C28FEF1E
:101F90009FEFDC018D879E87AF87B88B8091940679
:101FA0008823D1F0D80115968C9115978A3321F4A6
:101FB00018968C918A3339F0F80184818A33A1F420
:101FC00087818A3389F4C80103960E94F9176D87C7
:101FD0007E878F87988B08C0C80103960E945D2179
:101FE0006D877E878F87988B8D859E85AF85B88915
:101FF000C0C2D80113968C91882309F417C18D347F
:1020000009F0F9C0C80104960E9440217C0119869C
:102010001A861B861C8610D5FF24B3E0EB16F1044C
:1020200029F14CF4F1E0EF16F10471F022E0E21630
:10203000F10499F036C044E0E416F10401F155E0F2
:10204000E516F10429F12DC0882371F10F2EF9E274
:10205000EF2EF0E0FF2EF02D49C0882361F10F2E06
:10206000FDE2EF2EF0E0FF2EF02D40C0882351F16D
:102070000F2EF1E3EF2EF0E0FF2EF02D37C0882376
:1020800041F10F2EF5E3EF2EF0E0FF2EF02D2EC0E4
:10209000882331F10F2EF9E3EF2EF0E0FF2EF02D23
:1020A00025C0E12CF12C22C00F2EF5E1EF2EF0E03F
:1020B000FF2EF02D1BC00F2EF9E1EF2EF0E0FF2ECA
:1020C000F02D14C00F2EFDE1EF2EF0E0FF2EF02DCD
:1020D0000DC00F2EF1E2EF2EF0E0FF2EF02D06C026
:1020E0000F2EF5E2EF2EF0E0FF2EF02DE114F104BB
:1020F00009F477C01D821E821F8218868091940683
:10210000882389F0D80158969C91992361F0C801E1
:1021100048960E945D216D837E838F83988781E03E
:10212000F801808329C0D8019C91923001F5C70144
:102130000E94582469877A878B879C87672B682B36
:10214000692B09F450C0CE0109965FD3882309F4A6
:102150004CC089859A85AB85BC8580938D0690930C
:102160008E06A0938F06B093900621E069C091304F
:1021700009F03DC0882319F18D819E81AF81B8851A
:1021800089839A83AB83BC83CE0101963ED3882397
:1021900089F089819A81AB81BC8180938D0690936F
:1021A0008E06A0938F06B093900689879A87AB8797
:1021B000BC870AC019861A861B861C8605C0C1D337
:1021C00069877A878B879C8749855A856B857C854B
:1021D000411551056105710561F0C70192D521E0F6
:1021E0002FC020E02DC021E02BC021E029C021E03C
:1021F00027C021E025C0C80103960E945D216983A4
:102200007A838B839C83CE010196FFD2882361F071
:1022100089819A81AB81BC8180938D0690938E06D3
:10222000A0938F06B093900620E00AC08AD36093F3
:102230008D0670938E0680938F069093900620E013
:1022400080918D0690918E06A0918F06B091900698
:10225000892B8A2B8B2B09F48CC140918D065091D0
:102260008E0660918F067091900683E00E941002A6
:1022700080C1F8018381882309F47BC1C8010396DA
:102280000E944021F82E80939706D80158968C9191
:10229000882331F0C80148960E944021823059F0CD
:1022A0004F2D62E083E00E94D50490929A068092BE
:1022B0009906C12C5EC1C11005C04F2D62E083E0BC
:1022C0000E94D50410929A0610929906CC24C394C9
:1022D00050C1F8018381882371F0C80103960E94E0
:1022E00040218035910519F481E054D304C0029750
:1022F00011F480E04FD3A0D3D8019C91923009F023
:1023000038C1682F83E00E94EB0333C1F801838159
:10231000843509F464C28D3409F02BC162C28B325A
:1023200009F46FC28D3209F464C2C80148960E9454
:102330004021D1104BC09923B4F422E005C02FEF07
:1023400003C020E001C021E080918A0690E02130A6
:1023500029F48F3F91053CF40A9605C02F3F19F4EC
:10236000009709F00A97992314F480E090E07C012B
:102370008F3F910521F01CF0EE24EA94F12C80911E
:102380008A0690E08E159F0521F08E2DA0D6E09252
:102390008A0684E18093A00674DB80919406811103
:1023A00036C03DC080918B068F30F0F480918B0653
:1023B0008F5F80938B0618C080918B068823A1F0D5
:1023C00080918B06815080938B060EC080319105E1
:1023D00024F08FE080938B0607C099231CF41092A1
:1023E0008B0602C080938B0684E18093A00649DBB4
:1023F00080919406882399F021E0D21208C0809140
:102400008B066DE974E090E00E94F201B2C0809109
:102410008A0666EA74E090E00E94F201AAC0D80140
:102420008C91823009F0AAC04DE06D2D83E00E94AE
:1024300061039FC00E94BF0180939406882309F422
:102440009DC0109296061092950610929A061092D0
:1024500099068FEA94E00E94B201CC24C39489C00B
:10246000C80103960E944021F8012081223061F4C6
:102470002091950630919606A901482BCA019093A8
:1024800096068093950675C0992780959095209122
:102490009506309196068223932390939606809317
:1024A000950667C080919406882309F467C0D5011A
:1024B00012968D919C9113970E9453055AC080915A
:1024C0009406882309F45AC0F501848195810E94FD
:1024D000B5054FC0F894A895789480EB94E00E94DD
:1024E000B201AAD2682F83E00E94EB032AD2AB018B
:1024F000BC0120E083E00E941002CAD3AB01BC0102
:1025000020E083E00E94100280918C0662EB74E070
:1025100090E00E94F20180918B066DE974E090E0FA
:102520000E94F20180918A0666EA74E090E00E94BF
:10253000F201F894A8957894D50112968D919C910A
:1025400013970E945305F501848195810E94B5057A
:102550008FEA94E00E94B201F894A895789409C09B
:1025600080919406882319F00E94750102C00E9490
:102570001D018091940681110E946D01D80112966F
:102580001C921E9211970E94D0008C01892B09F099
:1025900055CC8091A306882329F01092A306CE0182
:1025A0000196E5D600919E0610919F0620163106F1
:1025B00009F4D2C000919E0610919F068091930667
:1025C000882309F452C08091910690919206892B3C
:1025D00009F04BC040917A0650917B0660917C06D1
:1025E00070917D0680914E0690914F06A0E0B0E07C
:1025F00084179507A607B707C1F160917A06709115
:102600007B0680917C0690917D062AE030E040E0D8
:1026100050E00E949C2080914C0690914D068217BC
:102620009307B9F030934D0620934C0684E690E072
:102630009093920680939106C901880F991F220FEB
:10264000331F220F331F220F331F820F931F0E944D
:10265000B50580917A0690917B06A0917C06B09199
:102660007D0690934F0680934E0680911D01811147
:102670005AC08091950690919606009709F453C030
:1026800080FF1BC0809185068823B9F0F501228167
:10269000338126523F4FA8EEB3E00E94DA202FED9F
:1026A00030E040E050E00E949C20C9010E945305A8
:1026B0001092850684E680931D018091950681FF26
:1026C00010C080918606882361F0D50114968D9103
:1026D0009C9115970E94B5051092860684E680931A
:1026E0001D018091950682FF1EC08091840688237B
:1026F000D1F010928406F50160817181CB01A0E0D8
:10270000B0E0BC01CD01675F7F4F8F4F9F4F24E644
:1027100030E040E050E00E949C20C9010E94170672
:1027200084E680931D018091990690919A06892BE9
:1027300099F4C11011C080910801882369F081507B
:102740008093080190929A0680929906409197068C
:1027500062E081E00E94D5048091B4069091B506B4
:102760009091B006F989F91741F084E690E09093D2
:10277000A2068093A1069091B0062091AE06421663
:1027800041F024E630E03093A2062093A106209188
:10279000AE063091AC06531641F044E650E050933B
:1027A000A2064093A1063091AC064091AA06641699
:1027B00041F044E650E05093A2064093A1064091B8
:1027C000AA068091A806781609F455CA64E670E056
:1027D0007093A2066093A1068091A8064CCAD12CE2
:1027E00002C0DD24D394D80158968C91811197CDE5
:1027F00004C0DD2009F4A3CDDFCDDD2009F4A1CD97
:10280000F3CDDD2009F49FCDCDCD0F931F93FC01B7
:1028100040815181628173818A019B01015E17466B
:10282000254331090F31114A2740310568F540939E
:102830002301509324016093250170932601809118
:102840002F0181FF06C040525B4B6C457F4F91E0EA
:1028500070C0413E04E4500703EA6007710530F0A0
:10286000405E5444634A710991E063C080EE94E491
:10287000A3EAB0E08C019D01041B150B260B370B5E
:10288000B901A80191E055C08A019B01015014448F
:10289000254938400F3F18402D43310508F042C00C
:1028A00040931F01509320016093210170932201F6
:1028B00080912F0180FF06C040525B4B6C457F4FDB
:1028C00090E037C0413EF4E45F07F3EA6F0771051B
:1028D00030F0405E5444634A710990E02AC080EEB3
:1028E00094E4A3EAB0E08C019D01041B150B260BB8
:1028F000370BB901A80190E01CC08091270190918D
:102900002801A0912901B0912A018A019B01081B8D
:10291000190B2A0B3B0BC901B80140E00E94661F4E
:1029200081E00CC0FC01108211821282138280E0CF
:1029300005C08091B806891701F380E01F910F91BF
:1029400008958091B7068823D1F08091B80681114F
:1029500009C060911F017091200180912101909127
:10296000220108958091B806813069F460912301B5
:10297000709124018091250190912601089560E0D5
:1029800070E0CB01089560E070E0CB010895809382
:102990002F010895CF93DF93CDB7DEB729970FB6F8
:1029A000F894DEBF0FBECDBF898789858130E1F401
:1029B00089858093B8068BE290E02BE230E0F90144
:1029C00020812068FC0120838091230190912401C3
:1029D000A0912501B091260189839A83AB83BC83A2
:1029E000CE01019612DF1EC089858823D9F489851E
:1029F0008093B8068BE290E02BE230E0F901208171
:102A00002F77FC01208380911F0190912001A091DC
:102A10002101B09122018D839E83AF83B887CE01BF
:102A20000596F3DE000029960FB6F894DEBF0FBEC0
:102A3000CDBFDF91CF9108958091B806089540E011
:102A400050E0BA0180E40E949D1D30D080EE94E4F5
:102A5000A3EAB0E080932B0190932C01A0932D0169
:102A6000B0932E018091B80695DF60912B01709193
:102A70002C0180912D0190912E0142E00E94661F51
:102A800060E082E00E943C1E61E082E00E940B1E3A
:102A900060E080E00E943C1E61E080E00E940B1E2E
:102AA00081E08093B7060895AFC0089583E090E079
:102AB0000E945024853A59F588E090E00E94502405
:102AC0008093B80689E090E00E94582460931F012B
:102AD0007093200180932101909322018DE090E07A
:102AE0000E94582460932301709324018093250150
:102AF0009093260181E190E00E9458246093270181
:102B0000709328018093290190932A01089540E948
:102B100054E169E978E085E190E00E946B2440EEA1
:102B200057ED69E978E089E190E00E946B2440E389
:102B30005BE96AE978E08DE190E00E946B2440E86F
:102B40005EE56BE978E081E290E00E946B2440ED65
:102B500051E26CE978E085E290E00E946B244CE65B
:102B60005EE966E370E089E290E00E946B2440E455
:102B700052E566E370E08DE290E00E946B2448EC41
:102B800055E666E370E081E390E00E946B2440E547
:102B900059E766E370E085E390E00E946B2448ED1E
:102BA0005CE866E370E089E390E00E946B2465EAEC
:102BB00083E090E00E945D241092B80680E399E2E1
:102BC000ADEAB8E080931F0190932001A09321010A
:102BD000B093220180E39BE2A6E3B0E0809323015F
:102BE00090932401A0932501B093260184EF91E0F6
:102BF000A0E0B0E08093270190932801A0932901E1
:102C0000B0932A0101C008956091B80688E090E071
:102C100067D040911F015091200160912101709176
:102C2000220189E090E06DD0409123015091240170
:102C300060912501709126018DE090E062D0409175
:102C40002701509128016091290170912A0181E1A9
:102C500090E057D0FAD3AB01BC0184E090E051C0C2
:102C60000895613D27E072078105910578F4DC0144
:102C7000CB018093270190932801A0932901B09361
:102C80002A018091B80686DE81E0089580E00895EB
:102C900060912701709128018091290190912A016A
:102CA00008950F931F938B019C01145425493840BC
:102CB000013019402D43310568F0DC01CB01805E05
:102CC0009746A543B1098132914AA740B10520F446
:102CD00081E003C080E001C082E01F910F91089560
:102CE0001F93CF93DF93EC01162F0E94502481177E
:102CF00021F0612FCE010E945D24DF91CF911F91C1
:102D00000895CF92DF92EF92FF92CF93DF93EC0181
:102D10006A017B010E9458246C157D058E059F0574
:102D200029F0B701A601CE010E946B24DF91CF915B
:102D3000FF90EF90DF90CF9008954F925F926F9247
:102D40007F928F929F92AF92BF92CF92DF92EF923B
:102D5000FF920F931F93CF93DF93EC016A017B01E6
:102D6000622E83E028137EC077233CF490E8C90EDE
:102D700091E5D91E91E0E91EF11CE0E7CE16E7E1EE
:102D8000DE06E104F1042CF41D826894772472F8C5
:102D9000CEC0F0E6CF16FAEEDF06E104F104ECF463
:102DA000C701B6012CE330E040E050E00E94BE20B5
:102DB0005F934F933F932F9387EB94E09F938F9371
:102DC000DF93CF930E94AF21EDB7FEB738960FB6D1
:102DD000F894FEBF0FBEEDBFFBC00F2EF0E18F2EAB
:102DE000FEE09F2EA12CB12CF02DC701B601A5014C
:102DF00094010E94BE20122F032FF42EE52EDC0139
:102E0000CB01880F991FAA1FBB1F2C013D01440C49
:102E1000551C661C771C440C551C661C771CBC0199
:102E2000CD01640D751D861D971DA50194010E949D
:102E3000BE205F934F933F932F93EF92FF920F9398
:102E40001F938DEB94E09F938F93DF93CF930E941A
:102E5000AF21EDB7FEB73C960FB6F894FEBF0FBE9C
:102E6000EDBFB6C077237CF4F094E094D094C09486
:102E7000C11CD11CE11CF11C19868DE28883689469
:102E8000772473F854C018860F2EF7E07F2EF02DAC
:102E90004EC0C50DD11DCA01B9012AE030E040E0A5
:102EA00050E00E94BE20605D688392C08E01050DD7
:102EB000111DCA01B90126E030E040E050E00E9457
:102EC000BE20605DF80160838BEF870DFE01E80F87
:102ED000F11D8AE38083C701B60120E13EE040E0B6
:102EE00050E00E94BE20CA01B90128E130E040E074
:102EF00050E00E94BE208AEF870DFE01E80FF11D11
:102F00008DEC689F812D1124869586958695282FB6
:102F1000220F922F990F990F920F691B605D6083AA
:102F200099EF970DC90FD11D805D888351C08E0127
:102F3000070D111D0F2EFAE08F2E912CA12CB12C14
:102F4000F02DC701B601A50194010E94BE20605D6D
:102F5000F80160838FEF870D8E01080F111DCA01E4
:102F6000B90126E030E040E050E00E94BE20605D04
:102F7000F80160838EEF870DFE01E80FF11D8AE3F3
:102F800080830F2EFCEF5F2EF02D570C8DEF870DF9
:102F90008E01080F111DC701B6012CE330E040E09F
:102FA00050E00E94BE20CA01B901A50194010E940F
:102FB000BE20605DF8016083C701B60128E532E0FC
:102FC00040E050E00E94BE20F3E06F126FCF61CF6F
:102FD000DF91CF911F910F91FF90EF90DF90CF90F5
:102FE000BF90AF909F908F907F906F905F904F9029
:102FF00008958F929F92AF92BF92FF920F931F936B
:10300000CF93DF9300D01F92CDB7DEB78C011B8228
:103010001A82FC018181908199838A3329F08A8305
:103020006894FF24F1F802C0FF24F394CE010196C6
:103030000E945D219B01AC01A0E1BEE00E94E9205D
:103040004B015C0181E08F0DF801E80FF11D8081DB
:10305000898382E08F0DF801E80FF11D80818A835A
:10306000CE0101960E945D219B01AC01ACE3B0E072
:103070000E94E920860E971EA81EB91E84E08F0DBF
:10308000F801E80FF11D8081898395E09F0DF8011B
:10309000E90FF11D80818A83CE0101960E944021B3
:1030A000092E000CAA0BBB0BBC01CD01680D791DCC
:1030B0008A1D9B1D0F900F900F90DF91CF911F9154
:1030C0000F91FF90BF90AF909F908F900895CF93F6
:1030D000DF931F92CDB7DEB7898321E0AE014F5F4A
:1030E0005F4F60E088E57BD00F90DF91CF9108952E
:1030F000E4E6F0E080818F7780831092B90085E26A
:103100008093B80084E08093BC0081E0809330011C
:10311000089584EA8093BC00ECEBF0E08081882382
:1031200024F0809130018111F9CF8091300181111B
:1031300007C080E98093BC0081E08093300108954E
:1031400080E0089584E98093BC0008958093BB00DB
:1031500084E88093BC00ECEBF0E08081882324F0CD
:10316000809130018111F9CF8091B900887F861755
:1031700039F084E98093BC0081E0809330010895A8
:1031800080E0089584EC8093BC00ECEBF0E080815B
:10319000882324F0809130018111F9CF8091BB0008
:1031A000089584E88093BC00ECEBF0E080818823F4
:1031B00024F0809130018111F9CF8091BB000895F6
:1031C0002091B900287F30E090E02817390729F0D6
:1031D00084E98093BC0081E0089580E00895CF9356
:1031E000DF9300D000D000D0CDB7DEB78A836B83E9
:1031F0005D834C832E8319828CDF88E0E1DF882396
:1032000011F081E028C068E18A81A0DF882311F0F5
:1032100081E021C068E28B8199DF8823A1F081E001
:103220001AC0898191E0980F9983882F90E02C81B2
:103230003D81820F931FFC01808168E287DF882334
:1032400011F081E008C08E819FEF980F9E83882344
:1032500041F778DF80E026960FB6F894DEBF0FBE08
:10326000CDBFDF91CF9108950F931F93CF93DF933D
:1032700000D000D000D0CDB7DEB78A836B835D83EA
:103280004C832E83198245DF88E09ADF882311F072
:1032900081E04DC068E18A8159DF882311F081E027
:1032A00046C068E28B8152DF882311F081E03FC085
:1032B00030DF80E185DF882311F081E038C08A812A
:1032C000816060E443DF882351F181E030C08E816A
:1032D0008823A1F0898191E0980F9983882F90E04D
:1032E0002C813D818901080F191F4CDFF801808373
:1032F00080E566DF882399F081E019C08981882FF5
:1033000090E02C813D818901080F191F4ADFF801E7
:10331000808388E555DF882311F081E008C08E8125
:103320009FEF980F9E83882391F60CDF80E026960E
:103330000FB6F894DEBF0FBECDBFDF91CF911F91C6
:103340000F910895CF93DF931F92CDB7DEB7898396
:1033500021E0AE014F5F5F4F62E180E540DF0F90FB
:10336000DF91CF910895682F80E705C00895BC01D3
:1033700081E724C00895CF93DF9300D0CDB7DEB7A7
:1033800089836A83C6DE88E01BDF882311F081E031
:1033900010C068E18981DADE882311F081E009C07C
:1033A00068E28A81D3DE882311F081E002C0CADEA0
:1033B00080E00F900F90DF91CF910895CF93DF932E
:1033C00000D01F92CDB7DEB789837B836A83A1DEED
:1033D00088E0F6DE882311F081E01CC068E1898175
:1033E000B5DE882311F081E015C093DE88E0E8DEC9
:1033F000882311F081E00EC0D4DE282F8A819B81C2
:10340000FC01208388E5DCDE882311F081E002C026
:1034100099DE80E00F900F900F90DF91CF9108958B
:1034200024E0829FC0011124FC01E754F94F608120
:1034300071818281938108956093CA067093CB064F
:103440008093CC069093CD0608956091CA06709142
:10345000CB068091CC069091CD0608954F925F9255
:103460006F927F928F929F92AF92BF92CF92DF9294
:10347000EF92FF920F931F93CF93DF93EC018B0199
:10348000488059806A807B80411451046104710432
:1034900009F443C0FB0180809180A280B380811435
:1034A0009104A104B104C9F1C301B201A5019401C1
:1034B00043D66B017C01672B682B692B19F40FC075
:1034C0006B017C01C501B401A701960135D6460107
:1034D0005701611571058105910591F702C07501CC
:1034E0006401F2E0CF16D104E104F104B0F0C301AD
:1034F000B201A701960120D6288339834A835B83D2
:10350000F8016081718182819381A701960114D6AF
:10351000F8012083318342835383DF91CF911F9140
:103520000F91FF90EF90DF90CF90BF90AF909F9062
:103530008F907F906F905F904F9008954F925F9221
:103540006F927F928F929F92AF92BF92CF92DF92B3
:10355000EF92FF920F931F93CF93DF93CDB7DEB718
:1035600028970FB6F894DEBF0FBECDBF8A01C0907A
:103570003101D0903201E0903301F0903401A70185
:103580009601DAD549015A0169837A838B839C833A
:10359000CD82DE82EF82F886BE016B5F7F4FCE0167
:1035A00001965CDFC980DA80EB80FC80CC0CDD1CEE
:1035B000EE1CFF1CCC0CDD1CEE1CFF1CCC0CDD1C1F
:1035C000EE1CFF1CCC0CDD1CEE1CFF1CCC0CDD1C0F
:1035D000EE1CFF1CCC0CDD1CEE1CFF1CCC0CDD1CFF
:1035E000EE1CFF1C4D805E806F807884C701B601A1
:1035F000A3019201A1D5CA01B901880C991CAA1C8A
:10360000BB1C880C991CAA1CBB1C880C991CAA1CEE
:10361000BB1C880C991CAA1CBB1C880C991CAA1CDE
:10362000BB1C880C991CAA1CBB1C880C991CAA1CCE
:10363000BB1C325041095109820E931EA41EB51EB7
:10364000F80180829182A282B382A301920165D5A2
:10365000C61AD70AE80AF90AC482D582E682F78236
:10366000408651866286738680E028960FB6F8946D
:10367000DEBF0FBECDBFDF91CF911F910F91FF90A5
:10368000EF90DF90CF90BF90AF909F908F907F9002
:103690006F905F904F9008953F924F925F926F921C
:1036A0007F928F929F92AF92BF92CF92DF92EF92D2
:1036B000FF920F931F93CF93DF934B015C01EA01BD
:1036C00081E0F9018083F0E88F16F1ED9F06F0EFBD
:1036D000AF06F8E0BF0640F1C501B401660F771FE1
:1036E000881F991F660F771F881F991FC12CD12C27
:1036F00076016894C2F83BC0A32DB0E0A501940107
:1037000068D5A3019201261B370B480B590BCA0140
:10371000B90133943394611536E4730733EC8307AE
:1037200033E29307F0F010C06894332431F860E07E
:1037300079EE84EA95E30F2E412CF9EE5F2EF4EA40
:103740006F2EF5E37F2EF02DA5019401F5D46901CC
:103750007A0144E0C416D104E104F10408F042C047
:10376000CBCF60E070E0CB01C12CD12C760121E001
:1037700054E0C516D104E104F10409F020E0F80199
:103780002083CC0CDD1CEE1CFF1CCC0CDD1CEE1CC5
:10379000FF1CCC0CDD1CEE1CFF1CCC0CDD1CEE1C3D
:1037A000FF1CCC0CDD1CEE1CFF1CCC0CDD1CEE1C2D
:1037B000FF1CCC0CDD1CEE1CFF1CF2E0DF1AE10844
:1037C000F108C882D982EA82FB821C821D821E8295
:1037D0001F8201E010E020E030E0088719872A8787
:1037E0003B8706C0A5019401C701B60196D4BFCF9F
:1037F000DF91CF911F910F91FF90EF90DF90CF90CD
:10380000BF90AF909F908F907F906F905F904F9000
:103810003F9008952F923F924F925F926F927F92C6
:103820008F929F92AF92BF92CF92DF92EF92FF92D0
:103830000F931F93CF93DF93CDB7DEB762970FB689
:10384000F894DEBF0FBECDBF6B017C011A013E872D
:103850002D878091C6069091C706A091C806B091A9
:10386000C90689879A87AB87BC87BC01CD01A701B0
:10387000960162D449015A012F87388B498B5A8BA4
:1038800069837A838B839C83CD82DE82EF82F88684
:10389000BE016B5F7F4FCE010196E0DD4D805E8003
:1038A0006F807884C980DA80EB80FC80A501940168
:1038B000C301B20132D49B01AC012C0D3D1D4E1D44
:1038C0005F1D69857A858B859C8536D4CA01B901CF
:1038D000A301920122D469877A878B879C87C114C0
:1038E000D104E104F10409F085C080FE75C082C0F6
:1038F00081E0D8018C93F10110821182128213822F
:10390000148215821682178281E090E0A0E0B0E078
:1039100080879187A287B38771C0D8011C92CC0C95
:10392000DD1CEE1CFF1CCC0CDD1CEE1CFF1CCC0CAB
:10393000DD1CEE1CFF1CCC0CDD1CEE1CFF1CCC0C9B
:10394000DD1CEE1CFF1CCC0CDD1CEE1CFF1CCC0C8B
:10395000DD1CEE1CFF1CC701B601A3019201ECD3D4
:10396000CA01B901880C991CAA1CBB1C880C991CA3
:10397000AA1CBB1C880C991CAA1CBB1C880C991C7B
:10398000AA1CBB1C880C991CAA1CBB1C880C991C6B
:10399000AA1CBB1C880C991CAA1CBB1C89019A017F
:1039A000125021093109800E911EA21EB31EF10191
:1039B00080829182A282B382A3019201AED3C61A01
:1039C000D70AE80AF90AC482D582E682F7824086DD
:1039D00051866286738612C081E0AD85BE858C9368
:1039E0008F859889A989BA890497A105B10509F03D
:1039F00094CF7ECFAD85BE851C928FCF69857A85A9
:103A00008B859C8562960FB6F894DEBF0FBECDBF46
:103A1000DF91CF911F910F91FF90EF90DF90CF90AA
:103A2000BF90AF909F908F907F906F905F904F90DE
:103A30003F902F900895262F682F80ECD0CB0895CB
:103A4000FF920F931F93CF93DF93CDB7DEB76697A7
:103A50000FB6F894DEBF0FBECDBFF42E0091CA069C
:103A60001091CB062091CC063091CD06AE014F5F70
:103A70005F4F64DD8A858D8789858E878B81837012
:103A80008F878A81888B8981898B9B858F818F70B5
:103A900020E1929F800D11248A8B8E818B8B8D81EA
:103AA0008C8B81E0F81207C0AE01435F5F4F68E086
:103AB0008AE1C1DF06C0AE01435F5F4F68E082E28A
:103AC000BADF66960FB6F894DEBF0FBECDBFDF91AA
:103AD000CF911F910F91FF9008956093C606709348
:103AE000C7068093C8069093C90642E0A9CF0895FF
:103AF000CF93DF931F92CDB7DEB7698321E0AE018C
:103B00004F5F5F4F682F80EC6ADB0F90DF91CF91A2
:103B10000895CF93C82F80FF03C060E281EBE8DFF8
:103B2000C1FF03C060E881EBE3DFCF910895AB01F3
:103B300021E0682F80EC98CB0895CF92DF92EF922E
:103B4000FF921F93CF93DF931F92CDB7DEB7182F4D
:103B50006A017B01CDDA1092C6061092C706109258
:103B6000C8061092C90680E498E7ADE7B1E08093FB
:103B7000310190933201A0933301B093340110923C
:103B8000C5066FEF83E0B4DF6CEC80E1B1DF6CEC75
:103B900081E1AEDF6CEC82E1ABDF612F62616983B2
:103BA00087EBA6DFC114D104E104F10451F40F2E18
:103BB000F0E4CF2EF8E7DF2EFDE7EF2EFF24F3949D
:103BC000F02D8091310190913201A0913301B0919B
:103BD0003401C816D906EA06FB06A1F0BE016F5FE4
:103BE0007F4F8FE0A4DF81110DC069816F736983FE
:103BF000C0923101D0923201E0923301F09234014F
:103C00008FE076DF0F90DF91CF911F91FF90EF90C3
:103C1000DF90CF9008950F931F93CF93DF931F9260
:103C2000CDB7DEB7182F062FBE016F5F7F4F83E041
:103C30007EDF81111BC0002361F081E090E002C0B3
:103C4000880F991F1A95E2F78095998189238983B6
:103C50000AC081E090E002C0880F991F1A95E2F730
:103C60009981892B8983698183E042DF0F90DF91FD
:103C7000CF911F910F9108950F931F93CF93DF93CF
:103C80001F92CDB7DEB7062F10E1180FBE016F5F90
:103C90007F4F812F4CDF81111CC0013051F028F083
:103CA000023061F0033079F011C089818C7F898303
:103CB0000DC089818C7F8160898308C089818C7F58
:103CC0008260898303C08981836089836981812FB0
:103CD0000FDF0F90DF91CF911F910F9108950F93F8
:103CE0001F93CF93DF931F92CDB7DEB7062F10E15E
:103CF000180FBE016F5F7F4F812F19DF81110EC03A
:103D0000013021F489818F7D898305C0023019F447
:103D10008981806289836981812FEADE0F90DF913A
:103D2000CF911F910F9108950F931F93CF93DF931E
:103D30001F92CDB7DEB7062F10E1180FBE016F5FDF
:103D40007F4F812FF4DE81110CC0002321F0898187
:103D50008064898303C089818F7B89836981812FF6
:103D6000C7DE0F90DF91CF911F910F910895FF92C1
:103D70000F931F93CF93DF931F92CDB7DEB78130A0
:103D800021F068F0823031F028C00F2EF4E3FF2ECE
:103D9000F02D09C00F2EFCE3FF2EF02D04C00F2ED6
:103DA000FCE2FF2EF02D042F162FBE016F5F7F4F18
:103DB0008F2DBDDE811111C089818378011102C070
:103DC000898302C08C60898380E1189FB00111242F
:103DD0008981682B69838F2D8BDE0F90DF91CF91C6
:103DE0001F910F91FF9008958F92AF92CF92DF9223
:103DF000EF92FF920F931F93CF93DF93CDB7DEB770
:103E000067970FB6F894DEBF0FBECDBFF82ECC86F5
:103E1000DD86EE86088B198B2A8B6E8B59834A833D
:103E2000880F880F880FBE01655F7F4F845D7FDE3E
:103E300081113BC08B858C7F8B879E859370892BEE
:103E40008B838D858C838C858D839E898A898F70E9
:103E500020E1929F800D11248E8389898F83888928
:103E6000888781E0F81669F0F81620F022E0F21653
:103E700079F014C0AE014F5F5F4F68E08AE2DBDD8E
:103E80000DC0AE014F5F5F4F68E082E3D4DD06C036
:103E9000AE014F5F5F4F68E08AE3CDDD6A2D8F2D65
:103EA00043DF4CA1682D8F2D62DF67960FB6F89423
:103EB000DEBF0FBECDBFDF91CF911F910F91FF905D
:103EC000EF90DF90CF90AF908F9008953F924F92F8
:103ED0005F926F927F928F929F92AF92BF92CF929A
:103EE000DF92EF92FF920F931F93CF93DF93CDB7A3
:103EF000DEB72E970FB6F894DEBF0FBECDBF6B01B5
:103F00007C01B42E1D861E8680E4C81682E4D80685
:103F10008FE0E806F10460F0C701B60124E630E066
:103F200040E050E009D1A4E6B0E053D16B017C0140
:103F300081E0B816C9F0B81620F082E0B81651F149
:103F4000C1C08091C50681608093C506C092B90644
:103F5000D092BA06E092BB06F092BC066894332475
:103F600034F8992493942FC06091C50662606093E1
:103F7000C50660956A6F83E0BBDDC092BD06D09236
:103F8000BE06E092BF06F092C0060F2EF1E13F2E72
:103F9000F02D9CC06091C50664606093C506609575
:103FA0006C6F83E0A5DDC092C106D092C206E0929C
:103FB000C306F092C4060F2EF2E13F2EF02D86C00C
:103FC0006894992491F88E01025F1F4F9E01235F30
:103FD0003F4FAE014F5F5F4FC701B6015DDB2B0165
:103FE0003C01692D8B2D7BDE8E858F93812CAD84DA
:103FF000C980DA80EB80FC800D811E812F8138859D
:1040000049855A856B857C858B2DEEDE0F9041149A
:1040100051046104710481F12BC08E01025F1F4FB6
:104020009E01235F3F4FAE014F5F5F4FC701B60157
:10403000F1DB62E08B2D53DE8E858F93812CAD8476
:10404000C980DA80EB80FC800D811E812F8138854C
:1040500049855A856B857C858B2DC6DE6091C506AA
:10406000609583E045DD0F90412C512C320111C049
:10407000492DC301B201E4DC6091C506609583E07F
:1040800037DD81E0981205C06CE4832D31DD80E0DE
:104090002BC08D85882321F06CE6832D29DD03C09C
:1040A0006CE2832D25DD411451046104710461F03B
:1040B0004092C6065092C7066092C8067092C90622
:1040C00080E012C081E010C080E00EC08091C60682
:1040D0009091C706A091C806B091C906892B8A2B7A
:1040E0008B2B09F46DCF99CF2E960FB6F894DEBFC7
:1040F0000FBECDBFDF91CF911F910F91FF90EF9039
:10410000DF90CF90BF90AF909F908F907F906F90F7
:104110005F904F903F9008950895DB018F939F9398
:1041200058D0BF91AF91A29F800D911DA39F900D7C
:10413000B29F900D11240895A1E21A2EAA1BBB1B59
:10414000FD010DC0AA1FBB1FEE1FFF1FA217B30763
:10415000E407F50720F0A21BB30BE40BF50B661F79
:10416000771F881F991F1A9469F76095709580953D
:1041700090959B01AC01BD01CF010895052E97FBE1
:1041800016F400940FD057FD05D0D6DF07FC02D0FF
:1041900046F408C050954095309521953F4F4F4FBC
:1041A0005F4F089590958095709561957F4F8F4FE3
:1041B0009F4F0895A29FB001B39FC001A39F700DB0
:1041C000811D1124911DB29F700D811D1124911D1F
:1041D0000895F0DFA59F900DB49F900DA49F800DD2
:1041E000911D11240895E894DF93CF93FC01DB0126
:1041F000E1DF7F936F93E9019A01AC01BF93AF9325
:104200003F932F93DF01D6DF26F46C1B7D0B820BCF
:10421000930B9E01EB01FC012BD0AF91BF912F912D
:104220003F9126D0BE01CF01F9012F913F91CF914F
:10423000DF91089597FB10F8169400080F9308304B
:1042400098F00850232F342F452F562F672F782FA3
:10425000892F902DF4CF059497958795779567953D
:1042600057954795379527950A95AAF70F91089581
:10427000A1DF460F571FC81FD91F08F431960895B4
:10428000FC0188279927E89421912032E9F329300D
:1042900010F02E30C8F32B3239F02D3231F46894FF
:1042A00003C055D0820F911D219120532A30C8F3AD
:1042B0001EF4909581959F4F08951F93FC019927B7
:1042C0008827BC01E89411911032E9F3193010F0FD
:1042D0001E30C8F31B3249F01D3241F4689405C00A
:1042E00021D0610F711D811D911D119110531A3044
:1042F000B8F33EF490958095709561957F4F8F4F00
:104300009F4F1F9108959111089581568A5108F485
:10431000805285580895FB01DC0101900D92002028
:10432000E1F70895592F482F372F262F660F771F53
:10433000881F991F660F771F881F991F620F731FB1
:10434000841F951F660F771F881F991F08957AE0B5
:10435000979F902D879F802D910D11240895AEE099
:10436000B0E0E4EBF1E2DDC20D891E8986E08C83CA
:104370001A8309838FEF9FE79E838D83AE01475E8B
:104380005F4F6F89788DCE01019608D0EF81F88557
:10439000E00FF11F10822E96E4E0DFC2ABE0B0E048
:1043A000E3EDF1E2B0C26C017B018A01FC011782EE
:1043B0001682838181FFBFC1CE0101963C01F601C7
:1043C0009381F70193FD859193FF81917F0188236C
:1043D00009F4ADC1853239F493FD859193FF819144
:1043E0007F01853221F4B60190E0C0D1E8CF912C55
:1043F000212C312CFFE1F315D8F08B3279F038F411
:10440000803279F08332A1F4232D20611DC08D32DA
:1044100061F0803369F4232D216016C0832D826002
:10442000382EE32DE4603E2E2AC0F32DF8601DC027
:1044300037FC2DC020ED280F2A3040F08E32B9F421
:1044400036FC75C1232D2064322E19C036FE06C0FD
:104450008AE0989E200D1124922E11C0EAE02E9E33
:10446000200D1124222EF32DF0623F2E08C08C3631
:1044700021F4832D8068382E02C0883641F4F7017C
:1044800093FD859193FF81917F018111B3CF982F87
:104490009F7D9554933028F40C5F1F4F9FE39983C1
:1044A0000DC0833631F0833771F0833509F055C084
:1044B00020C0F801808189830E5F1F4F8824839478
:1044C000912C530112C02801F2E04F0E511CF8014B
:1044D000A080B18036FE03C0692D70E002C06FEF8E
:1044E0007FEFC50138D14C018201F32DFF773F2EBC
:1044F00015C0280122E0420E511CF801A080B180B5
:1045000036FE03C0692D70E002C06FEF7FEFC5017A
:1045100017D14C01F32DF0683F2E820133FC19C0F6
:10452000822D90E088169906A0F4B60180E290E012
:104530001DD12A94F5CFF50137FC859137FE819185
:104540005F01B60190E012D121102A9421E0821A75
:1045500091088114910479F7E1C0843611F089360D
:1045600039F5F80137FE07C060817181828193813E
:104570000C5F1F4F08C060817181072E000C880BF3
:10458000990B0E5F1F4FF32DFF763F2E97FF09C04B
:1045900090958095709561957F4F8F4F9F4FF068F4
:1045A0003F2E2AE030E0A3011DD1882E861844C09A
:1045B000853731F4232D2F7EB22E2AE030E025C03E
:1045C000932D997FB92E8F36C1F018F4883579F084
:1045D000AEC0803719F0883721F0A9C0E92FE0611B
:1045E000BE2EB4FE0DC0FB2DF460BF2E09C034FEFC
:1045F0000AC0292F2660B22E06C028E030E005C090
:1046000020E130E002C020E132E0F801B7FE07C04F
:1046100060817181828193810C5F1F4F06C0608130
:10462000718180E090E00E5F1F4FA301DBD0882EE8
:104630008618FB2DFF773F2E36FE0DC0232D2E7FD3
:10464000A22E891458F434FE0BC032FC09C0832D0D
:104650008E7EA82E05C0B82CA32C03C0B82C01C098
:10466000B92CA4FE0FC0FE01E80DF11D808180333E
:1046700021F49A2D997EA92E09C0A2FE06C0B394FA
:10468000B39404C08A2D867809F0B394A3FC10C0BB
:10469000A0FE06C0B21480F4280C922C9B180DC00A
:1046A000B21458F4B60180E290E060D0B394F8CF31
:1046B000B21418F42B1802C0982C212CA4FE0FC0A1
:1046C000B60180E390E052D0A2FE16C0A1FC03C068
:1046D00088E790E002C088E590E0B6010CC08A2D22
:1046E000867851F0A1FE02C08BE201C080E2A7FCF7
:1046F0008DE2B60190E03AD0891430F4B60180E33F
:1047000090E034D09A94F8CF8A94F301E80DF11D2B
:104710008081B60190E02AD08110F6CF222009F4E2
:104720004ECEB60180E290E021D02A94F7CFF60178
:104730008681978102C08FEF9FEF2B96E2E1FFC049
:10474000FC010590615070400110D8F7809590955C
:104750008E0F9F1F0895FC01615070400190011061
:10476000D8F7809590958E0F9F1F08950F931F93F4
:10477000CF93DF93FB01238121FD03C08FEF9FEFD8
:104780002CC022FF16C046815781248135814217F3
:10479000530744F4A081B1819D012F5F3F4F3183C6
:1047A00020838C93268137812F5F3F4F3783268369
:1047B00014C08B01EC01FB010084F185E02D09950B
:1047C000892BE1F6D80116968D919C911797019649
:1047D00017969C938E931697CE01DF91CF911F91E0
:1047E0000F910895FA01AA27283051F1203181F163
:1047F000E8946F936E7F6E5F7F4F8F4F9F4FAF4FE9
:10480000B1E03ED0B4E03CD0670F781F891F9A1FFB
:10481000A11D680F791F8A1F911DA11D6A0F711DAF
:10482000811D911DA11D20D009F468943F912AE0BB
:10483000269F11243019305D3193DEF6CF010895A3
:10484000462F4770405D4193B3E00FD0C9F7F6CFD4
:10485000462F4F70405D4A3318F0495D31FD40529C
:10486000419302D0A9F7EACFB4E0A6959795879532
:1048700077956795BA95C9F7009761057105089511
:104880009B01AC010A2E06945795479537952795BD
:10489000BA95C9F7620F731F841F951FA01D089555
:1048A000F999FECF92BD81BDF89A992780B50895F8
:1048B000A6E1B0E044E050E018C0262FF999FECF01
:1048C0001FBA92BD81BD20BD0FB6F894FA9AF99A2D
:1048D0000FBE01960895242FF1DF252FEFDF00C0D2
:1048E000ECDF272FEBCFDC01CB01FC01F999FECFE8
:1048F00006C0F2BDE1BDF89A319600B40D92415068
:104900005040B8F708952F923F924F925F926F9266
:104910007F928F929F92AF92BF92CF92DF92EF924F
:10492000FF920F931F93CF93DF93CDB7DEB7CA1BD0
:10493000DB0B0FB6F894DEBF0FBECDBF09942A88FB
:10494000398848885F846E847D848C849B84AA84A3
:10495000B984C884DF80EE80FD800C811B81AA8130
:10496000B981CE0FD11D0FB6F894DEBF0FBECDBFFB
:08497000ED010895F894FFCF5A
:104978000A000000000000000AFF0AFFFFFFFF28EE
:104988002364008813E803E8036400FF0B64023023
:1049980029AD08302B3600F4010000E044A30002E2
:1049A8000140787D010000000000000000000000C8
:1049B80000000000000A436F6D6D616E64733A0A6F
:1049C80000000000000000000000000000000000DF
:1049D800000000000000000000000000003E202051
:1049E800422020202020202020202020202020209D
:1049F80020202D20426174746572790A000000003D
:104A080000000000003E2020424E44205B327C38EB
:104A1800305D20202020202020202D205278204288
:104A2800616E640A0000000000000000003E2020C3
:104A3800465245205B487A5D2020202020202020F7
:104A480020202D20527820467265710A000000004F
:104A580000000000003E2020465245204D3C313ADF
:104A6800353E205B487A5D2020202D205278204D4D
:104A7800656D0A000000000000000000003E2020D4
:104A88004F205B487A5D20202020202020202020F5
:104A980020202D204357204F66667365740A000056
:104AA80000000000003E202041205B302D323535CB
:104AB8005D2020202020202020202D204174746596
:104AC8006E756174696F6E0A00000000003E202058
:104AD800535B535D202020202020202020202020F0
:104AE80020202D20525353490A00000000000000E6
:104AF80000000000003E202054494D205B68683AC1
:104B08006D6D3A73735D202020202D205254432070
:104B180054696D650A00000000000000003E202076
:104B2800564F4C203C4D3A543E205B302D313030AE
:104B38005D202D204D61696E2F546F6E6520566F74
:104B48006C0A0000003E2020502020202020202039
:104B5800202020202020202020202D205065726D2C
:104B68000A0000000000000000000000003E2020B5
:104B78005253542020202020202020202020202094
:104B880020202D2052657365740A00000000000083
:104B980000000000003E20203F2020202020202070
:104BA800202020202020202020202D20496E666FE4
:104BB8000A0000000000000000000000002A2A2A65
:104BC8002057445420526573657421202A2A2A0AE2
:104BD800005244503E20000A00F401F4010300E8AA
:104BE80003E8036400030607302E372E31300041F6
:104BF800524446204475616C2D42616E64205265B2
:104C0800636569766572000A2A2A2A202573205668
:104C180065722E202573202A2A2A00506F77657224
:104C2800206F666620696E202564207365630A001C
:104C38003E2025733D25642573004D004D256400F5
:104C4800256C64003E20257320284D454D29257389
:104C5800003E20257325730025634652452C257395
:104C68002C25732563003E2054494D453D25732569
:104C78007300256354494D2C25732563002563561D
:104C88004F4C2C25732C2573256300326D0038306A
:104C98006D003E20424E443D257325730025634236
:104CA8004E442C257325630025634243522C2573FB
:104CB800256300256349442C25732C25733B002E5E
:104CC8002E2E2E2E003E204241543D257325730082
:104CD80021422C25733B003E20525353493D2573F6
:104CE80025730021532C25733B003E2052463D2559
:104CF8007325730021522C25733B003E2025733DFC
:104D080025732573002125732C25733B004D4149DC
:104D18004E20564F4C00544F4E4520564F4C000ADB
:104D28000A0041545420003E256C646D00256C64D3
:084D38002E25316C64680000B7
:00000001FF
