:1000000033C000004EC000004CC000000C945B09DF
:100010000C94BF090C94B50C0C94310D42C0000037
:100020000EC700003EC000003CC000003AC0000007
:1000300038C0000036C0000034C0000032C00000EC
:1000400030C000002EC000000C94E1090C94680C34
:1000500028C0000026C0000024C0000022C000000C
:1000600020C000001EC0000011241FBECFEFD8E04A
:10007000DEBFCDBF14E0A0E0B1E0E4E2F9E402C0ED
:1000800005900D92A839B107D9F726E0A8E9B4E0A8
:1000900001C01D92AE39B207E1F70E948F0D0C949A
:1000A0009024AECF80919B0494E052E306C091501F
:1000B00089F08F5F843008F080E0282F30E0529F75
:1000C000F001539FF00D1124EE5DFA4F408144235F
:1000D00071F305C080939B0480E090E008958093C5
:1000E0009B0442E3429FC001439F900D11248E5D0B
:1000F0009A4F089580919A0494E052E306C091507B
:1001000089F08F5F843008F080E0282F30E0529F24
:10011000F001539FF00D1124EE5DFA4F4081411123
:10012000EECF05C080939A0480E090E0089580931C
:100130009A0442E3429FC001439F900D11248E5DBB
:100140009A4F089580919904282F30E093E4899F75
:10015000F0011124E456FB4F42815381452BA9F055
:100160008F5F823008F080E0282F30E093E4899F91
:10017000F0011124E456FB4F42815381452B29F0B5
:100180008093990480E090E008958093990443E47B
:10019000429FC001439F900D112484569B4F0895A8
:1001A00080919804282F30E093E4899FF001112476
:1001B000E456FB4F42815381452BA9F48F5F823077
:1001C00008F080E0282F30E093E4899FF0011124AB
:1001D000E456FB4F42815381452B29F480939804C8
:1001E00080E090E008958093980443E4429FC0012A
:1001F000439F900D112484569B4F08958091EA05EA
:1002000008959091EA0581E0911180E0911108C074
:1002100091E09093EA05E1ECF0E0908190629083A8
:1002200008958091EA05882339F0E1ECF0E08081BF
:100230008F7D80831092EA050895CF93DF9380919C
:10024000C10084FF0FC0E1ECF0E080818F7E8083ED
:1002500086E8ACE9B4E0ED0119928A95E9F780816E
:1002600080618083DF91CF91089586E8ECE9F4E026
:10027000DF011D928A95E9F71092C50083E3809310
:10028000C40088E98093C1008EE08093C200089585
:10029000CF93DF93009761F0EC012CDF009751F4CE
:1002A0009091EA059111FCCF25DF0097C9F302C0B8
:1002B00081E00CC0DF93CF939F938F930E948521A1
:1002C000A0DF0F900F900F900F9080E0DF91CF9103
:1002D000089586E293E0DCCF08958AE393E0D8CFD7
:1002E000089580E493E0D4CF08950F931F93CF93A4
:1002F000DF9381E593E09F938F9387E593E09F934E
:100300008F938FE693E09F938F938BEE95E09F936F
:100310008F930E9485218DB79EB708960FB6F894EB
:100320009EBF0FBE8DBF8BEE95E0B2DF8111FBCF7C
:100330008091EA058111FCCFC6E4D1E006E213E02A
:10034000CE01A6DF8111FCCF8091EA058111FCCF9F
:10035000A8960C171D07A1F7C4DFDF91CF911F915D
:100360000F9108959F938F9380E091E09F938F93D7
:100370000E9485210F900F900F900F90089580910B
:100380001D0691E0811190E090931D06811107C038
:1003900086E894E0E7DF80E091E07ADF03C080E464
:1003A00093E076DF80911D060895EBEEF5E0808303
:1003B0001182CF016DCF08951F928F9383E893E050
:1003C0009F938F938BEE95E09F938F930E9485214F
:1003D0008BEE95E05DDF0F900F900F900F900F90D8
:1003E0000F90089520E031E03F932F939F938F93D8
:1003F0007F936F9388E993E09F938F938BEE95E0C3
:100400009F938F930E9485218BEE95E041DF8DB7FE
:100410009EB70A960FB6F8949EBF0FBE8DBF089583
:10042000FF920F931F93CF93DF93CDB7DEB72A9739
:100430000FB6F894DEBF0FBECDBF8C01F22E8091B7
:100440003601909137019A838983FE01339688E0C3
:10045000DF011D928A95E9F7411551056105710586
:1004600059F1463051056105710598F45F934F933A
:1004700084EA93E09F938F93CE0101969F938F938D
:100480000E9485210F900F900F900F900F900F906A
:1004900013C07F936F935F934F9388EA93E09F938A
:1004A0008F93CE0101969F938F930E9485210FB663
:1004B000F894DEBF0FBECDBF0330110509F465C04F
:1004C0000230110509F464C00130110509F063C060
:1004D0008BE324E290911D06992391F1FF20C1F056
:1004E00080E091E09F938F93CE0101969F938F932D
:1004F0008CEA93E09F938F938BEE95E09F938F937D
:100500000E9485210FB6F894DEBF0FBECDBF39C063
:1005100080E091E09F938F93CE0101969F938F93FC
:1005200089EB93E09F938F938BEE95E09F938F934E
:100530000E9485210FB6F894DEBF0FBECDBF21C04B
:1005400090E0F11003C040E050E002C042EA53E006
:100550009F938F935F934F93CE0101969F938F93B9
:100560001F922F9380EC93E09F938F938BEE95E0F7
:100570009F938F930E9485210FB6F894DEBF0FBE24
:10058000CDBF8BEE95E084DE06C08BE321E2A2CFE7
:100590008FE324E29FCF2A960FB6F894DEBF0FBEFA
:1005A000CDBFDF91CF911F910F91FF9008950F93D1
:1005B0001F93CF93DF93CDB7DEB72A970FB6F8948A
:1005C000DEBF0FBECDBF8C01809136019091370107
:1005D0009A838983FE01339688E0DF011D928A9514
:1005E000E9F74F3FBFEF5B076B077B07F1F08091A7
:1005F0001D06882339F021E030E0CE0101960E94EB
:10060000671613C07F936F935F934F9388EA93E0CD
:100610009F938F93CE0101969F938F930E94852184
:100620000FB6F894DEBF0FBECDBF0330110509F43D
:1006300042C00230110509F441C00130110509F032
:1006400040C02BE394E280911D068823C1F080E036
:1006500091E09F938F93CE0101969F938F938EECA1
:1006600093E09F938F938BEE95E09F938F930E94DF
:1006700085210FB6F894DEBF0FBECDBF18C01F9204
:100680002F939E012F5F3F4F3F932F931F929F9376
:100690008AED93E09F938F938BEE95E09F938F93DA
:1006A0000E9485210FB6F894DEBF0FBECDBF8BEE42
:1006B00095E0EEDD06C02BE391E2C5CF2FE394E297
:1006C000C2CF2A960FB6F894DEBF0FBECDBFDF9122
:1006D000CF911F910F910895CF92DF92EF92FF92E9
:1006E0000F931F93CF93DF9300D000D000D0CDB7EE
:1006F000DEB720914001309141013A832983C090B7
:100700004201D0904301E0904401F0904501CB823A
:10071000DC82ED82FE826115710519F424E52983DE
:100720003AC06130710509F060C02DE4298333C0FF
:10073000CA01880F991F440F551F440F551F440FBE
:10074000551F480F591F5F934F9385EA93E09F937E
:100750008F93CE0103969F938F930E9485210F90D4
:100760000F900F900F900F900F900BC04D305105D0
:1007700040F44C30510519F48BE28B8302C08DE2BA
:100780008B830330110561F00230110561F00130F7
:10079000110559F50BC08C014B30510538F7C8CF06
:1007A0008BE321E205C08FE324E202C08BE324E265
:1007B0001F928F93CE0103969F938F9302979F93DF
:1007C0008F931F922F9385EE93E09F938F938BEEE1
:1007D00095E09F938F930E9485218BEE95E058DDE5
:1007E0000FB6F894DEBF0FBECDBF26960FB6F894B5
:1007F000DEBF0FBECDBFDF91CF911F910F91FF9054
:10080000EF90DF90CF900895FF920F931F93CF93B7
:10081000DF9300D000D0CDB7DEB78C0183309105D7
:1008200009F481C08230910509F480C0FF24F3945B
:10083000019709F0F12C80911D06811103C011C0B0
:10084000FF24F394672B19F066EF73E002C063EFA7
:1008500073E0CE0101960E946121FF2009F46DC072
:100860001CC07F936F9385EA93E09F938F93CE0193
:1008700001969F938F930E9485210F900F900F9068
:100880000F900F900F900130110509F056C00BE347
:1008900014E280911D068823C1F080E091E09F93CF
:1008A0008F93CE0101969F938F938AEF93E09F934E
:1008B0008F938BEE95E09F938F930E9485210FB6C7
:1008C000F894DEBF0FBECDBF17C01F920F93CE01AD
:1008D00001969F938F931F921F9385E094E09F93BF
:1008E0008F938BEE95E09F938F930E9485210FB697
:1008F000F894DEBF0FBECDBF8BEE95E0C9DC1DC006
:100900007F936F9385EA93E09F938F93CE01019637
:100910009F938F930E9485210F900F900F900F90BF
:100920000F900F90B6CF0BE311E202C00FE314E279
:1009300080911D06811184CFE3CF0F900F900F900F
:100940000F90DF91CF911F910F91FF9008951F930A
:10095000CF93DF9300D000D0CDB7DEB7162F4091F4
:1009600042015091430160914401709145014983D6
:100970005A836B837C839F938F9385EA93E09F9345
:100980008F93CE0101969F938F930E9485210F90A4
:100990000F900F900F900F900F90112311F08FE395
:1009A00001C08BE31F928F93CE0101969F938F938B
:1009B0001F9284E28F9380E194E09F938F938BEE5C
:1009C00095E09F938F930E9485218BEE95E060DCEC
:1009D0000FB6F894DEBF0FBECDBF0F900F900F90F3
:1009E0000F90DF91CF911F910895FF920F931F9366
:1009F000CF93DF93CDB7DEB728970FB6F894DEBF5D
:100A00000FBECDBF9B018A0140914201509143012D
:100A1000609144017091450149835A836B837C83C3
:100A20004D835E836F837887039729F40F2EF1E25D
:100A3000FF2EF02D04C00F2EF4E2FF2EF02D211515
:100A4000310591F03F932F9385EA93E09F938F9325
:100A5000CE0101969F938F930E9485210F900F9056
:100A60000F900F900F900F900115110591F01F93AB
:100A70000F9385EA93E09F938F93CE0105969F9302
:100A80008F930E9485210F900F900F900F900F90E1
:100A90000F90CE0105969F938F9304979F938F930A
:100AA0001F92FF928BE194E09F938F938BEE95E0E2
:100AB0009F938F930E9485218BEE95E0E9DB0FB623
:100AC000F894DEBF0FBECDBF28960FB6F894DEBFF8
:100AD0000FBECDBFDF91CF911F910F91FF90089571
:100AE00086E0E7E2F4E0ABEEB5E001900D928A9586
:100AF000E1F78BEE95E0CCCB0895CF93DF9300D058
:100B000000D0CDB7DEB740914201509143016091D2
:100B100044017091450149835A836B837C839F9381
:100B20008F9385EA93E09F938F93CE0101969F93D5
:100B30008F930E9485210F900F900F900F900F9030
:100B40000F9080911D068823C1F080E091E09F9373
:100B50008F93CE0101969F938F938DE294E09F93A4
:100B60008F938BEE95E09F938F930E9485210FB614
:100B7000F894DEBF0FBECDBF14C0CE0101969F9387
:100B80008F9388E394E09F938F938BEE95E09F93F0
:100B90008F930E9485210F900F900F900F900F90D0
:100BA0000F908BEE95E074DB0F900F900F900F90ED
:100BB000DF91CF910895CF93DF9300D000D0CDB7D0
:100BC000DEB7409142015091430160914401709120
:100BD000450149835A836B837C839F938F9385EA76
:100BE00093E09F938F93CE0101969F938F930E94E2
:100BF00085210F900F900F900F900F900F90809184
:100C00001D068823C1F080E091E09F938F93CE0171
:100C100001969F938F938FE394E09F938F938BEE36
:100C200095E09F938F930E9485210FB6F894DEBFC5
:100C30000FBECDBF14C0CE0101969F938F938BE45E
:100C400094E09F938F938BEE95E09F938F930E94F8
:100C500085210F900F900F900F900F900F908BEEBB
:100C600095E016DB0F900F900F900F90DF91CF91D2
:100C70000895CF93DF9300D000D0CDB7DEB7409179
:100C800042015091430160914401709145014983B3
:100C90005A836B837C839F938F9385EA93E09F9322
:100CA0008F93CE0101969F938F930E9485210F9081
:100CB0000F900F900F900F900F9080911D0688233A
:100CC000C1F080E091E09F938F93CE0101969F93B6
:100CD0008F9382E594E09F938F938BEE95E09F93A3
:100CE0008F930E9485210FB6F894DEBF0FBECDBF53
:100CF00014C0CE0101969F938F938CE594E09F934F
:100D00008F938BEE95E09F938F930E9485210F9098
:100D10000F900F900F900F900F908BEE95E0B8DA38
:100D20000F900F900F900F90DF91CF910895CF9378
:100D3000DF9300D000D0CDB7DEB740914201509193
:100D40004301609144017091450149835A836B834B
:100D50007C839F938F9385EA93E09F938F93CE013B
:100D600001969F938F930E9485210F900F900F9073
:100D70000F900F900F9080911D068823C1F080E0A6
:100D800091E09F938F93CE0101969F938F9383E67B
:100D900094E09F938F938BEE95E09F938F930E94A7
:100DA00085210FB6F894DEBF0FBECDBF14C0CE01B3
:100DB00001969F938F938CE694E09F938F938BEE95
:100DC00095E09F938F930E9485210F900F900F9035
:100DD0000F900F900F908BEE95E05ADA0F900F90D6
:100DE0000F900F90DF91CF910895A89504B603FE60
:100DF00003C024B7287024BF8130910541F4E0E698
:100E0000F0E020812861208328E6208311C000972C
:100E100041F4E0E6F0E020812861208326E420838D
:100E200007C0E0E6F0E020812861208328E42083E9
:100E300021E0892B09F420E02093460608951F92B3
:100E40000F920FB60F9211248F929F92AF92BF9282
:100E5000EF92FF920F932F933F934F935F936F9374
:100E60007F938F939F93AF93BF93EF93FF93CF9312
:100E7000DF93CDB7DEB72997DEBFCDBF80916C067B
:100E800090916D06019690936D0680936C0680910B
:100E9000730690917406019690937406809373067E
:100EA0008091130190911401892B49F080911301D5
:100EB00090911401019790931401809313018091F4
:100EC0000F0190911001892B49F080910F019091B1
:100ED000100101979093100180930F018091670694
:100EE00090916806892B49F0809167069091680679
:100EF0000197909368068093670680911101909105
:100F00001201892B49F080911101909112010197F2
:100F1000909312018093110180917F06882349F0FC
:100F2000809180069091810601969093810680932E
:100F3000800680916006882359F080915E0690912A
:100F40005F06009729F0019790935F0680935E06F5
:100F500080911C01882319F0815080931C0180919D
:100F60006F0690917006892BF9F0809145068111EA
:100F700007C084B5806184BD81E08093450614C0BC
:100F800080916F0690917006019790937006809300
:100F90006F0680916F0690917006892B29F484B5B5
:100FA0008F7E84BD1092450680914406882341F0CF
:100FB000409B02C0409826C0409A1092440622C02E
:100FC00090911B01809159069817E1F08091470696
:100FD0008823C1F0409B409A90911B018091590653
:100FE000891738F4419880911B01815080931B012F
:100FF00006C0419A80911B018F5F80931B0181E0A5
:10100000809344068091430681115FC08FEF8093E7
:10101000420619828981833008F02DC120E09FEFBC
:1010200031E0E981F0E0EE0FFF1FEB5EFE4F408103
:101030005181452B61F0E981F0E0EE0FFF1FEB5E7F
:10104000FE4F408151814150510951834083E981D4
:10105000F0E0EE0FFF1FEB5EFE4F40815181452B0C
:1010600011F49981232F89818F5F8983898183304E
:10107000C0F2222309F4FFC09093420699230CF496
:10108000FAC0892F990F990B9C01220F331FF90188
:10109000E85BFC4F40815181F901EB5EFE4F5183CB
:1010A0004083ECE7F0E02081207FDC01A25BBC4FB5
:1010B0009C91822F892B8083EAE7F0E08081806415
:1010C000808381E080934306D6C080917A0086FDBC
:1010D000D2C02091780030917900A4EEBCE00E944B
:1010E000B0204B015C01072E7AE0B694A794979448
:1010F00087947A95D1F7702DA40120914206E22EB3
:10110000022E000CFF08F701EE0FFF1FE45BF94F02
:10111000808191818815990520F4B401681B790BB1
:1011200003C0BC016819790931E0F701EE5AF94FA3
:101130003083213081F5F701EE0FFF1FEE5BFC4F8E
:10114000208131812617370758F4F701EE0FFF1F72
:10115000EB5EFE4F84E690E091838083C40178C00B
:101160008417950710F401967DC0672B09F47AC0A7
:10117000019778C010921E0110921D0169C0843C35
:1011800021E0920708F464C021E030E030931E01B2
:1011900020931D015DC0223009F05AC0809148069D
:1011A00090914906A0914A06B0914B06880F991F6D
:1011B000AA1FBB1F880F991FAA1FBB1F880F991F4B
:1011C000AA1FBB1F8093480690934906A0934A0626
:1011D000B0934B068091480690914906A0914A062B
:1011E000B0914B06B501A40166277727840F951FA0
:1011F000A61FB71F8093480690934906A0934A06FE
:10120000B0934B06609148067091490680914A065A
:1012100090914B0629E33EE843EE58E30E94C92033
:1012200000E20E94F2202A833B834C835D838A8103
:101230009B81AC81BD81B695A79597958795809345
:10124000480690934906A0934A06B0934B06C40102
:10125000F701EE0FFF1FE45BF94F9183808310923B
:10126000430609C021E020936B06823823E09207F1
:1012700008F080CF84CF29960FB6F894DEBF0FBE5A
:10128000CDBFDF91CF91FF91EF91BF91AF919F9132
:101290008F917F916F915F914F913F912F910F911E
:1012A000FF90EF90BF90AF909F908F900F900FBEE8
:1012B0000F901F9018951F920F920FB60F92112446
:1012C0002F933F938F939F9383B193B180910C01A0
:1012D000892793B190930C01882309F447C0807C3F
:1012E00009F444C02FEF3FEF30930E0120930D011E
:1012F00028E833E1309314012093130193B1292F8F
:10130000221F2227221F93B196FB992790F980383C
:10131000B1F429130AC08091820690918306019648
:10132000909383068093820621C0809182069091DB
:1013300083060197909383068093820617C08034BA
:10134000A9F429130AC0809182069091830601971F
:10135000909383068093820609C0809182069091C3
:101360008306019690938306809382069F918F91C6
:101370003F912F910F900FBE0F901F9018951F92C5
:101380000F920FB60F9211248F939F938091660650
:10139000882381F096B180910B01892796B19093B3
:1013A0000B01882339F082FF05C0329903C081E028
:1013B000809371069F918F910F900FBE0F901F9099
:1013C00018951F920F920FB60F921124CF92DF92B1
:1013D000EF92FF921F932F933F934F935F936F93DF
:1013E0007F938F939F93AF93BF93CF93DF93EF93AD
:1013F000FF931091C600C0914006D09141062097FE
:1014000051F40E94A200EC019093410680934006A3
:10141000892B09F445C280916106882309F439C1FA
:10142000812F90E00E94592190913F06992321F04D
:10143000915090933F0634C2182F8B3169F4E0919C
:101440003E06E53128F4F0E0E75DF94F108101C078
:1014500010E082E080933F061D3009F04BC088E821
:1014600093E19093140180931301809128068823BF
:1014700041F1E0913E06EE2309F182E090E099838C
:10148000888380912406909125069B838A8380918E
:101490002306882379F090E001974091220655E1D8
:1014A000589F9001599F300D1124C20FD31FC40FB4
:1014B000D11D1C82F0E0E75DF94F10820E9471019E
:1014C00004C08FEF9FEF9B838A8310923E06109299
:1014D00022061092240610922506109226061092DB
:1014E0002706109223061092410610924006109291
:1014F0002806D6C1112309F4D3C180913E06282FB6
:1015000030E0F901E75DF94F1083882309F4A1C0A9
:101510001F37D9F5815080933E0690912306911193
:1015200022C0E82FF0E0E75DF94F2081809124068A
:1015300090912506A0912606B0912706BC01CD0109
:10154000621B7109810991092AE030E040E050E016
:101550000E9472202093240630932506409326068D
:101560005093270692C080912206882321F0815053
:10157000809322068AC085E1989FC00DD11D112459
:101580001C8291509093230680C0103211F5F9010E
:10159000E85DF94F9081903209F474C1909123066F
:1015A000992389F0492F50E041505109609122065A
:1015B00075E1749F9001759F300D1124C20FD31FE8
:1015C000C60FD11D1C829F5F9093230610922206A6
:1015D0005DC120912306211127C04091240650911E
:1015E00025066091260670912706440F551F661F39
:1015F000771F6A017B01CC0CDD1CEE1CFF1CCC0CA0
:10160000DD1CEE1CFF1C4C0D5D1D6E1D7F1D410F72
:10161000511D611D711D4093240650932506609352
:1016200026067093270632C19091220631E0390FC9
:101630003093220630E02150310965E1629FA0011C
:10164000639F500D1124C40FD51FC90FD11D1C83DA
:101650001DC11F3709F424C1103209F421C11092B1
:101660002306812F90E0A0E0B0E0809324069093C1
:101670002506A0932606B09327061C82198E1EA667
:1016800081E08093280680933E06812F0E94D50139
:1016900007C1143209F4D1C01132D9F4D3C09983EF
:1016A000888310922206109224061092250610922A
:1016B00026061092270681E0809328061C82198E48
:1016C0001EA61092230680913E068F5F80933E06F1
:1016D000E7C080912806882309F486C01C3239F0BF
:1016E0001B3309F4C5C01F3309F03FC0B6C0809159
:1016F0002306882309F4CEC0282F30E02150310979
:101700009091220645E1429FF001439FF00D112484
:10171000EC0FFD1FE90FF11D14828F5F80932306EC
:10172000109222061B3369F480913E06843030F01B
:1017300080912406909125069B838A831092280627
:101740009CC01F3309F06DC082E090E099838883CC
:1017500080913E06843030F08091240690912506D9
:101760009B838A831092280688C08091230681116A
:1017700027C08091240690912506A0912606B0915D
:101780002706880F991FAA1FBB1FAC01BD01440F7C
:10179000551F661F771F440F551F661F771F840F45
:1017A000951FA61FB71F810F911DA11DB11D80930D
:1017B000240690932506A0932606B093270631C0F1
:1017C0004091220691E0940F9093220690E00197B9
:1017D00055E1589F9001599F300D1124C20FD31F1E
:1017E000C40FD11D1C831DC01D30D9F48091640627
:1017F00090916506892BA9F481E794E29B838A8303
:1018000010922206109224061092250610922606A7
:10181000109227061092230610924106109240065D
:1018200007C080913E068F5F80933E068233C0F1F1
:101830001092280610923E0633C010923E0681E0B8
:1018400090E02DCF10923E0683E090E028CF81E01B
:10185000809323061092220677CF80912306882357
:10186000B1F34ACF81E080932306109222065CCF29
:1018700080912306811140CFF5CF1092410610923E
:101880004006CFCF8F5F80933E060AC08F5F809364
:101890003E06FBCE81E08093230610922206C1CF44
:1018A000FF91EF91DF91CF91BF91AF919F918F9178
:1018B0007F916F915F914F913F912F911F91FF9079
:1018C000EF90DF90CF900F900FBE0F901F90189564
:1018D0001F920F920FB60F9211242F933F934F93A5
:1018E0005F936F937F938F939F93AF93BF93EF9388
:1018F000FF938091200690912106892B31F40E945C
:1019000052009093210680932006E0912006F091EA
:10191000210680911F06DF01A80FB11D9C9199231C
:1019200031F08F5F80931F069093C6000DC0109218
:101930001F0610820E945200909321068093200679
:10194000892B11F40E941101FF91EF91BF91AF918A
:101950009F918F917F916F915F914F913F912F91C7
:101960000F900FBE0F901F9018951F920F920FB6F9
:101970000F9211242F933F938F939F93809166062C
:10198000882309F458C099B180910901892799B138
:1019900090930901882309F44EC0982F9C7161F03F
:1019A00028E833E130931401209313012FEF3FEF28
:1019B00030930E0120930D0182FF17C04A9B0EC089
:1019C00010927B0690917206911105C090917C0651
:1019D0009F5F90937C061092720607C091E09093EF
:1019E0007B06109274061092730683FF11C04B9B06
:1019F00008C01092790690917A069F5F90937A06BC
:101A000007C091E0909379061092740610927306C5
:101A100084FF11C04C9B08C0109277068091780615
:101A20008F5F8093780607C081E0809377061092DD
:101A30007406109273069F918F913F912F910F9092
:101A40000FBE0F901F9018956091580681E090E0AE
:101A50000E943A166091590680E090E00C943A1684
:101A600008951F920F920FB60F9211242F933F9358
:101A70004F935F936F937F938F939F93AF93BF9396
:101A8000EF93FF9310923101DFDF809146068111C1
:101A900009C080910A01882389F0E0E6F0E08081A6
:101AA0008064808380910A01882341F08150809373
:101AB0000A018091610681110E946901FF91EF91F5
:101AC000BF91AF919F918F917F916F915F914F9156
:101AD0003F912F910F900FBE0F901F90189582E0AD
:101AE00090E00E942624853A69F481E090E00E940B
:101AF00026248093580680E090E00E94262480935C
:101B0000590608958CE3809358068BE0809359061C
:101B10009BDF65EA82E090E00C9433240895CF9334
:101B2000DF93CDB7DEB766970FB6F894DEBF0FBE72
:101B3000CDBFD5DF209A85B1856085B982EE8AB99F
:101B40008CE18BB983E087B984E388B90E943501C1
:101B50009CE097BD84B5826084BD85B5856085BDF8
:101B60009093B300E0EBF0E0808182608083E1EB52
:101B7000F0E0808187608083E0E7F0E0808184602E
:101B80008083ECE7F0E0808180648083EAE7F0E026
:101B9000808187688083E8E6F0E0808187608083C9
:101BA000EDE6F0E080818C618083ECE6F0E08081FE
:101BB00084608083EBE6F0E08081846080837894A9
:101BC00084E893E09093100180930F0180E090E00F
:101BD0000CD9D0D7A895809158060E9433186FEF82
:101BE00080E40E946E19A8950E9470050E94FE0074
:101BF0008111FCCFA89540E050E062E070E081E008
:101C000090E00E94F5040E94FE008111FCCF84E068
:101C100090E1909368068093670681E090E0E5D8B4
:101C200081E0809366061E8A1D8A412C312C212C6E
:101C30001C8A1B8A712C0F2EFCE4AF2EF6E0BF2EFF
:101C4000F02D66246394512C6894882482F899249A
:101C500094F8698A5A8A07C01E8B0D8B482E342E41
:101C6000232E2C8B9B8BF894A895789480916E06EC
:101C7000882379F080916E06815080936E06809162
:101C80006E06811106C084E690E090937006809302
:101C90006F0680916B06882309F45BC4D501129608
:101CA0008D919C9113978D33914008F078C080916D
:101CB0004706882309F473C08091110190911201A5
:101CC000892B09F046C4809184069091850604977B
:101CD00069F084E090E090938506809384065E9896
:101CE00088E893E190931401809313018FEF9FEFA5
:101CF00090930E0180930D0180916106882371F10C
:101D000080911301909114019C01220F331F880FC1
:101D1000991F880F991F880F991F280F391F369513
:101D200027953695279536952795A7E3BAE10E9422
:101D3000B0208C010024000F111F001C000F111F88
:101D4000001C012F102D80911E06801739F0802F66
:101D50000E94DC010E946D0100931E068091130118
:101D600090911401892B09F0F4C36EDE299888E85C
:101D700093E190931401809313018091130190914A
:101D80001401892B31F0F50182819381843C9140CB
:101D9000A0F3A8951092850610928406DAC3D501A7
:101DA00012968D919C911397843C9140D8F081E0DC
:101DB0008093470684E690E090931201809311018E
:101DC00088E293E29093100180930F0188E893E1F9
:101DD0009093140180931301299A5E9A8BE080936B
:101DE0001B01B7C380910F0190911001892B09F05D
:101DF000B0C38091840690918506059761F085E0D7
:101E000090E0909385068093840688E893E1909310
:101E10001401809313018091130190911401892B77
:101E200009F097C329985E98F50182819381843CDB
:101E30009140D0F3A8958DC3D80112968D919C91B5
:101E400013978E31B3E09B0709F4E5C1F0F48035B8
:101E5000910509F461C060F48234910509F40CC362
:101E60008F34910509F446C0CF9709F05FC31CC3B6
:101E70008335910509F40DC38435910509F45FC3D9
:101E80008235910509F052C35AC3813DFEE19F0797
:101E900009F47DC078F4883B4CE1940709F4CAC288
:101EA0008831ADE19A0709F4ECC18139934009F01A
:101EB0003DC318C0873FE3E29E0789F120F48A39C9
:101EC000934259F033C3813744E2940709F49CC22A
:101ED0008A3F944209F4F8C129C382E090E00E944D
:101EE000F506FFCF81E090916006911180E080932C
:101EF000600625C3F8018481882329F0C80104966F
:101F00000E94332173D68BD6AB01BC0120E083E065
:101F100090E00E94100213C378D596DD10C3D8015B
:101F200014968C91882309F40AC38FEF9FEFDC018C
:101F30008D879E87AF87B88B809161068823D1F00B
:101F4000D80116968C9116978A3321F419968C91A4
:101F50008A3339F0F80185818A33A1F480858A3388
:101F600089F4C80104960E94C5176D877E878F8704
:101F7000988B08C0C80104960E9433216D877E8724
:101F80008F87988B8D859E85AF85B889D8C2D801FB
:101F900014968C91882309F41AC18D3409F0FCC081
:101FA000C80105960E9416217C0119861A861B8697
:101FB0001C86F7D4FF24B3E0EB16F10429F14CF4AE
:101FC000F1E0EF16F10471F022E0E216F10499F06D
:101FD00036C044E0E416F10401F1A5E0EA16F1048C
:101FE00029F12DC0892B71F10F2EF3E1EF2EF0E0D6
:101FF000FF2EF02D49C0892B61F10F2EFFE0EF2E4F
:10200000F0E0FF2EF02D40C0892B51F10F2EFBE0A8
:10201000EF2EF0E0FF2EF02D37C0892B41F10F2E6F
:10202000F7E0EF2EF0E0FF2EF02D2EC0892B31F1DE
:102030000F2EF3E0EF2EF0E0FF2EF02D25C0E12C67
:10204000F12C22C00F2EF7E2EF2EF0E0FF2EF02D44
:102050001BC00F2EF3E2EF2EF0E0FF2EF02D14C088
:102060000F2EFFE1EF2EF0E0FF2EF02D0DC00F2E12
:10207000FBE1EF2EF0E0FF2EF02D06C00F2EF7E172
:10208000EF2EF0E0FF2EF02DE114F10409F47AC0F8
:102090001D821E821F82188680916106882389F026
:1020A000F801918D992369F0C80149960E94332166
:1020B0006D837E838F839887D8016C9211965C9292
:1020C0002CC0F801208131812230310501F5C70192
:1020D0000E942E2469877A878B879C87672B682BC1
:1020E000692B09F451C0CE01099645D3882309F420
:1020F0004DC089859A85AB85BC8580935A0690939F
:102100005B06A0935C06B0935D0621E06AC02130B7
:10211000310509F03DC0882319F18D819E81AF8181
:10212000B88589839A83AB83BC83CE01019623D380
:10213000882389F089819A81AB81BC8180935A067A
:1021400090935B06A0935C06B0935D0689879A879F
:10215000AB87BC870AC019861A861B861C8605C0F9
:10216000B4D369877A878B879C8749855A856B8525
:102170007C85411551056105710561F0C7018BD55D
:1021800021E02FC020E02DC021E02BC021E029C09C
:1021900021E027C021E025C0C80104960E94332118
:1021A00069837A838B839C83CE010196E4D2882352
:1021B00061F089819A81AB81BC8180935A069093AA
:1021C0005B06A0935C06B0935D0620E00AC07DD359
:1021D00060935A0670935B0680935C0690935D064D
:1021E00020E080915A0690915B06A0915C06B09128
:1021F0005D06892B8A2B8B2B09F4A1C140915A06CD
:1022000050915B0660915C0670915D0683E090E002
:102210000E94100294C1D80114968C91882309F46D
:102220008EC1C80104960E9416217C019093650618
:1022300080936406F801818D882331F0C8014996A6
:102240000E941621029769F0A70162E070E083E026
:1022500090E00E94F5049092680680926706712CC7
:102260006EC1711007C0A70162E070E083E090E0EA
:102270000E94F50410926806109267067724739402
:102280005EC1D80114968C91882381F0C801049610
:102290000E9416218035910521F489899A8944D3B9
:1022A00005C0029719F480E090E03ED37AD3F8019C
:1022B000208131812230310509F041C1BC0183E028
:1022C00090E00E9404043BC1D80114968C9184359F
:1022D00009F437C28D3409F032C136C28B3209F4A9
:1022E0003BC28D3209F43DC2C80149960E941621B5
:1022F000C114D10409F051C09923E4F422E030E084
:1023000008C029893A8905C02FEF3FEF02C020E0BD
:1023100030E08091580690E02130310529F48F3F5C
:10232000910544F40A9606C02F3F3F4F19F40097D9
:1023300009F00A97992314F480E090E07C018F3F24
:10234000910521F01CF0EE24EA94F12C80915806BE
:1023500090E08E159F0521F08E2D85D6E0925806CF
:1023600084E180936E0670DB80916106811136C036
:102370003DC0809159068F30F0F4809159068F5FEF
:102380008093590618C0809159068823A1F0809146
:1023900059068150809359060EC08031910524F072
:1023A0008FE08093590607C099231CF410925906B8
:1023B00002C08093590684E180936E0645DB8091CC
:1023C0006106882399F0CA94CD2841F4809159067A
:1023D00063E774E090E00E94F201B1C0809158067A
:1023E0006CE774E090E00E94F201A9C0D8018D91E1
:1023F0009C91029709F0A8C04DE050E0B60183E03F
:1024000090E00E946C039BC00E94BF018093610614
:10241000882309F499C01092630610926206109204
:1024200068061092670685E894E00E94B20177245E
:10243000739485C0C80104960E941621F80120817A
:1024400031812230310559F42091620630916306C2
:10245000822B932B909363068093620670C08095C5
:102460009095209162063091630682239323909386
:1024700063068093620663C080916106882309F435
:1024800063C0D50112968D919C9113970E947D0592
:1024900056C080916106882309F456C0F5018481F5
:1024A00095810E94DB054BC0F894A895789486E846
:1024B00094E00E94B20175D2BC0183E090E00E94DA
:1024C000040403D2AB01BC0120E083E090E00E9451
:1024D0001002A5D3AB01BC0120E083E090E00E9494
:1024E00010028091590663E774E090E00E94F201C7
:1024F000809158066CE774E090E00E94F201F89435
:10250000A8957894D50112968D919C9113970E946D
:102510007D05F501848195810E94DB0585E894E0C5
:102520000E94B201F894A895789409C08091610640
:10253000882319F00E94750102C00E941D0180913C
:10254000610681110E946D01D80113961C921E92A2
:1025500012970E94D0008C01892B09F06DCC8091DC
:102560007106882339F010927106BE016F5F7F4FAC
:1025700080E4B6D600916C0610916D06ED89FE8957
:10258000E017F10709F499C000916C0610916D06EF
:10259000809160068823B1F080915E0690915F067D
:1025A000892B81F484E690E090935F0680935E0629
:1025B0008091480690914906A0914A06B0914B0639
:1025C0000E94DB0580911C0181115AC08091620636
:1025D00090916306009709F453C080FF1DC080915D
:1025E00053068823C9F0D50112962D913C9113977B
:1025F00026523F4FA8EEB3E00E94B0202FED30E00E
:1026000040E050E00E947220C9010E947D051092B6
:10261000530684E680931C018091620681FF0EC000
:1026200080915406882351F0F501848195810E94A0
:10263000DB051092540684E680931C0180916206AB
:1026400082FF1EC0809152068823D1F0109252065C
:10265000D5016D917C91CB01A0E0B0E0BC01CD0132
:10266000675F7F4F8F4F9F4F24E630E040E050E0A0
:102670000E947220C9010E94390684E680931C01E1
:102680008091670690916806892BB9F4711015C086
:1026900080910801882389F08150809308019092ED
:1026A000680680926706409164065091650662E074
:1026B00070E0862D952D0E94F50480918206909100
:1026C000830690917E06BB89B91741F084E690E0BD
:1026D0009093700680936F0690917E0620917C0601
:1026E000EC89E21741F024E630E030937006209345
:1026F0006F0620917C0630917A06231641F044E65D
:1027000050E05093700640936F0630917A064091E6
:102710007806341641F044E650E05093700640933A
:102720006F064091780680917606481609F494CA9F
:1027300064E670E07093700660936F068091760691
:102740008BCAC12CD12C02C0C988DA88D80159960D
:102750008C918111C3CD0AC0C114D10409F4D1CD2B
:1027600008CEC114D10409F4CFCD0DCEC114D104CB
:1027700009F4CDCD20CE0F931F93FC0140815181F0
:10278000628173818A019B01015E174625433109ED
:102790000F31114A2740310590F54093290150939C
:1027A0002A0160932B0170932C0180911F0190915D
:1027B000200181FF07C040525B4B6C457F4F21E0F9
:1027C00030E078C0413E04E4500703EA6007710539
:1027D00038F0405E5444634A710921E030E06AC039
:1027E00080EE94E4A3EAB0E08C019D01041B150B7C
:1027F000260B370BB901A80121E030E05BC08A014C
:102800009B0101501444254938400F3F18402D4387
:10281000310508F048C040932D0150932E0160937C
:102820002F017093300180911F019091200180FF52
:1028300007C040525B4B6C457F4F20E030E03AC010
:10284000413EF4E45F07F3EA6F07710538F0405E3C
:102850005444634A710920E030E02CC080EE94E4D7
:10286000A3EAB0E08C019D01041B150B260B370B6E
:10287000B901A80120E030E01DC0809125019091B0
:102880002601A0912701B09128018A019B01081B14
:10289000190B2A0B3B0BC901B80140E050E00E9424
:1028A000341F81E00FC0FC0110821182128213825A
:1028B00080E008C080918606909187068217930772
:1028C000E1F280E01F910F9108958091880688239E
:1028D000F1F08091860690918706892B49F46091EA
:1028E0002D0170912E0180912F019091300108955A
:1028F0008091860690918706019769F4609129017D
:1029000070912A0180912B0190912C01089560E033
:1029100070E0CB01089560E070E0CB0108959093E2
:10292000200180931F010895CF93DF9300D000D042
:10293000CDB7DEB781309105B9F481E090E0909396
:102940008706809386065F9A8091290190912A01DB
:10295000A0912B01B0912C0189839A83AB83BC8316
:10296000CE01019608DF16C0892BA1F410928706CC
:10297000109286065F9880912D0190912E01A09172
:102980002F01B091300189839A83AB83BC83CE0140
:102990000196F1DE0F900F900F900F90DF91CF9185
:1029A0000895809186069091870608956091860625
:1029B0007091870687E390E05DD140912D015091A1
:1029C0002E0160912F017091300183E390E063D17B
:1029D0004091290150912A0160912B0170912C01A5
:1029E0008FE290E058D140912501509126016091ED
:1029F0002701709128018BE290E04DD1DDD4AB012D
:102A0000BC0188E390E047C10895D0CF08958CE3DE
:102A100090E00E942624853A71F587E390E00E94B9
:102A2000262490E0909387068093860683E390E0C7
:102A30000E942E2460932D0170932E0180932F010C
:102A4000909330018FE290E00E942E246093290140
:102A500070932A0180932B0190932C018BE290E0DC
:102A60000E942E24609325017093260180932701F4
:102A700090932801089540E954E169E978E087E2FC
:102A800090E00E94412440EE57ED69E978E083E24E
:102A900090E00E94412440E35BE96AE978E08FE13D
:102AA00090E00E94412440E85EE56BE978E08BE12C
:102AB00090E00E94412440ED51E26CE978E087E12A
:102AC00090E00E9441244CE65EE966E370E083E119
:102AD00090E00E94412440E452E566E370E08FE01C
:102AE00090E00E94412448EC55E666E370E08BE0FC
:102AF00090E00E94412440E559E766E370E087E0FA
:102B000090E00E94412448ED5CE866E370E083E0D9
:102B100090E00E94412465EA8CE390E00E94332417
:102B2000109287061092860680E399E2ADEAB8E03B
:102B300080932D0190932E01A0932F01B09330012B
:102B400080E39BE2A6E3B0E08093290190932A0101
:102B5000A0932B01B0932C0184EF91E0A0E0B0E0B2
:102B60008093250190932601A0932701B09328011B
:102B70001DCF089540E050E0BA0180E490E097D77F
:102B800046DF80EE94E4A3EAB0E0809321019093C5
:102B90002201A0932301B093240180918606909195
:102BA0008706C2DE6091210170912201809123018C
:102BB0009091240142E050E00E94341F60E070E0F8
:102BC00082E090E00E94F61D61E082E090E0DDD7B7
:102BD00060E070E080E090E00E94F61D61E080E03F
:102BE00090E0D3D781E0809388060895613D27E087
:102BF00072078105910588F4DC01CB0180932501E2
:102C000090932601A0932701B09328018091860616
:102C10009091870689DE81E0089580E008956091B3
:102C20002501709126018091270190912801089536
:102C30000F931F938B019C01145425493840013098
:102C400019402D43310570F0DC01CB01805E9746C1
:102C5000A543B1098132914AA740B10530F481E022
:102C600090E005C080E090E002C082E090E01F911B
:102C70000F9108951F93CF93DF93EC01162F0E94BD
:102C80002624811721F0612FCE010E943324DF9189
:102C9000CF911F910895CF92DF92EF92FF92CF9341
:102CA000DF93EC016A017B010E942E246C157D05E7
:102CB0008E059F0529F0B701A601CE010E9441248F
:102CC000DF91CF91FF90EF90DF90CF9008954F92DA
:102CD0005F926F927F928F929F92AF92BF92CF92AC
:102CE000DF92EF92FF920F931F93CF93DF93EC014C
:102CF0006A017B0189012330310509F07EC0772309
:102D00003CF480E8C80E81E5D81E81E0E81EF11C85
:102D100090E7C91697E1D906E104F1042CF41D826D
:102D20006894992492F8CEC0E0E6CE16EAEEDE066C
:102D3000E104F104ECF4C701B6012CE330E040E01B
:102D400050E00E9494205F934F933F932F9388E825
:102D500094E09F938F93DF93CF930E948521EDB7EB
:102D6000FEB738960FB6F894FEBF0FBEEDBFFCC09D
:102D70000F2EF0E18F2EFEE09F2EA12CB12CF02D16
:102D8000C701B601A50194010E949420122F032FC0
:102D9000F42EE52EDC01CB01880F991FAA1FBB1F63
:102DA0002C013D01440C551C661C771C440C551C21
:102DB000661C771CBC01CD01640D751D861D971D19
:102DC000A50194010E9494205F934F933F932F930A
:102DD000EF92FF920F931F938EE894E09F938F934F
:102DE000DF93CF930E948521EDB7FEB73C960FB6D7
:102DF000F894FEBF0FBEEDBFB7C077237CF4F0940C
:102E0000E094D094C094C11CD11CE11CF11C198623
:102E10008DE288836894992493F854C018860F2E05
:102E2000F7E09F2EF02D4EC0C80DD11DCA01B9018B
:102E30002AE030E040E050E00E949420605D68832A
:102E400093C08E01080D111DCA01B90126E030E0C2
:102E500040E050E00E949420605DF80160838BEFB9
:102E6000890DFE01E80FF11D8AE38083C701B601D9
:102E700020E13EE040E050E00E949420CA01B90108
:102E800028E130E040E050E00E9494208AEF890D74
:102E9000FE01E80FF11D8DEC689F812D11248695B0
:102EA00086958695282F220F922F990F990F920FB2
:102EB000691B605D608399EF990DC90FD11D805D1D
:102EC000888352C05E01A90CB11C0F2EFAE04F2E70
:102ED000512C612C712CF02DC701B601A301920178
:102EE0000E949420605DF50160838FEF890D5E0183
:102EF000A80EB11CCA01B90126E030E040E050E064
:102F00000E949420605DF50160838EEF890DFE01C3
:102F1000E80FF11D8AE380830F2EFCEF8F2EF02D3A
:102F2000890C8DEF890D5E01A80EB11CC701B60199
:102F30002CE330E040E050E00E949420CA01B90147
:102F4000A30192010E949420605DF5016083C70196
:102F5000B60128E532E040E050E00E9494200330C2
:102F6000110509F06ECF60CFDF91CF911F910F91C6
:102F7000FF90EF90DF90CF90BF90AF909F908F9099
:102F80007F906F905F904F9008958F929F92AF9235
:102F9000BF92FF920F931F93CF93DF9300D01F92A6
:102FA000CDB7DEB78C011B821A82FC018181908132
:102FB00099838A3329F08A836894FF24F1F802C048
:102FC000FF24F394CE0101960E9433219B01AC01B2
:102FD000A0E1BEE00E94BF204B015C0181E08F0DAB
:102FE000F801E80FF11D8081898382E08F0DF801DF
:102FF000E80FF11D80818A83CE0101960E94332162
:103000009B01AC01ACE3B0E00E94BF20860E971E8E
:10301000A81EB91E84E08F0DF801E80FF11D808114
:10302000898395E09F0DF801E90FF11D80818A8366
:10303000CE0101960E941621092E000CAA0BBB0B93
:10304000BC01CD01680D791D8A1D9B1D0F900F904D
:103050000F90DF91CF911F910F91FF90BF90AF9094
:103060009F908F900895CF93DF931F92CDB7DEB7D7
:10307000898321E0AE014F5F5F4F60E088E57BD040
:103080000F90DF91CF910895E4E6F0E080818F7793
:1030900080831092B90085E28093B80084E0809329
:1030A000BC0081E080933101089584EA8093BC00E4
:1030B000ECEBF0E08081882324F0809131018111D4
:1030C000F9CF80913101811107C080E98093BC0064
:1030D00081E080933101089580E0089584E9809330
:1030E000BC0008958093BB0084E88093BC00ECEBA7
:1030F000F0E08081882324F0809131018111F9CFA3
:103100008091B900887F861739F084E98093BC00EC
:1031100081E080933101089580E0089584EC8093EC
:10312000BC00ECEBF0E08081882324F08091310139
:103130008111F9CF8091BB00089584E88093BC0091
:10314000ECEBF0E08081882324F080913101811143
:10315000F9CF8091BB0008952091B900287F30E01D
:1031600090E02817390729F084E98093BC0081E0BA
:10317000089580E00895CF93DF9300D000D000D071
:10318000CDB7DEB78A836B835D834C832E83198230
:103190008CDF88E0E1DF882311F081E028C068E15E
:1031A0008A81A0DF882311F081E021C068E28B8151
:1031B00099DF8823A1F081E01AC0898191E0980FFE
:1031C0009983882F90E02C813D81820F931FFC0111
:1031D000808168E287DF882311F081E008C08E815A
:1031E0009FEF980F9E83882341F778DF80E0269633
:1031F0000FB6F894DEBF0FBECDBFDF91CF9108951B
:103200000F931F93CF93DF9300D000D000D0CDB7A2
:10321000DEB78A836B835D834C832E83198245DFFF
:1032200088E09ADF882311F081E04DC068E18A814F
:1032300059DF882311F081E046C068E28B8152DFBC
:10324000882311F081E03FC030DF80E185DF8823F3
:1032500011F081E038C08A81816060E443DF882317
:1032600051F181E030C08E818823A1F0898191E005
:10327000980F9983882F90E02C813D818901080F58
:10328000191F4CDFF801808380E566DF882399F001
:1032900081E019C08981882F90E02C813D818901CE
:1032A000080F191F4ADFF801808388E555DF88235E
:1032B00011F081E008C08E819FEF980F9E838823D4
:1032C00091F60CDF80E026960FB6F894DEBF0FBEB5
:1032D000CDBFDF91CF911F910F91089503C0089545
:1032E00024C00895CF93DF9300D0CDB7DEB7898394
:1032F0006A83DBDE88E030DF882311F081E010C0D4
:1033000068E18981EFDE882311F081E009C068E27D
:103310008A81E8DE882311F081E002C0DFDE80E0F0
:103320000F900F90DF91CF910895CF93DF9300D04E
:103330001F92CDB7DEB789837B836A83B6DE88E0D0
:103340000BDF882311F081E01CC068E18981CADEAF
:10335000882311F081E015C0A8DE88E0FDDE882317
:1033600011F081E00EC0E9DE282F8A819B81FC01EB
:10337000208388E5F1DE882311F081E002C0AEDE13
:1033800080E00F900F900F90DF91CF910895880FFC
:10339000991F880F991FFC01E757F94F60817181D0
:1033A00082819381089560939A0670939B0680931F
:1033B0009C0690939D06089560919A0670919B06D5
:1033C00080919C0690919D0608954F925F926F9216
:1033D0007F928F929F92AF92BF92CF92DF92EF92A5
:1033E000FF920F931F93CF93DF93EC018B014880E3
:1033F00059806A807B80411451046104710409F48E
:1034000043C0FB0180809180A280B380811491042D
:10341000A104B104C9F1C301B201A501940162D6AE
:103420006B017C01672B682B692B19F40FC06B01B2
:103430007C01C501B401A701960154D6460157018C
:10344000611571058105910591F702C0750164014F
:10345000F2E0CF16D104E104F104B0F0C301B201EF
:10346000A70196013FD6288339834A835B83F801FD
:103470006081718182819381A701960133D6F80121
:103480002083318342835383DF91CF911F910F912A
:10349000FF90EF90DF90CF90BF90AF909F908F9074
:1034A0007F906F905F904F9008954F925F926F92D0
:1034B0007F928F929F92AF92BF92CF92DF92EF92C4
:1034C000FF920F931F93CF93DF93CDB7DEB728976B
:1034D0000FB6F894DEBF0FBECDBF8A01C090320197
:1034E000D0903301E0903401F0903501A7019601AE
:1034F000F9D549015A0169837A838B839C83CD82F4
:10350000DE82EF82F886BE016B5F7F4FCE010196AF
:103510005CDFC980DA80EB80FC80CC0CDD1CEE1C0B
:10352000FF1CCC0CDD1CEE1CFF1CCC0CDD1CEE1CAF
:10353000FF1CCC0CDD1CEE1CFF1CCC0CDD1CEE1C9F
:10354000FF1CCC0CDD1CEE1CFF1CCC0CDD1CEE1C8F
:10355000FF1C4D805E806F807884C701B601A30197
:103560009201C0D5CA01B901880C991CAA1CBB1CC8
:10357000880C991CAA1CBB1C880C991CAA1CBB1C7F
:10358000880C991CAA1CBB1C880C991CAA1CBB1C6F
:10359000880C991CAA1CBB1C880C991CAA1CBB1C5F
:1035A000325041095109820E931EA41EB51EF80126
:1035B00080829182A282B382A301920184D5C61A2D
:1035C000D70AE80AF90AC482D582E682F7824086E1
:1035D00051866286738680E028960FB6F894DEBF27
:1035E0000FBECDBFDF91CF911F910F91FF90EF9054
:1035F000DF90CF90BF90AF909F908F907F906F9013
:103600005F904F9008953F924F925F926F927F929A
:103610008F929F92AF92BF92CF92DF92EF92FF92E2
:103620000F931F93CF93DF934B015C01EA0181E07D
:10363000F9018083F0E88F16F1ED9F06F0EFAF06F9
:10364000F8E0BF0640F1C501B401660F771F881F7F
:10365000991F660F771F881F991FC12CD12C7601E7
:103660006894C2F83BC0A32DB0E0A501940187D5B2
:10367000A3019201261B370B480B590BCA01B90154
:1036800033943394611536E4730733EC830733E2E4
:103690009307F0F010C06894332431F860E079EEBD
:1036A00084EA95E30F2E412CF9EE5F2EF4EA6F2E9B
:1036B000F5E37F2EF02DA501940114D569017A015F
:1036C00044E0C416D104E104F10408F042C0CBCFB9
:1036D00060E070E0CB01C12CD12C760121E054E0F8
:1036E000C516D104E104F10409F020E0F8012083BB
:1036F000CC0CDD1CEE1CFF1CCC0CDD1CEE1CFF1CDE
:10370000CC0CDD1CEE1CFF1CCC0CDD1CEE1CFF1CCD
:10371000CC0CDD1CEE1CFF1CCC0CDD1CEE1CFF1CBD
:10372000CC0CDD1CEE1CFF1CF2E0DF1AE108F108F6
:10373000C882D982EA82FB821C821D821E821F827D
:1037400001E010E020E030E0088719872A873B87F6
:1037500006C0A5019401C701B601B5D4BFCFDF9162
:10376000CF911F910F91FF90EF90DF90CF90BF907E
:10377000AF909F908F907F906F905F904F903F9011
:1037800008952F923F924F925F926F927F928F9205
:103790009F92AF92BF92CF92DF92EF92FF920F93E0
:1037A0001F93CF93DF93CDB7DEB762970FB6F89430
:1037B000DEBF0FBECDBF6B017C011A013E872D8796
:1037C0008091960690919706A0919806B0919906DF
:1037D00089879A87AB87BC87BC01CD01A701960179
:1037E00081D449015A012F87388B498B5A8B6983C1
:1037F0007A838B839C83CD82DE82EF82F886BE0142
:103800006B5F7F4FCE010196E0DD4D805E806F8063
:103810007884C980DA80EB80FC80A5019401C30123
:10382000B20151D49B01AC012C0D3D1D4E1D5F1DFD
:1038300069857A858B859C8555D4CA01B901A30118
:10384000920141D469877A878B879C87C114D10400
:10385000E104F10409F085C080FE75C082C081E0FA
:10386000D8018C93F101108211821282138214828A
:1038700015821682178281E090E0A0E0B0E0808798
:103880009187A287B38771C0D8011C92CC0CDD1C34
:10389000EE1CFF1CCC0CDD1CEE1CFF1CCC0CDD1C3C
:1038A000EE1CFF1CCC0CDD1CEE1CFF1CCC0CDD1C2C
:1038B000EE1CFF1CCC0CDD1CEE1CFF1CCC0CDD1C1C
:1038C000EE1CFF1CC701B601A30192010BD4CA0173
:1038D000B901880C991CAA1CBB1C880C991CAA1C39
:1038E000BB1C880C991CAA1CBB1C880C991CAA1C0C
:1038F000BB1C880C991CAA1CBB1C880C991CAA1CFC
:10390000BB1C880C991CAA1CBB1C89019A01125073
:1039100021093109800E911EA21EB31EF101808281
:103920009182A282B382A3019201CDD3C61AD70A93
:10393000E80AF90AC482D582E682F7824086518677
:103940006286738612C081E0AD85BE858C938F85BB
:103950009889A989BA890497A105B10509F094CF7E
:103960007ECFAD85BE851C928FCF69857A858B858C
:103970009C8562960FB6F894DEBF0FBECDBFDF9177
:10398000CF911F910F91FF90EF90DF90CF90BF905C
:10399000AF909F908F907F906F905F904F903F90EF
:1039A0002F900895262F682F80ECE5CB0895EF9295
:1039B000FF920F931F93CF93DF93CDB7DEB7669738
:1039C0000FB6F894DEBF0FBECDBF7A0100919A0604
:1039D00010919B0620919C0630919D06AE014F5F91
:1039E0005F4F63DD8A858D8789858E878B818370A4
:1039F0008F878A81888B8981898B9B858F818F7046
:103A000020E1929F800D11248A8B8E818B8B8D817A
:103A10008C8BEA94EF2839F4AE01435F5F4F68E086
:103A20008AE1C0DF06C0AE01435F5F4F68E082E21B
:103A3000B9DF66960FB6F894DEBF0FBECDBFDF913B
:103A4000CF911F910F91FF90EF900895609396068C
:103A500070939706809398069093990642E050E001
:103A6000A6CF0895CF93DF931F92CDB7DEB76983BA
:103A700021E0AE014F5F5F4F682F80EC7CDB0F9041
:103A8000DF91CF910895CF93C82F80FF03C060E2EC
:103A900081EBE8DFC1FF03C060E881EBE3DFCF919A
:103AA0000895AB0121E0682F80ECAACB0895CF9256
:103AB000DF92EF92FF921F93CF93DF931F92CDB7C8
:103AC000DEB7182F6A017B01DFDA1092960610929A
:103AD0009706109298061092990680E498E7ADE751
:103AE000B1E08093320190933301A0933401B093FD
:103AF0003501109295066FEF83E0B4DF6CEC80E146
:103B0000B1DF6CEC81E1AEDF6CEC82E1ABDF612F09
:103B10006261698387EBA6DFC114D104E104F1047B
:103B200051F40F2EF0E4CF2EF8E7DF2EFDE7EF2E55
:103B3000FF24F394F02D8091320190913301A091F4
:103B40003401B0913501C816D906EA06FB06A1F08A
:103B5000BE016F5F7F4F8FE0A4DF81110DC06981CF
:103B60006F736983C0923201D0923301E0923401C5
:103B7000F09235018FE076DF0F90DF91CF911F91AA
:103B8000FF90EF90DF90CF9008950F931F93CF9306
:103B9000DF931F92CDB7DEB7182F062FBE016F5FE0
:103BA0007F4F83E07EDF81111BC0002361F081E045
:103BB00090E002C0880F991F1A95E2F780959981CD
:103BC000892389830AC081E090E002C0880F991F91
:103BD0001A95E2F79981892B8983698183E042DF15
:103BE0000F90DF91CF911F910F910895EF92FF9267
:103BF0001F93CF93DF931F92CDB7DEB77B0110E108
:103C0000180FBE016F5F7F4F812F4BDF811122C0E4
:103C100081E0E816F10471F048F082E0E816F10462
:103C200071F083E0E816F10479F011C089818C7F8E
:103C300089830DC089818C7F8160898308C08981D7
:103C40008C7F8260898303C08981836089836981D5
:103C5000812F08DF0F90DF91CF911F91FF90EF90A0
:103C60000895EF92FF921F93CF93DF931F92CDB7EA
:103C7000DEB77B0110E1180FBE016F5F7F4F812F10
:103C800010DF811112C081E0E816F10421F489816E
:103C90008F7D898307C082E0E816F10419F48981D9
:103CA000806289836981812FDDDE0F90DF91CF9162
:103CB0001F91FF90EF9008950F931F93CF93DF9381
:103CC0001F92CDB7DEB7062F10E1180FBE016F5F50
:103CD0007F4F812FE6DE81110CC0002321F0898106
:103CE0008064898303C089818F7B89836981812F67
:103CF000B9DE0F90DF91CF911F910F910895FF9240
:103D00000F931F93CF93DF931F92CDB7DEB7813010
:103D1000910521F068F0029731F028C00F2EF4E3EE
:103D2000FF2EF02D09C00F2EFCE3FF2EF02D04C056
:103D30000F2EFCE2FF2EF02D042F162FBE016F5F19
:103D40007F4F8F2DAEDE811111C0898183780111E3
:103D500002C0898302C08C60898380E1189FB00112
:103D600011248981682B69838F2D7CDE0F90DF9170
:103D7000CF911F910F91FF9008956F927F928F9234
:103D8000AF92CF92DF92EF92FF920F931F93CF9358
:103D9000DF93CDB7DEB767970FB6F894DEBF0FBEDF
:103DA000CDBF3C01CC86DD86EE86088B198B2A8B35
:103DB0006E8B59834A83880F880F880FBE01655F19
:103DC0007F4F845D6EDE81113CC08B858C7F8B873D
:103DD0009E859370892B8B838D858C838C858D83B9
:103DE0009E898A898F7020E1929F800D11248E8395
:103DF00089898F838889888781E06816710469F0D2
:103E000028F082E06816710479F014C0AE014F5FAB
:103E10005F4F68E08AE2C6DD0DC0AE014F5F5F4FC5
:103E200068E082E3BFDD06C0AE014F5F5F4F68E030
:103E30008AE3B8DD6A2DC3013FDF4EA1682DC301BF
:103E40005EDF67960FB6F894DEBF0FBECDBFDF9181
:103E5000CF911F910F91FF90EF90DF90CF90AF9097
:103E60008F907F906F9008952F923F924F925F9224
:103E70006F927F928F92AF92BF92CF92DF92EF922A
:103E8000FF920F931F93CF93DF93CDB7DEB7609769
:103E90000FB6F894DEBF0FBECDBF6B017C013A01B7
:103EA0001D861E8680E4C81682E4D8068FE0E806E8
:103EB000F10460F0C701B60124E630E040E050E0D4
:103EC00011D1A4E6B0E05BD16B017C0191E06916F1
:103ED0007104D9F028F092E06916710461F1C8C04C
:103EE00080919506816080939506C0928906D09254
:103EF0008A06E0928B06F0928C066894BB24B4F894
:103F000081E090E0988B8F8730C060919506626069
:103F10006093950660956A6F83E0A4DDC0928D067C
:103F2000D0928E06E0928F06F09290060F2EF1E16D
:103F3000BF2EF02DA1C06091950664606093950638
:103F400060956C6F83E08EDDC0929106D0929206F0
:103F5000E0929306F09294060F2EF2E1BF2EF02D20
:103F60008BC082E090E0988B8F878E01025F1F4F9D
:103F70009E01235F3F4FAE014F5F5F4FC701B60108
:103F800042DB1B012C016F857889C3016ADE8E85B7
:103F90008F93812CAD84C980DA80EB80FC800D8109
:103FA0001E812F81388549855A856B857C85C301A3
:103FB000E4DE0F90211431044104510491F12CC02E
:103FC0008E01025F1F4F9E01235F3F4FAE014F5F87
:103FD0005F4FC701B601D5DB62E070E0C30141DE8F
:103FE0008E858F93812CAD84C980DA80EB80FC8034
:103FF0000D811E812F81388549855A856B857C8589
:10400000C301BBDE60919506609583E02BDD0F90C8
:10401000212C312C210113C04F855889C201B101D7
:10402000C6DC60919506609583E01CDD8F859889DC
:10403000019729F46CE48B2D15DD80E02BC08D8574
:10404000882321F06CE68B2D0DDD03C06CE28B2DF7
:1040500009DD211431044104510461F020929606D7
:1040600030929706409298065092990680E012C0CE
:1040700081E010C080E00EC0809196069091970676
:10408000A0919806B0919906892B8A2B8B2B09F465
:1040900068CF96CF60960FB6F894DEBF0FBECDBF47
:1040A000DF91CF911F910F91FF90EF90DF90CF9014
:1040B000BF90AF908F907F906F905F904F903F90A8
:1040C0002F9008950895DB018F939F9358D0BF914F
:1040D000AF91A29F800D911DA39F900DB29F900D57
:1040E00011240895A1E21A2EAA1BBB1BFD010DC0CD
:1040F000AA1FBB1FEE1FFF1FA217B307E407F50798
:1041000020F0A21BB30BE40BF50B661F771F881F73
:10411000991F1A9469F760957095809590959B0109
:10412000AC01BD01CF010895052E97FB16F4009454
:104130000FD057FD05D0D6DF07FC02D046F408C0EB
:1041400050954095309521953F4F4F4F5F4F0895C3
:1041500090958095709561957F4F8F4F9F4F0895F3
:10416000A29FB001B39FC001A39F700D811D1124B8
:10417000911DB29F700D811D1124911D0895F0DFD6
:10418000A59F900DB49F900DA49F800D911D1124AB
:104190000895E894DF93CF93FC01DB01E1DF7F9387
:1041A0006F93E9019A01AC01BF93AF933F932F93B3
:1041B000DF01D6DF26F46C1B7D0B820B930B9E0177
:1041C000EB01FC012BD0AF91BF912F913F9126D0F5
:1041D000BE01CF01F9012F913F91CF91DF91089559
:1041E00097FB10F8169400080F93083098F00850C9
:1041F000232F342F452F562F672F782F892F902D5F
:10420000F4CF05949795879577956795579547953A
:10421000379527950A95AAF70F910895A1DF460FC4
:10422000571FC81FD91F08F431960895FC0188272D
:104230009927E89421912032E9F3293010F02E30AB
:10424000C8F32B3239F02D3231F4689403C055D0C5
:10425000820F911D219120532A30C8F31EF49095AE
:1042600081959F4F08951F93FC0199278827BC01D2
:10427000E89411911032E9F3193010F01E30C8F3B0
:104280001B3249F01D3241F4689405C021D0610F02
:10429000711D811D911D119110531A30B8F33EF418
:1042A00090958095709561957F4F8F4F9F4F1F918F
:1042B00008959111089581568A5108F480528558C5
:1042C0000895FB01DC0101900D920020E1F70895B3
:1042D000592F482F372F262F660F771F881F991FBA
:1042E000660F771F881F991F620F731F841F951F0A
:1042F000660F771F881F991F08957AE0979F902D6A
:10430000879F802D910D11240895AEE0B0E0EAE87A
:10431000F1E2DDC20D891E8986E08C831A83098350
:104320008FEF9FE79E838D83AE01475E5F4F6F895E
:10433000788DCE01019608D0EF81F885E00FF11F4E
:1043400010822E96E4E0DFC2ABE0B0E0E9EAF1E2F1
:10435000B0C26C017B018A01FC0117821682838145
:1043600081FFBFC1CE0101963C01F6019381F701A7
:1043700093FD859193FF81917F01882309F4ADC15D
:10438000853239F493FD859193FF81917F018532C8
:1043900021F4B60190E0C0D1E8CF912C212C312C32
:1043A000FFE1F315D8F08B3279F038F4803279F0F0
:1043B0008332A1F4232D20611DC08D3261F0803342
:1043C00069F4232D216016C0832D8260382EE32DE1
:1043D000E4603E2E2AC0F32DF8601DC037FC2DC0CE
:1043E00020ED280F2A3040F08E32B9F436FC75C12A
:1043F000232D2064322E19C036FE06C08AE0989E16
:10440000200D1124922E11C0EAE02E9E200D1124C1
:10441000222EF32DF0623F2E08C08C3621F4832D1E
:104420008068382E02C0883641F4F70193FD8591EB
:1044300093FF81917F018111B3CF982F9F7D955478
:10444000933028F40C5F1F4F9FE399830DC0833690
:1044500031F0833771F0833509F055C020C0F80181
:10446000808189830E5F1F4F88248394912C530190
:1044700012C02801F2E04F0E511CF801A080B1805B
:1044800036FE03C0692D70E002C06FEF7FEFC501FB
:1044900038D14C018201F32DFF773F2E15C0280142
:1044A00022E0420E511CF801A080B18036FE03C00C
:1044B000692D70E002C06FEF7FEFC50117D14C018D
:1044C000F32DF0683F2E820133FC19C0822D90E05D
:1044D00088169906A0F4B60180E290E01DD12A94D6
:1044E000F5CFF50137FC859137FE81915F01B6016B
:1044F00090E012D121102A9421E0821A91088114AF
:10450000910479F7E1C0843611F0893639F5F80164
:1045100037FE07C060817181828193810C5F1F4FDC
:1045200008C060817181072E000C880B990B0E5F0B
:104530001F4FF32DFF763F2E97FF09C09095809572
:10454000709561957F4F8F4F9F4FF0683F2E2AE007
:1045500030E0A3011DD1882E861844C0853731F480
:10456000232D2F7EB22E2AE030E025C0932D997F97
:10457000B92E8F36C1F018F4883579F0AEC0803787
:1045800019F0883721F0A9C0E92FE061BE2EB4FEF2
:104590000DC0FB2DF460BF2E09C034FE0AC0292FC8
:1045A0002660B22E06C028E030E005C020E130E0F1
:1045B00002C020E132E0F801B7FE07C060817181DE
:1045C000828193810C5F1F4F06C06081718180E002
:1045D00090E00E5F1F4FA301DBD0882E8618FB2DC5
:1045E000FF773F2E36FE0DC0232D2E7FA22E89147D
:1045F00058F434FE0BC032FC09C0832D8E7EA82EE9
:1046000005C0B82CA32C03C0B82C01C0B92CA4FE43
:104610000FC0FE01E80DF11D8081803321F49A2D39
:10462000997EA92E09C0A2FE06C0B394B39404C01B
:104630008A2D867809F0B394A3FC10C0A0FE06C0B2
:10464000B21480F4280C922C9B180DC0B21458F4AC
:10465000B60180E290E060D0B394F8CFB21418F4C1
:104660002B1802C0982C212CA4FE0FC0B60180E3A9
:1046700090E052D0A2FE16C0A1FC03C088E790E0F3
:1046800002C088E590E0B6010CC08A2D867851F012
:10469000A1FE02C08BE201C080E2A7FC8DE2B60160
:1046A00090E03AD0891430F4B60180E390E034D041
:1046B0009A94F8CF8A94F301E80DF11D8081B60138
:1046C00090E02AD08110F6CF222009F44ECEB60118
:1046D00080E290E021D02A94F7CFF601868197817D
:1046E00002C08FEF9FEF2B96E2E1FFC0FC01059027
:1046F000615070400110D8F7809590958E0F9F1FE4
:104700000895FC016150704001900110D8F7809528
:1047100090958E0F9F1F08950F931F93CF93DF9354
:10472000FB01238121FD03C08FEF9FEF2CC022FFEF
:1047300016C046815781248135814217530744F4BE
:10474000A081B1819D012F5F3F4F318320838C93E6
:10475000268137812F5F3F4F3783268314C08B011B
:10476000EC01FB010084F185E02D0995892BE1F630
:10477000D80116968D919C911797019617969C9348
:104780008E931697CE01DF91CF911F910F910895CF
:10479000FA01AA27283051F1203181F1E8946F9372
:1047A0006E7F6E5F7F4F8F4F9F4FAF4FB1E03ED018
:1047B000B4E03CD0670F781F891F9A1FA11D680FB6
:1047C000791F8A1F911DA11D6A0F711D811D911DE9
:1047D000A11D20D009F468943F912AE0269F11245E
:1047E0003019305D3193DEF6CF010895462F4770C2
:1047F000405D4193B3E00FD0C9F7F6CF462F4F701D
:10480000405D4A3318F0495D31FD4052419302D07A
:10481000A9F7EACFB4E0A695979587957795679520
:10482000BA95C9F700976105710508959B01AC0120
:104830000A2E06945795479537952795BA95C9F747
:10484000620F731F841F951FA01D0895F999FECF55
:1048500092BD81BDF89A992780B50895A6E1B0E090
:1048600044E050E018C0262FF999FECF1FBA92BD40
:1048700081BD20BD0FB6F894FA9AF99A0FBE019641
:104880000895242FF1DF252FEFDF00C0ECDF272F65
:10489000EBCFDC01CB01FC01F999FECF06C0F2BDE4
:1048A000E1BDF89A319600B40D9241505040B8F7EE
:1048B00008952F923F924F925F926F927F928F92C4
:1048C0009F92AF92BF92CF92DF92EF92FF920F939F
:1048D0001F93CF93DF93CDB7DEB7CA1BDB0B0FB6A9
:1048E000F894DEBF0FBECDBF09942A883988488866
:1048F0005F846E847D848C849B84AA84B984C884FC
:10490000DF80EE80FD800C811B81AA81B981CE0FF2
:10491000D11D0FB6F894DEBF0FBECDBFED010895D7
:04492000F894FFCF39
:104924000A000000000000000AFF0AFFFFFFFF2842
:104934002364008813E803E80364000B64020002A4
:1049440000E044A300F4010000302B36003029AD10
:10495400080140787D010000000000000000000014
:104964000000000000000A436F6D6D616E64733ACD
:104974000A00000000000000000000000000000029
:1049840000000000000000000000000000003E20C5
:1049940020422020202020202020202020202020F1
:1049A4002020202D20426174746572790A00000071
:1049B4000000000000003E2020424E44205B327C78
:1049C40038305D20202020202020202D20527820E7
:1049D40042616E640A0000000000000000003E20F6
:1049E40020465245205B487A5D202020202020204C
:1049F4002020202D20527820467265710A00000084
:104A04000000000000003E2020465245204D3C316D
:104A14003A353E205B487A5D2020202D20527820B4
:104A24004D656D0A000000000000000000003E20FB
:104A3400204F205B487A5D20202020202020202049
:104A44002020202D204357204F66667365740A008A
:104A54000000000000003E2020535B535D20202016
:104A640020202020202020202020202D205253539D
:104A7400490A0000000000000000000000003E2081
:104A84002054494D205B68683A6D6D3A73735D201C
:104A94002020202D205254432054696D650A0000C3
:104AA4000000000000003E2020564F4C203C4D3AB0
:104AB400543E205B302D3130305D202D204D616916
:104AC4006E2F546F6E6520566F6C0A0000003E20F6
:104AD40020502020202020202020202020202020A2
:104AE4002020202D205065726D0A00000000000077
:104AF4000000000000003E202052535420202020BB
:104B040020202020202020202020202D20526573CA
:104B140065740A00000000000000000000003E2050
:104B2400203F202020202020202020202020202062
:104B34002020202D20496E666F0A0000000000002E
:104B44000000000000002A2A2A20574454205265FD
:104B540073657421202A2A2A0A005244503E2000F8
:104B64000A00F401F4010300E803E8036400030607
:104B740007302E372E390041524446204475616C6B
:104B84002D42616E64205265636569766572000A20
:104B94002A2A2A202573205665722E202573202A5E
:104BA4002A2A00506F776572206F666620696E202E
:104BB4002564207365630A003E2025733D25642522
:104BC40073004D004D256400256C64003E20257360
:104BD40020284D454D292573003E2025732573005B
:104BE40025634652452C25732C25732563003E20EE
:104BF40054494D453D2573257300256354494D2C77
:104C040025732563002563564F4C2C25732C25737F
:104C1400256300326D0038306D003E20424E443D25
:104C240025732573002563424E442C2573256300A8
:104C340025634243522C2573256300256349442C84
:104C440025732C25733B002E2E2E2E2E003E204243
:104C540041543D257325730021422C25733B003EAE
:104C640020525353493D257325730021532C25733A
:104C74003B003E2052463D257325730021522C25CE
:104C8400733B003E20543D257325730021542C258D
:104C9400733B004D41494E20564F4C00544F4E45F6
:104CA40020564F4C000A0A003E256C646D00256CAA
:084CB400642E25316C646800D8
:00000001FF
