:1000000033C000004EC000004CC000000C94DF085C
:100010000C9443090C94390C0C94B50C42C00000AC
:10002000FFC600003EC000003CC000003AC0000017
:1000300038C0000036C0000034C0000032C00000EC
:1000400030C000002EC000000C9465090C94EC0B2D
:1000500028C0000026C0000024C0000022C000000C
:1000600020C000001EC0000011241FBECFEFD8E04A
:10007000DEBFCDBF14E0A0E0B1E0EAECF5E402C0E1
:1000800005900D92AA32B107D9F726E0AAE2B4E0B2
:1000900001C01D92A932B207E1F70E94130D0C9422
:1000A000E322AECF80912D0494E052E306C091503C
:1000B00089F08F5F843008F080E0282F30E0529F75
:1000C000F001539FF00D1124EC54FB4F4081442369
:1000D00071F305C080932D0480E090E00895809333
:1000E0002D0442E3429FC001439F900D11248C5484
:1000F0009B4F089580912C0494E052E306C09150E8
:1001000089F08F5F843008F080E0282F30E0529F24
:10011000F001539FF00D1124EC54FB4F408141112D
:10012000EECF05C080932C0480E090E0089580938A
:100130002C0442E3429FC001439F900D11248C5434
:100140009B4F089580912B04282F30E093E4899FE2
:10015000F0011124E25DFB4F42815381452BA9F050
:100160008F5F823008F080E0282F30E093E4899F91
:10017000F0011124E25DFB4F42815381452B29F0B0
:1001800080932B0480E090E0089580932B0443E457
:10019000429FC001439F900D1124825D9B4F0895A3
:1001A00080912A04282F30E093E4899FF0011124E4
:1001B000E25DFB4F42815381452BA9F48F5F823072
:1001C00008F080E0282F30E093E4899FF0011124AB
:1001D000E25DFB4F42815381452B29F480932A0431
:1001E00080E090E0089580932A0443E4429FC00198
:1001F000439F900D1124825D9B4F089580917C0553
:10020000089590917C0581E0911180E0911108C0E2
:1002100091E090937C05E1ECF0E090819062908316
:10022000089580917C05882339F0E1ECF0E080812D
:100230008F7D808310927C050895CF93DF9380910A
:10024000C10084FF0FC0E1ECF0E080818F7E8083ED
:1002500086E8AEE2B4E0ED0119928A95E9F7808173
:1002600080618083DF91CF91089586E8EEE2F4E02B
:10027000DF011D928A95E9F71092C50083E3809310
:10028000C40088E98093C1008EE08093C200089585
:10029000CF93DF93009761F0EC012CDF009751F4CE
:1002A00090917C059111FCCF25DF0097C9F302C026
:1002B00081E00CC0DF93CF939F938F930E94D81F50
:1002C000A0DF0F900F900F900F9080E0DF91CF9103
:1002D00008958AEA92E0DCCF08958EEB92E0D8CFC1
:1002E000089584EC92E0D4CF08950F931F93CF9399
:1002F000DF9385ED92E09F938F938BED92E09F9338
:100300008F9383EF92E09F938F938DE795E09F9378
:100310008F930E94D81F8DB79EB708960FB6F8949A
:100320009EBF0FBE8DBF8DE795E0B2DF8111FBCF81
:1003300080917C058111FCCFC2E4D1E00AEA12E091
:10034000CE01A6DF8111FCCF80917C058111FCCF0D
:10035000A8960C171D07A1F7C4DFDF91CF911F915D
:100360000F9108959F938F9380E091E09F938F93D7
:100370000E94D81F0F900F900F900F9008958091BA
:10038000AF0591E0811190E09093AF05811107C016
:1003900087E194E0E7DF80E091E07ADF03C084EC5E
:1003A00092E076DF8091AF050895EDE7F5E0808378
:1003B0001182CF016DCF08951F928F9387E093E054
:1003C0009F938F938DE795E09F938F930E94D81F03
:1003D0008DE795E05DDF0F900F900F900F900F90DD
:1003E0000F90089520E031E03F932F939F938F93D8
:1003F0007F936F938CE193E09F938F938DE795E0CC
:100400009F938F930E94D81F8DE795E041DF8DB7B2
:100410009EB70A960FB6F8949EBF0FBE8DBF089583
:10042000FF920F931F93CF93DF93CDB7DEB72A9739
:100430000FB6F894DEBF0FBECDBF8C01F22E8091B7
:100440003201909133019A838983FE01339688E0CB
:10045000DF011D928A95E9F7411551056105710586
:1004600059F1463051056105710598F45F934F933A
:1004700088E293E09F938F93CE0101969F938F9391
:100480000E94D81F0F900F900F900F900F900F9019
:1004900013C07F936F935F934F938CE293E09F938E
:1004A0008F93CE0101969F938F930E94D81F0FB612
:1004B000F894DEBF0FBECDBF0330110509F465C04F
:1004C0000230110509F464C00130110509F063C060
:1004D0008BE324E29091AF05992391F1FF20C1F0C5
:1004E00080E091E09F938F93CE0101969F938F932D
:1004F00081E393E09F938F938DE795E09F938F9394
:100500000E94D81F0FB6F894DEBF0FBECDBF39C012
:1005100080E091E09F938F93CE0101969F938F93FC
:1005200082E493E09F938F938DE795E09F938F9361
:100530000E94D81F0FB6F894DEBF0FBECDBF21C0FA
:1005400090E0F11003C040E050E002C046E253E00A
:100550009F938F935F934F93CE0101969F938F93B9
:100560001F922F938DE493E09F938F938DE795E0F7
:100570009F938F930E94D81F0FB6F894DEBF0FBED3
:10058000CDBF8DE795E084DE06C08BE321E2A2CFEC
:100590008FE324E29FCF2A960FB6F894DEBF0FBEFA
:1005A000CDBFDF91CF911F910F91FF9008950F93D1
:1005B0001F93CF93DF93CDB7DEB72A970FB6F8948A
:1005C000DEBF0FBECDBF8C0180913201909133010F
:1005D0009A838983FE01339688E0DF011D928A9514
:1005E000E9F74F3FBFEF5B076B077B07F1F08091A7
:1005F000AF05882339F021E030E0CE0101960E945A
:10060000071513C07F936F935F934F938BE593E030
:100610009F938F93CE0101969F938F930E94D81F33
:100620000FB6F894DEBF0FBECDBF0330110509F43D
:1006300042C00230110509F441C00130110509F032
:1006400040C02BE394E28091AF058823C1F080E0A5
:1006500091E09F938F93CE0101969F938F938FE5A7
:1006600093E09F938F938DE795E09F938F930E94E4
:10067000D81F0FB6F894DEBF0FBECDBF18C01F92B3
:100680002F939E012F5F3F4F3F932F931F929F9376
:100690008BE693E09F938F938DE795E09F938F93E5
:1006A0000E94D81F0FB6F894DEBF0FBECDBF8DE7F6
:1006B00095E0EEDD06C02BE391E2C5CF2FE394E297
:1006C000C2CF2A960FB6F894DEBF0FBECDBFDF9122
:1006D000CF911F910F910895CF92DF92EF92FF92E9
:1006E0000F931F93CF93DF9300D000D000D0CDB7EE
:1006F000DEB720913C0130913D013A832983C090BF
:100700003E01D0903F01E0904001F0904101CB824A
:10071000DC82ED82FE826115710519F424E52983DE
:100720003AC06130710509F060C02DE4298333C0FF
:10073000CA01880F991F440F551F440F551F440FBE
:10074000551F480F591F5F934F9389E293E09F9382
:100750008F93CE0103969F938F930E94D81F0F9083
:100760000F900F900F900F900F900BC04D305105D0
:1007700040F44C30510519F48BE28B8302C08DE2BA
:100780008B830330110561F00230110561F00130F7
:10079000110559F50BC08C014B30510538F7C8CF06
:1007A0008BE321E205C08FE324E202C08BE324E265
:1007B0001F928F93CE0103969F938F9302979F93DF
:1007C0008F931F922F9386E793E09F938F938DE7EC
:1007D00095E09F938F930E94D81F8DE795E058DD99
:1007E0000FB6F894DEBF0FBECDBF26960FB6F894B5
:1007F000DEBF0FBECDBFDF91CF911F910F91FF9054
:10080000EF90DF90CF900895FF920F931F93CF93B7
:10081000DF9300D000D0CDB7DEB78C0183309105D7
:1008200009F481C08230910509F480C0FF24F3945B
:10083000019709F0F12C8091AF05811103C011C01F
:10084000FF24F394672B19F067E873E002C064E8B3
:1008500073E0CE0101960E94B41FFF2009F46DC021
:100860001CC07F936F9389E293E09F938F93CE0197
:1008700001969F938F930E94D81F0F900F900F9017
:100880000F900F900F900130110509F056C00BE347
:1008900014E28091AF058823C1F080E091E09F933E
:1008A0008F93CE0101969F938F938BE893E09F9354
:1008B0008F938DE795E09F938F930E94D81F0FB67B
:1008C000F894DEBF0FBECDBF17C01F920F93CE01AD
:1008D00001969F938F931F921F9386E993E09F93B6
:1008E0008F938DE795E09F938F930E94D81F0FB64B
:1008F000F894DEBF0FBECDBF8DE795E0C9DC1DC00B
:100900007F936F9389E293E09F938F93CE0101963B
:100910009F938F930E94D81F0F900F900F900F906E
:100920000F900F90B6CF0BE311E202C00FE314E279
:100930008091AF05811184CFE3CF0F900F900F907E
:100940000F90DF91CF911F910F91FF9008951F930A
:10095000CF93DF9300D000D0CDB7DEB7162F4091F4
:100960003E0150913F0160914001709141014983E6
:100970005A836B837C839F938F9389E293E09F9349
:100980008F93CE0101969F938F930E94D81F0F9053
:100990000F900F900F900F900F90112311F08FE395
:1009A00001C08BE31F928F93CE0101969F938F938B
:1009B0001F9284E28F9381EA93E09F938F938DE758
:1009C00095E09F938F930E94D81F8DE795E060DCA0
:1009D0000FB6F894DEBF0FBECDBF0F900F900F90F3
:1009E0000F90DF91CF911F910895FF920F931F9366
:1009F000CF93DF93CDB7DEB728970FB6F894DEBF5D
:100A00000FBECDBF9B018A0140913E0150913F0135
:100A1000609140017091410149835A836B837C83CB
:100A20004D835E836F837887039729F40F2EF1E25D
:100A3000FF2EF02D04C00F2EF4E2FF2EF02D211515
:100A4000310591F03F932F9389E293E09F938F9329
:100A5000CE0101969F938F930E94D81F0F900F9005
:100A60000F900F900F900F900115110591F01F93AB
:100A70000F9389E293E09F938F93CE0105969F9306
:100A80008F930E94D81F0F900F900F900F900F9090
:100A90000F90CE0105969F938F9304979F938F930A
:100AA0001F92FF928CEA93E09F938F938DE795E0DE
:100AB0009F938F930E94D81F8DE795E0E9DB0FB6D7
:100AC000F894DEBF0FBECDBF28960FB6F894DEBFF8
:100AD0000FBECDBFDF91CF911F910F91FF90089571
:100AE00086E0E8EBF3E0ADE7B5E001900D928A9582
:100AF000E1F78DE795E0CCCB0895CF93DF9300D05D
:100B000000D0CDB7DEB740913E0150913F016091DA
:100B100040017091410149835A836B837C839F9389
:100B20008F9389E293E09F938F93CE0101969F93D9
:100B30008F930E94D81F0F900F900F900F900F90DF
:100B40000F908091AF058823C1F080E091E09F93E2
:100B50008F93CE0101969F938F938EEB93E09F939B
:100B60008F938DE795E09F938F930E94D81F0FB6C8
:100B7000F894DEBF0FBECDBF14C0CE0101969F9387
:100B80008F9389EC93E09F938F938DE795E09F93EC
:100B90008F930E94D81F0F900F900F900F900F907F
:100BA0000F908DE795E074DB0F900F900F900F90F2
:100BB000DF91CF910895CF93DF9300D000D0CDB7D0
:100BC000DEB740913E0150913F016091400170912C
:100BD000410149835A836B837C839F938F9389E27E
:100BE00093E09F938F93CE0101969F938F930E94E2
:100BF000D81F0F900F900F900F900F900F90809133
:100C0000AF058823C1F080E091E09F938F93CE01E0
:100C100001969F938F9380ED93E09F938F938DE741
:100C200095E09F938F930E94D81F0FB6F894DEBF74
:100C30000FBECDBF14C0CE0101969F938F938CED54
:100C400093E09F938F938DE795E09F938F930E94FE
:100C5000D81F0F900F900F900F900F900F908DE76F
:100C600095E016DB0F900F900F900F90DF91CF91D2
:100C70000895CF93DF9300D000D0CDB7DEB7409179
:100C80003E0150913F0160914001709141014983C3
:100C90005A836B837C839F938F9389E293E09F9326
:100CA0008F93CE0101969F938F930E94D81F0F9030
:100CB0000F900F900F900F900F908091AF058823A9
:100CC000C1F080E091E09F938F93CE0101969F93B6
:100CD0008F9383EE93E09F938F938DE795E09F939F
:100CE0008F930E94D81F0FB6F894DEBF0FBECDBF02
:100CF00014C0CE0101969F938F938DEE93E09F9346
:100D00008F938DE795E09F938F930E94D81F0F904C
:100D10000F900F900F900F900F908DE795E0B8DA3D
:100D20000F900F900F900F90DF91CF910895CF9378
:100D3000DF9300D000D0CDB7DEB740913E01509197
:100D40003F01609140017091410149835A836B8357
:100D50007C839F938F9389E293E09F938F93CE013F
:100D600001969F938F930E94D81F0F900F900F9022
:100D70000F900F900F908091AF058823C1F080E015
:100D800091E09F938F93CE0101969F938F9384EF71
:100D900093E09F938F938DE795E09F938F930E94AD
:100DA000D81F0FB6F894DEBF0FBECDBF14C0CE0162
:100DB00001969F938F938DEF93E09F938F938DE791
:100DC00095E09F938F930E94D81F0F900F900F90E4
:100DD0000F900F900F908DE795E05ADA0F900F90DB
:100DE0000F900F90DF91CF910895A89504B603FE60
:100DF00003C094B7987094BF882341F0E0E6F0E018
:100E000090819861908398E6908307C0E0E6F0E0D7
:100E100090819861908396E490838093D80508959B
:100E20001F920F920FB60F921124EF92FF920F9321
:100E30001F932F933F934F935F936F937F938F9362
:100E40009F93AF93BF93EF93FF93CF93DF931F9243
:100E5000CDB7DEB78091F7059091F8050196909394
:100E6000F8058093F7058091FE059091FF050196A6
:100E70009093FF058093FE058091140190911501D8
:100E8000892B49F08091140190911501019790935D
:100E90001501809314018091100190911101892B0B
:100EA00049F08091100190911101019790931101E7
:100EB000809310018091F2059091F305892B49F000
:100EC0008091F2059091F30501979093F30580933B
:100ED000F2058091120190911301892B49F08091C4
:100EE00012019091130101979093130180931201C5
:100EF00080910A06882349F080910B0690910C0698
:100F0000019690930C0680930B0680911C01882318
:100F100019F0815080931C018091FA059091FB0596
:100F2000892BF9F08091D705811107C084B58061C4
:100F300084BD81E08093D70514C08091FA0590911B
:100F4000FB0501979093FB058093FA058091FA05C4
:100F50009091FB05892B29F484B58F7E84BD109276
:100F6000D7058091D605882341F0409B02C0409868
:100F700022C0409A1092D6051EC08091E70590913C
:100F80000D019817C1F0409B409A8091E705909120
:100F90000D01891738F4419880910D01815080939B
:100FA0000D0106C0419A80910D018F5F80930D0164
:100FB00081E08093D6058091D50581115FC08FEFC8
:100FC0008093D40519828981833008F0E0C020E045
:100FD0009FEF31E0E981F0E0EE0FFF1FEA5EFE4F88
:100FE00040815181452B61F0E981F0E0EE0FFF1F58
:100FF000EA5EFE4F40815181415051095183408347
:10100000E981F0E0EE0FFF1FEA5EFE4F4081518163
:10101000452B11F49981232F89818F5F89838981E1
:101020008330C0F2222309F4B2C09093D4059923EF
:101030000CF4ADC0892F990F990B9C01220F331F1F
:10104000F901E453FD4F40815181F901EA5EFE4F01
:1010500051834083ECE7F0E02081207FDC01AE5239
:10106000BD4F9C91822F892B8083EAE7F0E080813D
:101070008064808381E08093D50589C080917A0067
:1010800086FD85C02091780030917900A4EEBCE007
:101090000E94501FAB01BC01032E3AE07695679584
:1010A000579547953A95D1F7302D9A01F090D40590
:1010B0008F2D0F2C000C990BFC01EE0FFF1FE65239
:1010C000FA4F0190F081E02DE417F507A8F4EE2423
:1010D000E3948C0100521A4FD801EC924E1B5F0B27
:1010E000BC01660F771F6A537D4FDB016D917C91C8
:1010F00064177507A8F01EC0BF01641B750B11E0D3
:10110000AC0140525A4FDA011C93AC01440F551FF9
:101110004A535D4FDA014D915C914617570770F4C1
:10112000FC01EE0FFF1FEA5EFE4F44E650E05183E4
:10113000408324C09F012F5F3F4F07C0672B21F0E2
:101140009F012150310901C09F01B1E0FB1216C07F
:1011500041E04093F605223843E0340728F010922E
:101160001E0110921D010AC0243CA1E03A0730F094
:1011700041E050E050931E0140931D01880F991FDC
:10118000FC01E652FA4F318320831092D5050F906F
:10119000DF91CF91FF91EF91BF91AF919F918F918F
:1011A0007F916F915F914F913F912F911F910F917F
:1011B000FF90EF900F900FBE0F901F9018951F9209
:1011C0000F920FB60F9211242F933F938F939F93FB
:1011D00083B193B180910C01892793B190930C0155
:1011E000882309F447C0807C09F444C02FEF3FEF07
:1011F00030930F0120930E0128E833E1309315015D
:101200002093140193B1292F221F2227221F93B16B
:1012100096FB992790F98038B1F429130AC0809180
:101220000D0690910E06019690930E0680930D0682
:1012300021C080910D0690910E06019790930E06A5
:1012400080930D0617C08034A9F429130AC0809139
:101250000D0690910E06019790930E0680930D0651
:1012600009C080910D0690910E06019690930E068E
:1012700080930D069F918F913F912F910F900FBEFC
:101280000F901F9018951F920F920FB60F92112476
:101290008F939F938091F105882381F096B180917F
:1012A0000B01892796B190930B01882339F082FFB7
:1012B00005C0329903C081E08093FC059F918F9116
:1012C0000F900FBE0F901F9018951F920F920FB6A0
:1012D0000F921124CF92DF92EF92FF921F932F93E0
:1012E0003F934F935F936F937F938F939F93AF93AE
:1012F000BF93CF93DF93EF93FF931091C600C091FC
:10130000D205D091D305209751F40E94A200EC01A0
:101310009093D3058093D205892B09F445C280911F
:10132000EC05882309F439C1812F90E00E94AC1F9D
:101330009091D105992321F091509093D10534C219
:10134000182F8B3169F4E091D005E53128F4F0E0F5
:10135000E554FA4F108101C010E082E08093D1057E
:101360001D3009F04BC088E893E1909315018093FC
:1013700014018091BA05882341F1E091D005EE2354
:1013800009F182E090E0998388838091B60590917D
:10139000B7059B838A838091B505882379F090E017
:1013A00001974091B40555E1589F9001599F300D28
:1013B0001124C20FD31FC40FD11D1C82F0E0E554CD
:1013C000FA4F10820E94710104C080E490E09B8378
:1013D0008A831092D0051092B4051092B60510922F
:1013E000B7051092B8051092B9051092B505109284
:1013F000D3051092D2051092BA05D6C1112309F473
:10140000D3C18091D005282F30E0F901E554FA4F7F
:101410001083882309F4A1C01F37D9F58150809328
:10142000D0059091B505911122C0E82FF0E0E55468
:10143000FA4F20818091B6059091B705A091B8052B
:10144000B091B905BC01CD01621B710981099109F7
:101450002AE030E040E050E00E94121F2093B605E1
:101460003093B7054093B8055093B90592C0809169
:10147000B405882321F081508093B4058AC085E1AA
:10148000989FC00DD11D11241C8291509093B505D9
:1014900080C0103211F5F901E654FA4F9081903274
:1014A00009F474C19091B505992389F0492F50E052
:1014B000415051096091B40575E1749F9001759F89
:1014C000300D1124C20FD31FC60FD11D1C829F5F88
:1014D0009093B5051092B4055DC12091B505211119
:1014E00027C04091B6055091B7056091B80570913D
:1014F000B905440F551F661F771F6A017B01CC0C8D
:10150000DD1CEE1CFF1CCC0CDD1CEE1CFF1C4C0D6E
:101510005D1D6E1D7F1D410F511D611D711D40938D
:10152000B6055093B7056093B8057093B90532C1FD
:101530009091B40531E0390F3093B40530E021507B
:10154000310965E1629FA001639F500D1124C40F12
:10155000D51FC90FD11D1C831DC11F3709F424C11C
:10156000103209F421C11092B505812F90E0A0E05E
:10157000B0E08093B6059093B705A093B805B093FB
:10158000B9051C82198E1EA681E08093BA0580934E
:10159000D005812F0E94D50107C1143209F4D1C0B2
:1015A0001132D9F4D3C0998388831092B405109274
:1015B000B6051092B7051092B8051092B90581E0F2
:1015C0008093BA051C82198E1EA61092B5058091D3
:1015D000D0058F5F8093D005E7C08091BA0588233E
:1015E00009F486C01C3239F01B3309F4C5C01F331F
:1015F00009F03FC0B6C08091B505882309F4CEC07C
:10160000282F30E0215031099091B40545E1429FE7
:10161000F001439FF00D1124EC0FFD1FE90FF11DA8
:1016200014828F5F8093B5051092B4051B3369F463
:101630008091D005843030F08091B6059091B70547
:101640009B838A831092BA059CC01F3309F06DC03A
:1016500082E090E0998388838091D005843030F0D7
:101660008091B6059091B7059B838A831092BA0545
:1016700088C08091B505811127C08091B6059091F1
:10168000B705A091B805B091B905880F991FAA1F99
:10169000BB1FAC01BD01440F551F661F771F440FD0
:1016A000551F661F771F840F951FA61FB71F810F39
:1016B000911DA11DB11D8093B6059093B705A09310
:1016C000B805B093B90531C04091B40591E0940FCD
:1016D0009093B40590E0019755E1589F9001599F70
:1016E000300D1124C20FD31FC40FD11D1C831DC088
:1016F0001D30D9F48091EF059091F005892BA9F464
:1017000081E794E29B838A831092B4051092B60518
:101710001092B7051092B8051092B9051092B50550
:101720001092D3051092D20507C08091D0058F5F2B
:101730008093D0058233C0F11092BA051092D00583
:1017400033C01092D00581E090E02DCF1092D005EB
:1017500083E090E028CF81E08093B5051092B40536
:1017600077CF8091B5058823B1F34ACF81E080938C
:10177000B5051092B4055CCF8091B505811140CFBD
:10178000F5CF1092D3051092D205CFCF8F5F809303
:10179000D0050AC08F5F8093D005FBCE81E0809397
:1017A000B5051092B405C1CFFF91EF91DF91CF91B4
:1017B000BF91AF919F918F917F916F915F914F9169
:1017C0003F912F911F91FF90EF90DF90CF900F905E
:1017D0000FBE0F901F9018951F920F920FB60F9289
:1017E00011242F933F934F935F936F937F938F9326
:1017F0009F93AF93BF93EF93FF938091B205909126
:10180000B305892B31F40E9452009093B305809365
:10181000B205E091B205F091B3058091B105DF0109
:10182000A80FB11D9C91992331F08F5F8093B10572
:101830009093C6000DC01092B10510820E94520014
:101840009093B3058093B205892B11F40E94110186
:10185000FF91EF91BF91AF919F918F917F916F9188
:101860005F914F913F912F910F900FBE0F901F905E
:1018700018951F920F920FB60F9211242F933F933A
:101880008F939F938091F105882309F458C099B1F3
:1018900080910901892799B190930901882309F45E
:1018A0004EC0982F9C7161F028E833E13093150108
:1018B000209314012FEF3FEF30930F0120930E017F
:1018C00082FF17C04A9B0EC0109206069091FD053C
:1018D000911105C0909107069F5F909307061092A3
:1018E000FD0507C091E0909306061092FF05109247
:1018F000FE0583FF11C04B9B08C010920406909117
:1019000005069F5F9093050607C091E0909304063B
:101910001092FF051092FE0584FF11C04C9B08C079
:1019200010920206809103068F5F8093030607C022
:1019300081E0809302061092FF051092FE059F91B0
:101940008F913F912F910F900FBE0F901F90189580
:101950006091E60581E090E00E94DA146091E7056D
:1019600080E090E00C94DA1408951F920F920FB665
:101970000F9211242F933F934F935F936F937F9315
:101980008F939F93AF93BF93EF93FF9310922D018B
:10199000DFDF8091D805811109C080910A01882379
:1019A00089F0E0E6F0E080818064808380910A0124
:1019B000882341F0815080930A018091EC058111C8
:1019C0000E946901FF91EF91BF91AF919F918F911B
:1019D0007F916F915F914F913F912F910F900FBE2B
:1019E0000F901F90189582E090E00E947922853A2E
:1019F00069F481E090E00E9479228093E60580E01E
:101A000090E00E9479228093E70508958CE380930B
:101A1000E6058BE08093E7059BDF65EA82E090E0D6
:101A20000C9486220895CF93DF93CDB7DEB76697E7
:101A30000FB6F894DEBF0FBECDBFD5DF209A85B1BB
:101A4000856085B982EE8AB98CE18BB983E087B96C
:101A500084E388B90E9435019CE097BD84B582601B
:101A600084BD85B5856085BD9093B300E0EBF0E063
:101A7000808182608083E1EBF0E0808187608083F9
:101A8000E0E7F0E0808184608083ECE7F0E0808133
:101A900080648083EAE7F0E0808187688083E8E6FD
:101AA000F0E0808187608083EDE6F0E080818C61EA
:101AB0008083ECE6F0E0808184608083EBE6F0E0F8
:101AC000808184608083789484E893E0909311010E
:101AD0008093100180E089D978D6A8958091E60599
:101AE0000E94D3166FEF80E40E940E18A8950E9402
:101AF00070050E94FE008111FCCFA89540E050E0E7
:101B000062E070E081E090E00E94F5040E94FE0037
:101B10008111FCCF84E090E19093F3058093F2056E
:101B200081E063D981E08093F105C12CD12C1A8A20
:101B3000212C312C412C512C198A0F2EFAED6F2EAD
:101B4000F5E07F2EF02D21E02D8B1E8A88248A94CB
:101B5000982C540101C08A8BF894A89578948091B0
:101B6000F905882379F08091F90581508093F90572
:101B70008091F905811106C084E690E09093FB0501
:101B80008093FA058091F605882309F40CC4F301CB
:101B9000828193818D33914008F078C08091D9057E
:101BA000882309F473C08091120190911301892B4D
:101BB00009F0F9C380910F0690911006049769F01F
:101BC00084E090E09093100680930F065E9888E87A
:101BD00093E190931501809314018FEF9FEF909301
:101BE0000F0180930E018091EC05882371F18091A3
:101BF0001401909115019C01220F331F880F991F2A
:101C0000880F991F880F991F280F391F3695279520
:101C10003695279536952795A7E3BAE10E94501F80
:101C20008C010024000F111F001C000F111F001C4D
:101C3000012F102D8091B005801739F0802F0E9460
:101C4000DC010E946D010093B00580911401909118
:101C50001501892B09F0A7C37BDE299888E893E159
:101C600090931501809314018091140190911501B6
:101C7000892B31F0F30182819381843C9140A0F360
:101C8000A8951092100610920F068DC3F301828161
:101C90009381843C9140C0F081E08093D90584E633
:101CA00090E0909313018093120188E293E2909365
:101CB00011018093100188E893E1909315018093BE
:101CC0001401299A5E9A6FC38091100190911101BD
:101CD000892B09F068C380910F0690911006059733
:101CE00061F085E090E09093100680930F0688E8FD
:101CF00093E19093150180931401809114019091C8
:101D00001501892B09F04FC329985E98F301828150
:101D10009381843C9140D0F3A89545C3F80182811A
:101D200093818E31F3E09F0709F4A8C1B8F482359E
:101D3000910509F430C348F48F33910509F4EAC2E0
:101D40008234910509F4D0C21DC38335910509F48D
:101D5000D6C28435910509F41EC314C3813D3EE10A
:101D6000930709F448C050F4883BECE19E0709F45E
:101D700099C288319D4109F4B9C104C3813724E275
:101D8000920709F479C28A3F34E2930709F4D0C17B
:101D9000873F934209F0F6C2F8018481882309F451
:101DA000FAC28D869E86AF86B88A8091EC0588231C
:101DB000A9F086818A3319F481858A3339F0F801D4
:101DC00085818A3399F480858A3381F4C801049629
:101DD0007CD76D877E878F87988B08C0C801049653
:101DE0000E94861F6D877E878F87988B8D859E8545
:101DF000AF85B889D0C2F8018481882309F41AC15B
:101E00008D3409F0FCC0C80105960E94691F7C0151
:101E100019861A861B861C86D3D4FF24F3E0EF169E
:101E2000F10429F14CF431E0E316F10471F042E0E1
:101E3000E416F10499F036C0E4E0EE16F10401F185
:101E4000F5E0EF16F10429F12DC0892B71F10F2E69
:101E5000F3E1EF2EF0E0FF2EF02D49C0892B61F168
:101E60000F2EFFE0EF2EF0E0FF2EF02D40C0892B6B
:101E700051F10F2EFBE0EF2EF0E0FF2EF02D37C0DA
:101E8000892B41F10F2EF7E0EF2EF0E0FF2EF02D21
:101E90002EC0892B31F10F2EF3E0EF2EF0E0FF2E54
:101EA000F02D25C0E12CF12C22C00F2EF7E2EF2EF1
:101EB000F0E0FF2EF02D1BC00F2EF3E2EF2EF0E02E
:101EC000FF2EF02D14C00F2EFFE1EF2EF0E0FF2EBD
:101ED000F02D0DC00F2EFBE1EF2EF0E0FF2EF02DC8
:101EE00006C00F2EF7E1EF2EF0E0FF2EF02DE114EB
:101EF000F10409F47AC01D821E821F821886809127
:101F0000EC05882389F0F801918D992369F0C801C7
:101F100049960E94861F6D837E838F83988721E078
:101F2000F801208311822CC0F801208131812230F8
:101F3000310501F5C7010E94812269877A878B8765
:101F40009C87672B682B692B09F451C0CE01099639
:101F50002AD3882309F44DC089859A85AB85BC8531
:101F60008093E8059093E905A093EA05B093EB050B
:101F700021E06AC02130310509F03DC0882319F104
:101F80008D819E81AF81B88589839A83AB83BC8321
:101F9000CE01019608D3882389F089819A81AB818B
:101FA000BC818093E8059093E905A093EA05B0937E
:101FB000EB0589879A87AB87BC870AC019861A8682
:101FC0001B861C8605C090D369877A878B879C8780
:101FD00049855A856B857C854115510561057105DB
:101FE00061F0C701F8D421E02FC020E02DC021E02E
:101FF0002BC021E029C021E027C021E025C0C80175
:1020000004960E94861F69837A838B839C83CE010A
:102010000196C9D2882361F089819A81AB81BC8104
:102020008093E8059093E905A093EA05B093EB054A
:1020300020E00AC059D36093E8057093E9058093C6
:10204000EA059093EB0520E08091E8059091E90581
:10205000A091EA05B091EB05892B8A2B8B2B09F413
:102060009AC14091E8055091E9056091EA057091A7
:10207000EB0583E090E00E9410028DC1F80184819D
:10208000882309F488C1C80104960E94691F7C0155
:102090009093F0058093EF05F801818D882331F04E
:1020A000C80149960E94691F029779F0A70162E072
:1020B00070E083E090E00E94F50424E030E130938A
:1020C000F3052093F205198A66C13989311107C0D9
:1020D000A70162E070E083E090E00E94F5041092B6
:1020E000F3051092F20541E0498B55C1F801848156
:1020F000882381F0C80104960E94691F80359105EC
:1021000021F48D899E891FD305C0029719F480E0C0
:1021100090E019D355D3F801208131812230310567
:1021200009F039C1BC0183E090E00E94040433C18E
:10213000F8018481843509F41DC28D3409F02BC166
:102140001CC28B3209F420C28D3209F422C2C801AC
:1021500049960E94691FE114F10409F056C09923C1
:10216000E4F422E030E008C02D893E8905C02FEF5D
:102170003FEF02C020E030E08091E60590E02130A2
:10218000310529F48F3F910544F40A9606C02F3F8C
:102190003F4F19F4009709F00A97992314F480E04F
:1021A00090E09C8B8B8B8F3F910529F024F02FEFD3
:1021B00030E03C8B2B8B8091E60590E0EB89FC892D
:1021C0008E179F0729F08B89EED5FB89F093E605E2
:1021D00084E18093F905BCDB8091EC05811136C068
:1021E0003DC08091E7058F30F0F48091E7058F5F67
:1021F0008093E70518C08091E7058823A1F08091BE
:10220000E70581508093E7050EC08031910524F0E9
:102210008FE08093E70507C099231CF41092E7052F
:1022200002C08093E70584E18093F90591DB8091FA
:10223000EC05882399F0EA94EF2841F48091E705B2
:1022400064E074E090E00E94F201A5C08091E60590
:102250006DE074E090E00E94F2019DC0F801808181
:102260009181029709F09CC04DE050E0B70183E0F6
:1022700090E00E946C038FC00E94BF018093EC0528
:10228000882309F48DC01092EE051092ED0510928E
:10229000F3051092F20586E194E00E94B201F1E0AC
:1022A000F98B79C0C80104960E94691FF80120814A
:1022B00031812230310559F42091ED053091EE0540
:1022C000822B932B9093EE058093ED0564C080954F
:1022D00090952091ED053091EE0582239323909304
:1022E000EE058093ED0557C08091EC05882309F435
:1022F00057C0F301828193810E947D054CC080917B
:10230000EC05882309F44CC0F301848195810E9477
:10231000DB0541C0F894A895789487E194E00E9489
:10232000B2014ED2BC0183E090E00E940404DCD1F3
:10233000AB01BC0120E083E090E00E94100280919C
:10234000E70564E074E090E00E94F2018091E60508
:102350006DE074E090E00E94F201F894A895789402
:10236000F301828193810E947D05F301848195812F
:102370000E94DB0586E194E00E94B201F894A895E2
:10238000789409C08091EC05882319F00E947501AA
:1023900002C00E941D018091EC0581110E946D0117
:1023A000F801138212820E94D0008C01892B09F05F
:1023B000B5CC8091FC05882339F01092FC05BE0154
:1023C0006F5F7F4F80E42CD68091F7059091F805E0
:1023D000C816D90609F481C0C090F705D090F80559
:1023E00080911C01811158C08091ED059091EE05FE
:1023F000009709F451C080FF1BC08091E10588233C
:10240000B9F0F3012281338126523F4FA8EEB3E0A9
:102410000E94501F2FED30E040E050E00E94121F5C
:10242000C9010E947D051092E10584E680931C019C
:102430008091ED0581FF0EC08091E205882351F067
:10244000F301848195810E94DB051092E20584E608
:1024500080931C018091ED0582FF1EC08091E005F4
:102460008823D1F01092E005F30160817181CB01E6
:10247000A0E0B0E0BC01CD01675F7F4F8F4F9F4F61
:1024800024E630E040E050E00E94121FC9010E94A3
:10249000390684E680931C018091F2059091F30542
:1024A000892BE1F4F989F11119C080910801882381
:1024B000A9F081508093080124E030E13093F305C6
:1024C0002093F2054091EF055091F00562E070E035
:1024D00081E090E00E94F50401C06C0180910D063E
:1024E00090910E0680910906581649F084E690E016
:1024F0009093FB058093FA055090090601C0582E71
:1025000080910706481649F084E690E09093FB0519
:102510008093FA054090070601C0482E8091050679
:10252000381649F084E690E09093FB058093FA0515
:102530003090050601C0382E80910306281649F018
:1025400084E690E09093FB058093FA0520900306C3
:1025500001C0282E809101063A89381709F4FBCA78
:1025600084E690E09093FB058093FA054091010684
:102570004A8BF2CAE12CF12C02C0ED88FE88F801EA
:10258000818D8111DECD0AC0E114F10409F029CE5C
:10259000EBCDE114F10409F02ECEE9CDE114F10404
:1025A00009F4E8CD40CE0F931F93FC014081518187
:1025B000628173818A019B01015E174625433109BF
:1025C0000F31114A27403105B0F540932501509352
:1025D0002601609327017093280180911F0190913B
:1025E000200181FF09C0CB01BA0160527B4B8C45B1
:1025F0009F4F41E050E06DC0413E04E4500703EAC4
:102600006007710548F0CB01BA01605E7444834AEB
:10261000910941E050E05DC080EE94E4A3EAB0E0AF
:102620008C019D01041B150B260B370BC901B8014A
:1026300041E050E04EC08A019B01015014442549FD
:1026400038400F3F18402D433105E0F540932901F4
:1026500050932A0160932B0170932C0180911F01EC
:102660009091200180FF09C0CB01BA0160527B4BE1
:102670008C459F4F40E050E02CC0413EF4E45F07A2
:10268000F3EA6F07710548F0CB01BA01605E74444C
:10269000834A910940E050E01CC080EE94E4A3EA34
:1026A000B0E08C019D01041B150B260B370BC901F3
:1026B000B80140E050E00DC040E050E00E94D41D61
:1026C00081E00FC0FC01108211821282138280E02F
:1026D00008C020911106309112062417350761F3C6
:1026E00080E01F910F910895809113068823F1F0E7
:1026F0008091110690911206892B49F4609129016D
:1027000070912A0180912B0190912C010895809164
:10271000110690911206019769F46091250170915C
:1027200026018091270190912801089560E070E0D2
:10273000CB01089560E070E0CB01089590932001F3
:1027400080931F010895CF93DF9300D000D0CDB7C1
:10275000DEB781309105B9F481E090E090931206E4
:10276000809311065F9A8091250190912601A09196
:102770002701B091280189839A83AB83BC83CE0162
:10278000019611DF16C0892BA1F410921206109247
:1027900011065F988091290190912A01A0912B0147
:1027A000B0912C0189839A83AB83BC83CE010196BF
:1027B000FADE0F900F900F900F90DF91CF91089558
:1027C0008091110690911206089540E050E0BA0100
:1027D00080E490E00E94F71B80E399E2ADEAB8E064
:1027E0008093290190932A01A0932B01B0932C018F
:1027F00080E39BE2A6E3B0E080932501909326015D
:10280000A0932701B093280110921206109211068E
:1028100080EE94E4A3EAB0E080932101909322013A
:10282000A0932301B0932401809111069091120688
:102830008ADF6091210170912201809123019091A2
:10284000240142E050E00E94D41D63E070E082E089
:1028500090E00E94961C61E082E090E00E94651C7E
:1028600063E070E080E090E00E94961C61E080E010
:1028700090E00E94651C81E08093130608956091AA
:102880001106709112068BE290E094D035D4AB0122
:10289000BC018CE290E09FC0089580E390E00E942C
:1028A0007922853A51F48BE290E00E94792290E0FF
:1028B0009093120680931106089540E954E169E966
:1028C00078E087E290E00E94942240EE57ED69E9BB
:1028D00078E083E290E00E94942240E35BE96AE9B9
:1028E00078E08FE190E00E94942240E85EE56BE999
:1028F00078E08BE190E00E94942240ED51E26CE997
:1029000078E087E190E00E9494224CE65EE966E37D
:1029100070E083E190E00E94942240E452E566E397
:1029200070E08FE090E00E94942248EC55E666E368
:1029300070E08BE090E00E94942240E559E766E366
:1029400070E087E090E00E94942248ED5CE866E346
:1029500070E083E090E00E94942265EA80E390E0DA
:102960000E948622109212061092110688CF0895B6
:102970000F931F938B019C0114542549384001305B
:1029800019402D43310570F0DC01CB01805E974684
:10299000A543B1098132914AA740B10530F481E0E5
:1029A00090E005C080E090E002C082E090E01F91DE
:1029B0000F9108951F93CF93DF93EC01162F0E9480
:1029C0007922811721F0612FCE010E948622DF91AA
:1029D000CF911F910895CF92DF92EF92FF92CF9304
:1029E000DF93EC016A017B010E9481226C157D0559
:1029F0008E059F0529F0B701A601CE010E94942201
:102A0000DF91CF91FF90EF90DF90CF9008954F929C
:102A10005F926F927F928F929F92AF92BF92CF926E
:102A2000DF92EF92FF920F931F93CF93DF93EC010E
:102A30006A017B0189012330310509F07EC07723CB
:102A40003CF480E8C80E81E5D81E81E0E81EF11C48
:102A500090E7C91697E1D906E104F1042CF41D8230
:102A60006894992492F8CEC0E0E6CE16EAEEDE062F
:102A7000E104F104ECF4C701B6012CE330E040E0DE
:102A800050E00E94341F5F934F933F932F9389E14F
:102A900094E09F938F93DF93CF930E94D81FEDB75D
:102AA000FEB738960FB6F894FEBF0FBEEDBFFCC060
:102AB0000F2EF0E18F2EFEE09F2EA12CB12CF02DD9
:102AC000C701B601A50194010E94341F122F032FE4
:102AD000F42EE52EDC01CB01880F991FAA1FBB1F26
:102AE0002C013D01440C551C661C771C440C551CE4
:102AF000661C771CBC01CD01640D751D861D971DDC
:102B0000A50194010E94341F5F934F933F932F932D
:102B1000EF92FF920F931F938FE194E09F938F9317
:102B2000DF93CF930E94D81FEDB7FEB73C960FB648
:102B3000F894FEBF0FBEEDBFB7C077237CF4F094CE
:102B4000E094D094C094C11CD11CE11CF11C1986E6
:102B50008DE288836894992493F854C018860F2EC8
:102B6000F7E09F2EF02D4EC0C80DD11DCA01B9014E
:102B70002AE030E040E050E00E94341F605D68834E
:102B800093C08E01080D111DCA01B90126E030E085
:102B900040E050E00E94341F605DF80160838BEFDD
:102BA000890DFE01E80FF11D8AE38083C701B6019C
:102BB00020E13EE040E050E00E94341FCA01B9012C
:102BC00028E130E040E050E00E94341F8AEF890D98
:102BD000FE01E80FF11D8DEC689F812D1124869573
:102BE00086958695282F220F922F990F990F920F75
:102BF000691B605D608399EF990DC90FD11D805DE0
:102C0000888352C05E01A90CB11C0F2EFAE04F2E32
:102C1000512C612C712CF02DC701B601A30192013A
:102C20000E94341F605DF50160838FEF890D5E01A6
:102C3000A80EB11CCA01B90126E030E040E050E026
:102C40000E94341F605DF50160838EEF890DFE01E7
:102C5000E80FF11D8AE380830F2EFCEF8F2EF02DFD
:102C6000890C8DEF890D5E01A80EB11CC701B6015C
:102C70002CE330E040E050E00E94341FCA01B9016B
:102C8000A30192010E94341F605DF5016083C701BA
:102C9000B60128E532E040E050E00E94341F0330E6
:102CA000110509F06ECF60CFDF91CF911F910F9189
:102CB000FF90EF90DF90CF90BF90AF909F908F905C
:102CC0007F906F905F904F9008958F929F92AF92F8
:102CD000BF92FF920F931F93CF93DF9300D01F9269
:102CE000CDB7DEB78C011B821A82FC0181819081F5
:102CF00099838A3329F08A836894FF24F1F802C00B
:102D0000FF24F394CE0101960E94861F9B01AC0123
:102D1000A0E1BEE00E945F1F4B015C0181E08F0DCE
:102D2000F801E80FF11D8081898382E08F0DF801A1
:102D3000E80FF11D80818A83CE0101960E94861FD3
:102D40009B01AC01ACE3B0E00E945F1F860E971EB2
:102D5000A81EB91E84E08F0DF801E80FF11D8081D7
:102D6000898395E09F0DF801E90FF11D80818A8329
:102D7000CE0101960E94691F092E000CAA0BBB0B05
:102D8000BC01CD01680D791D8A1D9B1D0F900F9010
:102D90000F90DF91CF911F910F91FF90BF90AF9057
:102DA0009F908F900895CF93DF931F92CDB7DEB79A
:102DB000898321E0AE014F5F5F4F60E088E57BD003
:102DC0000F90DF91CF910895E4E6F0E080818F7756
:102DD00080831092B90085E28093B80084E08093EC
:102DE000BC0081E080932D01089584EA8093BC00AB
:102DF000ECEBF0E08081882324F080912D0181119B
:102E0000F9CF80912D01811107C080E98093BC002A
:102E100081E080932D01089580E0089584E98093F6
:102E2000BC0008958093BB0084E88093BC00ECEB69
:102E3000F0E08081882324F080912D018111F9CF69
:102E40008091B900887F861739F084E98093BC00AF
:102E500081E080932D01089580E0089584EC8093B3
:102E6000BC00ECEBF0E08081882324F080912D0100
:102E70008111F9CF8091BB00089584E88093BC0054
:102E8000ECEBF0E08081882324F080912D0181110A
:102E9000F9CF8091BB0008952091B900287F30E0E0
:102EA00090E02817390729F084E98093BC0081E07D
:102EB000089580E00895CF93DF9300D000D000D034
:102EC000CDB7DEB78A836B835D834C832E831982F3
:102ED0008CDF88E0E1DF882311F081E028C068E121
:102EE0008A81A0DF882311F081E021C068E28B8114
:102EF00099DF8823A1F081E01AC0898191E0980FC1
:102F00009983882F90E02C813D81820F931FFC01D3
:102F1000808168E287DF882311F081E008C08E811C
:102F20009FEF980F9E83882341F778DF80E02696F5
:102F30000FB6F894DEBF0FBECDBFDF91CF910895DD
:102F40000F931F93CF93DF9300D000D000D0CDB765
:102F5000DEB78A836B835D834C832E83198245DFC2
:102F600088E09ADF882311F081E04DC068E18A8112
:102F700059DF882311F081E046C068E28B8152DF7F
:102F8000882311F081E03FC030DF80E185DF8823B6
:102F900011F081E038C08A81816060E443DF8823DA
:102FA00051F181E030C08E818823A1F0898191E0C8
:102FB000980F9983882F90E02C813D818901080F1B
:102FC000191F4CDFF801808380E566DF882399F0C4
:102FD00081E019C08981882F90E02C813D81890191
:102FE000080F191F4ADFF801808388E555DF882321
:102FF00011F081E008C08E819FEF980F9E83882397
:1030000091F60CDF80E026960FB6F894DEBF0FBE77
:10301000CDBFDF91CF911F910F91089503C0089507
:1030200024C00895CF93DF9300D0CDB7DEB7898356
:103030006A83DBDE88E030DF882311F081E010C096
:1030400068E18981EFDE882311F081E009C068E240
:103050008A81E8DE882311F081E002C0DFDE80E0B3
:103060000F900F90DF91CF910895CF93DF9300D011
:103070001F92CDB7DEB789837B836A83B6DE88E093
:103080000BDF882311F081E01CC068E18981CADE72
:10309000882311F081E015C0A8DE88E0FDDE8823DA
:1030A00011F081E00EC0E9DE282F8A819B81FC01AE
:1030B000208388E5F1DE882311F081E002C0AEDED6
:1030C00080E00F900F900F90DF91CF910895880FBF
:1030D000991F880F991FFC01EC5EF94F6081718187
:1030E00082819381089560932506709326068093CC
:1030F000270690932806089560912506709126066C
:10310000809127069091280608954F925F926F92C2
:103110007F928F929F92AF92BF92CF92DF92EF9267
:10312000FF920F931F93CF93DF93EC018B014880A5
:1031300059806A807B80411451046104710409F450
:1031400043C0FB0180809180A280B38081149104F0
:10315000A104B104C9F1C301B201A501940162D671
:103160006B017C01672B682B692B19F40FC06B0175
:103170007C01C501B401A701960154D6460157014F
:10318000611571058105910591F702C07501640112
:10319000F2E0CF16D104E104F104B0F0C301B201B2
:1031A000A70196013FD6288339834A835B83F801C0
:1031B0006081718182819381A701960133D6F801E4
:1031C0002083318342835383DF91CF911F910F91ED
:1031D000FF90EF90DF90CF90BF90AF909F908F9037
:1031E0007F906F905F904F9008954F925F926F9293
:1031F0007F928F929F92AF92BF92CF92DF92EF9287
:10320000FF920F931F93CF93DF93CDB7DEB728972D
:103210000FB6F894DEBF0FBECDBF8A01C0902E015D
:10322000D0902F01E0903001F0903101A70196017C
:10323000F9D549015A0169837A838B839C83CD82B6
:10324000DE82EF82F886BE016B5F7F4FCE01019672
:103250005CDFC980DA80EB80FC80CC0CDD1CEE1CCE
:10326000FF1CCC0CDD1CEE1CFF1CCC0CDD1CEE1C72
:10327000FF1CCC0CDD1CEE1CFF1CCC0CDD1CEE1C62
:10328000FF1CCC0CDD1CEE1CFF1CCC0CDD1CEE1C52
:10329000FF1C4D805E806F807884C701B601A3015A
:1032A0009201C0D5CA01B901880C991CAA1CBB1C8B
:1032B000880C991CAA1CBB1C880C991CAA1CBB1C42
:1032C000880C991CAA1CBB1C880C991CAA1CBB1C32
:1032D000880C991CAA1CBB1C880C991CAA1CBB1C22
:1032E000325041095109820E931EA41EB51EF801E9
:1032F00080829182A282B382A301920184D5C61AF0
:10330000D70AE80AF90AC482D582E682F7824086A3
:1033100051866286738680E028960FB6F894DEBFE9
:103320000FBECDBFDF91CF911F910F91FF90EF9016
:10333000DF90CF90BF90AF909F908F907F906F90D5
:103340005F904F9008953F924F925F926F927F925D
:103350008F929F92AF92BF92CF92DF92EF92FF92A5
:103360000F931F93CF93DF934B015C01EA0181E040
:10337000F9018083F0E88F16F1ED9F06F0EFAF06BC
:10338000F8E0BF0640F1C501B401660F771F881F42
:10339000991F660F771F881F991FC12CD12C7601AA
:1033A0006894C2F83BC0A32DB0E0A501940187D575
:1033B000A3019201261B370B480B590BCA01B90117
:1033C00033943394611536E4730733EC830733E2A7
:1033D0009307F0F010C06894332431F860E079EE80
:1033E00084EA95E30F2E412CF9EE5F2EF4EA6F2E5E
:1033F000F5E37F2EF02DA501940114D569017A0122
:1034000044E0C416D104E104F10408F042C0CBCF7B
:1034100060E070E0CB01C12CD12C760121E054E0BA
:10342000C516D104E104F10409F020E0F80120837D
:10343000CC0CDD1CEE1CFF1CCC0CDD1CEE1CFF1CA0
:10344000CC0CDD1CEE1CFF1CCC0CDD1CEE1CFF1C90
:10345000CC0CDD1CEE1CFF1CCC0CDD1CEE1CFF1C80
:10346000CC0CDD1CEE1CFF1CF2E0DF1AE108F108B9
:10347000C882D982EA82FB821C821D821E821F8240
:1034800001E010E020E030E0088719872A873B87B9
:1034900006C0A5019401C701B601B5D4BFCFDF9125
:1034A000CF911F910F91FF90EF90DF90CF90BF9041
:1034B000AF909F908F907F906F905F904F903F90D4
:1034C00008952F923F924F925F926F927F928F92C8
:1034D0009F92AF92BF92CF92DF92EF92FF920F93A3
:1034E0001F93CF93DF93CDB7DEB762970FB6F894F3
:1034F000DEBF0FBECDBF6B017C011A013E872D8759
:103500008091210690912206A0912306B091240675
:1035100089879A87AB87BC87BC01CD01A70196013B
:1035200081D449015A012F87388B498B5A8B698383
:103530007A838B839C83CD82DE82EF82F886BE0104
:103540006B5F7F4FCE010196E0DD4D805E806F8026
:103550007884C980DA80EB80FC80A5019401C301E6
:10356000B20151D49B01AC012C0D3D1D4E1D5F1DC0
:1035700069857A858B859C8555D4CA01B901A301DB
:10358000920141D469877A878B879C87C114D104C3
:10359000E104F10409F085C080FE75C082C081E0BD
:1035A000D8018C93F101108211821282138214824D
:1035B00015821682178281E090E0A0E0B0E080875B
:1035C0009187A287B38771C0D8011C92CC0CDD1CF7
:1035D000EE1CFF1CCC0CDD1CEE1CFF1CCC0CDD1CFF
:1035E000EE1CFF1CCC0CDD1CEE1CFF1CCC0CDD1CEF
:1035F000EE1CFF1CCC0CDD1CEE1CFF1CCC0CDD1CDF
:10360000EE1CFF1CC701B601A30192010BD4CA0135
:10361000B901880C991CAA1CBB1C880C991CAA1CFB
:10362000BB1C880C991CAA1CBB1C880C991CAA1CCE
:10363000BB1C880C991CAA1CBB1C880C991CAA1CBE
:10364000BB1C880C991CAA1CBB1C89019A01125036
:1036500021093109800E911EA21EB31EF101808244
:103660009182A282B382A3019201CDD3C61AD70A56
:10367000E80AF90AC482D582E682F782408651863A
:103680006286738612C081E0AD85BE858C938F857E
:103690009889A989BA890497A105B10509F094CF41
:1036A0007ECFAD85BE851C928FCF69857A858B854F
:1036B0009C8562960FB6F894DEBF0FBECDBFDF913A
:1036C000CF911F910F91FF90EF90DF90CF90BF901F
:1036D000AF909F908F907F906F905F904F903F90B2
:1036E0002F900895262F682F80ECE5CB0895EF9258
:1036F000FF920F931F93CF93DF93CDB7DEB76697FB
:103700000FB6F894DEBF0FBECDBF7A01009125063B
:10371000109126062091270630912806AE014F5FB2
:103720005F4F63DD8A858D8789858E878B81837066
:103730008F878A81888B8981898B9B858F818F7008
:1037400020E1929F800D11248A8B8E818B8B8D813D
:103750008C8BEA94EF2839F4AE01435F5F4F68E049
:103760008AE1C0DF06C0AE01435F5F4F68E082E2DE
:10377000B9DF66960FB6F894DEBF0FBECDBFDF91FE
:10378000CF911F910F91FF90EF90089560932106C4
:1037900070932206809323069093240642E050E023
:1037A000A6CF0895CF93DF931F92CDB7DEB769837D
:1037B00021E0AE014F5F5F4F682F80EC7CDB0F9004
:1037C000DF91CF910895CF93C82F80FF03C060E2AF
:1037D00081EBE8DFC1FF03C060E881EBE3DFCF915D
:1037E0000895AB0121E0682F80ECAACB0895CF9219
:1037F000DF92EF92FF921F93CF93DF931F92CDB78B
:10380000DEB7182F6A017B01DFDA109221061092D1
:103810002206109223061092240680E498E7ADE772
:10382000B1E080932E0190932F01A0933001B093CB
:103830003101109220066FEF83E0B4DF6CEC80E181
:10384000B1DF6CEC81E1AEDF6CEC82E1ABDF612FCC
:103850006261698387EBA6DFC114D104E104F1043E
:1038600051F40F2EF0E4CF2EF8E7DF2EFDE7EF2E18
:10387000FF24F394F02D80912E0190912F01A091BF
:103880003001B0913101C816D906EA06FB06A1F055
:10389000BE016F5F7F4F8FE0A4DF81110DC0698192
:1038A0006F736983C0922E01D0922F01E092300194
:1038B000F09231018FE076DF0F90DF91CF911F9171
:1038C000FF90EF90DF90CF9008950F931F93CF93C9
:1038D000DF931F92CDB7DEB7182F062FBE016F5FA3
:1038E0007F4F83E07EDF81111BC0002361F081E008
:1038F00090E002C0880F991F1A95E2F78095998190
:10390000892389830AC081E090E002C0880F991F53
:103910001A95E2F79981892B8983698183E042DFD7
:103920000F90DF91CF911F910F910895EF92FF9229
:103930001F93CF93DF931F92CDB7DEB77B0110E1CA
:10394000180FBE016F5F7F4F812F4BDF811122C0A7
:1039500081E0E816F10471F048F082E0E816F10425
:1039600071F083E0E816F10479F011C089818C7F51
:1039700089830DC089818C7F8160898308C089819A
:103980008C7F8260898303C0898183608983698198
:10399000812F08DF0F90DF91CF911F91FF90EF9063
:1039A0000895EF92FF921F93CF93DF931F92CDB7AD
:1039B000DEB77B0110E1180FBE016F5F7F4F812FD3
:1039C00010DF811112C081E0E816F10421F4898131
:1039D0008F7D898307C082E0E816F10419F489819C
:1039E000806289836981812FDDDE0F90DF91CF9125
:1039F0001F91FF90EF9008950F931F93CF93DF9344
:103A00001F92CDB7DEB7062F10E1180FBE016F5F12
:103A10007F4F812FE6DE81110CC0002321F08981C8
:103A20008064898303C089818F7B89836981812F29
:103A3000B9DE0F90DF91CF911F910F910895FF9202
:103A40000F931F93CF93DF931F92CDB7DEB78130D3
:103A5000910521F068F0029731F028C00F2EF4E3B1
:103A6000FF2EF02D09C00F2EFCE3FF2EF02D04C019
:103A70000F2EFCE2FF2EF02D042F162FBE016F5FDC
:103A80007F4F8F2DAEDE811111C0898183780111A6
:103A900002C0898302C08C60898380E1189FB001D5
:103AA00011248981682B69838F2D7CDE0F90DF9133
:103AB000CF911F910F91FF9008956F927F928F92F7
:103AC000AF92CF92DF92EF92FF920F931F93CF931B
:103AD000DF93CDB7DEB767970FB6F894DEBF0FBEA2
:103AE000CDBF3C01CC86DD86EE86088B198B2A8BF8
:103AF0006E8B59834A83880F880F880FBE01655FDC
:103B00007F4F845D6EDE81113CC08B858C7F8B87FF
:103B10009E859370892B8B838D858C838C858D837B
:103B20009E898A898F7020E1929F800D11248E8357
:103B300089898F838889888781E06816710469F094
:103B400028F082E06816710479F014C0AE014F5F6E
:103B50005F4F68E08AE2C6DD0DC0AE014F5F5F4F88
:103B600068E082E3BFDD06C0AE014F5F5F4F68E0F3
:103B70008AE3B8DD6A2DC3013FDF4EA1682DC30182
:103B80005EDF67960FB6F894DEBF0FBECDBFDF9144
:103B9000CF911F910F91FF90EF90DF90CF90AF905A
:103BA0008F907F906F9008952F923F924F925F92E7
:103BB0006F927F928F92AF92BF92CF92DF92EF92ED
:103BC000FF920F931F93CF93DF93CDB7DEB760972C
:103BD0000FB6F894DEBF0FBECDBF6B017C013A017A
:103BE0001D861E8680E4C81682E4D8068FE0E806AB
:103BF000F10460F0C701B60124E630E040E050E097
:103C000011D1A4E6B0E05BD16B017C0191E06916B3
:103C10007104D9F028F092E06916710461F1C8C00E
:103C200080912006816080932006C0921406D09275
:103C30001506E0921606F09217066894BB24B4F8B5
:103C400081E090E0988B8F8730C0609120066260A1
:103C50006093200660956A6F83E0A4DDC092180629
:103C6000D0921906E0921A06F0921B060F2EF1E18F
:103C7000BF2EF02DA1C060912006646060932006E5
:103C800060956C6F83E08EDDC0921C06D0921D069D
:103C9000E0921E06F0921F060F2EF2E1BF2EF02DCD
:103CA0008BC082E090E0988B8F878E01025F1F4F60
:103CB0009E01235F3F4FAE014F5F5F4FC701B601CB
:103CC00042DB1B012C016F857889C3016ADE8E857A
:103CD0008F93812CAD84C980DA80EB80FC800D81CC
:103CE0001E812F81388549855A856B857C85C30166
:103CF000E4DE0F90211431044104510491F12CC0F1
:103D00008E01025F1F4F9E01235F3F4FAE014F5F49
:103D10005F4FC701B601D5DB62E070E0C30141DE51
:103D20008E858F93812CAD84C980DA80EB80FC80F6
:103D30000D811E812F81388549855A856B857C854B
:103D4000C301BBDE60912006609583E02BDD0F9000
:103D5000212C312C210113C04F855889C201B1019A
:103D6000C6DC60912006609583E01CDD8F85988914
:103D7000019729F46CE48B2D15DD80E02BC08D8537
:103D8000882321F06CE68B2D0DDD03C06CE28B2DBA
:103D900009DD211431044104510461F0209221060F
:103DA00030922206409223065092240680E012C0F0
:103DB00081E010C080E00EC0809121069091220623
:103DC000A0912306B0912406892B8A2B8B2B09F412
:103DD00068CF96CF60960FB6F894DEBF0FBECDBF0A
:103DE000DF91CF911F910F91FF90EF90DF90CF90D7
:103DF000BF90AF908F907F906F905F904F903F906B
:103E00002F9008950895DB018F939F9358D0BF9111
:103E1000AF91A29F800D911DA39F900DB29F900D19
:103E200011240895A1E21A2EAA1BBB1BFD010DC08F
:103E3000AA1FBB1FEE1FFF1FA217B307E407F5075A
:103E400020F0A21BB30BE40BF50B661F771F881F36
:103E5000991F1A9469F760957095809590959B01CC
:103E6000AC01BD01CF010895052E97FB16F4009417
:103E70000FD057FD05D0D6DF07FC02D046F408C0AE
:103E800050954095309521953F4F4F4F5F4F089586
:103E900090958095709561957F4F8F4F9F4F0895B6
:103EA000A29FB001B39FC001A39F700D811D11247B
:103EB000911DB29F700D811D1124911D0895F0DF99
:103EC000A59F900DB49F900DA49F800D911D11246E
:103ED0000895FC0188279927E89421912032E9F37D
:103EE000293010F02E30C8F32B3239F02D3231F456
:103EF000689403C055D0820F911D219120532A3020
:103F0000C8F31EF4909581959F4F08951F93FC016F
:103F100099278827BC01E89411911032E9F31930F0
:103F200010F01E30C8F31B3249F01D3241F4689482
:103F300005C021D0610F711D811D911D119110537C
:103F40001A30B8F33EF490958095709561957F4F47
:103F50008F4F9F4F1F9108959111089581568A5157
:103F600008F4805285580895FB01DC0101900D9200
:103F70000020E1F70895592F482F372F262F660F7D
:103F8000771F881F991F660F771F881F991F620F61
:103F9000731F841F951F660F771F881F991F089531
:103FA0007AE0979F902D879F802D910D1124089581
:103FB000AEE0B0E0EDEDFFE1DDC20D891E8986E0E7
:103FC0008C831A8309838FEF9FE79E838D83AE01D5
:103FD000475E5F4F6F89788DCE01019608D0EF81E3
:103FE000F885E00FF11F10822E96E4E0DFC2ABE00F
:103FF000B0E0ECEFFFE1B0C26C017B018A01FC0193
:1040000017821682838181FFBFC1CE0101963C01D8
:10401000F6019381F70193FD859193FF81917F01D3
:10402000882309F4ADC1853239F493FD859193FF5E
:1040300081917F01853221F4B60190E0C0D1E8CFB3
:10404000912C212C312CFFE1F315D8F08B3279F033
:1040500038F4803279F08332A1F4232D20611DC021
:104060008D3261F0803369F4232D216016C0832DD9
:104070008260382EE32DE4603E2E2AC0F32DF860D6
:104080001DC037FC2DC020ED280F2A3040F08E32A5
:10409000B9F436FC75C1232D2064322E19C036FECA
:1040A00006C08AE0989E200D1124922E11C0EAE0ED
:1040B0002E9E200D1124222EF32DF0623F2E08C0DB
:1040C0008C3621F4832D8068382E02C0883641F466
:1040D000F70193FD859193FF81917F018111B3CF0A
:1040E000982F9F7D9554933028F40C5F1F4F9FE3CA
:1040F00099830DC0833631F0833771F0833509F031
:1041000055C020C0F801808189830E5F1F4F88242D
:104110008394912C530112C02801F2E04F0E511CE0
:10412000F801A080B18036FE03C0692D70E002C0A6
:104130006FEF7FEFC50138D14C018201F32DFF777E
:104140003F2E15C0280122E0420E511CF801A0802C
:10415000B18036FE03C0692D70E002C06FEF7FEFC3
:10416000C50117D14C01F32DF0683F2E820133FCBD
:1041700019C0822D90E088169906A0F4B60180E25D
:1041800090E01DD12A94F5CFF50137FC859137FEDB
:1041900081915F01B60190E012D121102A9421E0B3
:1041A000821A91088114910479F7E1C0843611F0E4
:1041B000893639F5F80137FE07C060817181828147
:1041C00093810C5F1F4F08C060817181072E000C26
:1041D000880B990B0E5F1F4FF32DFF763F2E97FF35
:1041E00009C090958095709561957F4F8F4F9F4F37
:1041F000F0683F2E2AE030E0A3011DD1882E8618FA
:1042000044C0853731F4232D2F7EB22E2AE030E0D2
:1042100025C0932D997FB92E8F36C1F018F48835BB
:1042200079F0AEC0803719F0883721F0A9C0E92FA6
:10423000E061BE2EB4FE0DC0FB2DF460BF2E09C0A0
:1042400034FE0AC0292F2660B22E06C028E030E0D6
:1042500005C020E130E002C020E132E0F801B7FE05
:1042600007C060817181828193810C5F1F4F06C0FE
:104270006081718180E090E00E5F1F4FA301DBD071
:10428000882E8618FB2DFF773F2E36FE0DC0232D7E
:104290002E7FA22E891458F434FE0BC032FC09C0C4
:1042A000832D8E7EA82E05C0B82CA32C03C0B82C5D
:1042B00001C0B92CA4FE0FC0FE01E80DF11D8081E4
:1042C000803321F49A2D997EA92E09C0A2FE06C042
:1042D000B394B39404C08A2D867809F0B394A3FCF8
:1042E00010C0A0FE06C0B21480F4280C922C9B18BB
:1042F0000DC0B21458F4B60180E290E060D0B394DF
:10430000F8CFB21418F42B1802C0982C212CA4FE5C
:104310000FC0B60180E390E052D0A2FE16C0A1FC0F
:1043200003C088E790E002C088E590E0B6010CC0C9
:104330008A2D867851F0A1FE02C08BE201C080E296
:10434000A7FC8DE2B60190E03AD0891430F4B601B2
:1043500080E390E034D09A94F8CF8A94F301E80D8A
:10436000F11D8081B60190E02AD08110F6CF222085
:1043700009F44ECEB60180E290E021D02A94F7CF26
:10438000F6018681978102C08FEF9FEF2B96E2E1C5
:10439000FFC0FC010590615070400110D8F7809576
:1043A00090958E0F9F1F0895FC0161507040019001
:1043B0000110D8F7809590958E0F9F1F08950F9349
:1043C0001F93CF93DF93FB01238121FD03C08FEF68
:1043D0009FEF2CC022FF16C0468157812481358172
:1043E0004217530744F4A081B1819D012F5F3F4FD5
:1043F000318320838C93268137812F5F3F4F378312
:10440000268314C08B01EC01FB010084F185E02DB3
:104410000995892BE1F6D80116968D919C911797F5
:10442000019617969C938E931697CE01DF91CF91AC
:104430001F910F910895FA01AA27283051F12031D8
:1044400081F1E8946F936E7F6E5F7F4F8F4F9F4F28
:10445000AF4FB1E03ED0B4E03CD0670F781F891F6A
:104460009A1FA11D680F791F8A1F911DA11D6A0F38
:10447000711D811D911DA11D20D009F468943F91EB
:104480002AE0269F11243019305D3193DEF6CF01EA
:104490000895462F4770405D4193B3E00FD0C9F7B0
:1044A000F6CF462F4F70405D4A3318F0495D31FD1D
:1044B0004052419302D0A9F7EACFB4E0A695979570
:1044C000879577956795BA95C9F700976105710546
:1044D00008959B01AC010A2E069457954795379590
:1044E0002795BA95C9F7620F731F841F951FA01DEA
:1044F0000895F999FECF92BD81BDF89A992780B5AC
:104500000895A6E1B0E044E050E018C0262FF999E4
:10451000FECF1FBA92BD81BD20BD0FB6F894FA9AA6
:10452000F99A0FBE01960895242FF1DF252FEFDFB2
:1045300000C0ECDF272FEBCFDC01CB01FC01F999A8
:10454000FECF06C0F2BDE1BDF89A319600B40D92DF
:1045500041505040B8F708952F923F924F925F928A
:104560006F927F928F929F92AF92BF92CF92DF9283
:10457000EF92FF920F931F93CF93DF93CDB7DEB7E8
:10458000CA1BDB0B0FB6F894DEBF0FBECDBF09947C
:104590002A88398848885F846E847D848C849B84D3
:1045A000AA84B984C884DF80EE80FD800C811B81E1
:1045B000AA81B981CE0FD11D0FB6F894DEBF0FBE10
:0A45C000CDBFED010895F894FFCF80
:1045CA000A000000000000000AFF0AFFFF0BFFFFBD
:1045DA00282364008813E803E803640064020002E5
:1045EA0000E044A300302B36003029AD08014078A2
:1045FA007D01000000000000000000000000000033
:10460A0000000A436F6D6D616E64733A0A00000020
:10461A000000000000000000000000000000000090
:10462A00000000000000000000003E202042202080
:10463A002020202020202020202020202020202D63
:10464A0020426174746572790A000000000000005B
:10465A0000003E2020424E44205B327C38305D20F0
:10466A00202020202020202D2052782042616E64B4
:10467A000A0000000000000000003E2020465245CB
:10468A00205B487A5D202020202020202020202D19
:10469A0020527820467265710A000000000000006E
:1046AA0000003E2020465245204D3C313A353E20FE
:1046BA005B487A5D2020202D205278204D656D0AB6
:1046CA00000000000000000000003E2020532020CF
:1046DA002020202020202020202020202020202DC3
:1046EA0020525353490A0000000000000000000055
:1046FA0000003E202054494D205B68683A6D6D3AAF
:10470A0073735D202020202D205254432054696D5C
:10471A00650A00000000000000003E2020564F4CB1
:10472A00203C4D3A543E205B302D3130305D202DF7
:10473A00204D61696E2F546F6E6520566F6C0A00AA
:10474A0000003E20203F2020202020202020202062
:10475A00202020202020202D20496E666F0A00008C
:10476A00000000000000000000002A2A2A20574406
:10477A005420526573657421202A2A2A0A00524459
:10478A00503E20000A00F401F4010300E803E803A4
:10479A006400030607302E372E3800415244462063
:1047AA004475616C2D42616E642052656365697659
:1047BA006572000A2A2A2A202573205665722E203D
:1047CA002573202A2A2A00506F776572206F666641
:1047DA0020696E202564207365630A003E202573D4
:1047EA003D25642573004D004D25640025396C6410
:1047FA00003E204652453D257320284D454D29252A
:10480A0073003E204652453D2573257300256346B5
:10481A0052452C25732C2573256300256C64003EB4
:10482A002054494D453D2573257300256354494D50
:10483A002C25732563002563564F4C2C25732C2594
:10484A0073256300326D0038306D003E20424E44BD
:10485A003D25732573002563424E442C2573256339
:10486A000025634243522C2573256300256349447E
:10487A002C25732C25733B002E2E2E2E2E003E2027
:10488A004241543D257325730021422C25733B0078
:10489A003E20525353493D257325730021532C253D
:1048AA00733B003E2052463D257325730021522C4E
:1048BA0025733B003E20543D257325730021542C5B
:1048CA0025733B004D41494E20564F4C00544F4EE4
:1048DA004520564F4C000A0A003E256C646D00259F
:0A48EA006C642E25316C6468000038
:00000001FF
