S0110000466C6578466F7838302E73726563EF
S11300000C94BD010C94E7010C94E7010C94E701F6
S11300100C94E7010C94E7010C9456100C94E7013E
S11300200C94E7010C94E7010C94E7010C94E701AC
S11300300C94D7140C947E690C94E7010C94E7019A
S11300400C94E7010C94E7010C94E7010C942E083E
S11300500C94360B0C94E7010C947B140C94E7017C
S11300600C9425330C94E7010C94E7010C94E701FC
S11300700C94E7010C9421160C94F8070C94C00C12
S11300800C94650E0C94E7010C94E7010C94E701C1
S11300900C94E7010C94E7010C94E7010C94E7013C
S11300A00C94E7010C940B4D0C94E7010C94E701BC
S11300B00C94E7010C94E7010C94E7010C94E7011C
S11300C00C94E7010C94E7010C94E7010C94E7010C
S11300D00C94E7010C94E7010C94E7010C9472086A
S11300E00C94FB0B0C94E701052B192B2F2B452BA0
S11300F05B2BA12C962C962BA62BB82BCA2BDC2B76
S1130100162C262C382C4A2C5C2C32443F440C44AC
S11301103F443F443F441A443F443F443F44944394
S11301203F443F443F443F443F443F443F443F44B3
S11301303F443F443F443F443F443F443F443F44A3
S11301403F443F443F443F44C4433F443F443F440F
S11301503F443F443F443F443F44F843024428441F
S11301606B433F443F443F4479433F443F443F440F
S11301708743C24ED54EDF4EE94E194F014F314FE2
S11301800B502150DC4FAD4F7B4F494FD95870581D
S1130190BD58E758C458E7588C5869587E58855854
S11301A0E758A8585B58AF58545877580F58165802
S11301B01D5824582B58325838583F5846584D58D3
S11301C093589A58E058A158E7586258CB585D574D
S11301D064576B57725779577F5786578D57935784
S11301E09957A057A757AE57B557BC57C357CA57C7
S11301F0D157D857DE57E557EC57F357FA570158FC
S11302000858E758E758E758E758B658E758E75802
S1130210E758E758E758E758E758E758E758E758E2
S1130220E758E758E758E758E758E758E758E758D2
S1130230E758E758E758E758E758E758E758E758C2
S1130240E758E758D25810711B71267131713C710F
S1130250477152715D71687173717E7189719471A6
S11302609F71AA71B571C071CB714E414E494E490F
S11302705459494E46CDCCCC3D0AD7233C17B7D16F
S11302803877CC2B329595E6241FB14F0A00002015
S1130290410000C84200401C4620BCBE4CCA1B0E94
S11302A05AAEC59D744A616E756172792046656265
S11302B07275617279204D61726368204170726950
S11302C06C204D6179204A756E65204A756C7920E1
S11302D04175677573742053657074656D626572DA
S11302E0204F63746F626572204E6F76656D626530
S11302F07220446563656D626572200053756E6497
S11303006179204D6F6E6461792054756573646101
S113031079205765646E65736461792054687572D9
S113032073646179204672696461792053617475DC
S113033072646179200053756E4D6F6E5475655704
S11303406564546875467269536174004A616E4607
S113035065624D61724170724D61794A756E4A757C
S11303606C4175675365704F63744E6F7644656373
S11303700000DB31A133E831AE3311241FBECFEFCF
S1130380CDBFDFE7DEBF16E4A0E0B0E4E8EFF6EFB0
S113039000E00BBF02C007900D92A83AB107D9F74D
S11303A02AE4A8EAB6E401C01D92AD3CB207E1F725
S11303B011E0CBEBD1E004C02197FE010E94EF7461
S11303C0C93BD107C9F70E94B4160C946F7B0C94F7
S11303D000009C0123703327232B59F464E670E05A
S11303E00E949A74892B39F46370772781E0672B14
S11303F019F080E0089581E0089569EB7AE40E94A1
S1130400040289EB9AE40895CF92DF92EF92FF926F
S11304100F931F93CF93DF9300D000D0CDB7DEB7F7
S11304206C017B01E091C94AF091CA4A309729F0E6
S113043065EC7AE409958C0102C00FEF1FEFF60119
S113044040815181628173818091C54A9091C64AED
S1130450A091C74AB091C84A840F951FA61FB71F21
S1130460101611064CF4A801012E000C660B770B34
S1130470840F951FA61FB71F89839A83AB83BC8300
S1130480B701CE0101960E948C06F70102871387FB
S11304902496CDBFDEBFDF91CF911F910F91FF90C6
S11304A0EF90DF90CF900895623021F40E94E9012B
S11304B0845E0895683008F06F5F61708EE1860F86
S11304C008950FB6F8946093B54A7093B64A809332
S11304D0B74A9093B84A0FBE0895CF92DF92EF9235
S11304E00F936B01E82E7C2D6D2D5E2DAE2DC60174
S11304F00196A11D442351F06C01EA2EE72FF62F3B
S11305000E945C7B603279F74150EDCFF6010E9486
S11305105C7B6C01EA2E80E0603239F4F9011082D0
S11305200F91EF90DF90CF9008958017B9F32F5F6C
S11305303F4FF901319760838F5FF6015E2D0E9472
S11305405C7B9FEFC91AD90AE90AE6CF2F923F9242
S11305504F925F926F927F928F929F92AF92BF92CF
S1130560CF92DF92EF92FF920F931F93CF93DF937B
S1130570CDB7DEB7A297CDBFDEBF2C0169A37AA3A6
S11305804A017901612C712C9E012F5F3F4F690153
S113059084E6282E312C97E4A92E96E4B92E29A1BD
S11305A03AA16216730608F0CDC2D4018C9185324B
S11305B009F0BCC211961C91153431F01F3421F09E
S11305C0B2E08B0E911C06C0F401128194012D5FE0
S11305D03F4F4901193509F432C20CF060C0193497
S11305E009F43FC144F5133409F4E7C054F4113459
S11305F009F4BEC00CF0CAC0153209F074C21983E4
S113060075C2163409F4EAC064F4143409F06BC2F8
S1130610F70186819781B1010E949A749F938F9309
S1130620E7C1173409F4F8C0183409F05CC2D701E3
S113063012968C9130C1143509F489C164F41235D1
S113064009F46EC10CF025C11D3409F04CC2D70168
S113065011968C9120C1163509F4A5C10CF4A1C1E1
S1130660173509F4B4C1183509F03DC2F70180818A
S1130670282F082E000C330B3F938F938181282F52
S1130680082E000C330B3F938F938281282F082E62
S1130690000C330B3F938F938FE896E4C0C11D3653
S11306A009F4F0C0ACF5143609F494C074F41236AD
S11306B009F466C00CF075C0113609F014C203E0E9
S11306C09601D70114964C9157C0173609F4A4C06B
S11306D074F4153609F007C2F7018381282F082E18
S11306E0000C330B3F938F938CE496E4C8C0183608
S11306F009F446C01A3609F0F6C1D70118968D914F
S11307009C91199701969F938F9382E696E4B7C0C4
S1130710153709F435C1B4F4103709F4C2C034F400
S11307201E3609F0E0C18AE08983E0C1123709F47A
S1130730C6C0143709F0D7C168E776E4C6010E9441
S1130740A176D4C1183709F448C15CF4173709F00D
S1130750CAC1F7018481282F082E000C330B3F9364
S113076074C1193709F45EC11A3709F47EC1BBC1DB
S11307700FEF9601F70144816CEF72E080E00DC049
S113078003E09601D70115964C9104C00FEF960132
S1130790F701458165EA72E080E00E946D0290E015
S11307A0A7C1B601C7010E940906F601CF018C1941
S11307B09D0921912111FACF9BC1D70116968D91E4
S11307C09C9117978459984FB1010E949A747F9312
S11307D06F933BC0D70113968C915DC0D7011396DC
S11307E08C911397282F082E000C330B3F938F9373
S11307F015968C911597082E000C990B01969F93D2
S11308008F9316968D919C9117978459984F9F9327
S11308108F9380E596E403C1D70118966D917C917E
S1130820199716968D919C911797AE01455E5F4F6F
S11308308459984F0E946207173651F48B8D9C8D12
S1130840B1010E949A749F938F93E8E5F6E4A6C0E1
S11308508C8D8F938B8D8F934DE556E45F934F93DF
S1130860F9C0F70182816CE00E944E7B992321F04C
S1130870892F990F990BDEC08CE090E0DBC09F9329
S11308808F93E8C0F7018581082E000C990B01961F
S1130890D1C0D7018C91282F082E000C330B3F9325
S11308A0CAC081E48983F70182818C3014F080E529
S11308B089838DE48A831B8282E090E019C1D70189
S11308C012968C916CE00E944E7B992321F0892F23
S11308D0990F990B02C08CE090E0F7012081422F20
S11308E0022E000C550B5F932F932181422F022E71
S11308F0000C550B5F932F939F938F9327E636E459
S11309003F932F93DF92CF920E94DD76CDBFDEBF5F
S1130910F70122812C300CF4EBC020E52B87E8C0D2
S1130920D70111968C911197282F082E000C330BA8
S11309303F938F9312968C91282F082E000C330B23
S11309403F938F938FE796E49F938F93C5C0F701EE
S11309508081282F082E000C330B3F938F938181C5
S1130960282F082E000C330B3F938F938281282F5E
S1130970082E000C330B3F938F938AE796E44FC005
S1130980D70114968C91082E000C990B009711F442
S113099087E090E09F938F93E9E8F6E4FF93EF9369
S11309A059C060E015C0D70118966D917C911997D4
S11309B016968D919C911797AE01455E5F4F8459B1
S11309C0984F0E9462078E8D8F938D8D34C061E0A5
S11309D0C7010E94CE051F922EC0D70116968D9195
S11309E09C911797B1010E949A749F938F93F7017A
S11309F08381282F082E000C330B3F938F9385811E
S1130A00082E000C990B01969F938F932DE336E4E7
S1130A103F932F93DF92CF920E94DD7661C09F9324
S1130A208F93F8CFD70116968D919C911797B101AA
S1130A300E949A749F938F93BF92AF920BC0F70159
S1130A40868197818459984F9F938F932CE836E43D
S1130A503F932F93DF92CF920E94DD760F900F90F9
S1130A600F900F900F900F9043C06091C54A709102
S1130A70C64A8091C74A9091C84A2CE330E040E0CE
S1130A8050E00E94D07489019A01F801D7011A96A6
S1130A908D919C911B976CE370E00E949A741616DA
S1130AA017061CF4FB01E00FF11FCF016CE370E0AB
S1130AB00E949A7497FF03C09195819591099F9321
S1130AC08F93CF016CE370E00E949A747F936F93CD
S1130AD0EEE9F6E4FF93EF93DF92CF920E94DD7686
S1130AE0CDBFDEBF05C08FE389831A8281E090E029
S1130AF09301280F391FA9A1BAA12A173B0798F41B
S1130B00D201F601AF014C195D09481759071CF4CD
S1130B1041914D93F7CF97FF02C080E090E0480EDB
S1130B20591E39013CCDF20110820EC0D2018D93C1
S1130B302D01BFEF6B1A7B0A882331F0EFEF8E1A79
S1130B409E0A2DCDD2011C92C301A296CDBFDEBF59
S1130B50DF91CF911F910F91FF90EF90DF90CF9095
S1130B60BF90AF909F908F907F906F905F904F90C9
S1130B703F902F900895FC010FB6F8946091B54A08
S1130B807091B64A8091B74A9091B84A0FBE309797
S1130B9021F060837183828393830895FC0120850F
S1130BA03185C90107964481841B910947FD9395BA
S1130BB0860F911DE7E0F0E0BF010E949A74A9013D
S1130BC0481B590BCA0157FD06C0BF010E949A7405
S1130BD081E0860F089580E008958F938FB78F93F7
S1130BE0F8948091B54A8F5F8093B54A8091B64A54
S1130BF08F4F8093B64A8091B74A8F4F8093B74AFC
S1130C008091B84A8F4F8093B84A8F918FBF8F914C
S1130C100895CF92DF92EF92FF920F931F93CF9399
S1130C20DF938C01EB01FC018481B82FBB0FB80F5B
S1130C308581782F770F780F9E0140E08B2F840FEA
S1130C4090E0A0E08A5C9C4FAF4FFC015A2F0E94B9
S1130C505C7BF90161939F01872F840F90E0A0E0F2
S1130C60845B9C4FAF4FFC015A2F0E945C7BF901BF
S1130C7063834F5F433011F780E28F838B83BE0120
S1130C80685F7F4FF801838140E2082E000C990BC6
S1130C900E94DC07BE01655F7F4FF80182814AE351
S1130CA0082E000C990B0E94DC07BE01625F7F4F87
S1130CB0F80181814AE3082E000C990B0E94DC079D
S1130CC0BE016F5E7F4FF801808140E2082E000C68
S1130CD0990B0E94DC07F8018681978164E670E035
S1130CE08459984F0E949A746B017C01BE016C5E1A
S1130CF07F4F40E2C6010E94DC07BE016A5E7F4F5F
S1130D0040E0C701DF91CF911F910F91FF90EF90C9
S1130D10DF90CF900C94DC07CF92DF92EF92FF929A
S1130D200F931F93CF93DF93CDB7DEB72897CDBF33
S1130D30DEBF8B01FC01608171818281938120E897
S1130D4031E541E050E00E94AE7469017A012CE380
S1130D5030E040E050E00E94D07429833A834B8312
S1130D605C8389819A81AB81BC81F80160836CE3E7
S1130D7070E00E949A74DC01CB01F801A1838283A4
S1130D80C601069667E070E00E94867484832DEAAB
S1130D903EE840E050E0C701B6010E94D0742983C8
S1130DA03A836D837E838F83988789819A8124E631
S1130DB0289F6001299FD00C11246D817E818F8131
S1130DC0988525EB35E040E050E00E94D0742983FB
S1130DD03A836D837E83E980FA80EE0CFF1CEE0C6F
S1130DE0FF1CEC0CFD1C8D819E81F5E6EF16F104D1
S1130DF010F0019604C024E6E216F10419F021E093
S1130E0030E002C020E030E0A90144595E4F4817A9
S1130E10590768F46DE671E0821B930B0E949A7483
S1130E20DC01CB01E80EF91ECD0120E030E044E600
S1130E30E40EF11CF801E682F78280879187255C35
S1130E403F4F8217930748F46FE170E00E949A7451
S1130E50DC01CB01F801858322C069E970E0821BC3
S1130E60930B0E949A74DC01CB01F82EFF0CFF0C4B
S1130E70F80E6DE370E0CD010E949A74DC01CB01A1
S1130E80E82EEE0C6FE170E0CD010E949A74DC0153
S1130E90CB0122E0280FF20EFE0CF801F582A383A9
S1130EA0F8011286138683818F5F83832896CDBFD2
S1130EB0DEBFDF91CF911F910F91FF90EF90DF90F4
S1130EC0CF900895CF92DF92EF92FF920F931F93EA
S1130ED0CF93DF938C017B01EA01888399830E947D
S1130EE0E901282FA801405D57406DE671E0469F57
S1130EF0C001479F900D569F900D11248E0D9F1D8C
S1130F004115510579F0BA017695679576956795FF
S1130F106F5F7F4F860F971F821B910945365105DE
S1130F2008F00197069667E070E00E9486746C01F1
S1130F30892B19F487E0C82ED12CCC82DD82C7011D
S1130F400B968C199D0967E070E00E949A746533D2
S1130F507105B1F481E0C81AD108EC18FD08822F9C
S1130F6090E084599E4F23E0E20EF11C8E159F05FC
S1130F703CF48881998101968883998361E070E0CB
S1130F806A837B83672B79F401501109C8010E949D
S1130F90E901682F70E064597E4FAE01C8010E94D8
S1130FA06207CC82DD82DF91CF911F910F91FF9078
S1130FB0EF90DF90CF9008951F93CF93DF93EB01D1
S1130FC0142F6AE070E00E949A74605D6883805D0B
S1130FD089831A83DF91CF911F910895CF93DF9373
S1130FE0CDB7DEB70E948B3A0000DF91CF91089510
S1130FF01F920F9200903F000F92112400903B002B
S11310000F922F938F939F93EF93FF93CF93DF933D
S1131010CDB7DEB780E29BE0FC018681882F90E0AB
S11310208170992721E0892B09F420E0222329F0FB
S113103080E29BE021E0FC0126830000DF91CF9158
S1131040FF91EF919F918F912F910F9000923B0010
S11310500F9000923F000F901F9018951F920F92CF
S113106000903F000F92112400903B000F922F93A9
S11310703F934F935F936F937F938F939F93AF931C
S1131080BF93EF93FF93CF93DF931F92CDB7DEB758
S11310900E94116D898380912240882319F48981EB
S11310A00E94040D80912540882319F489810E94AF
S11310B0B60800000F90DF91CF91FF91EF91BF919F
S11310C0AF919F918F917F916F915F914F913F91DC
S11310D02F910F9000923B000F9000923F000F90D1
S11310E01F9018951F920F9200903F000F921124A9
S11310F000903B000F922F933F934F935F936F9316
S11311007F938F939F93AF93BF93EF93FF93CF936B
S1131110DF931F92CDB7DEB70E94246E898380913E
S11311202240843019F489810E94040D8091254065
S1131130843019F489810E94B60800000F90DF9171
S1131140CF91FF91EF91BF91AF919F918F917F913B
S11311506F915F914F913F912F910F9000923B00BF
S11311600F9000923F000F901F901895CF93DF933C
S1131170CDB7DEB72A97CDBFDEBF8A878091A84658
S11311809091A946892B31F40E94875B8093A846ED
S11311909093A9468091A8469091A946892B09F479
S11311A05EC28A85882F90E00E947C768A8780912F
S11311B0AA46882339F01A868091AA4681508093E2
S11311C0AA464DC28A858B3191F41A868091AB462A
S11311D0843148F48091AB46882F90E08455994B34
S11311E0FC0180818A8782E08093AA4638C28A857E
S11311F08D3009F060C08091DE46882309F441C037
S11312008091AB468823D1F18091A8469091A9465C
S113121022E0FC0120838091A8469091A946209168
S1131220DF463091E046FC01218332838091E14620
S11312308823E1F04091A8465091A9468091E14667
S1131240882F90E0BC01615071098091E246882F9B
S113125090E0E4E1E69F9001E79F300D1124240F14
S1131260351F820F931F0396FC0110828091AB46B9
S1131270882F90E08455994BFC0110820E94785D80
S113128009C08091A8469091A9462FEF3FEFFC0139
S1131290218332831092AB461092E2461092DF46CD
S11312A01092E0461092E1461092A8461092A94688
S11312B01092DE46D4C18A85882309F4D0C1809176
S11312C0AB46882F90E08455994B2A85FC012083F6
S11312D08091AB46882309F47CC18A858F3709F055
S11312E0A1C08091AB4681508093AB468091E1468A
S11312F0882329F52091DF463091E0468091AB4662
S1131300882F90E08455994BFC018081882F90E0D0
S1131310A901481B590BCA018093DF469093E0460C
S11313208091DF469091E0462AE030E0B9010E94C6
S11313309A74CB018093DF469093E04663C080911A
S1131340E246882311F18091E24681508093E2467F
S11313504091A8465091A9468091E146882F90E09B
S1131360BC01615071098091E246882F90E0E4E16C
S1131370E69F9001E79F300D1124240F351F820F43
S1131380931F0396FC0110823DC08091AB46882FC9
S113139090E08455994BFC0180818032D9F480918E
S11313A0E14681508093E1462091A8463091A946B8
S11313B08091E146482F50E064E1649FC001659F3D
S11313C0900D11240396820F931F0E94A876809398
S11313D0E24618C02091A8463091A9468091E14682
S11313E0482F50E064E1649FC001659F900D112473
S11313F0820F931F0396FC0110828091E146815075
S11314008093E1468091AB46882F90E08455994BB8
S1131410FC0110828091AB46882309F01AC1109216
S1131420DE4617C18A85803209F055C08091AB46EB
S1131430882F90E001978455994BFC01808180327C
S113144039F08091E146882F90E00196039714F0DB
S11314501A86FFC08091E1468823E1F04091A846B6
S11314605091A9468091E146882F90E0BC016150DB
S113147071098091E246882F90E0E4E1E69F9001B3
S1131480E79F300D1124240F351F820F931F0396FD
S1131490FC0110828091E1468F5F8093E1461092B7
S11314A0E2468091AB46882F90E001968A839B8325
S11314B081E390E08C839D832A813B818C819D8193
S11314C0281739071CF48A819B8102C08C819D8175
S11314D08093AB46BEC08091E246853108F077C068
S11314E08091E1468823E1F48091DF469091E046C3
S11314F0880F991F9C01220F331F220F331F280FBF
S1131500391F8A85882F90E0820F931F8093DF46CE
S11315109093E0468091E2468F5F8093E2463DC01F
S11315204091A8465091A9468091E146882F90E0C9
S1131530BC01615071098091E24691E0980F90934B
S1131540E246882F90E0E4E1E69F9001E79F300DAA
S11315501124240F351F820F931F03962A85FC0143
S113156020834091A8465091A9468091E146882F56
S113157090E0BC01615071098091E246882F90E0AF
S1131580E4E1E69F9001E79F300D1124240F351FFD
S1131590820F931F0396FC0110828091AB46882F23
S11315A090E001968E839F8381E390E088879987FA
S11315B02E813F8188859985281739071CF48E81EF
S11315C09F8102C0888599858093AB4642C01A8664
S11315D040C08A858F3769F48091DF469091E04658
S11315E0181619060CF01A861092DF461092E0467F
S11315F030C08A85803211F41A862BC01092E146DD
S11316008A85882F90E08093DF469093E046198284
S113161089818330B0F42091A8463091A94689810C
S1131620482F50E064E1649FC001659F900D112430
S1131630820F931F0396FC01108289818F5F898337
S1131640E7CF81E08093DE468091AB468F5F809345
S1131650AB468A85882319F08A850E94895D00003B
S11316602A96CDBFDEBFDF91CF9108951F920F92CE
S113167000903F000F92112400903B000F922F9393
S11316803F934F935F936F937F938F939F93AF9306
S1131690BF93EF93FF93CF93DF93CDB7DEB78091E2
S11316A02240882309F045C08091E3469091E446A6
S11316B0892B31F40E944E528093E3469093E44682
S11316C02091E3463091E4468091E546882F90E0EE
S11316D0820F931FFC0180818823A9F080E098E0A9
S11316E04091E3465091E4462091E54631E0320FC3
S11316F03093E546222F30E0240F351FF901208175
S1131700FC01228316C01092E5468091E346909135
S1131710E446FC0110820E944E528093E34690936B
S1131720E4468091E3469091E446892B11F40E94AB
S1131730935380912540882309F045C08091E64663
S11317409091E746892B31F40E94F15A8093E64642
S11317509093E7462091E6463091E7468091E8462B
S1131760882F90E0820F931FFC0180818823A9F0C9
S113177080E098E04091E6465091E7462091E846A3
S113178031E0320F3093E846222F30E0240F351F2A
S1131790F9012081FC01228316C01092E846809151
S11317A0E6469091E746FC0110820E94F15A80932C
S11317B0E6469093E7468091E6469091E746892B6A
S11317C011F40E94465C0000DF91CF91FF91EF91EC
S11317D0BF91AF919F918F917F916F915F914F9145
S11317E03F912F910F9000923B000F9000923F0089
S11317F00F901F9018951F920F9200903F000F9228
S1131800112400903B000F922F933F934F935F93CB
S11318106F937F938F939F93AF93BF93EF93FF93B4
S1131820CF93DF93CDB7DEB780912240843009F0A7
S113183045C08091E9469091EA46892B31F40E9493
S11318404E528093E9469093EA462091E9463091BE
S1131850EA468091EB46882F90E0820F931FFC01AB
S113186080818823A9F080E898E04091E94650916E
S1131870EA462091EB4631E0320F3093EB46222FBB
S113188030E0240F351FF9012081FC01228316C0AA
S11318901092EB468091E9469091EA46FC01108251
S11318A00E944E528093E9469093EA468091E9461D
S11318B09091EA46892B11F40E949353809125401C
S11318C0843009F045C08091EC469091ED46892B17
S11318D031F40E94F15A8093EC469093ED462091A6
S11318E0EC463091ED468091EE46882F90E0820FD1
S11318F0931FFC0180818823A9F080E898E040913F
S1131900EC465091ED462091EE4631E0320F309393
S1131910EE46222F30E0240F351FF9012081FC010F
S1131920228316C01092EE468091EC469091ED46CB
S1131930FC0110820E94F15A8093EC469093ED468C
S11319408091EC469091ED46892B11F40E94465CFF
S11319500000DF91CF91FF91EF91BF91AF919F91E3
S11319608F917F916F915F914F913F912F910F9044
S113197000923B000F9000923F000F901F9018952B
S11319801F920F9200903F000F92112400903B0091
S11319900F922F933F934F935F936F937F938F9304
S11319A09F93AF93BF93EF93FF93CF93DF931F92D4
S11319B0CDB7DEB70E949E6D89838091224081302D
S11319C019F489810E94040D80912540813019F415
S11319D089810E94B60800000F90DF91CF91FF919A
S11319E0EF91BF91AF919F918F917F916F915F9193
S11319F04F913F912F910F9000923B000F900092D6
S1131A003F000F901F901895CF93DF931F92CDB78F
S1131A10DEB789838091EF469091F046892B31F4AB
S1131A200E94DC528093EF469093F0468091EF46FB
S1131A309091F046892B09F443C18981882F90E065
S1131A400E947C7689838981843219F0898181326C
S1131A50E9F51092F1468091EF469091F046298184
S1131A60213211F423E001C021E0FC012083109213
S1131A70F2461092F3461092F4461092F5461092F4
S1131A80F64681E08093F7461092F8468091F84636
S1131A908330C8F42091EF463091F0468091F846A7
S1131AA0482F50E065E1649FC001659F900D1124AB
S1131AB0820F931F0396FC0110828091F8468F5F7A
S1131AC08093F846E3CF1092F846E9C08091F74638
S1131AD0882309F4C7C089818C3239F089818B331A
S1131AE021F089818F3309F06BC08091F8468823F7
S1131AF0E1F04091EF465091F0468091F846882FEE
S1131B0090E0BC01615071098091F246882F90E009
S1131B10E5E1E69F9001E79F300D1124240F351F66
S1131B20820F931F0396FC0110828091F8468F5F09
S1131B308093F8461092F24689818B33B1F48091F8
S1131B40F146843078F02091EF463091F046809150
S1131B50F3469091F446A091F546B091F646F9010A
S1131B60818392831092F7461FC089818F33E1F4F9
S1131B708091EF469091F04622E0FC012083809111
S1131B80F146833078F02091EF463091F046809111
S1131B90F3469091F446A091F546B091F646F901CA
S1131BA0818392831092F7469091F74681E08927CA
S1131BB0882309F474C01092EF461092F0466FC067
S1131BC08091F846882361F58091F3469091F4461C
S1131BD0A091F546B091F646880F991FAA1FBB1F26
S1131BE09C01AD01220F331F441F551F220F331FC9
S1131BF0441F551F280F391F4A1F5B1F8981882FD7
S1131C0090E0A0E0B0E0820F931FA41FB51F809363
S1131C10F3469093F446A093F546B093F6463FC03E
S1131C204091EF465091F0468091F846882F90E01D
S1131C30BC01615071098091F24691E0980F909334
S1131C40F246882F90E0E5E1E69F9001E79F300D92
S1131C501124240F351F820F931F03962981FC0141
S1131C6020831DC089818D30D1F48091EF469091FD
S1131C70F046FC011182128282E38093F1461092B5
S1131C80F2461092F3461092F4461092F5461092E2
S1131C90F6461092F8461092EF461092F046809164
S1131CA0F1468F5F8093F1469091F14681E0923343
S1131CB008F480E0882321F01092F7461092F14650
S1131CC000000F90DF91CF9108951F920F92009022
S1131CD03F000F92112400903B000F922F933F93EB
S1131CE04F935F936F937F938F939F93AF93BF9320
S1131CF0EF93FF93CF93DF93CDB7DEB78091254069
S1131D00813009F045C08091F9469091FA46892BBB
S1131D1031F40E94F15A8093F9469093FA46209147
S1131D20F9463091FA468091FB46882F90E0820F65
S1131D30931FFC0180818823A9F080E298E0409100
S1131D40F9465091FA462091FB4631E0320F309328
S1131D50FB46222F30E0240F351FF9012081FC01BE
S1131D60228316C01092FB468091F9469091FA4660
S1131D70FC0110820E94F15A8093F9469093FA462E
S1131D808091F9469091FA46892B11F40E94465CA1
S1131D9080912240813009F045C08091FC469091A9
S1131DA0FD46892B31F40E944E528093FC46909359
S1131DB0FD462091FC463091FD468091FE46882FD9
S1131DC090E0820F931FFC0180818823A9F080E2B8
S1131DD098E04091FC465091FD462091FE4631E04A
S1131DE0320F3093FE46222F30E0240F351FF901C5
S1131DF02081FC01228316C01092FE468091FC468D
S1131E009091FD46FC0110820E944E528093FC4644
S1131E109093FD468091FC469091FD46892B11F4E8
S1131E200E9493530000DF91CF91FF91EF91BF91F6
S1131E30AF919F918F917F916F915F914F913F915E
S1131E402F910F9000923B000F9000923F000F9053
S1131E501F901895CF93DF9300D0CDB7DEB7898359
S1131E606A838A818823A9F020E030E080E090E052
S1131E70FC018181682F8981482F50E081E090E046
S1131E8002C0880F991F4A95E2F7862BF9018183D6
S1131E9015C020E030E080E090E0FC018181682FF3
S1131EA08981482F50E081E090E002C0880F991F9B
S1131EB04A95E2F780958623F901818300000F900B
S1131EC00F90DF91CF910895CF93DF9300D0CDB7DA
S1131ED0DEB789836A838A818823A9F084E090E04D
S1131EE024E030E0F9012181622F2981422F50E062
S1131EF021E030E002C0220F331F4A95E2F7262B7F
S1131F00FC01218315C084E090E024E030E0F90175
S1131F102181622F2981422F50E021E030E002C06C
S1131F20220F331F4A95E2F720952623FC012183D3
S1131F3000000F900F90DF91CF910895CF93DF931E
S1131F4000D000D0CDB7DEB78B836C838B81882F14
S1131F5090E0805B9B4F89839A838C81813059F414
S1131F6089819A81FC018081282F286089819A8146
S1131F70FC0120830DC08C81882351F489819A81CE
S1131F80FC018081282F277F89819A81FC0120838D
S1131F9000002496CDBFDEBFDF91CF910895CF938B
S1131FA0DF9300D0CDB7DEB789836A838A81882323
S1131FB0A9F088E090E028E030E0F9012181622F67
S1131FC02981422F50E021E030E002C0220F331F6C
S1131FD04A95E2F7262BFC01218315C088E090E0A6
S1131FE028E030E0F9012181622F2981422F50E05D
S1131FF021E030E002C0220F331F4A95E2F720951A
S11320002623FC01218300000F900F90DF91CF91D4
S11320100895CF93DF931F92CDB7DEB7898388E00D
S113202090E0FC018281882F90E02981222F30E00A
S113203002C0959587952A95E2F78170992721E04A
S1132040892B09F420E0822F0F90DF91CF9108951E
S1132050CF93DF931F92CDB7DEB789838CE090E0F6
S1132060FC018281882F90E02981222F30E002C078
S1132070959587952A95E2F78170992721E0892B18
S113208009F420E0822F0F90DF91CF910895CF9330
S1132090DF931F92CDB7DEB78983698186E00E9402
S11320A0CF0F00000F90DF91CF9108951F920F92F0
S11320B000903F000F92112400903B000F92EF928A
S11320C0FF920F931F932F933F934F935F936F93BD
S11320D07F938F939F93AF93BF93EF93FF93CF938C
S11320E0DF93CDB7DEB72F97CDBFDEBF80E094E09E
S11320F0FC018185882F90E08470992721E0892B49
S113210009F420E0222309F4D2C30E94ED05809152
S11321107F47882309F43EC080918047909181478E
S1132120A0918247B091834721E0892B8A2B8B2B86
S113213009F420E0222399F080918047909181470F
S1132140A0918247B09183470197A109B109809377
S1132150804790938147A0938247B09383478091AF
S1132160804790918147A0918247B0918347892B02
S11321708A2B8B2B21F080910640882311F081E07B
S113218001C080E0882309F492C310927E47109224
S11321907F478DC319861A861B861C86809113403F
S11321A09091144021E0892B09F420E0222349F086
S11321B08091134090911440019780931340909321
S11321C0144080917B47882309F45CC08091764752
S11321D090917747A0917847B0917947892B8A2BC2
S11321E08B2B71F090917C4781E08927882341F003
S11321F09091424781E08927882311F081E001C052
S113220080E0882309F43EC0CE0109960E94BB05F4
S113221029853A854B855C858091764790917747EF
S1132220A0917847B091794761E0281739074A07A8
S11322305B0708F460E0662329F18CEF8093324752
S113224010923A4710923B4710923C4710923D47F8
S113225080E00E94456A10927A4710927B4781E0A1
S113226080937C478AE590E08093134090931440D8
S113227080910A40882319F08CE38093094080E020
S11322800E94471080917A47882309F492C2809172
S11322907B47882309F4F0C180913E4790913F47E2
S11322A021E0892B09F420E0222349F080913E4764
S11322B090913F47019780933E4790933F47809189
S11322C03A4790913B47A0913C47B0913D4721E06C
S11322D0892B8A2B8B2B09F420E0222309F469C271
S11322E080913A4790913B47A0913C47B0913D473C
S11322F021E0181619061A061B060CF020E022230A
S113230009F45EC180913A4790913B47A0913C47C4
S1132310B0913D470197A109B10980933A47909341
S11323203B47A0933C47B0933D4780913E479091F3
S11323303F47892B41F480916E4790916F47892BD9
S113234011F081E001C080E08823A9F180916E47FB
S113235090916F479C0140E050E080913A47909102
S11323603B47A0913C47B0913D4761E028173907AE
S11323704A075B0709F060E06623E9F08FEE80937B
S11323803247809111409091124080933E47909340
S11323903F4780910B400E94B12680930740909361
S11323A008401D86CE010D9640E050E0BC0189E551
S11323B097E40E94985580913A4790913B47A091A9
S11323C03C47B0913D4721E0892B8A2B8B2B09F0A8
S11323D020E0222309F4EDC180910F409091104038
S11323E021E0892B09F420E0222309F4D0C080E005
S11323F00E94456A80910F409091104020913A4785
S113240030913B4740913C4750913D47092E000C89
S1132410AA0BBB0B79018A01E81AF90A0A0B1B0BF8
S1132420D801C70180933A4790933B47A0933C4718
S1132430B0933D4781E08D87CE010D9640E050E09A
S1132440BC0184E497E40E9498558EEF8093324750
S113245080E00E94471019821A821B821C82CE01DE
S113246009960E94BB0529853A854B855C85809138
S1132470764790917747A0917847B091794761E08A
S1132480281739074A075B0708F060E06623B1F0B4
S113249029853A854B855C8580917647909177476D
S11324A0A0917847B0917947BC01CD010E942F6E6D
S11324B0DC01CB0189839A83AB83BC8320910F40D9
S11324C03091104080910D4090910E40820F931FE7
S11324D00F969C01990F440B550B61E089819A81F9
S11324E0AB81BC81281739074A075B070CF060E011
S11324F0662309F45EC180910F409091104040978B
S113250034F080910940882311F481E001C080E017
S1132510882309F44EC180910F40909110400A978E
S1132520092E000CAA0BBB0B809317409093184004
S1132530A0931940B0931A4082E08093434781E00E
S113254080937E471D821E8220913E4730913F47F3
S11325508091174090911840A0911940B0911A4071
S11325608901081B190BC8018F8398872D813E812F
S11325708F819885281739071CF48F81988502C0AC
S11325808D819E8180933E4790933F4712C18091F5
S11325900D4090910E40092E000CAA0BBB0B8093AA
S11325A03A4790933B47A0933C47B0933D47809173
S11325B00C400E94B1268093074090930840F9C0D4
S11325C080913A4790913B47A0913C47B0913D4759
S11325D08827B7FD83959927AA27BB27882309F461
S11325E0E8C080913A4790913B47A0913C47B09115
S11325F03D470196A11DB11D80933A4790933B47F7
S1132600A0933C47B0933D4780913A4790913B4714
S1132610A0913C47B0913D4721E0892B8A2B8B2B1D
S113262009F020E0222309F4C4C08DEF80933247DF
S113263080910D4090910E40092E000CAA0BBB0B0B
S113264080933A4790933B47A0933C47B0933D47D0
S113265080910C400E94B1268093074090930840DB
S113266081E08E87CE010E9640E050E0BC0184E408
S113267097E40E9498559DC080917247909173474A
S1132680A0917447B091754721E0892B8A2B8B2B3D
S113269009F420E0222309F48CC0CE0109960E949B
S11326A0BB0529853A854B855C858091724790915D
S11326B07347A0917447B091754761E028173907B3
S11326C04A075B0708F460E0662309F472C080914E
S11326D070479091714721E0892B09F420E022236F
S11326E071F18EEF809332478091704790917147DA
S11326F0919581959109092E000CAA0BBB0B80932F
S11327003A4790933B47A0933C47B0933D47209171
S113271070473091714780910D4090910E40820F27
S1132720931F9C0180916E4790916F47A901481BAC
S1132730590BCA0180933E4790933F4737C08DEFB2
S11327408093324780910D4090910E40092E000CE9
S1132750AA0BBB0B80933A4790933B47A0933C470B
S1132760B0933D4780910D4090910E409C01809123
S11327706E4790916F47F901E81BF90BCF018093E5
S11327803E4790933F4780910C400E94B12680932E
S113279007409093084081E08F87CE010F9640E078
S11327A050E0BC0184E497E40E94985581E0809352
S11327B07B479091414781E0992309F480E0882385
S11327C091F08091414781508093414790914147D6
S11327D081E0992309F080E0882309F468C080E04F
S11327E00E94AA3764C08091134090911440892BB1
S11327F081F080914247882361F490917C4781E085
S11328008927882341F090917D4781E08927882397
S113281011F081E001C080E0882309F441C0909167
S1132820094081E0992309F480E08823C9F180916B
S113283009408150809309409091094081E0992397
S113284009F080E0882361F181E00E94AA3780E0EA
S11328500E9493371092424790917A4781E08927EA
S1132860882391F084E08093434781E080937E47FE
S11328708FEF9FEFDC018093174090931840A09353
S11328801940B0931A400AC09091434781E09330B5
S113289009F080E0882311F00E94FC2510920A4080
S11328A080910A40882319F081E08093404780E0BA
S11328B094E02FEFFC01218700002F96CDBFDEBFEF
S11328C0DF91CF91FF91EF91BF91AF919F918F9144
S11328D07F916F915F914F913F912F911F910F9134
S11328E0FF90EF900F9000923B000F9000923F00FA
S11328F00F901F9018951F920F9200903F000F9217
S1132900112400903B000F922F933F934F935F93BA
S11329106F937F938F939F93AF93BF93EF93FF93A3
S1132920CF93DF931F92CDB7DEB780E694E0FC012E
S11329308185882F90E08270992721E0892B09F402
S113294020E02223B1F00E9480298983998181E0CB
S11329508927882371F09091374781E0913009F4F9
S113296080E0882331F081E08093374781E08093D1
S1132970064080E694E02FEFFC01218700000F90D1
S1132980DF91CF91FF91EF91BF91AF919F918F9183
S11329907F916F915F914F913F912F910F90009292
S11329A03B000F9000923F000F901F9018951F92CC
S11329B00F9200903F000F92112400903B000F9261
S11329C02F933F934F935F936F937F938F939F9333
S11329D0AF93BF93EF93FF93CF93DF9300D0CDB723
S11329E0DEB780E09BE0FC018681882F90E0817057
S11329F0992721E0892B09F420E0222309F402C15C
S1132A0080911D4090911E4021E0892B09F420E023
S1132A10222349F080911D4090911E40019780939C
S1132A201D4090931E4080911F409091204021E0D2
S1132A30892B09F420E0222349F080911F409091D2
S1132A402040019780931F40909320408091354708
S1132A509091364721E0892B09F420E0222349F0A4
S1132A6080913547909136470197809335479093ED
S1132A70364787E00E940910982F81E08927882330
S1132A80A1F080918E4790918F4721E0883E93403A
S1132A9008F020E0222349F080918E4790918F47DF
S1132AA0019680938E4790938F470E94AE25809124
S1132AB07A47882331F080917B47882311F081E0A5
S1132AC001C080E0882309F49DC080913A47909129
S1132AD03B47A0913C47B0913D4721E018161906A9
S1132AE01A061B060CF020E0222309F469C0809129
S1132AF0A0479091A147892B09F451C08091A04728
S1132B009091A14701978093A0479093A14780910A
S1132B10A0479091A147892B09F074C0CE01029679
S1132B20AC01CE010196BC0180E090E00E94985572
S1132B308093A247998181E08927882329F18A819A
S1132B40882311F18DEF8093324780910C400E94CD
S1132B50B126809307409093084081E0898340E048
S1132B6050E0CE010196BC0184E497E40E9498559C
S1132B70CE010296AC01CE010196BC0180E090E04A
S1132B800E9498558093A2478091A2478823D1F14F
S1132B9081E00E94376A81E00E94471033C080912F
S1132BA0A2470E94456A8091A2470E9447108091E3
S1132BB00740909108408093A0479093A14722C07A
S1132BC080913A4790913B47A0913C47B0913D4753
S1132BD021E0892B8A2B8B2B09F020E0222391F012
S1132BE08091A247882371F01092A24780E00E944E
S1132BF0456A80E00E94471080E00E94376A8EEFA9
S1132C008093324780E09BE021E0FC0126830000B2
S1132C100F900F90DF91CF91FF91EF91BF91AF9102
S1132C209F918F917F916F915F914F913F912F91E0
S1132C300F9000923B000F9000923F000F901F9066
S1132C4018951F920F9200903F000F92112400904C
S1132C503B000F922F933F934F935F936F937F9318
S1132C608F939F93AF93BF93EF93FF93CF93DF9390
S1132C70CDB7DEB780E494E0FC018185881F882706
S1132C80881F882309F440C080918E4790918F4714
S1132C9021E00B9708F420E0222391F18091A347CF
S1132CA09091A44701968093A3479093A447809161
S1132CB0A3479091A44781709927892B89F065E0F7
S1132CC080E997E40E94844E61E080E997E40E94E1
S1132CD0844E81E00E94933780E00E94AA3710C09E
S1132CE063E080E997E40E94844E62E080E997E41F
S1132CF00E94844E81E00E94933781E00E94AA37AB
S1132D0010928E4710928F4780E494E02FEFFC01DD
S1132D1021870000DF91CF91FF91EF91BF91AF9197
S1132D209F918F917F916F915F914F913F912F91DF
S1132D300F9000923B000F9000923F000F901F9065
S1132D401895CF93DF93CDB7DEB761E084E00E949E
S1132D50640F61E087E00E942A0F81E0809334478A
S1132D600000DF91CF910895CF93DF9300D0CDB7CA
S1132D70DEB70E94EE0780E00E94471061E084E025
S1132D800E94640F81E00E94933781E00E94AA3779
S1132D9084E6809341470E94A11681E997E40E944A
S1132DA0D14681E997E40E94634581E00E94F531B0
S1132DB00E946729982F81E09C3F09F080E08823D6
S1132DC0E9F4CE0101960E94EC3CDC01CB01809336
S1132DD09B4790939C47A0939D47B0939E478981BE
S1132DE0882361F480919B4790919C47A0919D47D3
S1132DF0B0919E47BC01CD010E9461020E94C1377F
S1132E00982F81E08927882351F080E00E9493372E
S1132E1081E00E94AA3710924147109209400E9413
S1132E20DF1E0E946F1780913447882371F00E943F
S1132E30166B982F81E0923D09F480E0882329F0F5
S1132E4081E0809333471092344780913847882338
S1132E5069F01092384780913347882339F081E034
S1132E608A83CE01029661E00E94BD2A809139478F
S1132E70882329F01092394782E00E94FA29809130
S1132E804047882361F21092404780E090E00E941E
S1132E90BB05DC01CB012B2F2F932A2F2F93292F36
S1132EA02F938F9386E490E4892F8F9386E490E4A4
S1132EB08F938FEF96E4892F8F938FEF96E48F9300
S1132EC00E94DD768DB79EB70896CDBFDEBF4FEF6B
S1132ED056E46AE470E483E00E94E754A0CFEF92E2
S1132EE0FF920F931F93CF93DF93CDB7DEB7C659ED
S1132EF0D109CDBFDEBF0E94D35B8E839F8321E0C7
S1132F008E819F81892B09F420E0222309F44BC789
S1132F108E819F81FC018181928188879987888530
S1132F2099858A3EF2E29F0709F4A4C38B3E22E20C
S1132F309207B8F48F36EDE19E0709F4EDC38037AC
S1132F40FDE19F0728F48E31934009F481C219C72B
S1132F50863CEEE19E07E9F0813D9E4109F4A9C15A
S1132F6010C7823723E2920709F400C38337E3E2F0
S1132F709E0728F4883F924209F438C102C784337B
S1132F8024E2920709F429C2853C944209F4E5C677
S1132F90F8C68E819F81FC018381882F90E089830C
S1132FA09A8389819A81892B09F4D0C089819A8175
S1132FB08234910519F419821A82ACC089819A81EC
S1132FC08634910529F486E090E089839A83A2C02F
S1132FD089819A8183349105B9F58E819F81FC01A1
S1132FE087898B838E819F81FC01108E8B81823433
S1132FF011F480E38B838B81882F90E0C0970A972C
S113300008F088C08E819F8147960E9437768A8710
S11330109B871C8685E08D878D85282F30E08A85E7
S11330209B852817390724F48D85882F90E009C0E3
S11330308C85882F90E02A853B85821793070CF4B2
S1133040C90189839A8366C089819A8183359105F0
S113305009F059C01C828E819F81FC0187898E876B
S11330608E819F81FC01808D8F878E819F81FC01E1
S1133070118E8E85823411F41C8236C08E8586347E
S113308051F48F85813380F18F85863368F58F8580
S113309084528C8329C08E85833569F48F8581336E
S11330A038F08F85863320F48F8589528C831CC039
S11330B087E08C8319C08F85863451F48E858133E3
S11330C098F08E85863380F48E8584528C830CC070
S11330D08F85833549F48E85813330F08E85863330
S11330E018F48E8589528C838C81873048F08C81CA
S11330F0823130F48C81882F90E089839A830AC0CE
S113310019821A8207C08E819F8103960E943776A6
S113311089839A8389819A819923C4F089819A81C8
S11331204297A4F489818AA7CE018A96AC0169E208
S113313081E997E40E9444439AA580911B40981723
S113314029F0CE018A9660E00E94BD2A80911B403E
S1133150682F8FEF96E40E94F070982F81E0892702
S1133160882311F1CE018B966FEF76E40E94A1764D
S1133170CE018B96292F2F938F938EE490E4892F81
S11331808F938EE490E48F938FEF96E4892F8F933F
S11331908FEF96E48F930E94DD760F900F900F903F
S11331A00F900F900F901DC080911B40882F90E0CE
S11331B0292F2F938F9386E590E4892F8F9386E5AB
S11331C090E48F938FEF96E4892F8F938FEF96E49B
S11331D08F930E94DD760F900F900F900F900F90B9
S11331E00F908FEF96E40E94A25DD5C58E819F81DA
S11331F0FC0183818823E9F18E819F8103960E94DB
S113320037768093A5479093A6478091A5479091E0
S1133210A6478938934168F460E070E085EA97E452
S11332200E94846A888B8889882319F0888980930E
S113323031470E94796A292F2F938F938EE590E46A
S1133240892F8F938EE590E48F938FEF96E4892FE7
S11332508F938FEF96E48F930E94DD760F900F90FB
S11332600F900F900F900F908FEF96E40E94A25D45
S113327092C50E94796A292F2F938F938EE590E44B
S1133280892F8F938EE590E48F938FEF96E4892FA7
S11332908F938FEF96E48F930E94DD760F900F90BB
S11332A00F900F900F900F908FEF96E40E94A25D05
S11332B072C5198A1A8A1B8A1C8A8E819F81FC0115
S11332C08381882349F18E819F8103969E012C5B23
S11332D03F4FB9010E942B6FCE018C5B9F4F61E081
S11332E00E94DC69982F81E08927882389F0CE0128
S11332F08C5B9F4FFC0180819181A281B381898B7A
S11333009A8BAB8BBC8B81E997E40E94464404C042
S113331089E690E40E94A25D0E94266ADC01CB014A
S1133320898B9A8BAB8BBC8B89899A89AB89BC8935
S1133330892B8A2B8B2B09F429C589899A89AB8916
S1133340BC899E01285B3F4FAC01BD01C9010E94AD
S1133350AF6E982F81E089278823E9F0CE01885B3E
S11333609F4F292F2F938F9384E990E4892F8F9374
S113337084E990E48F938FEF96E4892F8F938FEFF6
S113338096E48F930E94DD760F900F900F900F902C
S11333900F900F901DC08C898F938B898F938A898E
S11333A08F9389898F938CE990E4892F8F938CE98B
S11333B090E48F938FEF96E4892F8F938FEF96E4A9
S11333C08F930E94DD768DB79EB70896CDBFDEBF82
S11333D08FEF96E40E94A25DD9C48E819F81FC0187
S11333E08381882381F18E819F81FC0183818033D5
S11333F021F482E00E94FA29CEC48E819F81FC01CF
S11334008381813321F482E00E949829C4C48E818F
S11334109F81FC018381823329F410927A470E94B0
S1133420282AB9C48E819F81FC018381833331F4BE
S113343062E080E090E00E94BD2AADC485EA90E499
S11334400E94A25DA8C485EA90E40E94A25DA3C480
S11334508E819F81FC018381882309F441C080E22D
S113346090E08093FF46909300478E819F8103965E
S1133470BC018FEF96E40E948B768E819F81FC01C4
S113348087898823D1F08FEF96E49C01F90101909C
S11334900020E9F7CF010197821B930B8150994BD0
S11334A020E230E0FC01208331838E819F814796A6
S11334B0BC018FEF96E40E948B768FEF96E40E9416
S11334C0A876459768F46FEF76E489E597E40E945F
S11334D0A1764FEF56E46AE081E997E40E94444301
S11334E080915947882301F180910B40882F90E007
S11334F0BC0189E597E40E94F056885A9D4F969541
S1133500879596958795969587959C01A5ECB0E24D
S11335100E94F874929582958F7089279F708927ED
S113352080936E4790936F4789E597E4892F8F9333
S113353089E597E48F938AEA90E4892F8F938AEA46
S113354090E48F938FEF96E4892F8F938FEF96E417
S11335508F930E94DD760F900F900F900F900F9035
S11335600F908FEF96E40E94A25D15C48E819F8117
S1133570FC018381833509F06FC08E819F81FC013A
S113358087898D8B8D89882309F448C08E819F811A
S113359047960E945576DC01CB018E8B8E898F8BEA
S11335A085E0888F84E1898F9F89898D891740F010
S11335B09F89888D981710F4888D03C08F8901C066
S11335C0898D80930B404BE050E468E281E997E4F5
S11335D00E94444380915947882301F180910B4014
S11335E0882F90E0BC0189E597E40E94F056885A40
S11335F09D4F9695879596958795969587959C0169
S1133600A5ECB0E20E94F874929582958F70892798
S11336109F70892780936E4790936F4780910B40EA
S1133620882F90E0292F2F938F9381EB90E4892F9B
S11336308F9381EB90E48F938FEF96E4892F8F9390
S11336408FEF96E48F930E94DD760F900F900F908A
S11336500F900F900F9009C085E0E5EAF0E4AFEF1A
S1133660B6E401900D928A95E1F78FEF96E40E94FB
S1133670A25D91C38E819F81FC018381882351F1D6
S11336808E819F81039648E050E0BC018FEF96E461
S11336900E94B176109207478FEF96E40E94886EDD
S11336A0882341F08FEF96E40E94A876049710F0E7
S11336B081E001C080E0882369F06FEF76E483E95C
S11336C097E40E94A17643E957E46FE181E997E426
S11336D00E94444383E997E4892F8F9383E997E415
S11336E08F9383EC90E4892F8F9383EC90E48F93F2
S11336F08FEF96E4892F8F938FEF96E48F930E9438
S1133700DD760F900F900F900F900F900F908FEF2A
S113371096E40E94A25D3FC31D828E819F81FC01BD
S11337208381882339F08E819F81FC0183818435D4
S113373009F09BC18E819F81FC018789882309F44C
S113374076C08E819F8147964CE050E0BC018FEF9C
S113375096E40E94B17610920B478091924781952E
S1133760482F6BE977E48FEF96E40E94A22DDC01E9
S1133770CB018AA39BA3ACA3BDA38AA19BA1ACA1AB
S1133780BDA1892B8A2B8B2B09F46CC160E08FEFD0
S113379096E40E941F3F8EA38EA1882351F088E2F5
S11337A0EBECF0E4AFEFB6E401900D928A95E1F70B
S11337B059C180E090E00E94EC3CDC01CB01809395
S11337C09B4790939C47A0939D47B0939E478091BD
S11337D09B4790919C47A0919D47B0919E47AE0115
S11337E04B595F4F22E330E0BC01CD010E945342AC
S11337F0292F2F938F9383EF90E4892F8F9383EF57
S113380090E48F938FEF96E4892F8F938FEF96E454
S11338108F930E94DD760F900F900F900F900F9072
S11338200F9060E080E090E00E94BD2A1BC1CE01B1
S1133830845A9F4F0E94EC3CDC01CB0180939B4750
S113384090939C47A0939D47B0939E47CE01845A82
S11338509F4FFC018081882351F088E2EBECF0E477
S1133860AFEFB6E401900D928A95E1F7FBC0809129
S11338709B4790919C47A0919D47B0919E47AE0174
S11338804B595F4F22E330E0BC01CD010E9453420B
S1133890292F2F938F938DEF90E4892F8F938DEFA2
S11338A090E48F938FEF96E4892F8F938FEF96E4B4
S11338B08F930E94DD760F900F900F900F900F90D2
S11338C00F908FEF96E40E94A25D809172479091D1
S11338D07347A0917447B0917547AE014B595F4F40
S11338E022E330E0BC01CD010E945342292F2F93E3
S11338F08F9389E091E4892F8F9389E091E48F93EA
S11339008FEF96E4892F8F938FEF96E48F930E9425
S1133910DD760F900F900F900F900F900F908FEF18
S113392096E40E94A25D8091764790917747A0919A
S11339307847B0917947AE014B595F4F22E330E0AD
S1133940BC01CD010E945342292F2F938F9385E10F
S113395091E4892F8F9385E191E48F938FEF96E41F
S1133960892F8F938FEF96E48F930E94DD760F90CB
S11339700F900F900F900F900F908FEF96E40E948E
S1133980A25D0E9476308FA38FA1813031F08FA188
S1133990853019F00E940D3165C020917247309135
S11339A07347409174475091754780919B4790911C
S11339B09C47A0919D47B0919E470F2EF1E2EF2EB8
S11339C0F1E4FF2EF02D0EE211E4BC01CD010E94C2
S11339D0D42E209176473091774740917847509183
S11339E079478091724790917347A0917447B09141
S11339F07547E12CF12C0AE311E4BC01CD010E94CE
S1133A00D42E20917247309173474091744750915E
S1133A10754780919B4790919C47A0919D47B09199
S1133A209E4761E0281739074A075B0708F060E002
S1133A306623C1F0209176473091774740917847CB
S1133A405091794780919B4790919C47A0919D47C5
S1133A50B0919E47E12CF12C02E411E4BC01CD01AC
S1133A600E94D42E81E08D8370C18E819F81FC01E0
S1133A708381833509F0DAC08E819F814796BC012A
S1133A808FEF96E40E94A176809192478195482F0A
S1133A9062E777E48FEF96E40E94A22DDC01CB016C
S1133AA08A8F9B8FAC8FBD8F8A8D9B8DAC8DBD8D86
S1133AB0892B8A2B8B2B09F48CC08A8D9B8DAC8D22
S1133AC0BD8D8093724790937347A0937447B093CE
S1133AD0754742E757E462E081E997E40E94444372
S1133AE08091764790917747A0917847B091794734
S1133AF09E01235A3F4FF90180839183A283B383AC
S1133B008091724790917347A0917447B091754723
S1133B1080589E4AAE4FBF4F9E012F593F4FF90127
S1133B2080839183A283B383CE01835A9F4FFC0188
S1133B302081318142815381CE018F599F4FFC01F5
S1133B4080819181A281B381281739074A075B07D5
S1133B5048F4CE018F599F4FFC0180819181A2814D
S1133B60B38108C0CE01835A9F4FFC0180819181AB
S1133B70A281B3818093764790937747A093784747
S1133B80B093794746E757E466E081E997E40E94F9
S1133B90444363E080E090E00E94BD2A2091724794
S1133BA030917347409174475091754780919B477A
S1133BB090919C47A0919D47B0919E4761E08217E8
S1133BC09307A407B50708F060E0662311F00E948C
S1133BD0282A8091724790917347A0917447B091BD
S1133BE07547AE014B595F4F22E330E0BC01CD0174
S1133BF00E945342292F2F938F9383E591E4892FB9
S1133C008F9383E591E48F938FEF96E4892F8F93BD
S1133C108FEF96E48F930E94DD760F900F900F90B4
S1133C200F900F900F9081E08D838FC08E819F81C4
S1133C30FC018381863409F080C08E819F81479680
S1133C40BC018FEF96E40E94A17680919247819502
S1133C50482F66E777E48FEF96E40E94A22DDC01FB
S1133C60CB018E8F9F8FA8A3B9A38E8D9F8DA8A102
S1133C70B9A1892B8A2B8B2B99F18E8D9F8DA8A1AD
S1133C80B9A18093764790937747A0937847B093F0
S1133C90794746E757E466E081E997E40E944443A4
S1133CA063E080E090E00E94BD2A20917247309149
S1133CB07347409174475091754780919B47909109
S1133CC09C47A0919D47B0919E4761E0821793075E
S1133CD0A407B50708F060E0662311F00E94282AC3
S1133CE08091764790917747A0917847B091794732
S1133CF0AE014B595F4F22E330E0BC01CD010E947D
S1133D005342292F2F938F9385E191E4892F8F9329
S1133D1085E191E48F938FEF96E4892F8F938FEF52
S1133D2096E48F930E94DD760F900F900F900F9082
S1133D300F900F9081E08D8308C08E819F81FC01DC
S1133D4083818A3211F40E946A418D81882301F1B2
S1133D508FEF96E40E94A25D1BC08E819F81FC01BF
S1133D6083818334B9F48E819F81FC018789882300
S1133D7089F08E819F8147960E94377688A799A7FC
S1133D8009C08EE591E40E94A25D05C0000003C055
S1133D90000001C000008E819F81FC01118212820B
S1133DA00E94655DA8C80000CA56DF4FCDBFDEBFC4
S1133DB0DF91CF911F910F91FF90EF900895EF92B3
S1133DC0FF920F931F93CF93DF93CDB7DEB7E397A3
S1133DD0CDBFDEBF81E089830E9424538C879D87F9
S1133DE021E08C859D85892B09F420E0222309F4A8
S1133DF0AAC68C859D85FC01818192818E879F87CF
S1133E008E859F858238FEE19F0709F492C083382E
S1133E102EE1920780F5813633E0930709F4FBC461
S1133E208236E3E09E0778F48531F3E09F0709F4D6
S1133E303EC18E3123E0920709F462C384359105B3
S1133E4009F45EC453C68F3A33E0930709F44CC0B7
S1133E50803BE3E09E0728F48438934009F4ECC1E6
S1133E6045C6863A2CE1920709F460C588319D4124
S1133E7009F442C63BC68A39E3E29E0709F455C0F9
S1133E808B39F3E29F07C0F48E3621E2920709F4DE
S1133E9033C68F3631E2930728F4813D9E4109F4FD
S1133EA0D1C424C68D3AF2E29F0709F49DC0813C37
S1133EB0924209F4F7C01AC6803D33E2930709F42D
S1133EC082C3813DE3E29E0728F48F3C934209F4C8
S1133ED0F5C50CC6873F23E2920709F420C28C394A
S1133EE0944209F4FBC502C68C859D85FC0183813F
S1133EF0882309F403C68C859D8503960E94377632
S1133F0021E0892B09F420E0288B0E9490290E944B
S1133F10555410920940988981E08927882309F42F
S1133F20EDC580E00E949337E9C582E00E94A62691
S1133F30FFCF8C859D85FC018381898B81E08093F3
S1133F400A4089898A3521F488E780930940D8C5D5
S1133F5089898033B1F580917D47882339F045EA1A
S1133F6052E467EA72E483E00E94E75480E090E060
S1133F700E94BB05DC01CB012B2F2F932A2F2F93FB
S1133F80292F2F938F9386E490E4892F8F9386E4CF
S1133F9090E48F938FEF96E4892F8F938FEF96E4BD
S1133FA08F930E94DD762DB73EB7285F3F4FCDBF7C
S1133FB0DEBF4FEF56E46AE470E483E00E94E75406
S1133FC09FC58989833309F09BC51092414781E0DD
S1133FD08093094010927D4710927C4710920A40CA
S1133FE081E0809342478CC58C859D85FC0183814B
S1133FF0882309F487C58C859D85FC0183818D34D4
S113400081F48C859D85FC01808D882351F08C85FD
S11340109D8548960E9437768093A7479093A8473A
S113402009C08C859D8503960E9437768093A747A7
S11340309093A84760E070E087EA97E40E94846A5E
S11340408A8B8A89882321F08A898093314705C025
S11340508091A9478F5F8093A9478091A74790914A
S1134060A847292F2F938F938BEA92E4892F8F935C
S11340708BEA92E48F938FEF96E4892F8F938FEFDF
S113408096E48F930E94DD760F900F900F900F901F
S11340900F900F904FEF56E460EB72E483E00E94C0
S11340A0E75430C581E997E40E9446443EC58C85B7
S11340B09D85FC0183818B8B8B89813321F08B89D6
S11340C0823309F0ABC080913747823041F0909140
S11340D0354081E08927882311F081E001C080E028
S11340E0882321F087EF80933147A4C08B898133E3
S11340F009F064C080913747823021F080913540C7
S1134100882311F081E001C080E0882309F452C0C3
S113411010927A4781E08CA7CE018C9640E050E063
S1134120BC0184E497E40E94985580910C400E945D
S1134130B126809307409093084081E090E0A0E08E
S1134140B0E08093724790937347A0937447B09301
S113415075478FEF9FEFDC01809376479093774705
S1134160A0937847B09379478FE097E280930D400E
S113417090930E4010920F40109210408FE097E2FF
S1134180A0E0B0E080933A4790933B47A0933C472C
S1134190B0933D478FEF9FEF80933E4790933F4707
S11341A081E080937B4781E080937A478DEF809311
S11341B0324740C087EF809331473CC08B898233BC
S11341C0C9F58091A9478C3020F48DEC8093314758
S11341D031C01DA6CE018D960E9401278093AA4767
S11341E080917E47882331F080914347882311F0E2
S11341F081E001C080E0882329F083E08093434775
S113420010927E478CE3809309408091AA478823CB
S113421089F481E997E40E9446440CC08B89803379
S113422009F072C40E9490291092A9478CEE8093E1
S113423032476AC4000068C41A821B821C821D8231
S11342408C859D85FC0183818335B1F58C859D85A5
S1134250FC01808D882359F08C859D8548960E94A9
S11342605576DC01CB018A839B83AC83BD838A8131
S11342709B81AC81BD81892B8A2B8B2B09F446C48D
S11342808A819B81AC81BD818093724790937347EF
S1134290A0937447B093754780E090E00E94EC3C93
S11342A0DC01CB01BC01CD010E9461028091A947D0
S11342B08F5F8093A9472AC48C859D85FC018381E7
S11342C0863409F023C48C859D85FC01808D882368
S11342D059F08C859D8548960E945576DC01CB016A
S11342E08A839B83AC83BD838A819B81AC81BD819E
S11342F0892B8A2B8B2B09F409C48A819B81AC817D
S1134300BD818093764790937747A0937847B09385
S113431079478091A9478F5F8093A947F7C381E0CC
S113432080930A408C859D85FC018081813009F051
S11343304BC08C859D85FC0183818823D1F08C85BD
S11343409D85039644E150E0BC018FEF96E40E9402
S1134350B17660E08FEF96E40E94883F80E090E0C1
S11343600E94EC3CDC01CB01BC01CD010E94610246
S1134370CFC380E090E00E94BB05DC01CB012B2F72
S11343802F932A2F2F93292F2F938F9386E490E432
S1134390892F8F9386E490E48F938FEF96E4892F8F
S11343A08F938FEF96E48F930E94DD762DB73EB7FF
S11343B0285F3F4FCDBFDEBF4FEF56E46AE470E4A1
S11343C083E00E94E754A4C38C859D85FC01808111
S11343D0823009F09DC38C859D85FC0183818835DD
S11343E0C9F51C8A8C859D85FC01808D882351F03C
S11343F08C859D8548960E9437768C8B8C890E948B
S1134400E04086C30E940F418C8B8C89082E000CDF
S1134410990B292F2F938F9384EB92E4892F8F93F9
S113442084EB92E48F938FEF96E4892F8F938FEF31
S113443096E48F930E94DD760F900F900F900F906B
S11344400F900F904FEF56E46AE470E483E00E940B
S1134450E7545EC380E090E00E94EC3CDC01CB01B9
S11344608D8B9E8BAF8BB88F8D899E89AF89B88DCC
S1134470BC01CD010E9461028091AB479091AC4791
S1134480A091AD47B091AE472D893E894F89588D93
S1134490281739074A075B0709F43AC3888D8F93B5
S11344A08F898F938E898F938D898F9386E490E47F
S11344B0892F8F9386E490E48F938FEF96E4892F6E
S11344C08F938FEF96E48F930E94DD762DB73EB7DE
S11344D0285F3F4FCDBFDEBF4FEF56E46AE470E480
S11344E083E00E94E7548D899E89AF89B88D8093BB
S11344F0AB479093AC47A093AD47B093AE4708C386
S11345008091A9478F5F8093A9478C859D85FC0185
S11345108381882381F18C859D85039644E150E055
S1134520BC0189E597E40E94B176809159478823BC
S113453009F4F0C280910B40882F90E0BC0189E51A
S113454097E40E94F0568C509E4F969587959695C9
S11345508795969587959C01A5ECB0E20E94F87426
S1134560929582958F7089279F70892780936E47D3
S113457090936F47CFC280915947882309F4CAC2E8
S113458089E597E4892F8F9389E597E48F9389EBE5
S113459092E4892F8F9389EB92E48F938FEF96E4C3
S11345A0892F8F938FEF96E48F930E94DD760F907F
S11345B00F900F900F900F900F908FEF96E40E9442
S11345C08A541982A7C280910C40898F8C859D855D
S11345D0FC018381893409F04FC08C859D85FC01E1
S11345E0808D882309F498C28C859D8548960E9405
S11345F05576DC01CB01898F898D8A8F85E08B8F7D
S113460084E18C8F9A8D8C8D891740F09A8D8B8DD7
S1134610981710F48B8D03C08A8D01C08C8D809304
S11346200B408091A9478F5F8093A9478091594798
S1134630882309F471C280910B40882F90E0BC015B
S113464089E597E40E94F0568C509E4F9695879585
S113465096958795969587959C01A5ECB0E20E9466
S1134660F874929582958F7089279F70892780931B
S11346706E4790936F4750C28C859D85FC01838162
S1134680803509F049C28C859D85FC01808D882385
S113469009F442C28C859D8548960E945576DC01BA
S11346A0CB01898F898D8D8F85E090E08E8F9F8FD0
S11346B084E190E088A399A38D8D282F30E088A110
S11346C099A18217930754F08D8D882F90E02E8D39
S11346D03F8D8217930724F4C90102C088A199A1D0
S11346E080930C408091A9478F5F8093A947809164
S11346F00C400E94B12680930740909308400CC25E
S11347001AA21BA28C859D85FC0183818033E1F470
S11347108C859D85FC01808D882309F4FFC18C85DF
S11347209D8548960E945576DC01CB018AA39BA304
S11347308AA19BA180930F40909310408091A94738
S11347408F5F8093A947EAC18C859D85FC01838195
S11347508133E1F48C859D85FC01808D882309F4E7
S1134760DDC18C859D8548960E945576DC01CB0180
S11347708AA39BA38AA19BA180930D4090930E4092
S11347808091A9478F5F8093A947C8C18C859D8577
S1134790FC0183818934E1F48C859D85FC01808D45
S11347A0882309F4BBC18C859D8548960E94557663
S11347B0DC01CB018AA39BA38AA19BA18093114016
S11347C0909312408091A9478F5F8093A947A6C117
S11347D08C859D85FC018381843409F09FC18C857F
S11347E09D85FC01808D882309F498C18C859D8565
S11347F048960E945576DC01CB018AA39BA38AA12B
S11348009BA180937047909371478091A9478F5FD4
S11348108093A94783C18C859D85FC01838188236E
S113482009F47EC18C859D85039644E150E0BC016A
S113483084E497E40E94B1768091A9478F5F8093C6
S1134840A9476EC11E821F82188619868C859D8594
S1134850FC018381882399F18C859D8503960E94B0
S11348605576DC01CB018093AF479093B047A0937A
S1134870B147B093B2478091AF479091B047A091B0
S1134880B147B091B2478EA79FA7A8ABB9ABCE01F1
S11348908E9661E00E94DC69982F81E08927882345
S11348A0B1F08EA59FA5A8A9B9A98E839F83A887D7
S11348B0B9878091A9478F5F8093A94708C00E9458
S11348C0266ADC01CB018E839F83A887B9878E81FA
S11348D09F81A885B985892B8A2B8B2B09F422C14A
S11348E089858F9388858F938F818F938E818F9302
S11348F082EC92E4892F8F9382EC92E48F938FEF72
S113490096E4892F8F938FEF96E48F930E94DD7640
S11349102DB73EB7285F3F4FCDBFDEBF4FEF56E404
S113492067EC72E483E00E94E754FCC08091844702
S11349309091854721E08D38924008F420E02223AD
S113494009F47CC08091844790918547CC01A0E014
S1134950B0E09C01AD0160EA78E686E090E00E9458
S11349607674DC01CB017C018D01EDE7FE1A0C406D
S11349701E4F8091154090911640CC01A0E0B0E00C
S11349809C01AD0164E670E78EEF9FEF0E947674A0
S1134990DC01CB01E80EF91E0A1F1B1F8091154094
S11349A090911640CC01A0E0B0E028E630E140E070
S11349B050E0281B390B4A0B5B0B8FEF93E0DC01B3
S11349C00E9407759B01AC01C801B7010E94D07415
S11349D0DA01C9018CA39DA3AEA3BFA318A619A68F
S11349E084E690E08AA79BA78AA59BA59C01990FC2
S11349F0440B550B8CA19DA1AEA1BFA1281739076B
S1134A004A075B073CF48AA59BA5092E000CAA0B58
S1134A10BB0B11C088A599A5092E000CAA0BBB0BD2
S1134A202CA13DA14EA15FA182179307A407B5074E
S1134A3014F4DA01C9018A879B872FC080918847C3
S1134A40909189479C0140E050E0DA01C901880F48
S1134A50991FAA1FBB1F880F991FAA1FBB1F880F6E
S1134A60991FAA1FBB1F821B930BA40BB50B880FA6
S1134A70991FAA1FBB1F8A5C9E4FAF4FBF4F24E6EE
S1134A8030E040E050E0BC01CD010E94D074DA0176
S1134A90C901805F984D8A879B878A859B856BECCB
S1134AA072E40E94365580E090E00E94EC3CDC0108
S1134AB0CB01BC01CD010E94610237C0CE01C29678
S1134AC00E94C63E982F81E08927882369F18AA92C
S1134AD09BA960ED72E40E94365526C045ED52E470
S1134AE069ED72E483E00E94E7541FC019828DEDE2
S1134AF092E40E948A5419C0000017C0000015C037
S1134B00000013C0000011C000000FC000000DC061
S1134B1000000BC0000009C0000007C0000005C071
S1134B20000003C0000001C000008C859D85FC01CD
S1134B30118212828981882309F44EC983EE92E49A
S1134B400E948A5449C90000E396CDBFDEBFDF91BD
S1134B50CF911F910F91FF90EF900895CF93DF9322
S1134B601F92CDB7DEB70E9480298983998181E0A5
S1134B708927882391F09091374781E0913009F497
S1134B8080E0882331F081E08093374781E080938F
S1134B90064083E080931C4027C09091374781E012
S1134BA0923009F480E08823F9F08091B347998129
S1134BB09817B9F480911C408823B1F080911C406F
S1134BC0815080931C4080911C40882369F482E0CA
S1134BD08093374781E08093064083E080931C40B4
S1134BE003C083E080931C4089818093B347000015
S1134BF00F90DF91CF910895EF92FF920F931F933F
S1134C00CF93DF93CDB7DEB72997CDBFDEBF209119
S1134C107247309173474091744750917547809122
S1134C20764790917747A0917847B0917947BC0136
S1134C30CD010E942F6EDC01CB0189839A83AB8363
S1134C40BC8321E089819A81AB81BC811816190645
S1134C501A061B060CF020E02D83CE0106960E9456
S1134C60BB05209176473091774740917847509122
S1134C7079478E819F81A885B985BC01CD010E94A9
S1134C802F6EDC01CB0189839A83AB83BC8389813A
S1134C909A81AB81BC81BB232CF08D81882311F0D8
S1134CA080E04AC020917247309173474091744725
S1134CB0509175478E819F81A885B985BC01CD012E
S1134CC00E942F6EDC01CB0189839A83AB83BC8362
S1134CD089819A81AB81BC81843C9F4FAF4FBF4F88
S1134CE064F01092434710921740109218401092AB
S1134CF0194010921A4081E01FC024EC3FEF4FEF9F
S1134D005FEF89819A81AB81BC8179018A01E81ABC
S1134D10F90A0A0B1B0BD801C70180931740909323
S1134D201840A0931940B0931A4081E08093434700
S1134D3081E080937E4781E02996CDBFDEBFDF917D
S1134D40CF911F910F91FF90EF900895CF93DF9330
S1134D501F92CDB7DEB7898300000F90DF91CF910A
S1134D600895CF93DF93CDB7DEB72A97CDBFDEBFCB
S1134D708A878A85898385E090E08A839B8384E19E
S1134D8090E08C839D838981282F880F330B8C813D
S1134D909D81821793075CF08981082E000C990B82
S1134DA02A813B818217930724F4C90102C08C81B4
S1134DB09D818A878A85282F30E040E050E082EC8C
S1134DC091E0A0E0B0E0BC01CD010E94D074DA0112
S1134DD0C901BC01CD010E941373DC01CB018E8398
S1134DE09F83A887B9876E817F81888599850E9472
S1134DF0E272DC01CB012A96CDBFDEBFDF91CF91F9
S1134E000895CF93DF9300D01F92CDB7DEB78A8386
S1134E109B838A819B810E942C2789838A819B8121
S1134E20FC018081882331F08A819B81FC0180818F
S1134E30809332478981882321F089818093314787
S1134E4004C00E94FC2580937A4789812396CDBFB4
S1134E50DEBFDF91CF910895CF93DF93CDB7DEB757
S1134E606397CDBFDEBF8A8B9B8B809172479091F5
S1134E707347A0917447B091754721E0892B8A2B21
S1134E808B2B09F020E0222311F08CEC1AC2209124
S1134E9072473091734740917447509175478091A0
S1134EA0764790917747A0917847B091794761E030
S1134EB0281739074A075B0708F460E0662311F0F6
S1134EC08DECFFC180910D4090910E4021E0892B23
S1134ED009F020E0222311F08BECF3C120910F4064
S1134EE03091104080910D4090910E40280F391F51
S1134EF0809170479091714741E0281739070CF071
S1134F0040E0442311F08AECDCC1809144478823BB
S1134F1011F489ECD6C190910C4081E0992309F0F9
S1134F2080E0882311F088ECCCC180915947882314
S1134F3091F180910B40882331F080911140909140
S1134F401240892B11F481E001C080E0882311F024
S1134F5087ECB7C180910B40882F90E0BC0189E5B4
S1134F6097E40E94F0568C509E4F9695879596959F
S1134F708795969587959C01A5ECB0E20E94F874FC
S1134F80929582958F7089279F70892780936E47A9
S1134F9090936F4704C010926E4710926F478091B0
S1134FA09B4790919C47A0919D47B0919E478A83CF
S1134FB09B83AC83BD8320917647309177474091A2
S1134FC078475091794761E08A819B81AC81BD81AA
S1134FD0281739074A075B0708F060E0662359F091
S1134FE08A899B89892B09F46BC18A899B892AEF59
S1134FF0FC01208365C12091724730917347409131
S11350007447509175478A819B81AC81BD81BC01F5
S1135010CD010E942F6EDC01CB018E839F83A88774
S1135020B9878E819F81A885B985BB230CF434C1CF
S1135030198220910D4030910E4080910F40909143
S11350401040820F931F8A879B878A859B859C01CA
S1135050990F440B550B8E819F81A885B985BC019E
S1135060CD010E94D074DC01CB018C879D872091F7
S11350707047309171478C859D85A901481B590B58
S1135080CA018E879F878E859F85181619060CF492
S1135090A8C08E859F8522273327281B390B809132
S11350A00D4090910E4041E0281739070CF440E080
S11350B0442309F441C02A853B858E859F85820F50
S11350C0931F919581959109092E000CAA0BBB0B96
S11350D080933A4790933B47A0933C47B0933D4716
S11350E08A899B89892B29F08A899B892EEFFC0167
S11350F0208390917A4781E08927882309F4A6C008
S113510080910D4090910E409C0180913A4790917E
S11351103B47A0913C47B0913D47281B390B8091F8
S11351206E4790916F47A901481B590BCA018093A0
S11351303E4790933F478AC020910D4030910E40E6
S11351408E859F85820F931F092E000CAA0BBB0B23
S113515080933A4790933B47A0933C47B0933D4795
S113516081E089838A899B89892B29F08A899B8993
S11351702DEFFC01208390917A4781E089278823D1
S113518009F464C080916E4790916F479C0140E0A0
S113519050E080913A4790913B47A0913C47B091B1
S11351A03D4761E0281739074A075B070CF060E0C8
S11351B0662309F44BC080913A4790913B47A091F4
S11351C03C47B0913D479C0180916E4790916F4759
S11351D0A901481B590BCA0180933E4790933F474E
S11351E035C08E859F85919581959109092E000C76
S11351F0AA0BBB0B80933A4790933B47A0933C4741
S1135200B0933D478A899B89892B29F08A899B8998
S11352102EEFFC01208390917A4781E0892788232F
S1135220A9F020910D4030910E408E859F85820F0C
S1135230931F9C0180916E4790916F47A901481B71
S1135240590BCA0180933E4790933F478981882335
S1135250E1F080917A47888B10927A4781E0898BBC
S1135260CE01419640E050E0BC0184E497E40E9402
S1135270985580910C400E94B126809307409093EA
S11352800840888980937A4703C080E00E94456A79
S113529081E080937B470CC08A899B89892B29F004
S11352A08A899B892FEFFC01208380E00E94456A54
S11352B010927D478AE590E08093134090931440C8
S11352C080E06396CDBFDEBFDF91CF910895CF9389
S11352D0DF93CDB7DEB761E083E00E949E0F61E00B
S11352E082E00E949E0F0E94BD3A81E00E94AC4081
S11352F0882311F08CEF01C080E0DF91CF910895F5
S1135300CF93DF931F92CDB7DEB781E00E942810C0
S11353108983998181E089270F90DF91CF91089546
S1135320CF93DF93CDB7DEB70000DF91CF9108951F
S1135330CF93DF9300D0CDB7DEB78A830E94763057
S113534089838A81882379F48981823031F460E009
S113535080E090E00E94BD2A47C063E080E090E0D6
S11353600E94BD2A41C08A818230F1F48981823051
S113537031F461E080E090E00E94BD2A35C089816B
S1135380813031F08981843019F08981833031F49E
S113539061E080E090E00E94BD2A26C063E080E0E6
S11353A090E00E94BD2A20C08981823031F461E0FE
S11353B080E090E00E94BD2A17C08981813031F4D9
S11353C062E080E090E00E94BD2A0EC089818430B2
S11353D031F463E080E090E00E94BD2A05C063E000
S11353E080E090E00E94BD2A00000F900F90DF91B2
S11353F0CF910895CF93DF9300D0CDB7DEB78A83E2
S11354000E94763089838A81823031F460E080E0C2
S113541090E00E94BD2A16C08981813029F462E09F
S113542080E090E00E94BD2A8981843031F460E0FC
S113543080E090E00E94BD2A05C060E080E090E03A
S11354400E94BD2A00000F900F90DF91CF91089524
S1135450EF92FF920F931F93CF93DF931F92CDB7D9
S1135460DEB780E090E00E94EC3CDC01CB0180934D
S11354709B4790939C47A0939D47B0939E470E945F
S1135480763089838981823009F46CC063E080E0DE
S113549090E00E94BD2A2091724730917347409159
S11354A074475091754780919B4790919C47A09178
S11354B09D47B0919E470F2EF1E2EF2EF1E4FF2EAF
S11354C0F02D0EE211E4BC01CD010E94D42E2091F6
S11354D0724730917347409174475091754780915A
S11354E09B4790919C47A0919D47B0919E4761E056
S11354F0281739074A075B0708F060E06623C9F0FC
S11355002091764730917747409178475091794779
S113551080919B4790919C47A0919D47B0919E4755
S1135520E12CF12C02E411E4BC01CD010E94D42E43
S11355301BC020917647309177474091784750912E
S113554079478091724790917347A0917447B091C5
S11355507547E12CF12C0AE311E4BC01CD010E9452
S1135560D42E02C00E940D3100000F90DF91CF9124
S11355701F910F91FF90EF900895CF93DF93CDB7D4
S1135580DEB72C97CDBFDEBF8A879B876C8781E00F
S113559089838A859B85892B61F08A859B85FC019B
S11355A08081823131F08A859B85FC0180818093E2
S11355B01B4010927A4710927B4780E00E9447106C
S11355C080E090E00E94EC3CDC01CB0180939B479F
S11355D090939C47A0939D47B0939E4780911B4016
S11355E0882F90E0092E000CAA0BBB0B41E050E081
S11355F020E130E0841B950B2817390708F4A1C17A
S11356008C589F4FFC010C94EF748981882389F096
S11356108DE49FE4809344479093454785E490E06C
S1135620809346479093474719821092704710928F
S113563071478981882399F08DE49FE480934447DE
S11356409093454789E490E0809346479093474779
S113565019828CE390E0809370479093714789811D
S1135660882399F08DE49FE48093444790934547C1
S113567083E590E08093464790934747198288E7F3
S113568090E080937047909371478981882399F0C3
S11356908DE49FE4809344479093454788E490E0E9
S11356A08093464790934747198284EB90E0809318
S11356B07047909371478981882391F08DE49FE42A
S11356C0809344479093454785E390E08093464711
S11356D09093474780EF90E0809370479093714791
S11356E081E08A83CE01029640E050E0BC0184E46C
S11356F097E40E94985580910C400E94B1268093B3
S11357000740909308408CE390E080933E47909349
S11357103F478CE390E080930D4090930E4080EFE0
S113572090E080930F409093104041C18981882379
S113573069F08DE495E48093444790934547109233
S113574046471982109270471092714789818823C5
S113575079F08DE499E480934447909345471092FF
S1135760464719828CE090E080937047909371478C
S11357708981882379F08DE493E58093444790935D
S1135780454710924647198288E190E0809370471C
S1135790909371478981882379F08DE498E480930C
S11357A044479093454710924647198284E290E01B
S11357B080937047909371478981882371F08DE4B9
S11357C095E380934447909345471092464780E37E
S11357D090E0809370479093714781E08B83CE0172
S11357E0039640E050E0BC0184E497E40E9498559D
S11357F088E080930C4080910C400E94B1268093F5
S113580007409093084088E592E080933E47909348
S11358103F478CE090E080930D4090930E4080E3EE
S113582090E080930F4090931040C1C089818823F9
S113583069F08FE495E48093444790934547109230
S113584046471982109270471092714789818823C4
S113585079F08FE499E480934447909345471092FC
S1135860464719828CE090E080937047909371478B
S11358708981882379F08FE493E58093444790935A
S1135880454710924647198288E190E0809370471B
S1135890909371478981882379F08FE498E4809309
S11358A044479093454710924647198284E290E01A
S11358B080937047909371478981882371F08FE4B6
S11358C095E380934447909345471092464780E37D
S11358D090E0809370479093714781E08C83CE0170
S11358E0049640E050E0BC0184E497E40E9498559B
S11358F08FE080930C4080910C400E94B1268093ED
S113590007409093084088E592E080933E47909347
S11359103F478CE090E080930D4090930E4080E3ED
S113592090E080930F409093104041C083E590E055
S11359308093444790934547198210927047109280
S113594071478981882341F08DE49FE48093444723
S113595090934547109246471092704710927147B2
S113596081E08D83CE01059640E050E0BC0184E4E3
S113597097E40E94985588E080930C4080910C40F5
S11359800E94B126809307409093084088E592E0F6
S113599080933E4790933F478CE390E080930D4083
S11359A090930E4010920F401092104000008C858E
S11359B0882391F410927B4710927A4710929F4764
S11359C010927A4780E00E94456A80E00E94471066
S11359D080E00E94376AAFC08C85813009F072C0C4
S11359E0CE0106960E94EC3CDC01CB0180939B47E0
S11359F090939C47A0939D47B0939E478E818823A4
S1135A00E9F580919B4790919C47A0919D47B09167
S1135A109E478093724790937347A0937447B093C3
S1135A207547209172473091734740917447509164
S1135A3075478091764790917747A0917847B091C8
S1135A40794761E082179307A407B50708F060E07F
S1135A506623A1F08091724790917347A091744797
S1135A60B091754780589E4AAE4FBF4F809376479A
S1135A7090937747A0937847B09379471F82CE01DC
S1135A8007960E9401278E8380917E47882331F0F8
S1135A9080914347882311F081E001C080E088238E
S1135AA029F083E08093434710927E478CE38093F0
S1135AB009408E81882309F03EC081E997E40E9461
S1135AC0464439C08C85823091F581E08887CE01C7
S1135AD0089640E050E0BC0184E497E40E949855A5
S1135AE080910C400E94B126809307409093084017
S1135AF080910D4090910E40092E000CAA0BBB0B17
S1135B0080933A4790933B47A0933C47B0933D47DB
S1135B1081E080937B4781E080937A478DEF809387
S1135B20324710929F4781E080937A4704C0CE01A8
S1135B3009960E94012700002C96CDBFDEBFDF919D
S1135B40CF910895CF93DF93CDB7DEB7A497CDBFA0
S1135B50DEBF88A399A36AA37BA34CA319821A82EC
S1135B601B821C8288A199A10E94A8768D839E83A2
S1135B7080E096E6AEEEBFE58F839887A987BA8763
S1135B801B868AA19BA18257974489F580919B47E4
S1135B9090919C47A0919D47B0919E478C879D878B
S1135BA0AE87BF8780E096E6AEEEBFE5888B998B23
S1135BB0AA8BBB8B2C853D854E855F858889998909
S1135BC0AA89BB89281739074A075B0728F48889FB
S1135BD09989AA89BB8904C08C859D85AE85BF85BA
S1135BE08F839887A987BA8781E08B8739C08AA178
S1135BF09BA186579744A1F5809172479091734772
S1135C00A0917447B0917547888F998FAA8FBB8FE5
S1135C1080919B4790919C47A0919D47B0919E474E
S1135C208C8F9D8FAE8FBF8F288D398D4A8D5B8D64
S1135C308C8D9D8DAE8DBF8D281739074A075B0764
S1135C4028F48C8D9D8DAE8DBF8D04C0888D998D6B
S1135C50AA8DBB8D8F839887A987BA8782E08B87AB
S1135C608D819E810A97A9F488A199A10A9620E3BF
S1135C70FC01208388A199A10B9620E3FC012083D9
S1135C8088A199A10C96FC0110828CE090E08D8390
S1135C909E838D819E810C9741F488A199A10E94D5
S1135CA0886E882311F081E001C080E0882309F424
S1135CB067C088A199A1BC0180E090E00E943A3BB2
S1135CC0DC01CB018C8B9D8BAE8BBF8B8CA1282FE1
S1135CD0880F330B440B550B80E19EE0DC010E94DE
S1135CE007759B01AC018C899D89AE89BF89820FA0
