S0110000466C6578466F7838302E73726563EF
S11300000C9487020C94B1020C94B1020C94B102CA
S11300100C94B1020C94B1020C940E0B0C94B1022A
S11300200C94B1020C94B1020C94B1020C94B10280
S11300300C9450100C94886B0C94B1020C94B10283
S11300400C94B1020C94B1020C94B1020C941903F7
S11300500C9426060C94B1020C94F20F0C94B10289
S11300600C94132C0C94B1020C94B1020C94B102B4
S11300700C94B1020C94A5130C94196B0C94B00756
S11300800C9478090C94B1020C94B1020C94B10252
S11300900C94B1020C94B1020C94B1020C94B10210
S11300A00C94B1020C94CD4C0C94B1020C94B1029A
S11300B00C94B1020C94B1020C94B1020C94B102F0
S11300C00C94B1020C94B1020C94B1020C94B102E0
S11300D00C94B1020C94B1020C94B1020C945D0323
S11300E00C94EB060C94B102ED24012517252D2563
S11300F04325E326D826732583259525A725B925E9
S1130100E825F8250A261C262E265D268626AF26F7
S11301102B3D4C3E4C3E4C3E4C3E4C3E5F3C4C3E9C
S11301204C3E4C3E4C3E4C3E4C3E4C3E803C4C3E49
S11301304C3E4C3E4C3E4C3E4C3E4C3EC73A4C3EF4
S11301404C3E4C3E4C3E4C3E4C3E4C3E4C3E4C3E5B
S11301504C3E4C3E4C3E4C3E4C3E4C3E4C3E4C3E4B
S11301604C3E4C3E4C3E4C3E4C3E4C3E4C3E0B3B7F
S11301704C3E4C3E4C3E4C3E4C3E4C3E4C3E4C3E2B
S11301804C3E4C3E4C3E4C3E4C3E4C3E4C3E4C3E1B
S11301904C3E4C3E4C3E4C3E4C3E4C3E4C3E4C3E0B
S11301A04F3B4C3E4C3E4C3E4C3E4C3E4C3E4C3EFB
S11301B04C3E4C3E4C3E4C3E4C3E933B4C3E4C3EA7
S11301C04C3E4C3EA83B4C3E4C3E4C3E4C3EA13C2F
S11301D04C3E4C3E4C3E4C3E6D3A4C3E4C3E4C3EAE
S11301E04C3E4C3E4C3E4C3E8E3A4C3E4C3E4C3E7D
S11301F04C3E4C3E4C3E4C3EAF3A4C3E4C3E4C3E4C
S11302004C3E4C3EB63C4C3E4C3E4C3E4C3ECB3CB5
S11302104C3E4C3E4C3E4C3E4C3EE33C4C3E4C3EF5
S11302204C3E4C3E4C3EFB3C4C3E4C3E4C3E4C3ECD
S11302304C3E133D4C3E4C3E4C3E4C3E4C3ED23B21
S11302404C3E4C3E4C3E4C3EE73B4C3E4C3E4C3EC2
S11302504C3E4C3E4C3E4C3E083C4C3E4C3E4C3E90
S11302604C3E4C3E4C3E4C3E293C4C3E4C3E4C3E5F
S11302704C3E4C3E4C3E4C3E4A3C4C3E4C3E4C3E2E
S11302804C3EBD3B4C3E4C3E4C3E4C3E433D4C3EB6
S11302904C3E4C3E4C3E4C3E4C3E4C3E4C3E4C3E0A
S11302A04C3E4C3E4C3E4C3E4C3E4C3E4C3E4C3EFA
S11302B04C3E4C3E4C3E4C3E4C3E4C3E4C3E873DB0
S11302C04C3E4C3E4C3E4C3E4C3E4C3E4C3E4C3EDA
S11302D04C3E4C3E4C3E4C3E4C3E4C3E4C3E4C3ECA
S11302E04C3E4C3E4C3E4C3E4C3E4C3E4C3E4C3EBA
S11302F0CB3D4C3E4C3E4C3E4C3E4C3E4C3E4C3E2C
S11303004C3E4C3E4C3E4C3E4C3E4C3E4C3E4C3E99
S11303104C3E4C3E4C3E4C3E4C3E4C3E4C3E4C3E89
S11303204C3E0F3E4C3E4C3E4C3E4C3E4C3E4C3EB6
S11303304C3E333E005017502D5043508F5069505F
S1130340B550F5511952B0516B512351DB50FD5A40
S11303508D5AE15A0B5BE85A0B5BA95A865A9B5A91
S1130360A25A0B5BC55A785AD35A715A945A2C5ACA
S1130370335A3A5A415A485A4F5A555A5C5A635A50
S11303806A5AB05AB75A045BBE5A0B5B7F5AEF5A8B
S11303907A59815988598F5996599C59A359AA5900
S11303A0B059B659BD59C459CB59D259D959E05944
S11303B0E759EE59F559FB59025A095A105A175A76
S11303C01E5A255A0B5B0B5B0B5B0B5BDA5A0B5B00
S11303D00B5B0B5B0B5B0B5B0B5B0B5B0B5B0B5BE9
S11303E00B5B0B5B0B5B0B5B0B5B0B5B0B5B0B5BD9
S11303F00B5B0B5B0B5B0B5B0B5B0B5B0B5B0B5BC9
S11304000B5B0B5B0B5BF65A0B5BCC5A00407A1010
S1130410F35A00A0724E18090010A5D4E80000E8B1
S11304207648170000E40B54020000CA9A3B00000F
S113043000E1F505000080969800000040420F009E
S11304400000A08601000000102700000000E8035F
S1130450000000006400000000000A00000000002A
S11304600100000000002C76D888DC674F0823DFE9
S1130470C1DFAE59E1B1B796E5E3E453C63AE651BC
S1130480997696E8E6C28426EB898C9B62ED407CE3
S11304906FFCEFBC9C9F40F2BAA56FA5F490055A7F
S11304A02AF75C936B6CF9676DC11BFCE0E40D47A4
S11304B0FEF520E6B500D0ED902E030094357705C7
S11304C00080841E080000204E0A000000C80C337F
S11304D03333330F986E12831141EF8D2114893B0E
S11304E0E65516CFFEE6DB18D1844B381BF77C1D8E
S11304F0901DA4BBE424203284725E228100C9F1E1
S113050024ECA1E53D27D4298F2CE1299C2C11242E
S11305101FBECFEFCDBFDFE7DEBF14E4A0E0B0E441
S1130520E2EAF8EF00E00BBF02C007900D92AE3094
S1130530B107D9F728E4AEE0B4E401C01D92A73BAB
S1130540B207E1F712E0C5E8D2E004C02197FE014A
S11305500E941475C338D107C9F70E9490140C94F3
S1130560447C0C9400009C0123703327232B59F402
S113057064E670E00E94BF74892B39F463707727B6
S113058081E0672B19F080E0089581E008956230DE
S113059021F40E94B302845E0895683008F06F5F0E
S11305A061708EE1860F08950FB6F8946093B34896
S11305B07093B4488093B5489093B6480FBE08959D
S11305C0FC010FB6F8946091B3487091B4488091DF
S11305D0B5489091B6480FBE309721F0608371837F
S11305E08283938308958F938FB78F93F894809128
S11305F0B3488F5F8093B3488091B4488F4F809302
S1130600B4488091B5488F4F8093B5488091B648DF
S11306108F4F8093B6488F918FBF8F910895CF935A
S1130620DF93CDB7DEB70E943A350000DF91CF915A
S113063008951F920F9200903F000F921124009092
S11306403B000F922F933F934F935F936F937F934E
S11306508F939F93AF93BF93EF93FF93CF93DF93C6
S11306601F92CDB7DEB70E94AE708983809144405B
S1130670882319F489810E94F40780914A408823D1
S113068019F489810E94A10300000F90DF91CF919A
S1130690FF91EF91BF91AF919F918F917F916F9156
S11306A05F914F913F912F910F9000923B000F90DB
S11306B000923F000F901F9018951F920F92009088
S11306C03F000F92112400903B000F922F933F9311
S11306D04F935F936F937F938F939F93AF93BF9346
S11306E0EF93FF93CF93DF931F92CDB7DEB70E94B2
S11306F0F971898380914440843019F489810E947E
S1130700F40780914A40843019F489810E94A1033E
S113071000000F90DF91CF91FF91EF91BF91AF91C6
S11307209F918F917F916F915F914F913F912F9105
S11307300F9000923B000F9000923F000F901F908B
S11307401895CF93DF93CDB7DEB72A97CDBFDEBF21
S11307508A8780910E4490910F44892B31F40E9432
S1130760AB5D80930E4490930F4480910E4490911E
S11307700F44892B09F463C28A85882F90E00E9474
S1130780BD768A878A858A3011F48DE08A878091C4
S11307901044882339F01A86809110448150809344
S11307A010444DC28A858B3191F41A86809111448C
S11307B0843148F480911144882F90E08E5E9B4BE5
S11307C0FC0180818A8782E08093104438C28A8544
S11307D08D3009F060C080914444882309F441C0FD
S11307E0809111448823D1F180910E4490910F445B
S11307F022E0FC01208380910E4490910F442091CB
S1130800454430914644FC0121833283809147441E
S11308108823E1F040910E4450910F448091474465
S1130820882F90E0BC016150710980914844882F61
S113083090E0E4E1E69F9001E79F300D1124240F3E
S1130840351F820F931F0396FC011082809111447F
S1130850882F90E08E5E9B4BFC0110820E944C5FBF
S113086009C080910E4490910F442FEF3FEFFC019B
S113087021833283109211441092484410924544CB
S1130880109246441092474410920E4410920F4422
S113089010924444D4C18A85882309F4D0C180913C
S11308A01144882F90E08E5E9B4B2A85FC012083A7
S11308B080911144882309F47CC18A858F3709F01B
S11308C0A1C0809111448150809311448091474488
S11308D0882329F520914544309146448091114460
S11308E0882F90E08E5E9B4BFC018081882F90E0E6
S11308F0A901481B590BCA0180934544909346446F
S113090080914544909146442AE030E0B9010E9428
S1130910BF74CB01809345449093464463C0809157
S11309204844882311F1809148448150809348447D
S113093040910E4450910F4480914744882F90E099
S1130940BC016150710980914844882F90E0E4E132
S1130950E69F9001E79F300D1124240F351F820F6D
S1130960931F0396FC0110823DC080911144882F8F
S113097090E08E5E9B4BFC0180818032D9F48091A3
S1130980474481508093474420910E4430910F4452
S113099080914744482F50E064E1649FC001659F03
S11309A0900D11240396820F931F0E94D576809395
S11309B0484418C020910E4430910F44809147441C
S11309C0482F50E064E1649FC001659F900D11249D
S11309D0820F931F0396FC0110828091474481503B
S11309E08093474480911144882F90E08E5E9B4B06
S11309F0FC01108280911144882309F01AC11092DD
S1130A00444417C18A85803209F055C0809111444D
S1130A10882F90E001978E5E9B4BFC018081803291
S1130A2039F080914744882F90E00196039714F0A1
S1130A301A86FFC0809147448823E1F040910E4418
S1130A4050910F4480914744882F90E0BC0161503D
S1130A50710980914844882F90E0E4E1E69F900179
S1130A60E79F300D1124240F351F820F931F039627
S1130A70FC011082809147448F5F80934744109219
S1130A80484480911144882F90E001968A839B8387
S1130A9081E390E08C839D832A813B818C819D81BD
S1130AA0281739071CF48A819B8102C08C819D819F
S1130AB080931144BEC080914844853108F077C0CA
S1130AC0809147448823E1F48091454490914644C1
S1130AD0880F991F9C01220F331F220F331F280FE9
S1130AE0391F8A85882F90E0820F931F8093454495
S1130AF090934644809148448F5F809348443DC01E
S1130B0040910E4450910F4480914744882F90E0C7
S1130B10BC01615071098091484491E0980F909311
S1130B204844882F90E0E4E1E69F9001E79F300D70
S1130B301124240F351F820F931F03962A85FC016D
S1130B40208340910E4450910F4480914744882F54
S1130B5090E0BC016150710980914844882F90E075
S1130B60E4E1E69F9001E79F300D1124240F351F27
S1130B70820F931F0396FC01108280911144882FE9
S1130B8090E001968E839F8381E390E08887998724
S1130B902E813F8188859985281739071CF48E8119
S1130BA09F8102C0888599858093114442C01A862A
S1130BB040C08A858F3769F48091454490914644BA
S1130BC0181619060CF01A861092454410924644E1
S1130BD030C08A85803211F41A862BC010924744A3
S1130BE08A85882F90E080934544909346441982E7
S1130BF089818330B0F420910E4430910F4489816F
S1130C00482F50E064E1649FC001659F900D11245A
S1130C10820F931F0396FC01108289818F5F898361
S1130C20E7CF81E080934444809111448F5F8093A7
S1130C3011448A85882319F08A850E945D5F00002B
S1130C402A96CDBFDEBFDF91CF9108951F920F92F8
S1130C5000903F000F92112400903B000F922F93BD
S1130C603F934F935F936F937F938F939F93AF9330
S1130C70BF93EF93FF93CF93DF93CDB7DEB780910C
S1130C804440882309F045C08091494490914A44E6
S1130C90892B31F40E945F548093494490934A44D1
S1130CA02091494430914A4480914B44882F90E0EC
S1130CB0820F931FFC0180818823A9F080E098E0D3
S1130CC04091494450914A4420914B4431E0320FC1
S1130CD030934B44222F30E0240F351FF90120813B
S1130CE0FC01228316C010924B4480914944909198
S1130CF04A44FC0110820E945F54809349449093BB
S1130D004A448091494490914A44892B11F40E94A9
S1130D10A45580914A40882309F045C080914C44F1
S1130D2090914D44892B31F40E94155D80934C447D
S1130D3090934D4420914C4430914D4480914E44C5
S1130D40882F90E0820F931FFC0180818823A9F0F3
S1130D5080E098E040914C4450914D4420914E44A1
S1130D6031E0320F30934E44222F30E0240F351FF0
S1130D70F9012081FC01228316C010924E44809117
S1130D804C4490914D44FC0110820E94155D809367
S1130D904C4490934D4480914C4490914D44892B04
S1130DA011F40E941E5E0000DF91CF91FF91EF913C
S1130DB0BF91AF919F918F917F916F915F914F916F
S1130DC03F912F910F9000923B000F9000923F00B3
S1130DD00F901F9018951F920F9200903F000F9252
S1130DE0112400903B000F922F933F934F935F93F6
S1130DF06F937F938F939F93AF93BF93EF93FF93DF
S1130E00CF93DF93CDB7DEB780914440843009F0AF
S1130E1045C080914F4490915044892B31F40E94F5
S1130E205F5480934F449093504420914F443091A9
S1130E30504480915144882F90E0820F931FFC010D
S1130E4080818823A9F080E898E040914F44509134
S1130E5050442091514431E0320F30935144222FB9
S1130E6030E0240F351FF9012081FC01228316C0D4
S1130E701092514480914F4490915044FC0110824F
S1130E800E945F5480934F449093504480914F4408
S1130E9090915044892B11F40E94A45580914A40AA
S1130EA0843009F045C08091524490915344892B79
S1130EB031F40E94155D80935244909353442091E1
S1130EC052443091534480915444882F90E0820FCF
S1130ED0931FFC0180818823A9F080E898E0409169
S1130EE05244509153442091544431E0320F309392
S1130EF05444222F30E0240F351FF9012081FC01D6
S1130F00228316C0109254448091524490915344C9
S1130F10FC0110820E94155D8093524490935344C7
S1130F208091524490915344892B11F40E941E5E87
S1130F300000DF91CF91FF91EF91BF91AF919F910D
S1130F408F917F916F915F914F913F912F910F906E
S1130F5000923B000F9000923F000F901F90189555
S1130F601F920F9200903F000F92112400903B00BB
S1130F700F922F933F934F935F936F937F938F932E
S1130F809F93AF93BF93EF93FF93CF93DF931F92FE
S1130F90CDB7DEB70E945771898380914440813078
S1130FA019F489810E94F40780914A40813019F430
S1130FB089810E94A10300000F90DF91CF91FF91DE
S1130FC0EF91BF91AF919F918F917F916F915F91BD
S1130FD04F913F912F910F9000923B000F90009200
S1130FE03F000F901F901895CF93DF931F92CDB7BA
S1130FF0DEB789838091554490915644892B31F40E
S11310000E94ED54809355449093564480915544E6
S113101090915644892B09F466C18981882F90E008
S11310200E94BD7689839091574481E08927882363
S113103039F089818C3521F481E0809357443CC197
S11310409091574481E08927882309F443C089811A
S1131050843219F089818132E9F5109258448091E3
S11310605544909156442981213211F423E001C062
S113107021E0FC0120831092594410925A441092AA
S11310805B4410925C4410925D4481E080935E4422
S113109010925F4480915F448330C8F4209155449A
S11310A03091564480915F44482F50E065E1649F3D
S11310B0C001659F900D1124820F931F0396FC01BC
S11310C0108280915F448F5F80935F44E3CF1092DE
S11310D05F44F2C080915E44882309F4D0C09091AB
S11310E0574481E08927882309F475C089818C32AB
S11310F039F089818B3321F089818F3309F06BC0FA
S113110080915F448823E1F04091554450915644C6
S113111080915F44882F90E0BC01615071098091F7
S11311205944882F90E0E5E1E69F9001E79F300D58
S11311301124240F351F820F931F0396FC01108284
S113114080915F448F5F80935F44109259448981FA
S11311508B33B1F480915844843078F02091554415
S11311603091564480915A4490915B44A0915C44E0
S1131170B0915D44F9018183928310925E441FC053
S113118089818F33E1F4809155449091564422E053
S1131190FC01208380915844833078F02091554499
S11311A03091564480915A4490915B44A0915C44A0
S11311B0B0915D44F9018183928310925E449091D1
S11311C05E4481E08927882309F476C0109255444F
S11311D01092564471C080915F44882361F58091D8
S11311E05A4490915B44A0915C44B0915D44880F53
S11311F0991FAA1FBB1F9C01AD01220F331F441F5F
S1131200551F220F331F441F551F280F391F4A1F14
S11312105B1F8981882F90E0A0E0B0E0820F931FCC
S1131220A41FB51F80935A4490935B44A0935C44DD
S1131230B0935D4421C040915544509156448091EF
S11312405F44882F90E0BC0161507109809159443A
S113125091E0980F90935944882F90E0E5E1E69F40
S11312609001E79F300D1124240F351F820F931F27
S113127003962981FC012083109257441DC0898163
S11312808D30D1F48091554490915644FC011182E3
S1131290128282E3809358441092594410925A4423
S11312A010925B4410925C4410925D4410925F442F
S11312B010925544109256449091574481E08927E6
S11312C0882389F0809158448F5F8093584490918B
S11312D0584481E0923308F480E0882321F010928E
S11312E05E441092584400000F90DF91CF9108950E
S11312F01F920F9200903F000F92112400903B0028
S11313000F922F933F934F935F936F937F938F939A
S11313109F93AF93BF93EF93FF93CF93DF93CDB797
S1131320DEB780914A40813009F045C08091604425
S113133090916144892B31F40E94155D809360443F
S1131340909361442091604430916144809162445F
S1131350882F90E0820F931FFC0180818823A9F0DD
S113136080E298E04091604450916144209162444D
S113137031E0320F30936244222F30E0240F351FC6
S1131380F9012081FC01228316C0109262448091ED
S1131390604490916144FC0110820E94155D809329
S11313A06044909361448091604490916144892B9E
S11313B011F40E941E5E80914440813009F045C0C2
S11313C08091634490916444892B31F40E945F546A
S11313D080936344909364442091634430916444C3
S11313E080916544882F90E0820F931FFC018081D7
S11313F08823A9F080E298E04091634450916444CA
S11314002091654431E0320F30936544222F30E05F
S1131410240F351FF9012081FC01228316C010928C
S113142065448091634490916444FC0110820E945D
S11314305F54809363449093644480916344909197
S11314406444892B11F40E94A4550000DF91CF91CC
S1131450FF91EF91BF91AF919F918F917F916F9188
S11314605F914F913F912F910F9000923B000F900D
S113147000923F000F901F901895CF93DF9300D0F8
S1131480CDB7DEB789836A838A818823A9F020E0F7
S113149030E080E090E0FC018181682F8981482F51
S11314A050E081E090E002C0880F991F4A95E2F76E
S11314B0862BF901818315C020E030E080E090E0C4
S11314C0FC018181682F8981482F50E081E090E000
S11314D002C0880F991F4A95E2F780958623F90187
S11314E0818300000F900F90DF91CF910895CF93E7
S11314F0DF931F92CDB7DEB7898380E090E0FC01D3
S11315008281882F90E02981222F30E002C09595B6
S113151087952A95E2F78170992721E0892B09F4B0
S113152020E0822F0F90DF91CF910895CF93DF9326
S113153000D0CDB7DEB789836A838A818823A9F076
S113154084E090E024E030E0F9012181622F2981D8
S1131550422F50E021E030E002C0220F331F4A95B1
S1131560E2F7262BFC01218315C084E090E024E0FF
S113157030E0F9012181622F2981422F50E021E0DE
S113158030E002C0220F331F4A95E2F7209526234C
S1131590FC01218300000F900F90DF91CF910895FB
S11315A0CF93DF931F92CDB7DEB7898388E090E0B5
S11315B0FC018281882F90E02981222F30E002C033
S11315C0959587952A95E2F78170992721E0892BD3
S11315D009F420E0822F0F90DF91CF910895CF93EB
S11315E0DF931F92CDB7DEB789838CE090E0FC01D6
S11315F08281882F90E02981222F30E002C09595C6
S113160087952A95E2F78170992721E0892B09F4BF
S113161020E0822F0F90DF91CF9108951F920F92B7
S113162000903F000F92112400903B000F922F93E3
S11316303F934F935F936F937F938F939F93AF9356
S1131640BF93EF93FF93CF93DF931F92CDB7DEB792
S113165080E090E0FC01838189838981882F90E078
S113166084709927892B09F48DC00E94F30280911C
S11316702845882309F484C09091134081E0923076
S113168009F080E0882309F450C080919F44909130
S1131690A044A091A144B091A2448827B7FD8395AA
S11316A09927AA27BB27882399F080919F4490917A
S11316B0A044A091A144B091A2440196A11DB11DE2
S11316C080939F449093A044A093A144B093A244D8
S11316D080919F449091A044A091A144B091A244D0
S11316E08B3F9F4FAF4FBF4F9CF480E090E00E9430
S11316F0E0029B01AC018091294590912A45A0917B
S11317002B45B0912C45281739074A075B0710F081
S113171081E001C080E08823A9F11092274510924E
S1131720284581E080932D452DC080E090E00E9403
S1131730E0029B01AC018091294590912A45A0913A
S11317402B45B0912C4561E0281739074A075B0700
S113175008F460E0662341F0109227451092284572
S113176081E080932D450EC080910640882351F07E
S1131770109227451092284582E080932D4502C09F
S11317800E94E00B80E090E02FEFFC012383000037
S11317900F90DF91CF91FF91EF91BF91AF919F9106
S11317A08F917F916F915F914F913F912F910F9006
S11317B000923B000F9000923F000F901F901895ED
S11317C0EF92FF920F931F93CF93DF93CDB7DEB7C2
S11317D06397CDBFDEBF1D821E821F821886809153
S11317E03E4590913F4521E0892B09F420E02223D6
S11317F049F080913E4590913F45019780933E4545
S113180090933F4580912245882309F46BC08091D1
S11318101C4590911D45A0911E45B0911F45892BF3
S11318208A2B8B2B71F09091234581E089278823A3
S113183041F09091A74481E08927882311F081E049
S113184001C080E0882309F44DC080E090E00E944C
S1131850E002DC01CB018D839E83AF83B887809146
S11318601C4590911D45A0911E45B0911F4561E016
S11318702D813E814F815885281739074A075B0718
S113188008F460E0662371F18CEF80939944109220
S11318909F441092A0441092A1441092A24480E06C
S11318A00E948C6D109220451092224581E0809315
S11318B0234582E08093A6440E940C2483E0809315
S11318C013408091A9449091AA448470992721E0FF
S11318D0892B09F420E0222329F01092234581E08A
S11318E08093274580912045882309F401C3809182
S11318F02245882309F44FC28091A3449091A444C3
S113190021E0892B09F420E0222349F08091A344AB
S11319109091A44401978093A3449093A44480910C
S11319209F449091A044A091A144B091A24421E08D
S1131930892B8A2B8B2B09F420E0222309F4D8C2AB
S113194080919F449091A044A091A144B091A2445D
S113195021E0181619061A061B060CF020E02223B3
S113196009F4B9C180919F449091A044A091A144ED
S1131970B091A2440197A109B10980939F44909327
S1131980A044A093A144B093A2448091A344909115
S1131990A444892B41F48091144590911545892BD9
S11319A011F081E001C080E08823E1F180911445C9
S11319B0909115459C0140E050E080919F449091A6
S11319C0A044A091A144B091A24461E02817390732
S11319D04A075B0709F060E0662321F18FEE8093EC
S11319E0994480911140909112408093A344909324
S11319F0A44480910B400E9415218093074090934A
S1131A000840198ACE01419640E050E0BC018FEFB6
S1131A1094E40E94B55781E080932545109259457E
S1131A2010925A4580919F449091A044A091A14462
S1131A30B091A24421E0892B8A2B8B2B09F020E062
S1131A40222309F455C2809125458823E9F0809129
S1131A509F449091A044A091A144B091A2440196C6
S1131A60A11DB11D80939F449093A044A093A144D1
S1131A70B093A2448091594590915A450196809320
S1131A80594590935A4534C280910F40909110402B
S1131A9021E0892B09F420E0222309F403C180E02A
S1131AA00E948C6D80910F409091104020919F4432
S1131AB03091A0444091A1445091A244092E000CBD
S1131AC0AA0BBB0B79018A01E81AF90A0A0B1B0B52
S1131AD0D801C70180939F449093A044A093A1444C
S1131AE0B093A2448091594590915A459C0140E09D
S1131AF050E080919F449091A044A091A144B09162
S1131B00A244820F931FA41FB51F80939F449093F8
S1131B10A044A093A144B093A244109259451092BA
S1131B205A4581E0898B0E94AE289C01CE014196E2
S1131B3040E050E0BC01C9010E94B5578EEF80938C
S1131B40994460E082E495E40E94874E19821A82E7
S1131B501B821C8280E090E00E94E002DC01CB0149
S1131B608D839E83AF83B88780911C4590911D45DA
S1131B70A0911E45B0911F4561E02D813E814F81AA
S1131B805885281739074A075B0708F060E0662381
S1131B90B1F080911C4590911D45A0911E45B091D6
S1131BA01F452D813E814F815885BC01CD010E9486
S1131BB00472DC01CB0189839A83AB83BC832091BB
S1131BC00F403091104080910D4090910E40820F53
S1131BD0931F0F969C01990F440B550B61E089816B
S1131BE09A81AB81BC81281739074A075B070CF03F
S1131BF060E0662309F47CC180910F40909110400D
S1131C00409734F080910940882311F481E001C0A9
S1131C1080E0882309F46CC180910F4090911040BA
S1131C200A97092E000CAA0BBB0B89879A87AB87EE
S1131C30BC872D813E814F81588589859A85AB85E6
S1131C40BC85820F931FA41FB51F809329459093D1
S1131C502A45A0932B45B0932C4582E080931340F2
S1131C6081E0809327451D861E862091A3443091F0
S1131C70A44489859A858901081B190BC8018F879B
S1131C80988B2D853E858F859889281739071CF4F4
S1131C908F85988902C08D859E858093A3449093F7
S1131CA0A44426C180910D4090910E40092E000C51
S1131CB0AA0BBB0B80939F449093A044A093A14490
S1131CC0B093A24480910C400E9415218093074058
S1131CD0909308400DC180919F449091A044A0919D
S1131CE0A144B091A2448827B7FD83959927AA27D8
S1131CF0BB27882309F4FCC080919F449091A044A1
S1131D00A091A144B091A2440196A11DB11D80935C
S1131D109F449093A044A093A144B093A244809183
S1131D209F449091A044A091A144B091A24421E089
S1131D30892B8A2B8B2B09F020E0222309F4D8C0AD
S1131D40109226458DEF8093994480910D40909197
S1131D500E40092E000CAA0BBB0B80939F4490935A
S1131D60A044A093A144B093A24480910C400E944B
S1131D701521809307409093084081E08A8B0E944C
S1131D80AE289C01CE01429640E050E0BC01C9015E
S1131D900E94B557ADC08091184590911945A09106
S1131DA01A45B0911B4521E081309646AE4EBF45A1
S1131DB008F420E0222309F49BC080E090E00E9414
S1131DC0E002DC01CB018D839E83AF83B8878091D1
S1131DD0184590911945A0911A45B0911B4561E0B1
S1131DE02D813E814F815885281739074A075B07A3
S1131DF008F460E0662309F47BC081E00E94E56C8E
S1131E00809116459091174521E0892B09F420E033
S1131E10222371F18EEF809399448091164590911D
S1131E201745919581959109092E000CAA0BBB0BBE
S1131E3080939F449093A044A093A144B093A24460
S1131E40209116453091174580910D4090910E4098
S1131E50820F931F9C018091144590911545A9010F
S1131E60481B590BCA018093A3449093A44439C0DE
S1131E708DEF8093994480910D4090910E40092EEE
S1131E80000CAA0BBB0B80939F449093A044A09397
S1131E90A144B093A24480910D4090910E409C01C6
S1131EA080911445909115457901E81AF90AC70102
S1131EB08093A3449093A44480910C400E941521E4
S1131EC0809307409093084081E08B8B0E94AE285A
S1131ED09C01CE01439640E050E0BC01C9010E9440
S1131EE0B55781E08093224582E495E40E94D84E60
S1131EF09091A64481E0992309F480E08823C1F0FD
S1131F008091A64481508093A6449091A64481E098
S1131F10992309F080E0882309F459C081E00E94E4
S1131F20414880E00E94584888E7809309404FC0A8
S1131F308091A744882361F49091234581E0892707
S1131F40882341F09091244581E08927882311F06A
S1131F5081E001C080E0882399F19091094081E0FB
S1131F60992309F480E0882359F180910940815034
S1131F708093094080910940882341F49091584509
S1131F8081E08927882311F081E001C080E0882363
S1131F90B9F01092A84481E00E94584880E00E9461
S1131FA041481092A74410920A409091134081E056
S1131FB0992309F480E0882319F081E08093274570
S1131FC080910A40882319F081E08093A5440000A1
S1131FD06396CDBFDEBFDF91CF911F910F91FF902C
S1131FE0EF9008951F920F9200903F000F921124DA
S1131FF000903B000F922F933F934F935F936F9307
S11320007F938F939F93AF93BF93EF93FF93CF935C
S1132010DF9300D0CDB7DEB78CE090E0FC01838184
S113202089838981882F90E082709927892BC9F050
S11320300E940C248A839A8181E08927882371F085
S113204090919C4481E0913009F480E0882331F040
S113205081E080939C4481E00E94616D81E08093E3
S113206006408CE090E02FEFFC01238300000F90EA
S11320700F90DF91CF91FF91EF91BF91AF919F911D
S11320808F917F916F915F914F913F912F910F901D
S113209000923B000F9000923F000F901F90189504
S11320A01F920F9200903F000F92112400903B006A
S11320B00F922F933F934F935F936F937F938F93DD
S11320C09F93AF93BF93EF93FF93CF93DF93CDB7DA
S11320D0DEB72997CDBFDEBF80E09BE0FC0186819F
S11320E08B838B81882F90E081709927892B09F449
S11320F00CC380919A4490919B4421E0892B09F46C
S113210020E0222349F080919A4490919B440197C6
S113211080939A4490939B4480915B4590915C4555
S1132120892B69F180915B4590915C45019780937F
S11321305B4590935C4580915B4590915C45892B10
S1132140E9F580913B4590913C45892B41F0809184
S11321503B4590913C45049710F481E001C080E038
S1132160882341F080913B4590913C4580933945CB
S113217090933A4510923B4510923C451FC0809184
S11321803B4590913C4521E0019709F020E0222352
S113219039F08CE291E080935B4590935C450EC0EE
S11321A080913B4590913C4521E0039708F420E061
S11321B0222321F010923B4510923C4587E00E9477
S11321C0D00A982F81E08927882311F1809137451F
S11321D09091384521E0883E934008F020E0222386
S11321E0B9F08091374590913845019680933745F1
S11321F090933845809137459091384521E0883E49
S1132200934008F420E0222319F081E080933D45B7
S11322100E940A2080912045882331F08091224534
S1132220882311F081E001C080E0882309F4BDC057
S113223081E08093204080919F449091A044A0919C
S1132240A144B091A24421E0181619061A061B06EF
S11322500CF020E0222309F47FC080915D45909129
S11322605E45892B09F45EC080915D4590915E4581
S1132270019780935D4590935E4580915D45909173
S11322805E45892B09F075C19E01275F3F4FCE0142
S11322900896A901BC0180E090E00E94B5578093A4
S11322A05F45988581E08927882309F462C189857F
S11322B0882309F45EC18DEF8093994480910C408A
S11322C00E941521809307409093084081E08887FD
S11322D00E94AE289C01CE01089640E050E0BC016B
S11322E0C9010E94B5579E01275F3F4FCE01089652
S11322F0A901BC0180E090E00E94B55780935F453E
S113230080912545882341F080910F4090911040A1
S1132310892B11F081E001C080E080932645109262
S1132320254527C180912645882311F010925F45E9
S113233080915F450E948C6D80915F45682F82E497
S113234095E40E94874E80910740909108408093C5
S11323505D4590935E450DC180919F449091A0444A
S1132360A091A144B091A24421E0892B8A2B8B2B0C
S113237009F020E0222309F4FCC010922645809144
S11323805F45882309F4F5C010925F4580E00E9400
S11323908C6D60E082E495E40E94874E80E00E94A8
S11323A0E56C8EEF80939944E4C08091584588236E
S11323B021F480911F40882311F081E001C080E066
S11323C0882309F4D6C083E495E40E9420328983EB
S11323D01886809120408823A1F01092204083E445
S11323E095E40E940532CE01089640E050E0BC011D
S11323F08BE790E40E94B55781E0898381E0809364
S113240021408981882389F180912140882369F1C1
S11324109091224081E08927882309F4AAC0809101
S11324205F45882369F010925F4580E00E948C6DBF
S113243060E082E495E40E94874E80E00E94E56CAF
S1132440809107409091084080935D4590935E454C
S1132450CE01089640E050E0BC018BE790E40E9476
S1132460B55781E08093224084C01092224080912D
S11324705D4590915E45892B09F464C080915D456A
S113248090915E45019780935D4590935E45809160
S11324905D4590915E45892B09F06BC0CE0108968D
S11324A041E250E4BC0180E090E00E94B557809383
S11324B05F4580912140882369F183E495E40E947B
S11324C02032982F81E08927882321F180910C40C4
S11324D00E941521809307409093084083E495E47B
S11324E00E940C338093604510926145CE0108969A
S11324F040E050E0BC0180E695E40E94B557CE016F
S1132500089641E250E4BC0180E090E00E94B55797
S113251080935F4580911D40813021F480915F4517
S11325200E948C6D80915F45682F82E495E40E943F
S1132530874E809107409091084080935D45909329
S11325405E4517C080911D40813021F480915F4524
S11325500E948C6D80915F45682F82E495E40E940F
S1132560874E809107409091084080935D459093F9
S11325705E459091624581E08927882309F470C003
S11325808FEF809363451A828A818330D8F58A81DC
S1132590882F90E0880F991F895E9F4BFC018081F2
S11325A0918121E0892B09F420E02223A1F08A8182
S11325B0882F90E09C01220F331F295E3F4BF901C5
S11325C02081318121503109880F991F895E9F4BE9
S11325D0FC01208331838A81882F90E0880F991F22
S11325E0895E9F4BFC018081918121E0892B09F058
S11325F020E0222319F08A81809363458A818F5FCA
S11326008A83C2CF8091634588230CF47EC0809175
S11326106345082E000C990B20916345022E000C93
S1132620330B220F331F2A5F3B4BF9012081318189
S1132630880F991F895E9F4BFC0120833183809111
S11326406345082E000C990B8C5E9F4BFC01808126
S11326500E94EE290E94512A81E08093624555C070
S11326600E94662A882309F450C00E947A2A8C8327
S11326709D838C819D810B97C0F18C819D818A3FC4
S11326809F4098F58C819D81809364459093654526
S113269080916345082E000C990B880F991F8F5C5D
S11326A09A4BFC01808191818E839F838091634545
S11326B0082E000C990B825D9A4B21E0FC012083CB
S11326C080916445909165458E839F838091634595
S11326D0082E000C990B880F991F8F5C9A4B2E8142
S11326E03F81FC01208331830EC080916345082E15
S11326F0000C990B880F991F8F5C9A4BFC01808109
S113270091818C839D831092624580E09BE021E05F
S1132710FC01268300002996CDBFDEBFDF91CF9157
S1132720FF91EF91BF91AF919F918F917F916F91A5
S11327305F914F913F912F910F9000923B000F902A
S113274000923F000F901F9018951F920F920090D7
S11327503F000F92112400903B000F922F933F9360
S11327604F935F936F937F938F939F93AF93BF9395
S1132770EF93FF93CF93DF931F92CDB7DEB788E03B
S113278090E0FC0183818983898188230CF05BC0FC
S113279080912845882361F010922745109228459E
S11327A00E940C2483E080932D451092244547C059
S11327B0809137459091384521E0069708F420E050
S11327C02223E9F11092A9441092AA4482E495E4E8
S11327D00E94624E982F81E08927882319F00E9475
S11327E00C242DC087E00E94D00A882349F08091F0
S11327F03B4590913C45019680933B4590933C45E5
S113280010923745109238450E947D488823A1F0E4
S113281088E0EDE7F0E4A6E6B4E401900D928A9531
S1132820E1F746E654E465E870E481E00E942C5741
S113283085E08093094003C082E08093A64410920F
S113284037451092384588E090E02FEFFC01238350
S113285000000F90DF91CF91FF91EF91BF91AF9165
S11328609F918F917F916F915F914F913F912F91A4
S11328700F9000923B000F9000923F000F901F902A
S11328801895CF93DF93CDB7DEB780E00E94E56C57
S113289060E087E00E943D0A60E084E00E94960ABE
S11328A00000DF91CF910895CF93DF93CDB7DEB7CA
S11328B080E00E94E56C61E084E00E94960A61E099
S11328C087E00E943D0A0000DF91CF910895CF93E5
S11328D0DF931F92CDB7DEB789838981882329F0DE
S11328E061E081E00E943D0A04C060E081E00E9452
S11328F03D0A00000F90DF91CF910895CF93DF93AD
S1132900CDB7DEB781E00E94770A882F90E021E0FE
S1132910181619060CF020E0822FDF91CF9108954C
S1132920CF93DF93CDB7DEB72C97CDBFDEBF0E9428
S11329300F0341E060E082E495E40E94A94F0E9405
S1132940541481E00E9467148CE495E40E946E4460
S11329508CE495E40E94603F81E00E94584881E045
S11329600E94414860E070E0CB010E945E6A68EE1C
S113297073E080E090E00E945E6A882349F00E9440
S11329806F48982F81E08927882311F081E001C0E6
S113299080E0882309F0EBCF0E946F48882321F060
S11329A080E00E94414813C080E00E94414881E0D9
S11329B00E9458481092A644109209408091A9445C
S11329C09091AA4484608093A9449093AA440E945D
S11329D0C26E982F81E0992309F480E0882381F066
S11329E00E94F96D982F81E08927882349F080910E
S11329F0A9449091AA4482608093A9449093AA44E4
S1132A0060E070E0CB010E945E6A68EE73E080E0F3
S1132A1090E00E945E6A882309F0F7CF0E94BF23EA
S1132A20898360E070E0CB010E945E6A68E57BE127
S1132A3080E090E00E945E6A882329F089818C3FBF
S1132A4011F481E001C080E0882321F00E94BF23BB
S1132A508983ECCF89818C3F51F48091A944909172
S1132A60AA4481608093A9449093AA4419C0CE01DA
S1132A700A960E949435DC01CB018A839B83AC8344
S1132A80BD838A85882341F48A819B81AC81BD8181
S1132A90BC01CD010E94D4020E94442980932145A7
S1132AA083E08093A6440E94582080939D440E9412
S1132AB0C3178091394590913A4521E0892B09F457
S1132AC020E02223F1F08091394590913A4521E0AC
S1132AD0019709F020E0222321F082E00E945A2489
S1132AE00CC08091394590913A4521E0029709F054
S1132AF020E0222311F00E943424109239451092D0
S1132B003A45809137459091384521E0883E93407D
S1132B1008F420E0222359F068E082E495E40E945E
S1132B20934F67E082E495E40E94934F32C083E4BC
S1132B3095E40E942032882361F18091A944909108
S1132B40AA4421E0892B09F420E0222331F069E032
S1132B5082E495E40E94934F1CC00E940C2480914F
S1132B602145882339F069E870E482E495E40E9401
S1132B70194F0FC080912045882331F061E082E431
S1132B8095E40E94934F05C063E082E495E40E94BB
S1132B90934F80913E4590913F4521E0892B09F068
S1132BA020E0222339F10E94862A8E839F838E811E
S1132BB09F8189339F4FC4F08E819F81863991050F
S1132BC09CF40E947E14882341F08E819F814F974C
S1132BD05CF480E00E94671407C08E819F81839714
S1132BE01CF081E00E9467148AE090E080933E45E7
S1132BF090933F4580913D45882389F010923D454F
S1132C0080912045882319F00E94342403C081E078
S1132C108093234568E082E495E40E94EA4E809123
S1132C209D44882341F110929D441B86CE010B964E
S1132C300E946F21809398449091094081E09923E8
S1132C4009F480E08823B9F0809109408C878AE0F8
S1132C5090E0888799878C85282F30E0888599852E
S1132C602817390724F08C85882F90E002C08885C6
S1132C7099858093094080919E44882321F0109285
S1132C809E440E9434248091A544882361F11092CB
S1132C90A54480E090E00E94E002DC01CB012B2FF0
S1132CA02F932A2F2F93292F2F938F938DE890E41E
S1132CB0892F8F938DE890E48F9386E694E4892F8F
S1132CC08F9386E694E48F930E940A772DB73EB7DC
S1132CD0285F3F4FCDBFDEBF46E654E461E970E4B0
S1132CE083E00E942C579091984481E0992309F441
S1132CF080E0882331F180919844882F90E0292F37
S1132D002F938F9385E990E4892F8F9385E990E43D
S1132D108F9386E694E4892F8F9386E694E48F93C9
S1132D200E940A770F900F900F900F900F900F90C2
S1132D3046E654E468E970E483E00E942C5710925C
S1132D4098449091994481E0992309F480E0882380
S1132D5031F180919944882F90E0292F2F938F93FC
S1132D6085E990E4892F8F9385E990E48F9386E633
S1132D7094E4892F8F9386E694E48F930E940A77D4
S1132D800F900F900F900F900F900F9046E654E421
S1132D906BE970E483E00E942C571092994480916F
S1132DA02345882309F441C08091A844882369F10C
S1132DB01092234581E08093244580919944882F83
S1132DC090E0292F2F938F9385E990E4892F8F9397
S1132DD085E990E48F9386E694E4892F8F9386E6C1
S1132DE094E48F930E940A770F900F900F900F90A6
S1132DF00F900F904EE950E465E870E483E00E9480
S1132E002C5783E08093134010C08091094088239D
S1132E1031F48091A644882311F481E001C080E05C
S1132E20882319F081E08093A6448091064088238A
S1132E30D1F0109206400E940C24882311F082E005
S1132E4001C081E080939C4490919C4481E0913046
S1132E5009F080E0882321F081E00E94616D03C0C5
S1132E6080E00E94616D80912745882309F41FCE7C
S1132E7060E082E495E40E94934F0E9468560E94A9
S1132E80906E81E00E94584880E00E9441480E9470
S1132E90411480E00E9467140E946C35109224450E
S1132EA082E00E94DC6981E0809328458091274577
S1132EB0882301F180E590E020E530E0F9012081EC
S1132EC0297F2260FC012083F89480E590E020E5CE
S1132ED030E0F90120812160FC01208378948895F9
S1132EE080E590E020E530E0F90120812E7FFC01AF
S1132EF02083DCCF109228450E940F030E945414B3
S1132F000E94C26E80912D45833041F080912D4501
S1132F10823021F080912D45882311F481E001C095
S1132F2080E0882341F00E940C240E949D5682E098
S1132F308093A64420C090912D4581E0913009F002
S1132F4080E08823C1F081E00E94E56C90912045E7
S1132F5081E08927882379F00E94582080939D443A
S1132F6090919D4481E08927882329F00E949D56F1
S1132F7082E08093A6440E944429809321458DEEEB
S1132F808093994494CD0F931F93CF93DF93CDB740
S1132F90DEB7E797CDBFDEBF81E089830E94355558
S1132FA08C879D8721E08C859D85892B09F420E001
S1132FB0222311F40C9401208C859D85FC018181D0
S1132FC092818E879F878E859F85813DFEE19F0735
S1132FD009F4E8C6823D2EE1920708F03DC084382A
S1132FE0E3E09E0709F407C38538F3E09F07D0F4B4
S1132FF0853123E0920709F424C28631E3E09E0779
S113300030F48435910509F4C0C50C94D41F8E3175
S1133010F3E09F0709F47CC48136934009F498C611
S11330200C94D41F863AECE19E0709F438C7873A1A
S1133030FCE19F0730F48F3A934009F44AC00C94A2
S1133040D41F8831EDE19E0709F4B4C782389E414C
S113305009F40FC10C94D41F8A3923E2920709F4AE
S113306004C18B39E3E29E07D0F48E36F1E29F0768
S113307009F4A0C78F3621E2920730F487359042D5
S113308009F44BC00C94D41F8D3AF2E29F0709F463
S11330905EC1813C924209F4CFC10C94D41F803D9F
S11330A0E3E29E0709F4A2C4813DF3E29F0730F4F2
S11330B08F3C934209F453C70C94D41F873FE3E237
S11330C09E0709F436C38C39944209F465C70C94FD
S11330D0D41F8C859D85FC018381882309F46CC7EA
S11330E08C859D8503960E94787621E0892B09F4CE
S11330F020E0288B0E9434240E94685610920940D4
S113310010921340988981E08927882309F454C7D1
S113311080E00E9441480C94DC1F1092204581E01D
S1133120809358458C859D85FC018381882309F40F
S113313045C78C859D850396898B9A8B89899A8945
S11331400E94D5768B8B9C8B809158458D8B8B8977
S11331509C890297B9F489899A89FC0180818C350C
S113316089F489899A890196FC018081823451F419
S11331701092584583E495E40E94C1328D8980936E
S113318058451CC78B899C890297ACF11A821B8213
S11331901092584583E495E40E944432982F81E0CC
S11331A08927882369F02A813B818B899C89281788
S11331B0390734F48A819B81459714F481E001C076
S11331C080E08823A1F08A819B819C012F5F3F4F7F
S11331D02A833B832C853D85820F931F0396FC0134
S11331E08081682F83E495E40E945432D3CF8D8983
S11331F080935845E3C68C859D85FC0183818E8B25
S11332008E898B3569F481E00E94E56C41E067E0CA
S113321082E495E40E94A94F81E00E94FE6CCEC630
S11332208E898D3569F480E00E94FE6C80E00E94F6
S1133230E56C41E061E082E495E40E94A94FBEC6DA
S11332408E898E3539F40E943424109209401092EC
S11332501340B4C6109258456E8983E495E40E94E5
S113326054328D8980935845A9C682E00E940A2170
S1133270FFCF8C859D85FC0183818F8B81E08093BA
S11332800A408F898A3521F488E78093094098C6DB
S11332908F898033C9F581E08093A84480E090E071
S11332A00E94E002DC01CB012B2F2F932A2F2F93B6
S11332B0292F2F938F938DE890E4892F8F938DE896
S11332C090E48F9386E694E4892F8F9386E694E4C2
S11332D08F930E940A778DB79EB70896CDBFDEBF45
S11332E046E654E461E970E483E00E942C5780913F
S11332F02445882309F464C64EE950E465E870E483
S113330083E00E942C575CC68F89823379F481E074
S11333108093A6449091204581E08927882319F061
S113332081E080939D440E940C244AC68F89833394
S113333009F046C61092A64481E080930940109299
S1133340244510920A4081E08093A74439C68C85B5
S11333509D85FC018381882309F434C68C859D8571
S1133360FC0183818D3481F48C859D85FC01808DE5
S1133370882351F08C859D8548960E9478768093A9
S113338066459093674509C08C859D8503960E9488
S1133390787680936645909367450E94EE6D9C0114
S11333A0809166459091674541E02817390709F4F3
S11333B040E04423B9F160E070E086E695E40E94C1
S11333C0026E888F888D882321F0888D809398449D
S11333D005C0809168458F5F8093684580916645FC
S11333E090916745292F2F938F938DE192E4892F34
S11333F08F938DE192E48F9386E694E4892F8F93E3
S113340086E694E48F930E940A770F900F900F90B2
S11334100F900F900F9046E654E462E272E483E06A
S11334200E942C578091404590914145806480933F
S1133430404590934145C6C58CE495E40E94833E83
S1133440D2C58C859D85FC018381898F898D8133CB
S113345021F0898D823309F0BCC080919C44823074
S113346041F090915A4081E08927882311F081E04E
S113347001C080E0882321F087EF80939844B9C08D
S1133480898D813309F069C080919C44823021F098
S113349080915A40882311F081E001C080E08823A4
S11334A009F457C01092204581E00E94E56C81E048
S11334B08AABCE01C29640E050E0BC018BEA94E4B2
S11334C00E94B55780910C400E94152180930740BB
S11334D09093084081E090E0A0E0B0E0809318452C
S11334E090931945A0931A45B0931B458FEF9FEF16
S11334F0DC0180931C4590931D45A0931E45B09319
S11335001F458FE097E280930D4090930E401092F8
S11335100F40109210408FE097E2A0E0B0E080935B
S11335209F449093A044A093A144B093A2448FEFEE
S11335309FEF8093A3449093A44481E08093224519
S113354081E0809320458DEF809399440E940C2460
S113355050C087EF809398444CC0898D823309F022
S113356048C00E9444298093214580914045909110
S113357041458F3F9F4021F08DEC8093984439C0A2
S113358080916845882351F080912045882311F06B
S11335900E9434248CE495E40E94833E909120455B
S11335A081E08927882359F01BAACE01C3960E9483
S11335B06F218093984482E08093A64403C08CE3F7
S11335C080930940109268451092404510924145FD
S11335D010C0898D803309F0F7C4109268451092A9
S11335E04045109241458CEE809399441092584581
S11335F0EBC40000E9C41C821D821E821F828C85DC
S11336009D85FC018381833509F04BC08C859D85A4
S1133610FC01808D882359F08C859D8548960E94F5
S11336209676DC01CB018C839D83AE83BF8380912E
S1133630184590911945A0911A45B0911B4561E038
S11336402C813D814E815F81281739074A075B072A
S113365009F460E06623D9F08C819D81AE81BF813D
S11336608093184590931945A0931A45B0931B4530
S113367080E090E00E949435DC01CB01BC01CD01D7
S11336800E94D402809168458F5F80936845809141
S113369040459091414598608093404590934145C1
S11336A095C48C859D85FC018381863409F08EC484
S11336B08C859D85FC01808D882359F08C859D85A2
S11336C048960E949676DC01CB018C839D83AE8361
S11336D0BF8380911C4590911D45A0911E45B091DA
S11336E01F4561E02C813D814E815F812817390798
S11336F04A075B0709F460E0662389F08C819D81A9
S1133700AE81BF8180931C4590931D45A0931E45B7
S1133710B0931F45809168458F5F80936845809181
S11337204045909141458160809340459093414547
S11337304DC481E080930A408C859D85FC01808185
S1133740813009F04AC08C859D85FC0183818823E2
S1133750D1F08C859D85039644E150E0BC0186E65A
S113376094E40E94DE7660E086E694E40E946E377C
S113377080E090E00E949435DC01CB01BC01CD01D6
S11337800E94D40225C480E090E00E94E002DC01A3
S1133790CB012B2F2F932A2F2F93292F2F938F93E6
S11337A08DE890E4892F8F938DE890E48F9386E6DB
S11337B094E4892F8F9386E694E48F930E940A778A
S11337C08DB79EB70896CDBFDEBF46E654E461E9E7
S11337D070E483E00E942C57FBC38C859D85FC011B
S11337E08081823009F0F4C38C859D85FC0183813E
S11337F08835C9F51A8E8C859D85FC01808D8823BA
S113380051F08C859D8548960E9478768A8F8A8DA2
S11338100E94C638DDC30E94F5388A8F8A8D082E2F
S1133820000C990B292F2F938F9386E292E4892F12
S11338308F9386E292E48F9386E694E4892F8F93A4
S113384086E694E48F930E940A770F900F900F906E
S11338500F900F900F9046E654E461E970E483E022
S11338600E942C57B5C380E090E00E949435DC019F
S1133870CB018B8F9C8FAD8FBE8F8B8D9C8DAD8D2F
S1133880BE8DBC01CD010E94D40280916945909106
S11338906A45A0916B45B0916C452B8D3C8D4D8D47
S11338A05E8D281739074A075B0709F491C38E8D8B
S11338B08F938D8D8F938C8D8F938B8D8F938DE8BC
S11338C090E4892F8F938DE890E48F9386E694E4B7
S11338D0892F8F9386E694E48F930E940A778DB79D
S11338E09EB70896CDBFDEBF46E654E461E970E4B6
S11338F083E00E942C578B8D9C8DAD8DBE8D809363
S1133900694590936A45A0936B45B0936C4560C339
S11339108C859D85FC018081813009F03FC08C85B8
S11339209D85FC018381882301F18C859D85039607
S1133930BC018FEF94E40E94CC76892B29F18C850D
S11339409D85039644E150E0BC018FEF94E40E940E
S1133950DE760E945B2880931445909315458091F0
S113396068458F5F809368450FC08091FF4488232A
S113397059F01092FF44109214451092154580910D
S113398068458F5F8093684580914045909141459B
S1133990916080934045909341451CC38091FF44BE
S11339A0882309F417C38FEF94E4892F8F938FEF43
S11339B094E48F938BE292E4892F8F938BE292E4C9
S11339C08F9386E694E4892F8F9386E694E48F930D
S11339D00E940A770F900F900F900F900F900F9006
S11339E086E694E40E94CF561982F4C280910C407A
S11339F08F8F8C859D85FC018381893409F060C09B
S1133A008C859D85FC01808D882309F4E5C28C8515
S1133A109D8548960E949676DC01CB0188A399A3E4
S1133A20AAA3BBA385E08CA384E18DA38DA1282F39
S1133A3030E040E050E088A199A1AAA1BBA12817D9
S1133A4039074A075B0734F48DA1882F90E0A0E082
S1133A50B0E010C08CA1882F90E0A0E0B0E028A1D5
S1133A6039A14AA15BA182179307A407B50714F4EF
S1133A70DA01C9018F8F90910B4081E02F8D2917B6
S1133A8009F480E0882391F08F8D80930B4080911E
S1133A9068458F5F809368458091FF44882331F0A7
S1133AA00E945B288093144590931545809140456E
S1133AB090914145926080934045909341458CC2DA
S1133AC08C859D85FC018381803509F085C28C85B8
S1133AD09D85FC01808D882309F47EC28C859D859B
S1133AE048960E949676DC01CB018EA39FA3A8A7DB
S1133AF0B9A785E08AA784E18BA78BA5282F30E09E
S1133B0040E050E08EA19FA1A8A5B9A528173907C8
S1133B104A075B0734F48BA5882F90E0A0E0B0E05F
S1133B2010C08AA5882F90E0A0E0B0E02EA13FA1AC
S1133B3048A559A582179307A407B50714F4DA0119
S1133B40C9018F8F90910C4081E02F8D291709F4C2
S1133B5080E0882381F08F8D80930C4080916845AC
S1133B608F5F8093684580910C400E94152180935B
S1133B70074090930840809140459091414594605E
S1133B80809340459093414527C21CA61DA68C8571
S1133B909D85FC018381803391F58C859D85FC0195
S1133BA0808D882309F41AC28C859D8548960E94CD
S1133BB09676DC01CB018CA79DA780910F40909154
S1133BC0104041E02CA53DA52817390709F440E031
S1133BD0442359F08CA59DA580930F4090931040E9
S1133BE0809168458F5F80936845809140459091AE
S1133BF0414584608093404590934145EFC18C8555
S1133C009D85FC018381813391F58C859D85FC0123
S1133C10808D882309F4E2C18C859D8548960E9495
S1133C209676DC01CB018CA79DA780910D409091E5
S1133C300E4041E02CA53DA52817390709F440E0C2
S1133C40442359F08CA59DA580930D4090930E407C
S1133C50809168458F5F809368458091404590913D
S1133C60414588608093404590934145B7C18C8518
S1133C709D85FC018381893491F58C859D85FC01AA
S1133C80808D882309F4AAC18C859D8548960E945D
S1133C909676DC01CB018CA79DA780911140909171
S1133CA0124041E02CA53DA52817390709F440E04E
S1133CB0442359F08CA59DA5809311409093124004
S1133CC0809168458F5F80936845809140459091CD
S1133CD04145806280934045909341457FC18C85E6
S1133CE09D85FC018381843409F078C18C859D8590
S1133CF0FC01808D882309F471C18C859D854896CB
S1133D000E949676DC01CB018CA79DA78091164575
S1133D109091174541E02CA53DA52817390709F4D2
S1133D2040E0442359F08CA59DA5809316459093BB
S1133D301745809168458F5F809368458091404521
S1133D40909141458061809340459093414546C19F
S1133D508C859D85FC018381882309F441C18C8570
S1133D609D850396BC018BEA94E40E94CC76892B52
S1133D7079F08C859D85039644E150E0BC018BEA83
S1133D8094E40E94DE76809168458F5F8093684555
S1133D908091404590914145826080934045909345
S1133DA041451EC1188619861A861B868C859D85F9
S1133DB0FC0183818823E9F18C859D8503960E940B
S1133DC09676DC01CB018CAB9DABAEABBFAB0E9456
S1133DD0D46C9B01AC018CA99DA9AEA9BFA961E0DB
S1133DE0281739074A075B0709F460E06623B9F02E
S1133DF0CE01C49661E00E94826C982F81E08927ED
S1133E00882369F08CA99DA9AEA9BFA98887998741
S1133E10AA87BB87809168458F5F809368458091AE
S1133E204045909141458068809340459093414539
S1133E3008C00E94D46CDC01CB0188879987AA87CB
S1133E40BB8788859985AA85BB85892B8A2B8B2B73
S1133E5009F4C8C08B858F938A858F9389858F9346
S1133E6088858F9384E392E4892F8F9384E392E48B
S1133E708F9386E694E4892F8F9386E694E48F9358
S1133E800E940A778DB79EB70896CDBFDEBF46E67F
S1133E9054E469E372E483E00E942C57A3C0809148
S1133EA0314590913245CC01A0E0B0E0BC01CD0198
S1133EB00E947773DC01CB018EA79FA7A8ABB9AB97
S1133EC020E030E04CE253E46EA57FA588A999A9CF
S1133ED00E942E74DC01CB018EA79FA7A8ABB9ABBF
S1133EE02FE632E143E05AE36EA57FA588A999A99C
S1133EF00E942E74DC01CB018EA79FA7A8ABB9AB9F
S1133F0020E030E040E85FE36EA57FA588A999A989
S1133F100E945E72DC01CB018EA79FA7A8ABB9AB50
S1133F208EA59FA5A8A9B9A906E614E420E044E05B
S1133F30BC01CD010E94377510926B446DE372E4AD
S1133F4086E694E40E947B5780E090E00E949435DA
S1133F50DC01CB01BC01CD010E94D40244C00E940B
S1133F60862A092E000CAA0BBB0BBC01CD010E94B2
S1133F707973DC01CB0106E614E421E044E0BC01E2
S1133F80CD010E94377510926B4462E472E486E6B8
S1133F9094E40E947B5727C047E452E46CE472E443
S1133FA083E00E942C571FC0198280E592E40E948E
S1133FB0CF5619C0000017C0000015C0000013C080
S1133FC0000011C000000FC000000DC000000BC0B5
S1133FD0000009C0000007C0000005C0000003C0C5
S1133FE0000001C000008981882321F086E592E465
S1133FF00E94CF568C859D85FC01118212820C94FF
S1134000CE170000E796CDBFDEBFDF91CF911F91A1
S11340100F910895CF93DF931F92CDB7DEB70E941F
S11340200C248983998181E08927882391F09091D8
S11340309C4481E0913009F480E0882331F081E0F0
S113404080939C4481E08093064083E080932340E6
S113405027C090919C4481E0923009F480E0882349
S1134060F9F080916D4599819817B9F480912340B6
S11340708823B1F080912340815080932340809124
S11340802340882369F482E080939C4481E08093F8
S1134090064083E08093234003C083E08093234061
S11340A0898180936D4500000F90DF91CF91089531
S11340B0CF93DF93CDB7DEB72897CDBFDEBF209176
S11340C018453091194540911A4550911B458091EE
S11340D01C4590911D45A0911E45B0911F45BC0102
S11340E0CD010E940472DC01CB0189839A83AB83E6
S11340F0BC8380E090E00E94E002DC01CB018D8370
S11341009E83AF83B88720911C4530911D45409113
S11341101E4550911F458D819E81AF81B885BC019C
S1134120CD010E940472DC01CB0189839A83AB83A5
S1134130BC831092274589819A81AB81BC81BB23C2
S11341409CF083E0809313408FEF9FEFDC0180931A
S1134150294590932A45A0932B45B0932C4582E0A2
S11341608093A64480E050C081E00E94E56C2091D9
S113417018453091194540911A4550911B458D8140
S11341809E81AF81B885BC01CD010E940472DC011F
S1134190CB0189839A83AB83BC8389819A81AB8168
S11341A0BC81823E9F4FAF4FBF4FBCF01092134073
S11341B08091184590911945A0911A45B0911B45DD
S11341C00597A109B1098093294590932A45A093A5
S11341D02B45B0932C4581E017C0809118459091F0
S11341E01945A0911A45B0911B450597A109B1093C
S11341F08093294590932A45A0932B45B0932C4551
S113420081E08093134081E02896CDBFDEBFDF912B
S1134210CF910895CF93DF931F92CDB7DEB78983F3
S113422000000F90DF91CF910895CF93DF93CDB726
S1134230DEB72A97CDBFDEBF8A878A85898385E06A
S113424090E08A839B8384E190E08C839D838981C1
S1134250282F880F330B8C819D81821793075CF084
S11342608981082E000C990B2A813B8182179307C0
S113427024F4C90102C08C819D818A878A85282FF4
S113428030E040E050E088ED9DE0A0E0B0E0BC010B
S1134290CD010E94F574DA01C9012AE030E040E062
S11342A050E0BC01CD010E94F574DA01C901BC01E2
S11342B0CD010E947973DC01CB018E839F83A88793
S11342C0B9876E817F81888599850E944873DC0156
S11342D0CB012A96CDBFDEBFDF91CF910895CF9356
S11342E0DF9300D01F92CDB7DEB78A839B8380E033
S11342F090E00E949435DC01CB01BC01CD010E9409
S1134300D4028A819B810E94A42189838A819B8112
S1134310FC018081882331F08A819B81FC018081AA
S1134320809399448981882321F0898180939844DA
S113433004C00E9458208093204589812396CDBFD4
S1134340DEBFDF91CF910895CF93DF93CDB7DEB772
S11343506397CDBFDEBF8A8B9B8B8091184590916C
S11343601945A0911A45B0911B4521E0892B8A2B50
S11343708B2B09F020E0222311F08CECFAC1209160
S113438018453091194540911A4550911B4580912B
S11343901C4590911D45A0911E45B0911F4561E0BB
S11343A0281739074A075B0708F460E0662311F011
S11343B08DECDFC180910D4090910E4021E0892B5E
S11343C009F020E0222311F08BECD3C120910F409F
S11343D03091104080910D4090910E40280F391F6C
S11343E0809116459091174541E0281739070CF044
S11343F040E0442311F08AECBCC18091AB44882393
S113440011F489ECB6C190910C4081E0992309F034
S113441080E0882311F088ECACC18091FF448823AC
S1134420C1F080910B40882331F08091114090912C
S11344301240892B11F481E001C080E0882311F03F
S113444087EC97C10E945B2880931445909315458F
S113445004C0109214451092154580E090E00E942B
S1134460E002DC01CB018A839B83AC83BD83209172
S11344701C4530911D4540911E4550911F4561E0FA
S11344808A819B81AC81BD81281739074A075B0764
S113449008F060E0662359F08A899B89892B09F426
S11344A067C18A899B892AEFFC01208361C120911D
S11344B018453091194540911A4550911B458A8100
S11344C09B81AC81BD81BC01CD010E940472DC01E1
S11344D0CB018E839F83A887B9878E819F81A8850E
S11344E0B985BB230CF436C1198220910D4030915B
S11344F00E4080910F4090911040820F931F8A8745
S11345009B878A859B859C01990F440B550B8E8153
S11345109F81A885B985BC01CD010E94F574DC0199
S1134520CB018C879D8720911645309117458C854A
S11345309D85A901481B590BCA018E879F878E85CB
S11345409F85181619060CF4A8C08E859F8522270E
S11345503327281B390B80910D4090910E4041E088
S1134560281739070CF440E0442309F441C02A8594
S11345703B858E859F85820F931F91958195910927
S1134580092E000CAA0BBB0B80939F449093A0446C
S1134590A093A144B093A2448A899B89892B29F0D2
S11345A08A899B892EEFFC0120839091204581E02C
S11345B08927882309F4A6C080910D4090910E406C
S11345C09C0180919F449091A044A091A144B091FA
S11345D0A244281B390B8091144590911545A901DB
S11345E0481B590BCA018093A3449093A4448AC0E6
S11345F020910D4030910E408E859F85820F931F30
S1134600092E000CAA0BBB0B80939F449093A044EB
S1134610A093A144B093A24481E089838A899B89B1
S1134620892B29F08A899B892DEFFC0120839091A5
S1134630204581E08927882309F464C080911445CA
S1134640909115459C0140E050E080919F449091E9
S1134650A044A091A144B091A24461E02817390775
S11346604A075B070CF060E0662309F44BC08091B5
S11346709F449091A044A091A144B091A2449C0174
S11346808091144590911545A901481B590BCA0105
S11346908093A3449093A44435C08E859F859195BF
S11346A081959109092E000CAA0BBB0B80939F44A2
S11346B09093A044A093A144B093A2448A899B8977
S11346C0892B29F08A899B892EEFFC012083909104
S11346D0204581E089278823A9F020910D4030915D
S11346E00E408E859F85820F931F9C0180911445F7
S11346F090911545A901481B590BCA018093A34405
S11347009093A44489818823E1F080912045888B8B
S11347101092204581E0898BCE01419640E050E023
S1134720BC018BEA94E40E94B55780910C400E942E
S113473015218093074090930840888980932045F1
S113474003C080E00E948C6D81E0809322450E942A
S11347500C240CC08A899B89892B29F08A899B891E
S11347602FEFFC01208380E00E948C6D1092244581
S113477080E06396CDBFDEBFDF91CF910895CF93E4
S1134780DF931F92CDB7DEB781E0898360E070E0EC
S1134790CB010E945E6A68EE73E080E090E00E94C4
S11347A05E6A882329F08981882311F081E001C0A1
S11347B080E0882321F00E9486358983ECCF99819B
S11347C081E08927882309F181E0898360E070E032
S11347D0CB010E945E6A68EE73E080E090E00E9484
S11347E05E6A882329F08981882311F081E001C061
S11347F080E0882329F081E00E9492388983EBCFFE
S11348008981882321F08CEF03C08CEF01C080E004
S11348100F90DF91CF910895CF93DF931F92CDB77F
S1134820DEB781E00E94EF0A89838091A9449091C8
S1134830AA4421E0892B09F020E0222371F0898128
S1134840882331F062E082E495E40E94934F05C02E
S113485068E082E495E40E94934F998181E089277E
S11348600F90DF91CF910895CF93DF931F92CDB72F
S1134870DEB71092204510929F441092A0441092EB
S1134880A1441092A2441092224580E00E948C6DB3
S113489080E00E94E56C198240E050E0CE01019670
S11348A0BC018BE790E40E94B55700000F90DF91A4
S11348B0CF910895CF93DF9300D0CDB7DEB78A832D
S11348C00E94C12789838A81882369F4898182307F
S11348D029F460E085E10E94B3243FC063E085E1F0
S11348E00E94B3243AC08A818230D9F4898182300B
S11348F029F461E085E10E94B3242FC089818130CD
S113490031F08981843019F08981833029F461E0A0
S113491085E10E94B32421C063E085E10E94B324B1
S11349201CC08981823029F461E085E10E94B324AE
S113493014C08981813029F462E085E10E94B324A6
S11349400CC08981843029F463E085E10E94B3249A
S113495004C063E085E10E94B32400000F900F902F
S1134960DF91CF910895CF93DF93CDB7DEB72A9728
S1134970CDBFDEBF89876A8781E0898389858531D8
S113498019F40E94842889871092204510922245A8
S113499060E082E495E40E94874E80E090E00E940B
S11349A09435DC01CB01BC01CD010E94D402898580
S11349B0882F90E0092E000CAA0BBB0B41E050E0BD
S11349C023E130E0841B950B2817390708F4FBC159
S11349D08C589F4FFC010C9414758981882389F0AD
S11349E08DE49FE48093AB449093AC4485E490E0E1
S11349F08093AD449093AE44198210921645109260
S1134A0017458981882399F08DE49FE48093AB4412
S1134A109093AC4489E490E08093AD449093AE4489
S1134A2019828CE390E08093164590931745898111
S1134A30882399F08DE49FE48093AB449093AC4435
S1134A4083E590E08093AD449093AE44198288E767
S1134A5090E080931645909317458981882399F0B7
S1134A608DE49FE48093AB449093AC4488E490E05D
S1134A708093AD449093AE44198284EB90E080938C
S1134A801645909317458981882391F08DE49FE41E
S1134A908093AB449093AC4485E390E08093AD4421
S1134AA09093AE4480EF90E0809316459093174521
S1134AB080910C400E9415218093074090930840F8
S1134AC08CE390E08093A3449093A4448CE390E01F
S1134AD080930D4090930E4080EF90E080930F40C0
S1134AE0909310409BC18981882369F08DE495E4FB
S1134AF08093AB449093AC441092AD4419821092CD
S1134B001645109217458981882379F08DE499E43C
S1134B108093AB449093AC441092AD4419828CE0E2
S1134B2090E080931645909317458981882379F006
S1134B308DE493E58093AB449093AC441092AD44E0
S1134B40198288E190E080931645909317458981F6
S1134B50882379F08DE498E48093AB449093AC443B
S1134B601092AD44198284E290E0809316459093AC
S1134B7017458981882371F08DE495E38093AB44D4
S1134B809093AC441092AD4480E390E0809316453A
S1134B909093174588E080930C4080910C400E94CC
S1134BA01521809307409093084088E592E0809314
S1134BB0A3449093A4448CE090E080930D409093A0
S1134BC00E4080E390E080930F409093104026C104
S1134BD08981882369F08FE495E48093AB449093B2
S1134BE0AC441092AD4419821092164510921745A8
S1134BF08981882379F08FE499E48093AB4490937E
S1134C00AC441092AD4419828CE090E08093164538
S1134C10909317458981882379F08FE493E58093F5
S1134C20AB449093AC441092AD44198288E190E077
S1134C3080931645909317458981882379F08FE4F2
S1134C4098E48093AB449093AC441092AD441982A1
S1134C5084E290E0809316459093174589818823D8
S1134C6071F08FE495E38093AB449093AC4410923D
S1134C70AD4480E390E080931645909317458FE010
S1134C8080930C4080910C400E9415218093074032
S1134C909093084088E592E08093A3449093A444C1
S1134CA08CE090E080930D4090930E4080E390E080
S1134CB080930F4090931040B1C00E94E528DC011E
S1134CC0CB01BC01CD010E94A46E1982109216453D
S1134CD01092174588E080930C4080910C400E940C
S1134CE01521809307409093084088E592E08093D3
S1134CF0A3449093A4448CE390E080930D4090935C
S1134D000E4010920F401092104088C00E94E52877
S1134D10DC01CB01BC01CD010E94A46E198210926A
S1134D2016451092174588E080930C4080910C4002
S1134D300E941521809307409093084088E592E0F3
S1134D408093A3449093A4448CE390E080930D401B
S1134D5090930E4010920F40109210405FC00E943A
S1134D60E528DC01CB01BC01CD010E94A46E1982AF
S1134D70109216451092174588E080930C4080915C
S1134D800C400E941521809307409093084088E5C9
S1134D9092E08093A3449093A4448CE390E08093A6
S1134DA00D4090930E4010920F401092104036C068
S1134DB083E590E08093AB449093AC4419821092C5
S1134DC01645109217458981882341F08DE49FE4AC
S1134DD08093AB449093AC441092AD44109216452A
S1134DE01092174588E080930C4080910C400E94FB
S1134DF01521809307409093084088E592E08093C2
S1134E00A3449093A4448CE390E080930D4090934A
S1134E100E4010920F401092104000008A858823A3
S1134E20A1F41092224510922045109257451092F9
S1134E30204580E00E948C6D60E082E495E40E944D
S1134E40874E80E00E94E56C95C08A85813009F028
S1134E5061C0CE0106960E949435DC01CB01BC01F1
S1134E60CD010E94D40280E090E00E94E002DC01C7
S1134E70CB018A839B83AC83BD838E818823C9F550
S1134E808A819B81AC81BD8180931845909319459B
S1134E90A0931A45B0931B452091184530911945AC
S1134EA040911A4550911B4580911C4590911D4598
S1134EB0A0911E45B0911F4561E082179307A40796
S1134EC0B50708F060E06623A1F080911845909141
S1134ED01945A0911A45B0911B4580589E4AAE4F82
S1134EE0BF4F80931C4590931D45A0931E45B093DE
S1134EF01F451F82CE0107960E946F218E8382E098
S1134F008093A6448E818823A9F58CE495E40E94BD
S1134F10833E30C08A85823049F580910C400E94DE
S1134F201521809307409093084080910D40909103
S1134F300E40092E000CAA0BBB0B80939F44909348
S1134F40A044A093A144B093A24481E0809322455D
S1134F5081E0809320458DEF809399440E940C2436
S1134F601092574581E08093204504C0CE010896F5
S1134F700E946F2100002A96CDBFDEBFDF91CF9142
S1134F800895CF93DF9300D000D0CDB7DEB780E093
S1134F9090E00E94E002DC01CB0189839A83AB8319
S1134FA0BC8380911C4590911D45A0911E45B091F4
S1134FB01F4581309646AE4EBF45B0F080911845EE
S1134FC090911945A0911A45B0911B4581309646A0
S1134FD0AE4EBF4548F089819A81AB81BC81813056
S1134FE09646AE4EBF4510F481E001C080E08823B0
S1134FF011F082E05AC020911C4530911D4540912A
S11350001E4550911F458091184590911945A091D6
S11350101A45B0911B4561E082179307A407B507B1
S113502008F460E0662311F082E03FC080911C45E3
S113503090911D45A0911E45B0911F4561E02981C5
S11350403A814B815C8182179307A407B50708F066
S113505060E0662311F082E028C0809118459091A9
S11350601945A0911A45B0911B4561E029813A8107
S11350704B815C8182179307A407B50708F060E0B1
S1135080662351F09091204581E08927882311F00F
S113509083E00BC085E009C09091574581E08927E2
S11350A0882311F084E001C081E02496CDBFDEBFE7
S11350B0DF91CF910895CF93DF93CDB7DEB7809181
S11350C00B40882F90E0BC018FEF94E40E940D59AF
S11350D0CC01A0E0B0E0BC01CD010E947773DC01FB
S11350E0CB0120E030E04AE754E4BC01CD010E944A
S11350F0CF72DC01CB01BC01CD010E944873DC01FD
S1135100CB01DF91CF910895CF93DF931F92CDB759
S1135110DEB7809171458130C9F480913440882F85
S113512090E08331910541F08431910541F042973B
S113513049F482E189830DC083E189830AC084E153
S1135140898307C085E18983000003C080911E40E4
S1135150898389810F90DF91CF910895CF93DF9355
S113516000D0CDB7DEB719821A82809171458130A3
S113517009F580913440882F90E08331910551F0F6
S11351808431910561F0429779F480EC94E4898349
S11351909A8314C085ED94E489839A830FC08AEEC0
S11351A094E489839A830AC080EC94E489839A8383
S11351B0000004C08BEA94E489839A8389819A81EC
S11351C00F900F90DF91CF910895CF93DF9300D08C
S11351D000D0CDB7DEB7809171458130E9F580917B
S11351E03440882F90E08331910591F0843191050A
S11351F0E1F0429739F58091284090912940A0919F
S11352002A40B0912B4089839A83AB83BC8330C0FE
S113521080912C4090912D40A0912E40B0912F4030
S113522089839A83AB83BC8323C08091304090915F
S11352303140A0913240B091334089839A83AB834B
S1135240BC8316C080E096EBA5E3B0E089839A8323
S1135250AB83BC8300000CC08091504090915140BE
S1135260A0915240B091534089839A83AB83BC830D
S113527089819A81AB81BC81BC01CD012496CDBFCB
S1135280DEBFDF91CF910895CF93DF93CDB7DEB723
S11352902597CDBFDEBF80E090E00E949435DC010D
S11352A0CB01BC01CD010E94D40280E090E00E94B9
S11352B0E002DC01CB0189839A83AB83BC838981BF
S11352C09A81AB81BC8181309646AE4EBF4540F198
S11352D0209118453091194540911A4550911B452C
S11352E089819A81AB81BC8182179307A407B50792
S11352F0B8F420911C4530911D4540911E455091B4
S11353001F458091184590911945A0911A45B09177
S11353101B4582179307A407B50710F481E001C069
S113532080E08D838D812596CDBFDEBFDF91CF9147
S11353300895CF93DF9300D000D0CDB7DEB7898333
S11353409A836B837C8389819A81019791F48B8101
S11353509C81019671F482E495E40E94B34C62E36B
S113536070E083E495E40E94C1318CE495E40E94EA
S1135370503989819A81892B81F48B819C81019692
S113538061F48CE495E40E945D3983E495E40E9421
S1135390F13182E495E40E94C04C00002496CDBF14
S11353A0DEBFDF91CF910895CF93DF93CDB7DEB702
S11353B06FEF7FEF81E090E00E949929DF91CF9118
S11353C00895CF93DF93CDB7DEB76FEF7FEF80E023
S11353D090E00E949929DF91CF910895CF93DF93B4
S11353E01F92CDB7DEB789838981882F90E0823000
S11353F0910541F1833091052CF4009749F0019710
S1135400A1F047C08330910551F10497A9F141C03F
S113541080916F45813019F081E00E94EF2B80E08C
S113542096E022E0FC01208737C080916F458230EE
S113543019F080E00E94EF2B80E096E023E0FC016D
S113544020872AC080916F45823019F080E00E9445
S1135450EF2B80E096E024E0FC0120871DC08091C2
S11354606F45823019F080E00E94EF2B80E096E0D7
S113547025E0FC01208710C080916F45823019F02F
S113548080E00E94EF2B80E096E022E4FC0120877C
S113549003C00E94012C000000000F90DF91CF9107
S11354A00895CF93DF93CDB7DEB780916F458823FE
S11354B049F080E096E0FC01148680E096E021E06B
S11354C0FC0122870000DF91CF910895CF93DF93F1
S11354D0CDB7DEB780E096E0FC018585882F90E0AB
S11354E08170992721E0892B09F420E0822FDF9134
S11354F0CF910895CF93DF93CDB7DEB780E096E0E8
S1135500FC0180899189DF91CF910895CF93DF9336
S1135510CDB7DEB72D97CDBFDEBF80E091E1FC01B2
S1135520868197818B839C8380E091E1FC01848157
S113553095818D839E838FEE9EEF89839A8380E08D
S113554096E0FC0180858F8380E00E94EF2B80E051
S113555096E022E4FC0120870E94512A0E94662AD8
S1135560982F81E089278823E1F08091244090914D
S11355702540A0912640B09127409C01AD012150C7
S11355803109410951092093244030932540409327
S1135590264050932740892B8A2B8B2B11F081E0D6
S11355A001C080E0882309F0D9CF809124409091F4
S11355B02540A0912640B0912740892B8A2B8B2B24
S11355C009F44DC080E096E0FC01808991898887C8
S11355D099872B813C8188859985A901481B590BA2
S11355E0CA01CC01A0E0B0E08A879B87AC87BD8765
S11355F08D819E81CC01A0E0B0E02A853B854C855D
S11356005D85BC01CD010E949B74DC01CB018A87BE
S11356109B87AC87BD878A859B85AC85BD85985F54
S1135620AF4FBF4F8A879B87AC87BD878A859B8591
S1135630AC85BD85072E7CE0B595A7959795879594
S11356407A95D1F7702D8A879B87AC87BD878A8529
S11356509B8529813A81820F931F89839A8380E0F5
S113566096E02F81FC01208789819A812D96CDBFF8
S1135670DEBFDF91CF910895CF93DF93CDB7DEB72F
S113568080E694E020E634E0F9012289287FFC01D9
S1135690228B80E694E020E634E0F901228924603C
S11356A0FC01228B80E694E020E634E0F9012389B2
S11356B0287FFC01238B80E694E020E634E0F901A6
S11356C023892460FC01238B80E694E020E634E007
S11356D0F9012489287FFC01248B80E694E020E6EC
S11356E034E0F90124892460FC01248B80E694E0F1
S11356F020E634E0F9012589287FFC01258B80E62A
S113570094E020E634E0F90125892460FC01258B2E
S113571080E694E020E634E0F9012289277FFC0149
S1135720228B80E694E020E634E0F9012389277F88
S1135730FC01238B80E694E020E634E0F90124891F
S1135740277FFC01248B80E694E020E634E0F90115
S11357502589277FFC01258B0000DF91CF910895D7
S1135760CF93DF93CDB7DEB780EA90E021E0FC0170
S113577020830000DF91CF910895CF93DF931F9290
S1135780CDB7DEB7898380E096E02AE0FC0122836E
S11357908981882399F080E096E023E0FC0120834E
S11357A080E096E021E0FC01248780E096E021E09F
S11357B0FC01228781E080936F450CC080E096E075
S11357C021E0FC01208380E096E0FC01148682E065
S11357D080936F4500000F90DF91CF910895CF9390
S11357E0DF931F92CDB7DEB789830E943C2B0E94C2
S11357F0B02B89810E94BD2B00000F90DF91CF91C7
S11358000895CF93DF93CDB7DEB780E096E0FC0137
S1135810148680E096E0FC01108210926F4500002F
S1135820DF91CF9108951F920F9200903F000F9245
S1135830112400903B000F922F933F934F935F935B
S11358406F937F938F939F93AF93BF93EF93FF9344
S1135850CF93DF9300D0CDB7DEB70E947A2A898335
S11358609A8389819A81BC018EE695E40E94BE47A1
S1135870882321F080E096E0FC01148600000F905C
S11358800F90DF91CF91FF91EF91BF91AF919F91D5
S11358908F917F916F915F914F913F912F910F90D5
S11358A000923B000F9000923F000F901F901895BC
S11358B00F931F93CF93DF9300D000D0CDB7DEB703
S11358C089839A836B837C8389819A81019791F47C
S11358D08B819C81019671F480E090E4ACEBB6E49A
S11358E08C019D0140E050E069E473E48EE695E4A8
S11358F00E94134789819A81892B41F48B819C8171
S1135900019621F48EE695E40E94AB4700002496AC
S1135910CDBFDEBFDF91CF911F910F910895CF933B
S1135920DF93CDB7DEB76FEF7FEF81E090E00E94A9
S1135930582CDF91CF910895CF93DF93CDB7DEB785
S11359406FEF7FEF80E090E00E94582CDF91CF91C1
S11359500895CF93DF9300D000D0CDB7DEB78B830B
S11359606C838B81882F90E0805F9B4F89839A831F
S11359708C81813059F489819A81FC018081282F9E
S1135980286089819A81FC0120830DC08C81882341
S113599051F489819A81FC018081282F277F898194
S11359A09A81FC01208300002496CDBFDEBFDF91E5
S11359B0CF910895CF93DF9300D000D0CDB7DEB759
S11359C08B836C838B81882F90E0805F9B4F8983CE
S11359D09A8389819A81FC018081982F987F8C8198
S11359E0892B282F89819A81FC0120830000249629
S11359F0CDBFDEBFDF91CF910895CF93DF9300D069
S1135A00CDB7DEB789836A838A81882F90E081309D
S1135A109105E1F08230910571F1892B09F03BC0C9
S1135A2020E030E080E090E0FC018081682F8981F3
S1135A30482F50E081E090E002C0880F991F4A95FA
S1135A40E2F780958623F901808325C020E030E0C9
S1135A5080E090E0FC018081682F8981482F50E02C
S1135A6081E090E002C0880F991F4A95E2F7862BE7
S1135A70F901808310C08981882F90E0805F9B4F5B
S1135A802981222F30E0205F3B4FF90120812860DB
S1135A90FC012083000000000F900F90DF91CF9154
S1135AA00895CF93DF9300D0CDB7DEB789836A839F
S1135AB08A818823A9F020E030E080E090E0FC01B6
S1135AC08181682F8981482F50E081E090E002C0F5
S1135AD0880F991F4A95E2F7862BF901818315C037
S1135AE020E030E080E090E0FC018181682F898132
S1135AF0482F50E081E090E002C0880F991F4A953A
S1135B00E2F780958623F901818300000F900F90BE
S1135B10DF91CF910895CF93DF9300D0CDB7DEB757
S1135B2089836A838A81882F90E081309105E1F02E
S1135B308230910571F1892B09F03BC084E090E03B
S1135B4024E030E0F9012081622F2981422F50E0C6
S1135B5021E030E002C0220F331F4A95E2F720957E
S1135B602623FC01208325C084E090E024E030E07B
S1135B70F9012081622F2981422F50E021E030E099
S1135B8002C0220F331F4A95E2F7262BFC01208323
S1135B9010C08981882F90E0805D9B4F2981222F3E
S1135BA030E0205D3B4FF90120812860FC01208317
S1135BB0000000000F900F90DF91CF910895CF93D4
S1135BC0DF9300D0CDB7DEB789836A838A818823C7
S1135BD0A9F084E090E024E030E0F9012181622F13
S1135BE02981422F50E021E030E002C0220F331F10
S1135BF04A95E2F7262BFC01218315C084E090E04E
S1135C0024E030E0F9012181622F2981422F50E004
S1135C1021E030E002C0220F331F4A95E2F72095BD
S1135C202623FC01218300000F900F90DF91CF9178
S1135C300895CF93DF9300D000D0CDB7DEB78B8328
S1135C406C838B81882F90E0805B9B4F89839A8340
S1135C508C81813059F489819A81FC018081282FBB
S1135C60286089819A81FC0120830DC08C8188235E
S1135C7051F489819A81FC018081282F277F8981B1
S1135C809A81FC01208300002496CDBFDEBFDF9102
S1135C90CF910895CF93DF9300D000D0CDB7DEB776
S1135CA08B836C838B81882F90E0805B9B4F8983EF
S1135CB09A8389819A81FC018081982F987F8C81B5
S1135CC0892B282F89819A81FC0120830000249646
S1135CD0CDBFDEBFDF91CF910895CF93DF9300D086
S1135CE0CDB7DEB789836A838A81882F90E08130BB
