S0110000466C6578466F7838302E73726563EF
S2140000000C94ED020C9417030C9417030C9417032E
S2140000100C9417030C9417030C94DF100C9417031E
S2140000200C9417030C9417030C9417030C941703E3
S2140000300C94F8150C94F3730C9417030C94170394
S2140000400C9417030C9417030C9417030C942809AC
S2140000500C94350C0C9417030C94B5150C941703DC
S2140000600C94B3330C9417030C9417030C941703D7
S2140000700C9417030C94F7190C9484730C94BF0D0E
S2140000800C94870F0C9417030C9417030C94170307
S2140000900C9417030C9417030C9417030C94170373
S2140000A00C9417030C9429550C9417030C941703FF
S2140000B00C9417030C9417030C9417030C94170353
S2140000C00C9417030C9417030C9417030C94170343
S2140000D00C9417030C9417030C9417030C946C09D8
S2140000E00C94FA0C0C941703602B742B8A2BA02B01
S2140000F0B62B562D4B2DE62BF62B082C1A2C2C2C1B
S2140001005B2C6B2C7D2C8F2CA12CD02CF92C222D2B
S214000110AF45D046D046D046D046D046E344D0463B
S214000120D046D046D046D046D046D0460445D046E7
S214000130D046D046D046D046D046D0464B43D04692
S214000140D046D046D046D046D046D046D046D046FA
S214000150D046D046D046D046D046D046D046D046EA
S214000160D046D046D046D046D046D046D0468F431E
S214000170D046D046D046D046D046D046D046D046CA
S214000180D046D046D046D046D046D046D046D046BA
S214000190D046D046D046D046D046D046D046D046AA
S2140001A0D343D046D046D046D046D046D046D0469A
S2140001B0D046D046D046D046D0461744D046D04645
S2140001C0D046D0462C44D046D046D046D0462545CC
S2140001D0D046D046D046D046F142D046D046D0464D
S2140001E0D046D046D046D0461243D046D046D0461B
S2140001F0D046D046D046D0463343D046D046D046EA
S214000200D046D0463A45D046D046D046D0464F4552
S214000210D046D046D046D046D0466745D046D04693
S214000220D046D046D0467F45D046D046D046D0466B
S214000230D0469745D046D046D046D046D0465644BF
S214000240D046D046D046D0466B44D046D046D04660
S214000250D046D046D046D0468C44D046D046D0462F
S214000260D046D046D046D046AD44D046D046D046FE
S214000270D046D046D046D046CE44D046D046D046CD
S214000280D0464144D046D046D046D046C745D04654
S214000290D046D046D046D046D046D046D046D046A9
S2140002A0D046D046D046D046D046D046D046D04699
S2140002B0D046D046D046D046D046D046D0460B464E
S2140002C0D046D046D046D046D046D046D046D04679
S2140002D0D046D046D046D046D046D046D046D04669
S2140002E0D046D046D046D046D046D046D046D04659
S2140002F04F46D046D046D046D046D046D046D046CA
S214000300D046D046D046D046D046D046D046D04638
S214000310D046D046D046D046D046D046D046D04628
S214000320D0469346D046D046D046D046D046D04655
S214000330D046B74666587D589358A958F558CF58B2
S2140003401B595B5A7F5A165AD159895941596863C5
S214000350F8624C637663536376631463F1620663F4
S2140003600D6376633063E3623E63DC62FF6297622E
S2140003709E62A562AC62B362BA62C062C762CE62B7
S214000380D5621B6322636F6329637663EA625A63EE
S214000390E561EC61F361FA61016207620E62156263
S2140003A01B62216228622F6236623D6244624B62A3
S2140003B052625962606266626D6274627B628262D9
S2140003C08962906276637663766376634563766366
S2140003D07663766376637663766376637663766350
S2140003E07663766376637663766376637663766340
S2140003F07663766376637663766376637663766330
S21400040076637663766361637663376300407A105B
S214000410F35A00A0724E18090010A5D4E80000E8B0
S2140004207648170000E40B54020000CA9A3B00000E
S21400043000E1F505000080969800000040420F009D
S2140004400000A08601000000102700000000E8035E
S214000450000000006400000000000A000000000029
S2140004600100000000002C76D888DC674F0823DFE8
S214000470C1DFAE59E1B1B796E5E3E453C63AE651BB
S214000480997696E8E6C28426EB898C9B62ED407CE2
S2140004906FFCEFBC9C9F40F2BAA56FA5F490055A7E
S2140004A02AF75C936B6CF9676DC11BFCE0E40D47A3
S2140004B0FEF520E6B500D0ED902E030094357705C6
S2140004C00080841E080000204E0A000000C80C337E
S2140004D03333330F986E12831141EF8D2114893B0D
S2140004E0E65516CFFEE6DB18D1844B381BF77C1D8D
S2140004F0901DA4BBE424203284725E228100C9F1E0
S21400050024ECA1E53D274A616E7561727920466547
S214000510627275617279204D6172636820417072F3
S214000520696C204D6179204A756E65204A756C7934
S214000530204175677573742053657074656D6265C8
S21400054072204F63746F626572204E6F76656D62BF
S214000550657220446563656D626572200053756E32
S214000560646179204D6F6E6461792054756573649B
S2140005706179205765646E65736461792054687587
S214000580727364617920467269646179205361747C
S2140005907572646179200053756E4D6F6E54756583
S2140005A0576564546875467269536174004A616E93
S2140005B04665624D61724170724D61794A756E4A48
S2140005C0756C4175675365704F63744E6F764465FE
S2140005D0630074312F3481313C3411241FBECFEFB9
S2140005E0CDBFDFE7DEBF15E4A0E0B0E4E6E1FAE069
S2140005F001E00BBF02C007900D92A630B107D9F7F5
S21400060029E4A6E0B5E401C01D92AD3FB207E1F7CC
S21400061012E0CBEED2E004C02197FE010E947F7D5F
S214000620C93ED107C9F70E94851A0C94FE840C9423
S21400063000009C0123703327232B59F464E670E0F6
S2140006400E942A7D892B39F46370772781E0672B17
S21400065019F080E0089581E008956BEE79E40E9439
S21400066034038BEE99E40895CF92DF92EF92FF92D7
S2140006700F931F93CF93DF9300D000D0CDB7DEB794
S2140006806C017B01E091FB49F091FC49309729F021
S21400069067EF79E409958C0102C00FEF1FEFF601B2
S2140006A040815181628173818091F7499091F84928
S2140006B0A091F949B091FA49840F951FA61FB71F5C
S2140006C0101611064CF4A801012E000C660B770BD1
S2140006D0840F951FA61FB71F89839A83AB83BC839D
S2140006E0B701CE0101960E94BC07F7010287138767
S2140006F02496CDBFDEBFDF91CF911F910F91FF9063
S214000700EF90DF90CF900895623021F40E94190395
S214000710845E0895683008F06F5F61708EE1860F22
S21400072008950FB6F8946093E7497093E84980936C
S214000730E9499093EA490FBE0895CF92DF92EF926F
S2140007400F936B01E82E7C2D6D2D5E2DAE2DC60110
S2140007500196A11D442351F06C01EA2EE72FF62FD7
S2140007600E94EB84603279F74150EDCFF6010E948B
S214000770EB846C01EA2E80E0603239F4F9011082D5
S2140007800F91EF90DF90CF9008958017B9F32F5F09
S2140007903F4FF901319760838F5FF6015E2D0E940F
S2140007A0EB849FEFC91AD90AE90AE6CF2F923F9247
S2140007B04F925F926F927F928F929F92AF92BF926C
S2140007C0CF92DF92EF92FF920F931F93CF93DF9318
S2140007D0CDB7DEB7A297CDBFDEBF2C0169A37AA343
S2140007E04A017901612C712C9E012F5F3F4F6901F0
S2140007F084E6282E312C95EAA92E94E4B92E29A158
S2140008003AA16216730608F0CDC2D4018C918532E7
S21400081009F0BCC211961C91153431F01F3421F03A
S214000820B2E08B0E911C06C0F401128194012D5F7C
S2140008303F4F4901193509F432C20CF060C0193433
S21400084009F43FC144F5133409F4E7C054F41134F5
S21400085009F4BEC00CF0CAC0153209F074C2198380
S21400086075C2163409F4EAC064F4143409F06BC295
S214000870F70186819781B1010E942A7D9F938F930D
S214000880E7C1173409F4F8C0183409F05CC2D70180
S21400089012968C9130C1143509F489C164F412356E
S2140008A009F46EC10CF025C11D3409F04CC2D70105
S2140008B011968C9120C1163509F4A5C10CF4A1C17E
S2140008C0173509F4B4C1183509F03DC2F701808127
S2140008D0282F082E000C330B3F938F938181282FEF
S2140008E0082E000C330B3F938F938281282F082EFF
S2140008F0000C330B3F938F938DEE94E4C0C11D36EE
S21400090009F4F0C0ACF5143609F494C074F4123649
S21400091009F466C00CF075C0113609F014C203E085
S2140009209601D70114964C9157C0173609F4A4C007
S21400093074F4153609F007C2F7018381282F082EB4
S214000940000C330B3F938F938AEA94E4C8C01836A2
S21400095009F446C01A3609F0F6C1D70118968D91EB
S2140009609C91199701969F938F9380EC94E4B7C05F
S214000970153709F435C1B4F4103709F4C2C034F49D
S2140009801E3609F0E0C18AE08983E0C1123709F417
S214000990C6C0143709F0D7C166ED74E4C6010E94DC
S2140009A01D84D4C1183709F448C15CF4173709F020
S2140009B0CAC1F7018481282F082E000C330B3F9301
S2140009C074C1193709F45EC11A3709F47EC1BBC178
S2140009D00FEF9601F70144816DE575E080E00DC0EC
S2140009E003E09601D70115964C9104C00FEF9601CF
S2140009F0F701458166E075E080E00E949D0390E087
S214000A00A7C1B601C7010E943907F601CF018C19AC
S214000A109D0921912111FACF9BC1D70116968D9180
S214000A209C9117978459984FB1010E942A7D7F9315
S214000A306F933BC0D70113968C915DC0D701139678
S214000A408C911397282F082E000C330B3F938F930F
S214000A5015968C911597082E000C990B01969F936E
S214000A608F9316968D919C9117978459984F9F93C4
S214000A708F938EEA94E403C1D70118966D917C910A
S214000A80199716968D919C911797AE01455E5F4F0C
S214000A908459984F0E949208173651F48B8D9C8D7E
S214000AA0B1010E942A7D9F938F93E6EBF4E4A6C0E3
S214000AB08C8D8F938B8D8F934BEB54E45F934F937A
S214000AC0F9C0F70182816CE00E94DD84992321F051
S214000AD0892F990F990BDEC08CE090E0DBC09F93C6
S214000AE08F93E8C0F7018581082E000C990B0196BC
S214000AF0D1C0D7018C91282F082E000C330B3F93C2
S214000B00CAC081E48983F70182818C3014F080E5C5
S214000B1089838DE48A831B8282E090E019C1D70125
S214000B2012968C916CE00E94DD84992321F0892F27
S214000B30990F990B02C08CE090E0F7012081422FBC
S214000B40022E000C550B5F932F932181422F022E0D
S214000B50000C550B5F932F939F938F9325EC34E4F3
S214000B603F932F93DF92CF920E94997FCDBFDEBF37
S214000B70F70122812C300CF4EBC020E52B87E8C06F
S214000B80D70111968C911197282F082E000C330B45
S214000B903F938F9312968C91282F082E000C330BC0
S214000BA03F938F938DED94E49F938F93C5C0F70189
S214000BB08081282F082E000C330B3F938F93818162
S214000BC0282F082E000C330B3F938F938281282FFB
S214000BD0082E000C330B3F938F9388ED94E44FC0A0
S214000BE0D70114968C91082E000C990B009711F4DF
S214000BF087E090E09F938F93E7EEF4E4FF93EF9304
S214000C0059C060E015C0D70118966D917C91199770
S214000C1016968D919C911797AE01455E5F4F84594D
S214000C20984F0E9492088E8D8F938D8D34C061E010
S214000C30C7010E94FE061F922EC0D70116968D9100
S214000C409C911797B1010E942A7D9F938F93F7017D
S214000C508381282F082E000C330B3F938F938581BA
S214000C60082E000C990B01969F938F932BE934E482
S214000C703F932F93DF92CF920E94997F61C09F93FC
S214000C808F93F8CFD70116968D919C911797B10147
S214000C900E942A7D9F938F93BF92AF920BC0F7015D
S214000CA0868197818459984F9F938F932AEE34E4D8
S214000CB03F932F93DF92CF920E94997F0F900F90D1
S214000CC00F900F900F900F9043C06091F74970916E
S214000CD0F8498091F9499091FA492CE330E040E0D8
S214000CE050E00E94607D89019A01F801D7011A96AA
S214000CF08D919C911B976CE370E00E942A7D1616DE
S214000D0017061CF4FB01E00FF11FCF016CE370E047
S214000D100E942A7D97FF03C09195819591099F9324
S214000D208F93CF016CE370E00E942A7D7F936F93D0
S214000D30ECEFF4E4FF93EF93DF92CF920E94997F5B
S214000D40CDBFDEBF05C08FE389831A8281E090E0C5
S214000D509301280F391FA9A1BAA12A173B0798F4B7
S214000D60D201F601AF014C195D09481759071CF46A
S214000D7041914D93F7CF97FF02C080E090E0480E78
S214000D80591E39013CCDF20110820EC0D2018D935E
S214000D902D01BFEF6B1A7B0A882331F0EFEF8E1A16
S214000DA09E0A2DCDD2011C92C301A296CDBFDEBFF6
S214000DB0DF91CF911F910F91FF90EF90DF90CF9032
S214000DC0BF90AF909F908F907F906F905F904F9066
S214000DD03F902F900895FC010FB6F8946091E74974
S214000DE07091E8498091E9499091EA490FBE3097A1
S214000DF021F060837183828393830895FC012085AC
S214000E003185C90107964481841B910947FD939556
S214000E10860F911DE7E0F0E0BF010E942A7DA90140
S214000E20481B590BCA0157FD06C0BF010E942A7D08
S214000E3081E0860F089580E008958F938FB78F9393
S214000E40F8948091E7498F5F8093E7498091E8495D
S214000E508F4F8093E8498091E9498F4F8093E94905
S214000E608091EA498F4F8093EA498F918FBF8F9187
S214000E700895CF92DF92EF92FF920F931F93CF9336
S214000E80DF938C01EB01FC018481B82FBB0FB80FF8
S214000E908581782F770F780F9E0140E08B2F840F87
S214000EA090E0A0E089569A4FAF4FFC015A2F0E945F
S214000EB0EB84F90161939F01872F840F90E0A0E0F7
S214000EC083559A4FAF4FFC015A2F0E94EB84F901CD
S214000ED063834F5F433011F780E28F838B83BE01BD
S214000EE0685F7F4FF801838140E2082E000C990B63
S214000EF00E940C09BE01655F7F4FF80182814AE3BC
S214000F00082E000C990B0E940C09BE01625F7F4FF1
S214000F10F80181814AE3082E000C990B0E940C0907
S214000F20BE016F5E7F4FF801808140E2082E000C04
S214000F30990B0E940C09F8018681978164E670E09F
S214000F408459984F0E942A7D6B017C01BE016C5E1D
S214000F507F4F40E2C6010E940C09BE016A5E7F4FC9
S214000F6040E0C701DF91CF911F910F91FF90EF9066
S214000F70DF90CF900C940C09CF92DF92EF92FF9205
S214000F800F931F93CF93DF93CDB7DEB72897CDBFD0
S214000F90DEBF8B01FC01608171818281938120E834
S214000FA031E541E050E00E943E7D69017A012CE384
S214000FB030E040E050E00E94607D29833A834B8316
S214000FC05C8389819A81AB81BC81F80160836CE384
S214000FD070E00E942A7DDC01CB01F801A1838283A8
S214000FE0C601069667E070E00E94167D84832DEAAF
S214000FF03EE840E050E0C701B6010E94607D2983CC
S2140010003A836D837E838F83988789819A8124E6CD
S214001010289F6001299FD00C11246D817E818F81CD
S214001020988525EB35E040E050E00E94607D2983FE
S2140010303A836D837E83E980FA80EE0CFF1CEE0C0B
S214001040FF1CEC0CFD1C8D819E81F5E6EF16F1046D
S21400105010F0019604C024E6E216F10419F021E02F
S21400106030E002C020E030E0A90144595E4F481746
S214001070590768F46DE671E0821B930B0E942A7D87
S214001080DC01CB01E80EF91ECD0120E030E044E69D
S214001090E40EF11CF801E682F78280879187255CD2
S2140010A03F4F8217930748F46FE170E00E942A7D55
S2140010B0DC01CB01F801858322C069E970E0821B60
S2140010C0930B0E942A7DDC01CB01F82EFF0CFF0C4F
S2140010D0F80E6DE370E0CD010E942A7DDC01CB01A5
S2140010E0E82EEE0C6FE170E0CD010E942A7DDC0157
S2140010F0CB0122E0280FF20EFE0CF801F582A38346
S214001100F8011286138683818F5F83832896CDBF6E
S214001110DEBFDF91CF911F910F91FF90EF90DF9090
S214001120CF900895CF92DF92EF92FF920F931F9386
S214001130CF93DF938C017B01EA01888399830E9419
S2140011401903282FA801405D57406DE671E0469FC1
S214001150C001479F900D569F900D11248E0D9F1D28
S2140011604115510579F0BA0176956795769567959C
S2140011706F5F7F4F860F971F821B9109453651057B
S21400118008F00197069667E070E00E94167D6C01F5
S214001190892B19F487E0C82ED12CCC82DD82C701BA
S2140011A00B968C199D0967E070E00E942A7D6533D6
S2140011B07105B1F481E0C81AD108EC18FD08822F39
S2140011C090E084599E4F23E0E20EF11C8E159F0599
S2140011D03CF48881998101968883998361E070E068
S2140011E06A837B83672B79F401501109C8010E943A
S2140011F01903682F70E064597E4FAE01C8010E9443
S2140012009208CC82DD82DF91CF911F910F91FF90E3
S214001210EF90DF90CF9008951F93CF93DF93EB016D
S214001220142F6AE070E00E942A7D605D6883805D0E
S21400123089831A83DF91CF911F910895CF93DF930F
S214001240CDB7DEB70E94833D0000DF91CF910895B1
S2140012501F920F9200903F000F92112400903B00C7
S2140012600F922F933F934F935F936F937F938F933A
S2140012709F93AF93BF93EF93FF93CF93DF931F920A
S214001280CDB7DEB70E941979898380914E408823B6
S21400129019F489810E94030E80915440882319F422
S2140012A089810E94B00900000F90DF91CF91FF91D5
S2140012B0EF91BF91AF919F918F917F916F915F91C9
S2140012C04F913F912F910F9000923B000F9000920C
S2140012D03F000F901F9018951F920F9200903F00AE
S2140012E00F92112400903B000F922F933F934F9341
S2140012F05F936F937F938F939F93AF93BF93EF9379
S214001300FF93CF93DF931F92CDB7DEB70E94647A28
S214001310898380914E40843019F489810E94030E9F
S21400132080915440843019F489810E94B0090000ED
S2140013300F90DF91CF91FF91EF91BF91AF919F9169
S2140013408F917F916F915F914F913F912F910F9069
S21400135000923B000F9000923F000F901F90189550
S214001360CF93DF93CDB7DEB72A97CDBFDEBF8A8790
S2140013708091064590910745892B31F40E941666A8
S21400138080930645909307458091064590910745C2
S214001390892B09F463C28A85882F90E00E94317FEA
S2140013A08A878A858A3011F48DE08A87809108457D
S2140013B0882339F01A868091084581508093084525
S2140013C04DC28A858B3191F41A8680910945843105
S2140013D048F480910945882F90E0865F9A4BFC017F
S2140013E080818A8782E08093084538C28A858D305E
S2140013F009F060C080913C45882309F441C0809183
S21400140009458823D1F1809106459091074522E051
S214001410FC012083809106459091074520913D452B
S21400142030913E45FC012183328380913F458823DD
S214001430E1F0409106455091074580913F45882F41
S21400144090E0BC016150710980914045882F90E082
S214001450E4E1E69F9001E79F300D1124240F351F2D
S214001460820F931F0396FC01108280910945882FF6
S21400147090E0865F9A4BFC0110820E94B76709C015
S21400148080910645909107452FEF3FEFFC012183A1
S2140014903283109209451092404510923D451092B5
S2140014A03E4510923F451092064510920745109211
S2140014B03C45D4C18A85882309F4D0C1809109456A
S2140014C0882F90E0865F9A4B2A85FC0120838091C6
S2140014D00945882309F47CC18A858F3709F0A1C0A5
S2140014E08091094581508093094580913F45882326
S2140014F029F520913D4530913E4580910945882F3C
S21400150090E0865F9A4BFC018081882F90E0A901CD
S214001510481B590BCA0180933D4590933E458091E8
S2140015203D4590913E452AE030E0B9010E942A7D73
S214001530CB0180933D4590933E4563C080914045E6
S214001540882311F180914045815080934045409119
S21400155006455091074580913F45882F90E0BC0195
S2140015606150710980914045882F90E0E4E1E69F44
S2140015709001E79F300D1124240F351F820F931F13
S2140015800396FC0110823DC080910945882F90E0AB
S214001590865F9A4BFC0180818032D9F480913F456A
S2140015A0815080933F4520910645309107458091B4
S2140015B03F45482F50E064E1649FC001659F900D51
S2140015C011240396820F931F0E94547F80934045F8
S2140015D018C0209106453091074580913F45482F19
S2140015E050E064E1649FC001659F900D1124820F56
S2140015F0931F0396FC01108280913F458150809393
S2140016003F4580910945882F90E0865F9A4BFC0104
S214001610108280910945882309F01AC110923C4532
S21400162017C18A85803209F055C080910945882FF8
S21400163090E00197865F9A4BFC018081803239F0FA
S21400164080913F45882F90E00196039714F01A8604
S214001650FFC080913F458823E1F0409106455091B8
S214001660074580913F45882F90E0BC016150710985
S21400167080914045882F90E0E4E1E69F9001E79F47
S214001680300D1124240F351F820F931F0396FC0183
S214001690108280913F458F5F80933F451092404572
S2140016A080910945882F90E001968A839B8381E389
S2140016B090E08C839D832A813B818C819D812817B5
S2140016C039071CF48A819B8102C08C819D8180939E
S2140016D00945BEC080914045853108F077C08091AD
S2140016E03F458823E1F480913D4590913E45880F23
S2140016F0991F9C01220F331F220F331F280F391FFB
S2140017008A85882F90E0820F931F80933D459093A3
S2140017103E45809140458F5F809340453DC0409157
S21400172006455091074580913F45882F90E0BC01C3
S214001730615071098091404591E0980F9093404523
S214001740882F90E0E4E1E69F9001E79F300D11249A
S214001750240F351F820F931F03962A85FC012083D2
S214001760409106455091074580913F45882F90E06F
S214001770BC016150710980914045882F90E0E4E1FA
S214001780E69F9001E79F300D1124240F351F820F2E
S214001790931F0396FC01108280910945882F90E0E4
S2140017A001968E839F8381E390E0888799872E81B8
S2140017B03F8188859985281739071CF48E819F817B
S2140017C002C0888599858093094542C01A8640C024
S2140017D08A858F3769F480913D4590913E4518166D
S2140017E019060CF01A8610923D4510923E4530C000
S2140017F08A85803211F41A862BC010923F458A855E
S214001800882F90E080933D4590933E4519828981CC
S2140018108330B0F420910645309107458981482FE2
S21400182050E064E1649FC001659F900D1124820F13
S214001830931F0396FC01108289818F5F8983E7CF0F
S21400184081E080933C45809109458F5F80930945F0
S2140018508A85882319F08A850E94C86700002A9620
S214001860CDBFDEBFDF91CF9108951F920F920090FB
S2140018703F000F92112400903B000F922F933F934E
S2140018804F935F936F937F938F939F93AF93BF9383
S214001890EF93FF93CF93DF93CDB7DEB780914E40A3
S2140018A0882309F045C08091414590914245892B97
S2140018B031F40E94C55C8093414590934245209147
S2140018C041453091424580914345882F90E0820FF4
S2140018D0931FFC0180818823A9F080E098E0409166
S2140018E04145509142452091434531E0320F3093B7
S2140018F04345222F30E0240F351FF9012081FC01DB
S214001900228316C0109243458091414590914245EE
S214001910FC0110820E94C55C80934145909342452D
S2140019208091414590914245892B11F40E940A5EB0
S21400193080915440882309F045C080914445909199
S2140019404545892B31F40E948065809344459093E9
S2140019504545209144453091454580914645882F20
S21400196090E0820F931FFC0180818823A9F080E01D
S21400197098E040914445509145452091464531E0D8
S214001980320F30934645222F30E0240F351FF901E1
S2140019902081FC01228316C0109246458091444562
S2140019A090914545FC0110820E94806580934445D5
S2140019B0909345458091444590914545892B11F477
S2140019C00E9489660000DF91CF91FF91EF91BF9151
S2140019D0AF919F918F917F916F915F914F913F91C2
S2140019E02F910F9000923B000F9000923F000F90B7
S2140019F01F9018951F920F9200903F000F9211248F
S214001A0000903B000F922F933F934F935F936F93FB
S214001A107F938F939F93AF93BF93EF93FF93CF9351
S214001A20DF93CDB7DEB780914E40843009F045C0D5
S214001A308091474590914845892B31F40E94C55CBA
S214001A4080934745909348452091474530914845B7
S214001A5080914945882F90E0820F931FFC0180817A
S214001A608823A9F080E898E0409147455091484582
S214001A702091494531E0320F30934945222F30E01E
S214001A80240F351FF9012081FC01228316C0109215
S214001A9049458091474590914845FC0110820E9437
S214001AA0C55C809347459093484580914745909103
S214001AB04845892B11F40E940A5E80915440843078
S214001AC009F045C080914A4590914B45892B31F4E9
S214001AD00E94806580934A4590934B4520914A45E5
S214001AE030914B4580914C45882F90E0820F931F94
S214001AF0FC0180818823A9F080E898E040914A455F
S214001B0050914B4520914C4531E0320F30934C4577
S214001B10222F30E0240F351FF9012081FC0122839B
S214001B2016C010924C4580914A4590914B45FC0159
S214001B3010820E94806580934A4590934B45809121
S214001B404A4590914B45892B11F40E948966000006
S214001B50DF91CF91FF91EF91BF91AF919F918F91C0
S214001B607F916F915F914F913F912F910F900092CF
S214001B703B000F9000923F000F901F9018951F9209
S214001B800F9200903F000F92112400903B000F929E
S214001B902F933F934F935F936F937F938F939F9370
S214001BA0AF93BF93EF93FF93CF93DF931F92CDB77F
S214001BB0DEB70E94C279898380914E40813019F445
S214001BC089810E94030E80915440813019F48981E6
S214001BD00E94B00900000F90DF91CF91FF91EF9126
S214001BE0BF91AF919F918F917F916F915F914F9130
S214001BF03F912F910F9000923B000F9000923F0074
S214001C000F901F901895CF93DF931F92CDB7DEB736
S214001C10898380914D4590914E45892B31F40E94E1
S214001C20535D80934D4590934E4580914D459091E0
S214001C304E45892B09F466C18981882F90E00E9461
S214001C40317F898390914F4581E08927882339F039
S214001C5089818C3521F481E080934F453CC1909179
S214001C604F4581E08927882309F443C0898184325F
S214001C7019F089818132E9F51092504580914D45E1
S214001C8090914E452981213211F423E001C021E0D4
S214001C90FC012083109251451092524510925345F4
S214001CA0109254451092554581E080935645109207
S214001CB05745809157458330C8F420914D45309163
S214001CC04E4580915745482F50E065E1649FC0011E
S214001CD0659F900D1124820F931F0396FC011082BE
S214001CE0809157458F5F80935745E3CF10925745B5
S214001CF0F2C080915645882309F4D0C090914F4594
S214001D0081E08927882309F475C089818C3239F0EF
S214001D1089818B3321F089818F3309F06BC08091E4
S214001D2057458823E1F040914D4550914E458091AE
S214001D305745882F90E0BC0161507109809151454C
S214001D40882F90E0E5E1E69F9001E79F300D112493
S214001D50240F351F820F931F0396FC01108280917B
S214001D6057458F5F809357451092514589818B3335
S214001D70B1F480915045843078F020914D453091F3
S214001D804E458091524590915345A0915445B0914F
S214001D905545F90181839283109256451FC089816B
S214001DA08F33E1F480914D4590914E4522E0FC0141
S214001DB0208380915045833078F020914D453091B6
S214001DC04E458091524590915345A0915445B0910F
S214001DD05545F90181839283109256459091564558
S214001DE081E08927882309F476C010924D45109229
S214001DF04E4571C080915745882361F580915245C4
S214001E0090915345A0915445B0915545880F991F20
S214001E10AA1FBB1F9C01AD01220F331F441F551F75
S214001E20220F331F441F551F280F391F4A1F5B1FE1
S214001E308981882F90E0A0E0B0E0820F931FA41F56
S214001E40B51F8093524590935345A0935445B09345
S214001E50554521C040914D4550914E45809157457E
S214001E60882F90E0BC01615071098091514591E046
S214001E70980F90935145882F90E0E5E1E69F9001FA
S214001E80E79F300D1124240F351F820F931F0396F2
S214001E902981FC01208310924F451DC089818D3019
S214001EA0D1F480914D4590914E45FC0111821282ED
S214001EB082E38093504510925145109252451092FD
S214001EC0534510925445109255451092574510921E
S214001ED04D4510924E4590914F4581E089278823C5
S214001EE089F0809150458F5F809350459091504582
S214001EF081E0923308F480E0882321F01092564562
S214001F001092504500000F90DF91CF9108951F92D8
S214001F100F9200903F000F92112400903B000F920A
S214001F202F933F934F935F936F937F938F939F93DC
S214001F30AF93BF93EF93FF93CF93DF93CDB7DEB707
S214001F4080915440813009F045C080915845909169
S214001F505945892B31F40E948065809358459093AB
S214001F605945209158453091594580915A45882FBA
S214001F7090E0820F931FFC0180818823A9F080E205
S214001F8098E0409158455091594520915A4531E086
S214001F90320F30935A45222F30E0240F351FF901B7
S214001FA02081FC01228316C010925A458091584524
S214001FB090915945FC0110820E9480658093584597
S214001FC0909359458091584590915945892B11F425
S214001FD00E94896680914E40813009F045C080910C
S214001FE05B4590915C45892B31F40E94C55C8093DB
S214001FF05B4590935C4520915B4530915C458091B4
S2140020005D45882F90E0820F931FFC018081882316
S214002010A9F080E298E040915B4550915C452091A4
S2140020205D4531E0320F30935D45222F30E0240FBE
S214002030351FF9012081FC01228316C010925D45F0
S21400204080915B4590915C45FC0110820E94C55CC6
S21400205080935B4590935C4580915B4590915C4591
S214002060892B11F40E940A5E0000DF91CF91FF9148
S214002070EF91BF91AF919F918F917F916F915F91FB
S2140020804F913F912F910F9000923B000F9000923E
S2140020903F000F901F901895CF93DF9300D0CDB7D9
S2140020A0DEB789836A838A818823A9F020E030E03E
S2140020B080E090E0FC018181682F8981482F50E004
S2140020C081E090E002C0880F991F4A95E2F7862BC0
S2140020D0F901818315C020E030E080E090E0FC014B
S2140020E08181682F8981482F50E081E090E002C00E
S2140020F0880F991F4A95E2F780958623F901818318
S21400210000000F900F90DF91CF910895CF93DF934B
S2140021101F92CDB7DEB7898380E090E0FC01828114
S214002120882F90E02981222F30E002C09595879570
S2140021302A95E2F78170992721E0892B09F420E09F
S214002140822F0F90DF91CF910895CF93DF9300D029
S214002150CDB7DEB789836A838A818823A9F084E0B5
S21400216090E024E030E0F9012181622F2981422F9E
S21400217050E021E030E002C0220F331F4A95E2F71C
S214002180262BFC01218315C084E090E024E030E09B
S214002190F9012181622F2981422F50E021E030E0B1
S2140021A002C0220F331F4A95E2F720952623FC0132
S2140021B0218300000F900F90DF91CF9108951F921A
S2140021C00F9200903F000F92112400903B000F9258
S2140021D02F933F934F935F936F937F938F939F932A
S2140021E0AF93BF93EF93FF93CF93DF931F92CDB739
S2140021F0DEB780E090E0FC01838189838981882FA7
S21400220090E084709927892B09F481C00E941D07ED
S21400221080915046882309F478C09091154081E05B
S214002220923009F080E0882309F450C08091C745B9
S2140022309091C845A091C945B091CA458827B7FD79
S21400224083959927AA27BB27882399F08091C745AD
S2140022509091C845A091C945B091CA450196A11D67
S214002260B11D8093C7459093C845A093C945B093C8
S214002270CA458091C7459091C845A091C945B0917F
S214002280CA458B3F9F4FAF4FBF4F9CF480E090E016
S2140022900E94EB069B01AC018091514690915246FC
S2140022A0A0915346B0915446281739074A075B0752
S2140022B010F081E001C080E0882349F110924F467B
S2140022C01092504681E08093554621C080E090E011
S2140022D00E94EB069B01AC018091514690915246BC
S2140022E0A0915346B091544661E0281739074A0733
S2140022F05B0708F460E0662351F010924F46109298
S214002300504681E08093554602C00E94A51180E0A9
S21400231090E02FEFFC01238300000F90DF91CF9118
S214002320FF91EF91BF91AF919F918F917F916F91A8
S2140023305F914F913F912F910F9000923B000F902D
S21400234000923F000F901F901895EF92FF920F9308
S2140023501F93CF93DF93CDB7DEB76397CDBFDEBFB6
S2140023601D821E821F82188680916646909167465F
S21400237021E0892B09F420E0222349F0809166466B
S2140023809091674601978093664690936746809142
S2140023904A46882309F469C0809144469091454690
S2140023A0A0914646B0914746892B8A2B8B2B71F01D
S2140023B090914B4681E08927882341F09091CF4544
S2140023C081E08927882311F081E001C080E088231E
S2140023D009F44BC080E090E00E94EB06DC01CB01E4
S2140023E08D839E83AF83B8878091444690914546FF
S2140023F0A0914646B091474661E02D813E814F81CF
S2140024005885281739074A075B0708F460E06623F3
S21400241061F18CEF8093C3451092C7451092C84572
S2140024201092C9451092CA4580E00E94F775109236
S214002430484610924A4681E080934B4682E080935D
S214002440CE4583E0809315408091D1459091D2454A
S2140024508470992721E0892B09F420E0222329F0B3
S21400246010924B4681E080934F46809148468823E1
S21400247009F401C380914A46882309F44FC280912B
S214002480CB459091CC4521E0892B09F420E022230E
S21400249049F08091CB459091CC4501978093CB45F0
S2140024A09093CC458091C7459091C845A091C94569
S2140024B0B091CA4521E0892B8A2B8B2B09F420E0AA
S2140024C0222309F4D8C28091C7459091C845A091AF
S2140024D0C945B091CA4521E0181619061A061B060A
S2140024E00CF020E0222309F4B9C18091C7459091F1
S2140024F0C845A091C945B091CA450197A109B1093F
S2140025008093C7459093C845A093C945B093CA45E4
S2140025108091CB459091CC45892B41F480913C46E7
S21400252090913D46892B11F081E001C080E0882320
S214002530E1F180913C4690913D469C0140E050E0A0
S2140025408091C7459091C845A091C945B091CA45AC
S21400255061E0281739074A075B0709F060E0662341
S21400256021F18FEE8093C3458091134090911440E3
S2140025708093CB459093CC4580910D400E9489274F
S2140025808093074090930840198ACE01419640E018
S21400259050E0BC0187E296E40E941B6081E08093D5
S2140025A04D4610928546109286468091C74590917A
S2140025B0C845A091C945B091CA4521E0892B8A2B10
S2140025C08B2B09F020E0222309F455C280914D465A
S2140025D08823E9F08091C7459091C845A091C945E8
S2140025E0B091CA450196A11DB11D8093C745909331
S2140025F0C845A093C945B093CA4580918546909139
S21400260086460196809385469093864634C280918E
S21400261011409091124021E0892B09F420E02223FA
S21400262009F403C180E00E94F775809111409091F3
S21400263012402091C7453091C8454091C9455091F8
S214002640CA45092E000CAA0BBB0B79018A01E81AB1
S214002650F90A0A0B1B0BD801C7018093C745909354
S214002660C845A093C945B093CA45809185469091C8
S21400267086469C0140E050E08091C7459091C84551
S214002680A091C945B091CA45820F931FA41FB51FDC
S2140026908093C7459093C845A093C945B093CA4553
S2140026A0109285461092864681E0898B0E941F2FE5
S2140026B09C01CE01419640E050E0BC01C9010E9459
S2140026C01B608EEF8093C34560E08BE696E40E9425
S2140026D0E35619821A821B821C8280E090E00E94D8
S2140026E0EB06DC01CB018D839E83AF83B887809198
S2140026F0444690914546A0914646B091474661E0D3
S2140027002D813E814F815885281739074A075B0778
S21400271008F060E06623B1F080914446909145460B
S214002720A0914646B09147462D813E814F815885FF
S214002730BC01CD010E946F7ADC01CB0189839A83AC
S214002740AB83BC83209111403091124080910F40A2
S21400275090911040820F931F0F969C01990F440B87
S214002760550B61E089819A81AB81BC8128173907B6
S2140027704A075B070CF060E0662309F47CC1809191
S214002780114090911240409734F080910B4088237E
S21400279011F481E001C080E0882309F46CC18091C7
S2140027A01140909112400A97092E000CAA0BBB0B01
S2140027B089879A87AB87BC872D813E814F81588554
S2140027C089859A85AB85BC85820F931FA41FB51F8C
S2140027D08093514690935246A0935346B0935446E6
S2140027E082E08093154081E080934F461D861E86CA
S2140027F02091CB453091CC4589859A858901081B67
S214002800190BC8018F87988B2D853E858F859889F3
S214002810281739071CF48F85988902C08D859E85F8
S2140028208093CB459093CC4526C180910F409091E4
S2140028301040092E000CAA0BBB0B8093C745909343
S214002840C845A093C945B093CA4580910E400E94E2
S214002850892780930740909308400DC18091C74513
S2140028609091C845A091C945B091CA458827B7FD43
S21400287083959927AA27BB27882309F4FCC0809153
S214002880C7459091C845A091C945B091CA450196E3
S214002890A11DB11D8093C7459093C845A093C94517
S2140028A0B093CA458091C7459091C845A091C94547
S2140028B0B091CA4521E0892B8A2B8B2B09F020E0AA
S2140028C0222309F4D8C010924E468DEF8093C3455C
S2140028D080910F4090911040092E000CAA0BBB0B64
S2140028E08093C7459093C845A093C945B093CA4501
S2140028F080910E400E94892780930740909308405D
S21400290081E08A8B0E941F2F9C01CE01429640E0F8
S21400291050E0BC01C9010E941B60ADC080914046DA
S21400292090914146A0914246B091434621E08130C5
S2140029309646AE4EBF4508F420E0222309F49BC01D
S21400294080E090E00E94EB06DC01CB018D839E8345
S214002950AF83B8878091404690914146A091424609
S214002960B091434661E02D813E814F8158852817FE
S21400297039074A075B0708F460E0662309F47BC062
S21400298081E00E94507580913E4690913F4621E03E
S214002990892B09F420E0222371F18EEF8093C34542
S2140029A080913E4690913F46919581959109092EDA
S2140029B0000CAA0BBB0B8093C7459093C845A09309
S2140029C0C945B093CA4520913E4630913F46809116
S2140029D00F4090911040820F931F9C0180913C46BF
S2140029E090913D46A901481B590BCA018093CB45DF
S2140029F09093CC4539C08DEF8093C34580910F40AE
S214002A0090911040092E000CAA0BBB0B8093C74573
S214002A109093C845A093C945B093CA4580910F408E
S214002A20909110409C0180913C4690913D467901E2
S214002A30E81AF90AC7018093CB459093CC4580915C
S214002A400E400E948927809307409093084081E0BB
S214002A508B8B0E941F2F9C01CE01439640E050E0D6
S214002A60BC01C9010E941B6081E080934A468BE648
S214002A7096E40E9434579091CE4581E0992309F45C
S214002A8080E08823C1F08091CE4581508093CE456A
S214002A909091CE4581E0992309F080E0882309F4DF
S214002AA059C081E00E94C55080E00E94DC5088E753
S214002AB080930B404FC08091CF45882361F490915E
S214002AC04B4681E08927882341F090914C4681E06F
S214002AD08927882311F081E001C080E0882399F1DE
S214002AE090910B4081E0992309F480E0882359F106
S214002AF080910B40815080930B4080910B4088233F
S214002B0041F49091824681E08927882311F081E084
S214002B1001C080E08823B9F01092D04581E00E9481
S214002B20DC5080E00E94C5501092CF4510920C40B9
S214002B309091154081E0992309F480E0882319F0EC
S214002B4081E080934F4680910C40882319F081E005
S214002B508093CD4500006396CDBFDEBFDF91CF9159
S214002B601F910F91FF90EF9008951F920F92009083
S214002B703F000F92112400903B000F922F938F93EB
S214002B809F93EF93FF93CF93DF931F92CDB7DEB75C
S214002B908CE090E0FC01838189838981882F90E016
S214002BA082709927892B69F080915046882331F0EE
S214002BB010924F461092504610924C4682E08093F8
S214002BC055468CE090E02FEFFC01238300000F9029
S214002BD0DF91CF91FF91EF919F918F912F910F9061
S214002BE000923B000F9000923F000F901F901895A8
S214002BF01F920F9200903F000F92112400903B000E
S214002C000F920F931F932F933F934F935F936F9360
S214002C107F938F939F93AF93BF93EF93FF93CF933F
S214002C20DF93CDB7DEB72E97CDBFDEBF80E09BE04B
S214002C30FC0186818B838B81882F90E08170992799
S214002C40892B09F4B2C3809183469091844621E093
S214002C50892B09F420E0222349F080918346909145
S214002C6084460197809383469093844680912240C1
S214002C708F5F80932240209122408BEA289F812DEF
S214002C801124982F96959695892F880F890F880F6F
S214002C90922F981B992309F0EEC00E944D38807839
S214002CA08C830E9401388C81082F10E00E944D38DA
S214002CB0882F90E08078992721E00817190709F4F3
S214002CC020E0222341F18C818823D1F08BE696E424
S214002CD00E94BE56982F81E08927882329F08BE62C
S214002CE096E40E94345746C08091634690916446AD
S214002CF001968093634690936446109287463AC046
S214002D0010925F461092604681E08093874681E08D
S214002D10809323402FC08C81882361F5909165466F
S214002D2081E08927882331F080912340882311F0A1
S214002D3081E001C080E08823E9F080915F469091B1
S214002D406046019680935F469093604621E0883CFB
S214002D50910508F420E0222369F081E0809365461F
S214002D6010925F4610926046109263461092644638
S214002D70109223408091884690918946892B71F164
S214002D8080918846909189460197809388469093D3
S214002D9089468091884690918946892B09F042C0E1
S214002DA08091634690916446892B41F080916346FA
S214002DB090916446039710F481E001C080E0882378
S214002DC041F080916346909164468093614690936B
S214002DD06246109263461092644624C08091634611
S214002DE090916446019731F480918746882311F0CC
S214002DF081E001C080E0882339F082E390E0809390
S214002E008846909389460EC08091634690916446AA
S214002E1021E0039708F420E0222321F01092634675
S214002E20109264460E945638882F90E08270992748
S214002E3021E0892B09F420E0222379F09091C44503
S214002E4081E0913009F480E08823A9F081E0809346
S214002E50C44581E0809306400EC09091C44581E051
S214002E60923009F480E0882331F082E08093C445F4
S214002E7081E08093064080914846882331F0809117
S214002E804A46882311F081E001C080E0882309F4D7
S214002E90BDC081E0809324408091C7459091C8458D
S214002EA0A091C945B091CA4521E0181619061A0620
S214002EB01B060CF020E0222309F47FC080918A468E
S214002EC090918B46892B09F45EC080918A4690913A
S214002ED08B46019780938A4690938B4680918A46CC
S214002EE090918B46892B09F094C19E01265F3F4F37
S214002EF0CE010996A901BC0180E090E00E941B600B
S214002F0080938C46998581E08927882309F481C1BE
S214002F108A85882309F47DC18DEF8093C34580910F
S214002F200E400E948927809307409093084081E0D6
S214002F3089870E941F2F9C01CE01099640E050E031
S214002F40BC01C9010E941B609E01265F3F4FCE0157
S214002F500996A901BC0180E090E00E941B60809366
S214002F608C4680914D46882341F080911140909187
S214002F701240892B11F081E001C080E080934E461C
S214002F8010924D4646C180914E46882311F010920D
S214002F908C4680918C460E94F77580918C46682FEF
S214002FA08BE696E40E94E356809107409091084095
S214002FB080938A4690938B462CC18091C74590910A
S214002FC0C845A091C945B091CA4521E0892B8A2BF6
S214002FD08B2B09F020E0222309F41BC110924E46E9
S214002FE080918C46882309F414C110928C4680E0A8
S214002FF00E94F77560E08BE696E40E94E35680E058
S2140030000E9450758EEF8093C34503C1809182461F
S214003010882321F480912140882311F081E001C0AB
S21400302080E0882309F4F5C08CE696E40E943C3ADA
S21400303089831986809124408823A1F01092244029
S2140030408CE696E40E941D3ACE01099640E050E0D8
S214003050BC0185E890E40E941B6081E0898381E0E2
S2140030608093254089818823B1F18091254088236B
S21400307091F19091264081E08927882309F4C9C000
S21400308080918C46882369F010928C4680E00E94DE
S214003090F77560E08BE696E40E94E35680E00E94B7
S2140030A0507560E08CE696E40E94603A8091094094
S2140030B090910A4080938A4690938B46CE0109965B
S2140030C040E050E0BC0185E890E40E941B6081E08F
S2140030D0809326409EC01092264080918A4690910A
S2140030E08B46892B09F47EC080918A4690918B4648
S2140030F0019780938A4690938B4680918A4690915A
S2140031008B46892B09F085C0CE01099645E250E42E
S214003110BC0180E090E00E941B6080938C4680910A
S2140031202540882309F446C08CE696E40E943C3A83
S214003130982F81E089278823E9F1809109409091B2
S2140031400A408B879C8780910E400E9489278D8736
S2140031509E872B853C858D859E852817390718F018
S2140031608D859E8502C08B859C85809309409093B3
S2140031700A408CE696E40E94553B80938D4610925A
S2140031808E46CE01099640E050E0BC018DE896E4FC
S2140031900E941B60CE01099645E250E4BC0180E027
S2140031A090E00E941B6080938C4661E08CE696E47B
S2140031B00E94603A80911F40813021F480918C46B5
S2140031C00E94F77580918C46682F8BE696E40E94E5
S2140031D0E3568091094090910A4080938A469093E6
S2140031E08B4617C080911F40813021F480918C4619
S2140031F00E94F77580918C46682F8BE696E40E94B5
S214003200E3568091094090910A4080938A469093B5
S2140032108B4690918F4681E08927882309F470C0F9
S2140032208FEF809390461A828A818330D8F58A8100
S214003230882F90E0880F991F875E9F4BFC01808146
S214003240918121E0892B09F420E02223A1F08A81D4
S214003250882F90E09C01220F331F275E3F4BF90119
S2140032602081318121503109880F991F875E9F4B3D
S214003270FC01208331838A81882F90E0880F991F74
S214003280875E9F4BFC018081918121E0892B09F0AC
S21400329020E0222319F08A81809390468A818F5FEE
S2140032A08A83C2CF8091904688230CF47EC080919A
S2140032B09046082E000C990B20919046022E000C8A
S2140032C0330B220F331F2D563B4BF90120813181E2
S2140032D0880F991F875E9F4BFC0120833183809166
S2140032E09046082E000C990B8A5E9F4BFC0180814D
S2140032F00E948E310E94F13181E080938F4655C046
S2140033000E940632882309F450C00E941A328D8328
S2140033109E838D819E810B97C0F18D819E818A3F11
S2140033209F4098F58D819E8180939146909392461A
S21400333080919046082E000C990B880F991F875A8B
S214003340994BFC01808191818F839887809190466C
S214003350082E000C990B8A5A994B21E0FC01208319
S21400336080919146909192468F839887809190465F
S214003370082E000C990B880F991F875A994B2F819E
S2140033803885FC01208331830EC080919046082E3C
S214003390000C990B880F991F875A994BFC01808166
S2140033A091818D839E8310928F4680E09BE021E082
S2140033B0FC01268300002E96CDBFDEBFDF91CF91A5
S2140033C0FF91EF91BF91AF919F918F917F916F91F8
S2140033D05F914F913F912F911F910F910F90009207
S2140033E03B000F9000923F000F901F9018951F9281
S2140033F00F9200903F000F92112400903B000F9216
S2140034002F938F939F93EF93FF93CF93DF931F9208
S214003410CDB7DEB788E090E0FC018381898389819F
S21400342088236CF480915046882349F010924F46CA
S2140034301092504683E08093554610924C4688E0A2
S21400344090E02FEFFC01238300000F90DF91CF91D7
S214003450FF91EF919F918F912F910F9000923B00DB
S2140034600F9000923F000F901F901895CF93DF9318
S214003470CDB7DEB780E00E94507560E087E00E941E
S2140034804C1060E084E00E94A5100000DF91CF9110
S2140034900895CF93DF93CDB7DEB780E00E945075D6
S2140034A061E084E00E94A51061E087E00E944C1075
S2140034B00000DF91CF910895CF93DF931F92CDB791
S2140034C0DEB789838981882329F061E081E00E9444
S2140034D04C1004C060E081E00E944C1000000F9089
S2140034E0DF91CF910895CF93DF93CDB7DEB781E01C
S2140034F00E948610882F90E021E0181619060CF01E
S21400350020E0822FDF91CF9108950F931F93CF93E2
S214003510DF93CDB7DEB7C654D109CDBFDEBF0E945C
S2140035201E0941E060E08BE696E40E940F580E9478
S214003530491A81E00E945C1A86E796E40E94F24CE3
S21400354086E796E40E94E44781E00E94DC5081E032
S2140035500E94C55060E070E0CB010E94C97268EE20
S21400356073E080E090E00E94C972882349F00E94D0
S214003570F350982F81E08927882311F081E001C05D
S21400358080E0882309F0EBCF0E94F350882321F0D7
S21400359080E00E94C55013C080E00E94C55081E0C4
S2140035A00E94DC501092CE4510920B408091D1457F
S2140035B09091D24584608093D1459093D2450E94E5
S2140035C02D77982F81E0992309F480E0882381F0F5
S2140035D00E946476982F81E08927882349F080919D
S2140035E0D1459091D24582608093D1459093D24543
S2140035F060E070E0CB010E94C97268EE73E080E084
S21400360090E00E94C972882309F0F7CF0E94312A01
S214003610898360E070E0CB010E94C97268E57BE1B7
S21400362080E090E00E94C972882329F089818C3F4F
S21400363011F481E001C080E0882321F00E94312A45
S2140036408983ECCF89818C3F51F48091D14590914C
S214003650D24581608093D1459093D24519C0CE0162
S21400366041960E94DD3DDC01CB018A839B83AC83BF
S214003670BD838989882341F48A819B81AC81BD8181
S214003680BC01CD010E9491030E94B52F809349464C
S21400369083E08093CE450E94CC268093C5450E9449
S2140036A0E71E809161469091624621E0892B09F4DD
S2140036B020E02223F1F0809161469091624621E05D
S2140036C0019709F020E0222321F082E00E94CD2A13
S2140036D00CC0809161469091624621E0029709F005
S2140036E020E0222311F00E94A72A10926146109231
S2140036F0624680915F469091604621E0883E934006
S21400370008F420E0222359F068E08BE696E40E9455
S214003710F95767E08BE696E40E94F9573EC18CE6BF
S21400372096E40E947D3A982F81E08927882341F00D
S2140037308CE696E40E943C3A882311F081E001C0B2
S21400374080E0882309F429C182E080931F4080919D
S214003750D1459091D24521E0892B09F420E022231F
S21400376031F069E08BE696E40E94F95716C1809125
S2140037706846882309F4F0C0809183469091844679
S21400378021E0892B09F020E0222309F406C180E01D
S21400379090E00E94EB06DC01CB018E839F83A88716
S2140037A0B9870E94322E8A878A85823099F0809166
S2140037B0404690914146A0914246B09143462E81A4
S2140037C03F8148855985281739074A075B0710F453
S2140037D081E001C080E0882309F4BBC08CE390E060
S2140037E08B879C8780910B408A8B8A89282F30E0B4
S2140037F08B859C858217930724F48A89882F90E00E
S21400380002C08B859C8580930B4081E00E940A3025
S2140038108C018091404690914146A0914246B091DD
S2140038204346AE014B5E5F4F22E330E0BC01CD0164
S2140038300E949941212F2F93202F2F93292F2F93CA
S2140038408F9387E890E4892F8F9387E890E48F938F
S2140038508EE595E4892F8F938EE595E48F930E94ED
S214003860997F8DB79EB70896CDBFDEBF42E76EE262
S2140038708EE595E40E94AE3040E26DE28EE595E47A
S2140038800E94AE3042E76AE38EE595E40E94AE30D1
S2140038908EE595E40E94547F8035910560F4809112
S2140038A0D345882341F044E150E063ED75E48EE5AE
S2140038B095E40E945D7F8EE595E40E94547F8535F1
S2140038C09105B8F580912746882399F18EE595E411
S2140038D09C01F90101900020E9F7CF010197821BB6
S2140038E0930B825A9A4B20E23DE3FC0120833183FE
S2140038F020E230E0FC012283338344E150E067E2BB
S21400390076E48EE595E40E945D7F8EE595E49C0165
S214003910F90101900020E9F7CF010197821B930B74
S214003920825A9A4B20E23EE7FC0120833183FC0159
S21400393012828FE00E9489278093094090930A4064
S2140039406EE575E48BE696E40E94755781E08093F9
S2140039501F401092684621C080914946882371F026
S21400396088E00E9489278093094090930A406AE97C
S21400397070E48BE696E40E9475570FC08091484627
S214003980882331F061E08BE696E40E94F95705C083
S21400399063E08BE696E40E94F95780916646909124
S2140039A0674621E0892B09F020E0222339F10E94A6
S2140039B026328D879E878D859E8589339F4FC4F0DE
S2140039C08D859E85863991059CF40E94731A8823FE
S2140039D041F08D859E854F975CF480E00E945C1ACE
S2140039E007C08D859E8583971CF081E00E945C1A37
S2140039F08AE090E08093664690936746809165469D
S214003A00882389F01092654680914846882319F0ED
S214003A100E94A72A03C081E080934B4668E08BE6AD
S214003A2096E40E9446578091C545882341F110923E
S214003A30C5451B8ACE0143960E94E3278093C24564
S214003A4090910B4081E0992309F480E08823B9F037
S214003A5080910B408C8B8AE090E08F87988B8C89C6
S214003A60282F30E08F8598892817390724F08C890D
S214003A70882F90E002C08F85988980930B408091B4
S214003A80C645882321F01092C6450E94A72A809139
S214003A90CD45882361F11092CD4580E090E00E94EC
S214003AA0EB06DC01CB012B2F2F932A2F2F93292FE8
S214003AB02F938F938EE990E4892F8F938EE990E46D
S214003AC08F938EE595E4892F8F938EE595E48F93FB
S214003AD00E94997F2DB73EB7285F3F4FCDBFDEBF10
S214003AE04EE555E462EA70E483E00E94925F9091AE
S214003AF0C24581E0992309F480E0882331F1809162
S214003B00C245882F90E0292F2F938F9386EA90E462
S214003B10892F8F9386EA90E48F938EE595E4892F1C
S214003B208F938EE595E48F930E94997F0F900F9068
S214003B300F900F900F900F904EE555E469EA70E4F1
S214003B4083E00E94925F1092C2459091C34581E047
S214003B50992309F480E0882331F18091C345882FAA
S214003B6090E0292F2F938F9386EA90E4892F8F93E6
S214003B7086EA90E48F938EE595E4892F8F938EE501
S214003B8095E48F930E94997F0F900F900F900F905F
S214003B900F900F904EE555E46CEA70E483E00E94C7
S214003BA0925F1092C34580914B46882309F441C02A
S214003BB08091D045882369F110924B4681E080932E
S214003BC04C468091C345882F90E0292F2F938F93E2
S214003BD086EA90E4892F8F9386EA90E48F938EE5A9
S214003BE095E4892F8F938EE595E48F930E94997FB5
S214003BF00F900F900F900F900F900F904FEA50E499
S214003C0061EB70E483E00E94925F83E0809315404E
S214003C1010C080910B40882331F48091CE458823D4
S214003C2011F481E001C080E0882319F081E08093E0
S214003C30CE45809106408823D1F11092064090919F
S214003C40C44581E0913009F080E0882339F081E0B6
S214003C500E94CC7587EF8093C24527C09091C445DB
S214003C6081E0923009F080E08823F9F080E00E943D
S214003C70CC758BE696E40E9434570E94CC26809141
S214003C801540813031F480915546882311F081E04B
S214003C9001C080E0882349F081E08093684688EE82
S214003CA093E080938346909384460E947E2A809178
S214003CB04F46882309F4F3CC60E08BE696E40E9436
S214003CC0F9570E94CE5E0E94FB7681E00E94DC508F
S214003CD080E00E94C5500E94361A80E00E945C1A5E
S214003CE00E94B53D10924C4682E00E94477281E0E9
S214003CF08093504680914F46882301F180E590E0FE
S214003D0020E530E0F9012081297F2260FC01208334
S214003D10F89480E590E020E530E0F901208121600C
S214003D20FC0120837894889580E590E020E530E0DB
S214003D30F90120812E7FFC012083DCCF10925046B3
S214003D400E941E090E94491A0E942D7780915546AE
S214003D50833041F080915546823021F0809155465F
S214003D60882311F481E001C080E0882341F00E949E
S214003D707E2A0E94035F82E08093CE4520C0909109
S214003D80554681E0913009F080E08823C1F081E05B
S214003D900E9450759091484681E08927882379F0E3
S214003DA00E94CC268093C5459091C54581E0892721
S214003DB0882329F00E94035F82E08093CE450E940C
S214003DC0B52F809349468DEE8093C34568CC0F93FC
S214003DD01F93CF93DF93CDB7DEB7E397CDBFDEBF9C
S214003DE081E089830E949B5D8C879D8721E08C857E
S214003DF09D85892B09F420E0222309F4C4C78C850D
S214003E009D85FC01818192818E879F878E859F8507
S214003E10813DFEE19F0709F4D6C6823D2EE192075A
S214003E2008F03DC08438E3E09E0709F4F5C2853803
S214003E30F3E09F07D0F4853123E0920709F420C20F
S214003E408631E3E09E0730F48435910509F4AEC56B
S214003E500C9497268E31F3E09F0709F46AC48136E6
S214003E60934009F486C60C949726863AECE19E07A2
S214003E7009F426C7873AFCE19F0730F48F3A93404F
S214003E8009F448C00C9497268831EDE19E0709F4A2
S214003E9054C782389E4109F40CC10C9497268A397F
S214003EA023E2920709F401C18B39E3E29E07D0F4BE
S214003EB08E36F1E29F0709F440C78F3621E292075B
S214003EC030F48735904209F448C00C9497268D3A12
S214003ED0F2E29F0709F45AC1813C924209F4CBC131
S214003EE00C949726803DE3E29E0709F490C4813D3A
S214003EF0F3E29F0728F48F3C934209F4F3C617C7F2
S214003F00873FE3E29E0709F425C38C39944209F4FF
S214003F1006C70DC78C859D85FC018381882309F41F
S214003F200EC78C859D8503960E94E37E21E0892B33
S214003F3009F420E0288B0E94A72A0E94CE5E1092E9
S214003F400B4010921540988981E08927882309F450
S214003F50F6C680E00E94C550F2C61092484681E040
S214003F60809382468C859D85FC018381882309F495
S214003F70E8C68C859D850396898B9A8B89899A8954
S214003F800E94547F8B8B9C8B809182468D8B8B8975
S214003F909C890297B9F489899A89FC0180818C35BD
S214003FA089F489899A890196FC018081823451F4CA
S214003FB0109282468CE696E40E940A3B8D89809396
S214003FC08246BFC68B899C890297ACF11A821B82F7
S214003FD0109282468CE696E40E948D3A982F81E0F5
S214003FE08927882369F02A813B818B899C89281739
S214003FF0390734F48A819B81459714F481E001C027
S21400400080E08823A1F08A819B819C012F5F3F4F2F
S2140040102A833B832C853D85820F931F0396FC01E4
S2140040208081682F8CE696E40E949D3AD3CF8D89D6
S2140040308093824686C68C859D85FC0183818E8B07
S2140040408E898B3569F481E00E94507541E067E007
S2140040508BE696E40E940F5881E00E94697571C64F
S2140040608E898D3569F480E00E94697580E00E9433
S214004070507541E061E08BE696E40E940F5861C6F9
S2140040808E898E3539F40E94A72A10920B40109222
S214004090154057C6109282466E898CE696E40E94BA
S2140040A09D3A8D89809382464CC682E00E947E2788
S2140040B0FFCF8C859D85FC0183818F8B81E080936B
S2140040C00C408F898A3521F488E780930B403BC6E5
S2140040D08F898033C9F581E08093D04580E090E0F9
S2140040E00E94EB06DC01CB012B2F2F932A2F2F9358
S2140040F0292F2F938F938EE990E4892F8F938EE943
S21400410090E48F938EE595E4892F8F938EE595E462
S2140041108F930E94997F8DB79EB70896CDBFDEBF5E
S2140041204EE555E462EA70E483E00E94925F809177
S2140041304C46882309F407C64FEA50E461EB70E466
S21400414083E00E94925FFFC58F89823371F481E01D
S2140041508093CE459091484681E08927882309F4CC
S214004160F2C581E08093C545EEC58F89833309F09B
S214004170EAC51092CE4581E080930B4010924C46E3
S21400418010920C4081E08093CF45DDC58C859D85DF
S214004190FC018381882309F4D8C58C859D85FC01A4
S2140041A083818D3481F48C859D85FC01808D8823E8
S2140041B051F08C859D8548960E94E37E80939346B9
S2140041C09093944609C08C859D8503960E94E37E55
S2140041D080939346909394460E9459769C018091D2
S2140041E093469091944641E02817390709F440E039
S2140041F04423B9F160E070E083E996E40E946D76AE
S214004200888F888D882321F0888D8093C24505C0CD
S214004210809195468F5F80939546809193469091C6
S2140042209446292F2F938F9382E392E4892F8F93BE
S21400423082E392E48F938EE595E4892F8F938EE543
S21400424095E48F930E94997F0F900F900F900F9098
S2140042500F900F904EE555E467E372E483E00E940A
S214004260925F8091694690916A4680648093694621
S21400427090936A466AC586E796E40E94074776C525
S2140042808C859D85FC018381898F898D813321F002
S214004290898D823309F0AEC09091C44581E092309A
S2140042A009F480E0882319F087EF8093C245898D52
S2140042B0813309F063C08091C445823021F080913B
S2140042C06440882311F081E001C080E0882309F46F
S2140042D0A1C01092484681E00E94507581E08EA7EA
S2140042E0CE018E9640E050E0BC0183ED95E40E943E
S2140042F01B6080910E400E94892780930740909310
S214004300084081E090E0A0E0B0E0809340469093C3
S2140043104146A0934246B09343468FEF9FEFDC01A1
S2140043208093444690934546A0934646B0934746AE
S2140043308FE097E280930F409093104010921140C8
S214004340109212408FE097E2A0E0B0E08093C7455D
S2140043509093C845A093C945B093CA458FEF9FEF89
S2140043608093CB459093CC4581E080934A4681E08C
S214004370809348468DEF8093C3454CC0898D823329
S21400438009F048C00E94B52F80934946809169463F
S21400439090916A468F3F9F4021F08DEC8093C245F6
S2140043A039C080919546882351F0809148468823ED
S2140043B011F00E94A72A86E796E40E94074790918C
S2140043C0484681E08927882359F01FA6CE018F969C
S2140043D00E94E3278093C24582E08093CE4503C0C7
S2140043E08CE380930B40109295461092694610928B
S2140043F06A4610C0898D803309F0A9C4109295468C
S2140044001092694610926A468CEE8093C3451092CD
S21400441082469DC400009BC41C821D821E821F8291
S2140044208C859D85FC018381833509F04BC08C8586
S2140044309D85FC01808D882359F08C859D85489646
S2140044400E94017FDC01CB018C839D83AE83BF83FA
S2140044508091404690914146A0914246B091434695
S21400446061E02C813D814E815F81281739074A071C
S2140044705B0709F460E06623D9F08C819D81AE81EC
S214004480BF818093404690934146A0934246B093A6
S214004490434680E090E00E94DD3DDC01CB01BC019C
S2140044A0CD010E949103809195468F5F809395463B
S2140044B08091694690916A46986080936946909389
S2140044C06A4647C48C859D85FC018381863409F045
S2140044D040C48C859D85FC01808D882359F08C8591
S2140044E09D8548960E94017FDC01CB018C839D83CD
S2140044F0AE83BF838091444690914546A091464640
S214004500B091474661E02C813D814E815F8128173E
S21400451039074A075B0709F460E0662389F08C8157
S2140045209D81AE81BF818093444690934546A0937B
S2140045304646B0934746809195468F5F8093954652
S2140045408091694690916A4681608093694690930F
S2140045506A46FFC381E080930C408C859D85FC01F4
S2140045608081813009F04AC08C859D85FC0183815D
S2140045708823D1F08C859D85039644E150E0BC01EC
S2140045808EE595E40E946D7F60E08EE595E40E94DE
S214004590B73F80E090E00E94DD3DDC01CB01BC012E
S2140045A0CD010E949103D7C380E090E00E94EB0605
S2140045B0DC01CB012B2F2F932A2F2F93292F2F93FC
S2140045C08F938EE990E4892F8F938EE990E48F93F2
S2140045D08EE595E4892F8F938EE595E48F930E9460
S2140045E0997F8DB79EB70896CDBFDEBF4EE555E4E2
S2140045F062EA70E483E00E94925FADC38C859D857D
S214004600FC018081823009F0A6C38C859D85FC0163
S21400461083818835C9F51A8E8C859D85FC01808D31
S214004620882351F08C859D8548960E94E37E8A8F6C
S2140046308A8D0E940F418FC30E943E418A8F8A8DC9
S214004640082E000C990B292F2F938F938BE392E45F
S214004650892F8F938BE392E48F938EE595E4892FD1
S2140046608F938EE595E48F930E94997F0F900F901D
S2140046700F900F900F900F904EE555E462EA70E4AD
S21400468083E00E94925F67C380E090E00E94DD3D79
S214004690DC01CB018B8F9C8FAD8FBE8F8B8D9C8D5D
S2140046A0AD8DBE8DBC01CD010E94910380919646D2
S2140046B090919746A0919846B09199462B8D3C8D47
S2140046C04D8D5E8D281739074A075B0709F443C3EB
S2140046D08E8D8F938D8D8F938C8D8F938B8D8F93E7
S2140046E08EE990E4892F8F938EE990E48F938EE580
S2140046F095E4892F8F938EE595E48F930E94997F9A
S2140047008DB79EB70896CDBFDEBF4EE555E462EA8C
S21400471070E483E00E94925F8B8D9C8DAD8DBE8D84
S2140047208093964690939746A0939846B093994662
S21400473012C38C859D85FC018081813009F03FC0C5
S2140047408C859D85FC018381882301F18C859D8560
S2140047500396BC0187E296E40E944B7F892B29F1E1
S2140047608C859D85039644E150E0BC0187E296E483
S2140047700E946D7F0E94CC2E80933C4690933D46CF
S214004780809195468F5F809395460FC0809127460F
S214004790882359F01092274610923C4610923D46C8
S2140047A0809195468F5F809395468091694690915B
S2140047B06A4691608093694690936A46CEC280911D
S2140047C02746882309F4C9C287E296E4892F8F9387
S2140047D087E296E48F9380E492E4892F8F9380E4B7
S2140047E092E48F938EE595E4892F8F938EE595E47A
S2140047F08F930E94997F0F900F900F900F900F90BD
S2140048000F908EE595E40E94355F1982A6C28091CE
S2140048100E408F8F8C859D85FC018381893409F03D
S21400482060C08C859D85FC01808D882309F497C225
S2140048308C859D8548960E94017FDC01CB0188A36C
S21400484099A3AAA3BBA385E08CA384E18DA38DA125
S214004850282F30E040E050E088A199A1AAA1BBA192
S214004860281739074A075B0734F48DA1882F90E094
S214004870A0E0B0E010C08CA1882F90E0A0E0B0E0EF
S21400488028A139A14AA15BA182179307A407B507FF
S21400489014F4DA01C9018F8F90910D4081E02F8DBD
S2140048A0291709F480E0882391F08F8D80930D40BE
S2140048B0809195468F5F8093954680912746882302
S2140048C031F00E94CC2E80933C4690933D468091DA
S2140048D0694690916A4692608093694690936A46CC
S2140048E03EC28C859D85FC018381803509F037C2E8
S2140048F08C859D85FC01808D882309F430C28C85CB
S2140049009D8548960E94017FDC01CB018EA39FA364
S214004910A8A7B9A785E08AA784E18BA78BA5282F2F
S21400492030E040E050E08EA19FA1A8A5B9A52817C9
S21400493039074A075B0734F48BA5882F90E0A0E080
S214004940B0E010C08AA5882F90E0A0E0B0E02EA1CD
S2140049503FA148A559A582179307A407B50714F4E5
S214004960DA01C9018F8F90910E4081E02F8D2917B3
S21400497009F480E0882381F08F8D80930E4080912B
S21400498095468F5F8093954680910E400E948927BA
S21400499080930740909308408091694690916A46BC
S2140049A094608093694690936A46D9C11CA61DA65A
S2140049B08C859D85FC018381803391F58C859D8552
S2140049C0FC01808D882309F4CCC18C859D85489692
S2140049D00E94017FDC01CB018CA79DA7809111402E
S2140049E09091124041E02CA53DA52817390709F4FF
S2140049F040E0442359F08CA59DA5809311409093E8
S214004A001240809195468F5F8093954680916946C7
S214004A1090916A4684608093694690936A46A1C1E5
S214004A208C859D85FC018381813391F58C859D85E0
S214004A30FC01808D882309F494C18C859D85489659
S214004A400E94017FDC01CB018CA79DA780910F40BF
S214004A509091104041E02CA53DA52817390709F490
S214004A6040E0442359F08CA59DA580930F40909379
S214004A701040809195468F5F809395468091694659
S214004A8090916A4688608093694690936A4669C1A9
S214004A908C859D85FC018381893491F58C859D8567
S214004AA0FC01808D882309F45CC18C859D85489621
S214004AB00E94017FDC01CB018CA79DA7809113404B
S214004AC09091144041E02CA53DA52817390709F41C
S214004AD040E0442359F08CA59DA580931340909305
S214004AE01440809195468F5F8093954680916946E5
S214004AF090916A4680628093694690936A4631C177
S214004B008C859D85FC018381843409F02AC18C85BF
S214004B109D85FC01808D882309F423C18C859D85A5
S214004B2048960E94017FDC01CB018CA79DA780914F
S214004B303E4690913F4641E02CA53DA528173907F3
S214004B4009F440E0442359F08CA59DA580933E4689
S214004B5090933F46809195468F5F809395468091CF
S214004B60694690916A4680618093694690936A464A
S214004B70F8C08C859D85FC018381882309F4F3C0E9
S214004B808C859D850396BC0183ED95E40E944B7F42
S214004B90892B79F08C859D85039644E150E0BC0115
S214004BA083ED95E40E946D7F809195468F5F80939C
S214004BB095468091694690916A46826080936946E0
S214004BC090936A46D0C0188619861A861B868C85EE
S214004BD09D85FC0183818823E9F18C859D8503965C
S214004BE00E94017FDC01CB0188AB99ABAAABBBABC3
S214004BF00E943F759B01AC0188A999A9AAA9BBA9E7
S214004C0061E0281739074A075B0709F460E0662366
S214004C10B9F0CE01C09661E00E94ED74982F81E055
S214004C208927882369F088A999A9AAA9BBA9888792
S214004C309987AA87BB87809195468F5F8093954614
S214004C408091694690916A46806880936946909301
S214004C506A4608C00E943F75DC01CB0188879987A9
S214004C60AA87BB8788859985AA85BB85892B8A2BC9
S214004C708B2B09F47AC08B858F938A858F938985D1
S214004C808F9388858F9389E492E4892F8F9389E4A4
S214004C9092E48F938EE595E4892F8F938EE595E4C5
S214004CA08F930E94997F8DB79EB70896CDBFDEBFC3
S214004CB04EE555E46EE472E483E00E94925F55C0D0
S214004CC080E00E940A3062E572E40E94E15F80E0C4
S214004CD090E00E94DD3DDC01CB01BC01CD010E94CD
S214004CE0910344C00E942632092E000CAA0BBB0B6F
S214004CF0BC01CD010E94E47BDC01CB010EE515E48E
S214004D0021E044E0BC01CD010E94A27D10926345E3
S214004D1067E572E48EE595E40E94E15F27C04CE506
S214004D2052E461E672E483E00E94925F1FC019823B
S214004D3085E692E40E94355F19C0000017C00000A7
S214004D4015C0000013C0000011C000000FC0000016
S214004D500DC000000BC0000009C0000007C0000026
S214004D6005C0000003C0000001C000008981882340
S214004D7021F08BE692E40E94355F8C859D85FC01D0
S214004D80118212822FC80000E396CDBFDEBFDF91EE
S214004D90CF911F910F910895CF93DF93CDB7DEB7D4
S214004DA02897CDBFDEBF20914046309141464091C6
S214004DB04246509143468091444690914546A09184
S214004DC04646B0914746BC01CD010E946F7ADC0191
S214004DD0CB0189839A83AB83BC8380E090E00E94FA
S214004DE0EB06DC01CB018D839E83AF83B8872091D1
S214004DF044463091454640914646509147468D81FF
S214004E009E81AF81B885BC01CD010E946F7ADC011E
S214004E10CB0189839A83AB83BC8310924F468981EA
S214004E209A81AB81BC81BB239CF083E080931540C4
S214004E308FEF9FEFDC018093514690935246A093EC
S214004E405346B093544682E08093CE4580E050C0EF
S214004E5081E00E9450752091404630914146409135
S214004E604246509143468D819E81AF81B885BC01F4
S214004E70CD010E946F7ADC01CB0189839A83AB83D4
S214004E80BC8389819A81AB81BC8188389F4FAF4FA4
S214004E90BF4FBCF01092154080914046909141461D
S214004EA0A0914246B09143460597A109B109809367
S214004EB0514690935246A0935346B093544681E091
S214004EC017C08091404690914146A0914246B091CD
S214004ED043460597A109B1098093514690935246DF
S214004EE0A0935346B093544681E08093154081E0EA
S214004EF02896CDBFDEBFDF91CF910895CF93DF9385
S214004F001F92CDB7DEB7898300000F90DF91CF9157
S214004F100895CF93DF93CDB7DEB72A97CDBFDEBF18
S214004F208A878A85898385E090E08A839B8384E1EB
S214004F3090E08C839D838981282F880F330B8C818A
S214004F409D81821793075CF08981082E000C990BCF
S214004F502A813B818217930724F4C90102C08C8101
S214004F609D818A878A85282F30E040E050E088EDD2
S214004F709DE0A0E0B0E0BC01CD010E94607DDA01BA
S214004F80C9012AE030E040E050E0BC01CD010E94BB
S214004F90607DDA01C901BC01CD010E94E47BDC0121
S214004FA0CB018E839F83A887B9876E817F81888592
S214004FB099850E94B37BDC01CB012A96CDBFDEBF6C
S214004FC0DF91CF910895CF93DF9300D01F92CDB796
S214004FD0DEB78A839B8380E090E00E94DD3DDC01A3
S214004FE0CB01BC01CD010E9491038A819B810E9466
S214004FF0182889838A819B81FC018081882331F06F
S2140050008A819B81FC0180818093C34589818823A6
S21400501021F089818093C24504C00E94CC268093EB
S214005020484689812396CDBFDEBFDF91CF91089594
S214005030CF93DF93CDB7DEB76397CDBFDEBF8A8B46
S2140050409B8B8091404690914146A0914246B091FC
S214005050434621E0892B8A2B8B2B09F020E0222364
S21400506011F08CECF8C120914046309141464091B9
S2140050704246509143468091444690914546A091C1
S2140050804646B091474661E0281739074A075B074E
S21400509008F460E0662311F08DECDDC180910F40CE
S2140050A09091104021E0892B09F020E0222311F096
S2140050B08BECD1C1209111403091124080910F406D
S2140050C090911040280F391F80913E4690913F46A0
S2140050D041E0281739070CF040E0442311F08AEC31
S2140050E0BAC18091D345882311F489ECB4C190915C
S2140050F00E4081E0992309F080E0882311F088ECC7
S214005100AAC1809127468823C1F080910D4088234C
S21400511031F08091134090911440892B11F481E076
S21400512001C080E0882311F087EC95C10E94CC2E48
S21400513080933C4690933D4604C010923C461092A5
S2140051403D4680E090E00E94EB06DC01CB018A83BE
S2140051509B83AC83BD832091444630914546409165
S21400516046465091474661E08A819B81AC81BD816D
S214005170281739074A075B0708F060E0662359F0EE
S2140051808A899B89892B09F465C18A899B892AEFBC
S214005190FC0120835FC120914046309141464091FA
S2140051A04246509143468A819B81AC81BD81BC01B9
S2140051B0CD010E946F7ADC01CB018E839F83A88786
S2140051C0B9878E819F81A885B985BB230CF434C12D
S2140051D0198220910F40309110408091114090919B
S2140051E01240820F931F8A879B878A859B859C0126
S2140051F0990F440B550B8E819F81A885B985BC01FC
S214005200CD010E94607DDC01CB018C879D872091BB
S2140052103E4630913F468C859D85A901481B590B1B
S214005220CA018E879F878E859F85181619060CF4EF
S214005230A8C08E859F8522273327281B390B80918F
S2140052400F409091104041E0281739070CF440E0D9
S214005250442309F441C02A853B858E859F85820FAD
S214005260931F919581959109092E000CAA0BBB0BF3
S2140052708093C7459093C845A093C945B093CA4547
S2140052808A899B89892B29F08A899B892EEFFC01C4
S21400529020839091484681E08927882309F4A6C098
S2140052A080910F40909110409C018091C74590914D
S2140052B0C845A091C945B091CA45281B390B8091B5
S2140052C03C4690913D46A901481B590BCA01809364
S2140052D0CB459093CC458AC020910F40309110402A
S2140052E08E859F85820F931F092E000CAA0BBB0B81
S2140052F08093C7459093C845A093C945B093CA45C7
S21400530081E089838A899B89892B29F08A899B89F0
S2140053102DEFFC0120839091484681E08927882361
S21400532009F464C080913C4690913D469C0140E063
S21400533050E08091C7459091C845A091C945B0916D
S214005340CA4561E0281739074A075B070CF060E09A
S214005350662309F44BC08091C7459091C845A0913B
S214005360C945B091CA459C0180913C4690913D4606
S214005370A901481B590BCA018093CB459093CC4595
S21400538035C08E859F85919581959109092E000CD3
S214005390AA0BBB0B8093C7459093C845A093C945FD
S2140053A0B093CA458A899B89892B29F08A899B896B
S2140053B02EEFFC0120839091484681E089278823C0
S2140053C0A9F020910F40309110408E859F85820F66
S2140053D0931F9C0180913C4690913D46A901481B35
S2140053E0590BCA018093CB459093CC45898188237D
S2140053F0E1F080914846888B1092484681E0898B80
S214005400CE01419640E050E0BC0183ED95E40E9459
S2140054101B6080910E400E948927809307409093DE
S214005420084088898093484603C080E00E94F7754C
S21400543081E080934A460CC08A899B89892B29F093
S2140054408A899B892FEFFC01208380E00E94F775F4
S21400545010924C4680E06396CDBFDEBFDF91CF91C1
S2140054600895CF93DF931F92CDB7DEB781E089838F
S21400547060E070E0CB010E94C97268EE73E080E0E5
S21400548090E00E94C972882329F08981882311F050
S21400549081E001C080E0882321F00E94CF3D89830F
S2140054A0ECCF998181E08927882309F181E08983FF
S2140054B060E070E0CB010E94C97268EE73E080E0A5
S2140054C090E00E94C972882329F08981882311F010
S2140054D081E001C080E0882329F081E00E94DB4063
S2140054E08983EBCF8981882321F08CEF03C08CEF72
S2140054F001C080E00F90DF91CF910895CF93DF93A6
S2140055001F92CDB7DEB79091C44581E0923009F086
S21400551080E089838091D1459091D24521E0892B06
S21400552009F020E0222371F08981882331F068E0B9
S2140055308BE696E40E94F95705C062E08BE696E497
S2140055400E94F95789810F90DF91CF910895CF93EC
S214005550DF931F92CDB7DEB7109248461092C7452C
S2140055601092C8451092C9451092CA4510924A46F4
S21400557080E00E94F77580E00E945075198240E036
S21400558050E0CE010196BC0185E890E40E941B60C5
S21400559000000F90DF91CF910895CF93DF9300D056
S2140055A0CDB7DEB78A830E94322E89838A8188230C
S2140055B069F48981823029F460E085E10E94262B17
S2140055C03FC063E085E10E94262B3AC08A81823084
S2140055D0D9F48981823029F461E085E10E94262B86
S2140055E02FC08981813031F08981843019F089811A
S2140055F0833029F461E085E10E94262B21C063E018
S21400560085E10E94262B1CC08981823029F461E046
S21400561085E10E94262B14C08981813029F462E03E
S21400562085E10E94262B0CC08981843029F463E032
S21400563085E10E94262B04C063E085E10E94262BAC
S21400564000000F900F90DF91CF910895CF93DF93D6
S214005650CDB7DEB72A97CDBFDEBF89876A8781E0E0
S21400566089838985853119F40E94F52E89871092E1
S214005670484610924A4660E08BE696E40E94E3565F
S21400568080E090E00E94DD3DDC01CB01BC01CD0155
S2140056900E9491038985882F90E0092E000CAA0BA2
S2140056A0BB0B41E050E023E130E0841B950B28174C
S2140056B0390708F4FBC18C589F4FFC010C947F7D82
S2140056C08981882389F08DE49FE48093D345909365
S2140056D0D44585E490E08093D5459093D6451982CD
S2140056E010923E4610923F468981882399F08DE4B9
S2140056F09FE48093D3459093D44589E490E08093CB
S214005700D5459093D64519828CE390E080933E462B
S21400571090933F468981882399F08DE49FE4809397
S214005720D3459093D44583E590E08093D5459093F8
S214005730D645198288E790E080933E4690933F4690
S2140057408981882399F08DE49FE48093D3459093D4
S214005750D44588E490E08093D5459093D645198249
S21400576084EB90E080933E4690933F468981882361
S21400577091F08DE49FE48093D3459093D44585E3E0
S21400578090E08093D5459093D64580EF90E0809347
S2140057903E4690933F4680910E400E948927809314
S2140057A00740909308408CE390E08093CB4590931D
S2140057B0CC458CE390E080930F409093104080EFB0
S2140057C090E080931140909312409BC1898188237A
S2140057D069F08DE495E48093D3459093D445109278
S2140057E0D545198210923E4610923F4689818823FD
S2140057F079F08DE499E48093D3459093D445109244
S214005800D54519828CE090E080933E4690933F46C3
S2140058108981882379F08DE493E58093D34590932E
S214005820D4451092D545198288E190E080933E4693
S21400583090933F468981882379F08DE498E480939D
S214005840D3459093D4451092D545198284E290E0D2
S21400585080933E4690933F468981882371F08DE47D
S21400586095E38093D3459093D4451092D54580E335
S21400587090E080933E4690933F4688E080930E40AB
S21400588080910E400E94892780930740909308409D
S21400589088E592E08093CB459093CC458CE090E0F1
S2140058A080930F409093104080E390E080931140E7
S2140058B09093124026C18981882369F08FE495E48D
S2140058C08093D3459093D4451092D5451982109273
