S0110000466C6578466F7838302E73726563EF
S2140000000C9458020C9482020C9482020C94820285
S2140000100C9482020C9482020C94F1100C948202CE
S2140000200C9482020C9482020C9482020C9482023B
S2140000300C9472150C942A6F0C9482020C94820213
S2140000400C9482020C9482020C9482020C94C908CE
S2140000500C94D10B0C9482020C9416150C9482020C
S2140000600C94E3360C9482020C9482020C94820266
S2140000700C9482020C9491170C9493080C945B0DCC
S2140000800C94000F0C9482020C9482020C94820250
S2140000900C9482020C9482020C9482020C948202CB
S2140000A00C9482020C94DF520C9482020C9482020E
S2140000B00C9482020C9482020C9482020C948202AB
S2140000C00C9482020C9482020C9482020C9482029B
S2140000D00C9482020C9482020C9482020C940D09F9
S2140000E00C94960C0C948202B42DC82DDE2DF42DA3
S2140000F00A2E502F452F452E552E672E792E8B2EE5
S214000100C52ED52EE72EF92E0B2FA647B3474A4706
S214000110B347B347B3475847B347B347B347A24677
S214000120B347B347B347B347B347B347B347B347FA
S214000130B347B347B347B347B347B347B347B347EA
S214000140B347B347B347B347D246B347B347B347BC
S214000150B347B347B347B347B347B347B347B347CA
S214000160B347B347B347B347B347B347B347B347BA
S214000170B3470247B347B347B347B347B347B3475B
S214000180B347B3473647404766477946B347B34712
S214000190B3478746B347B347B3479546B347704719
S2140001A07A47B3478547B3479047B3479B4796542C
S2140001B0A954B354BD54ED54D5540555DF55F555E3
S2140001C0B05581554F551D55855E1C5E695E935E24
S2140001D0705E935E385E155E2A5E315E935E545E98
S2140001E0075E5B5E005E235EBB5DC25DC95DD05D83
S2140001F0D75DDE5DE45DEB5DF25DF95D3F5E465E1C
S2140002008C5E4D5E935E0E5E775E095D105D175DDB
S2140002101E5D255D2B5D325D395D3F5D455D4C5D48
S214000220535D5A5D615D685D6F5D765D7D5D845D85
S2140002308A5D915D985D9F5DA65DAD5DB45D935EE4
S214000240935E935E935E625E935E935E935E935E52
S214000250935E935E935E935E935E935E935E935E11
S214000260935E935E935E935E935E935E935E935E01
S214000270935E935E935E935E935E935E935E935EF1
S2140002807E5EC476CF76DA76E576F076FB7606770F
S21400029011771C77277732773D77487753775E77E5
S2140002A0697774777F774E414E494E495459494E87
S2140002B046CDCCCC3D0AD7233C17B7D13877CC2BCC
S2140002C0329595E6241FB14F0A000020410000C871
S2140002D04200401C4620BCBE4CCA1B0E5AAEC59DF2
S2140002E07400407A10F35A00A0724E18090010A548
S2140002F0D4E80000E87648170000E40B540200003B
S214000300CA9A3B000000E1F50500008096980000C0
S2140003100040420F000000A08601000000102700E9
S214000320000000E803000000006400000000000A6F
S21400033000000000000100000000002C76D888DCD9
S214000340674F0823DFC1DFAE59E1B1B796E5E3E4B6
S21400035053C63AE651997696E8E6C28426EB898C2F
S2140003609B62ED407C6FFCEFBC9C9F40F2BAA56F91
S214000370A5F490055A2AF75C936B6CF9676DC11B60
S214000380FCE0E40D47FEF520E6B500D0ED902E0328
S21400039000943577050080841E080000204E0A0071
S2140003A00000C80C333333330F986E12831141EFBD
S2140003B08D2114893BE65516CFFEE6DB18D1844B1B
S2140003C0381BF77C1D901DA4BBE424203284725E8B
S2140003D0228100C9F124ECA1E53D274A616E7561D2
S2140003E07279204665627275617279204D6172631A
S2140003F06820417072696C204D6179204A756E657F
S214000400204A756C79204175677573742053657042
S21400041074656D626572204F63746F626572204EFC
S2140004206F76656D62657220446563656D626572A0
S214000430200053756E646179204D6F6E646179207B
S21400044054756573646179205765646E657364617D
S21400045079205468757273646179204672696461A4
S21400046079205361747572646179200053756E4DFE
S2140004706F6E547565576564546875467269536146
S21400048074004A616E4665624D61724170724D61DC
S214000490794A756E4A756C4175675365704F63741B
S2140004A04E6F7644656300008E345F379B346C373E
S2140004B011241FBECFEFCDBFDFE7DEBF16E4A0E0FE
S2140004C0B0E4E4E4F7E001E00BBF02C007900D9251
S2140004D0A23CB107D9F72AE4A2ECB6E401C01D920B
S2140004E0A13EB207E1F712E0C6E5D2E004C02197CC
S2140004F0FE010E94A37AC435D107C9F70E941E18D0
S2140005000C9495830C9400009C0123703327232BB6
S21400051059F464E670E00E944E7A892B39F46370D1
S214000520772781E0672B19F080E0089581E0089531
S2140005306DEC7AE40E949F028DEC9AE40895CF92C7
S214000540DF92EF92FF920F931F93CF93DF9300D02B
S21400055000D0CDB7DEB76C017B01E091DD4AF091AB
S214000560DE4A309729F069ED7AE409958C0102C0DD
S2140005700FEF1FEFF60140815181628173818091F8
S214000580D94A9091DA4AA091DB4AB091DC4A840FAE
S214000590951FA61FB71F101611064CF4A801012EB2
S2140005A0000C660B770B840F951FA61FB71F898359
S2140005B09A83AB83BC83B701CE0101960E942707BE
S2140005C0F701028713872496CDBFDEBFDF91CF9158
S2140005D01F910F91FF90EF90DF90CF9008956230BB
S2140005E021F40E948402845E0895683008F06F5FEC
S2140005F061708EE1860F08950FB6F8946093C94A2D
S2140006007093CA4A8093CB4A9093CC4A0FBE089503
S214000610CF92DF92EF920F936B01E82E7C2D6D2D1B
S2140006205E2DAE2DC6010196A11D442351F06C012E
S214000630EA2EE72FF62F0E948283603279F7415028
S214000640EDCFF6010E9482836C01EA2E80E06032D4
S21400065039F4F90110820F91EF90DF90CF90089552
S2140006608017B9F32F5F3F4FF901319760838F5F93
S214000670F6015E2D0E9482839FEFC91AD90AE90A05
S214000680E6CF2F923F924F925F926F927F928F9219
S2140006909F92AF92BF92CF92DF92EF92FF920F930C
S2140006A01F93CF93DF93CDB7DEB7A297CDBFDEBF44
S2140006B02C0169A37AA34A017901612C712C9E0151
S2140006C02F5F3F4F690184E6282E312C90E6A92E35
S2140006D096E4B92E29A13AA16216730608F0CDC297
S2140006E0D4018C91853209F0BCC211961C91153448
S2140006F031F01F3421F0B2E08B0E911C06C0F401DD
S214000700128194012D5F3F4F4901193509F432C219
S2140007100CF060C0193409F43FC144F5133409F4F1
S214000720E7C054F4113409F4BEC00CF0CAC0153248
S21400073009F074C2198375C2163409F4EAC064F469
S214000740143409F06BC2F70186819781B1010E94CB
S2140007504E7A9F938F93E7C1173409F4F8C0183484
S21400076009F05CC2D70112968C9130C1143509F499
S21400077089C164F4123509F46EC10CF025C11D342C
S21400078009F04CC2D70111968C9120C1163509F498
S214000790A5C10CF4A1C1173509F4B4C1183509F088
S2140007A03DC2F7018081282F082E000C330B3F93A3
S2140007B08F938181282F082E000C330B3F938F9345
S2140007C08281282F082E000C330B3F938F9388EAE4
S2140007D096E4C0C11D3609F4F0C0ACF5143609F431
S2140007E094C074F4123609F466C00CF075C0113665
S2140007F009F014C203E09601D70114964C9157C035
S214000800173609F4A4C074F4153609F007C2F701C8
S2140008108381282F082E000C330B3F938F9385E699
S21400082096E4C8C0183609F446C01A3609F0F6C170
S214000830D70118968D919C91199701969F938F9347
S2140008408BE796E4B7C0153709F435C1B4F4103712
S21400085009F4C2C034F41E3609F0E0C18AE0898388
S214000860E0C1123709F4C6C0143709F0D7C161E9F0
S21400087076E4C6010E947E7CD4C1183709F448C1CC
S2140008805CF4173709F0CAC1F7018481282F082EB7
S214000890000C330B3F9374C1193709F45EC11A3745
S2140008A009F47EC1BBC10FEF9601F701448162E3F4
S2140008B074E080E00DC003E09601D70115964C91D8
S2140008C004C00FEF9601F70145816BED73E080E001
S2140008D00E94080390E0A7C1B601C7010E94A406C3
S2140008E0F601CF018C199D0921912111FACF9BC1E8
S2140008F0D70116968D919C9117978459984FB10100
S2140009000E944E7A7F936F933BC0D70113968C91CB
S2140009105DC0D70113968C911397282F082E000CD4
S214000920330B3F938F9315968C911597082E000CDA
S214000930990B01969F938F9316968D919C9117977E
S2140009408459984F9F938F9389E696E403C1D70105
S21400095018966D917C91199716968D919C91179784
S214000960AE01455E5F4F8459984F0E94FD071736CB
S21400097051F48B8D9C8DB1010E944E7A9F938F937C
S214000980E1E7F6E4A6C08C8D8F938B8D8F9346E7B8
S21400099056E45F934F93F9C0F70182816CE00E94A2
S2140009A07483992321F0892F990F990BDEC08CE070
S2140009B090E0DBC09F938F93E8C0F7018581082EF7
S2140009C0000C990B0196D1C0D7018C91282F082EC8
S2140009D0000C330B3F93CAC081E48983F701828100
S2140009E08C3014F080E589838DE48A831B8282E054
S2140009F090E019C1D70112968C916CE00E94748326
S214000A00992321F0892F990F990B02C08CE090E072
S214000A10F7012081422F022E000C550B5F932F9377
S214000A202181422F022E000C550B5F932F939F932C
S214000A308F9320E836E43F932F93DF92CF920E9465
S214000A40BA7CCDBFDEBFF70122812C300CF4EBC0A0
S214000A5020E52B87E8C0D70111968C911197282F97
S214000A60082E000C330B3F938F9312968C91282FF1
S214000A70082E000C330B3F938F9388E996E49F93E0
S214000A808F93C5C0F7018081282F082E000C330BEA
S214000A903F938F938181282F082E000C330B3F93B2
S214000AA08F938281282F082E000C330B3F938F9351
S214000AB083E996E44FC0D70114968C91082E000C5B
S214000AC0990B009711F487E090E09F938F93E2EAEA
S214000AD0F6E4FF93EF9359C060E015C0D70118966F
S214000AE06D917C91199716968D919C911797AE01F2
S214000AF0455E5F4F8459984F0E94FD078E8D8F93F9
S214000B008D8D34C061E0C7010E9469061F922EC019
S214000B10D70116968D919C911797B1010E944E7A37
S214000B209F938F93F7018381282F082E000C330B99
S214000B303F938F938581082E000C990B01969F9307
S214000B408F9326E536E43F932F93DF92CF920E9451
S214000B50BA7C61C09F938F93F8CFD70116968D917C
S214000B609C911797B1010E944E7A9F938F93BF92E4
S214000B70AF920BC0F701868197818459984F9F9357
S214000B808F9325EA36E43F932F93DF92CF920E940D
S214000B90BA7C0F900F900F900F900F900F9043C05D
S214000BA06091D94A7091DA4A8091DB4A9091DC4A8A
S214000BB02CE330E040E050E00E94847A89019A01FC
S214000BC0F801D7011A968D919C911B976CE370E003
S214000BD00E944E7A161617061CF4FB01E00FF11F52
S214000BE0CF016CE370E00E944E7A97FF03C09195A8
S214000BF0819591099F938F93CF016CE370E00E94DB
S214000C004E7A7F936F93E7EBF6E4FF93EF93DF92D2
S214000C10CF920E94BA7CCDBFDEBF05C08FE389832A
S214000C201A8281E090E09301280F391FA9A1BAA18A
S214000C302A173B0798F4D201F601AF014C195D095B
S214000C40481759071CF441914D93F7CF97FF02C000
S214000C5080E090E0480E591E39013CCDF20110822A
S214000C600EC0D2018D932D01BFEF6B1A7B0A88232D
S214000C7031F0EFEF8E1A9E0A2DCDD2011C92C301E1
S214000C80A296CDBFDEBFDF91CF911F910F91FF904F
S214000C90EF90DF90CF90BF90AF909F908F907F9017
S214000CA06F905F904F903F902F900895FC010FB685
S214000CB0F8946091C94A7091CA4A8091CB4A909143
S214000CC0CC4A0FBE309721F0608371838283938372
S214000CD00895FC0120853185C90107964481841B4F
S214000CE0910947FD9395860F911DE7E0F0E0BF015F
S214000CF00E944E7AA901481B590BCA0157FD06C02F
S214000D00BF010E944E7A81E0860F089580E0089524
S214000D108F938FB78F93F8948091C94A8F5F809393
S214000D20C94A8091CA4A8F4F8093CA4A8091CB4A5B
S214000D308F4F8093CB4A8091CC4A8F4F8093CC4A7A
S214000D408F918FBF8F910895CF92DF92EF92FF928F
S214000D500F931F93CF93DF938C01EB01FC018481EB
S214000D60B82FBB0FB80F8581782F770F780F9E01AD
S214000D7040E08B2F840F90E0A0E084599B4FAF4F4C
S214000D80FC015A2F0E948283F90161939F01872FED
S214000D90840F90E0A0E08E579B4FAF4FFC015A2F78
S214000DA00E948283F90163834F5F433011F780E22C
S214000DB08F838B83BE01685F7F4FF801838140E29B
S214000DC0082E000C990B0E947708BE01655F7F4FC6
S214000DD0F80182814AE3082E000C990B0E947708DE
S214000DE0BE01625F7F4FF80181814AE3082E000C46
S214000DF0990B0E947708BE016F5E7F4FF8018081D5
S214000E0040E2082E000C990B0E947708F8018681B4
S214000E10978164E670E08459984F0E944E7A6B0181
S214000E207C01BE016C5E7F4F40E2C6010E947708DF
S214000E30BE016A5E7F4F40E0C701DF91CF911F91F0
S214000E400F91FF90EF90DF90CF900C947708CF92A1
S214000E50DF92EF92FF920F931F93CF93DF93CDB75E
S214000E60DEB72897CDBFDEBF8B01FC0160817181A4
S214000E708281938120E831E541E050E00E94627A69
S214000E8069017A012CE330E040E050E00E94847A69
S214000E9029833A834B835C8389819A81AB81BC81A9
S214000EA0F80160836CE370E00E944E7ADC01CB01AF
S214000EB0F801A1838283C601069667E070E00E946F
S214000EC03A7A84832DEA3EE840E050E0C701B60156
S214000ED00E94847A29833A836D837E838F839887E2
S214000EE089819A8124E6289F6001299FD00C1124CD
S214000EF06D817E818F81988525EB35E040E050E05E
S214000F000E94847A29833A836D837E83E980FA80FF
S214000F10EE0CFF1CEE0CFF1CEC0CFD1C8D819E8164
S214000F20F5E6EF16F10410F0019604C024E6E2168A
S214000F30F10419F021E030E002C020E030E0A90121
S214000F4044595E4F4817590768F46DE671E0821BF6
S214000F50930B0E944E7ADC01CB01E80EF91ECD0100
S214000F6020E030E044E6E40EF11CF801E682F78269
S214000F7080879187255C3F4F8217930748F46FE17F
S214000F8070E00E944E7ADC01CB01F801858322C016
S214000F9069E970E0821B930B0E944E7ADC01CB015C
S214000FA0F82EFF0CFF0CF80E6DE370E0CD010E94EA
S214000FB04E7ADC01CB01E82EEE0C6FE170E0CD013D
S214000FC00E944E7ADC01CB0122E0280FF20EFE0CC6
S214000FD0F801F582A383F8011286138683818F5F5A
S214000FE083832896CDBFDEBFDF91CF911F910F91EF
S214000FF0FF90EF90DF90CF900895CF92DF92EF9220
S214001000FF920F931F93CF93DF938C017B01EA012E
S214001010888399830E948402282FA801405D574048
S2140010206DE671E0469FC001479F900D569F900D5C
S21400103011248E0D9F1D4115510579F0BA01769544
S2140010406795769567956F5F7F4F860F971F821B14
S21400105091094536510508F00197069667E070E05D
S2140010600E943A7A6C01892B19F487E0C82ED12C9D
S214001070CC82DD82C7010B968C199D0967E070E073
S2140010800E944E7A65337105B1F481E0C81AD10822
S214001090EC18FD08822F90E084599E4F23E0E20E64
S2140010A0F11C8E159F053CF48881998101968883F2
S2140010B0998361E070E06A837B83672B79F4015043
S2140010C01109C8010E948402682F70E064597E4F9F
S2140010D0AE01C8010E94FD07CC82DD82DF91CF9170
S2140010E01F910F91FF90EF90DF90CF9008951F9380
S2140010F0CF93DF93EB01142F6AE070E00E944E7AE4
S214001100605D6883805D89831A83DF91CF911F912C
S2140011100895CF93DF93CDB7DEB70E94F23D00006F
S214001120DF91CF9108951F920F9200903F000F928B
S214001130112400903B000F922F938F939F93EF9371
S214001140FF93CF93DF93CDB7DEB780E29BE0FC0141
S2140011508681882F90E08170992721E0892B09F4F9
S21400116020E0222329F080E29BE021E0FC01268398
S2140011700000DF91CF91FF91EF919F918F912F917A
S2140011800F9000923B000F9000923F000F901F9030
S21400119018951F920F9200903F000F921124009016
S2140011A03B000F922F933F934F935F936F937F93E2
S2140011B08F939F93AF93BF93EF93FF93CF93DF935A
S2140011C01F92CDB7DEB70E94C572898380912D40ED
S2140011D0882319F489810E949F0D809130408823CE
S2140011E019F489810E94510900000F90DF91CF9178
S2140011F0FF91EF91BF91AF919F918F917F916F91EA
S2140012005F914F913F912F910F9000923B000F906E
S21400121000923F000F901F9018951F920F9200901B
S2140012203F000F92112400903B000F922F933F93A4
S2140012304F935F936F937F938F939F93AF93BF93D9
S214001240EF93FF93CF93DF931F92CDB7DEB70E9445
S214001250D873898380912D40843019F489810E9447
S2140012609F0D80913040843019F489810E94510985
S21400127000000F90DF91CF91FF91EF91BF91AF915A
S2140012809F918F917F916F915F914F913F912F9199
S2140012900F9000923B000F9000923F000F901F901F
S2140012A01895CF93DF93CDB7DEB72A97CDBFDEBFB5
S2140012B08A878091C2469091C346892B31F40E945A
S2140012C033618093C2469093C3468091C246909104
S2140012D0C346892B09F45EC28A85882F90E00E9457
S2140012E0507C8A878091C446882339F01A8680917C
S2140012F0C44681508093C4464DC28A858B3191F492
S2140013001A868091C546843148F48091C546882F58
S21400131090E08A53994BFC0180818A8782E0809313
S214001320C44638C28A858D3009F060C08091F84680
S214001330882309F441C08091C5468823D1F1809165
S214001340C2469091C34622E0FC0120838091C246AB
S2140013509091C3462091F9463091FA46FC012183CC
S21400136032838091FB468823E1F04091C24650913B
S214001370C3468091FB46882F90E0BC0161507109FE
S2140013808091FC46882F90E0E4E1E69F9001E79F7D
S214001390300D1124240F351F820F931F0396FC0176
S2140013A010828091C546882F90E08A53994BFC01A5
S2140013B010820E94246309C08091C2469091C34661
S2140013C02FEF3FEFFC01218332831092C546109227
S2140013D0FC461092F9461092FA461092FB4610927E
S2140013E0C2461092C3461092F846D4C18A85882316
S2140013F009F4D0C18091C546882F90E08A53994B56
S2140014002A85FC0120838091C546882309F47CC187
S2140014108A858F3709F0A1C08091C5468150809398
S214001420C5468091FB46882329F52091F9463091E0
S214001430FA468091C546882F90E08A53994BFC0166
S2140014408081882F90E0A901481B590BCA01809320
S214001450F9469093FA468091F9469091FA462AE02A
S21400146030E0B9010E944E7ACB018093F946909302
S214001470FA4663C08091FC46882311F18091FC46B1
S21400148081508093FC464091C2465091C34680915D
S214001490FB46882F90E0BC01615071098091FC46A4
S2140014A0882F90E0E4E1E69F9001E79F300D11243D
S2140014B0240F351F820F931F0396FC0110823DC038
S2140014C08091C546882F90E08A53994BFC01808115
S2140014D08032D9F48091FB4681508093FB46209160
S2140014E0C2463091C3468091FB46482F50E064E1E7
S2140014F0649FC001659F900D11240396820F931F71
S2140015000E94857C8093FC4618C02091C24630918C
S214001510C3468091FB46482F50E064E1649FC001BB
S214001520659F900D1124820F931F0396FC01108275
S2140015308091FB4681508093FB468091C546882F5C
S21400154090E08A53994BFC0110828091C54688230F
S21400155009F01AC11092F84617C18A85803209F040
S21400156055C08091C546882F90E001978A53994BC5
S214001570FC018081803239F08091FB46882F90E014
S2140015800196039714F01A86FFC08091FB468823C5
S214001590E1F04091C2465091C3468091FB46882FA9
S2140015A090E0BC01615071098091FC46882F90E064
S2140015B0E4E1E69F9001E79F300D1124240F351FCC
S2140015C0820F931F0396FC0110828091FB468F5F6B
S2140015D08093FB461092FC468091C546882F90E08B
S2140015E001968A839B8381E390E08C839D832A8186
S2140015F03B818C819D81281739071CF48A819B8149
S21400160002C08C819D818093C546BEC08091FC46F9
S214001610853108F077C08091FB468823E1F48091FD
S214001620F9469091FA46880F991F9C01220F331FA6
S214001630220F331F280F391F8A85882F90E0820FCC
S214001640931F8093F9469093FA468091FC468F5FED
S2140016508093FC463DC04091C2465091C34680915F
S214001660FB46882F90E0BC01615071098091FC46D2
S21400167091E0980F9093FC46882F90E0E4E1E69F77
S2140016809001E79F300D1124240F351F820F931F02
S21400169003962A85FC0120834091C2465091C3469A
S2140016A08091FB46882F90E0BC01615071098091C3
S2140016B0FC46882F90E0E4E1E69F9001E79F300D1E
S2140016C01124240F351F820F931F0396FC011082EE
S2140016D08091C546882F90E001968E839F8381E394
S2140016E090E0888799872E813F818885998528177D
S2140016F039071CF48E819F8102C088859985809366
S214001700C54642C01A8640C08A858F3769F48091E4
S214001710F9469091FA46181619060CF01A86109299
S214001720F9461092FA4630C08A85803211F41A863D
S2140017302BC01092FB468A85882F90E08093F9464E
S2140017409093FA46198289818330B0F42091C2467C
S2140017503091C3468981482F50E064E1649FC00100
S214001760659F900D1124820F931F0396FC01108233
S21400177089818F5F8983E7CF81E08093F8468091E7
S214001780C5468F5F8093C5468A85882319F08A856B
S2140017900E94356300002A96CDBFDEBFDF91CF9151
S2140017A008951F920F9200903F000F921124009010
S2140017B03B000F922F933F934F935F936F937F93CC
S2140017C08F939F93AF93BF93EF93FF93CF93DF9344
S2140017D0CDB7DEB780912D40882309F045C08091B3
S2140017E0FD469091FE46892B31F40E942258809344
S2140017F0FD469093FE462091FD463091FE46809130
S214001800FF46882F90E0820F931FFC01808188237B
S214001810A9F080E098E04091FD465091FE46209168
S214001820FF4631E0320F3093FF46222F30E0240F80
S214001830351FF9012081FC01228316C01092FF4655
S2140018408091FD469091FE46FC0110820E9422582F
S2140018508093FD469093FE468091FD469091FE460D
S214001860892B11F40E94675980913040882309F033
S21400187045C08091004790910147892B31F40E9422
S2140018809D608093004790930147209100473091D8
S214001890014780910247882F90E0820F931FFC013A
S2140018A080818823A9F080E098E04091004750911D
S2140018B001472091024731E0320F30930247222F32
S2140018C030E0240F351FF9012081FC01228316C069
S2140018D0109202478091004790910147FC011082C8
S2140018E00E949D6080930047909301478091004737
S2140018F090910147892B11F40E94F2610000DF915C
S214001900CF91FF91EF91BF91AF919F918F917F9172
S2140019106F915F914F913F912F910F9000923B00F6
S2140019200F9000923F000F901F9018951F920F92F5
S21400193000903F000F92112400903B000F922F93CF
S2140019403F934F935F936F937F938F939F93AF9342
S214001950BF93EF93FF93CF93DF93CDB7DEB780911E
S2140019602D40843009F045C080910347909104478C
S214001970892B31F40E9422588093034790930447A2
S214001980209103473091044780910547882F90E0C7
S214001990820F931FFC0180818823A9F080E898E0DD
S2140019A040910347509104472091054731E0320F9C
S2140019B030930547222F30E0240F351FF901208190
S2140019C0FC01228316C01092054780910347909130
S2140019D00447FC0110820E9422588093034790938C
S2140019E004478091034790910447892B11F40E9485
S2140019F0675980913040843009F045C08091064791
S214001A0090910747892B31F40E949D60809306478A
S214001A1090930747209106473091074780910847E3
S214001A20882F90E0820F931FFC0180818823A9F005
S214001A3080E898E040910647509107472091084774
S214001A4031E0320F30930847222F30E0240F351F45
S214001A50F9012081FC01228316C01092084780916C
S214001A60064790910747FC0110820E949D60809374
S214001A700647909307478091064790910747892B22
S214001A8011F40E94F2610000DF91CF91FF91EF9177
S214001A90BF91AF919F918F917F916F915F914F9181
S214001AA03F912F910F9000923B000F9000923F00C5
S214001AB00F901F9018951F920F9200903F000F9264
S214001AC0112400903B000F922F933F934F935F9308
S214001AD06F937F938F939F93AF93BF93EF93FF93F1
S214001AE0CF93DF931F92CDB7DEB70E9452738983E0
S214001AF080912D40813019F489810E949F0D80913C
S214001B003040813019F489810E94510900000F90FD
S214001B10DF91CF91FF91EF91BF91AF919F918F9100
S214001B207F916F915F914F913F912F910F9000920F
S214001B303B000F9000923F000F901F901895CF9398
S214001B40DF931F92CDB7DEB78983809109479091C6
S214001B500A47892B31F40E94B05880930947909326
S214001B600A478091094790910A47892B09F443C197
S214001B708981882F90E00E94507C898389818432F5
S214001B8019F089818132E9F510920B478091094757
S214001B9090910A472981213211F423E001C021E007
S214001BA0FC01208310920C4710920D4710920E47AE
S214001BB010920F471092104781E0809311471092C1
S214001BC01247809112478330C8F42091094730911C
S214001BD00A4780911247482F50E065E1649FC00194
S214001BE0659F900D1124820F931F0396FC011082AF
S214001BF0809112478F5F80931247E3CF109212476F
S214001C00E9C080911147882309F4C7C089818C32C6
S214001C1039F089818B3321F089818F3309F06BC0CD
S214001C20809112478823E1F04091094750910A4776
S214001C3080911247882F90E0BC0161507109809115
S214001C400C47882F90E0E5E1E69F9001E79F300D76
S214001C501124240F351F820F931F0396FC01108258
S214001C60809112478F5F8093124710920C478981AC
S214001C708B33B1F480910B47843078F0209109477C
S214001C8030910A4780910D4790910E47A0910F47DB
S214001C90B0911047F90181839283109211471FC0BB
S214001CA089818F33E1F48091094790910A4722E0B9
S214001CB0FC01208380910B47833078F02091094700
S214001CC030910A4780910D4790910E47A0910F479B
S214001CD0B0911047F9018183928310921147909139
S214001CE0114781E08927882309F474C010920947B8
S214001CF010920A476FC080911247882361F5809141
S214001D000D4790910E47A0910F47B0911047880F4E
S214001D10991FAA1FBB1F9C01AD01220F331F441F32
S214001D20551F220F331F441F551F280F391F4A1FE8
S214001D305B1F8981882F90E0A0E0B0E0820F931FA0
S214001D40A41FB51F80930D4790930E47A0930F478F
S214001D50B09310473FC04091094750910A47809181
S214001D601247882F90E0BC016150710980910C47A2
S214001D7091E0980F90930C47882F90E0E5E1E69F5E
S214001D809001E79F300D1124240F351F820F931FFB
S214001D9003962981FC0120831DC089818D30D1F4F2
S214001DA08091094790910A47FC011182128282E3D2
S214001DB080930B4710920C4710920D4710920E47D7
S214001DC010920F4710921047109212471092094730
S214001DD010920A4780910B478F5F80930B47909134
S214001DE00B4781E0923308F480E0882321F01092BC
S214001DF0114710920B4700000F90DF91CF91089586
S214001E001F920F9200903F000F92112400903B000B
S214001E100F922F933F934F935F936F937F938F937E
S214001E209F93AF93BF93EF93FF93CF93DF93CDB77B
S214001E30DEB780913040813009F045C0809113476D
S214001E4090911447892B31F40E949D60809313472C
S214001E50909314472091134730911447809115476B
S214001E60882F90E0820F931FFC0180818823A9F0C1
S214001E7080E298E04091134750911447209115470F
S214001E8031E0320F30931547222F30E0240F351FF4
S214001E90F9012081FC01228316C01092154780911B
S214001EA0134790911447FC0110820E949D60809316
S214001EB01347909314478091134790911447892BAA
S214001EC011F40E94F26180912D40813009F045C0E6
S214001ED08091164790911747892B31F40E9422581B
S214001EE080931647909317472091164730911747CF
S214001EF080911847882F90E0820F931FFC01808105
S214001F008823A9F080E298E0409116475091174741
S214001F102091184731E0320F30931847222F30E0D7
S214001F20240F351FF9012081FC01228316C0109270
S214001F3018478091164790911747FC0110820E941F
S214001F402258809316479093174780911647909192
S214001F501747892B11F40E9467590000DF91CF9133
S214001F60FF91EF91BF91AF919F918F917F916F916C
S214001F705F914F913F912F910F9000923B000F90F1
S214001F8000923F000F901F901895CF93DF9300D0DC
S214001F90CDB7DEB789836A838A818823A9F020E0DB
S214001FA030E080E090E0FC018181682F8981482F35
S214001FB050E081E090E002C0880F991F4A95E2F752
S214001FC0862BF901818315C020E030E080E090E0A8
S214001FD0FC018181682F8981482F50E081E090E0E4
S214001FE002C0880F991F4A95E2F780958623F9016B
S214001FF0818300000F900F90DF91CF910895CF93CB
S214002000DF9300D0CDB7DEB789836A838A818823C1
S214002010A9F084E090E024E030E0F9012181622F0D
S2140020202981422F50E021E030E002C0220F331F0A
S2140020304A95E2F7262BFC01218315C084E090E048
S21400204024E030E0F9012181622F2981422F50E0FF
S21400205021E030E002C0220F331F4A95E2F72095B8
S2140020602623FC01218300000F900F90DF91CF9173
S2140020700895CF93DF9300D000D0CDB7DEB78B8323
S2140020806C838B81882F90E0805B9B4F89839A833B
S2140020908C81813059F489819A81FC018081282FB6
S2140020A0286089819A81FC0120830DC08C81882359
S2140020B051F489819A81FC018081282F277F8981AC
S2140020C09A81FC01208300002496CDBFDEBFDF91FD
S2140020D0CF910895CF93DF9300D0CDB7DEB7898335
S2140020E06A838A818823A9F088E090E028E030E0BF
S2140020F0F9012181622F2981422F50E021E030E052
S21400210002C0220F331F4A95E2F7262BFC012183DB
S21400211015C088E090E028E030E0F9012181622FC8
S2140021202981422F50E021E030E002C0220F331F09
S2140021304A95E2F720952623FC01218300000F90A4
S2140021400F90DF91CF910895CF93DF931F92CDB775
S214002150DEB7898388E090E0FC018281882F90E0DA
S2140021602981222F30E002C0959587952A95E2F7BF
S2140021708170992721E0892B09F420E0822F0F90A7
S214002180DF91CF910895CF93DF931F92CDB7DEB73F
S21400219089838CE090E0FC018281882F90E0298181
S2140021A0222F30E002C0959587952A95E2F7817038
S2140021B0992721E0892B09F420E0822F0F90DF91E8
S2140021C0CF910895CF93DF931F92CDB7DEB7898363
S2140021D0698186E00E946A1000000F90DF91CF911F
S2140021E008951F920F9200903F000F9211240090C6
S2140021F03B000F92EF92FF920F931F932F933F9304
S2140022004F935F936F937F938F939F93AF93BF93F9
S214002210EF93FF93CF93DF93CDB7DEB72F97CDBF66
S214002220DEBF80E094E0FC018185882F90E084701A
S214002230992721E0892B09F420E0222309F4D2C350
S2140022400E94880680919947882309F43EC08091B1
S2140022509A4790919B47A0919C47B0919D4721E05B
S214002260892B8A2B8B2B09F420E0222399F080916E
S2140022709A4790919B47A0919C47B0919D470197A4
S214002280A109B10980939A4790939B47A0939C47D6
S214002290B0939D4780919A4790919B47A0919C4709
S2140022A0B0919D47892B8A2B8B2B21F0809106407D
S2140022B0882311F081E001C080E0882309F492C3EE
S2140022C010929847109299478DC319861A861B86D6
S2140022D01C86809113409091144021E0892B09F4CC
S2140022E020E0222349F080911340909114400197FA
S2140022F0809313409093144080919547882309F467
S2140023005CC08091904790919147A0919247B09180
S2140023109347892B8A2B8B2B71F09091964781E0FF
S2140023208927882341F090915C4781E0892788239C
S21400233011F081E001C080E0882309F43EC0CE01A0
S21400234009960E94560629853A854B855C858091BC
S214002350904790919147A0919247B091934761E042
S214002360281739074A075B0708F460E0662329F157
S2140023708CEF80934C47109254471092554710921A
S21400238056471092574780E00E94F96F1092944784
S2140023901092954781E0809396478AE590E0809377
S2140023A013409093144080910A40882319F08CE3E0
S2140023B08093094080E00E94E21080919447882331
S2140023C009F492C280919547882309F4F0C1809160
S2140023D058479091594721E0892B09F420E02223A1
S2140023E049F08091584790915947019780935847F4
S2140023F0909359478091544790915547A0915647DE
S214002400B091574721E0892B8A2B8B2B09F420E0CB
S214002410222309F469C28091544790915547A091B0
S2140024205647B091574721E0181619061A061B069C
S2140024300CF020E0222309F45EC18091544790916D
S2140024405547A0915647B09157470197A109B10942
S2140024508093544790935547A0935647B093574759
S2140024608091584790915947892B41F4809188472D
S21400247090918947892B11F081E001C080E0882384
S214002480A9F180918847909189479C0140E050E0EF
S2140024908091544790915547A0915647B091574721
S2140024A061E0281739074A075B0709F060E06623F2
S2140024B0E9F08FEE80934C47809111409091124046
S2140024C0809358479093594780910B400E944C291F
S2140024D080930740909308401D86CE010D9640E0FD
S2140024E050E0BC0183E797E40E94445B8091544728
S2140024F090915547A0915647B091574721E0892BB8
S2140025008A2B8B2B09F020E0222309F4EDC1809161
S2140025100F409091104021E0892B09F420E02223FF
S21400252009F4D0C080E00E94F96F80910F4090912E
S214002530104020915447309155474091564750914E
S2140025405747092E000CAA0BBB0B79018A01E81A23
S214002550F90A0A0B1B0BD801C701809354479093C6
S2140025605547A0935647B093574781E08D87CE01D5
S2140025700D9640E050E0BC018EE597E40E94445B77
S2140025808EEF80934C4780E00E94E21019821A82F8
S2140025901B821C82CE0109960E94560629853A8522
S2140025A04B855C858091904790919147A09192478A
S2140025B0B091934761E0281739074A075B0708F090
S2140025C060E06623B1F029853A854B855C8580916D
S2140025D0904790919147A0919247B0919347BC0144
S2140025E0CD010E94E373DC01CB0189839A83AB8320
S2140025F0BC8320910F403091104080910D40909107
S2140026000E40820F931F0F969C01990F440B550B9B
S21400261061E089819A81AB81BC81281739074A0716
S2140026205B070CF060E0662309F45EC180910F4002
S21400263090911040409734F080910940882311F41F
S21400264081E001C080E0882309F44EC180910F40EC
S214002650909110400A97092E000CAA0BBB0B809392
S214002660154090931640A0931740B093184082E010
S21400267080935D4781E0809398471D821E8220915B
S2140026805847309159478091154090911640A09137
S2140026901740B09118408901081B190BC8018F8399
S2140026A098872D813E818F819885281739071CF4DD
S2140026B08F81988502C08D819E8180935847909324
S2140026C0594712C180910D4090910E40092E000C82
S2140026D0AA0BBB0B8093544790935547A09356473D
S2140026E0B093574780910C400E944C298093074036
S2140026F090930840F9C08091544790915547A09117
S2140027005647B09157478827B7FD83959927AA273C
S214002710BB27882309F4E8C0809154479091554719
S214002720A0915647B09157470196A11DB11D8093C1
S214002730544790935547A0935647B0935747809178
S214002740544790915547A0915647B091574721E07E
S214002750892B8A2B8B2B09F020E0222309F4C4C096
S2140027608DEF80934C4780910D4090910E40092E3E
S214002770000CAA0BBB0B8093544790935547A0932D
S2140027805647B093574780910C400E944C2980933F
S21400279007409093084081E08E87CE010E9640E079
S2140027A050E0BC018EE597E40E94445B9DC080919A
S2140027B08C4790918D47A0918E47B0918F4721E02E
S2140027C0892B8A2B8B2B09F420E0222309F48CC05A
S2140027D0CE0109960E94560629853A854B855C856A
S2140027E080918C4790918D47A0918E47B0918F47EE
S2140027F061E0281739074A075B0708F460E066239C
S21400280009F472C080918A4790918B4721E0892B0A
S21400281009F420E0222371F18EEF80934C478091DB
S2140028208A4790918B47919581959109092E000CC6
S214002830AA0BBB0B8093544790935547A0935647DB
S214002840B093574720918A4730918B4780910D402F
S21400285090910E40820F931F9C0180918847909123
S2140028608947A901481B590BCA0180935847909382
S214002870594737C08DEF80934C4780910D4090911B
S2140028800E40092E000CAA0BBB0B80935447909366
S2140028905547A0935647B093574780910D40909167
S2140028A00E409C018091884790918947F901E81B6A
S2140028B0F90BCF01809358479093594780910C406D
S2140028C00E944C29809307409093084081E08F87B0
S2140028D0CE010F9640E050E0BC018EE597E40E94E2
S2140028E0445B81E08093954790915B4781E0992314
S2140028F009F480E0882391F080915B4781508093B3
S2140029005B4790915B4781E0992309F080E088233C
S21400291009F468C080E00E94424E64C08091134073
S21400292090911440892B81F080915C47882361F454
S2140029309091964781E08927882341F090919747A8
S21400294081E08927882311F081E001C080E0882398
S21400295009F441C09091094081E0992309F480E090
S2140029608823C9F180910940815080930940909155
S214002970094081E0992309F080E0882361F181E035
S2140029800E94424E80E00E942B4E10925C4790912F
S214002990944781E08927882391F084E080935D47FF
S2140029A081E0809398478FEF9FEFDC01809315407E
S2140029B090931640A0931740B09318400AC0909189
S2140029C05D4781E0933009F080E0882311F00E9493
S2140029D0972810920A4080910A40882319F081E0D7
S2140029E080935A4780E094E02FEFFC012187000097
S2140029F02F96CDBFDEBFDF91CF91FF91EF91BF91B4
S214002A00AF919F918F917F916F915F914F913F9181
S214002A102F911F910F91FF90EF900F9000923B0027
S214002A200F9000923F000F901F9018951F920F92E4
S214002A3000903F000F92112400903B000F922F93BE
S214002A403F934F935F936F937F938F939F93AF9331
S214002A50BF93EF93FF93CF93DF931F92CDB7DEB76D
S214002A6080E694E0FC018185882F90E082709927AB
S214002A7021E0892B09F420E02223B1F00E94232CC8
S214002A808983998181E08927882371F09091514745
S214002A9081E0913009F480E0882331F081E0809372
S214002AA0514781E08093064080E694E02FEFFC01DA
S214002AB0218700000F90DF91CF91FF91EF91BF919A
S214002AC0AF919F918F917F916F915F914F913F91C1
S214002AD02F910F9000923B000F9000923F000F90B6
S214002AE01F9018951F920F9200903F000F9211248E
S214002AF000903B000F922F933F934F935F936F93FB
S214002B007F938F939F93AF93BF93EF93FF93CF9350
S214002B10DF93CDB7DEB72797CDBFDEBF80E09BE063
S214002B20FC018681882F90E08170992721E0892B0F
S214002B3009F420E0222309F4D4C180912840909122
S214002B40294021E0892B09F420E0222349F08091D6
S214002B5028409091294001978093284090932940DF
S214002B6080912A4090912B4021E0892B09F420E0A7
S214002B70222349F080912A4090912B400197809320
S214002B802A4090932B4080914F479091504721E0E8
S214002B90892B09F420E0222349F080914F47909139
S214002BA05047019780934F479093504787E00E9485
S214002BB0A410982F81E089278823A1F08091A74749
S214002BC09091A84721E0883E934008F020E0222319
S214002BD049F08091A7479091A84701968093A74710
S214002BE09093A8470E94492880919447882331F003
S214002BF080919547882311F081E001C080E088230A
S214002C0009F49FC08091544790915547A09156472C
S214002C10B091574721E0181619061A061B060CF045
S214002C2020E0222309F46BC08091B6479091B74705
S214002C30892B09F453C08091B6479091B747019706
S214002C408093B6479093B7478091B6479091B74721
S214002C50892B09F076C09E012A5F3F4FCE0105966C
S214002C60A901BC0180E090E00E94445B8093B847D5
S214002C709D8181E08927882331F18E81882319F18F
S214002C808DEF80934C4780910C400E944C29809396
S214002C9007409093084081E08D83CE01059640E082
S214002CA050E0BC018EE597E40E94445B9E012A5FDB
S214002CB03F4FCE010596A901BC0180E090E00E943E
S214002CC0445B8093B8478091B8478823D1F181E070
S214002CD00E94EB6F81E00E94E21033C08091B847FB
S214002CE00E94F96F8091B8470E94E21080910740D9
S214002CF0909108408093B6479093B74722C0809142
S214002D00544790915547A0915647B091574721E0B8
S214002D10892B8A2B8B2B09F020E0222391F08091BF
S214002D20B847882371F01092B84780E00E94F96F88
S214002D3080E00E94E21080E00E94EB6F8EEF8093AE
S214002D404C479091B94781E08927882309F474C0DD
S214002D508FEF8093BA471F829F8181E0933008F0FF
S214002D6080E08823D9F18F81882F90E0880F991F03
S214002D70845E9F4BFC018081918121E0892B09F4C0
S214002D8020E02223A1F08F81882F90E09C01220F63
S214002D90331F245E3F4BF9012081318121503109D8
S214002DA0880F991F845E9F4BFC01208331838F819F
S214002DB0882F90E0880F991F845E9F4BFC018081CE
S214002DC0918121E0892B09F020E0222319F08F81E0
S214002DD08093BA478F818F5F8F83BECF8091BA472B
S214002DE088230CF47EC08091BA47082E000C990BFD
S214002DF02091BA47022E000C330B220F331F255B9F
S214002E00394BF90120813181880F991F845E9F4BD1
S214002E10FC01208331838091BA47082E000C990B61
S214002E20875E9F4BFC0180810E94A8340E940B3570
S214002E3081E08093B94755C00E942035882309F465
S214002E4050C00E94343589839A8389819A810B9772
S214002E50C0F189819A818A3F9F4098F589819A813D
S214002E608093BB479093BC478091BA47082E000CCE
S214002E70990B880F991F8F55984BFC018081918183
S214002E808B839C838091BA47082E000C990B825640
S214002E90984B21E0FC0120838091BB479091BC4772
S214002EA08B839C838091BA47082E000C990B880F61
S214002EB0991F8F55984B2B813C81FC0120833183D1
S214002EC00EC08091BA47082E000C990B880F991FE8
S214002ED08F55984BFC018081918189839A8310924B
S214002EE0B94780E09BE021E0FC012683000027969E
S214002EF0CDBFDEBFDF91CF91FF91EF91BF91AF9134
S214002F009F918F917F916F915F914F913F912F91FC
S214002F100F9000923B000F9000923F000F901F9082
S214002F2018951F920F9200903F000F921124009068
S214002F303B000F922F933F934F935F936F937F9334
S214002F408F939F93AF93BF93EF93FF93CF93DF93AC
S214002F50CDB7DEB780E494E0FC018185881F882722
S214002F60881F8823D9F18091A7479091A84721E030
S214002F70883E934008F420E0222321F081E08093ED
S214002F80A94728C08091A7479091A84721E00B97B2
S214002F9008F420E02223F1F00E94674E8823A1F077
S214002FA088E0E1E5F0E4A9E1B7E401900D928A95A6
S214002FB0E1F749E157E469E570E481E00E94BB5A15
S214002FC08AE08093094006C081E00E942B4E80E094
S214002FD00E94424E1092A7471092A84780E494E0C1
S214002FE02FEFFC0121870000DF91CF91FF91EF9139
S214002FF0BF91AF919F918F917F916F915F914F910C
S2140030003F912F910F9000923B000F9000923F004F
S2140030100F901F901895CF93DF93CDB7DEB761E082
S21400302084E00E94FF0F61E087E00E94C50F81E008
S21400303080934E470000DF91CF910895CF93DF93A2
S214003040CDB7DEB72697CDBFDEBF0E94890880E0E9
S2140030500E94E21061E084E00E94FF0F81E00E947F
S2140030602B4E80E00E94424E84E680935B470E948F
S2140030700B188BEA97E40E94B64B8BEA97E40E9403
S2140030806A490E940A2C982F81E09C3F09F080E054
S2140030908823A9F4CE0105960E945340DC01CB019B
S2140030A089839A83AB83BC838D81882341F489818D
S2140030B09A81AB81BC81BC01CD010E94FC020E94BA
S2140030C0594E982F81E08927882351F080E00E948E
S2140030D02B4E81E00E94424E10925B4710920940B0
S2140030E00E94EA200E94831980914E478823B9F0F7
S2140030F010924E470E94CA70982F81E0923D09F4C4
S21400310080E0882331F081E080934D4781E0809312
S21400311052478CE38093094080E00E94424E8091A3
S214003120A7479091A84721E0883E934008F420E006
S214003130222351F068E08AEA97E40E94585467E038
S2140031408AEA97E40E9458548091A947882381F020
S21400315080919447882339F081E08093534781E03B
S21400316080934C4703C081E0809352471092A94752
S21400317080915247882341F1109252471E82CE0119
S21400318006960E94A62980934B47809198478823ED
S21400319031F080915D47882311F081E001C080E026
S2140031A0882329F083E080935D47109298478CE34C
S2140031B08093094065E08AEA97E40E94585461E0EB
S2140031C08AEA97E40E94585480915347882371F006
S2140031D0109253470E94332C68E08AEA97E40E94D4
S2140031E0585461E08AEA97E40E94585480915A47FE
S2140031F0882359F110925A4780E090E00E945606C4
S214003200DC01CB012B2F2F932A2F2F93292F2F93BF
S2140032108F938DE590E4892F8F938DE590E48F93BF
S21400322089E197E4892F8F9389E197E48F930E9431
S214003230BA7C8DB79EB70896CDBFDEBF49E157E48E
S21400324061E670E483E00E94BB5A90914B4781E0B0
S214003250992309F480E0882331F180914B47882F29
S21400326090E0292F2F938F9385E690E4892F8F93F4
S21400327085E690E48F9389E197E4892F8F9389E11F
S21400328097E48F930E94BA7C0F900F900F900F9048
S2140032900F900F9049E157E468E670E483E00E94DF
S2140032A0BB5A10924B4790914C4781E0992309F402
S2140032B080E0882309F414CF80914C47882F90E053
S2140032C0292F2F938F9385E690E4892F8F9385E699
S2140032D090E48F9389E197E4892F8F9389E197E4AF
S2140032E08F930E94BA7C0F900F900F900F900F90C4
S2140032F00F9049E157E46BE670E483E00E94BB5A06
S21400330010924C47EDCEEF92FF920F931F93CF9300
S214003310DF93CDB7DEB7CE59D109CDBFDEBF0E9451
S2140033207F618E839F8321E08E819F81892B09F4A4
S21400333020E0222309F442C78E819F81FC0181810F
S214003340928188879987888599858A3EF2E29F07C9
S21400335009F4A4C38B3E22E29207B8F48F36EDE15F
S2140033609E0709F4EDC38037FDE19F0728F48E31F0
S214003370934009F481C210C7863CEEE19E07E9F04F
S214003380813D9E4109F4A9C107C7823723E292070F
S21400339009F400C38337E3E29E0728F4883F92428D
S2140033A009F438C1F9C6843324E2920709F429C225
S2140033B0853C944209F4DCC6EFC68E819F81FC01F1
S2140033C08381882F90E089839A8389819A81892BCB
S2140033D009F4D0C089819A818234910519F4198242
S2140033E01A82ACC089819A818634910529F486E0D8
S2140033F090E089839A83A2C089819A81833491055B
S214003400B9F58E819F81FC0187898B838E819F8190
S214003410FC01108E8B81823411F480E38B838B81C8
S214003420882F90E0C0970A9708F088C08E819F8109
S21400343047960E940B7C8A879B871C8685E08D8733
S2140034408D85282F30E08A859B852817390724F438
S2140034508D85882F90E009C08C85882F90E02A857E
S2140034603B85821793070CF4C90189839A8366C04B
S21400347089819A818335910509F059C01C828E8115
S2140034809F81FC0187898E878E819F81FC01808DBC
S2140034908F878E819F81FC01118E8E85823411F478
S2140034A01C8236C08E85863451F48F85813380F138
S2140034B08F85863368F58F8584528C8329C08E85E8
S2140034C0833569F48F85813338F08F85863320F411
S2140034D08F8589528C831CC087E08C8319C08F85AA
S2140034E0863451F48E85813398F08E85863380F449
S2140034F08E8584528C830CC08F85833549F48E85E7
S214003500813330F08E85863318F48E8589528C830D
S2140035108C81873048F08C81823130F48C81882F02
S21400352090E089839A830AC019821A8207C08E8126
S2140035309F8103960E940B7C89839A8389819A8156
S2140035409923C4F089819A814297A4F489818EA731
S214003550CE018E96AC016EE38BEA97E40E9452464B
S2140035609EA580912240981729F0CE018E9660E0A5
S2140035700E94702D80912240682F89E197E40E9476
S214003580A476982F81E08927882311F1CE018F96A3
S21400359069E177E40E947E7CCE018F96292F2F93D7
S2140035A08F938EE690E4892F8F938EE690E48F9328
S2140035B089E197E4892F8F9389E197E48F930E949E
S2140035C0BA7C0F900F900F900F900F900F901DC029
S2140035D080912240882F90E0292F2F938F9386E7A3
S2140035E090E4892F8F9386E790E48F9389E197E4A0
S2140035F0892F8F9389E197E48F930E94BA7C0F906E
S2140036000F900F900F900F900F9089E197E40E9413
S2140036104E63CCC58E819F81FC0183818823E9F1AE
S2140036208E819F8103960E940B7C8093BD4790936A
S214003630BE478091BD479091BE478938934168F454
S21400364060E070E08DEB97E40E943870888B888984
S214003650882319F0888980934B470E942D70292F64
S2140036602F938F938EE790E4892F8F938EE790E4C5
S2140036708F9389E197E4892F8F9389E197E48F935D
S2140036800E94BA7C0F900F900F900F900F900F90A3
S21400369089E197E40E944E6389C50E942D70292F08
S2140036A02F938F938EE790E4892F8F938EE790E485
S2140036B08F9389E197E4892F8F9389E197E48F931D
S2140036C00E94BA7C0F900F900F900F900F900F9063
S2140036D089E197E40E944E6369C5198A1A8A1B8A93
S2140036E01C8A8E819F81FC018381882349F18E810B
S2140036F09F8103969E01285B3F4FB9010E94DF74AD
S214003700CE01885B9F4F61E00E94886F982F81E012
S2140037108927882389F0CE01885B9F4FFC01808132
S2140037209181A281B381898B9A8BAB8BBC8B8BEA00
S21400373097E40E94BA4704C089E890E40E944E636A
S2140037400E94DA6FDC01CB01898B9A8BAB8BBC8B2A
S21400375089899A89AB89BC89892B8A2B8B2B09F49A
S21400376020C589899A89AB89BC899E01245B3F4F15
S214003770AC01BD01C9010E946374982F81E08927BE
S2140037808823E9F0CE01845B9F4F292F2F938F93D8
S21400379084EB90E4892F8F9384EB90E48F9389E1F8
S2140037A097E4892F8F9389E197E48F930E94BA7CE0
S2140037B00F900F900F900F900F900F901DC08C8958
S2140037C08F938B898F938A898F9389898F938CEBBC
S2140037D090E4892F8F938CEB90E48F9389E197E4A4
S2140037E0892F8F9389E197E48F930E94BA7C8DB7D7
S2140037F09EB70896CDBFDEBF89E197E40E944E6370
S214003800D0C48E819F81FC018381882381F18E81C3
S2140038109F81FC018381803321F482E00E94AF2CDB
S214003820C5C48E819F81FC018381813321F482E0AF
S2140038300E944D2CBBC48E819F81FC018381823304
S21400384029F4109294470E94DD2CB0C48E819F818B
S214003850FC018381833331F462E080E090E00E94D3
S214003860702DA4C485EC90E40E944E639FC485EC42
S21400387090E40E944E639AC48E819F81FC018381EE
S214003880882309F441C080E290E080931947909322
S2140038901A478E819F810396BC0189E197E40E94B6
S2140038A05F7C8E819F81FC0187898823D1F089E126
S2140038B097E49C01F90101900020E9F7CF010197F8
S2140038C0821B930B875E984B20E230E0FC0120833E
S2140038D031838E819F814796BC0189E197E40E94DF
S2140038E05F7C89E197E40E94857C459768F469E1EE
S2140038F077E483E797E40E947E7C49E157E46AE038
S2140039008BEA97E40E94524680917347882301F120
S21400391080910B40882F90E0BC0183E797E40E94DB
S2140039209C5C885A9D4F9695879596958795969513
S21400393087959C01A5ECB0E20E94AC7A92958295A0
S2140039408F7089279F70892780938847909389472F
S21400395083E797E4892F8F9383E797E48F938AEC26
S21400396090E4892F8F938AEC90E48F9389E197E413
S214003970892F8F9389E197E48F930E94BA7C0F90EA
S2140039800F900F900F900F900F9089E197E40E9490
S2140039904E630CC48E819F81FC018381833509F0C0
S2140039A06FC08E819F81FC0187898D8B8D898823CE
S2140039B009F448C08E819F8147960E94297CDC01CD
S2140039C0CB018E8B8E898F8B85E0888F84E1898FE3
S2140039D09F89898D891740F09F89888D981710F4E4
S2140039E0888D03C08F8901C0898D80930B404BE082
S2140039F050E46DE38BEA97E40E9452468091734749
S214003A00882301F180910B40882F90E0BC0183E76A
S214003A1097E40E949C5C885A9D4F9695879596954C
S214003A208795969587959C01A5ECB0E20E94AC7AA6
S214003A30929582958F7089279F70892780938847F3
S214003A409093894780910B40882F90E0292F2F93E1
S214003A508F9381ED90E4892F8F9381ED90E48F937F
S214003A6089E197E4892F8F9389E197E48F930E94E9
S214003A70BA7C0F900F900F900F900F900F9009C088
S214003A8085E0E5ECF0E4A9E1B7E401900D928A95B3
S214003A90E1F789E197E40E944E6388C38E819F8197
S214003AA0FC018381882351F18E819F81039648E033
S214003AB050E0BC0189E197E40E948E7C1092214779
S214003AC089E197E40E943C74882341F089E197E4F9
S214003AD00E94857C049710F081E001C080E0882376
S214003AE069F069E177E48DEA97E40E947E7C4DEA0E
S214003AF057E464E38BEA97E40E9452468DEA97E423
S214003B00892F8F938DEA97E48F9383EE90E4892F25
S214003B108F9383EE90E48F9389E197E4892F8F93B8
S214003B2089E197E48F930E94BA7C0F900F900F90D4
S214003B300F900F900F9089E197E40E944E6336C372
S214003B401D8280E090E00E945606DC01CB018A8F41
S214003B509B8FAC8FBD8F8E819F81FC0183818823D4
S214003B6039F08E819F81FC018381843509F08EC1F6
S214003B708E819F81FC018789882309F483C08E810A
S214003B809F8147964CE050E0BC0189E197E40E9493
S214003B908E7C1092254780E090E00E945606DC015D
S214003BA0CB019E01205A3F4FF90180839183A28367
S214003BB0B3838091AC478195282FCE01805A9F4FC2
S214003BC0422FBC0189E197E40E945330DC01CB010F
S214003BD08EA39FA3A8A7B9A78EA19FA1A8A5B9A5A4
S214003BE0892B8A2B8B2B09F44EC160E089E197E480
S214003BF00E942D428AA78AA5882351F088E2EBEE20
S214003C00F0E4A9E1B7E401900D928A95E1F73BC193
S214003C1080E090E00E945340DC01CB01BC01CD0166
S214003C200E94FC02CE01805A9F4FFC018081918148
S214003C30A281B381AE0143595F4F22E330E0BC015D
S214003C40CD010E946145292F2F938F9383E191E444
S214003C50892F8F9383E191E48F9389E197E4892FED
S214003C608F9389E197E48F930E94BA7C0F900F9010
S214003C700F900F900F900F9060E080E090E00E9411
S214003C80702D01C1CE018C599F4F0E945340CE012A
S214003C908C599F4FFC018081882351F088E2EBEE1F
S214003CA0F0E4A9E1B7E401900D928A95E1F7EBC044
S214003CB0AE0143595F4F8A8D9B8DAC8DBD8D22E33F
S214003CC030E0BC01CD010E946145292F2F938F93D0
S214003CD08DE191E4892F8F938DE191E48F9389E1B3
S214003CE097E4892F8F9389E197E48F930E94BA7C9B
S214003CF00F900F900F900F900F900F9089E197E420
S214003D000E944E6380918C4790918D47A0918E477C
S214003D10B0918F47AE0143595F4F22E330E0BC01BC
S214003D20CD010E946145292F2F938F9389E291E45C
S214003D30892F8F9389E291E48F9389E197E4892F05
S214003D408F9389E197E48F930E94BA7C0F900F902F
S214003D500F900F900F900F9089E197E40E944E63AA
S214003D608091904790919147A0919247B091934748
S214003D70AE0143595F4F22E330E0BC01CD010E9403
S214003D806145292F2F938F9385E391E4892F8F9395
S214003D9085E391E48F9389E197E4892F8F9389E1F6
S214003DA097E48F930E94BA7C0F900F900F900F901D
S214003DB00F900F9089E197E40E944E630E942B3388
S214003DC08BA78BA5813031F08BA5853019F00E942A
S214003DD0C53359C020918C4730918D4740918E470E
S214003DE050918F478A8D9B8DAC8DBD8D0F2EF1E443
S214003DF0EF2EF1E4FF2EF02D0EE411E4BC01CD0110
S214003E000E94893120919047309191474091924786
S214003E105091934780918C4790918D47A0918E4703
S214003E20B0918F47E12CF12C0AE511E4BC01CD01DD
S214003E300E94893120918C4730918D4740918E4762
S214003E4050918F4761E08A8D9B8DAC8DBD8D281774
S214003E5039074A075B0708F060E06623A1F0209167
S214003E6090473091914740919247509193478A8D61
S214003E709B8DAC8DBD8DE12CF12C02E611E4BC01CE
S214003E80CD010E94893181E08D836AC18E819F8138
S214003E90FC018381833509F0D8C08E819F814796C7
S214003EA0BC0189E197E40E947E7C8091AC478195B5
S214003EB0482F6CE877E489E197E40E945330DC01F0
S214003EC0CB018E8F9F8FA8A3B9A38E8D9F8DA8A19F
S214003ED0B9A1892B8A2B8B2B09F48AC08E8D9F8DD6
S214003EE0A8A1B9A180938C4790938D47A0938E4745
S214003EF0B0938F474CE857E462E08BEA97E40E9461
S214003F0052468091904790919147A0919247B091E8
S214003F1093479E012B593F4FF90180839183A283DB
S214003F20B38380918C4790918D47A0918E47B09136
S214003F308F4780589E4AAE4FBF4F9E0127593F4F2E
S214003F40F90180839183A283B383CE018B599F4F5F
S214003F50FC012081318142815381CE0187599F4FD8
S214003F60FC0180819181A281B381281739074A0715
S214003F705B0748F4CE0187599F4FFC0180819181F1
S214003F80A281B38108C0CE018B599F4FFC0180816E
S214003F909181A281B3818093904790939147A0939B
S214003FA09247B093934740E957E466E08BEA97E47C
S214003FB00E94524663E080E090E00E94702D80E010
S214003FC090E00E9456069B01AC0180918C47909130
S214003FD08D47A0918E47B0918F4761E0281739072B
S214003FE04A075B0708F060E0662311F00E94DD2CAC
S214003FF080918C4790918D47A0918E47B0918F47C6
S214004000AE0143595F4F22E330E0BC01CD010E9470
S2140040106145292F2F938F9383E791E4892F8F9300
S21400402083E791E48F9389E197E4892F8F9389E161
S21400403097E48F930E94BA7C0F900F900F900F908A
S2140040400F900F9081E08D838BC08E819F81FC0145
S2140040508381863409F07CC08E819F814796BC019F
S21400406089E197E40E947E7C8091AC478195482F39
S21400407060E977E489E197E40E945330DC01CB01E4
S2140040808AA39BA3ACA3BDA38AA19BA1ACA1BDA1FF
S214004090892B8A2B8B2B79F18AA19BA1ACA1BDA180
S2140040A08093904790939147A0939247B0939347FD
S2140040B040E957E466E08BEA97E40E94524663E0E4
S2140040C080E090E00E94702D20918C4730918D47C3
S2140040D040918E4750918F4761E08A8D9B8DAC8DC5
S2140040E0BD8D82179307A407B50708F060E0662326
S2140040F011F00E94DD2C8091904790919147A091FD
S2140041009247B0919347AE0143595F4F22E330E0A8
S214004110BC01CD010E946145292F2F938F9385E323
S21400412091E4892F8F9385E391E48F9389E197E457
S214004130892F8F9389E197E48F930E94BA7C0F9022
S2140041400F900F900F900F900F9081E08D8308C016
S2140041508E819F81FC0183818A3211F40E9478440B
S2140041608D81882301F189E197E40E944E631BC08C
S2140041708E819F81FC0183818334B9F48E819F8177
S214004180FC018789882389F08E819F8147960E944B
S2140041900B7C8CA79DA709C08EE791E40E944E6316
S2140041A005C0000003C0000001C000008E819F8192
S2140041B0FC01118212820E941163B1C80000C2562F
S2140041C0DF4FCDBFDEBFDF91CF911F910F91FF90E4
S2140041D0EF9008950F931F93CF93DF93CDB7DEB77D
S2140041E0AF97CDBFDEBF81E089830E94F8588A87EB
S2140041F09B8721E08A859B85892B09F420E0222372
S21400420009F43EC78A859B85FC01818192818C8753
S2140042109D878C859D858238FEE19F0709F492C0B4
S21400422083382EE1920780F58136E3E09E0709F495
S214004230E0C58236F3E09F0778F4853123E09207E5
S21400424009F450C18E31E3E09E0709F4ACC384350F
S214004250910509F4FBC4E9C68F3AF3E09F0709F419
S2140042604CC0803B23E0920728F48438934009F43E
S21400427015C2DBC6863AFCE19F0709F459C68831A9
S2140042809D4109F4D8C6D1C68A39E3E29E0709F4EF
S21400429055C08B39F3E29F07C0F48E3621E29207B1
S2140042A009F4C9C68F36E1E29E0728F4813D9E4197
S2140042B009F4C5C5BAC68D3A22E2920709F49CC035
S2140042C0813C924209F409C1B0C6803DF3E29F07E3
S2140042D009F4DBC3813D23E2920728F48F3C934226
S2140042E009F486C6A2C6873FF3E29F0709F46CC2AC
S2140042F08C39944209F491C698C68A859B85FC0140
S2140043008381882309F499C68A859B8503960E9433
S2140043100B7C21E0892B09F420E02E870E94332CA9
S2140043200E94295A109209409E8581E08927882399
S21400433009F483C680E00E942B4E7FC682E00E946E
S2140043404129FFCF8A859B85FC0183818F8781E089
S21400435080930A408F858A3521F488E78093094048
S2140043606EC68F858033A9F580919747882339F0EC
S21400437045EC52E469E570E483E00E94BB5A80E0B5
S21400438090E00E945606DC01CB012B2F2F932A2F9C
S2140043902F93292F2F938F938DE590E4892F8F935A
S2140043A08DE590E48F9389E197E4892F8F9389E1D7
S2140043B097E48F930E94BA7C8DB79EB70896CDBFC0
S2140043C0DEBF49E157E461E670E483E00E94BB5A31
S2140043D036C68F85833309F032C610925B4781E07C
S2140043E080930940109297471092964710920A4081
S2140043F081E080935C4723C68A859B85FC01838188
S214004400882309F41EC68A859B85FC0183818D342A
S21400441081F48A859B85FC01808D882351F08A85EE
S2140044209B8548960E940B7C8093BF479093C0471D
S21400443009C08A859B8503960E940B7C8093BF47A4
S2140044409093C0470E942D709C018091BF47909129
S214004450C04741E02817390709F440E04423B9F182
S21400446060E070E08FEB97E40E943870888B888954
S214004470882321F0888980934B4705C08091C147E7
S2140044808F5F8093C1478091BF479091C047292F87
S2140044902F938F9387EC92E4892F8F9387EC92E487
S2140044A08F9389E197E4892F8F9389E197E48F931F
S2140044B00E94BA7C0F900F900F900F900F900F9065
S2140044C049E157E46CEC72E483E00E94BB5A8091A9
S2140044D0C2478F5F8093C247B4C58BEA97E40E94B9
S2140044E0BA47C0C58A859B85FC018381898B8989EB
S2140044F0813321F08989823309F0C0C08091514709
S214004500823041F09091404081E08927882311F065
S21400451081E001C080E0882321F087EF80934B473D
S214004520BBC08989813309F064C0809151478230CD
S21400453021F080914040882311F081E001C080E0A6
S214004540882309F452C01092944781E08AA7CE01CE
S2140045508A9640E050E0BC018EE597E40E94445BFA
S21400456080910C400E944C2980930740909308400D
S21400457081E090E0A0E0B0E080938C4790938D4778
S214004580A0938E47B0938F478FEF9FEFDC01809309
S214004590904790939147A0939247B09393478FE0AC
S2140045A097E280930D4090930E4010920F40109229
S2140045B010408FE097E2A0E0B0E0809354479093DD
S2140045C05547A0935647B09357478FEF9FEF80937A
S2140045D058479093594781E08093954781E08093B0
S2140045E094478DEF80934C4757C087EF80934B4797
S2140045F053C08989823309F04FC08091C24788230F
S21400460041F08091C2478C3020F48DEC80934B476C
S21400461043C08091C147882351F0809194478823F6
S21400462011F00E94332C8BEA97E40E94BA479091CF
S214004630944781E089278823C9F01BA6CE018B9674
S2140046400E94A62980934B4780919847882331F093
S21400465080915D47882311F081E001C080E08823C7
S21400466029F083E080935D47109298478CE380930F
S21400467009401092C1471092C2470EC08989803304
S21400468009F0E1C40E94332C1092C1471092C24731
S2140046908CEE80934C47D7C40000D5C41A821B8288
S2140046A01C821D828A859B85FC018381833509F0E7
S2140046B047C08A859B85FC01808D882359F08A85B2
S2140046C09B8548960E94297CDC01CB018A839B83CC
S2140046D0AC83BD8380918C4790918D47A0918E4787
S2140046E0B0918F4761E02A813B814C815D8128171C
S2140046F039074A075B0709F460E06623D9F08A8128
S2140047009B81AC81BD8180938C4790938D47A0930D
S2140047108E47B0938F4780E090E00E945340DC01C4
S214004720CB01BC01CD010E94FC028091C1478F5F86
S2140047308093C1478091C2478F5F8093C24785C4EC
S2140047408A859B85FC018381863409F07EC48A8530
S2140047509B85FC01808D882359F08A859B85489629
S2140047600E94297CDC01CB018A839B83AC83BD83BA
S2140047708091904790919147A0919247B09193472E
S21400478061E02A813B814C815D81281739074A0701
S2140047905B0709F460E0662389F08A819B81AC811F
S2140047A0BD818093904790939147A0939247B09392
S2140047B093478091C1478F5F8093C1478091C247DE
S2140047C08F5F8093C24741C481E080930A408A8508
S2140047D09B85FC018081813009F04AC08A859B85D3
S2140047E0FC0183818823D1F08A859B85039644E16A
S2140047F050E0BC0189E197E40E948E7C60E089E18C
S21400480097E40E94964280E090E00E945340DC01CC
S214004810CB01BC01CD010E94FC0219C480E090E0EF
S2140048200E945606DC01CB012B2F2F932A2F2F93A5
S214004830292F2F938F938DE590E4892F8F938DE505
S21400484090E48F9389E197E4892F8F9389E197E429
S2140048508F930E94BA7C8DB79EB70896CDBFDEBFF9
S21400486049E157E461E670E483E00E94BB5AEFC377
S2140048708A859B85FC018081823009F0E8C38A85A1
S2140048809B85FC0183818835C9F51A8A8A859B85B4
S214004890FC01808D882351F08A859B8548960E946E
S2140048A00B7C8A8B8A890E94EE43D1C30E941D44EA
S2140048B08A8B8A89082E000C990B292F2F938F93A9
S2140048C080ED92E4892F8F9380ED92E48F9389E1B7
S2140048D097E4892F8F9389E197E48F930E94BA7C9F
S2140048E00F900F900F900F900F900F9049E157E4A4
S2140048F061E670E483E00E94BB5AA9C380E090E0C2
S2140049000E945340DC01CB018B8B9C8BAD8BBE8B06
S2140049108B899C89AD89BE89BC01CD010E94FC02B1
S2140049208091C3479091C447A091C547B091C647B0
S2140049302B893C894D895E89281739074A075B070A
S21400494009F485C38E898F938D898F938C898F9375
S2140049508B898F938DE590E4892F8F938DE590E476
S2140049608F9389E197E4892F8F9389E197E48F935A
S2140049700E94BA7C8DB79EB70896CDBFDEBF49E1D0
S21400498057E461E670E483E00E94BB5A8B899C89F9
S214004990AD89BE898093C3479093C447A093C5470B
S2140049A0B093C64754C38A859B85FC0183818823C0
S2140049B009F443C08A859B850396BC0183E797E488
S2140049C00E94757C892B99F18A859B85039644E124
S2140049D050E0BC0183E797E40E948E7C8091734789
S2140049E0882301F180910B40882F90E0BC0183E77B
S2140049F097E40E949C5C8C509E4F96958795969562
S214004A008795969587959C01A5ECB0E20E94AC7AB6
S214004A10929582958F7089279F7089278093884703
S214004A20909389478091C1478F5F8093C14780915B
S214004A30C2478F5F8093C2470CC380917347882319
S214004A4009F407C383E797E4892F8F9383E797E4F6
S214004A508F9385ED92E4892F8F9385ED92E48F9363
S214004A6089E197E4892F8F9389E197E48F930E94D9
S214004A70BA7C0F900F900F900F900F900F9089E1D7
S214004A8097E40E945E5A1982E4C280910C408F8B94
S214004A908A859B85FC018381893409F076C08A85E6
S214004AA09B85FC01808D882309F4D5C28A859B8569
S214004AB048960E94297CDC01CB01888F998FAA8FAB
S214004AC0BB8F85E08C8F84E18D8F8D8D282F30E015
S214004AD040E050E0888D998DAA8DBB8D2817390748
S214004AE04A075B0734F48D8D882F90E0A0E0B0E095
S214004AF010C08C8D882F90E0A0E0B0E0288D398D16
S214004B004A8D5B8D82179307A407B50714F4DA0164
S214004B10C9018F8B90910B4081E02F89291709F4EA
S214004B2080E0882361F18F8980930B408091C14794
S214004B308F5F8093C14780917347882301F18091EE
S214004B400B40882F90E0BC0183E797E40E949C5CB2
S214004B508C509E4F969587959695879596958795B2
S214004B609C01A5ECB0E20E94AC7A929582958F707B
S214004B7089279F70892780938847909389478091DB
S214004B80C2478F5F8093C24766C28A859B85FC01B9
S214004B908381803509F05FC28A859B85FC01808D04
S214004BA0882309F458C28A859B8548960E94297CEA
S214004BB0DC01CB018E8F9F8FA8A3B9A385E08AA3C3
S214004BC084E18BA38BA1282F30E040E050E08E8D4F
S214004BD09F8DA8A1B9A1281739074A075B0734F4A7
S214004BE08BA1882F90E0A0E0B0E010C08AA1882FAB
S214004BF090E0A0E0B0E02E8D3F8D48A159A182172D
S214004C009307A407B50714F4DA01C9018F8B9091B6
S214004C100C4081E02F89291709F480E0882381F071
S214004C208F8980930C408091C1478F5F8093C147E6
S214004C3080910C400E944C29809307409093084036
S214004C408091C2478F5F8093C24705C21CA21DA2F7
S214004C508A859B85FC018381803371F58A859B85D7
S214004C60FC01808D882309F4F8C18A859B854896C7
S214004C700E94297CDC01CB018CA39DA380910F4070
S214004C809091104041E02CA13DA12817390709F466
S214004C9040E0442359F08CA19DA180930F4090934F
S214004CA010408091C1478F5F8093C1478091C24773
S214004CB08F5F8093C247D1C18A859B85FC01838123
S214004CC0813371F58A859B85FC01808D882309F4E4
S214004CD0C4C18A859B8548960E94297CDC01CB014D
S214004CE08CA39DA380910D4090910E4041E02CA195
S214004CF03DA12817390709F440E0442359F08CA158
S214004D009DA180930D4090930E408091C1478F5F88
S214004D108093C1478091C2478F5F8093C2479DC1F1
S214004D208A859B85FC018381893471F58A859B85FC
S214004D30FC01808D882309F490C18A859B8548965E
S214004D400E94297CDC01CB018CA39DA3809111409D
S214004D509091124041E02CA13DA12817390709F493
S214004D6040E0442359F08CA19DA18093114090937C
S214004D7012408091C1478F5F8093C1478091C247A0
S214004D808F5F8093C24769C18A859B85FC018381BA
S214004D90843409F062C18A859B85FC01808D882356
S214004DA009F45BC18A859B8548960E94297CDC01B4
S214004DB0CB018CA39DA380918A4790918B4741E0BD
S214004DC02CA13DA12817390709F440E0442359F0E7
S214004DD08CA19DA180938A4790938B478091C14771
S214004DE08F5F8093C1478091C2478F5F8093C24791
S214004DF034C18A859B85FC018381882309F42FC1F1
S214004E008A859B850396BC018EE597E40E94757C97
S214004E10892B79F08A859B85039644E150E0BC0196
S214004E208EE597E40E948E7C8091C1478F5F8093C9
S214004E30C1478091C2478F5F8093C24710C11E82D0
S214004E401F82188619868A859B85FC0183818823A4
S214004E50C9F18A859B8503960E94297CDC01CB01DB
S214004E608CA79DA7AEA7BFA70E94DA6F9B01AC01D7
S214004E708CA59DA5AEA5BFA561E0281739074A07F2
S214004E805B0709F460E06623B9F0CE018C9661E01A
S214004E900E94886F982F81E08927882369F08CA567
S214004EA09DA5AEA5BFA58E839F83A887B987809151
S214004EB0C1478F5F8093C1478091C2478F5F8093C1
S214004EC0C24708C00E94DA6FDC01CB018E839F8345
S214004ED0A887B9878E819F81A885B985892B8A2B5B
S214004EE08B2B09F4BEC089858F9388858F938F811D
S214004EF08F938E818F938EED92E4892F8F938EED14
S214004F0092E48F9389E197E4892F8F9389E197E460
S214004F108F930E94BA7C8DB79EB70896CDBFDEBF32
S214004F2049E157E463EE72E483E00E94BB5A99C0FD
S214004F308091A1479091A247CC01A0E0B0E0BC01CF
S214004F40CD010E94C578DC01CB018EA39FA3A8A744
S214004F50B9A720E030E04CE253E46EA17FA188A51B
S214004F6099A50E94BD79DC01CB018EA39FA3A8A7BB
S214004F70B9A72FE632E143E05AE36EA17FA188A5E8
S214004F8099A50E94BD79DC01CB018EA39FA3A8A79B
S214004F90B9A720E030E040E85FE36EA17FA188A5D6
S214004FA099A50E949577DC01CB018EA39FA3A8A7A5
S214004FB0B9A78EA19FA1A8A5B9A509E117E420E08D
S214004FC044E0BC01CD010E94C67A10921E4767EEEF
S214004FD072E489E197E40E940A5B80E090E00E9418
S214004FE05340DC01CB01BC01CD010E94FC023AC05B
S214004FF00E944035DC01CB0109E117E421E044E0E2
S214005000BC01CD010E94C67A10921E476CEE72E477
S21400501089E197E40E940A5B25C041EF52E465EF00
S21400502072E483E00E94BB5A1DC0198289EF92E4A5
S2140050300E945E5A17C0000015C0000013C0000092
S21400504011C000000FC000000DC000000BC0000023
S21400505009C0000007C0000005C0000003C0000033
S21400506001C000008A859B85FC011182128289811D
S214005070882309F4BAC88FEF92E40E945E5AB5C836
S2140050800000AF96CDBFDEBFDF91CF911F910F918D
S2140050900895CF93DF931F92CDB7DEB70E94232CDF
S2140050A08983998181E08927882391F090915147DF
S2140050B081E0913009F480E0882331F081E080932C
S2140050C0514781E08093064083E08093234027C0C9
S2140050D09091514781E0923009F480E08823F9F0FE
S2140050E08091C74799819817B9F480912340882307
S2140050F0B1F08091234081508093234080912340DB
S214005100882369F482E08093514781E080930640CB
S21400511083E08093234003C083E08093234089810B
S2140051208093C74700000F90DF91CF910895EF92CC
S214005130FF920F931F93CF93DF93CDB7DEB72997D8
S214005140CDBFDEBF20918C4730918D4740918E4772
S21400515050918F478091904790919147A0919247A8
S214005160B0919347BC01CD010E94E373DC01CB01F3
S21400517089839A83AB83BC8321E089819A81AB8142
S214005180BC81181619061A061B060CF020E02D83A3
S214005190CE0106960E945606209190473091914780
S2140051A040919247509193478E819F81A885B985FB
S2140051B0BC01CD010E94E373DC01CB0189839A8395
S2140051C0AB83BC8389819A81AB81BC81BB232CF0E5
S2140051D08D81882311F080E04AC020918C47309161
S2140051E08D4740918E4750918F478E819F81A8852D
S2140051F0B985BC01CD010E94E373DC01CB01898334
S2140052009A83AB83BC8389819A81AB81BC81843CC1
S2140052109F4FAF4FBF4F64F010925D4710921540FE
S21400522010921640109217401092184081E01FC04E
S21400523024EC3FEF4FEF5FEF89819A81AB81BC8111
S21400524079018A01E81AF90A0A0B1B0BD801C70173
S2140052508093154090931640A0931740B093184043
S21400526081E080935D4781E08093984781E02996AE
S214005270CDBFDEBFDF91CF911F910F91FF90EF90D2
S2140052800895CF93DF931F92CDB7DEB789830000D2
S2140052900F90DF91CF910895CF93DF93CDB7DEB710
S2140052A02A97CDBFDEBF8A878A85898385E090E00E
S2140052B08A839B8384E190E08C839D838981282F59
S2140052C0880F330B8C819D81821793075CF0898150
S2140052D0082E000C990B2A813B818217930724F431
S2140052E0C90102C08C819D818A878A85282F30E07B
S2140052F040E050E088ED9DE0A0E0B0E0BC01CD01CC
S2140053000E94847ADA01C9012AE030E040E050E0E9
S214005310BC01CD010E94847ADA01C901BC01CD012D
S2140053200E94C778DC01CB018E839F83A887B9874C
S2140053306E817F81888599850E949678DC01CB01F5
S2140053402A96CDBFDEBFDF91CF910895CF93DF932E
S21400535000D01F92CDB7DEB78A839B838A819B815C
S2140053600E94D12989838A819B81FC0180818823C0
S21400537031F08A819B81FC01808180934C47898132
S214005380882321F0898180934B4704C00E94972888
S2140053908093944789812396CDBFDEBFDF91CF915E
S2140053A00895CF93DF93CDB7DEB76397CDBFDEBF4B
S2140053B08A8B9B8B80918C4790918D47A0918E47CE
S2140053C0B0918F4721E0892B8A2B8B2B09F020E0A8
S2140053D0222311F08CEC18C220918C4730918D4717
S2140053E040918E4750918F4780919047909191477A
S2140053F0A0919247B091934761E0281739074A0772
S2140054005B0708F460E0662311F08DECFDC1809127
S2140054100D4090910E4021E0892B09F020E02223D8
S21400542011F08BECF1C120910F403091104080912B
S2140054300D4090910E40280F391F80918A47909119
S2140054408B4741E0281739070CF040E0442311F061
S2140054508AECDAC180915E47882311F489ECD4C1C6
S21400546090910C4081E0992309F080E0882311F0A8
S21400547088ECCAC180917347882391F180910B40D4
S214005480882331F08091114090911240892B11F4BD
S21400549081E001C080E0882311F087ECB5C18091DF
S2140054A00B40882F90E0BC0183E797E40E949C5C49
S2140054B08C509E4F96958795969587959695879549
S2140054C09C01A5ECB0E20E94AC7A929582958F7012
S2140054D089279F708927809388479093894704C0BF
S2140054E0109288471092894780E090E00E94560606
S2140054F0DC01CB018A839B83AC83BD8320919047DC
S21400550030919147409192475091934761E08A814C
S2140055109B81AC81BD81281739074A075B0708F0D5
S21400552060E0662359F08A899B89892B09F46BC150
S2140055308A899B892AEFFC01208365C120918C47CC
S21400554030918D4740918E4750918F478A819B813D
S214005550AC81BD81BC01CD010E94E373DC01CB01AF
S2140055608E839F83A887B9878E819F81A885B985FA
S214005570BB230CF434C1198220910D4030910E40AB
S21400558080910F4090911040820F931F8A879B87CF
S2140055908A859B859C01990F440B550B8E819F81B4
S2140055A0A885B985BC01CD010E94847ADC01CB01B7
S2140055B08C879D8720918A4730918B478C859D8567
S2140055C0A901481B590BCA018E879F878E859F8528
S2140055D0181619060CF4A8C08E859F852227332737
S2140055E0281B390B80910D4090910E4041E0281702
S2140055F039070CF440E0442309F441C02A853B8572
S2140056008E859F85820F931F919581959109092E0E
S214005610000CAA0BBB0B8093544790935547A0935E
S2140056205647B09357478A899B89892B29F08A89E0
S2140056309B892EEFFC0120839091944781E0892777
S214005640882309F4A6C080910D4090910E409C01DD
S2140056508091544790915547A0915647B09157472F
S214005660281B390B8091884790918947A901481BD0
S214005670590BCA0180935847909359478AC0209186
S2140056800D4030910E408E859F85820F931F092E08
S214005690000CAA0BBB0B8093544790935547A093DE
S2140056A05647B093574781E089838A899B89892B1F
S2140056B029F08A899B892DEFFC01208390919447DD
S2140056C081E08927882309F464C0809188479091F7
S2140056D089479C0140E050E080915447909155479F
S2140056E0A0915647B091574761E0281739074A07F7
S2140056F05B070CF060E0662309F44BC080915447CA
S21400570090915547A0915647B09157479C0180917C
S214005710884790918947A901481B590BCA01809375
S21400572058479093594735C08E859F8591958195AA
S2140057309109092E000CAA0BBB0B8093544790933B
S2140057405547A0935647B09357478A899B89892B1C
S21400575029F08A899B892EEFFC012083909194473B
S21400576081E089278823A9F020910D4030910E40D2
S2140057708E859F85820F931F9C018091884790910C
S2140057808947A901481B590BCA0180935847909333
S214005790594789818823E1F080919447888B10923D
S2140057A0944781E0898BCE01419640E050E0BC01F1
S2140057B08EE597E40E94445B80910C400E944C2941
S2140057C0809307409093084088898093944703C04D
S2140057D080E00E94F96F81E0809395470CC08A892B
S2140057E09B89892B29F08A899B892FEFFC012083CE
S2140057F080E00E94F96F109297478AE590E08093C8
S21400580013409093144080E06396CDBFDEBFDF91D7
S214005810CF910895CF93DF93CDB7DEB761E083E0F5
S2140058200E94391061E082E00E9439100E94243EF6
S21400583081E00E94BA43882311F08CEF01C080E01B
S214005840DF91CF910895CF93DF931F92CDB7DEB748
S21400585081E00E94C3108983998181E089270F9097
S214005860DF91CF910895CF93DF93CDB7DEB7109237
S21400587094471092544710925547109256471092EC
S21400588057471092954780E00E94F96F80E00E948B
S214005890EB6F0000DF91CF910895CF93DF9300D098
S2140058A0CDB7DEB78A830E942B3389838A8188230B
S2140058B079F48981823031F460E080E090E00E94E3
S2140058C0702D47C063E080E090E00E94702D41C0DC
