:100000000C945B010C9485010C9485010C94850182
:100010000C9485010C9485010C94DC0A0C948501E8
:100020000C9485010C9485010C9485010C94850138
:100030000C94E20C0C942E480C9485010C948501D0
:100040000C9485010C9485010C9485010C94B809DD
:100050000C9463070C9485010C94C00C0C948501DE
:100060000C9428260C9485010C9485010C94850130
:100070000C9485010C94FF110C94EC470C941B0A12
:100080000C944D0A0C9485010C9485010C94850107
:100090000C9485010C9485010C9485010C948501C8
:1000A0000C9485010C94AA360C9485010C9485015E
:1000B0000C9485010C9485010C9485010C948501A8
:1000C0000C9485010C9485010C9485010C94850198
:1000D0000C9485010C9485010C9485010C94E9091C
:1000E0000C94EF070C94850100407A10F35A00A09D
:1000F000724E18090010A5D4E80000E876481700F1
:1001000000E40B54020000CA9A3B000000E1F50530
:10011000000080969800000040420F000000A0867A
:1001200001000000102700000000E80300000000AC
:100130006400000000000A00000000000100000050
:1001400000002C76D888DC674F0823DFC1DFAE596A
:10015000E1B1B796E5E3E453C63AE651997696E8FD
:10016000E6C28426EB898C9B62ED407C6FFCEFBC81
:100170009C9F40F2BAA56FA5F490055A2AF75C93AC
:100180006B6CF9676DC11BFCE0E40D47FEF520E6E2
:10019000B500D0ED902E0300943577050080841EC5
:1001A000080000204E0A000000C80C333333330F20
:1001B000986E12831141EF8D2114893BE65516CFBD
:1001C000FEE6DB18D1844B381BF77C1D901DA4BBC9
:1001D000E424203284725E228100C9F124ECA1E57E
:1001E0003D274A616E75617279204665627275615C
:1001F0007279204D6172636820417072696C204D84
:100200006179204A756E65204A756C792041756761
:100210007573742053657074656D626572204F63E9
:10022000746F626572204E6F76656D6265722044F0
:100230006563656D626572200053756E6461792037
:100240004D6F6E64617920547565736461792057D0
:1002500065646E6573646179205468757273646156
:1002600079204672696461792053617475726461A2
:1002700079200053756E4D6F6E54756557656454E3
:100280006875467269536174004A616E4665624DD5
:1002900061724170724D61794A756E4A756C417533
:1002A000675365704F63744E6F7644656300EA244C
:1002B0005926F9246A2611241FBECFEFCDBFDFE7F0
:1002C000DEBF13E4A0E0B0E4E8EBFBEA00E00BBF24
:1002D00002C007900D92AC33B107D9F727E4ACE325
:1002E000B3E401C01D92A83BB207E1F711E0C9E5F4
:1002F000D1E004C02197FE010E94534EC735D107BB
:10030000C9F70E9438120C94CF550C9400009C0140
:1003100023703327232B59F464E670E00E94FE4DCE
:10032000892B39F46370772781E0672B19F080E01F
:10033000089581E0089566EA77E40E94A20186EAC2
:1003400097E40895CF92DF92EF92FF920F931F935D
:10035000CF93DF9300D000D0CDB7DEB76C017B0127
:10036000E091B647F091B7470FEF1FEF309721F0BC
:1003700062EB77E409958C01F60180819181A2817D
:10038000B3814091B2475091B3476091B4477091A7
:10039000B547840F951FA61FB71F10161106C4F08E
:1003A00089839A83AB83BC83B701CE0101960E94F7
:1003B0000106F701028713872496CDBFDEBFDF91C8
:1003C000CF911F910F91FF90EF90DF90CF90089504
:1003D000A801012E000C660B770B840F951FA61F3A
:1003E000B71FDECF623021F40E948701845E08953A
:1003F000683008F06F5F61708EE1860F08950FB668
:10040000F8946093A2477093A3478093A447909376
:10041000A5470FBE0895CF92DF92EF920F936B0125
:10042000E82E842FF6015E2D0E94BC559FEFC91A5D
:10043000D90AE90A81110BC0D901603211F0801389
:100440000AC01C920F91EF90DF90CF900895603218
:1004500049F78150E7CF6D938F5FF6015E2D0E94C3
:10046000BC559FEFC91AD90AE90AE7CF2F923F92EC
:100470004F925F926F927F928F929F92AF92BF92B4
:10048000CF92DF92EF92FF920F931F93CF93DF9360
:10049000CDB7DEB7A297CDBFDEBF4C0169A37AA36B
:1004A000FA017901712C612C9E012F5F3F4F690188
:1004B00084E6482E512C9AEDA92E92E4B92E29A15A
:1004C0003AA16216730618F0D4011C92B2C21F0141
:1004D0003FEF231A330A8081853209F0A2C21181CD
:1004E0001F011534F9F01F34E9F042E0240E311CED
:1004F000193509F48CC20CF081C0193409F4C9C152
:100500000CF045C0133409F45FC18CF4113409F4C4
:100510003CC10CF048C1153209F433C18FE3898323
:100520001A8230C153E0250E311C1281E1CF1634FE
:1005300009F464C11CF5143489F7F70186819781A9
:10054000B2010E94FE4D9F938F938381282F082E26
:10055000000C330B3F938F938581082E000C990B71
:1005600001969F938F9320ED32E43F932F93DF9278
:10057000CF920E947750CDBFDEBF5CC0173409F424
:100580005CC1183459F6D70112968C9130C11435DC
:1005900009F4F2C164F4123509F4D3C10CF0E9C1D5
:1005A0001D3409F0BBCFD70111968C9120C11635AF
:1005B00009F410C20CF408C2173509F41EC218352C
:1005C00009F0ACCFD7018C91282F082E000C330BEB
:1005D0003F938F9311968C911197282F082E000C22
:1005E000330B3F938F9312968C91282F082E000C7B
:1005F000330B3F938F9382E293E41CC11D3609F4C1
:1006000059C10CF056C0143609F4EEC074F5123618
:1006100009F4C0C00CF0CCC0113609F07FCF03E064
:100620009601D70114964C9169E372E080E00E9434
:100630000B0290E09301280F391F49A15AA1D40160
:100640002417350708F041CFF601AF014C195D09B9
:10065000481759070CF4E2C197FF02C090E080E010
:10066000880E991E3901F1012ACF173609F4E5C029
:1006700084F4153609F052CFF7018381282F082E14
:10068000000C330B3F938F938FED92E49F938F93E6
:10069000F5C0183609F47EC01A3609F03FCFD701ED
:1006A00018968D919C9101969F938F9385EF92E47C
:1006B000EDCF153709F479C1B4F4103709F402C14C
:1006C00034F41E3609F02ACF8AE089835BC01237E2
:1006D00009F406C1143709F021CF6BE073E4C601B9
:1006E0000E94FA544FC0183709F427CF84F4173703
:1006F00009F014CFF7018481282F082E000C330B4A
:100700003F938F932FE133E43F932F93B7C0193773
:1007100009F475C11A3709F001CF6091B2477091A1
:10072000B3478091B4479091B5472CE330E040E067
:1007300050E00E94344E8901F901D7011A968D913B
:100740009C916CE370E00E94FE4D161617061CF497
:10075000FB01E00FF11FCF016CE370E00E94FE4D42
:1007600097FF03C09195819591099F938F93CF0136
:100770006CE370E00E94FE4D7F936F9381E393E4FE
:10078000F1C0198381E090E055CF0FEF9601F7019A
:1007900044814ACF03E09601D70115964C9162EE51
:1007A00071E080E044CF0FEF9601F7014581F7CF6C
:1007B000B601C7010E947E05F601CF018C199D0983
:1007C00021912111FACF36CFD70116968D919C91A8
:1007D0008459984FB2010E94FE4D7F936F93EBEEC8
:1007E000F2E4FF93EF934AC0D70113968C91282F20
:1007F000082E000C330B3F938F9359C0D7011396EB
:100800008C911397282F082E000C330B3F938F9356
:1008100015968C911597082E000C990B01969F93B5
:100820008F9316968D919C918459984F9F938F9397
:1008300083EE92E49F938F939ACED70118966D9191
:100840007C91199716968D919C91AE01455E5F4FF4
:100850008459984F0E94D406173641F48B8D9C8D95
:10086000B2010E94FE4D9F938F93B9CF8C8D8F93D1
:100870008B8D8F9340EF52E45F934F93DF92CF9233
:100880000E9477500F900F900F900F900F900F9045
:10089000D1CEF70182816CE00E94AE55911101C06A
:1008A0009CE0292F092E000C330B3F939F93BF929E
:1008B000AF92E4CFF7018581082E000C990B0196C9
:1008C0009F939ACF81E48983F70182818C3014F061
:1008D00080E589838DE48A831B8282E090E0AACE42
:1008E000D70112968C916CE00E94AE55911101C017
:1008F0009CE0F7018081282F082E000C330B3F93DA
:100900008F938181282F082E000C330B3F938F93F8
:10091000292F092E000C330B3F939F938AEF92E40B
:100920009F938F93DF92CF920E947750CDBFDEBF0F
:10093000D70112962C912C300CF47CCE20E52B871D
:1009400079CEF7018181282F082E000C330B3F93BD
:100950008F938281282F082E000C330B3F938F93A7
:1009600082E193E49F938F93DF92CF920E9477501E
:1009700002CED7018C913BCFF7018081282F082E22
:10098000000C330B3F938F938181282F082E000C8E
:10099000330B3F938F938281282F082E000C330B4B
:1009A0003F938F938DE093E445CFD70114968C91BC
:1009B000082E000C990B009711F487E090E09F93AC
:1009C0008F93ECE1F3E40DCF60E0C7010E94430593
:1009D0001F9212CFD70118966D917C911997169698
:1009E0008D919C91AE01455E5F4F8459984F0E9456
:1009F000D4068E8D8F938D8DFFCE61E0E6CFD7012B
:100A000016968D919C91B2010E94FE4D59CFF7012F
:100A1000868197818459984F9F9373CE41914D93CE
:100A200014CEF40181934F01FFEF6F1A7F0A8111F9
:100A30001ACEC301A296CDBFDEBFDF91CF911F9129
:100A40000F91FF90EF90DF90CF90BF90AF909F906D
:100A50008F907F906F905F904F903F902F90089570
:100A6000FC010FB6F8946091A2477091A347809162
:100A7000A4479091A5470FBE309721F06083718302
:100A8000828393830895FC0120853185C9010796EF
:100A90004481841B910947FD9395860F911DE7E0E2
:100AA000F0E0BF010E94FE4DA901481B590BCA018D
:100AB00057FD06C0BF010E94FE4D81E0860F0895DC
:100AC00080E008958F938FB78F93F8948091A24719
:100AD0008F5F8093A2478091A3478F4F8093A34756
:100AE0008091A4478F4F8093A4478091A5478F4F53
:100AF0008093A5478F918FBF8F910895CF92DF92FA
:100B0000EF92FF920F931F93CF93DF938C01EB0132
:100B1000FC018481B82FBB0FB80F8581782F770F28
:100B2000780F9E0140E08B2F840F90E0A0E08D585D
:100B30009D4FAF4FFC015A2F0E94BC55F9016193A4
:100B40009F01872F840F90E0A0E087579D4FAF4F04
:100B5000FC015A2F0E94BC55F90163834F5F43305B
:100B600011F780E28F838B83BE01685F7F4FF801AE
:100B7000838140E2082E000C990B0E944E07BE01B3
:100B8000655F7F4FF80182814AE3082E000C990BC4
:100B90000E944E07BE01625F7F4FF80181814AE3E8
:100BA000082E000C990B0E944E07BE016F5E7F4F0E
:100BB000F801808140E2082E000C990B0E944E073C
:100BC000F8018681978164E670E08459984F0E940D
:100BD000FE4D6B017C01BE016C5E7F4F40E2C601A1
:100BE0000E944E07BE016A5E7F4F40E0C701DF9161
:100BF000CF911F910F91FF90EF90DF90CF900C94C9
:100C00004E07CF92DF92EF92FF920F931F93CF93F5
:100C1000DF93CDB7DEB72897CDBFDEBF8B01FC01D8
:100C2000608171818281938120E831E541E050E06B
:100C30000E94124E69017A012CE330E040E050E05E
:100C40000E94344E29833A834B835C8389819A8145
:100C5000AB81BC81F80160836CE370E00E94FE4DC3
:100C6000DC01F801A1836283C601069667E070E0AB
:100C70000E94EA4D84832DEA3EE840E050E0C7013F
:100C8000B6010E94344E29833A836D837E838F831D
:100C9000988789819A8124E6289F6001299FD00C3A
:100CA00011246D817E818F81988525EB35E040E0B0
:100CB00050E00E94344E29833A836D837E83E9801D
:100CC000FA80EE0CFF1CEE0CFF1CEC0CFD1C8D8161
:100CD0009E81F5E6EF16F104E0F1019621E030E0A7
:100CE000A90144595E4F4817590760F46DE671E059
:100CF000821B930B0E94FE4DDC01E60EF71ECD0118
:100D000030E020E044E6E40EF11CF801E682F782D0
:100D100080879187255C3F4F8217930720F56FE10D
:100D200070E00E94FE4DDC01F8016583A383F801A9
:100D30001286138683818F5F83832896CDBFDEBFA3
:100D4000DF91CF911F910F91FF90EF90DF90CF90A7
:100D5000089551E040E024E6E216F10409F450E081
:100D6000252F342FBDCF69E970E0821B930B0E94C1
:100D7000FE4DDC01262F220F220FF22EF60E6DE320
:100D800070E0CD010E94FE4DDC01E62EEE0C6FE11D
:100D900070E0CD010E94FE4DDC0122E0260F2F0DF8
:100DA0002E0DF8012583C2CFCF92DF92EF92FF92F2
:100DB0000F931F93CF93DF938C017B01EA0188830C
:100DC00099830E948701282FA801405D57406DE656
:100DD00071E0469FC001479F900D569F900D1124D2
:100DE0008E0D9F1D4115510579F0BA0176956795D5
:100DF000769567956F5F7F4F860F971F821B9109CE
:100E00004536510508F00197069667E070E00E94AC
:100E1000EA4D6C01892B19F487E0C82ED12CCC82C5
:100E2000DD82C7010B968C199D0967E070E00E9476
:100E3000FE4D65337105B1F481E0C81AD108EC1894
:100E4000FD08822F90E084599E4F23E0E20EF11CB2
:100E50008E159F053CF4888199810196888399833A
:100E600061E070E06A837B83672B79F4015011099C
:100E7000C8010E948701682F70E064597E4FAE015F
:100E8000C8010E94D406CC82DD82DF91CF911F91F0
:100E90000F91FF90EF90DF90CF9008951F93CF9325
:100EA000DF93EB01142F6AE070E00E94FE4D605D5D
:100EB0006883805D89831A83DF91CF911F910895A4
:100EC0000E94972808951F920F920FB60F92112437
:100ED0000BB60F922F933F934F935F936F937F9334
:100EE0008F939F93AF93BF93EF93FF938091544061
:100EF00090915540892BC1F480915743909158436C
:100F0000892B09F441C0E0915743F09158438091F7
:100F10005643DF01A80FB11D9C919923E1F18F5F2A
:100F2000809356439093020880915B4090915C407F
:100F3000892BB9F48091544390915543892BD1F179
:100F4000E0915443F091554380915343DF01A80F42
:100F5000B11D9C919923A9F18F5F80935343909386
:100F60000208FF91EF91BF91AF919F918F917F9177
:100F70006F915F914F913F912F910F900BBE0F900A
:100F80000FBE0F901F9018950E94C43A809357434C
:100F900090935843B8CF1092564310820E94C43A9F
:100FA0008093574390935843892B09F0BDCF0E94FB
:100FB0009E3BBACF0E94763F809354439093554313
:100FC000BFCF1092534310820E94763F80935443C8
:100FD00090935543892B29F60E94BC3FC2CF1F92A4
:100FE0000F920FB60F9211240BB60F922F933F93CF
:100FF0004F935F936F937F938F939F93AF93BF9321
:10100000EF93FF9380915440909155400497D1F015
:1010100080915B4090915C40049709F441C0FF913E
:10102000EF91BF91AF919F918F917F916F915F9160
:101030004F913F912F910F900BBE0F900FBE0F90CD
:101040001F9018958091514390915243892B91F0B4
:10105000E0915143F091524380915043DF01A80F3A
:10106000B11D9C91992369F08F5F809350439093B9
:101070008208CECF0E94C43A80935143909352434A
:10108000E7CF1092504310820E94C43A809351439C
:1010900090935243892B09F0BBCF0E949E3BB8CF5F
:1010A00080914E4390914F43892B91F0E0914E43B4
:1010B000F0914F4380914D43DF01A80FB11D9C91EA
:1010C000992369F08F5F80934D4390938208A7CF57
:1010D0000E94763F80934E4390934F43E7CF109208
:1010E0004D4310820E94763F80934E4390934F432E
:1010F000892B09F094CF0E94BC3F91CF0F931F938F
:10110000CF93DF93182FC0914B43D0914C4320973E
:1011100009F44CC0812F90E00E94165090914243F8
:10112000911153C08C3509F44CC0843209F4A2C02B
:10113000813209F49AC020914343222309F4ECC080
:101140008C3209F44CC08B3309F4C6C08F3309F4D8
:10115000B9C020914943211174C0009144431091BA
:1011600045432091464330914743B901A801440FBC
:10117000551F661F771F440F551F661F771F400FAF
:10118000511F621F731F440F551F661F771F480FA3
:10119000511D611D711D409344435093454360931D
:1011A000464370934743109242437CC00E94083BE1
:1011B000EC0180934B4390934C43892B09F47DC001
:1011C000A9CF81E08093424378C02091434321110D
:1011D000C0CF8D3009F4B6C091116FC063C02091AB
:1011E0004943222309F492C0422F4150550BBA01C2
:1011F000E091484335E1369FA001379F500D1124FF
:101200004C0F5D1FE40FF52FF11D14822F5F20930B
:101210004943109248438B3309F467C08F33E1F69A
:1012200082E090E08883998380914A43833030F054
:1012300080914443909145438A839B83109243431A
:1012400060C09091484331E0390F309348432150BA
:10125000330B65E1629FA001639F500D1124C40F01
:10126000D51FC90FD11D8C839ECF10924A4383E0B6
:1012700090E004C010924A4381E090E08883998313
:1012800010924843109244431092454310924643B3
:101290001092474381E0809343431C82198E1EA61F
:1012A0001092494380914A438F5F80934A4382332F
:1012B00020F01092434310924A43DF91CF911F9147
:1012C0000F9108952091494321118ECF81E08093A1
:1012D000494310924843A4CF20914943211184CF20
:1012E00081E0809349431092484380914A4384307F
:1012F00030F080914443909145438A839B831092C0
:10130000434310924B4310924C43CCCF81E08093E7
:1013100049431092484360CF8D3009F05DCF1A8267
:101320001B821092484310924443109245431092FE
:101330004643109247431092494310924B431092F8
:101340004C43B7CF1A821B8282E380934A431092A8
:1013500048431092444310924543109246431092E2
:1013600047431092494310924B4310924C43A5CFF0
:101370001F920F920FB60F9211240BB60F922F935C
:101380003F934F935F936F937F938F939F93AF930D
:10139000BF93EF93FF930E94084B209154403091EC
:1013A0005540232B99F0FF91EF91BF91AF919F9101
:1013B0008F917F916F915F914F913F912F910F90FE
:1013C0000BBE0F900FBE0F901F9018950E947E08C5
:1013D000EACF1F920F920FB60F9211240BB60F9205
:1013E0002F933F934F935F936F937F938F939F932D
:1013F000AF93BF93EF93FF930E94944B209154407F
:10140000309155402430310599F0FF91EF91BF9113
:10141000AF919F918F917F916F915F914F913F918C
:101420002F910F900BBE0F900FBE0F901F9018952D
:101430000E947E08EACF1F920F920FB60F921124DE
:101440000BB60F922F933F934F935F936F937F93BE
:101450008F939F93AF93BF93EF93FF930E94504B53
:1014600020915440309155402130310599F0FF9141
:10147000EF91BF91AF919F918F917F916F915F910C
:101480004F913F912F910F900BBE0F900FBE0F9079
:101490001F9018950E947E08EACF1F920F920FB6F8
:1014A0000F9211240BB60F922F933F934F935F939C
:1014B0006F937F938F939F93AF93BF93EF93FF931C
:1014C00080915B4090915C400197D1F080915440B5
:1014D00090915540019709F441C0FF91EF91BF9160
:1014E000AF919F918F917F916F915F914F913F91BC
:1014F0002F910F900BBE0F900FBE0F901F9018955D
:101500008091404390914143892B91F0E091404379
:10151000F091414380913F43DF01A80FB11D9C91A1
:10152000992369F08F5F80933F4390932208CECF39
:101530000E94763F8093404390934143E7CF1092BF
:101540003F4310820E94763F8093404390934143F3
:10155000892B09F0BBCF0E94BC3FB8CF80913D439F
:1015600090913E43892B91F0E0913D43F0913E43B1
:1015700080913C43DF01A80FB11D9C91992369F034
:101580008F5F80933C4390932208A7CF0E94C43A78
:1015900080933D4390933E43E7CF10923C431082AB
:1015A0000E94C43A80933D4390933E43892B09F0B7
:1015B00094CF0E949E3B91CF1F920F920FB60F9235
:1015C00011240BB60F920F931F932F933F934F93BA
:1015D0005F936F937F938F939F93AF93BF93EF939B
:1015E000FF931A9917C08FEF83B9FF91EF91BF91C5
:1015F000AF919F918F917F916F915F914F913F91AB
:101600002F911F910F910F900BBE0F900FBE0F9057
:101610001F9018950E9462058091C5439091C64322
:10162000A091C743B091C843BB230CF447C080913D
:10163000C5439091C643A091C743B091C8431816C3
:1016400019061A061B069CF48091C5439091C64367
:10165000A091C743B091C8430197A109B1098093F4
:10166000C5439093C643A093C743B093C84381E05A
:101670008093214480912444882309F46EC0809192
:10168000184090911940039709F03FC08091C543DD
:101690009091C643A091C743B091C8438B3F9F4FE1
:1016A000AF4FBF4FFCF0109223441092244482E0CD
:1016B00090E0809316409093174095CF8091C5435A
:1016C0009091C643A091C743B091C8430196A11D14
:1016D000B11D8093C5439093C643A093C743B09375
:1016E000C843C5CF90E080E00E94300500912544BA
:1016F00010912644209127443091284460177107A7
:101700008207930708F46FCFCECF90E080E00E946D
:1017100030050091254410912644209127443091B2
:101720002844601771078207930708F45CCF109272
:1017300023441092244482E090E0809316409093DA
:1017400017401092C5431092C6431092C74310929F
:10175000C84381E08093324446CF0E94B00B43CF10
:101760000F931F9380913A4490913B44892B49F009
:1017700080913A4490913B44019780933A449093EE
:101780003B4480911E448823A1F08091184490919D
:101790001944A0911A44B0911B44892B8A2B8B2B9E
:1017A00041F080911F44811104C08091CD43882372
:1017B000D9F080911C44882309F466C080911E44AE
:1017C000882309F454C08091C9439091CA43892B5E
:1017D00009F45AC08091C9439091CA4301978093FC
:1017E000C9439093CA4350C090E080E00E94300506
:1017F000009118441091194420911A4430911B44CF
:101800006017710782079307A0F28CEF90E0809336
:10181000BF439093C0431092C5431092C6431092A9
:10182000C7431092C84380E00E940E4910921C44A6
:1018300010921E4481E080931F4482E08093CC4349
:1018400085E090E080931840909319408091CF43B9
:101850009091D04382FF06C010921F4481E0809394
:101860002344A7CF8FE394E40E94BF3AA2CF809194
:10187000144490911544A0911644B09117448130BE
:101880009646AE4EBF4580F48091CC438823E1F16B
:101890008091CC4381508093CC438091CC4388236A
:1018A00049F11F910F91089590E080E00E9430056A
:1018B000009114441091154420911644309117441E
:1018C0006017710782079307F8F281E00E94B5481C
:1018D0001092C5431092C6431092C7431092C8435A
:1018E00081E080931E44809332448FE394E40E940D
:1018F000BF3ACACF81E00E94E93480E00E94EF3411
:1019000088E780930B40CDCF8091CD43811108C0F3
:1019100080911F44811115C080912044811111C014
:1019200080910B40882369F080910B408150809317
:101930000B4080910B40811104C080915644882354
:1019400049F080910C40882309F4ABCF81E080936B
:10195000CB43A7CF1092CE4381E00E94EF3480E0CA
:101960000E94E9341092CD4310920C4080911840AF
:1019700090911940892B29F381E080932344E1CF92
:101980001F920F920FB60F9211248F939F93799B02
:1019900010C080912444882331F010922344109287
:1019A00024441092204483E090E08093164090936A
:1019B00017408FEF8FB99F918F910F900FBE0F90AF
:1019C0001F9018951F920F920FB60F9211240BB60D
:1019D0000F92CF92DF92EF92FF921F932F933F933C
:1019E0004F935F936F937F938F939F93AF93BF9327
:1019F000EF93FF93CF93DF9300D000D0CDB7DEB746
:101A00008091060B80FF8DC480915744909158447B
:101A1000892B49F0809157449091584401978093C5
:101A200057449093584420913D402F5F20933D4070
:101A30008BEA289F812D112486958695982F990FE2
:101A4000890F880F281709F464C080911E44909173
:101A50006444981741F080911E44809364448091BF
:101A60001E44811131C180911C44882321F0809152
:101A70001E4481113FC180915644811105C080915F
:101A80003C40882309F47DC280E494E40E94A327AB
:101A9000182F1C820E94D33C029709F07EC31111BB
:101AA0008EC31092404080915E4490915F440097B5
:101AB00009F4F6C3019780935E4490935F44892BA9
:101AC00009F05FC222E030E04FE350E4BE016C5FFA
:101AD0007F4F90E080E00E942D3E8093654480918E
:101AE0003F40811198C380912040909121400197FF
:101AF00009F4D1C3609165448FE394E40E94EC370C
:101B00008091094090910A4080935E4490935F4495
:101B100038C20E949A26182F0E946F260E949A2689
:101B2000912F90788078981709F472C011230CF4E3
:101B30004BC08FE394E40E94BF37882309F459C057
:101B4000109233441092344481E08093624481E0E7
:101B500080933E408091604490916144009709F4E5
:101B600085C001978093604490936144892BC1F4B0
:101B70008091374490913844892B71F0809137449B
:101B800090913844039740F48091374490913844C1
:101B900080933544909336441092374410923844E1
:101BA0000E949D2681FF7FC08091C1439091C243D6
:101BB000019709F44ACF81E090E08093C14390936C
:101BC000C2438093064041CF8FE394E40E94BF3725
:101BD000882361F080913744909138440196809336
:101BE00037449093384410926244B4CF10923E40F0
:101BF000B1CF8FE394E40E94BF3A44E050E060E844
:101C000075E280E090E00E94D43F0E94C1209FCF07
:101C100011230CF49FCF8FE394E40E94BF378823F5
:101C200009F498CF80913944811194CF80913E403E
:101C3000882309F48FCF80913344909134440196E6
:101C40008093334490933444883C910508F482CFC8
:101C500081E08093394410923344109234441092BE
:101C600037441092384410923E4074CF80913744EC
:101C700090913844019761F08091374490913844B5
:101C8000039708F48DCF109237441092384488CFD0
:101C900080916244882381F382E390E080936044E2
:101CA000909361447DCF8091C1439091C24302974C
:101CB00009F4CBCE82E090E08093C1439093C2437D
:101CC00081E080930640C1CE80910E400E946D1E3F
:101CD000809307409093084081E0898321E030E0C1
:101CE00050E040E0BE016F5F7F4F81ED93E40E94C2
:101CF0002D3EB9CE8091C5439091C643A091C74374
:101D0000B091C843181619061A061B060CF05DC0E0
:101D100081E08093594410925A4410925B44809120
:101D20002244811126C08091124090911340892B4A
:101D300099F080911044909111444091C543509185
:101D4000C6436091C7437091C843B0E0A0E08417D8
:101D50009507A607B7076CF08091C9439091CA43D5
:101D6000892B39F48091104490911144892B09F00A
:101D700088C080915E4490915F44009709F4EAC066
:101D8000019780935E4490935F44892B09F0EAC0E9
:101D900021E030E0AE014D5F5F4FBE016C5F7F4FD1
:101DA00090E080E00E942D3E809365448C818111FB
:101DB00003C08B8181118BC08091074090910840B6
:101DC00080935E4490935F44CDC080912244811102
:101DD0009FCF8091124090911340892B69F480919C
:101DE000C5439091C643A091C743B091C843892B86
:101DF0008A2B8B2B09F08CCF8091C5439091C643E1
:101E0000A091C743B091C843BB230CF4C6C08091D6
:101E1000C5439091C643A091C743B091C843892B55
:101E20008A2B8B2B09F0ADC080913244882309F4B2
:101E3000BAC0109232448091124490911344892B7D
:101E400009F4AEC08091124490911344919581950C
:101E50009109092E000CAA0BBB0B8093C5439093EC
:101E6000C643A093C743B093C84381E080935B44CB
:101E700080935A441092594480915A44811181C0F0
:101E80009BC08FEE90E08093BF439093C0438091BE
:101E90000D400E946D1E80930740909308401C8265
:101EA00021E030E050E040E0BE016C5F7F4F8BEFFF
:101EB00093E40E942D3E81E080932244809114405F
:101EC000909115408093C9439093CA4352CF8DEFB0
:101ED00090E08093BF439093C04380910E400E9456
:101EE0006D1E809307409093084081E08C8321E031
:101EF00030E050E040E0BE016C5F7F4F81ED93E445
:101F00000E942D3E80912244882341F0209112406E
:101F10003091134081E0232B09F480E080936344E7
:101F2000109222448091124090911340892B09F025
:101F300043CF8091104090911140092E000CAA0BC4
:101F4000BB0B8093C5439093C643A093C743B09304
:101F5000C84332CF809107409091084080935E44FF
:101F600090935F4480916344811110926544809105
:101F700065440E940E49609165448FE394E40E9499
:101F8000EC3750915C4451110AC28FEF80935D444D
:101F900090E080E04FEF61E0A1C110925A44F1CF90
:101FA00010925A4467CF80915B44882309F464CF30
:101FB00010925B441092594481E080935A4480917E
:101FC0005944882309F4B2C01092594410926544D0
:101FD00080E00E940E498091124090911340892B1D
:101FE00089F48091104090911140092E000CAA0BA9
:101FF000BB0B8093C5439093C643A093C743B09354
:10200000C843BFCF80911240909113409195819524
:102010009109092E000CAA0BBB0B8093C54390932A
:10202000C643A093C743B093C84390E080E00E94AA
:1020300030056B017C018091184490911944A09166
:102040001A44B0911B4440E050E0BA01C816D906CA
:10205000EA06FB0608F455C08091124090911340A7
:102060002091104030911140820F931F0F96092E3E
:10207000000CAA0BBB0B84179507A607B707BCF586
:10208000809112409091134040978CF180910B40C9
:1020900081112DC020911240309113402A503109F6
:1020A000C901032E000CAA0BBB0B8C0D9D1DAE1D90
:1020B000BF1D8093254490932644A0932744B0935A
:1020C000284483E090E0809318409093194081E089
:1020D000809323448091144090911540821B930B70
:1020E00012F490E080E08093C9439093CA43109229
:1020F00063441092224460E08FE394E40E94EC3742
:1021000040CF609118447091194480911A44909185
:102110001B44A70196010E94974BAB01BC018EEFB7
:1021200090E08093BF439093C04396CF809110403E
:1021300090911140092E000CAA0BBB0B8093C54354
:102140009093C643A093C743B093C843109263448F
:102150001092224460E08FE394E40E94EC37809177
:102160000E400E946D1E809307409093084081E0CE
:102170008C8321E030E050E040E0BE016C5F7F4F97
:1021800081ED93E40E942D3E80910740909108409C
:1021900080935E4490935F44F4CE80E494E40E9484
:1021A0009B2781E080933F4022E030E050E040E018
:1021B000BE016C5F7F4F8EE890E40E942D3E8091BF
:1021C0003F40882309F46DCC809140408111D9CEE5
:1021D00080916544811111C060E080E494E40E9424
:1021E000B3278091094090910A4080935E44909378
:1021F0005F4481E080934040C4CE1092654480E00B
:102200000E940E4960E08FE394E40E94EC3780E086
:102210000E94B548E1CF80E494E40E94A327811195
:1022200062CC8091094090910A4089839A83809181
:102230000E400E946D1E29813A812817390710F43B
:1022400089819A818093094090930A4080E494E4C4
:102250000E941228E6E6F4E48083118222E030E056
:1022600050E040E0BE016C5F7F4FCF010E942D3EE9
:1022700022E030E04FE350E4BE016C5F7F4F90E01E
:1022800080E00E942D3E8093654461E080E494E408
:102290000E94B32728CC809165440E940E492ACC25
:1022A0008091204090912140019779F060916544A0
:1022B0008FE394E40E94EC378091094090910A40AA
:1022C00080935E4490935F445CCE809165440E940D
:1022D0000E49ECCF01968330910509F1FC01DC0138
:1022E000AA0FBB1FA65EBF4B2D913C91232B61F023
:1022F000DC01AA0FBB1FA65EBF4B2D913C9111972D
:10230000215031092D933C93EE0FFF1FE65EFF4BEA
:1023100020813181232BF1F6482F562FDBCF51112D
:1023200020C083E08093060B2496CDBFDEBFDF91F3
:10233000CF91FF91EF91BF91AF919F918F917F913D
:102340006F915F914F913F912F911F91FF90EF906F
:10235000DF90CF900F900BBE0F900FBE0F901F908D
:10236000189540935D444423E4F2842F880F990B21
:10237000FC01E156FD4B20813181FC01E65EFF4B03
:102380002083318387569D4BDC018D919C910E9467
:102390004E250E94A62581E080935C44C2CF0E9416
:1023A000B225882309F4BDCF0E94B6259C012B508D
:1023B00031092F3E3F40D0F48093684490936944A4
:1023C00020915D44022E000C330BF901EE0FFF1F2C
:1023D000E45DFB4B40815181275D3B4B41E0D901DE
:1023E0004C938083918310925C449BCFE0915D4439
:1023F000EE0FFF0BE45DFB4B80819181F4CF1F92C8
:102400000F920FB60F9211248F939F935F9909C07B
:102410008FEF8BB99F918F910F900FBE0F901F90F0
:10242000189580912444882399F3109223441092A4
:10243000244484E090E080931640909317401092DB
:102440002044E6CF80E00E94B5480F982C9808956C
:1024500080E00E94B5482C9A0F9A0895811102C01D
:1024600009980895099A089582B186958170089512
:10247000CF93DF93CDB7DEB7E897CDBFDEBF0E9425
:10248000600741E070E060E08FE394E40E94603810
:102490000E94281281E00E942E128AE494E40E9495
:1024A00059328AE494E40E94D32F81E00E94EF34F1
:1024B00081E00E94E93460E070E0CB010E94624755
:1024C00068EE73E080E090E00E946247882321F08C
:1024D0000E94F5348823A1F30E94F5348823C1F1CA
:1024E00080E00E94E9340E94F849892B69F00E943B
:1024F0004E49811109C08091CF439091D0438260B1
:102500008093CF439093D04360E070E0CB010E9472
:10251000624768EE73E080E090E00E9462478111BC
:10252000F8CF0E9487208C0160E070E0CB010E9410
:10253000624768E57BE180E090E00E946247882383
:10254000D9F00C3F1105D9F40E9487208C01F1CFFE
:1025500080E00E94E93481E00E94EF341092CC4385
:1025600010920B408091CF439091D0438460809330
:10257000CF439093D043B7CF0C3F110579F0CE01F4
:1025800001960E94C72829813A81232B11F40E94C9
:10259000FF010E942F2480931D4409C08091CF43E6
:1025A0009091D04381608093CF439093D04383E058
:1025B0008093CC430E94CD1D8093C343C12CD12C6A
:1025C000760109E513E40F2EFAE04F2E512CF02D81
:1025D0000F2EF7EA6F2EF0E47F2EF02D0F2EFFEA7C
:1025E000AF2EF0E4BF2EF02D0F2EF5E02F2E312C64
:1025F000F02D9CC282E090E00E940E21ADC20E94AC
:10260000F720AAC280E494E40E94A327811104C0A9
:1026100081E080933C40B8C280E494E40E94BC27EF
:102620008111B2C282E090E08093204090932140DB
:102630008091CF439091D043892B09F097C080912E
:102640003C44882309F4BEC080915744909158447B
:10265000892B09F099C290E080E00E9430056DABB3
:102660007EAB8FAB98AF0E941023029709F47BC01A
:102670008091144490911544A0911644B091174450
:102680002DA93EA94FA958AD281739074A075B075E
:1026900008F069C080910B408CAB8CA98D3308F495
:1026A0006CC08CA980930B4081E00E944124982E3D
:1026B000892E609114447091154480911644909134
:1026C000174422E330E0AE014F5F5F4F0E94C42AFF
:1026D0008F929F929F938F9340E950E45F934F9323
:1026E0001F930F930E94775042E76EE2C8010E9449
:1026F000A52440E26DE2C8010E94A52442E76AE3F6
:10270000C8010E94A524F80101900020E9F7CF013B
:102710008A559344CDBFDEBF8035910528F4E1EDA5
:10272000F3E4808181112BC0F80101900020E9F7CA
:10273000EA55F344E535F10520F48091FB4381111E
:1027400025C08FE00E946D1E8093094090930A403F
:10275000B8018FE394E40E94013881E090E0809317
:1027600020409093214010923C440EC269E070E0FA
:102770008FE394E40E947D3A07C28CE393CF44E157
:1027800050E0BF01C8010E943B50CECFE75AFC4B3E
:1027900020E23DE32083318340E250E042835383D3
:1027A00044E150E06BEF73E4C8010E943B50F80134
:1027B00001900020E9F7319780E29EE780839183C2
:1027C0001282BFCF80911D4481110BC080911C44A7
:1027D0008823A9F061E070E08FE394E40E947D3AE1
:1027E000D3C188E00E946D1E8093094090930A40F7
:1027F00063EA70E48FE394E40E940138C5C163E0AA
:1028000070E08FE394E40E947D3ABEC10E94BB2534
:102810004C0189539F4F8D35914028F040923A44A6
:1028200050923B44B8C10E943412882341F0FFE12A
:102830008F1691049CF780E00E942E12EFCF23E2C6
:10284000821691045CF381E00E942E12E7CF0E9471
:10285000F720AEC11092C34319821A82CE010196AD
:102860000E94B11E8093BD439093BE4380910B4064
:10287000882309F4A7C180910B408BAB8BA98A30C8
:1028800020F08BA980930B409DC1C201FBCF109219
:10289000C4430E94F7209AC11092CB4390E080E09D
:1028A0000E9430059F938F937F936F937F926F92D7
:1028B0001F930F930E947750A8016BEA70E483E0A6
:1028C00090E00E948A3CCDBFDEBFC12CD12CE12C10
:1028D000F12C95C18091BD439091BE439F938F93FE
:1028E000BF92AF921F930F930E947750A80162EBA3
:1028F00070E483E090E00E948A3C1092BD43109205
:10290000BE430F900F900F900F900F900F907EC1CD
:102910008091BF439091C0439F938F93BF92AF929A
:102920001F930F930E947750A80165EB70E483E03A
:1029300090E00E948A3C1092BF431092C0430F90D7
:102940000F900F900F900F900F9067C110921F443F
:1029500081E0809320448091BF439091C0439F9336
:102960008F93BF92AF921F930F930E94775048EBC3
:1029700050E46AEB70E483E090E00E948A3C20928D
:102980001840309219400F900F900F900F900F90B9
:102990000F90809106408823B1F0109206408091FC
:1029A000C1439091C243019709F484C08091C1430F
:1029B0009091C243029709F487C08FE394E40E9488
:1029C000BF3A0E94C12080912344882309F4AEC0FD
:1029D0008FE394E40E94D1370E94F63B0E94EA49BB
:1029E00081E00E94EF3480E00E94E9340E942212CC
:1029F00080E00E942E120E94BC281092204482E0A7
:102A000090E00E942C4781E080932444109216406D
:102A10001092174080912344882399F0E0E5F0E07C
:102A20008081897F82608083F89480818160808347
:102A30007894889580818E7F808380912344811152
:102A4000EFCF109224440E9460070E9428120E9437
:102A5000F8498091164090911740049709F455C0A9
:102A60008091164090911740039709F44EC08091D1
:102A7000164090911740019709F447C08091164085
:102A800090911740029709F047C081E00E94B54835
:102A900080911C44811140C00E94CD1D8093C3438E
:102AA0008091C343811138C00E94163C82E080931C
:102AB000CC4332C081E00E94EB4887EF90E08093E6
:102AC000BD439093BE4379CF80E00E94EB488FE3F3
:102AD00094E40E94BF3A0E94CD1D809118409091CD
:102AE0001940019709F069CF8091164090911740E5
:102AF000019709F462CF81E080933C4488EE93E033
:102B0000809357449093584458CF0E94C1200E940C
:102B1000163C82E08093CC430E942F2480931D4476
:102B20008DEE90E08093BF439093C0430E942216A5
:102B30008091354490913644892B91F080913544B1
:102B400090913644019709F455CD80913544909188
:102B50003644029709F453CD10923544109236440E
:102B60008091334490913444883E934008F44ACD98
:102B700068E070E08FE394E40E947D3A67E070E0E3
:102B80008FE394E40E947D3A80913A4490913B44D3
:102B9000892B09F43BCE80913944882379F0109237
:102BA000394480911C44811152CE81E080931F44AE
:102BB00068E070E08FE394E40E949C3A8091C34304
:102BC000811148CE8091C443811161CE8091CB4365
:102BD0008823A9F0C114D104E104F10451F090E07C
:102BE00080E00E9430056C157D058E059F0509F07B
:102BF00053CE90E080E00E9430056B017C01809113
:102C0000BD439091BE43892B09F064CE8091BF43B0
:102C10009091C043892B09F07BCE80911F4488237B
:102C200009F4B7CE8091CE43811190CE80910B40B4
:102C30008111AFCE8091CC438111ABCE81E08093E6
:102C4000CC43A7CE0F931F93CF93DF93CDB7DEB7BF
:102C5000E497CDBFDEBF81E089830E94533B8C8720
:102C60009D8721E08C859D85892B09F420E0222316
:102C700009F48AC78C859D85FC01828193818E87AA
:102C80009F878E859F85813DFEE19F0709F4A4C63D
:102C9000823D2EE19207E0F58438E3E09E0709F4D7
:102CA000FDC28538F3E09F07D0F4853123E0920719
:102CB00009F428C28631E3E09E0730F4843591059B
:102CC00009F47DC50C94981D8E31F3E09F0709F43B
:102CD00038C48136934009F455C60C94981D863A41
:102CE000ECE19E0709F4F6C6873AFCE19F0730F451
:102CF0008F3A934009F445C00C94981D8831EDE15A
:102D00009E0709F41BC782389E4109F40CC110C705
:102D10008A3923E2920709F405C18B39E3E29E0761
:102D2000C0F48E36F1E29F0709F408C78F3621E21E
:102D3000920728F48735904209F448C0F9C68D3AC5
:102D4000F2E29F0709F45EC1813C924209F4D5C1C9
:102D5000EFC6803DE3E29E0709F462C4813DF3E2E1
:102D60009F0728F48F3C934209F4BCC6E1C6873F15
:102D7000E3E29E0709F426C38C39944209F4CFC6D6
:102D8000D7C68C859D85FC018481882309F4D8C62B
:102D90008C859D8504960E94C84F21E0892B09F4FB
:102DA00020E02BA70E94F7200E94F63B10920B40D8
:102DB00010921840109219409BA581E08927882322
:102DC00009F4BEC680E00E94E934BAC610921C44E1
:102DD00081E0809356448C859D85FC018481882305
:102DE00009F4B0C68C859D8504968CA39DA38CA107
:102DF0009DA10E9432508EA39FA38091564488A724
:102E00008EA19FA10297B9F48CA19DA1FC018081A4
:102E10008C3589F48CA19DA10196FC0180818234BE
:102E200051F41092564480E494E40E94F02788A55F
:102E30008093564487C68EA19FA10297ACF11A8257
:102E40001B821092564480E494E40E94BF27982F7E
:102E500081E08927882369F02A813B818EA19FA187
:102E60002817390734F48A819B81459714F481E04F
:102E700001C080E08823A1F08A819B819C012F5FA3
:102E80003F4F2A833B832C853D85820F931F0496F9
:102E9000FC018081682F80E494E40E94C227D3CF94
:102EA00088A5809356444EC68C859D85FC018481FF
:102EB00089A789A58B3571F481E00E94B54841E06E
:102EC00067E070E08FE394E40E94603881E00E9444
:102ED000C44838C689A58D3571F480E00E94C44885
:102EE00080E00E94B54841E061E070E08FE394E447
:102EF0000E94603827C689A58E3549F40E94F720C4
:102F000010920B4010921840109219401BC610925C
:102F1000564469A580E494E40E94C22788A5809362
:102F2000564410C6FFCF8C859D85FC0184818AA7FD
:102F300081E080930C408AA58A3521F488E780934C
:102F40000B4002C68AA58033D9F581E08093CE4339
:102F500080E090E00E943005DC01CB012B2F2F9305
:102F60002A2F2F93292F2F938F9387EA90E4892F6D
:102F70008F9387EA90E48F9389E593E4892F8F9369
:102F800089E593E48F930E9477508DB79EB708969A
:102F9000CDBFDEBF49E553E46BEA70E483E090E027
:102FA0000E948A3C80912044882309F4CDC548EBD7
:102FB00050E46AEB70E483E090E00E948A3CC4C570
:102FC0008AA5823371F481E08093CC4390911C44B4
:102FD00081E08927882309F4B7C581E08093C34342
:102FE000B3C58AA5833309F0AFC51092CC4381E005
:102FF00080930B401092204410920C4081E080930B
:10300000CD43A2C58C859D85FC018481882309F46C
:103010009DC58C859D85FC0184818D3481F48C85D2
:103020009D85FC01818D882351F08C859D85499675
:103030000E94C84F80936B4490936C4409C08C8568
:103040009D8504960E94C84F80936B4490936C4476
:103050000E9449499C0180916B4490916C4441E0ED
:103060002817390709F440E04423E9F160E070E0F3
:103070008BE694E40E9451498AA39BA38AA19BA159
:10308000892B39F08AA19BA18093BD439093BE43C5
:1030900005C080916A448F5F80936A4480916B443D
:1030A00090916C44292F2F938F938EEB90E4892F6E
:1030B0008F938EEB90E48F9389E593E4892F8F9320
:1030C00089E593E48F930E9477500F900F900F90B3
:1030D0000F900F900F9049E553E463EC70E483E0A8
:1030E00090E00E948A3C80913D4490913E448064EF
:1030F00080933D4490933E4429C58AE494E40E9421
:10310000F52E35C58C859D85FC0184818CA78CA509
:10311000813321F08CA5823309F0ABC08091C1438B
:103120009091C24321E0029709F420E0222331F07C
:1031300087EF90E08093BD439093BE438CA581338D
:1031400009F055C08091C1439091C243029721F08C
:1031500080916D40882311F081E001C080E08823D8
:1031600009F49AC010921C4481E00E94B54881E0A5
:1031700090E0A0E0B0E08093144490931544A093B5
:103180001644B09317448FEF9FEFDC0180931844EF
:1031900090931944A0931A44B0931B448FE097E294
:1031A000809310409093114010921240109213405F
:1031B0008FE097E2A0E0B0E08093C5439093C643D0
:1031C000A093C743B093C8438FEF9FEF8093C94349
:1031D0009093CA4381E080931E4481E080931C4415
:1031E0008DEF90E08093BF439093C04355C08CA572
:1031F000823309F051C00E942F2480931D44809196
:103200003D4490913E448F3F9F4039F08DEC90E0DB
:103210008093BD439093BE433FC080916A4488230E
:1032200051F080911C44882311F00E94F7208AE419
:1032300094E40E94F52E90911C4481E08927882314
:1032400071F01FA618AACE018F960E94B11E80931E
:10325000BD439093BE4382E08093CC4303C08CE394
:1032600080930B4010926A4410923D4410923E4469
:1032700013C08CA5803309F06BC410926A4410927D
:103280003D4410923E448CEE90E08093BF43909377
:10329000C043109256445CC400005AC41C821D8274
:1032A0001E821F828C859D85FC018481833509F0F7
:1032B00041C08C859D85FC01818D882359F08C85CA
:1032C0009D8549960E94E64FDC01CB018C839D834E
:1032D000AE83BF838091144490911544A09116440D
:1032E000B091174461E02C813D814E815F812817A8
:1032F00039074A075B0709F460E0662389F08C818F
:103300009D81AE81BF818093144490931544A09316
:103310001644B093174480916A448F5F80936A4447
:1033200080913D4490913E44986080933D449093B9
:103330003E4410C48C859D85FC018481863409F04F
:1033400009C48C859D85FC01818D882359F08C856D
:103350009D8549960E94E64FDC01CB018C839D83BD
:10336000AE83BF838091184490911944A0911A4470
:10337000B0911B4461E02C813D814E815F81281713
:1033800039074A075B0709F460E0662389F08C81FE
:103390009D81AE81BF818093184490931944A0937E
:1033A0001A44B0931B4480916A448F5F80936A44AF
:1033B00080913D4490913E44816080933D44909340
:1033C0003E44C8C381E080930C408C859D85FC0100
:1033D000808191810197E9F48C859D85FC01848130
:1033E000882399F08C859D85049644E150E0BC01CA
:1033F00089E593E40E944B5060E070E089E593E436
:103400000E94FA290E94941EA7C381E08093CB43B7
:10341000A3C38C859D85FC0180819181029709F071
:103420009BC38C859D85FC0184818835D1F51C8AE0
:103430008C859D85FC01818D882351F08C859D852F
:1034400049960E94C84F8C8B8C890E946B2A84C33A
:103450000E94872A8C8B8C89082E000C990B292FAF
:103460002F938F9387EC90E4892F8F9387EC90E4D0
:103470008F9389E593E4892F8F9389E593E48F9364
:103480000E9477500F900F900F900F900F900F9019
:1034900049E553E46BEA70E483E090E00E948A3CE3
:1034A0005BC30E94941E80E090E00E943005DC0126
:1034B000CB01888B998BAA8BBB8B80916D449091AB
:1034C0006E44A0916F44B0917044288939894A892B
:1034D0005B89281739074A075B0709F43DC38B89C5
:1034E0008F938A898F9389898F9388898F9387EAAD
:1034F00090E4892F8F9387EA90E48F9389E593E492
:10350000892F8F9389E593E48F930E9477508DB72D
:103510009EB70896CDBFDEBF49E553E46BEA70E481
:1035200083E090E00E948A3C88899989AA89BB89B6
:1035300080936D4490936E44A0936F44B093704415
:103540000BC38C859D85FC0180819181019709F0D9
:103550003FC08C859D85FC018481882301F18C8589
:103560009D850496BC018BEF93E40E942950892B22
:1035700029F18C859D85049644E150E0BC018BEFD8
:1035800093E40E944B500E949723809310449093A1
:10359000114480916A448F5F80936A440FC0809188
:1035A000FB43882359F01092FB4310921044109271
:1035B000114480916A448F5F80936A4480913D44B6
:1035C00090913E44916080933D4490933E44C6C2A6
:1035D0008091FB43882309F4C1C28BEF93E4892FC8
:1035E0008F938BEF93E48F938CEC90E4892F8F93E0
:1035F0008CEC90E48F9389E593E4892F8F9389E590
:1036000093E48F930E9477500F900F900F900F903C
:103610000F900F9089E593E40E94333C19829EC27B
:1036200080910E408D8B8C859D85FC018481893431
:1036300009F060C08C859D85FC01818D882309F48B
:103640008FC28C859D8549960E94E64FDC01CB0197
:103650008C8F9D8FAE8FBF8F85E088A384E189A377
:1036600089A1882F90E0A0E0B0E02C8D3D8D4E8D9B
:103670005F8D82179307A407B50734F489A1882FBB
:1036800090E0A0E0B0E010C088A1282F30E040E03A
:1036900050E08C8D9D8DAE8DBF8D82179307A40752
:1036A000B50714F4DA01C9018D8B90910D4081E0CA
:1036B0002D89291709F480E0882391F08D89809362
:1036C0000D4080916A448F5F80936A448091FB43F0
:1036D000882331F00E9497238093104490931144E3
:1036E00080913D4490913E44926080933D449093FC
:1036F0003E4436C28C859D85FC018481803509F06D
:103700002FC28C859D85FC01818D882309F428C2F8
:103710008C859D8549960E94E64FDC01CB018E8BFE
:103720009F8BA88FB98F85E08A8F84E18B8F8B8DDB
:10373000882F90E0A0E0B0E02E893F89488D598D18
:1037400082179307A407B50734F48B8D882F90E078
:10375000A0E0B0E010C08A8D282F30E040E050E0BB
:103760008E899F89A88DB98D82179307A407B50705
:1037700014F4DA01C9018D8B90910E4081E02D89FE
:10378000291709F480E0882381F08D8980930E4009
:1037900080916A448F5F80936A4480910E400E94BA
:1037A0006D1E809307409093084080913D44909116
:1037B0003E44946080933D4490933E44D1C11DA605
:1037C0001EA68C859D85FC018481803391F58C85B6
:1037D0009D85FC01818D882309F4C4C18C859D855C
:1037E00049960E94E64FDC01CB018DA79EA78091F0
:1037F00012409091134041E02DA53EA528173907AE
:1038000009F440E0442359F08DA59EA58093124011
:103810009093134080916A448F5F80936A448091B3
:103820003D4490913E44846080933D4490933E4457
:1038300099C18C859D85FC018481813391F58C85AE
:103840009D85FC01818D882309F48CC18C859D8523
:1038500049960E94E64FDC01CB018DA79EA780917F
:1038600010409091114041E02DA53EA52817390741
:1038700009F440E0442359F08DA59EA580931040A3
:103880009093114080916A448F5F80936A44809145
:103890003D4490913E44886080933D4490933E44E3
:1038A00061C18C859D85FC018481893491F58C856D
:1038B0009D85FC01818D882309F454C18C859D85EB
:1038C00049960E94E64FDC01CB018DA79EA780910F
:1038D00014409091154041E02DA53EA528173907C9
:1038E00009F440E0442359F08DA59EA5809314402F
:1038F0009093154080916A448F5F80936A448091D1
:103900003D4490913E44806280933D4490933E4478
:1039100029C18C859D85FC018481843409F022C1F4
:103920008C859D85FC01818D882309F41BC18C85C4
:103930009D8549960E94E64FDC01CB018DA79EA78D
:10394000809112449091134441E02DA53EA5281783
:10395000390709F440E0442359F08DA59EA58093D2
:1039600012449093134480916A448F5F80936A4419
:1039700080913D4490913E44806180933D4490937A
:103980003E44F0C08C859D85FC018481882309F428
:10399000EBC08C859D850496BC0181ED93E40E946B
:1039A0002950892B79F08C859D85049644E150E05F
:1039B000BC0181ED93E40E944B5080916A448F5F7B
:1039C00080936A4480913D4490913E44826080930C
:1039D0003D4490933E44C8C0188619861A861B86BB
:1039E0008C859D85FC0184818823E9F18C859D85EA
:1039F00004960E94E64FDC01CB0189AB9AABABABDE
:103A0000BCAB0E94AC489B01AC0189A99AA9ABA9A7
:103A1000BCA961E0281739074A075B0709F460E091
:103A20006623B9F0CE01C19661E00E947348982FD9
:103A300081E08927882369F089A99AA9ABA9BCA943
:103A400088879987AA87BB8780916A448F5F809314
:103A50006A4480913D4490913E44806880933D4407
:103A600090933E4408C00E94AC48DC01CB0188879B
:103A70009987AA87BB8788859985AA85BB85892B65
:103A80008A2B8B2B09F472C08B858F938A858F9339
:103A900089858F9388858F9385ED90E4892F8F9307
:103AA00085ED90E48F9389E593E4892F8F9389E5E1
:103AB00093E48F930E9477508DB79EB70896CDBF41
:103AC000DEBF49E553E46AED70E483E090E00E94D4
:103AD0008A3C4CC080E00E9441246EED70E40E945C
:103AE000B33C45C00E94BB25092E000CAA0BBB0BA2
:103AF000BC01CD010E94B84CDC01CB0109E513E407
:103B000021E044E0BC01CD010E94854E10925E434D
:103B100063EE70E489E593E40E94B33C28C048EE6C
:103B200050E46EEE70E483E090E00E948A3C1FC097
:103B3000198282EF90E40E94333C19C0000017C044
:103B4000000015C0000013C0000011C000000FC02D
:103B500000000DC000000BC0000009C0000007C03D
:103B6000000005C0000003C0000001C00000898102
:103B7000882321F088EF90E40E94333C8C859D855A
:103B8000FC011282138269C80000E496CDBFDEBF3B
:103B9000DF91CF911F910F910895CF93DF93CDB710
:103BA000DEB72897CDBFDEBF80E090E00E943005F1
:103BB000DC01CB0189839A83AB83BC8320911844B9
:103BC0003091194440911A4450911B4489819A8143
:103BD000AB81BC81BC01CD010E94974BDC01CB01C4
:103BE0008D839E83AF83B887109223448D819E81FD
:103BF000AF81B885BB23B4F085E090E08093184096
:103C0000909319408FEF9FEFDC01809325449093B0
:103C10002644A0932744B093284482E08093CC4369
:103C200080E055C081E00E94B54820911444309155
:103C30001544409116445091174489819A81AB8173
:103C4000BC81BC01CD010E94974BDC01CB018D836F
:103C50009E83AF83B8878D819E81AF81B885883878
:103C60009F4FAF4FBF4FCCF01092184010921940A9
:103C70008091144490911544A0911644B09117443A
:103C80000A97A109B1098093254490932644A093F3
:103C90002744B093284481E01AC080911444909145
:103CA0001544A0911644B09117440A97A109B1098F
:103CB0008093254490932644A0932744B0932844AE
:103CC00081E090E0809318409093194081E028961D
:103CD000CDBFDEBFDF91CF91089585314CF4082E22
:103CE000000C990B853091052CF485E090E002C022
:103CF00084E190E0282F30E050E040E068ED7DE086
:103D000080E090E00E94344ECA01B9012AE030E020
:103D100040E050E00E94344ECA01B9010E94B84C04
:103D20000E94874CCB010895CF93DF9300D0CDB78D
:103D3000DEB710922144809121448823E1F3CE0123
:103D400001960E94C72829813A81232B39F0898165
:103D50009A810F900F90DF91CF9108950E94FF01FB
:103D6000F6CFCF93DF9300D000D0CDB7DEB78B83F3
:103D70009C838B819C810E94E61E89839A838B8120
:103D80009C81FC0180819181892B49F08B819C81F0
:103D9000FC01808191818093BF439093C0438981CE
:103DA0009A81892B39F089819A818093BD439093C0
:103DB000BE4304C00E94CD1D80931C4489819A811A
:103DC0002496CDBFDEBFDF91CF910895EF92FF9291
:103DD0000F931F93CF93DF93409114445091154458
:103DE0006091164470911744452B462B472B09F4DC
:103DF0006AC10091144410911544209116443091E9
:103E00001744409118445091194460911A4470919C
:103E10001B44041715072607370708F05DC12091DA
:103E2000104030911140232B09F459C120911240C8
:103E300030911340609110407091114040911244B4
:103E400050911344260F371F241735070CF44AC12D
:103E50002091D143222309F448C120910E402530FE
:103E600008F446C120910E40253108F044C1EC0110
:103E70008091FB43882399F080910D40882309F4B9
:103E80003DC18091144090911540892B09F439C1AE
:103E90000E949723809310449093114404C0109281
:103EA000104410921144109221448091214488239F
:103EB000E1F390E080E00E943005009118441091F9
:103EC000194420911A4430911B44061717072807FC
:103ED000390750F4209709F417C18AEF90E08883DE
:103EE000998390E080E0F1C0209114443091154412
:103EF00040911644509117440E94974B99230CF41B
:103F0000D8C0009110401091114020911240309182
:103F10001340020F131FE0901244F09013449801D5
:103F2000012E000C440B550B0E94344EE61AF70A82
:103F30001E141F04CCF5442755274E195F09052E82
:103F4000000C660B770B4093C5435093C6436093B8
:103F5000C7437093C843209721F02EEF30E02883A9
:103F6000398320911C44211110C080911040909100
:103F7000114040911044509111448E0D9F1D841B9F
:103F8000950B8093C9439093CA4380E00E940E49E9
:103F900081E080931E448FE394E40E94BF3A109224
:103FA000204490E080E091C0209110403091114079
:103FB000442755274E195F0942175307ACF1C80132
:103FC0008E0D9F1D919581959109092E000CAA0BCC
:103FD000BB0B8093C5439093C643A093C743B09354
:103FE000C843209721F08EEF90E0888399838091D9
:103FF0001C448111CACF8091104090911140409192
:10400000C5435091C6436091C7437091C843209106
:10401000104430911144841B950B821B930B8093A9
:10402000C9439093CA43B1CF809110409091114001
:104030008E0D9F1D092E000CAA0BBB0B8093C54350
:104040009093C643A093C743B093C843209721F0F1
:104050008DEF90E08883998380911C44811125C065
:1040600080911044909111444091C5435091C643B2
:104070006091C7437091C843B0E0A0E084179507F2
:10408000A607B70794F48091C5439091C643A091C9
:10409000C743B091C8432091104430911144821B12
:1040A000930B8093C9439093CA4381E00E94B54823
:1040B0006FCF209721F08FEF90E08883998380E085
:1040C0000E940E496CCF8CEC90E0DF91CF911F9154
:1040D0000F91FF90EF9008958DEC90E0F6CF8BEC70
:1040E00090E0F3CF8AEC90E0F0CF89EC90E0EDCF58
:1040F00088EC90E0EACF88EC90E0E7CF87EC90E0A6
:10410000E4CF87EC90E0E1CF90E080E0DECFCF938A
:1041100060E070E0CB010E946247C1E068EE73E0AE
:1041200080E090E00E946247882331F0CC2351F078
:104130000E94BD2AC82FF2CF8CEF90E0CC2311F063
:10414000CF91089560E070E0CB010E946247C1E02A
:1041500068EE73E080E090E00E946247882351F0AF
:10416000CC2329F081E00E944A2AC82FF1CF90E0A9
:1041700080E0E6CF90E080E0CC2311F38CEF90E07C
:10418000DFCFCF93DF931F92CDB7DEB78091C143CE
:104190009091C24321E0029709F020E029838091A9
:1041A000CF439091D04321E0892B09F020E02223D6
:1041B000C9F08981882339F088E090E080937144C8
:1041C0009093724406C082E090E080937144909393
:1041D00072448091714490917244BC018FE394E4E5
:1041E0000E947D3A89810F90DF91CF9108951092BE
:1041F0001C441092C5431092C6431092C7431092BC
:10420000C84310921E4480E00E940E4980E00E9444
:10421000B5488FE394E40E94BF3A0895CF93DF93AB
:10422000EC010E941023209791F4029749F063E07B
:1042300070E084E190E00E946B21DF91CF910895BE
:1042400070E060E084E190E00E946B21F6CF22975D
:1042500079F08230910551F18130910571F1049727
:1042600099F163E070E084E190E00E946B21E5CF7A
:104270008230910569F08130910519F0039702971A
:1042800070F461E070E084E190E00E946B21D5CF92
:1042900061E070E084E190E00E946B21CECF63E0AA
:1042A00070E084E190E00E946B21C7CF61E070E094
:1042B00084E190E00E946B21C0CF62E070E084E175
:1042C00090E00E946B21B9CF63E070E084E190E060
:1042D0000E946B21B2CFEF92FF920F931F93CF9367
:1042E000DF9300D0CDB7DEB78C017B01449749F155
:1042F00010921C4410921E4460E08FE394E40E94EC
:10430000EC370E94941E015011090331110508F089
:10431000DFC002571E4DF8010C94534EB321AC215F
:1043200002230923B8216822E921EE21F521FC218D
:1043300003221C22212228222F2236224F224F2202
:104340004F22E0918744F0918844EE0FFF1FEE5D0D
:10435000FF4B00811181CCCF8CE390E0809312441D
:10436000909313440BC0109212441092134406C051
:1043700080EF90E080931244909313448CE390E09C
:104380008093C9439093CA43809310409093114007
:1043900080EF90E08093124090931340E114F10479
:1043A00009F4ABC081E0E816F10409F4BAC0E2E018
:1043B000EE16F10409F400C18FEB93E40E94B11EE4
:1043C0000F900F90DF91CF911F910F91FF90EF9081
:1043D000089510921244109213441BC08CE090E098
:1043E000809312449093134414C088E190E080932A
:1043F0001244909313440DC084E290E080931244E1
:104400009093134406C080E390E08093124490930D
:10441000134488E592E08093C9439093CA438CE0AB
:1044200090E0809310409093114080E390E080935F
:10443000124090931340B2CF109212441092134442
:104440001BC08CE090E0809312449093134414C0FE
:1044500088E190E080931244909313440DC084E26D
:1044600090E0809312449093134406C080E390E060
:10447000809312449093134488E592E08093C9435B
:104480009093CA438CE090E0809310409093114049
:1044900080E390E080931240909313407FCF0E947E
:1044A000AC480E94ED49109212441092134488E5E2
:1044B00092E08093C9439093CA438CE390E0809349
:1044C000104090931140109212401092134066CF0A
:1044D000109212441092134488E592E08093C943ED
:1044E0009093CA438CE390E08093104090931140E6
:1044F000109212401092134051CF10921E4410920D
:104500001C441092554410921C4480E00E940E49B5
:1045100060E08FE394E40E94EC3780E00E94B548AD
:104520004FCF0E94941E8C0190E080E00E943005E5
:10453000012B89F5609314447093154480931644BD
:10454000909317444091144450911544609116443F
:10455000709117448091184490911944A0911A4485
:10456000B0911B4484179507A607B707A0F4809164
:10457000144490911544A0911644B091174480586A
:104580009E4AAE4FBF4F8093184490931944A09316
:104590001A44B0931B4419821A82CE0101960E94DC
:1045A000B11E22E02093CC43892B09F009CF8AE485
:1045B00094E40E94F52E04CF80910E400E946D1E5F
:1045C0008093074090930840809110409091114053
:1045D000092E000CAA0BBB0B8093C5439093C643D6
:1045E000A093C743B093C84381E080931E442DEF4E
:1045F00030E02093BF433093C043109255448093E2
:104600001C44DECE88E790E08093124490931344DC
:10461000B5CE84EB90E08093124490931344AECED9
:10462000CF92DF92EF92FF920F931F9390E080E082
:104630000E943005009118441091194420911A44A9
:1046400030911B44013016462E4E3F4508F454C0AD
:104650000091144410911544209116443091174450
:10466000013016462E4E3F4508F44FC0613026E615
:1046700072072EEE82072FE5920708F449C00091D9
:1046800018441091194420911A4430911B44C09051
:104690001444D0901544E0901644F0901744C0168E
:1046A000D106E206F306B8F50091184410911944BA
:1046B00020911A4430911B44061717072807390721
:1046C00068F10091144410911544209116443091E2
:1046D0001744061717072807390738F480911C4438
:1046E0008823F9F085E090E009C080915544882343
:1046F000D9F081E090E002C082E090E01F910F913C
:10470000FF90EF90DF90CF90089582E090E0F6CF99
:1047100082E090E0F3CF82E090E0F0CF82E090E0A2
:10472000EDCF83E090E0EACF84E090E0E7CF6091C6
:104730000D4070E08BEF93E40E943A3FBC0190E0A3
:1047400080E00E94B64C20E030E04AE754E40E944A
:104750000E4C0E94874CCB010895CF92DF92EF92CE
:10476000FF920F931F9390E080E00E94300561302C
:1047700026E672072EEE82072FE5920750F1009190
:10478000144410911544209116443091174401307F
:1047900016462E4E3F4530F10091144410911544B9
:1047A0002091164430911744061717072807390738
:1047B000D8F4C0901844D0901944E0901A44F09076
:1047C0001B4421E06C157D058E059F0518F020E047
:1047D00001C020E0822F1F910F91FF90EF90DF909A
:1047E000CF90089520E0F6CF20E0F4CF0F931F93F1
:1047F00090E080E00E943005613026E672072EEEE0
:1048000082072FE5920728F1009114441091154476
:10481000209116443091174460177107820793075F
:10482000E0F4009118441091194420911A443091F9
:104830001B4440911444509115446091164470916A
:10484000174481E0401751076207730718F080E0B2
:1048500001C080E01F910F91089580E0FBCF90E0B0
:1048600080E00E943005613076468E4E9F4510F400
:1048700080E008950E94F6238111FBCF0E94AD23B2
:104880000895CF92DF92EF92FF920F931F93CF93F1
:10489000C82F60912C4470912D4490E080E00E94DC
:1048A000B64C20E030E04CE253E40E946D4D2FE620
:1048B00032E143E05AE30E946D4D20E030E040E8F1
:1048C0005FE30E949D4B6B017C0120E030E0A90179
:1048D0000E94684D882364F120E030E044E353E413
:1048E000C701B6010E94094C181664F1C1110CC031
:1048F00001E410E420E044E0C701B6010E94854EC7
:1049000010924640C80116C020E030E040E251E479
:10491000C701B6010E940E4C01E410E421E045E01D
:104920000E94854E10924740C8010E94C02402C0D8
:1049300081E490E4CF911F910F91FF90EF90DF9071
:10494000CF90089581E490E4F5CFFF920F931F93E9
:10495000CF93DF93F42ED0E0C0E0062F10E0B80133
:104960000E941E50FC01009721F00196F0822196D2
:10497000F6CFCE01DF91CF911F910F91FF90089557
:10498000EF92FF921F93CF93DF93EC017E01199179
:10499000812F90E00E940D50892BC1F7112399F0CF
:1049A000E70109900020E9F72297EC16FD0650F484
:1049B000888190E00E940D50892B21F02197EC1600
:1049C000FD06B1F71982C701DF91CF911F91FF90CA
:1049D000EF9008958FE394E40E94A83664E670E0B7
:1049E00080E494E40E947D278AE494E40E94F92AFA
:1049F00008958AE494E40E94FA2A80E494E40E94F0
:104A000095278FE394E40E94A9360895E0E6F4E048
:104A10009289987F928B92899460928B9389987FE8
:104A2000938B93899460938B9489987F948B9489CA
:104A30009460948B9589987F958B95899460958BDC
:104A40009289977F928B9389977F938B9489977F95
:104A5000948B9589977F958B91E09093A0009AE035
:104A60009093020681110CC0E0E0F6E081E08083C3
:104A7000148682E090E08093734490937444089588
:104A8000E0E0F6E083E0808381E08487828781E054
:104A900090E080937344909374440895823091051C
:104AA00091F190F4009711F1019709F046C08091BF
:104AB000734490917444029719F080E00E94062597
:104AC00083E08093080608958330910549F10497A7
:104AD000A1F58091734490917444029719F080E09D
:104AE0000E94062582E4809308060895809173440D
:104AF00090917444019719F081E00E94062582E0AC
:104B000080930806089580917344909174440297AD
:104B100019F080E00E94062584E08093080608953D
:104B20008091734490917444029719F080E00E9440
:104B3000062585E0809308060895E0E0F6E01486F7
:104B400010821092734410927444089580917344BB
:104B500090917444892B29F0E0E0F6E0148681E01E
:104B60008287089580910D068170089580911006C6
:104B7000909111060895CF92DF92FF920F931F93A9
:104B8000CF93DF93E0E0F1E1C681D7810481158105
:104B90000F2EC12CF6E0DF2EF02DF601F08480E020
:104BA0000E94062582E4F60180870E94A6250E94C5
:104BB000B22581111AC08091484090914940A0913E
:104BC0004A40B0914B40AC01BD01415051096109CF
:104BD0007109409348405093494060934A40709314
:104BE0004B40892B8A2B8B2B11F780914840909159
:104BF0004940A0914A40B0914B40892B8A2B8B2B86
:104C000021F180911006909111069E01281B390B0D
:104C1000D8010E945C4EDC01CB01985FAF4FBF4FC3
:104C2000072E7CE0B595A795979587957A95D1F74E
:104C3000702D81519140F0920806DF91CF911F9124
:104C40000F91FF90DF90CF9008958FEE9EEFF3CFFE
:104C50001F920F920FB60F9211240BB60F922F9343
:104C60003F934F935F936F937F938F939F93AF93F4
:104C7000BF93EF93FF93609110067091110685E743
:104C800094E40E94B634811110920C06FF91EF91CA
:104C9000BF91AF919F918F917F916F915F914F9154
:104CA0003F912F910F900BBE0F900FBE0F901F9052
:104CB00018950F931F9300E010E42CEB36E440E0CE
:104CC00050E069E473E485E794E40E945F341F9147
:104CD0000F91089585E794E40E94AF340895E8E7C2
:104CE000F4E42181228330813183ABE7B4E411966F
:104CF0005C91119712965C9312976C9111966C933C
:104D000011979AB19C938EB18083409177449427F8
:104D10006427962354279523942790937744909162
:104D2000764489273927832329278223892780935B
:104D3000764408958091774408958091764408954B
:104D4000019A09980298E2E1F4E08081886080830A
:104D50008081887F82608083039A0B98059A0D98E2
:104D6000069A0E98079A0F98209A2898219A2998BF
:104D7000249A2C98259A2D984298E2E5F4E08081B7
:104D8000886080834398E3E5F4E0808188608083D5
:104D9000459A4D98469A4E984798E7E5F4E0808109
:104DA000886080838081887F82608083609861983A
:104DB000E1E7F4E08081886080838081887F816082
:104DC00080836798E7E7F4E08081877F8083E0E96C
:104DD000F4E0808188608083E1E9F4E0808188608C
:104DE0008083E2E9F4E0808188608083E3E9F4E095
:104DF000808188608083E0EBF4E08081886080833C
:104E0000E1EBF4E0808188608083E2EBF4E0808174
:104E100088608083E3EBF4E0808188608083E4EB4A
:104E2000F4E0808188608083E5EBF4E08081886035
:104E30008083E6EBF4E08081886080838AE0809361
:104E4000120489E0809371040895019A0998039AE5
:104E50000B98059A0D98069A0E98079A0F98209A23
:104E60002898219A2998249A2C98259A2D98459A21
:104E70004D98469A4E986798E7E7F4E08081877FDF
:104E80008083E0E9F4E0808188608083E1E9F4E0F8
:104E9000808188608083E2E9F4E08081886080839B
:104EA000E3E9F4E0808188608083E0EBF4E08081D6
:104EB00088608083E1EBF4E0808188608083E2EBAE
:104EC000F4E0808188608083E3EBF4E08081886097
:104ED0008083E4EBF4E0808188608083E5EBF4E09C
:104EE000808188608083E6EBF4E080818860808345
:104EF00008951092890080E008950F931F93CF9337
:104F0000DF93EC018B01CB010E94A34E8D839E8326
:104F10000F831887188219821A821B821C821986B5
:104F2000DF91CF911F910F910895FC0185819681AA
:104F30000E943F4F0895FC01828193818083918379
:104F4000148211860895FC01848181110AC081E0D8
:104F500040815181228133814217530719F080E04B
:104F6000089580E00895611103C0FC011186089541
:104F700021E0FC0121870895FC0181850895FC0151
:104F800084810895CF93DF93EC01862F90E00E94F7
:104F90001650ED81FE8128813981E20FF31F808355
:104FA0008C81882349F08A819B8101966F81788565
:104FB0000E94EA4D8A839B838881998101966F8143
:104FC00078850E94EA4D8883998321E04A815B813C
:104FD0004817590709F020E02C83DF91CF910895FD
:104FE000CF93DF93EC010E94A327811119C0288180
:104FF0003981ED81FE81E20FF31F8081211531059A
:1050000041F021503109288339831C82DF91CF91EF
:1050100008952F8138852150310928833983F5CFB0
:1050200080E0F4CFCF93DF93EC010E94A32720E030
:1050300081110FC08A819B81ED81FE81E80FF91FEC
:1050400020811C8201966F8178850E94EA4D8A83B7
:105050009B83822FDF91CF91089544E268ED88E62B
:1050600090E00E94713F80E00895789480E0089578
:1050700083E08093A2006AE070E080E090E00E940C
:1050800062478111F8CFE0E6F4E08689887F868B5D
:1050900086898460868B8689877F868B81EC809366
:1050A000A0060895282F2295220F220F207CE0EAE7
:1050B000F6E0228396958795969587958383089544
:1050C000E0E1F4E0808188608193E83184E0F807D2
:1050D000C9F7E0E3F4E0808188608193E83384E0FD
:1050E000F807C9F7E0E5F4E0808188608193E8354E
:1050F00084E0F807C9F7E0E7F4E0808188608193F5
:10510000E83784E0F807C9F7E0E9F4E080818860D7
:105110008193E83984E0F807C9F7E0EBF4E0808197
:1051200088608193E83B84E0F807C9F708950E94FE
:1051300060280E942D280E9434470E9435280E9432
:10514000A026469A4E98459A4D980E9428470E945C
:10515000382841E050E060E875E280E090E00E948D
:10516000B63B44E050E060E875E280E090E00E94E9
:10517000D43F0E94792708950E9460280E946148C8
:105180000E942527469A4E98459A4D9808957F92F9
:105190008F929F92AF92BF92CF92DF92EF92FF9247
:1051A0000F931F93CF93DF93CDB7DEB72797CDBF74
:1051B000DEBF5C0187E0FE013196DF011D928A951A
:1051C000E9F71AE027E0AE014F5F5F4F60E080ED46
:1051D0000E9496358730F9F01150A1F760E070E039
:1051E000CB012CEF30E0A114B10409F4FFC0D501CC
:1051F0002D933C932796CDBFDEBFDF91CF911F91BA
:105200000F91FF90EF90DF90CF90BF90AF909F9065
:105210008F907F9008952F81422F4F7050E04C590E
:105220005F4F22952F7030E04901880C991C880C43
:10523000991C820E931E880C991C840E951E640185
:10524000B4E9CB1AB8EFDB0A8E81982F9F70829554
:105250008F70082F000F000F080F000F090F4D81EE
:10526000842F8F70742E7694769476947694472D4E
:10527000440F440F470D440F742E780E023008F48B
:10528000ABC0F12CE12C11E0612FC6010E94F201AC
:10529000E80EF11C1F5F0113F7CF472D770C550B5C
:1052A000415051094E0D5F1D8981982F92959F7035
:1052B000C92ECC0CCC0CC90E9C2D990F8F70C82E0A
:1052C000C90E8A81282F22952F70922F990F990F3E
:1052D000920F990F8F70890F2B81322F307224FB20
:1052E000992790F9A92FAA0FAA0FA90F9A2F990F02
:1052F000A22FAF70A90F26FF72C03111A45F0C2C32
:10530000000CDD08ECE38E02C00CD11C11240D2C26
:10531000000CEE08FF080A2E000CBB0B20E13EE05B
:105320000E946B4EC60ED71EE81EF91EDA0120E859
:1053300031E541E050E00E947D4EC60ED71EE81ECA
:10534000F91ED401A654B10920E833E341EE51E03F
:105350000E947D4EC60ED71EE81EF91EC40185545C
:105360009109DC010AF440C0B595A795B595A795BC
:1053700020E831E541E050E00E947D4EC60ED71E88
:10538000E81EF91EC401019764E670E00E94FE4D1C
:10539000DB0120E83EEA4EEF5FEF0E947D4EC60E35
:1053A000D71EE81EF91EC401855D9E4F60E971E0BD
:1053B0000E94FE4DDB0120E831E541E050E00E9413
:1053C0007D4E6C0D7D1D8E1D9F1DA114B10409F431
:1053D00011CF30E020E00BCFF12CE12C5ECF332356
:1053E00009F48DCFAC5E8BCF1396BECF60E070E03A
:1053F000CB0100CF0F931F93CF93DF93CDB7DEB7D1
:105400002797CDBFDEBFFC0181E08C838189829527
:10541000807F92899053892B898386858295807FAE
:1054200097859053892B8A8383858295807F948585
:105430009053892B8B8380858295807F91859053B3
:10544000892B8D8385818295807F96819053892BCE
:105450008E8382818295807F93819053892B8F8365
:10546000062F000F000F000F061B1AE027E0AE0109
:105470004F5F5F4F602F80ED0E945235873011F0F3
:105480001150A1F72796CDBFDEBFDF91CF911F91BD
:105490000F9108951F93CF93DF931F92CDB7DEB77F
:1054A000811115C084E089831AE021E0AE014F5FCD
:1054B0005F4F6EE080ED0E945235813051F0115007
:1054C000A1F781E00F90DF91CF911F91089580E0C7
:1054D000EACF80E0F7CF1F93CF93DF931F92CDB732
:1054E000DEB789831AE021E0AE014F5F5F4F60E1D4
:1054F00080ED0E945235813041F01150A1F781E0DA
:105500000F90DF91CF911F91089580E0F9CF1F9305
:10551000CF93DF931F92CDB7DEB71AE021E0AE0143
:105520004F5F5F4F60E180ED0E949635813011F052
:105530001150A1F789810F90DF91CF911F910895AC
:105540001F93CF93DF931F92CDB7DEB714E621E010
:10555000AE014F5F5F4F60E180ED0E949635813074
:1055600011F01150A1F791E0813009F090E0892FFE
:105570000F90DF91CF911F9108950E9440350E94B6
:10558000A02A91E089270895EF92FF920F931F932D
:10559000CF93DF93CDB7DEB76097CDBFDEBF8A0173
:1055A0007901605873448D4698436D877E878F8755
:1055B000988BCE010D960E949B01FC019CE0DE01C0
:1055C000119601900D929A95E1F79E012F5F3F4F42
:1055D00045EA52E4B701C8010E943602C80160964C
:1055E000CDBFDEBFDF91CF911F910F91FF90EF9064
:1055F0000895089508959C01E0E0F0E1928191FD05
:10560000FDCF8DE993E184BF909300103C5EF901DA
:10561000608390E084BF9093001008959C01E0E0C7
:10562000F0E1928191FDFDCF8DE993E184BF9093EC
:1056300000103C5EF9016083718390E084BF909319
:10564000001008959C01E0E0F0E1928191FDFDCF12
:105650008DE993E184BF909300103C5EF901408393
:1056600051836283738390E084BF90930010089508
:105670009C01E0E0F0E1928191FDFDCF8DE993E1A5
:1056800084BF909300103C5EF90140835183628394
:10569000738390E084BF909300100895CF92DF92BF
:1056A000EF92FF921F93CF93DF934115510509F4B9
:1056B00064C1E62FF72FE13181E0F80708F05DC102
:1056C000EA01EB59F44D0C94534E9E2EBD2CBD2C8B
:1056D000BD2CBD2CBD2C262EBD2CBD2CBD2CBD2C17
:1056E000BD2CBD2CBD2C3B2EBD2CBD2CBD2CBD2CF2
:1056F000BD2CBD2CBD2CC52CBD2CBD2CBD2CBD2C5A
:10570000BD2CBD2CBD2CBD2CBD2CBD2CBD2CBD2C51
:10571000BD2CBD2CBD2CBD2CBD2CBD2CBD2CBD2C41
:10572000BD2CBD2CBD2CBD2CBD2CE92CBD2CBD2C05
:10573000BD2CBD2CBD2CBD2CBD2CBD2CBD2CBD2C21
:10574000BD2CBD2CBD2CBD2CBD2CBD2CBD2CBD2C11
:10575000BD2CBD2CBD2CBD2CBD2CBD2CBD2C9A2C24
:10576000BD2CBD2CBD2CBD2CBD2CBD2CBD2CBD2CF1
:10577000BD2CBD2CBD2CBD2CBD2CBD2CBD2CBD2CE1
:10578000BD2CBD2CBD2CBD2CBD2CBD2CBD2CBD2CD1
:10579000BD2C0D2DBD2CBD2CBD2CBD2CBD2CBD2C70
:1057A000BD2CBD2CBD2CBD2CBD2CBD2CBD2C5B2D12
:1057B000BD2CBD2CBD2CBD2CBD2C692DBD2CBD2CF4
:1057C000BD2CBD2CBD2C772DBD2CBD2CBD2CBD2CD6
:1057D000BD2C852DBD2CBD2CBD2CBD2CBD2C932DE1
:1057E000BD2CBD2CBD2CBD2CBD2C502EBD2CBD2CDC
:1057F000BD2CBD2C762CBD2CBD2CBD2CBD2CBD2CA8
:10580000BD2CBD2C8A2CBD2CBD2CBD2CBD2CBD2C83
:10581000312DBD2CBD2CBD2CBD2C3F2DBD2CBD2C48
:10582000BD2CBD2C4D2DBD2CBD2CBD2CBD2C5E2EFC
:10583000BD2CBD2CBD2CBD2CBD2C6E2EBD2CBD2C6D
:10584000BD2CBD2CBD2C7E2EBD2CBD2CBD2CBD2C4D
:10585000BD2C8E2EBD2CBD2CBD2CBD2CBD2CAF2D3A
:10586000BD2CBD2CBD2CBD2CBD2CBD2DBD2CBD2CEF
:10587000BD2CBD2CBD2CBD2CBD2CD22DBD2CBD2CCA
:10588000BD2CBD2CBD2CBD2CBD2CE72DBD2CBD2CA5
:10589000BD2CBD2CBD2CBD2CBD2CFC2DBD2CBD2C80
:1058A000BD2CBD2CBD2CBD2CBD2C112EBD2CBD2C5A
:1058B000BD2CBD2CBD2CBD2CBD2CA12DBD2CBD2CBB
:1058C000BD2CBD2CAE2EBD2CBD2CBD2CBD2CBD2C9D
:1058D000BD2CBD2CC62EBD2CBD2CBD2CBD2CBD2C75
:1058E000D72EBD2CBD2CBD2CBD2CE52EC880D9805B
:1058F000EA80FB8085E990E00E94A255C616D70693
:10590000E806F906D1F1B701A60185E990E00E9409
:10591000222B33C00990D881C02D8DE990E00E94E0
:10592000A955C817D90749F1BE018DE990E00E9439
:105930000E2B23C07A01EFEFEE1AFE0A1881112315
:10594000B1F0CAE4D0E009C0F70111917F012196BE
:10595000112379F0CE35D10561F0CE010E949A5520
:10596000811791F3612FCE010E94FB2AEDCFCAE48B
:10597000D0E060E0CE010E94FB2ADF91CF911F9121
:10598000FF90EF90DF90CF9008957A01FFEFEF1A2C
:10599000FF0A18811123B1F0C6E1D0E009C0F70178
:1059A00011917F012196112379F0CA32D10561F05E
:1059B000CE010E949A55811791F3612FCE010E946A
:1059C000FB2AEDCFC6E1D0E060E0CE010E94FB2AC9
:1059D000D4CF7A01FFEFEF1AFF0A18811123B1F03B
:1059E000C0E3D0E009C0F70111917F012196112396
:1059F00079F0C434D10561F0CE010E949A55811727
:105A000091F3612FCE010E94FB2AEDCFC0E3D0E0DD
:105A100060E0CE010E94FB2AB0CF7A01FFEFEF1ABF
:105A2000FF0A18811123B1F0C4E6D0E009C0219625
:105A3000F70111917F01112379F0CC36D10561F086
:105A4000CE010E949A55811791F3612FCE010E94D9
:105A5000FB2AEDCFC4E6D0E060E0CE010E94FB2A35
:105A60008CCFC88183EA90E00E949A55C81709F448
:105A700084CF6C2F83EA90E00E94FB2A7ECFC881FE
:105A800088EA90E00E949A55C81709F476CF6C2FE7
:105A900088EA90E00E94FB2A70CFC8818DEA90E0EE
:105AA0000E949A55C81709F468CF6C2F8DEA90E0D0
:105AB0000E94FB2A62CFC88182E790E00E949A553B
:105AC000C81709F45ACF6C2F82E790E00E94FB2A96
:105AD00054CFC88188E790E00E949A55C81709F40E
