S0110000466C6578466F7838302E73726563EF
S11300000C9418010C9442010C9442010C9442018A
S11300100C9442010C9442010C94F01B0C94BB3DD3
S11300200C9442010C94183D0C946B3D0C94933D3C
S11300300C94020E0C942C3E0C9442010C9442013C
S11300400C9442010C9442010C9442010C94E00182
S11300500C94E8040C9442010C9442010C94420167
S11300600C949E170C9442010C9442010C9442018E
S11300700C9442010C949F1B0C94AA010C947206DC
S11300800C9417080C9442010C9442010C94420104
S11300900C9442010C9442010C9442010C944201D0
S11300A00C9442010C9462090C9442010C94420198
S11300B00C9442010C9442010C9442010C944201B0
S11300C00C9442010C9442010C9442010C944201A0
S11300D00C9442010C9442010C9442010C942402AD
S11300E00C94AD050C9442011C101A1018101E102B
S11300F01E101E101E101E101E1010101E101E109A
S11301001E101E101E101E101E101E101E100A108F
S11301101E101E101E101E101E101E101E101E106B
S11301201E1003101E101E101E101E101E101E1076
S11301301E101E101E10FB0F1E101E101E101E106F
S11301401E101E101E101E101E10F20F45145914FE
S11301506F1485149B14E115D615D614E614F814FF
S11301600A151C155615661578158A159C15F32F56
S11301708A2FD72F0130DE2F0130A62F832F982FFF
S11301809F2F0130C22F752FC92F6E2F912F292F2A
S1130190302F372F3E2F452F4C2F522F592F602FA2
S11301A0672FAD2FB42FFA2FBB2F01307C2FE52FF3
S11301B0772E7E2E852E8C2E932E992EA02EA72E52
S11301C0AD2EB32EBA2EC12EC82ECF2ED62EDD2E96
S11301D0E42EEB2EF22EF82EFF2E062F0D2F142FC9
S11301E01B2F222F0130013001300130D02F01307C
S11301F00130013001300130013001300130013073
S11302000130013001300130013001300130013062
S11302100130013001300130013001300130013052
S1130220013001300130EC2F78171A188517271880
S113023011241FBECFEFCDBFDFE7DEBF14E4A0E083
S1130240B0E4E4E4F4E900E00BBF02C007900D92CF
S1130250AE38B107D9F728E4AEE8B4E401C01D9282
S1130260A333B207E1F711E0C6E1D1E004C021975E
S1130270FE010E94B945C431D107C9F70E942E0F6F
S11302800C94154A0C9400009C0123703327232BF3
S113029059F464E670E00E946445892B39F4637074
S11302A0772781E0672B19F080E0089581E00895B5
S11302B0623021F40E944401845E0895683008F09D
S11302C06F5F61708EE1860F08950FB6F8946093A6
S11302D02F487093304880933148909332480FBE32
S11302E00895FC010FB6F89460912F48709130483E
S11302F080913148909132480FBE309721F060834D
S113030071838283938308958F938FB78F93F89427
S113031080912F488F5F80932F48809130488F4F72
S113032080933048809131488F4F80933148809139
S113033032488F4F809332488F918FBF8F910895A9
S1130340CF93DF93CDB7DEB70E94C01E0000DF91CC
S1130350CF9108951F920F9200903F000F921124A5
S113036000903B000F922F938F939F93EF93FF93F3
S1130370CF93DF93CDB7DEB780E29BE0FC018681AB
S1130380882F90E08170992721E0892B09F420E0DF
S1130390222329F080E29BE021E0FC012683000077
S11303A0DF91CF91FF91EF919F918F912F910F90BA
S11303B000923B000F9000923F000F901F90189501
S11303C01F920F9200903F000F92112400903B0067
S11303D00F922F933F934F935F936F937F938F93DA
S11303E09F93AF93BF93EF93FF93CF93DF931F92AA
S11303F0CDB7DEB70E94B44189838091234088231E
S113040019F489810E94B60680912640882319F444
S113041089810E94680200000F90DF91CF91FF91C3
S1130420EF91BF91AF919F918F917F916F915F9168
S11304304F913F912F910F9000923B000F900092AB
S11304403F000F901F9018951F920F9200903F004D
S11304500F92112400903B000F922F933F934F93E0
S11304605F936F937F938F939F93AF93BF93EF9318
S1130470FF93CF93DF931F92CDB7DEB70E949E42C6
S1130480898380912340843019F489810E94B606BF
S113049080912640843019F489810E94680200000A
S11304A00F90DF91CF91FF91EF91BF91AF919F9109
S11304B08F917F916F915F914F913F912F910F9009
S11304C000923B000F9000923F000F901F901895F0
S11304D0CF93DF93CDB7DEB72A97CDBFDEBF8A8730
S11304E080918E4490918F44892B31F40E94AB30DB
S11304F080938E4490938F4480918E4490918F4446
S1130500892B09F45EC28A85882F90E00E94FD46FB
S11305108A8780919044882339F01A868091904488
S11305208150809390444DC28A858B3191F41A8610
S113053080919144843148F480919144882F90E0D3
S11305408E569B4BFC0180818A8782E08093904485
S113055038C28A858D3009F060C08091C4448823F4
S113056009F441C0809191448823D1F180918E4453
S113057090918F4422E0FC01208380918E449091DD
S11305808F442091C5443091C644FC0121833283B9
S11305908091C7448823E1F040918E4450918F4468
S11305A08091C744882F90E0BC016150710980910B
S11305B0C844882F90E0E4E1E69F9001E79F300D66
S11305C01124240F351F820F931F0396FC01108200
S11305D080919144882F90E08E569B4BFC011082B1
S11305E00E94B33109C080918E4490918F442FEFC3
S11305F03FEFFC0121833283109291441092C8444E
S11306001092C5441092C6441092C74410928E446E
S113061010928F441092C444D4C18A85882309F46B
S1130620D0C180919144882F90E08E569B4B2A85AF
S1130630FC01208380919144882309F47CC18A853C
S11306408F3709F0A1C080919144815080939144E7
S11306508091C744882329F52091C5443091C6442C
S113066080919144882F90E08E569B4BFC018081B1
S1130670882F90E0A901481B590BCA018093C544F7
S11306809093C6448091C5449091C6442AE030E0DA
S1130690B9010E946445CB018093C5449093C6443C
S11306A063C08091C844882311F18091C84481506B
S11306B08093C84440918E4450918F448091C744A4
S11306C0882F90E0BC01615071098091C844882F43
S11306D090E0E4E1E69F9001E79F300D1124240FA0
S11306E0351F820F931F0396FC0110823DC0809139
S11306F09144882F90E08E569B4BFC018081803280
S1130700D9F48091C74481508093C74420918E448A
S113071030918F448091C744482F50E064E1649F36
S1130720C001659F900D11240396820F931F0E94B0
S11307300C478093C84418C020918E4430918F4454
S11307408091C744482F50E064E1649FC001659FD5
S1130750900D1124820F931F0396FC011082809147
S1130760C74481508093C74480919144882F90E07E
S11307708E569B4BFC01108280919144882309F092
S11307801AC11092C44417C18A85803209F055C039
S113079080919144882F90E001978E569B4BFC01E9
S11307A08081803239F08091C744882F90E001968F
S11307B0039714F01A86FFC08091C7448823E1F0A0
S11307C040918E4450918F448091C744882F90E08B
S11307D0BC01615071098091C844882F90E0E4E124
S11307E0E69F9001E79F300D1124240F351F820FDF
S11307F0931F0396FC0110828091C7448F5F8093FE
S1130800C7441092C84480919144882F90E0019687
S11308108A839B8381E390E08C839D832A813B813F
S11308208C819D81281739071CF48A819B8102C021
S11308308C819D8180939144BEC08091C844853150
S113084008F077C08091C7448823E1F48091C544BF
S11308509091C644880F991F9C01220F331F220FC9
S1130860331F280F391F8A85882F90E0820F931F2A
S11308708093C5449093C6448091C8448F5F80930D
S1130880C8443DC040918E4450918F448091C744E8
S1130890882F90E0BC01615071098091C84491E0B7
S11308A0980F9093C844882F90E0E4E1E69F90016C
S11308B0E79F300D1124240F351F820F931F0396D9
S11308C02A85FC01208340918E4450918F4480916D
S11308D0C744882F90E0BC01615071098091C844DD
S11308E0882F90E0E4E1E69F9001E79F300D11240A
S11308F0240F351F820F931F0396FC0110828091F1
S11309009144882F90E001968E839F8381E390E049
S1130910888799872E813F8188859985281739078B
S11309201CF48E819F8102C08885998580939144AF
S113093042C01A8640C08A858F3769F48091C544C5
S11309409091C644181619060CF01A861092C544E4
S11309501092C64430C08A85803211F41A862BC0A6
S11309601092C7448A85882F90E08093C544909361
S1130970C644198289818330B0F420918E44309129
S11309808F448981482F50E064E1649FC001659FD2
S1130990900D1124820F931F0396FC01108289810C
S11309A08F5F8983E7CF81E08093C4448091914431
S11309B08F5F809391448A85882319F08A850E94E9
S11309C0C43100002A96CDBFDEBFDF91CF910895D8
S11309D01F920F9200903F000F92112400903B0051
S11309E00F922F933F934F935F936F937F938F93C4
S11309F09F93AF93BF93EF93FF93CF93DF93CDB7C1
S1130A00DEB780912340882309F045C08091C94412
S1130A109091CA44892B31F40E94612B8093C9447C
S1130A209093CA442091C9443091CA448091CB44E4
S1130A30882F90E0820F931FFC0180818823A9F006
S1130A4080E098E04091C9445091CA442091CB443D
S1130A5031E0320F3093CB44222F30E0240F351F86
S1130A60F9012081FC01228316C01092CB448091AD
S1130A70C9449091CA44FC0110820E94612B809366
S1130A80C9449093CA448091C9449091CA44892B23
S1130A9011F40E94F02B80912640882309F045C070
S1130AA08091CC449091CD44892B31F40E9415302F
S1130AB08093CC449093CD442091CC443091CD4448
S1130AC08091CE44882F90E0820F931FFC01808197
S1130AD08823A9F080E098E04091CC445091CD4423
S1130AE02091CE4431E0320F3093CE44222F30E0B7
S1130AF0240F351FF9012081FC01228316C01092B6
S1130B00CE448091CC449091CD44FC0110820E944B
S1130B1015308093CC449093CD448091CC449091F3
S1130B20CD44892B11F40E941E310000DF91CF9136
S1130B30FF91EF91BF91AF919F918F917F916F91B1
S1130B405F914F913F912F910F9000923B000F9036
S1130B5000923F000F901F9018951F920F920090E3
S1130B603F000F92112400903B000F922F933F936C
S1130B704F935F936F937F938F939F93AF93BF93A1
S1130B80EF93FF93CF93DF93CDB7DEB780912340EC
S1130B90843009F045C08091CF449091D044892B92
S1130BA031F40E94612B8093CF449093D0442091E0
S1130BB0CF443091D0448091D144882F90E0820F6B
S1130BC0931FFC0180818823A9F080E898E040917C
S1130BD0CF445091D0442091D14431E0320F30932E
S1130BE0D144222F30E0240F351FF9012081FC016C
S1130BF0228316C01092D1448091CF449091D04466
S1130C00FC0110820E94612B8093CF449093D044C6
S1130C108091CF449091D044892B11F40E94F02B01
S1130C2080912640843009F045C08091D24490914F
S1130C30D344892B31F40E9415308093D24490938D
S1130C40D3442091D2443091D3448091D444882F0A
S1130C5090E0820F931FFC0180818823A9F080E833
S1130C6098E04091D2445091D3442091D44431E04F
S1130C70320F3093D444222F30E0240F351FF90172
S1130C802081FC01228316C01092D4448091D24466
S1130C909091D344FC0110820E9415308093D24479
S1130CA09093D3448091D2449091D344892B11F4EE
S1130CB00E941E310000DF91CF91FF91EF91BF910F
S1130CC0AF919F918F917F916F915F914F913F91E0
S1130CD02F910F9000923B000F9000923F000F90D5
S1130CE01F9018951F920F9200903F000F921124AD
S1130CF000903B000F922F933F934F935F936F931A
S1130D007F938F939F93AF93BF93EF93FF93CF936F
S1130D10DF931F92CDB7DEB70E9429428983809169
S1130D202340813019F489810E94B60680912640BF
S1130D30813019F489810E94680200000F90DF91CC
S1130D40CF91FF91EF91BF91AF919F918F917F913F
S1130D506F915F914F913F912F910F9000923B00C3
S1130D600F9000923F000F901F901895CF93DF9340
S1130D701F92CDB7DEB789838091D5449091D64434
S1130D80892B31F40E94A82B8093D5449093D644A8
S1130D908091D5449091D644892B09F443C189812B
S1130DA0882F90E00E94FD4689838981843219F05E
S1130DB089818132E9F51092D7448091D54490918C
S1130DC0D6442981213211F423E001C021E0FC0141
S1130DD020831092D8441092D9441092DA4410928D
S1130DE0DB441092DC4481E08093DD441092DE44C5
S1130DF08091DE448330C8F42091D5443091D644A8
S1130E008091DE44482F50E065E1649FC001659FF6
S1130E10900D1124820F931F0396FC011082809180
S1130E20DE448F5F8093DE44E3CF1092DE44E9C05A
S1130E308091DD44882309F4C7C089818C3239F05C
S1130E4089818B3321F089818F3309F06BC08091C4
S1130E50DE448823E1F04091D5445091D6448091FA
S1130E60DE44882F90E0BC01615071098091D84420
S1130E70882F90E0E5E1E69F9001E79F300D112473
S1130E80240F351F820F931F0396FC01108280915B
S1130E90DE448F5F8093DE441092D84489818B3383
S1130EA0B1F48091D744843078F02091D5443091C6
S1130EB0D6448091D9449091DA44A091DB44B09116
S1130EC0DC44F901818392831092DD441FC089813F
S1130ED08F33E1F48091D5449091D64422E0FC0113
S1130EE020838091D744833078F02091D544309189
S1130EF0D6448091D9449091DA44A091DB44B091D6
S1130F00DC44F901818392831092DD449091DD44A5
S1130F1081E08927882309F474C01092D544109283
S1130F20D6446FC08091DE44882361F58091D94412
S1130F309091DA44A091DB44B091DC44880F991F6E
S1130F40AA1FBB1F9C01AD01220F331F441F551F55
S1130F50220F331F441F551F280F391F4A1F5B1FC1
S1130F608981882F90E0A0E0B0E0820F931FA41F36
S1130F70B51F8093D9449093DA44A093DB44B09393
S1130F80DC443FC04091D5445091D6448091DE4426
S1130F90882F90E0BC01615071098091D84491E0A0
S1130FA0980F9093D844882F90E0E5E1E69F900154
S1130FB0E79F300D1124240F351F820F931F0396D2
S1130FC02981FC0120831DC089818D30D1F4809159
S1130FD0D5449091D644FC011182128282E380931D
S1130FE0D7441092D8441092D9441092DA44109203
S1130FF0DB441092DC441092DE441092D5441092EB
S1131000D6448091D7448F5F8093D7449091D7443E
S113101081E0923308F480E0882321F01092DD44CB
S11310201092D74400000F90DF91CF9108951F9242
S11310300F9200903F000F92112400903B000F92FA
S11310402F933F934F935F936F937F938F939F93CC
S1131050AF93BF93EF93FF93CF93DF93CDB7DEB7F7
S113106080912640813009F045C08091DF44909101
S1131070E044892B31F40E9415308093DF4490932F
S1131080E0442091DF443091E0448091E144882F92
S113109090E0820F931FFC0180818823A9F080E2F5
S11310A098E04091DF445091E0442091E14431E0E4
S11310B0320F3093E144222F30E0240F351FF90121
S11310C02081FC01228316C01092E1448091DF4408
S11310D09091E044FC0110820E9415308093DF441B
S11310E09093E0448091DF449091E044892B11F483
S11310F00E941E3180912340813009F045C08091C7
S1131100E2449091E344892B31F40E94612B809353
S1131110E2449093E3442091E2443091E34480918B
S1131120E444882F90E0820F931FFC018081882380
S1131130A9F080E298E04091E2445091E344209188
S1131140E44431E0320F3093E444222F30E0240FA2
S1131150351FF9012081FC01228316C01092E4445A
S11311608091E2449091E344FC0110820E94612B3F
S11311708093E2449093E3448091E2449091E34469
S1131180892B11F40E94F02B0000DF91CF91FF9185
S1131190EF91BF91AF919F918F917F916F915F91EB
S11311A04F913F912F910F9000923B000F9000922E
S11311B03F000F901F901895CF93DF931F92CDB7E8
S11311C0DEB7898380E094E02981FC012783000055
S11311D00F90DF91CF910895CF93DF9300D0CDB7D7
S11311E0DEB789836A838A818823A9F088E090E046
S11311F028E030E0F9012181622F2981422F50E05B
S113120021E030E002C0220F331F4A95E2F7262B7B
S1131210FC01218315C088E090E028E030E0F9016A
S11312202181622F2981422F50E021E030E002C069
S1131230220F331F4A95E2F720952623FC012183D0
S113124000000F900F90DF91CF910895CF93DF931B
S11312501F92CDB7DEB7898388E090E028E030E0C4
S1131260F9012281622F2981422F50E021E030E0F0
S113127002C0220F331F4A95E2F7262BFC0122837A
S113128000000F90DF91CF910895CF93DF931F92C9
S1131290CDB7DEB78983998181E08927682F86E0FD
S11312A00E94EC0800000F90DF91CF910895CF9336
S11312B0DF93CDB7DEB786E00E9426090000DF91F8
S11312C0CF9108951F920F9200903F000F92112426
S11312D000903B000F92EF92FF920F931F932F9376
S11312E03F934F935F936F937F938F939F93AF93AA
S11312F0BF93EF93FF93CF93DF93CDB7DEB76097A0
S1131300CDBFDEBF80E39BE0FC018681882F90E0A7
S11313108170992721E0892B09F420E0222309F424
S113132052C480917045909171459C012F5F3F4F4D
S1131330209370453093714521E08B32914009F040
S113134020E0222309F43AC41092704510927145AA
S113135090915C4581E08927882311F00E94570908
S11313600E948C138D839D8181E08927882379F0E5
S113137090911B4581E0913009F480E0882369F164
S113138081E080931B4581E08093064026C09091C4
S11313901B4581E0913009F080E08823F1F08091D1
S11313A072459D819817B1F480911B408823A9F060
S11313B080911B40815080931B4080911B40882367
S11313C061F410921B4581E08093064083E0809392
S11313D01B4003C083E080931B408D818093724542
S11313E00E94840180916145882309F43EC0809164
S11313F0624590916345A0916445B091654521E0B3
S1131400892B8A2B8B2B09F420E0222399F08091DD
S1131410624590916345A0916445B09165450197FB
S1131420A109B1098093624590936345A0936445F3
S1131430B09365458091624590916345A091644560
S1131440B0916545892B8A2B8B2B21F08091064026
S1131450882311F081E001C080E0882309F4AEC341
S11314601092604510926145A9C31A861B861C869A
S11314701D86809114409091154021E0892B09F438
S113148020E0222349F08091144090911540019767
S1131490809314409093154080915D45882309F40E
S11314A060C0809113408823D1F080915845909179
S11314B05945A0915A45B0915B45892B8A2B8B2BBA
S11314C071F090915E4581E08927882341F09091E5
S11314D0244581E08927882311F081E001C080E060
S11314E0882309F43EC0CE010A960E9471012A8520
S11314F03B854C855D858091584590915945A091D7
S11315005A45B0915B4561E0281739074A075B07E4
S113151008F460E0662329F18CEF8093184510925B
S11315201C4510921D4510921E4510921F4580E0E7
S11315300E94E23E10925C4510925D4581E08093EA
S11315405E458AE590E08093144090931540809125
S11315500A40882319F08CE38093094080E00E94BC
S1131560450980915C45882309F497C280915D45C3
S1131570882309F4F0C1809120459091214521E010
S1131580892B09F420E0222349F080912045909191
S113159021450197809320459093214580911C45D6
S11315A090911D45A0911E45B0911F4521E0892BC6
S11315B08A2B8B2B09F420E0222309F46EC280913C
S11315C01C4590911D45A0911E45B0911F4521E0F9
S11315D0181619061A061B060CF020E0222309F43B
S11315E05EC180911C4590911D45A0911E45B0910E
S11315F01F450197A109B10980931C4590931D458E
S1131600A0931E45B0931F4580912045909121459C
S1131610892B41F48091504590915145892B11F0CB
S113162081E001C080E08823A9F180915045909128
S113163051459C0140E050E080911C4590911D452E
S1131640A0911E45B0911F4561E0281739074A074C
S11316505B0709F060E06623E9F08FEE809318459C
S113166080911140909112408093204590932145A0
S113167080910B400E94CD108093074090930840C6
S11316801E86CE010E9640E050E0BC018BE395E44B
S11316900E94B22C80911C4590911D45A0911E453D
S11316A0B0911F4521E0892B8A2B8B2B09F020E078
S11316B0222309F4F2C180910F409091104021E05F
S11316C0892B09F420E0222309F4D0C080E00E9491
S11316D0E23E80910F409091104020911C45309142
S11316E01D4540911E4550911F45092E000CAA0B23
S11316F0BB0B79018A01E81AF90A0A0B1B0BD80102
S1131700C70180931C4590931D45A0931E45B0933B
S11317101F4581E08E87CE010E9640E050E0BC016B
S113172086E295E40E94B22C8EEF8093184580E007
S11317300E94450919821A821B821C82CE010A96D4
S11317400E9471012A853B854C855D8580915845B1
S113175090915945A0915A45B0915B4561E0281795
S113176039074A075B0708F060E06623B1F02A8571
S11317703B854C855D858091584590915945A09154
S11317805A45B0915B45BC01CD010E94A942DC01E0
S1131790CB0189839A83AB83BC8320910F40309122
S11317A0104080910D4090910E40820F931F0F9630
S11317B09C01990F440B550B61E089819A81AB819F
S11317C0BC81281739074A075B070CF060E06623E1
S11317D009F463C180910F4090911040409734F018
S11317E080910940882311F481E001C080E08823BE
S11317F009F453C180910F40909110400A97092E2B
S1131800000CAA0BBB0B8093164090931740A09337
S11318101840B093194082E08093254581E080937D
S113182060451E821F822091204530912145809180
S1131830164090911740A0911840B0911940890129
S1131840081B190BC801888799872E813F818885D9
S11318509985281739071CF48885998502C08E81DB
S11318609F81809320459093214517C180910D401D
S113187090910E40092E000CAA0BBB0B80931C45C3
S113188090931D45A0931E45B0931F4580910C4035
S11318900E94CD108093074090930840FEC0809131
S11318A01C4590911D45A0911E45B0911F45882768
S11318B0B7FD83959927AA27BB27882309F4EDC090
S11318C080911C4590911D45A0911E45B0911F45E6
S11318D00196A11DB11D80931C4590931D45A093B5
S11318E01E45B0931F4580911C4590911D45A091C4
S11318F01E45B0911F4521E0892B8A2B8B2B09F0C3
S113190020E0222309F4C9C08DEF8093184580910B
S11319100D4090910E40092E000CAA0BBB0B809336
S11319201C4590931D45A0931E45B0931F4580917F
S11319300C400E94CD10809307409093084081E0B2
S11319408F87CE010F9640E050E0BC0186E295E41B
S11319500E94B22CA2C080911340882309F49DC038
S11319608091544590915545A0915645B091574565
S113197021E0892B8A2B8B2B09F420E0222309F404
S11319808CC0CE010A960E9471012A853B854C8544
S11319905D858091544590915545A0915645B091EF
S11319A0574561E0281739074A075B0708F460E0E8
S11319B0662309F472C0809152459091534521E009
S11319C0892B09F420E0222371F18EEF80931845CE
S11319D08091524590915345919581959109092E95
S11319E0000CAA0BBB0B80931C4590931D45A09340
S11319F01E45B0931F452091524530915345809127
S1131A000D4090910E40820F931F9C018091504590
S1131A1090915145A901481B590BCA018093204557
S1131A209093214537C08DEF8093184580910D40E8
S1131A3090910E40092E000CAA0BBB0B80931C4501
S1131A4090931D45A0931E45B0931F4580910D4072
S1131A5090910E409C018091504590915145F9011F
S1131A60E81BF90BCF018093204590932145809189
S1131A700C400E94CD10809307409093084081E071
S1131A80888BCE01409640E050E0BC0186E295E4AC
S1131A900E94B22C81E080935D459091234581E0C2
S1131AA0992309F480E0882329F18091234581500A
S1131AB0809323459091234581E0953009F080E09F
S1131AC0882339F081E00E94641B80E00E947B1B24
S1131AD075C09091234581E0992309F080E0882323
S1131AE009F46CC046E060E875E280E090E00E9492
S1131AF05F2C64C08091144090911540892B81F033
S1131B0080912445882361F490915E4581E0892782
S1131B10882341F090915F4581E08927882311F063
S1131B2081E001C080E0882309F441C0909109401C
S1131B3081E0992309F480E08823C9F18091094068
S1131B408150809309409091094081E0992309F0E4
S1131B5080E0882361F181E00E947B1B80E00E9489
S1131B60641B1092244590915C4581E08927882369
S1131B7091F084E08093254581E0809360458FEF68
S1131B809FEFDC018093164090931740A093184078
S1131B90B09319400AC09091254581E0933009F033
S1131BA080E0882311F00E94231010920A40809153
S1131BB00A40882319F081E08093224580E39BE06A
S1131BC021E0FC01268300006096CDBFDEBFDF91DB
S1131BD0CF91FF91EF91BF91AF919F918F917F91A1
S1131BE06F915F914F913F912F911F910F91FF90B2
S1131BF0EF900F9000923B000F9000923F000F90E7
S1131C001F9018951F920F9200903F000F9211247D
S1131C1000903B000F922F933F934F935F936F93EA
S1131C207F938F939F93AF93BF93EF93FF93CF9340
S1131C30DF9300D0CDB7DEB780E09BE0FC01868166
S1131C40882F90E08170992721E0892B09F420E006
S1131C50222309F4E4C080911E4090911F4021E0AA
S1131C60892B09F420E0222349F080911E409091B1
S1131C701F40019780931E4090931F408091204005
S1131C809091214021E0892B09F420E0222349F09E
S1131C90809120409091214001978093204090931F
S1131CA021408091194590911A4521E0892B09F42E
S1131CB020E0222349F08091194590911A4501971B
S1131CC08093194590931A4580915C45882331F09F
S1131CD080915D45882311F081E001C080E0882374
S1131CE009F49DC080911C4590911D45A0911E450D
S1131CF0B0911F4521E0181619061A061B060CF0B0
S1131D0020E0222309F469C08091734590917445C1
S1131D10892B09F451C080917345909174450197C2
S1131D208093734590937445809173459091744565
S1131D30892B09F074C0CE010296AC01CE01019644
S1131D40BC0180E090E00E94B22C8093754599819B
S1131D5081E08927882329F18A81882311F18DEF75
S1131D608093184580910C400E94CD1080930740C9
S1131D709093084081E0898340E050E0CE010196D1
S1131D80BC0186E295E40E94B22CCE010296AC011D
S1131D90CE010196BC0180E090E00E94B22C8093B9
S1131DA07545809175458823D1F181E00E94D43E28
S1131DB081E00E94450933C0809175450E94E23E4E
S1131DC0809175450E944509809107409091084093
S1131DD0809373459093744522C080911C459091E3
S1131DE01D45A0911E45B0911F4521E0892B8A2BEA
S1131DF08B2B09F020E0222391F0809175458823F4
S1131E0071F01092754580E00E94E23E80E00E94ED
S1131E10450980E00E94D43E8EEF8093184580E00F
S1131E209BE021E0FC01268300000F900F90DF91DE
S1131E30CF91FF91EF91BF91AF919F918F917F913E
S1131E406F915F914F913F912F910F9000923B00C2
S1131E500F9000923F000F901F901895CF93DF933F
S1131E60CDB7DEB72797CDBFDEBF0E94A00180E0CB
S1131E700E94450986E695E40E944B2386E695E494
S1131E800E94DD210E94A43F982F81E0923D09F039
S1131E9080E0882339F00E94B33188E490E40E9402
S1131EA0DD3104C083E790E40E94DD310E947B139E
S1131EB0982F81E09C3F09F080E0882339F00E944C
S1131EC0B3318BE790E40E94DD3120C0CE01079648
S1131ED00E94EA1EDC01CB018B839C83AD83BE830D
S1131EE08F81882369F48B819C81AD81BE81BC0183
S1131EF0CD010E94650183EA90E40E94DD3106C0B1
S1131F000E94B3318BE790E40E94DD310E94B3312B
S1131F108BEA90E40E94DD3188EC90E4892F8F9362
S1131F2088EC90E48F938CEC90E4892F8F938CEC65
S1131F3090E48F9385EE94E4892F8F9385EE94E457
S1131F408F930E9424470F900F900F900F900F9043
S1131F500F9085EE94E40E94DD3189ED90E40E94B7
S1131F60DD310E94921B982F81E08927882341F05C
S1131F700E94B33180E292E40E94DD311092234545
S1131F800E94B3310E94A03180E00E949413F8941F
S1131F9080911C4090911D4089839A8389819A8104
S1131FA09C012150310929833A8321E0892B09F4CA
S1131FB020E0222309F0F2CF809123489091244815
S1131FC0CC01A0E0B0E041E050E021E330E0841B2C
S1131FD0950B2817390708F431C08C589F4FFC0122
S1131FE00C94B9450000000000000000000000004F
S1131FF000000000000000000000000000000000DD
S113200000000000000000000000000000000000CC
S113201000000000000000000000000000000000BC
S113202000000000000000000000000000000000AC
S1132030000005C0000003C0000001C0000081E0F2
S11320400E94DC08A5CFEF92FF920F931F93CF93CA
S1132050DF93CDB7DEB72997CDBFDEBF20915445BE
S1132060309155454091564550915745809158457A
S113207090915945A0915A45B0915B45BC01CD0161
S11320800E94A942DC01CB0189839A83AB83BC8380
S113209021E089819A81AB81BC81181619061A0640
S11320A01B060CF020E02D83CE0106960E947101E0
S11320B0209158453091594540915A4550915B457E
S11320C08E819F81A885B985BC01CD010E94A9425A
S11320D0DC01CB0189839A83AB83BC8389819A8198
S11320E0AB81BC81BB232CF08D81882311F080E06F
S11320F04AC02091544530915545409156455091E0
S113210057458E819F81A885B985BC01CD010E9468
S1132110A942DC01CB0189839A83AB83BC83898187
S11321209A81AB81BC81843C9F4FAF4FBF4F64F019
S113213010922545109216401092174010921840A4
S11321401092194081E01FC024EC3FEF4FEF5FEF86
S113215089819A81AB81BC8179018A01E81AF90AE3
S11321600A0B1B0BD801C7018093164090931740AC
S1132170A0931840B093194081E08093254581E0F5
S11321808093604581E02996CDBFDEBFDF91CF917A
S11321901F910F91FF90EF900895CF93DF93CDB7E8
S11321A0DEB72A97CDBFDEBF8A878A85898385E01B
S11321B090E08A839B8384E190E08C839D83898172
S11321C0282F880F330B8C819D81821793075CF035
S11321D08981082E000C990B2A813B818217930771
S11321E024F4C90102C08C819D818A878A85282FA5
S11321F030E040E050E082EC91E0A0E0B0E0BC01CF
S1132200CD010E949A45DA01C901BC01CD010E94A9
S11322101E44DC01CB018E839F83A887B9876E811E
S11322207F81888599850E94ED43DC01CB012A9644
S1132230CDBFDEBFDF91CF910895CF93DF9300D060
S11322401F92CDB7DEB78A839B838A819B810E94CC
S1132250481189838A819B81FC018081882331F024
S11322608A819B81FC018081809318458981882320
S113227021F089818093174504C00E942310809324
S11322805C4589812396CDBFDEBFDF91CF91089550
S1132290CF93DF93CDB7DEB76297CDBFDEBF898B17
S11322A09A8B8091544590915545A0915645B09193
S11322B0574521E0892B8A2B8B2B09F020E0222320
S11322C011F08CEC12C22091544530915545409147
S11322D05645509157458091584590915945A09144
S11322E05A45B0915B4561E0281739074A075B07F7
S11322F008F460E0662311F08DECF7C180910D4085
S113230090910E4021E0892B09F020E0222311F066
S11323108BECEBC120910F403091104080910D4027
S113232090910E40280F391F80915245909153454A
S113233041E0281739070CF040E0442311F08AECFF
S1132340D4C180912645882311F489ECCEC19091A3
S11323500C4081E0992309F080E0882311F088EC97
S1132360C4C180913B45882391F180910B4088231F
S113237031F08091114090911240892B11F481E049
S113238001C080E0882311F087ECAFC180910B403D
S1132390882F90E0BC018BE395E40E940A2E8C50B8
S11323A09E4F9695879596958795969587959C01CA
S11323B0A5ECB0E20E94C245929582958F70892760
S11323C09F708927809350459093514504C0109283
S11323D050451092514580E090E00E947101DC016B
S11323E0CB018A839B83AC83BD8320915845309174
S11323F0594540915A4550915B4561E08A819B81E2
S1132400AC81BD81281739074A075B0708F060E0F3
S1132410662359F089899A89892B09F465C18989C8
S11324209A892AEFFC0120835FC1209154453091A1
S1132430554540915645509157458A819B81AC81C1
S1132440BD81BC01CD010E94A942DC01CB018E8378
S11324509F83A887B9878E819F81A885B985BB236F
S11324600CF42EC1198220910D4030910E408091C0
S11324700F4090911040820F931F8A879B878A8513
S11324809B859C01990F440B550B8E819F81A885D8
S1132490B985BC01CD010E949A45DC01CB018C8732
S11324A09D8720915245309153458C859D85A90186
S11324B0481B590BCA018E879F878E859F851816E6
S11324C019060CF4A8C08E859F8522273327281B64
S11324D0390B80910D4090910E4041E02817390747
S11324E00CF440E0442309F441C02A853B858E85E1
S11324F09F85820F931F919581959109092E000C58
S1132500AA0BBB0B80931C4590931D45A0931E45BD
S1132510B0931F4589899A89892B29F089899A89D9
S11325202EEFFC01208390915C4581E0892788236C
S113253009F4A6C080910D4090910E409C018091B9
S11325401C4590911D45A0911E45B0911F45281B27
S1132550390B8091504590915145A901481B590B65
S1132560CA0180932045909321458AC020910D4053
S113257030910E408E859F85820F931F092E000C8B
S1132580AA0BBB0B80931C4590931D45A0931E453D
S1132590B0931F4581E0898389899A89892B29F021
S11325A089899A892DEFFC01208390915C4581E013
S11325B08927882309F464C080915045909151453E
S11325C09C0140E050E080911C4590911D45A091F4
S11325D01E45B0911F4561E0281739074A075B077C
S11325E00CF060E0662309F44BC080911C45909187
S11325F01D45A0911E45B0911F459C0180915045F9
S113260090915145A901481B590BCA01809320455B
S11326109093214535C08E859F859195819591092B
S1132620092E000CAA0BBB0B80931C4590931D45EF
S1132630A0931E45B0931F4589899A89892B29F057
S113264089899A892EEFFC01208390915C4581E071
S113265089278823A9F020910D4030910E408E8562
S11326609F85820F931F9C01809150459091514505
S1132670A901481B590BCA01809320459093214519
S113268089818823B1F0F89481E0888BCE0140964B
S113269040E050E0BC0186E295E40E94B22C8091B7
S11326A00C400E94CD10809307409093084078948A
S11326B003C080E00E94E23E81E080935D450CC04F
S11326C089899A89892B29F089899A892FEFFC01B4
S11326D0208380E00E94E23E10925F458AE590E00C
S11326E0809314409093154080E06296CDBFDEBF86
S11326F0DF91CF910895CF93DF93CDB7DEB70E94DA
S1132700DC1E81E00E94C420882311F08CEF01C0FC
S113271080E0DF91CF910895CF93DF93CDB7DEB7FB
S113272081E0DF91CF910895CF93DF9300D0CDB7AF
S1132730DEB78A830E94B51689838A81882379F457
S11327408981823031F460E080E090E00E94F613E9
S113275047C063E080E090E00E94F61341C08A81A4
S11327608230F1F48981823031F461E080E090E0DC
S11327700E94F61335C08981813031F0898184301B
S113278019F08981833031F461E080E090E00E94A7
S1132790F61326C063E080E090E00E94F61320C0A8
S11327A08981823031F461E080E090E00E94F61388
S11327B017C08981813031F462E080E090E00E94AA
S11327C0F6130EC08981843031F463E080E090E038
S11327D00E94F61305C063E080E090E00E94F613C7
S11327E000000F900F90DF91CF910895CF93DF9366
S11327F0CDB7DEB72F97CDBFDEBF8D879E876F879E
S113280081E089838D859E85892B61F08D859E85E8
S1132810FC018081823131F08D859E85FC018081AF
S113282080931A40CE0107960E94EA1EDC01CB0178
S11328308A839B83AC83BD838F81882341F48A81FF
S11328409B81AC81BD81BC01CD010E9465011092C8
S11328505D4510925C4580E00E94450980911A40D4
S1132860882F90E0092E000CAA0BBB0B41E050E02E
S113287020E130E0841B950B2817390708F4A1C127
S11328808A559F4FFC010C94B9458981882389F0AE
S11328908DE49FE4809326459093274585E490E05A
S11328A0809328459093294519821092524510929D
S11328B053458981882399F08DE49FE480932645CC
S11328C09093274589E490E0809328459093294587
S11328D019828CE390E0809352459093534589810B
S11328E0882399F08DE49FE48093264590932745AF
S11328F083E590E08093284590932945198288E7E1
S113290090E080935245909353458981882399F0B0
S11329108DE49FE4809326459093274588E490E0D6
S11329208093284590932945198284EB90E0809305
S11329305245909353458981882391F08DE49FE417
S1132940809326459093274585E390E0809328451E
S11329509093294580EF90E080935245909353459E
S113296081E08887CE01089640E050E0BC0186E211
S113297095E40E94B22C80910C400E94CD1080936B
S11329800740909308408CE390E080932045909317
S113299021458CE390E080930D4090930E4080EFAE
S11329A090E080930F409093104041C18981882327
S11329B069F08DE495E48093264590932745109221
S11329C028451982109252451092534589818823D3
S11329D079F08DE499E480932645909327451092ED
S11329E0284519828CE090E080935245909353459A
S11329F08981882379F08DE493E58093264590932B
S1132A00274510922845198288E190E08093524529
S1132A10909353458981882379F08DE498E48093D9
S1132A2026459093274510922845198284E290E028
S1132A3080935245909353458981882371F08DE4A6
S1132A4095E380932645909327451092284580E38B
S1132A5090E0809352459093534581E08987CE015D
S1132A60099640E050E0BC0186E295E40E94B22C55
S1132A7088E080930C4080910C400E94CD1080939C
S1132A8007409093084088E592E080932045909316
S1132A9021458CE090E080930D4090930E4080E3BC
S1132AA090E080930F4090931040C1C089818823A7
S1132AB069F08FE495E4809326459093274510921E
S1132AC028451982109252451092534589818823D2
S1132AD079F08FE499E480932645909327451092EA
S1132AE0284519828CE090E0809352459093534599
S1132AF08981882379F08FE493E580932645909328
S1132B00274510922845198288E190E08093524528
S1132B10909353458981882379F08FE498E48093D6
S1132B2026459093274510922845198284E290E027
S1132B3080935245909353458981882371F08FE4A3
S1132B4095E380932645909327451092284580E38A
S1132B5090E0809352459093534581E08A87CE015B
S1132B600A9640E050E0BC0186E295E40E94B22C53
S1132B708FE080930C4080910C400E94CD10809394
S1132B8007409093084088E592E080932045909315
S1132B9021458CE090E080930D4090930E4080E3BB
S1132BA090E080930F409093104041C083E590E003
S1132BB0809326459093274519821092524510928E
S1132BC053458981882341F08DE49FE48093264511
S1132BD090932745109228451092524510925345E0
S1132BE081E08B87CE010B9640E050E0BC0186E289
S1132BF095E40E94B22C88E080930C4080910C40B4
S1132C000E94CD10809307409093084088E592E09D
S1132C1080932045909321458CE390E080930D4070
S1132C2090930E4010920F401092104000008F8538
S1132C30882371F410925D4510925C4580E00E94F7
S1132C40E23E80E00E94450980E00E94D43E86C0B6
S1132C508F85813009F043C080915245909153454E
S1132C60892B61F0809152459091534591958195BE
S1132C709109092E000CAA0BBB0B08C080910D40D2
S1132C8090910E40092E000CAA0BBB0B80931C459F
S1132C9090931D45A0931E45B0931F451092134079
S1132CA081E080935D4581E080935C458EEF809365
S1132CB0184580916045882331F08091254588230B
S1132CC011F081E001C080E0882329F083E0809343
S1132CD02545109260458CE3809309403FC08F8561
S1132CE0823089F51092134080910D4090910E40EE
S1132CF0092E000CAA0BBB0B80931C4590931D4519
S1132D00A0931E45B0931F4581E080935D4581E00B
S1132D1080935C458DEF80931845809160458823AE
S1132D2031F080912545882311F081E001C080E0D5
S1132D30882329F083E080932545109260458CE335
S1132D40809309400BC0CE010C960E941D118E8306
S1132D508E81882319F481E08093134000002F961C
S1132D60CDBFDEBFDF91CF910895CF93DF9300D025
S1132D7000D0CDB7DEB780E090E00E947101DC01A5
S1132D80CB0189839A83AB83BC838091584590910E
S1132D905945A0915A45B0915B4581159646AE4E72
S1132DA0BF45B0F08091544590915545A09156454A
S1132DB0B091574581159646AE4EBF4548F089817E
S1132DC09A81AB81BC8181159646AE4EBF4510F405
S1132DD081E001C080E0882311F082E05AC0209194
S1132DE058453091594540915A4550915B458091E1
S1132DF0544590915545A0915645B091574561E091
S1132E0082179307A407B50708F460E0662311F05E
S1132E1082E03FC08091584590915945A0915A4510
S1132E20B0915B4561E029813A814B815C818217D5
S1132E309307A407B50708F060E0662311F082E069
S1132E4028C08091544590915545A0915645B09124
S1132E50574561E029813A814B815C818217930750
S1132E60A407B50708F060E0662351F090915C4533
S1132E7081E08927882311F083E00BC085E009C035
S1132E8090915C4581E08927882311F084E001C09A
S1132E9081E02496CDBFDEBFDF91CF910895CF931B
S1132EA0DF9300D000D0CDB7DEB789839A836B83DC
S1132EB07C8389819A81019741F48B819C8101965D
S1132EC021F486E695E40E94272189819A81892B41
S1132ED041F48B819C81019621F486E695E40E945D
S1132EE0342100002496CDBFDEBFDF91CF91089539
S1132EF0CF93DF93CDB7DEB76FEF7FEF81E090E044
S1132F000E944F17DF91CF910895CF93DF93CDB7F0
S1132F10DEB76FEF7FEF80E090E00E944F17DF9104
S1132F20CF910895CF93DF93CDB7DEB780E096E0DD
S1132F30FC0180899189DF91CF9108951F920F92AE
S1132F4000903F000F92112400903B000F922F93AA
S1132F503F934F935F936F937F938F939F93AF931D
S1132F60BF93EF93FF93CF93DF9300D0CDB7DEB73A
S1132F700E94921789839A8389819A81BC0186E78A
S1132F8095E40E94EC24882321F080E096E0FC0183
S1132F90148600000F900F90DF91CF91FF91EF9175
S1132FA0BF91AF919F918F917F916F915F914F915D
S1132FB03F912F910F9000923B000F9000923F00A1
S1132FC00F901F9018950F931F93CF93DF9300D00A
S1132FD000D0CDB7DEB789839A836B837C838981E4
S1132FE09A81019791F48B819C81019671F480E020
S1132FF090E4ACEBB6E48C019D0140E050E069E460
S113300073E486E795E40E94412489819A81892B9F
S113301041F48B819C81019621F486E795E40E941A
S1133020D92400002496CDBFDEBFDF91CF911F913C
S11330300F910895CF93DF93CDB7DEB76FEF7FEF96
S113304081E090E00E94E317DF91CF910895CF9340
S1133050DF93CDB7DEB76FEF7FEF80E090E00E94A3
S1133060E317DF91CF910895CF93DF9300D000D081
S1133070CDB7DEB78B836C838B81882F90E0805F24
S11330809B4F89839A838C81813059F489819A81F9
S1133090FC018081282F286089819A81FC0120838A
S11330A00DC08C81882351F489819A81FC0180812F
S11330B0282F277F89819A81FC0120830000249690
S11330C0CDBFDEBFDF91CF910895CF93DF9300D0C2
S11330D000D0CDB7DEB78B836C838B81882F90E0D3
S11330E0805F9B4F89839A8389819A81FC018081C7
S11330F0982F987F8C81892B282F89819A81FC01B4
S1133100208300002496CDBFDEBFDF91CF910895C8
S1133110CF93DF9300D0CDB7DEB789836A838A81EA
S1133120882F90E081309105E1F08230910571F1B2
S1133130892B09F03BC020E030E080E090E0FC0106
S11331408081682F8981482F50E081E090E002C09F
S1133150880F991F4A95E2F780958623F9018083A9
S113316025C020E030E080E090E0FC018081682F01
S11331708981482F50E081E090E002C0880F991FB8
S11331804A95E2F7862BF901808310C08981882F44
S113319090E0805F9B4F2981222F30E0205F3B4FDE
S11331A0F90120812860FC012083000000000F90B9
S11331B00F90DF91CF910895CF93DF9300D0CDB7D7
S11331C0DEB789836A838A818823A9F020E030E00E
S11331D080E090E0FC018181682F8981482F50E0D4
S11331E081E090E002C0880F991F4A95E2F7862B90
S11331F0F901818315C020E030E080E090E0FC011B
S11332008181682F8981482F50E081E090E002C0DD
S1133210880F991F4A95E2F780958623F9018183E7
S113322000000F900F90DF91CF910895CF93DF931B
S113323000D0CDB7DEB789836A838A81882F90E076
S113324081309105E1F08230910571F1892B09F00B
S11332503BC084E090E024E030E0F9012081622F5B
S11332602981422F50E021E030E002C0220F331FB9
S11332704A95E2F720952623FC01208325C084E0AB
S113328090E024E030E0F9012081622F2981422F6F
S113329050E021E030E002C0220F331F4A95E2F7EC
S11332A0262BFC01208310C08981882F90E0805D4B
S11332B09B4F2981222F30E0205D3B4FF901208173
S11332C02860FC012083000000000F900F90DF9124
S11332D0CF910895CF93DF9300D0CDB7DEB7898324
S11332E06A838A818823A9F084E090E024E030E0B6
S11332F0F9012181622F2981422F50E021E030E041
S113330002C0220F331F4A95E2F7262BFC012183CA
S113331015C084E090E024E030E0F9012181622FBF
S11333202981422F50E021E030E002C0220F331FF8
S11333304A95E2F720952623FC01218300000F9093
S11333400F90DF91CF910895CF93DF9300D000D0F9
S1133350CDB7DEB78B836C838B81882F90E0805B45
S11333609B4F89839A838C81813059F489819A8116
S1133370FC018081282F286089819A81FC012083A7
S11333800DC08C81882351F489819A81FC0180814C
S1133390282F277F89819A81FC01208300002496AD
S11333A0CDBFDEBFDF91CF910895CF93DF9300D0DF
S11333B000D0CDB7DEB78B836C838B81882F90E0F0
S11333C0805B9B4F89839A8389819A81FC018081E8
S11333D0982F987F8C81892B282F89819A81FC01D1
S11333E0208300002496CDBFDEBFDF91CF910895E6
S11333F0CF93DF9300D0CDB7DEB789836A838A8108
S1133400882F90E081309105E1F08230910571F1CF
S1133410892B09F03BC088E090E028E030E0F90116
S11334202081622F2981422F50E021E030E002C048
S1133430220F331F4A95E2F720952623FC012083AF
S113344025C088E090E028E030E0F9012081622F77
S11334502981422F50E021E030E002C0220F331FC7
S11334604A95E2F7262BFC01208310C08981882F1E
S113347090E0805B9B4F2981222F30E0205B3B4F03
S1133480F90120812860FC012083000000000F90D6
S11334900F90DF91CF910895CF93DF9300D0CDB7F4
S11334A0DEB789836A838A818823A9F088E090E063
S11334B028E030E0F9012181622F2981422F50E078
S11334C021E030E002C0220F331F4A95E2F7262B99
S11334D0FC01218315C088E090E028E030E0F90188
S11334E02181622F2981422F50E021E030E002C087
S11334F0220F331F4A95E2F720952623FC012183EE
S113350000000F900F90DF91CF910895CF93DF9338
S11335101F92CDB7DEB789838CE090E0FC018281F5
S1133520882F90E02981222F30E002C0959587955D
S11335302A95E2F78170992721E0892B09F420E08C
S1133540822F0F90DF91CF910895CF93DF9300D016
S1133550CDB7DEB789836A838A81882F90E0813072
S11335609105E1F08230910571F1892B09F03BC09E
S113357080E190E020E130E0F9012081622F29818F
S1133580422F50E021E030E002C0220F331F4A9561
S1133590E2F720952623FC01208325C080E190E0FA
S11335A020E130E0F9012081622F2981422F50E08F
S11335B021E030E002C0220F331F4A95E2F7262BA8
S11335C0FC01208310C08981882F90E080579B4F95
S11335D02981222F30E020573B4FF90120812860B8
S11335E0FC012083000000000F900F90DF91CF9129
S11335F00895CF93DF9300D0CDB7DEB789836A8374
S11336008A81882F90E081309105E1F08230910524
S113361071F1892B09F03BC084E190E024E130E0B2
S1133620F9012081622F2981422F50E021E030E00E
S113363002C0220F331F4A95E2F720952623FC018E
S1133640208325C084E190E024E130E0F901208169
S1133650622F2981422F50E021E030E002C0220F86
S1133660331F4A95E2F7262BFC01208310C0898181
S1133670882F90E080559B4F2981222F30E02055E0
S11336803B4FF90120812860FC01208300000000E9
S11336900F900F90DF91CF910895CF93DF931F92F6
S11336A0CDB7DEB789838981882329F061E083E07F
S11336B00E94DC1804C060E083E00E94DC18000073
S11336C00F90DF91CF910895CF93DF931F92CDB7E1
S11336D0DEB789838981882329F061E085E00E942F
S11336E0DC1804C060E085E00E94DC1800000F9044
S11336F0DF91CF910895CF93DF931F92CDB7DEB7BB
S113370089838981882329F060E086E00E94DC189F
S113371004C061E086E00E94DC1800000F90DF9195
S1133720CF910895CF93DF93CDB7DEB787E00E94A2
S1133730861A982F81E08927DF91CF9108951F92EF
S11337400F9200903F000F92112400903B000F92C3
S11337502F938F939F93EF93FF93CF93DF93CDB7E3
S1133760DEB780E494E0FC018185881F8827881FE8
S1133770882349F08091774590917845019680930C
S113378077459093784580E494E0FC018185882F07
S113379090E08071992721E0892B09F420E022230D
S11337A049F08091774590917845019680937745CB
S11337B09093784580E494E02FEFFC01218700008A
S11337C0DF91CF91FF91EF919F918F912F910F9066
S11337D000923B000F9000923F000F901F901895AD
S11337E01F920F9200903F000F92112400903B0013
S11337F00F922F938F939F93EF93FF93CF93DF9326
S1133800CDB7DEB780E094E0FC018185882F90E09D
S11338108470992721E0892B09F420E0222349F0C0
S11338208091794590917A4501968093794590935A
S11338307A4580E094E0FC018185882F90E08071D6
S1133840992721E0892B09F420E0222349F0809173
S1133850794590917A4501968093794590937A457C
S113386080E094E02FEFFC0121870000DF91CF91ED
S1133870FF91EF919F918F912F910F9000923B00B8
S11338800F9000923F000F901F901895CF93DF93F5
S1133890CDB7DEB760E082E00E94881862E082E083
S11338A00E94651861E083E00E94881860E083E06C
S11338B00E94DC1860E084E00E94881861E084E0E3
S11338C00E94341863E084E00E94651861E085E09A
S11338D00E94881860E085E00E94DC1861E086E0C0
S11338E00E94881860E086E00E94DC1861E087E0AE
S11338F00E94881860E087E00E94DC1861E080E0A4
S11339000E94161960E080E00E946A1961E081E07B
S11339100E94161960E081E00E946A1961E084E067
S11339200E94161960E084E00E946A1961E085E053
S11339300E94161960E085E00E946A1960E084E044
S11339400E94F81961E085E00E94F81960E085E0C2
S11339500E944C1A61E086E00E94F81960E086E05B
S11339600E944C1A60E087E00E94F81961E087E049
S11339700E94A41963E087E00E94D51960E087E003
S11339800E94A41962E080E00E94A51A62E081E02E
S11339900E94A51A62E082E00E94A51A62E083E018
S11339A00E94A51A62E082E00E94F91A62E083E0B4
S11339B00E94F91A62E084E00E94F91A62E085E04C
S11339C00E94F91A0000DF91CF910895CF93DF93FD
S11339D0CDB7DEB780E890E0FC01118680E0DF918E
S11339E0CF910895CF93DF9300D01F92CDB7DEB768
S11339F089839A836B8389819A814B8168ED0E94C4
S1133A00103000002396CDBFDEBFDF91CF91089523
S1133A10CF93DF93CDB7DEB764E288E690E00E94EF
S1133A20F21C80E0DF91CF910895CF93DF93CDB75F
S1133A30DEB7789480E0DF91CF910895CF93DF9340
S1133A40CDB7DEB780EA90E023E0FC0122830000DA
S1133A50DF91CF910895CF93DF93CDB7DEB70E9466
S1133A601E1D80E694E020E634E0F9012689287FD3
S1133A70FC01268B80E694E020E634E0F9012689F7
S1133A802460FC01268B80E694E020E634E0F90112
S1133A902689277FFC01268B80EA96E021ECFC0135
S1133AA0208380E090E00E94591D0000DF91CF91B7
S1133AB00895CF93DF9300D0CDB7DEB789839A837F
S1133AC080EA96E029812295220F220F207CFC01B6
S1133AD0228380EA96E029813A81369527953695A6
S1133AE02795FC01238300000F900F90DF91CF9165
S1133AF00895CF93DF9300D0CDB7DEB789836A836F
S1133B008A81882F90E081309105E1F0823091051F
S1133B1071F1892B09F03BC088E090E028E030E0A7
S1133B20F9012081622F2981422F50E021E030E009
S1133B3002C0220F331F4A95E2F720952623FC0189
S1133B40208325C088E090E028E030E0F90120815E
S1133B50622F2981422F50E021E030E002C0220F81
S1133B60331F4A95E2F7262BFC01208310C089817C
S1133B70882F90E0805B9B4F2981222F30E0205BCF
S1133B803B4FF90120812860FC01208300000000E4
S1133B900F900F90DF91CF910895CF93DF9300D0D2
S1133BA0CDB7DEB789836A838A818823A9F088E048
S1133BB090E028E030E0F9012181622F2981422F31
S1133BC050E021E030E002C0220F331F4A95E2F7B3
S1133BD0262BFC01218315C088E090E028E030E02A
S1133BE0F9012181622F2981422F50E021E030E048
S1133BF002C0220F331F4A95E2F720952623FC01C9
S1133C00218300000F900F90DF91CF910895CF93FF
S1133C10DF931F92CDB7DEB78983698186E00E9466
S1133C20791D00000F90DF91CF910895CF93DF931A
S1133C301F92CDB7DEB78983998181E08927682FE8
S1133C4086E00E94CD1D00000F90DF91CF91089572
S1133C50CF93DF93CDB7DEB72697CDBFDEBF1982F2
S1133C608981883098F48981882F90E0805F9B4F08
S1133C702981222F30E0205F3B4FF9012081286009
S1133C80FC01208389818F5F8983EACF1A828A812C
S1133C90883098F48A81882F90E0805D9B4F2A8138
S1133CA0222F30E0205D3B4FF90120812860FC0188
S1133CB020838A818F5F8A83EACF1B828B8188303D
S1133CC098F48B81882F90E0805B9B4F2B81222F6F
S1133CD030E0205B3B4FF90120812860FC01208308
S1133CE08B818F5F8B83EACF1C828C81883098F420
S1133CF08C81882F90E080599B4F2C81222F30E0BB
S1133D0020593B4FF90120812860FC0120838C81DC
S1133D108F5F8C83EACF1D828D81883098F48D81EA
S1133D20882F90E080579B4F2D81222F30E0205721
S1133D303B4FF90120812860FC0120838D818F5F36
S1133D408D83EACF1E828E81883098F48E81882FED
S1133D5090E080559B4F2E81222F30E020553B4F21
S1133D60F90120812860FC0120838E818F5F8E837E
S1133D70EACF00002696CDBFDEBFDF91CF91089534
S1133D80CF93DF93CDB7DEB70E94281E0E94081D93
S1133D900E94E33D0E94151D0E94461C81E00E9482
S1133DA0071E80E00E94161E0E94AC3C0E94E61C86
S1133DB00000DF91CF910895CF93DF93CDB7DEB7A5
S1133DC00E94EB250E94F820982F81E08927DF913B
S1133DD0CF910895EF92FF920F931F93CF93DF93A8
S1133DE0CDB7DEB7A597CDBFDEBF8CA39DA38AE078
S1133DF089831A821B821C821D8227E0CE01419690
S1133E00FC01322F11923A95E9F789819FEF980FBF
S1133E109983882399F0CE01419627E0AC0160E0B4
S1133E2080ED0E942F27982F81E0973009F480E0DD
S1133E308E838E81882311F081E001C080E0882385
S1133E4009F0E3CF9E8181E08927882309F47EC1AC
S1133E502CE0CE014896FC01322F11923A95E9F7F5
S1133E6084E690E089879A878F89882F90E08F7005
S1133E70992729853A85820F931F89879A878F8985
S1133E8082958F70882F90E0880F991F9C01220FD4
S1133E90331F220F331F820F931F29853A85820F08
S1133EA0931F89879A8789859A858E8F9F8F8985A5
S1133EB09A858459984F89879A878E898F708B87C2
S1133EC08E8982958F70880F982F990F990F890F7B
S1133ED09B85890F8B878B8581508D8F8D898F7002
S1133EE08C878D8982958F70880F982F990F990FE1
S1133EF0890F9C85890F8C878C858B8F18A219A2BA
S1133F0081E0888798858B85981788F489859A85B8
S1133F1068850E94580128A139A1882F90E0820F5A
S1133F20931F88A399A388858F5F8887EBCF28A1E7
S1133F3039A18B8D082E000C990B0197820F931FCA
S1133F4088A399A3898982958F70880F982F990FD8
S1133F50990F890F8D8789898F709D85890F8D872A
S1133F608A8982958F70880F982F990F990F890FDE
S1133F708E878A898F709E85890F8E878B89882F7B
S1133F8090E08072992721E0892B09F420E02F87A3
S1133F908B89882F90E0959587959595879595952C
S1133FA08795959587958170880F982F990F990F0C
S1133FB0890F8F838B898F709F81890F8F838B8962
S1133FC0882F90E08074992721E0892B09F420E060
S1133FD0288B8889882339F08F85882351F08F8135
S1133FE0845F8F8306C08F85882319F08F818C5E50
S1133FF08F838F818A8F8E85898F8D85888F888D19
S1134000282F880F330B898D482F880F550B6CE3AD
S1134010649FC001659F900D1124820F931F7C0142
S1134020990F000B110B8A8D282F880F330B440B2B
S1134030550B80E19EE0DC010E94D145DC01CB01FF
S1134040E80EF91E0A1F1B1F88A199A1092E000C56
S1134050AA0BBB0B9C01AD0160E871E581E090E027
S11340600E944045DC01CB01E80EF91E0A1F1B1F0C
S11340708E8D9F8D86549109092E000CAA0BBB0BC3
S11340809C01AD0160E873E381EE91E00E9440453C
S1134090DC01CB01E80EF91E0A1F1B1F8E8D9F8DBC
S11340A08554910999230CF40396959587959595D4
S11340B08795092E000CAA0BBB0B9C01AD0160E88F
S11340C071E581E090E00E944045DC01CB01E80EFF
S11340D0F91E0A1F1B1F8E8D9F8D019724E630E069
S11340E0B9010E946445CB01092E000CAA0BBB0B3D
S11340F09C01AD0160E87EEA8EEF9FEF0E9440458F
S1134100DC01CB01E80EF91E0A1F1B1F8E8D9F8D4B
S1134110855D9E4F20E931E0B9010E946445CB01E1
S1134120092E000CAA0BBB0B9C01AD0160E871E5E4
S113413081E090E00E944045DC01CB018E0D9F1D83
S1134140A01FB11F8A839B83AC83BD838CA19DA1D7
S1134150892B51F08E81882311F02CEF01C020E0CF
S11341608CA19DA1FC0120838A819B81AC81BD81AE
S1134170BC01CD01A596CDBFDEBFDF91CF911F91CC
S11341800F91FF90EF900895CF93DF9300D000D06C
S1134190CDB7DEB78C838AE089838C81882311F0C4
S11341A080E001C084E08B8389819FEF980F99831D
S11341B0882399F0CE01039621E0AC016EE080EDF6
S11341C00E94C726982F81E0913009F480E08A8309
S11341D08A81882311F081E001C080E0882309F0FE
S11341E0E3CF8A812496CDBFDEBFDF91CF910895BE
S11341F0CF93DF9300D01F92CDB7DEB719828AE048
S11342008A838A819FEF980F9A838823A9F0CE012D
S1134210039621E0AC0160E180ED0E942F27982FE6
S113422081E0913009F080E08983998181E08927D8
S1134230882311F081E001C080E0882309F0E1CFF8
S113424089812396CDBFDEBFDF91CF910895CF93AF
S1134250DF9300D0CDB7DEB789839A8300000F9037
S11342600F90DF91CF910895CF93DF9300D0CDB716
S1134270DEB789839A8300000F900F90DF91CF916E
S11342800895CF93DF9300D01F92CDB7DEB7898313
S11342909A836B8380E090E1FC018281882F90E017
S11342A08270992721E0892B09F420E0222309F068
S11342B0F1CF8DE993E184BF9093001089819A81B5
S11342C09C5E2B81FC0120838DE990E084BF909358
S11342D0001000002396CDBFDEBFDF91CF9108957B
S11342E0CF93DF9300D000D0CDB7DEB789839A8314
S11342F06B837C8380E090E1FC018281882F90E0D5
S11343008270992721E0892B09F420E0222309F007
S1134310F1CF8DE993E184BF9093001089819A8154
S11343209C5E9C018B819C81F901808391838DE942
S113433090E084BF9093001000002496CDBFDEBFB0
S1134340DF91CF910895CF93DF93CDB7DEB7269752
S1134350CDBFDEBF89839A834B835C836D837E8369
S113436080E090E1FC018281882F90E0827099279F
S113437021E0892B09F420E0222309F0F1CF8DE913
S113438093E184BF9093001089819A819C5E9C0183
S11343908B819C81AD81BE81F90180839183A2834D
S11343A0B3838DE990E084BF9093001000002696BB
S11343B0CDBFDEBFDF91CF910895CF93DF93CDB70B
S11343C0DEB76F97CDBFDEBF8E8F9F8F81E089836D
S11343D080E090E00E94104A8C839D838C819D81B3
S11343E08E3C910509F050C188E290E00E94014A98
S11343F08E8385E08F8384E188879E8188858917F1
S113440040F09E818F81981710F48F8103C08E81B4
S113441001C0888580930B4089E290E00E94014AA4
S113442089871A8681E18B8799858B85891740F066
S113443099858A85981710F48A8503C0898501C0F7
S11344408B8580931A4082E090E00E94094ADC0147
S1134450CB018093544590935545A0935645B09312
S1134460574586E090E00E94094ADC01CB01809325
S1134470584590935945A0935A45B0935B458AE2B9
S113448090E00E94014A809367451A821B828A81C8
S11344909B814497E8F48A819B810A9680509040DE
S11344A00E94014A282F8A819B81855C9A4BFC01DA
S11344B020838A819B81855C9A4BFC0180818823BF
S11344C031F08A819B8101968A839B83E0CF00002F
S11344D01A821B828A819B810897E8F48A819B81D6
S11344E04F96805090400E94014A282F8A819B81D8
S11344F088599A4BFC0120838A819B8188599A4B65
S1134500FC018081882331F08A819B8101968A8312
S11345109B83E0CF00008BE290E00E94094ADC011B
S1134520CB018C879D87AE87BF8780EE97E6A5E396
S1134530B0E0888B998BAA8BBB8B80E099E0ADE3CC
S1134540B0E08C8B9D8BAE8BBF8B2C853D854E85CF
S11345505F858C899D89AE89BF8982179307A407DB
S1134560B507B8F02C853D854E855F858889998986
S1134570AA89BB89281739074A075B0728F4888961
S11345809989AA89BB8909C08C859D85AE85BF851B
S113459004C08C899D89AE89BF8980932D409093F6
S11345A02E40A0932F40B09330408FE290E00E94C1
S11345B0094ADC01CB018093334090933440A093AB
S11345C03540B093364083E390E00E94104A888FD0
S11345D0998F1A8E1B8E88E893E18C8F9D8F288D7E
S11345E0398D8C8D9D8D8217930768F0288D398DB8
S11345F08A8D9B8D2817390718F48A8D9B8D05C0E9
S1134600888D998D02C08C8D9D8D809331409093BF
S113461032408091544590915545A0915645B091B2
S11346205745892B8A2B8B2BB9F020915845309113
S1134630594540915A4550915B458091544590911C
S11346405545A0915645B091574582179307A40745
S1134650B50710F081E001C080E08823A1F08091CB
S1134660544590915545A0915645B0915745805871
S11346709E4AAE4FBF4F8093584590935945A0939F
S11346805A45B0935B45198289816F96CDBFDEBFD1
S1134690DF91CF910895CF93DF93CDB7DEB72B97FA
S11346A0CDBFDEBF8A879B871F8280E090E00E9497
S11346B0104A88879987888599858E3C910509F4E5
S11346C0D9C084E180930B4080910B40682F88E22D
S11346D090E00E94412181E080931A4080911A4029
S11346E0682F89E290E00E94412110925445109273
S11346F055451092564510925745809154459091D6
S11347005545A0915645B0915745AC01BD0182E095
S113471090E00E94A321109258451092594510929E
S11347205A4510925B458091584590915945A09106
S11347305A45B0915B45AC01BD0186E090E00E9412
S1134740A3211092674580916745682F8AE290E023
S11347500E94412110923B4560E08AE090E00E9473
S1134760412184E894E48D839E838FE190E08983E2
S11347709A831B821C828B819C81049718F58D81FE
S11347809E81FC0120818B819C8188599A4BFC017C
S113479020838D819E819C012F5F3F4F2D833E831B
S11347A0FC01408189819A819C012F5F3F4F2983BD
S11347B03A83642F0E9441218B819C8101968B83D3
S11347C09C83D9CF89819A8160E00E9441218B81A9
S11347D09C8188599A4BFC01108280E294E0A6E304
S11347E0B0E080932D4090932E40A0932F40B0933F
S11347F0304080912D4090912E40A0912F40B09157
S11348003040AC01BD018BE290E00E94A3218AEA12
S113481090E0A0E0B0E08093334090933440A093C4
S11348203540B093364080912D4090912E40A09118
S11348302F40B0913040AC01BD018BE290E00E946A
S1134840A32184EF91E08093314090933240809192
S1134850314090913240CC01A0E0B0E0AC01BD0108
S113486083E390E00E94A3216EEC70E080E090E08E
S11348700E9470218F812B96CDBFDEBFDF91CF9137
S113488008950F931F93CF93DF93CDB7DEB762974D
S1134890CDBFDEBF89879A874B875C876D877E870C
S11348A00F87188B298B3A8B8F859889A989BA89A8
S11348B080937B4590937C45A0937D45B0937E4542
S11348C08B859C85AD85BE8589839A83AB83BC83A8
S11348D084E690E08D839E8381ED90E08F839887BA
S11348E08F819885092E000CAA0BBB0BBC01CD014E
S11348F00E941E44DC01CB0129813A814B815C81F9
S1134900BC01CD010E946F4388236CF48F8198858C
S1134910092E000CAA0BBB0BBC01CD010E941E4446
S1134920DC01CB0127C08D819E81092E000CAA0BCE
S1134930BB0BBC01CD010E941E44DC01CB012981CB
S11349403A814B815C81BC01CD010E94CE44181692
S11349506CF48D819E81092E000CAA0BBB0BBC014B
S1134960CD010E941E44DC01CB0104C089819A81DF
S1134970AB81BC81BC01CD010E94E643DC01CB01CB
S113498080937F459093804580917F4590918045A9
S1134990880F991F0E94DC45809384459093854538
S11349A000006296CDBFDEBFDF91CF911F910F91C2
S11349B00895CF93DF9300D0CDB7DEB789839A8370
S11349C080918445909185450E94744600000F9023
S11349D00F90DF91CF910895CF93DF9300D000D053
S11349E0CDB7DEB789839A836B837C8380918345BB
S11349F0882319F08091834532C0209184453091F9
S1134A0085458091814590918245880F991F820F39
S1134A10931F2B813C81FC0120833183809181454C
S1134A20909182450196809381459093824520918F
S1134A3081453091824580917F459091804541E048
S1134A40281739070CF440E0442339F010928145CB
S1134A501092824581E0809383458091834524961A
S1134A60CDBFDEBFDF91CF910895CF93DF9300D008
S1134A7000D0CDB7DEB78B836C838B81882F90E019
S1134A80805D9B4F89839A838C81813059F489811D
S1134A909A81FC018081282F286089819A81FC01F8
S1134AA020830DC08C81882351F489819A81FC0173
S1134AB08081282F277F89819A81FC01208300002F
S1134AC02496CDBFDEBFDF91CF910895CF93DF93BE
S1134AD000D000D0CDB7DEB78B836C838B81882F59
S1134AE090E0805B9B4F89839A838C81813059F459
S1134AF089819A81FC018081282F286089819A818B
S1134B00FC0120830DC08C81882351F489819A8112
S1134B10FC018081282F277F89819A81FC012083D1
S1134B2000002496CDBFDEBFDF91CF910895CF93CF
S1134B30DF9300D0CDB7DEB789836A838A81882F5B
S1134B4090E081309105E1F08230910571F1892B7B
S1134B5009F03BC088E090E028E030E0F9012081D2
S1134B60622F2981422F50E021E030E002C0220F61
S1134B70331F4A95E2F720952623FC01208325C0A4
S1134B8088E090E028E030E0F9012081622F29815B
S1134B90422F50E021E030E002C0220F331F4A953B
S1134BA0E2F7262BFC01208310C08981882F90E036
S1134BB0805B9B4F2981222F30E0205B3B4FF90122
S1134BC020812860FC012083000000000F900F90DA
S1134BD0DF91CF910895CF93DF93CDB7DEB761E036
S1134BE083E00E94972561E083E00E94662561E0EE
S1134BF082E00E94662580EE95E020EE35E0F90122
S1134C0025812A70FC01258380EE95E020EE35E0B5
S1134C10F90125812260FC01258380E099E02FE6DB
S1134C20FC01268380E099E021E0FC01238380E0FD
S1134C3099E0FC01178280E099E0FC01108680E095
S1134C4099E021E0FC0125830000DF91CF910895D4
S1134C50CF93DF931F92CDB7DEB719828CE291E038
S1134C6080931E4090931F4080E099E0FC01858171
S1134C70882F90E0807C992721E0892B09F420E09B
S1134C802223A1F080E099E0FC018581882F90E047
S1134C908071992721E0892B09F020E0222319F063
S1134CA081E0898313C082E0898310C080E099E0A9
S1134CB0FC018581882F90E08C70992721E0892B55
S1134CC009F420E0222311F084E089838981882378
S1134CD041F480911E4090911F40892B11F081E096
S1134CE001C080E0882309F0BFCF80911E409091DD
S1134CF01F4021E0892B09F020E0222311F084E0F9
S1134D00898389810F90DF91CF910895CF93DF93A9
S1134D101F92CDB7DEB7198288EC90E080931E40D5
S1134D2090931F4080E099E0FC018581882F90E0FA
S1134D30807C992721E0892B09F420E0222319F0B3
S1134D4083E0898310C080E099E0FC018581882F8D
S1134D5090E08C70992721E0892B09F420E022232C
S1134D6011F084E089838981882341F480911E4075
S1134D7090911F40892B11F081E001C080E08823CD
S1134D8009F0D0CF89810F90DF91CF910895CF930F
S1134D90DF93CDB7DEB72697CDBFDEBF8A836B83A3
S1134DA04C835D832E838FEF898380E099E02A8191
S1134DB0FC0127830E942826982F81E0913009F472
S1134DC080E0882311F0898144C080E099E02B8140
S1134DD0FC0120870E942826982F81E0913009F455
S1134DE080E0882311F0898134C019828E81882360
S1134DF079F18C819D81892B59F18E819FEF980FD8
S1134E009E8391E0882309F490E0992309F180E0DE
S1134E1099E02C813D81F9012081FC0120870E94C9
S1134E202826982F81E0913009F080E0882379F0DA
S1134E3089818F5F89838C819D8101968C839D8379
S1134E408E81882311F40E94AD270000D6CF000084
S1134E5089812696CDBFDEBFDF91CF910895CF9390
S1134E60DF93CDB7DEB72697CDBFDEBF8A836B83D2
S1134E704C835D832E838FEF898380E099E02A81C0
S1134E80FC0127830E942826982F81E0913009F4A1
S1134E9080E0882311F089815AC080E099E02B8159
S1134EA0FC0120870E942826982F81E0913009F484
S1134EB080E0882311F089814AC080E099E02A814A
S1134EC02160FC0127830E942826982F81E09130DD
S1134ED009F480E0882311F0898139C019828E8118
S1134EE08823A1F18C819D81892B81F18E819FEF93
S1134EF0980F9E8391E0882309F490E0992331F17F
S1134F000E948626982F81E0933009F080E0882360
S1134F10E1F080E099E0FC0120858C819D81FC0119
S1134F20208380E099E02E81222311F427E001C040
S1134F3022E0FC01248389818F5F89838C819D8198
S1134F4001968C839D830000D1CF00008981269631
S1134F50CDBFDEBFDF91CF910895CF93DF93CDB75F
S1134F60DEB780E099E023E0FC0124830000DF91B8
S1134F70CF910895CF93DF93CDB7DEB780EE95E060
S1134F8020EE35E0F90125812370FC01258380EEB4
S1134F9095E020EE35E0F90125812860FC012583A8
S1134FA080E299E02FE6FC01268380E299E021E08B
S1134FB0FC01238380E299E0FC01178280E299E0FE
S1134FC0FC01108680E299E021E0FC01258361E088
S1134FD082E00E94352561E083E00E9435250000CF
S1134FE0DF91CF910895CF93DF9300D0CDB7DEB793
S1134FF0198288EC90E0809320409093214080E2D5
S113500099E0FC0185818A838A81882F90E0807CE5
S11350109927892B69F08A81882F90E080719927DC
S1135020892B19F481E089830CC082E0898309C04B
S11350308A81882F90E08C709927892B11F084E065
S113504089838981882341F4809120409091214073
S1135050892B11F081E001C080E0882309F0CFCFD3
S113506089810F900F90DF91CF910895CF93DF93B3
S11350701F92CDB7DEB7198288EC90E080931E4072
S113508090931F4080E299E0FC018581882F90E095
S1135090807C992721E0892B09F420E0222319F050
S11350A083E0898310C080E299E0FC018581882F28
S11350B090E08C70992721E0892B09F420E02223C9
S11350C011F084E089838981882341F480911E4012
S11350D090911F40892B11F081E001C080E088236A
S11350E009F0D0CF89810F90DF91CF910895CF93AC
S11350F0DF93CDB7DEB72697CDBFDEBF8A836B8340
S11351004C835D832E838FEF898380E299E02A812B
S11351102E7FFC0127830E94F327982F81E0913092
S113512009F480E0882311F0898144C080E299E089
S11351302B81FC0120870E94F327982F81E0913076
S113514009F480E0882311F0898134C019828E81AA
S1135150882379F18C819D81892B59F18E819FEF70
S1135160980F9E8391E0882309F490E0992309F134
S113517080E299E02C813D81F9012081FC012087A6
S11351800E94F327982F81E0913009F080E0882372
S113519079F089818F5F89838C819D8101968C83CD
S11351A09D838E81882311F40E945E290000D6CF4E
S11351B0000089812696CDBFDEBFDF91CF9108958F
S11351C0CF93DF93CDB7DEB72697CDBFDEBF8A83FB
S11351D06B834C835D832E838FEF898380E299E018
S11351E02A81FC0127830E94F327982F81E09130C4
S11351F009F480E0882311F089815AC080E299E0A3
S11352002B81FC0120870E94F327982F81E09130A5
S113521009F480E0882311F089814AC080E299E092
S11352202A812160FC0127830E94F327982F81E0C3
S1135230913009F480E0882311F0898139C0198202
S11352408E818823A1F18C819D81892B81F18E81AE
S11352509FEF980F9E8391E0882309F490E09923AF
S113526031F10E943628982F81E0933009F080E0D4
S11352708823E1F080E299E0FC0120858C819D8106
S1135280FC01208380E299E02E81222311F427E09F
S113529001C022E0FC01248389818F5F89838C8192
S11352A09D8101968C839D830000D1CF000089816C
S11352B02696CDBFDEBFDF91CF910895CF93DF93C4
S11352C0CDB7DEB780E299E023E0FC01248300003F
S11352D0DF91CF910895CF93DF9300D000D0CDB765
S11352E0DEB78B836C838B81882F90E0805B9B4F30
S11352F089839A838C81813059F489819A81FC0154
S11353008081282F286089819A81FC0120830DC027
S11353108C81882351F489819A81FC018081282F12
S1135320277F89819A81FC01208300002496CDBFC8
S1135330DEBFDF91CF910895CF93DF9300D0CDB737
S1135340DEB789836A838A81882F90E08130910552
S1135350E1F08230910571F1892B09F03BC088E0BE
S113536090E028E030E0F9012081622F2981422F6A
S113537050E021E030E002C0220F331F4A95E2F7EB
S113538020952623FC01208325C088E090E028E0B6
S113539030E0F9012081622F2981422F50E021E081
S11353A030E002C0220F331F4A95E2F7262BFC019E
S11353B0208310C08981882F90E0805B9B4F2981D6
S11353C0222F30E0205B3B4FF90120812860FC0153
S11353D02083000000000F900F90DF91CF9108957B
S11353E0CF93DF9300D0CDB7DEB789836A838A81F8
S11353F08823A9F088E090E028E030E0F9012181D9
S1135400622F2981422F50E021E030E002C0220FB8
S1135410331F4A95E2F7262BFC01218315C088E04F
S113542090E028E030E0F9012181622F2981422FA8
S113543050E021E030E002C0220F331F4A95E2F72A
S113544020952623FC01218300000F900F90DF910B
S1135450CF910895CF93DF9300D000D0CDB7DEB7BE
S11354608B836C838B81882F90E080579B4F89833B
S11354709A838C81813059F489819A81FC018081DD
S1135480282F286089819A81FC0120830DC08C819A
S1135490882351F489819A81FC018081282F277FF8
S11354A089819A81FC01208300002496CDBFDEBF50
S11354B0DF91CF910895CF93DF9300D0CDB7DEB7BE
S11354C089836A838A81882F90E081309105E1F095
S11354D08230910571F1892B09F03BC080E190E0A5
S11354E020E130E0F9012081622F2981422F50E030
S11354F021E030E002C0220F331F4A95E2F72095E5
S11355002623FC01208325C080E190E020E130E0E7
S1135510F9012081622F2981422F50E021E030E0FF
S113552002C0220F331F4A95E2F7262BFC01208389
S113553010C08981882F90E080579B4F2981222FAA
S113554030E020573B4FF90120812860FC01208383
S1135550000000000F900F90DF91CF910895CF933A
S1135560DF9300D0CDB7DEB789836A838A8188232D
S1135570A9F080E190E020E130E0F9012181622F7F
S11355802981422F50E021E030E002C0220F331F76
S11355904A95E2F7262BFC01218315C080E190E0B7
S11355A020E130E0F9012181622F2981422F50E06E
S11355B021E030E002C0220F331F4A95E2F7209524
S11355C02623FC01218300000F900F90DF91CF91DF
S11355D00895CF93DF931F92CDB7DEB78983698196
S11355E080E00E949C2900000F90DF91CF910895E4
S11355F0CF93DF931F92CDB7DEB78983698180E0B3
S11356000E94F02900000F90DF91CF910895CF936D
S1135610DF931F92CDB7DEB78983698181E00E9451
S11356206B2900000F90DF91CF910895CF93DF9302
S11356301F92CDB7DEB78983698181E00E949C29DE
S113564000000F90DF91CF910895CF93DF931F92C5
S1135650CDB7DEB78983698180E00E945B2A0000B0
S11356600F90DF91CF910895CF93DF931F92CDB721
S1135670DEB78983698180E00E94AF2A00000F9021
S1135680DF91CF910895CF93DF931F92CDB7DEB70B
S11356908983698181E00E942A2A00000F90DF91AA
S11356A0CF910895CF93DF931F92CDB7DEB789834F
S11356B0698181E00E945B2A00000F90DF91CF9105
S11356C00895CF93DF9300D0CDB7DEB781E089830F
S11356D01A828091D346282F30E042E3429FC001D2
S11356E0439F900D112489579A4BFC018081882394
S11356F0C1F48A818F5F8A8381E09A81943008F4AF
S113570080E0882311F019820CC08091D3468F5F0A
S11357108093D3468091D3468430D8F21092D346F6
S1135720D8CF8981882369F08091D346282F30E02F
S113573042E3429FC001439F900D112489579A4B25
S113574002C080E090E00F900F90DF91CF91089518
S1135750CF93DF9300D0CDB7DEB781E089831A827F
S11357608091D446282F30E042E4429FC001439FF9
S1135770900D1124805B994BFC0180819181892BD0
S1135780C1F08A818F5F8A8381E09A81923008F424
S113579080E0882311F019820CC08091D4468F5F79
S11357A08093D4468091D4468230D0F21092D4466D
S11357B0D7CF8981882369F08091D446282F30E09F
S11357C042E4429FC001439F900D1124815B994B99
S11357D002C080E090E00F900F90DF91CF91089588
S11357E0CF93DF93CDB7DEB7809186458823C9F088
S11357F080912340882351F480E898E020E838E041
S1135800F90125812F7DFC01258309C080E298E000
S113581020E238E0F90125812F7DFC0125831092D7
S113582086450000DF91CF910895CF93DF9300D098
S113583000D0CDB7DEB769837A838B839C8380E005
S11358400E94162B80E00E94072B81E00E94E92A27
S113585081E00E94F82A89819A81AB81BC81BC01D4
S1135860CD010E94BF4100002496CDBFDEBFDF9171
S1135870CF910895CF93DF9300D000D0CDB7DEB79A
S113588069837A838B839C8380E00E94522B80E01F
S11358900E94432B81E00E94252B81E00E94342B3F
S11358A089819A81AB81BC81BC01CD010E943442C3
S11358B000002496CDBFDEBFDF91CF910895CF9332
S11358C0DF93CDB7DEB72797CDBFDEBF6B837C8375
S11358D08D839E834F8344E850E060E070E08FE462
S11358E096E40E94054719821A8289819A81049755
S11358F094F429813A8142E3429FC001439F900D71
S1135900112489579A4BFC01108289819A8101964E
S113591089839A83EACF8F81863021F48091234052
S11359208730B9F48F81882349F48B819C81AD81C0
S1135930BE81BC01CD010E943A2C08C08B819C81A0
S1135940AD81BE81BC01CD010E94152C8F81809355
S113595023401092224000002796CDBFDEBFDF9186
S1135960CF910895CF93DF93CDB7DEB72897CDBFFE
S1135970DEBF8B839C836D837E834F8358878B81AB
S11359809C81892B09F44AC01092D5468D819E8151
S1135990892B31F08D819E81FC018081809324408C
S11359A08B819C81FC018081882321F18B819C81E6
S11359B08093D6469093D74680E280932540809189
S11359C0D6469091D746FC0180810E945A2EA82F7A
S11359D0CB018093D8469093D946A093DA4610928F
S11359E0DB461092DC461092DD461092DE461092A1
S11359F0DF4610C01092D6461092D74681E08093BD
S1135A00DF468F819885892B29F08F81988521E045
S1135A10FC0120831092E04680E0F6C08091D646D7
S1135A209091D746892B09F4DDC08D819E81892B05
S1135A3031F0209124408D819E81FC01208380914E
S1135A40DF46882369F08F819885892B39F08F810F
S1135A50988521E0FC0120831092D54680E0D4C0D3
S1135A608091DD46882331F08091DD46815080931A
S1135A70DD46AEC08091E0468823A1F09091D546E2
S1135A8081E08927882371F01092E0468091DE46F8
S1135A90882309F49DC08091DE468093DD461092F0
S1135AA0DE4696C09091D9468091DC46891708F469
S1135AB04AC02091D6463091D7468091DB468F5F0D
S1135AC08093DB468091DB46882F90E0820F931F02
S1135AD0FC0180818093254080912540882329F50D
S1135AE080912440882359F08091D6469091D746DE
S1135AF0FC018081809325401092DB4616C01092F1
S1135B00D6461092D7461092E04681E08093DF4655
S1135B108F819885892B29F08F81988521E0FC015C
S1135B2020831092D54680E06FC0809125400E946A
S1135B305A2EA82FCB018093D8469093D946A09390
S1135B40DA461092DC468091D8468D3F70F58091FC
S1135B50D846882F90E02091DC4631E0320F309314
S1135B60DC46222F30E002C0959587952A95E2F70E
S1135B708170992721E0892B09F420E02983898108
S1135B80882321F082E08093DD4602C01092DD4636
S1135B9081E08093E0469091D9468091DC46891754
S1135BA0B8F082E08093DE4613C08091D9468A83A0
S1135BB08FEF8093DC461092E0468A81843030F087
S1135BC08091D94684508093DD4602C01092DD4610
S1135BD0809125408C3321F481E08093D54602C026
S1135BE01092D5468F819885892B31F02091DF461C
S1135BF08F819885FC0120838091D546882311F0FC
S1135C0081E002C08091E0462896CDBFDEBFDF91DF
S1135C10CF910895CF93DF93CDB7DEB72B97CDBF48
S1135C20DEBF888799876A877B8719821A821B82DD
S1135C308A819B8144972CF58A819B8128853985AB
S1135C40820F931FFC0180818C838C818823C1F097
S1135C508C810E945A2EA82FCB018D839E83AF8303
S1135C608D818D3F18F489818D5F89838F8199811E
S1135C70890F89838A819B8101968A839B83D8CFEC
S1135C8000008981282F30E080EB94E04A855B8511
S1135C90BA010E945045CB01AC01249FC001259F4D
S1135CA0900D349F900D11242B96CDBFDEBFDF9154
S1135CB0CF910895CF93DF9300D000D0CDB7DEB756
S1135CC08C838C81882F90E0092E000CAA0BBB0BCF
S1135CD040E250E02CE530E0841B950B281739078F
S1135CE008F48FC189549F4FFC010C94B94582E09C
